{
  "address": "0x5204d03B8Bfab78A2b76dC9B122C6F47Dd3c0bD5",
  "abi": [
    {
      "inputs": [
        {
          "internalType": "contract IMossHub",
          "name": "_mossHub",
          "type": "address"
        }
      ],
      "stateMutability": "nonpayable",
      "type": "constructor"
    },
    {
      "inputs": [],
      "name": "mossHub",
      "outputs": [
        {
          "internalType": "contract IMossHub",
          "name": "",
          "type": "address"
        }
      ],
      "stateMutability": "view",
      "type": "function"
    },
    {
      "inputs": [
        {
          "internalType": "uint256",
          "name": "id",
          "type": "uint256"
        },
        {
          "internalType": "uint256",
          "name": "amountToBurn",
          "type": "uint256"
        }
      ],
      "name": "stoneBurn",
      "outputs": [
        {
          "components": [
            {
              "internalType": "uint256",
              "name": "total",
              "type": "uint256"
            },
            {
              "internalType": "uint256",
              "name": "value",
              "type": "uint256"
            },
            {
              "internalType": "uint256",
              "name": "creatorFee",
              "type": "uint256"
            },
            {
              "internalType": "uint256",
              "name": "devFee",
              "type": "uint256"
            }
          ],
          "internalType": "struct Helpers.BurningInfo",
          "name": "info",
          "type": "tuple"
        }
      ],
      "stateMutability": "view",
      "type": "function"
    },
    {
      "inputs": [
        {
          "internalType": "uint256",
          "name": "id",
          "type": "uint256"
        },
        {
          "internalType": "uint256",
          "name": "amountToMint",
          "type": "uint256"
        }
      ],
      "name": "stoneMint",
      "outputs": [
        {
          "components": [
            {
              "internalType": "uint256",
              "name": "total",
              "type": "uint256"
            },
            {
              "internalType": "uint256",
              "name": "value",
              "type": "uint256"
            },
            {
              "internalType": "uint256",
              "name": "creatorFee",
              "type": "uint256"
            },
            {
              "internalType": "uint256",
              "name": "devFee",
              "type": "uint256"
            }
          ],
          "internalType": "struct Helpers.MintingInfo",
          "name": "info",
          "type": "tuple"
        }
      ],
      "stateMutability": "view",
      "type": "function"
    },
    {
      "inputs": [
        {
          "internalType": "address",
          "name": "to",
          "type": "address"
        },
        {
          "internalType": "uint256",
          "name": "id",
          "type": "uint256"
        }
      ],
      "name": "stoneOf",
      "outputs": [
        {
          "components": [
            {
              "internalType": "uint256",
              "name": "k",
              "type": "uint256"
            },
            {
              "internalType": "uint64",
              "name": "minFloor",
              "type": "uint64"
            },
            {
              "internalType": "uint64",
              "name": "devFeePCT",
              "type": "uint64"
            },
            {
              "internalType": "uint64",
              "name": "defaultCreatorFeePCT",
              "type": "uint64"
            },
            {
              "internalType": "address",
              "name": "creator",
              "type": "address"
            },
            {
              "internalType": "uint256",
              "name": "floor",
              "type": "uint256"
            },
            {
              "internalType": "uint256",
              "name": "nextFloor",
              "type": "uint256"
            },
            {
              "internalType": "uint256",
              "name": "floorSupply",
              "type": "uint256"
            },
            {
              "internalType": "uint256",
              "name": "stepment",
              "type": "uint256"
            },
            {
              "internalType": "uint256",
              "name": "fsStep",
              "type": "uint256"
            },
            {
              "internalType": "uint256",
              "name": "accountBalance",
              "type": "uint256"
            },
            {
              "internalType": "uint256",
              "name": "totalSupply",
              "type": "uint256"
            },
            {
              "internalType": "uint256",
              "name": "worth",
              "type": "uint256"
            }
          ],
          "internalType": "struct Helpers.StoneInfo",
          "name": "stone",
          "type": "tuple"
        }
      ],
      "stateMutability": "view",
      "type": "function"
    }
  ],
  "transactionHash": "0xfbfb248db7669eed3f8c920031d84d675082c4456fbee1335947030199ae3e88",
  "args": [
    "0x9120Ed1448CE1Bf3285ce6d77cF6232d4a974b28"
  ],
  "numDeployments": 1,
  "solcInputHash": "6f6e2743bd280fbcd979d0cd5ae807cb",
  "bytecode": "0x60a060405234801561001057600080fd5b5060405161134838038061134883398101604081905261002f91610040565b6001600160a01b0316608052610070565b60006020828403121561005257600080fd5b81516001600160a01b038116811461006957600080fd5b9392505050565b60805161121d61012b6000396000818160d8015281816101ba01528181610238015281816102fe0152818161038a01528181610448015281816104e10152818161058201528181610610015281816106b60152818161075d015281816108140152818161089a0152818161094201528181610a0501528181610a9c01528181610b2b01528181610bba01528181610c8401528181610d6101528181610df801528181610e8701528181610f160152610fe0015261121d6000f3fe608060405234801561001057600080fd5b506004361061004c5760003560e01c806307da15ac1461005157806376184eba1461007a57806399dc9889146100c0578063f8d810aa146100d3575b600080fd5b61006461005f366004611027565b610112565b6040516100719190611053565b60405180910390f35b61008d610088366004611128565b6109c1565b60405161007191908151815260208083015190820152604080830151908201526060918201519181019190915260800190565b61008d6100ce366004611128565b610d1d565b6100fa7f000000000000000000000000000000000000000000000000000000000000000081565b6040516001600160a01b039091168152602001610071565b6101a4604051806101a0016040528060008152602001600067ffffffffffffffff168152602001600067ffffffffffffffff168152602001600067ffffffffffffffff16815260200160006001600160a01b0316815260200160008152602001600081526020016000815260200160008152602001600081526020016000815260200160008152602001600081525090565b60405163221eedd160e11b8152600481018390527f00000000000000000000000000000000000000000000000000000000000000006001600160a01b03169063443ddba290602401602060405180830381865afa158015610209573d6000803e3d6000fd5b505050506040513d601f19601f8201168201806040525081019061022d919061114a565b8160000181815250507f00000000000000000000000000000000000000000000000000000000000000006001600160a01b031663503e0a986040518163ffffffff1660e01b8152600401602060405180830381865afa158015610294573d6000803e3d6000fd5b505050506040513d601f19601f820116820180604052508101906102b89190611163565b67ffffffffffffffff16602080830191909152604080517f29bff69000000000000000000000000000000000000000000000000000000000815290516001600160a01b037f000000000000000000000000000000000000000000000000000000000000000016926329bff69092600480820193918290030181865afa158015610345573d6000803e3d6000fd5b505050506040513d601f19601f820116820180604052508101906103699190611163565b816040019067ffffffffffffffff16908167ffffffffffffffff16815250507f00000000000000000000000000000000000000000000000000000000000000006001600160a01b031663cdb9c4eb6040518163ffffffff1660e01b8152600401602060405180830381865afa1580156103e6573d6000803e3d6000fd5b505050506040513d601f19601f8201168201806040525081019061040a9190611163565b67ffffffffffffffff1660608201526040517f589a1743000000000000000000000000000000000000000000000000000000008152600481018390527f00000000000000000000000000000000000000000000000000000000000000006001600160a01b03169063589a174390602401602060405180830381865afa158015610497573d6000803e3d6000fd5b505050506040513d601f19601f820116820180604052508101906104bb9190611194565b6001600160a01b039081166080830152604051632827af2b60e11b8152600481018490527f00000000000000000000000000000000000000000000000000000000000000009091169063504f5e5690602401602060405180830381865afa15801561052a573d6000803e3d6000fd5b505050506040513d601f19601f8201168201806040525081019061054e919061114a565b60a08201526040517f12967894000000000000000000000000000000000000000000000000000000008152600481018390527f00000000000000000000000000000000000000000000000000000000000000006001600160a01b031690631296789490602401602060405180830381865afa1580156105d1573d6000803e3d6000fd5b505050506040513d601f19601f820116820180604052508101906105f5919061114a565b60c082015260405163102186e760e31b8152600481018390527f00000000000000000000000000000000000000000000000000000000000000006001600160a01b03169063810c373890602401602060405180830381865afa15801561065f573d6000803e3d6000fd5b505050506040513d601f19601f82011682018060405250810190610683919061114a565b60e08201526040517ed92e39000000000000000000000000000000000000000000000000000000008152600481018390527f00000000000000000000000000000000000000000000000000000000000000006001600160a01b03169062d92e3990602401602060405180830381865afa158015610704573d6000803e3d6000fd5b505050506040513d601f19601f82011682018060405250810190610728919061114a565b6101008201526040517f09501e66000000000000000000000000000000000000000000000000000000008152600481018390527f00000000000000000000000000000000000000000000000000000000000000006001600160a01b0316906309501e6690602401602060405180830381865afa1580156107ac573d6000803e3d6000fd5b505050506040513d601f19601f820116820180604052508101906107d0919061114a565b6101208201526040517efdd58e0000000000000000000000000000000000000000000000000000000081526001600160a01b038481166004830152602482018490527f0000000000000000000000000000000000000000000000000000000000000000169062fdd58e90604401602060405180830381865afa15801561085a573d6000803e3d6000fd5b505050506040513d601f19601f8201168201806040525081019061087e919061114a565b61014082015260405163bd85b03960e01b8152600481018390527f00000000000000000000000000000000000000000000000000000000000000006001600160a01b03169063bd85b03990602401602060405180830381865afa1580156108e9573d6000803e3d6000fd5b505050506040513d601f19601f8201168201806040525081019061090d919061114a565b6101608201526040517fc5464eb4000000000000000000000000000000000000000000000000000000008152600481018390527f00000000000000000000000000000000000000000000000000000000000000006001600160a01b03169063c5464eb490602401602060405180830381865afa158015610991573d6000803e3d6000fd5b505050506040513d601f19601f820116820180604052508101906109b5919061114a565b61018082015292915050565b6109ec6040518060800160405280600081526020016000815260200160008152602001600081525090565b60405163221eedd160e11b8152600481018490526000907f00000000000000000000000000000000000000000000000000000000000000006001600160a01b03169063443ddba290602401602060405180830381865afa158015610a54573d6000803e3d6000fd5b505050506040513d601f19601f82011682018060405250810190610a78919061114a565b604051632827af2b60e11b8152600481018690529091506000906001600160a01b037f0000000000000000000000000000000000000000000000000000000000000000169063504f5e5690602401602060405180830381865afa158015610ae3573d6000803e3d6000fd5b505050506040513d601f19601f82011682018060405250810190610b07919061114a565b60405163102186e760e31b8152600481018790529091506000906001600160a01b037f0000000000000000000000000000000000000000000000000000000000000000169063810c373890602401602060405180830381865afa158015610b72573d6000803e3d6000fd5b505050506040513d601f19601f82011682018060405250810190610b96919061114a565b60405163bd85b03960e01b8152600481018890529091506000906001600160a01b037f0000000000000000000000000000000000000000000000000000000000000000169063bd85b03990602401602060405180830381865afa158015610c01573d6000803e3d6000fd5b505050506040513d601f19601f82011682018060405250810190610c25919061114a565b6040517f61c44d6000000000000000000000000000000000000000000000000000000000815260048101869052602481018290526044810184905260648101859052608481018890529091506000908190819081906001600160a01b037f000000000000000000000000000000000000000000000000000000000000000016906361c44d609060a4015b608060405180830381865afa158015610ccc573d6000803e3d6000fd5b505050506040513d601f19601f82011682018060405250810190610cf091906111b1565b6040805160808101825294855260208501939093529183015260608201529b9a5050505050505050505050565b610d486040518060800160405280600081526020016000815260200160008152602001600081525090565b60405163221eedd160e11b8152600481018490526000907f00000000000000000000000000000000000000000000000000000000000000006001600160a01b03169063443ddba290602401602060405180830381865afa158015610db0573d6000803e3d6000fd5b505050506040513d601f19601f82011682018060405250810190610dd4919061114a565b604051632827af2b60e11b8152600481018690529091506000906001600160a01b037f0000000000000000000000000000000000000000000000000000000000000000169063504f5e5690602401602060405180830381865afa158015610e3f573d6000803e3d6000fd5b505050506040513d601f19601f82011682018060405250810190610e63919061114a565b60405163102186e760e31b8152600481018790529091506000906001600160a01b037f0000000000000000000000000000000000000000000000000000000000000000169063810c373890602401602060405180830381865afa158015610ece573d6000803e3d6000fd5b505050506040513d601f19601f82011682018060405250810190610ef2919061114a565b60405163bd85b03960e01b8152600481018890529091506000906001600160a01b037f0000000000000000000000000000000000000000000000000000000000000000169063bd85b03990602401602060405180830381865afa158015610f5d573d6000803e3d6000fd5b505050506040513d601f19601f82011682018060405250810190610f81919061114a565b6040517fc79ab6a200000000000000000000000000000000000000000000000000000000815260048101869052602481018290526044810184905260648101859052608481018890529091506000908190819081906001600160a01b037f0000000000000000000000000000000000000000000000000000000000000000169063c79ab6a29060a401610caf565b6001600160a01b038116811461102457600080fd5b50565b6000806040838503121561103a57600080fd5b82356110458161100f565b946020939093013593505050565b815181526020808301516101a08301916110789084018267ffffffffffffffff169052565b506040830151611094604084018267ffffffffffffffff169052565b5060608301516110b0606084018267ffffffffffffffff169052565b5060808301516110cb60808401826001600160a01b03169052565b5060a0838101519083015260c0808401519083015260e08084015190830152610100808401519083015261012080840151908301526101408084015190830152610160808401519083015261018092830151929091019190915290565b6000806040838503121561113b57600080fd5b50508035926020909101359150565b60006020828403121561115c57600080fd5b5051919050565b60006020828403121561117557600080fd5b815167ffffffffffffffff8116811461118d57600080fd5b9392505050565b6000602082840312156111a657600080fd5b815161118d8161100f565b600080600080608085870312156111c757600080fd5b50508251602084015160408501516060909501519196909550909250905056fea264697066735822122057fa871a18501a0201cfd651bf62cf90ab8e89d15ad92c426886bd584cbbf04164736f6c63430008130033",
  "devdoc": {
    "kind": "dev",
    "methods": {},
    "version": 1
  },
  "userdoc": {
    "kind": "user",
    "methods": {},
    "version": 1
  },
  "storageLayout": {
    "storage": [],
    "types": null
  }
}