{
  "address": "0x8554dD891C66D50D3A38643118844d2c14384CF1",
  "abi": [
    {
      "anonymous": false,
      "inputs": [
        {
          "indexed": true,
          "internalType": "address",
          "name": "account",
          "type": "address"
        },
        {
          "indexed": true,
          "internalType": "address",
          "name": "operator",
          "type": "address"
        },
        {
          "indexed": false,
          "internalType": "bool",
          "name": "approved",
          "type": "bool"
        }
      ],
      "name": "ApprovalForAll",
      "type": "event"
    },
    {
      "anonymous": false,
      "inputs": [
        {
          "indexed": false,
          "internalType": "address",
          "name": "from",
          "type": "address"
        },
        {
          "indexed": false,
          "internalType": "uint256",
          "name": "id",
          "type": "uint256"
        },
        {
          "indexed": false,
          "internalType": "address",
          "name": "to",
          "type": "address"
        },
        {
          "indexed": false,
          "internalType": "uint256",
          "name": "amount",
          "type": "uint256"
        },
        {
          "indexed": false,
          "internalType": "uint256",
          "name": "value",
          "type": "uint256"
        },
        {
          "indexed": false,
          "internalType": "uint256",
          "name": "creatorFee",
          "type": "uint256"
        },
        {
          "indexed": false,
          "internalType": "uint256",
          "name": "devFee",
          "type": "uint256"
        }
      ],
      "name": "Burnt",
      "type": "event"
    },
    {
      "anonymous": false,
      "inputs": [
        {
          "indexed": false,
          "internalType": "address",
          "name": "from",
          "type": "address"
        },
        {
          "indexed": false,
          "internalType": "uint256",
          "name": "id",
          "type": "uint256"
        },
        {
          "indexed": false,
          "internalType": "uint256",
          "name": "_f",
          "type": "uint256"
        },
        {
          "indexed": false,
          "internalType": "uint256",
          "name": "_fs",
          "type": "uint256"
        },
        {
          "indexed": false,
          "internalType": "uint256",
          "name": "_s",
          "type": "uint256"
        },
        {
          "indexed": false,
          "internalType": "uint256",
          "name": "_tar",
          "type": "uint256"
        },
        {
          "indexed": false,
          "internalType": "uint256",
          "name": "value",
          "type": "uint256"
        },
        {
          "indexed": false,
          "internalType": "uint256",
          "name": "devFee",
          "type": "uint256"
        }
      ],
      "name": "Created",
      "type": "event"
    },
    {
      "anonymous": false,
      "inputs": [
        {
          "indexed": false,
          "internalType": "uint256",
          "name": "id",
          "type": "uint256"
        },
        {
          "indexed": false,
          "internalType": "address",
          "name": "creator",
          "type": "address"
        }
      ],
      "name": "CreatorUpdated",
      "type": "event"
    },
    {
      "anonymous": false,
      "inputs": [
        {
          "indexed": false,
          "internalType": "uint8",
          "name": "version",
          "type": "uint8"
        }
      ],
      "name": "Initialized",
      "type": "event"
    },
    {
      "anonymous": false,
      "inputs": [
        {
          "indexed": false,
          "internalType": "address",
          "name": "from",
          "type": "address"
        },
        {
          "indexed": false,
          "internalType": "uint256",
          "name": "id",
          "type": "uint256"
        },
        {
          "indexed": false,
          "internalType": "address",
          "name": "to",
          "type": "address"
        },
        {
          "indexed": false,
          "internalType": "uint256",
          "name": "amount",
          "type": "uint256"
        },
        {
          "indexed": false,
          "internalType": "uint256",
          "name": "value",
          "type": "uint256"
        },
        {
          "indexed": false,
          "internalType": "uint256",
          "name": "creatorFee",
          "type": "uint256"
        },
        {
          "indexed": false,
          "internalType": "uint256",
          "name": "devFee",
          "type": "uint256"
        }
      ],
      "name": "Minted",
      "type": "event"
    },
    {
      "anonymous": false,
      "inputs": [
        {
          "indexed": false,
          "internalType": "uint256",
          "name": "id",
          "type": "uint256"
        },
        {
          "indexed": false,
          "internalType": "string",
          "name": "name",
          "type": "string"
        }
      ],
      "name": "StoneNameUpdated",
      "type": "event"
    },
    {
      "anonymous": false,
      "inputs": [
        {
          "indexed": true,
          "internalType": "address",
          "name": "operator",
          "type": "address"
        },
        {
          "indexed": true,
          "internalType": "address",
          "name": "from",
          "type": "address"
        },
        {
          "indexed": true,
          "internalType": "address",
          "name": "to",
          "type": "address"
        },
        {
          "indexed": false,
          "internalType": "uint256[]",
          "name": "ids",
          "type": "uint256[]"
        },
        {
          "indexed": false,
          "internalType": "uint256[]",
          "name": "values",
          "type": "uint256[]"
        }
      ],
      "name": "TransferBatch",
      "type": "event"
    },
    {
      "anonymous": false,
      "inputs": [
        {
          "indexed": true,
          "internalType": "address",
          "name": "operator",
          "type": "address"
        },
        {
          "indexed": true,
          "internalType": "address",
          "name": "from",
          "type": "address"
        },
        {
          "indexed": true,
          "internalType": "address",
          "name": "to",
          "type": "address"
        },
        {
          "indexed": false,
          "internalType": "uint256",
          "name": "id",
          "type": "uint256"
        },
        {
          "indexed": false,
          "internalType": "uint256",
          "name": "value",
          "type": "uint256"
        }
      ],
      "name": "TransferSingle",
      "type": "event"
    },
    {
      "anonymous": false,
      "inputs": [
        {
          "indexed": false,
          "internalType": "string",
          "name": "value",
          "type": "string"
        },
        {
          "indexed": true,
          "internalType": "uint256",
          "name": "id",
          "type": "uint256"
        }
      ],
      "name": "URI",
      "type": "event"
    },
    {
      "inputs": [],
      "name": "PRECISIONDECIMALS",
      "outputs": [
        {
          "internalType": "uint64",
          "name": "",
          "type": "uint64"
        }
      ],
      "stateMutability": "view",
      "type": "function"
    },
    {
      "inputs": [
        {
          "internalType": "uint256",
          "name": "_t",
          "type": "uint256"
        },
        {
          "internalType": "uint256",
          "name": "_fs",
          "type": "uint256"
        },
        {
          "internalType": "uint256",
          "name": "_fsStep",
          "type": "uint256"
        },
        {
          "internalType": "uint256",
          "name": "_step",
          "type": "uint256"
        },
        {
          "internalType": "uint256",
          "name": "amount",
          "type": "uint256"
        }
      ],
      "name": "adjustment",
      "outputs": [
        {
          "internalType": "uint256",
          "name": "_fsIncr",
          "type": "uint256"
        }
      ],
      "stateMutability": "pure",
      "type": "function"
    },
    {
      "inputs": [
        {
          "internalType": "address",
          "name": "account",
          "type": "address"
        },
        {
          "internalType": "uint256",
          "name": "id",
          "type": "uint256"
        }
      ],
      "name": "balanceOf",
      "outputs": [
        {
          "internalType": "uint256",
          "name": "",
          "type": "uint256"
        }
      ],
      "stateMutability": "view",
      "type": "function"
    },
    {
      "inputs": [
        {
          "internalType": "address[]",
          "name": "accounts",
          "type": "address[]"
        },
        {
          "internalType": "uint256[]",
          "name": "ids",
          "type": "uint256[]"
        }
      ],
      "name": "balanceOfBatch",
      "outputs": [
        {
          "internalType": "uint256[]",
          "name": "",
          "type": "uint256[]"
        }
      ],
      "stateMutability": "view",
      "type": "function"
    },
    {
      "inputs": [
        {
          "internalType": "uint256",
          "name": "id",
          "type": "uint256"
        },
        {
          "internalType": "address",
          "name": "to",
          "type": "address"
        },
        {
          "internalType": "uint256",
          "name": "amount",
          "type": "uint256"
        },
        {
          "internalType": "uint256",
          "name": "minReceived",
          "type": "uint256"
        }
      ],
      "name": "burn",
      "outputs": [],
      "stateMutability": "nonpayable",
      "type": "function"
    },
    {
      "inputs": [
        {
          "internalType": "uint256",
          "name": "timeoutAt",
          "type": "uint256"
        }
      ],
      "name": "create",
      "outputs": [],
      "stateMutability": "payable",
      "type": "function"
    },
    {
      "inputs": [
        {
          "internalType": "uint256",
          "name": "id",
          "type": "uint256"
        }
      ],
      "name": "creatorOf",
      "outputs": [
        {
          "internalType": "address",
          "name": "",
          "type": "address"
        }
      ],
      "stateMutability": "view",
      "type": "function"
    },
    {
      "inputs": [],
      "name": "defaultCreatorFeePCT",
      "outputs": [
        {
          "internalType": "uint64",
          "name": "",
          "type": "uint64"
        }
      ],
      "stateMutability": "view",
      "type": "function"
    },
    {
      "inputs": [],
      "name": "dev",
      "outputs": [
        {
          "internalType": "address",
          "name": "",
          "type": "address"
        }
      ],
      "stateMutability": "view",
      "type": "function"
    },
    {
      "inputs": [],
      "name": "devFeePCT",
      "outputs": [
        {
          "internalType": "uint64",
          "name": "",
          "type": "uint64"
        }
      ],
      "stateMutability": "view",
      "type": "function"
    },
    {
      "inputs": [
        {
          "internalType": "uint256",
          "name": "_k",
          "type": "uint256"
        },
        {
          "internalType": "uint256",
          "name": "_t",
          "type": "uint256"
        },
        {
          "internalType": "uint256",
          "name": "_fs",
          "type": "uint256"
        },
        {
          "internalType": "uint256",
          "name": "_fsIncr",
          "type": "uint256"
        },
        {
          "internalType": "uint256",
          "name": "_f",
          "type": "uint256"
        },
        {
          "internalType": "uint256",
          "name": "_w",
          "type": "uint256"
        },
        {
          "internalType": "uint256",
          "name": "amount",
          "type": "uint256"
        }
      ],
      "name": "estimateAdjust",
      "outputs": [
        {
          "internalType": "uint256",
          "name": "_floor",
          "type": "uint256"
        }
      ],
      "stateMutability": "pure",
      "type": "function"
    },
    {
      "inputs": [
        {
          "internalType": "uint256",
          "name": "_k",
          "type": "uint256"
        },
        {
          "internalType": "uint256",
          "name": "_t",
          "type": "uint256"
        },
        {
          "internalType": "uint256",
          "name": "_fs",
          "type": "uint256"
        },
        {
          "internalType": "uint256",
          "name": "_f",
          "type": "uint256"
        },
        {
          "internalType": "uint256",
          "name": "amount",
          "type": "uint256"
        }
      ],
      "name": "estimateBurn",
      "outputs": [
        {
          "internalType": "uint256",
          "name": "total",
          "type": "uint256"
        },
        {
          "internalType": "uint256",
          "name": "value",
          "type": "uint256"
        },
        {
          "internalType": "uint256",
          "name": "creatorFee",
          "type": "uint256"
        },
        {
          "internalType": "uint256",
          "name": "devFee",
          "type": "uint256"
        }
      ],
      "stateMutability": "view",
      "type": "function"
    },
    {
      "inputs": [
        {
          "internalType": "uint256",
          "name": "id",
          "type": "uint256"
        },
        {
          "internalType": "uint256",
          "name": "amount",
          "type": "uint256"
        }
      ],
      "name": "estimateBurn",
      "outputs": [
        {
          "internalType": "uint256",
          "name": "total",
          "type": "uint256"
        },
        {
          "internalType": "uint256",
          "name": "value",
          "type": "uint256"
        },
        {
          "internalType": "uint256",
          "name": "creatorFee",
          "type": "uint256"
        },
        {
          "internalType": "uint256",
          "name": "devFee",
          "type": "uint256"
        }
      ],
      "stateMutability": "view",
      "type": "function"
    },
    {
      "inputs": [
        {
          "internalType": "uint256",
          "name": "id",
          "type": "uint256"
        },
        {
          "internalType": "uint256",
          "name": "amount",
          "type": "uint256"
        }
      ],
      "name": "estimateMint",
      "outputs": [
        {
          "internalType": "uint256",
          "name": "total",
          "type": "uint256"
        },
        {
          "internalType": "uint256",
          "name": "value",
          "type": "uint256"
        },
        {
          "internalType": "uint256",
          "name": "creatorFee",
          "type": "uint256"
        },
        {
          "internalType": "uint256",
          "name": "devFee",
          "type": "uint256"
        }
      ],
      "stateMutability": "view",
      "type": "function"
    },
    {
      "inputs": [
        {
          "internalType": "uint256",
          "name": "_k",
          "type": "uint256"
        },
        {
          "internalType": "uint256",
          "name": "_t",
          "type": "uint256"
        },
        {
          "internalType": "uint256",
          "name": "_fs",
          "type": "uint256"
        },
        {
          "internalType": "uint256",
          "name": "_f",
          "type": "uint256"
        },
        {
          "internalType": "uint256",
          "name": "amount",
          "type": "uint256"
        }
      ],
      "name": "estimateMint",
      "outputs": [
        {
          "internalType": "uint256",
          "name": "total",
          "type": "uint256"
        },
        {
          "internalType": "uint256",
          "name": "value",
          "type": "uint256"
        },
        {
          "internalType": "uint256",
          "name": "creatorFee",
          "type": "uint256"
        },
        {
          "internalType": "uint256",
          "name": "devFee",
          "type": "uint256"
        }
      ],
      "stateMutability": "view",
      "type": "function"
    },
    {
      "inputs": [
        {
          "internalType": "uint256",
          "name": "id",
          "type": "uint256"
        }
      ],
      "name": "exists",
      "outputs": [
        {
          "internalType": "bool",
          "name": "",
          "type": "bool"
        }
      ],
      "stateMutability": "view",
      "type": "function"
    },
    {
      "inputs": [
        {
          "internalType": "uint256",
          "name": "id",
          "type": "uint256"
        }
      ],
      "name": "floor",
      "outputs": [
        {
          "internalType": "uint256",
          "name": "",
          "type": "uint256"
        }
      ],
      "stateMutability": "view",
      "type": "function"
    },
    {
      "inputs": [
        {
          "internalType": "uint256",
          "name": "id",
          "type": "uint256"
        }
      ],
      "name": "floorSupply",
      "outputs": [
        {
          "internalType": "uint256",
          "name": "",
          "type": "uint256"
        }
      ],
      "stateMutability": "view",
      "type": "function"
    },
    {
      "inputs": [
        {
          "internalType": "uint256",
          "name": "",
          "type": "uint256"
        }
      ],
      "name": "fsIncr",
      "outputs": [
        {
          "internalType": "uint256",
          "name": "",
          "type": "uint256"
        }
      ],
      "stateMutability": "view",
      "type": "function"
    },
    {
      "inputs": [
        {
          "internalType": "uint256",
          "name": "id",
          "type": "uint256"
        }
      ],
      "name": "fsStepOf",
      "outputs": [
        {
          "internalType": "uint256",
          "name": "",
          "type": "uint256"
        }
      ],
      "stateMutability": "view",
      "type": "function"
    },
    {
      "inputs": [
        {
          "internalType": "uint256",
          "name": "",
          "type": "uint256"
        }
      ],
      "name": "ifs",
      "outputs": [
        {
          "internalType": "uint256",
          "name": "",
          "type": "uint256"
        }
      ],
      "stateMutability": "view",
      "type": "function"
    },
    {
      "inputs": [
        {
          "internalType": "address",
          "name": "_dev",
          "type": "address"
        }
      ],
      "name": "initialize",
      "outputs": [],
      "stateMutability": "nonpayable",
      "type": "function"
    },
    {
      "inputs": [
        {
          "internalType": "address",
          "name": "",
          "type": "address"
        },
        {
          "internalType": "address",
          "name": "",
          "type": "address"
        }
      ],
      "name": "isApprovedDelegate",
      "outputs": [
        {
          "internalType": "bool",
          "name": "",
          "type": "bool"
        }
      ],
      "stateMutability": "view",
      "type": "function"
    },
    {
      "inputs": [
        {
          "internalType": "address",
          "name": "account",
          "type": "address"
        },
        {
          "internalType": "address",
          "name": "operator",
          "type": "address"
        }
      ],
      "name": "isApprovedForAll",
      "outputs": [
        {
          "internalType": "bool",
          "name": "",
          "type": "bool"
        }
      ],
      "stateMutability": "view",
      "type": "function"
    },
    {
      "inputs": [
        {
          "internalType": "uint256",
          "name": "",
          "type": "uint256"
        }
      ],
      "name": "k",
      "outputs": [
        {
          "internalType": "uint256",
          "name": "",
          "type": "uint256"
        }
      ],
      "stateMutability": "view",
      "type": "function"
    },
    {
      "inputs": [],
      "name": "minFloor",
      "outputs": [
        {
          "internalType": "uint64",
          "name": "",
          "type": "uint64"
        }
      ],
      "stateMutability": "view",
      "type": "function"
    },
    {
      "inputs": [
        {
          "internalType": "uint256",
          "name": "id",
          "type": "uint256"
        },
        {
          "internalType": "address",
          "name": "to",
          "type": "address"
        },
        {
          "internalType": "uint256",
          "name": "amount",
          "type": "uint256"
        }
      ],
      "name": "mint",
      "outputs": [],
      "stateMutability": "payable",
      "type": "function"
    },
    {
      "inputs": [
        {
          "internalType": "uint256",
          "name": "id",
          "type": "uint256"
        }
      ],
      "name": "nextFloor",
      "outputs": [
        {
          "internalType": "uint256",
          "name": "",
          "type": "uint256"
        }
      ],
      "stateMutability": "view",
      "type": "function"
    },
    {
      "inputs": [
        {
          "internalType": "address",
          "name": "from",
          "type": "address"
        },
        {
          "internalType": "address",
          "name": "to",
          "type": "address"
        },
        {
          "internalType": "uint256[]",
          "name": "ids",
          "type": "uint256[]"
        },
        {
          "internalType": "uint256[]",
          "name": "amounts",
          "type": "uint256[]"
        },
        {
          "internalType": "bytes",
          "name": "data",
          "type": "bytes"
        }
      ],
      "name": "safeBatchTransferFrom",
      "outputs": [],
      "stateMutability": "nonpayable",
      "type": "function"
    },
    {
      "inputs": [
        {
          "internalType": "address",
          "name": "from",
          "type": "address"
        },
        {
          "internalType": "address",
          "name": "to",
          "type": "address"
        },
        {
          "internalType": "uint256",
          "name": "id",
          "type": "uint256"
        },
        {
          "internalType": "uint256",
          "name": "amount",
          "type": "uint256"
        },
        {
          "internalType": "bytes",
          "name": "data",
          "type": "bytes"
        }
      ],
      "name": "safeTransferFrom",
      "outputs": [],
      "stateMutability": "nonpayable",
      "type": "function"
    },
    {
      "inputs": [
        {
          "internalType": "address",
          "name": "operator",
          "type": "address"
        },
        {
          "internalType": "bool",
          "name": "approved",
          "type": "bool"
        }
      ],
      "name": "setApprovalForAll",
      "outputs": [],
      "stateMutability": "nonpayable",
      "type": "function"
    },
    {
      "inputs": [
        {
          "internalType": "address",
          "name": "_delegate",
          "type": "address"
        },
        {
          "internalType": "bool",
          "name": "_isApproved",
          "type": "bool"
        }
      ],
      "name": "setDelegateApproval",
      "outputs": [],
      "stateMutability": "nonpayable",
      "type": "function"
    },
    {
      "inputs": [
        {
          "internalType": "uint256",
          "name": "id",
          "type": "uint256"
        }
      ],
      "name": "stepment",
      "outputs": [
        {
          "internalType": "uint256",
          "name": "",
          "type": "uint256"
        }
      ],
      "stateMutability": "view",
      "type": "function"
    },
    {
      "inputs": [
        {
          "internalType": "uint256",
          "name": "id",
          "type": "uint256"
        }
      ],
      "name": "stoneNameOf",
      "outputs": [
        {
          "internalType": "string",
          "name": "",
          "type": "string"
        }
      ],
      "stateMutability": "view",
      "type": "function"
    },
    {
      "inputs": [
        {
          "internalType": "bytes4",
          "name": "interfaceId",
          "type": "bytes4"
        }
      ],
      "name": "supportsInterface",
      "outputs": [
        {
          "internalType": "bool",
          "name": "",
          "type": "bool"
        }
      ],
      "stateMutability": "view",
      "type": "function"
    },
    {
      "inputs": [
        {
          "internalType": "uint256",
          "name": "id",
          "type": "uint256"
        }
      ],
      "name": "targetSupply",
      "outputs": [
        {
          "internalType": "uint256",
          "name": "",
          "type": "uint256"
        }
      ],
      "stateMutability": "view",
      "type": "function"
    },
    {
      "inputs": [
        {
          "internalType": "uint256",
          "name": "id",
          "type": "uint256"
        }
      ],
      "name": "totalSupply",
      "outputs": [
        {
          "internalType": "uint256",
          "name": "",
          "type": "uint256"
        }
      ],
      "stateMutability": "view",
      "type": "function"
    },
    {
      "inputs": [
        {
          "internalType": "uint256",
          "name": "id",
          "type": "uint256"
        },
        {
          "internalType": "string",
          "name": "stoneName",
          "type": "string"
        }
      ],
      "name": "updateStoneName",
      "outputs": [],
      "stateMutability": "nonpayable",
      "type": "function"
    },
    {
      "inputs": [
        {
          "internalType": "uint256",
          "name": "id",
          "type": "uint256"
        }
      ],
      "name": "uri",
      "outputs": [
        {
          "internalType": "string",
          "name": "",
          "type": "string"
        }
      ],
      "stateMutability": "view",
      "type": "function"
    },
    {
      "inputs": [
        {
          "internalType": "uint256",
          "name": "_k",
          "type": "uint256"
        },
        {
          "internalType": "uint256",
          "name": "_t",
          "type": "uint256"
        },
        {
          "internalType": "uint256",
          "name": "_fs",
          "type": "uint256"
        },
        {
          "internalType": "uint256",
          "name": "_f",
          "type": "uint256"
        }
      ],
      "name": "worth",
      "outputs": [
        {
          "internalType": "uint256",
          "name": "",
          "type": "uint256"
        }
      ],
      "stateMutability": "pure",
      "type": "function"
    },
    {
      "inputs": [
        {
          "internalType": "uint256",
          "name": "id",
          "type": "uint256"
        }
      ],
      "name": "worthOf",
      "outputs": [
        {
          "internalType": "uint256",
          "name": "",
          "type": "uint256"
        }
      ],
      "stateMutability": "view",
      "type": "function"
    },
    {
      "stateMutability": "payable",
      "type": "receive"
    }
  ],
  "transactionHash": "0x3d84b8d2c35d9b62cd03bf531fce4c389c6a2867298f1a83c3abb50219bbb16f",
  "args": [],
  "numDeployments": 1,
  "solcInputHash": "6f6e2743bd280fbcd979d0cd5ae807cb",
  "bytecode": "0x608060405234801561001057600080fd5b506144ba806100206000396000f3fe6080604052600436106102c85760003560e01c806371fc76f511610179578063bd85b039116100d6578063cdb9c4eb1161008a578063f213edda11610064578063f213edda146108ee578063f242432a1461090e578063f740fd341461092e57600080fd5b8063cdb9c4eb14610864578063e2e1b89014610885578063e985e9c5146108a557600080fd5b8063c4d66de8116100bb578063c4d66de814610804578063c5464eb414610824578063c79ab6a21461084457600080fd5b8063bd85b03914610791578063c3c854b6146107b157600080fd5b8063836a10401161012d57806391cca3db1161011257806391cca3db14610731578063936906f114610751578063a22cb4651461077157600080fd5b8063836a1040146106f05780638d6a84941461070357600080fd5b8063780900dc1161015e578063780900dc1461068f5780637ab58add146106a2578063810c3738146106d057600080fd5b806371fc76f51461064f57806375e583e61461066f57600080fd5b80632eb2c2d611610227578063503e0a98116101db578063504f5e56116101c0578063504f5e5614610593578063589a1743146105c157806361c44d601461060f57600080fd5b8063503e0a981461055a578063504d95781461057357600080fd5b8063443ddba21161020c578063443ddba2146104df5780634e1273f41461050d5780634f558e791461053a57600080fd5b80632eb2c2d6146104a357806343a54a0c146104c357600080fd5b8063129678941161027e57806321a72a421161026357806321a72a421461041b57806327fc36371461043b57806329bff6901461045d57600080fd5b806312967894146103c05780631930e825146103e057600080fd5b806301ffc9a7116102af57806301ffc9a71461033557806309501e66146103655780630e89341c1461039357600080fd5b8062d92e39146102d4578062fdd58e1461031557600080fd5b366102cf57005b600080fd5b3480156102e057600080fd5b506103026102ef3660046138c7565b6000908152610105602052604090205490565b6040519081526020015b60405180910390f35b34801561032157600080fd5b506103026103303660046138fc565b61094e565b34801561034157600080fd5b50610355610350366004613954565b6109fc565b604051901515815260200161030c565b34801561037157600080fd5b506103026103803660046138c7565b6000908152610106602052604090205490565b34801561039f57600080fd5b506103b36103ae3660046138c7565b610adf565b60405161030c91906139c1565b3480156103cc57600080fd5b506103026103db3660046138c7565b610ce5565b3480156103ec57600080fd5b506103556103fb3660046139d4565b60c960209081526000928352604080842090915290825290205460ff1681565b34801561042757600080fd5b50610302610436366004613a07565b610d96565b34801561044757600080fd5b5061045b610456366004613a53565b610f09565b005b34801561046957600080fd5b5060fe5461048a9068010000000000000000900467ffffffffffffffff1681565b60405167ffffffffffffffff909116815260200161030c565b3480156104af57600080fd5b5061045b6104be366004613bf4565b6112d2565b3480156104cf57600080fd5b5061048a670de0b6b3a764000081565b3480156104eb57600080fd5b506103026104fa3660046138c7565b6101016020526000908152604090205481565b34801561051957600080fd5b5061052d610528366004613c9e565b611374565b60405161030c9190613da4565b34801561054657600080fd5b506103556105553660046138c7565b6114b2565b34801561056657600080fd5b5061048a64e8d4a5100081565b34801561057f57600080fd5b5061045b61058e366004613db7565b6114c8565b34801561059f57600080fd5b506103026105ae3660046138c7565b6000908152610102602052604090205490565b3480156105cd57600080fd5b506105f76105dc3660046138c7565b600090815260ca60205260409020546001600160a01b031690565b6040516001600160a01b03909116815260200161030c565b34801561061b57600080fd5b5061062f61062a366004613e08565b611569565b60408051948552602085019390935291830152606082015260800161030c565b34801561065b57600080fd5b5061062f61066a366004613e43565b611787565b34801561067b57600080fd5b5061062f61068a366004613e43565b6118aa565b61045b61069d3660046138c7565b61196c565b3480156106ae57600080fd5b506103026106bd3660046138c7565b6101046020526000908152604090205481565b3480156106dc57600080fd5b506103026106eb3660046138c7565b6119ed565b61045b6106fe366004613e65565b611a13565b34801561070f57600080fd5b5061030261071e3660046138c7565b6101036020526000908152604090205481565b34801561073d57600080fd5b5060ff546105f7906001600160a01b031681565b34801561075d57600080fd5b5061030261076c3660046138c7565b611dd1565b34801561077d57600080fd5b5061045b61078c366004613e9a565b611e33565b34801561079d57600080fd5b506103026107ac3660046138c7565b611e42565b3480156107bd57600080fd5b5061045b6107cc366004613e9a565b33600090815260c9602090815260408083206001600160a01b0395909516835293905291909120805460ff1916911515919091179055565b34801561081057600080fd5b5061045b61081f366004613ed6565b611e4d565b34801561083057600080fd5b5061030261083f3660046138c7565b611fd2565b34801561085057600080fd5b5061062f61085f366004613e08565b612021565b34801561087057600080fd5b5060fe5461048a9067ffffffffffffffff1681565b34801561089157600080fd5b506103b36108a03660046138c7565b61219f565b3480156108b157600080fd5b506103556108c03660046139d4565b6001600160a01b03918216600090815260666020908152604080832093909416825291909152205460ff1690565b3480156108fa57600080fd5b50610302610909366004613ef1565b612241565b34801561091a57600080fd5b5061045b610929366004613f23565b6122aa565b34801561093a57600080fd5b50610302610949366004613e08565b612345565b60006001600160a01b0383166109d15760405162461bcd60e51b815260206004820152602a60248201527f455243313135353a2061646472657373207a65726f206973206e6f742061207660448201527f616c6964206f776e65720000000000000000000000000000000000000000000060648201526084015b60405180910390fd5b5060008181526065602090815260408083206001600160a01b03861684529091529020545b92915050565b60007fffffffff0000000000000000000000000000000000000000000000000000000082167fd9b67a26000000000000000000000000000000000000000000000000000000001480610a8f57507fffffffff0000000000000000000000000000000000000000000000000000000082167f0e89341c00000000000000000000000000000000000000000000000000000000145b806109f657507f01ffc9a7000000000000000000000000000000000000000000000000000000007fffffffff000000000000000000000000000000000000000000000000000000008316146109f6565b6060610b406040518061014001604052806000815260200160006001600160a01b0316815260200160008152602001600081526020016000815260200160008152602001600081526020016000815260200160008152602001600081525090565b828152600083815261010160209081526040808320548185015285835260ca8252808320546001600160a01b0316828501528583526101029091529020546060820152610b8c836119ed565b6080820152610b9a83611e42565b60a0820152610ba883611dd1565b60c08201526000838152610101602052604090205460a082015160808301516060840151610bd893929190612241565b6101208201526000838152610101602052604090205460a082015160808301516060840151610c0b939291906001612021565b505060e0830152506000838152610101602052604090205460a082015160808301516060840151610c40939291906001611569565b5050610100830152506040517f2a5a1a14000000000000000000000000000000000000000000000000000000008152738f02889d36d01BdF95b3B7B63a32629fc46e643E90632a5a1a1490610c99908490600401613f88565b600060405180830381865af4158015610cb6573d6000803e3d6000fd5b505050506040513d6000823e601f3d908101601f19168201604052610cde9190810190614007565b9392505050565b6000818152610101602052604081205481610cff84611dd1565b90506000610d0c856119ed565b60008681526101026020526040812054919250610d2b85858585612241565b60008881526101036020908152604080832054610106835281842054610105909352908320549394509192610d64928892909185612345565b9050610d8a868661010360008c8152602001908152602001600020548487876000610d96565b98975050505050505050565b600080610da3868861409f565b905080610db0848a61409f565b11610e235760405162461bcd60e51b815260206004820152602960248201527f4d6f73734875623a20666c6f6f7220737570706c792069732067746520746f7460448201527f616c20737570706c79000000000000000000000000000000000000000000000060648201526084016109c8565b600081610e30858b61409f565b610e3a91906140b2565b9050610e46848a61409f565b610e519060026140c5565b81610e5c818d6140c5565b610e6691906140c5565b610e718760026140c5565b610e7b91906140b2565b610e8591906140dc565b9250858311610efc5760405162461bcd60e51b815260206004820152603960248201527f4d6f73734875623a2061646a757374656420666c6f6f7220707269636520697360448201527f206c7465206f726967696e616c20666c6f6f722070726963650000000000000060648201526084016109c8565b5050979650505050505050565b610f11612391565b610f1a846114b2565b610f665760405162461bcd60e51b815260206004820152601a60248201527f4d6f73734875623a206e6f6e6578736974656e7420746f6b656e00000000000060448201526064016109c8565b60008211610fdc5760405162461bcd60e51b815260206004820152602660248201527f4d6f73734875623a20616d6f756e74206d75737420626520677265617465722060448201527f7468616e2030000000000000000000000000000000000000000000000000000060648201526084016109c8565b6000610fe785611e42565b9050828110156110395760405162461bcd60e51b815260206004820181905260248201527f4d6f73734875623a20746f6f206d75636820616d6f756e7420746f206275726e60448201526064016109c8565b60408051610100810182528681526000878152610101602090815283822054908301529181018390526060810161106f886119ed565b815260200161108b886000908152610102602052604090205490565b81526020016110a7886000908152610105602052604090205490565b8152602001858152602001866001600160a01b031681525090506000806000806110e885602001518660400151876060015188608001518960c00151611569565b93509350935093508684101561118c5760405162461bcd60e51b815260206004820152604960248201527f4d6f73734875623a2072656365697665642076616c7565206d7573742062652060448201527f67726561746572207468616e206f7220657175616c20746f206d696e696d756d60648201527f2072656365697665640000000000000000000000000000000000000000000000608482015260a4016109c8565b61119f3386600001518760c001516123ea565b6111df89856040518060400160405280601e81526020017f4d6f73734875623a207472616e736665722076616c7565206661696c6564000081525061244d565b60ff546040805160608101909152602380825261120f926001600160a01b0316918491614462602083013961244d565b8451600090815260ca602052604090205461124d906001600160a01b03165b836040518060600160405280602781526020016144186027913961244d565b845160e08087015160c0808901516040805133815260208101969096526001600160a01b039093168584015260608501526080840187905260a084018690528301849052517f63b3cda962e4a1210ab73053c3af0163312c753575551b8c9d04906ec6e0ff679281900390910190a15050505050506112cc600160cc55565b50505050565b6001600160a01b0385163314806112ee57506112ee85336108c0565b6113605760405162461bcd60e51b815260206004820152602e60248201527f455243313135353a2063616c6c6572206973206e6f7420746f6b656e206f776e60448201527f6572206f7220617070726f76656400000000000000000000000000000000000060648201526084016109c8565b61136d85858585856124c3565b5050505050565b606081518351146113ed5760405162461bcd60e51b815260206004820152602960248201527f455243313135353a206163636f756e747320616e6420696473206c656e67746860448201527f206d69736d61746368000000000000000000000000000000000000000000000060648201526084016109c8565b6000835167ffffffffffffffff81111561140957611409613a8e565b604051908082528060200260200182016040528015611432578160200160208202803683370190505b50905060005b84518110156114aa5761147d858281518110611456576114566140fe565b6020026020010151858381518110611470576114706140fe565b602002602001015161094e565b82828151811061148f5761148f6140fe565b60209081029190910101526114a381614114565b9050611438565b509392505050565b60008181526097602052604081205415156109f6565b600082815260ca602052604090205482906001600160a01b03163381148061151357506001600160a01b038116600090815260c96020908152604080832033845290915290205460ff165b61155f5760405162461bcd60e51b815260206004820152601b60248201527f4d6f73733a2044656c6567617465206e6f7420617070726f766564000000000060448201526064016109c8565b6112cc8484612772565b6000806000808488101561160b5760405162461bcd60e51b815260206004820152604260248201527f4d6f73734875623a206275726e696e6720616d6f756e74206d7573742062652060448201527f6c657373207468616e206f7220657175616c20746f20746f74616c207375707060648201527f6c79000000000000000000000000000000000000000000000000000000000000608482015260a4016109c8565b8688116116235761161c85876140c5565b92506116fd565b8661162e868a6140b2565b111561169357600261164088826140c5565b8661164c8b60026140c5565b61165691906140b2565b61166091906140b2565b61166a908b6140c5565b6116758860026140c5565b61167f919061409f565b61168990876140c5565b61161c91906140dc565b600061169f888a6140b2565b905060006116ad82886140b2565b905060026116bb838d6140c5565b6116c68a60026140c5565b6116d0919061409f565b6116da90846140c5565b6116e491906140dc565b6116ee828a6140c5565b6116f8919061409f565b945050505b60fe54670de0b6b3a76400009061171e9067ffffffffffffffff16856140c5565b61172891906140dc565b60fe54909250670de0b6b3a7640000906117589068010000000000000000900467ffffffffffffffff16856140c5565b61176291906140dc565b90508061176f83856140b2565b61177991906140b2565b935095509550955095915050565b6000808080806117ac87600090815260ca60205260409020546001600160a01b031690565b6001600160a01b0316036118025760405162461bcd60e51b815260206004820152601d60248201527f4d6f73734875623a20746f6b656e206973206e6f74206372656174656400000060448201526064016109c8565b600086815261010160205260408120549061181c88611e42565b90506000611829896119ed565b60008a81526101026020526040902054909150806118895760405162461bcd60e51b815260206004820152601960248201527f4d6f73734875623a207a65726f20666c6f6f722070726963650000000000000060448201526064016109c8565b611896848484848d612021565b929d919c509a509098509650505050505050565b6000808080806118cf87600090815260ca60205260409020546001600160a01b031690565b6001600160a01b0316036119255760405162461bcd60e51b815260206004820152601d60248201527f4d6f73734875623a20746f6b656e206973206e6f74206372656174656400000060448201526064016109c8565b600086815261010160205260408120549061193f88611e42565b9050600061194c896119ed565b60008a81526101026020526040902054909150611896848484848d611569565b611974612391565b8042106119c35760405162461bcd60e51b815260206004820152601360248201527f4d6f73734875623a2074782074696d656f75740000000000000000000000000060448201526064016109c8565b6119e066038d7ea4c68000655af3107a40006001600a60026127bc565b6119ea600160cc55565b50565b600081815261010460209081526040808320546101039092528220546109f6919061409f565b611a1b612391565b60008111611a915760405162461bcd60e51b815260206004820152602660248201527f4d6f73734875623a20616d6f756e74206d75737420626520677265617465722060448201527f7468616e2030000000000000000000000000000000000000000000000000000060648201526084016109c8565b6040805161010081018252848152600085815261010160209081528382205490830152918101611ac086611e42565b8152602001611ace866119ed565b8152602001611aea866000908152610102602052604090205490565b8152602001611b06866000908152610105602052604090205490565b8152602001838152602001846001600160a01b03168152509050600080600080611b4785602001518660400151876060015188608001518960c00151612021565b935093509350935083341015611bc55760405162461bcd60e51b815260206004820152602360248201527f4d6f73734875623a20696e73756666696369656e742066756e647320746f206d60448201527f696e74000000000000000000000000000000000000000000000000000000000060648201526084016109c8565b83341115611bf957611bf933611bdb86346140b2565b60405180606001604052806023815260200161443f6023913961244d565b60ff5460408051606081019091526023808252611c29926001600160a01b0316918491614462602083013961244d565b8451600090815260ca6020526040902054611c4c906001600160a01b031661122e565b60408086015186516000908152610103602090815283822054895183526101069091529281205460a089015160c08a01519294611c8d949390929190612345565b90506000611cad8760200151886040015189606001518a60800151612241565b875160009081526101046020526040902054909150821115611d355760008a815261010160209081526040808320548a8201518b51855261010390935292205460808a0151611d0f939291908690611d058b8861409f565b8d60c00151610d96565b875160009081526101026020908152604080832093909355895182526101049052208290555b611d4c8760e0015188600001518960c00151612c26565b865160e08089015160c0808b01516040805133815260208101969096526001600160a01b03909316858401526060850152608084018a905260a084018890528301869052517fdcaf588f09c2b7600db130d5b5166c2c3eecdb321c81cdaba0921b1205d9888f9281900390910190a150505050505050611dcc600160cc55565b505050565b600081815261010560209081526040808320546101068352818420546101049093529083205490918291611e0591906140dc565b611e0f91906140c5565b60008481526101036020526040902054611e29919061409f565b6109f6919061409f565b611e3e338383612cce565b5050565b60006109f682612dc2565b600054610100900460ff1615808015611e6d5750600054600160ff909116105b80611e875750303b158015611e87575060005460ff166001145b611ef95760405162461bcd60e51b815260206004820152602e60248201527f496e697469616c697a61626c653a20636f6e747261637420697320616c72656160448201527f647920696e697469616c697a656400000000000000000000000000000000000060648201526084016109c8565b6000805460ff191660011790558015611f1c576000805461ff0019166101001790555b60ff80547fffffffffffffffffffffffff0000000000000000000000000000000000000000166001600160a01b03841617905560fe80547fffffffffffffffffffffffffffffffff00000000000000000000000000000000166e58d15e176280000058d15e176280001790558015611e3e576000805461ff0019169055604051600181527f7f26b83ff96e1f2b6a682f133852f6798a09c465da95921460cefb3847402498906020015b60405180910390a15050565b600080611fde83611e42565b90506000611feb846119ed565b60008581526101026020908152604080832054610101909252909120549192509061201890848484612241565b95945050505050565b600080808086612031868a61409f565b116120475761204085876140c5565b9250612123565b868811156120ae57600261205b88826140c5565b866120678b60026140c5565b612071919061409f565b61207b91906140b2565b612085908b6140c5565b6120908860026140c5565b61209a919061409f565b6120a490876140c5565b61204091906140dc565b60006120ba89896140b2565b90506000886120c9888c61409f565b6120d391906140b2565b905060026120e1828d6140c5565b6120ec8a60026140c5565b6120f6919061409f565b61210090836140c5565b61210a91906140dc565b612114838a6140c5565b61211e919061409f565b945050505b60fe54670de0b6b3a7640000906121449067ffffffffffffffff16856140c5565b61214e91906140dc565b60fe54909250670de0b6b3a76400009061217e9068010000000000000000900467ffffffffffffffff16856140c5565b61218891906140dc565b905080612195838561409f565b611779919061409f565b600081815260cb602052604090208054606091906121bc9061412e565b80601f01602080910402602001604051908101604052809291908181526020018280546121e89061412e565b80156122355780601f1061220a57610100808354040283529160200191612235565b820191906000526020600020905b81548152906001019060200180831161221857829003601f168201915b50505050509050919050565b600082841161225b5761225484836140c5565b90506122a2565b600061226784866140b2565b905060028161227681896140c5565b61228091906140c5565b61228a91906140dc565b61229486856140c5565b61229e919061409f565b9150505b949350505050565b6001600160a01b0385163314806122c657506122c685336108c0565b6123385760405162461bcd60e51b815260206004820152602e60248201527f455243313135353a2063616c6c6572206973206e6f7420746f6b656e206f776e60448201527f6572206f7220617070726f76656400000000000000000000000000000000000060648201526084016109c8565b61136d8585858585612dd6565b600084612352838861409f565b11156120185760008386612366858a61409f565b61237091906140b2565b61237a91906140dc565b905061238685826140c5565b979650505050505050565b600260cc54036123e35760405162461bcd60e51b815260206004820152601f60248201527f5265656e7472616e637947756172643a207265656e7472616e742063616c6c0060448201526064016109c8565b600260cc55565b6123f5838383612fbe565b600061240083611e42565b1115611dcc57817f6bb7ff708619ba0610cba295a58592e0451dee2622938c8755667688daf3529b60405161244090602080825260009082015260400190565b60405180910390a2505050565b6000836001600160a01b03168360405160006040518083038185875af1925050503d806000811461249a576040519150601f19603f3d011682016040523d82523d6000602084013e61249f565b606091505b5050905080829061136d5760405162461bcd60e51b81526004016109c891906139c1565b815183511461253a5760405162461bcd60e51b815260206004820152602860248201527f455243313135353a2069647320616e6420616d6f756e7473206c656e6774682060448201527f6d69736d6174636800000000000000000000000000000000000000000000000060648201526084016109c8565b6001600160a01b0384166125b65760405162461bcd60e51b815260206004820152602560248201527f455243313135353a207472616e7366657220746f20746865207a65726f20616460448201527f647265737300000000000000000000000000000000000000000000000000000060648201526084016109c8565b336125c581878787878761318a565b60005b84518110156127045760008582815181106125e5576125e56140fe565b602002602001015190506000858381518110612603576126036140fe565b60209081029190910181015160008481526065835260408082206001600160a01b038e1683529093529190912054909150818110156126aa5760405162461bcd60e51b815260206004820152602a60248201527f455243313135353a20696e73756666696369656e742062616c616e636520666f60448201527f72207472616e736665720000000000000000000000000000000000000000000060648201526084016109c8565b60008381526065602090815260408083206001600160a01b038e8116855292528083208585039055908b168252812080548492906126e990849061409f565b92505081905550505050806126fd90614114565b90506125c8565b50846001600160a01b0316866001600160a01b0316826001600160a01b03167f4a39dc06d4c0dbc64b70af90fd698a233a518aa5d07e595d983b8c0526c8f7fb8787604051612754929190614168565b60405180910390a461276a818787878787613318565b505050505050565b600082815260cb6020526040902061278a82826141d3565b507f9881d3fc43c7ddce9f432f1abbb2720b9aa58489a32de89d7269df1807ac4d968282604051611fc6929190614293565b6101005464e8d4a5100085101561283b5760405162461bcd60e51b815260206004820152603d60248201527f4d6f73734875623a20666c6f6f72206d7573742062652067726561746572207460448201527f68616e206f7220657175616c20746f206d696e696d756d20666c6f6f7200000060648201526084016109c8565b600084116128b15760405162461bcd60e51b815260206004820152602f60248201527f4d6f73734875623a20666c6f6f7220737570706c79206d75737420626520677260448201527f6561746572207468616e207a65726f000000000000000000000000000000000060648201526084016109c8565b600083116129265760405162461bcd60e51b8152602060048201526024808201527f4d6f73734875623a2073746570206d7573742067726561746572207468616e2060448201527f7a65726f0000000000000000000000000000000000000000000000000000000060648201526084016109c8565b6000821161299c5760405162461bcd60e51b815260206004820152602660248201527f4d6f73734875623a20667353746570206d75737420677265617465722074686160448201527f6e207a65726f000000000000000000000000000000000000000000000000000060648201526084016109c8565b6129a76005846140dc565b821115612a1c5760405162461bcd60e51b815260206004820152602960248201527f4d6f73734875623a20667353746570206d757374206265206c6573732074686160448201527f6e20737465702f3130000000000000000000000000000000000000000000000060648201526084016109c8565b60fe54600090670de0b6b3a764000090612a4c9068010000000000000000900467ffffffffffffffff16886140c5565b612a5691906140dc565b9050612a62818761409f565b341015612ad75760405162461bcd60e51b815260206004820152602560248201527f4d6f73734875623a20696e73756666696369656e742066756e647320746f206360448201527f726561746500000000000000000000000000000000000000000000000000000060648201526084016109c8565b612ae1818761409f565b341115612b0157612b013382612af789346140b2565b611bdb91906140b2565b60ff5460408051808201909152601e81527f4d6f73734875623a206661696c656420746f20726563656976652066656500006020820152612b4d916001600160a01b031690839061244d565b612b57823361351c565b612b6333836001612c26565b6000828152610101602090815260408083208a90556101028252808320899055610103825280832088905561010582528083208790556101069091528120849055610100805491612bb383614114565b90915550506040805133815260208101849052908101879052606081018690526080810185905260a0810184905260c0810187905260e081018290527f460cf3f1c0e37440b24f7a57d7c52f04ca2f3df751bcb4097d4a9e383b1a2477906101000160405180910390a150505050505050565b60008111612c765760405162461bcd60e51b815260206004820152601160248201527f4d6f73733a207a65726f20616d6f756e7400000000000000000000000000000060448201526064016109c8565b604080516000815260208101909152612c94908490849084906135e9565b817f6bb7ff708619ba0610cba295a58592e0451dee2622938c8755667688daf3529b60405161244090602080825260009082015260400190565b816001600160a01b0316836001600160a01b031603612d555760405162461bcd60e51b815260206004820152602960248201527f455243313135353a2073657474696e6720617070726f76616c2073746174757360448201527f20666f722073656c66000000000000000000000000000000000000000000000060648201526084016109c8565b6001600160a01b03838116600081815260666020908152604080832094871680845294825291829020805460ff191686151590811790915591519182527f17307eab39ab6107e8899845ad3d59bd9653f200f220920489ca2b5937696c31910160405180910390a3505050565b6000818152609760205260408120546109f6565b6001600160a01b038416612e525760405162461bcd60e51b815260206004820152602560248201527f455243313135353a207472616e7366657220746f20746865207a65726f20616460448201527f647265737300000000000000000000000000000000000000000000000000000060648201526084016109c8565b336000612e5e85613721565b90506000612e6b85613721565b9050612e7b83898985858961318a565b60008681526065602090815260408083206001600160a01b038c16845290915290205485811015612f145760405162461bcd60e51b815260206004820152602a60248201527f455243313135353a20696e73756666696369656e742062616c616e636520666f60448201527f72207472616e736665720000000000000000000000000000000000000000000060648201526084016109c8565b60008781526065602090815260408083206001600160a01b038d8116855292528083208985039055908a16825281208054889290612f5390849061409f565b909155505060408051888152602081018890526001600160a01b03808b16928c821692918816917fc3d58168c5ae7397731d063d5bbf3d657854427343f4c083240f7aacaa2d0f62910160405180910390a4612fb3848a8a8a8a8a61376c565b505050505050505050565b6001600160a01b03831661303a5760405162461bcd60e51b815260206004820152602360248201527f455243313135353a206275726e2066726f6d20746865207a65726f206164647260448201527f657373000000000000000000000000000000000000000000000000000000000060648201526084016109c8565b33600061304684613721565b9050600061305384613721565b90506130738387600085856040518060200160405280600081525061318a565b60008581526065602090815260408083206001600160a01b038a1684529091529020548481101561310b5760405162461bcd60e51b8152602060048201526024808201527f455243313135353a206275726e20616d6f756e7420657863656564732062616c60448201527f616e63650000000000000000000000000000000000000000000000000000000060648201526084016109c8565b60008681526065602090815260408083206001600160a01b038b81168086529184528285208a8703905582518b81529384018a90529092908816917fc3d58168c5ae7397731d063d5bbf3d657854427343f4c083240f7aacaa2d0f62910160405180910390a46040805160208101909152600090525b50505050505050565b6001600160a01b0385166132115760005b835181101561320f578281815181106131b6576131b66140fe565b6020026020010151609760008684815181106131d4576131d46140fe565b6020026020010151815260200190815260200160002060008282546131f9919061409f565b90915550613208905081614114565b905061319b565b505b6001600160a01b03841661276a5760005b835181101561318157600084828151811061323f5761323f6140fe565b60200260200101519050600084838151811061325d5761325d6140fe565b60200260200101519050600060976000848152602001908152602001600020549050818110156132f55760405162461bcd60e51b815260206004820152602860248201527f455243313135353a206275726e20616d6f756e74206578636565647320746f7460448201527f616c537570706c7900000000000000000000000000000000000000000000000060648201526084016109c8565b6000928352609760205260409092209103905561331181614114565b9050613222565b6001600160a01b0384163b1561276a576040517fbc197c810000000000000000000000000000000000000000000000000000000081526001600160a01b0385169063bc197c819061337590899089908890889088906004016142ac565b6020604051808303816000875af19250505080156133b0575060408051601f3d908101601f191682019092526133ad918101906142fe565b60015b613465576133bc61431b565b806308c379a0036133f557506133d0614337565b806133db57506133f7565b8060405162461bcd60e51b81526004016109c891906139c1565b505b60405162461bcd60e51b815260206004820152603460248201527f455243313135353a207472616e7366657220746f206e6f6e2d4552433131353560448201527f526563656976657220696d706c656d656e74657200000000000000000000000060648201526084016109c8565b7fffffffff0000000000000000000000000000000000000000000000000000000081167fbc197c8100000000000000000000000000000000000000000000000000000000146131815760405162461bcd60e51b815260206004820152602860248201527f455243313135353a204552433131353552656365697665722072656a6563746560448201527f6420746f6b656e7300000000000000000000000000000000000000000000000060648201526084016109c8565b613525826114b2565b156135725760405162461bcd60e51b815260206004820152601260248201527f4d6f73733a20746f6b656e20657869737473000000000000000000000000000060448201526064016109c8565b600082815260ca602090815260409182902080547fffffffffffffffffffffffff0000000000000000000000000000000000000000166001600160a01b0385169081179091558251858152918201527fc0186d9ba7364ebd80a7010121367f481af81e1028bf368b2172fedf2c6fc7de9101611fc6565b6001600160a01b0384166136655760405162461bcd60e51b815260206004820152602160248201527f455243313135353a206d696e7420746f20746865207a65726f2061646472657360448201527f730000000000000000000000000000000000000000000000000000000000000060648201526084016109c8565b33600061367185613721565b9050600061367e85613721565b905061368f8360008985858961318a565b60008681526065602090815260408083206001600160a01b038b168452909152812080548792906136c190849061409f565b909155505060408051878152602081018790526001600160a01b03808a1692600092918716917fc3d58168c5ae7397731d063d5bbf3d657854427343f4c083240f7aacaa2d0f62910160405180910390a46131818360008989898961376c565b6040805160018082528183019092526060916000919060208083019080368337019050509050828160008151811061375b5761375b6140fe565b602090810291909101015292915050565b6001600160a01b0384163b1561276a576040517ff23a6e610000000000000000000000000000000000000000000000000000000081526001600160a01b0385169063f23a6e61906137c990899089908890889088906004016143df565b6020604051808303816000875af1925050508015613804575060408051601f3d908101601f19168201909252613801918101906142fe565b60015b613810576133bc61431b565b7fffffffff0000000000000000000000000000000000000000000000000000000081167ff23a6e6100000000000000000000000000000000000000000000000000000000146131815760405162461bcd60e51b815260206004820152602860248201527f455243313135353a204552433131353552656365697665722072656a6563746560448201527f6420746f6b656e7300000000000000000000000000000000000000000000000060648201526084016109c8565b6000602082840312156138d957600080fd5b5035919050565b80356001600160a01b03811681146138f757600080fd5b919050565b6000806040838503121561390f57600080fd5b613918836138e0565b946020939093013593505050565b7fffffffff00000000000000000000000000000000000000000000000000000000811681146119ea57600080fd5b60006020828403121561396657600080fd5b8135610cde81613926565b60005b8381101561398c578181015183820152602001613974565b50506000910152565b600081518084526139ad816020860160208601613971565b601f01601f19169290920160200192915050565b602081526000610cde6020830184613995565b600080604083850312156139e757600080fd5b6139f0836138e0565b91506139fe602084016138e0565b90509250929050565b600080600080600080600060e0888a031215613a2257600080fd5b505085359760208701359750604087013596606081013596506080810135955060a0810135945060c0013592509050565b60008060008060808587031215613a6957600080fd5b84359350613a79602086016138e0565b93969395505050506040820135916060013590565b634e487b7160e01b600052604160045260246000fd5b601f19601f830116810181811067ffffffffffffffff82111715613aca57613aca613a8e565b6040525050565b600067ffffffffffffffff821115613aeb57613aeb613a8e565b5060051b60200190565b600082601f830112613b0657600080fd5b81356020613b1382613ad1565b604051613b208282613aa4565b83815260059390931b8501820192828101915086841115613b4057600080fd5b8286015b84811015613b5b5780358352918301918301613b44565b509695505050505050565b600067ffffffffffffffff821115613b8057613b80613a8e565b50601f01601f191660200190565b6000613b9983613b66565b604051613ba68282613aa4565b809250848152858585011115613bbb57600080fd5b8484602083013760006020868301015250509392505050565b600082601f830112613be557600080fd5b610cde83833560208501613b8e565b600080600080600060a08688031215613c0c57600080fd5b613c15866138e0565b9450613c23602087016138e0565b9350604086013567ffffffffffffffff80821115613c4057600080fd5b613c4c89838a01613af5565b94506060880135915080821115613c6257600080fd5b613c6e89838a01613af5565b93506080880135915080821115613c8457600080fd5b50613c9188828901613bd4565b9150509295509295909350565b60008060408385031215613cb157600080fd5b823567ffffffffffffffff80821115613cc957600080fd5b818501915085601f830112613cdd57600080fd5b81356020613cea82613ad1565b604051613cf78282613aa4565b83815260059390931b8501820192828101915089841115613d1757600080fd5b948201945b83861015613d3c57613d2d866138e0565b82529482019490820190613d1c565b96505086013592505080821115613d5257600080fd5b50613d5f85828601613af5565b9150509250929050565b600081518084526020808501945080840160005b83811015613d9957815187529582019590820190600101613d7d565b509495945050505050565b602081526000610cde6020830184613d69565b60008060408385031215613dca57600080fd5b82359150602083013567ffffffffffffffff811115613de857600080fd5b8301601f81018513613df957600080fd5b613d5f85823560208401613b8e565b600080600080600060a08688031215613e2057600080fd5b505083359560208501359550604085013594606081013594506080013592509050565b60008060408385031215613e5657600080fd5b50508035926020909101359150565b600080600060608486031215613e7a57600080fd5b83359250613e8a602085016138e0565b9150604084013590509250925092565b60008060408385031215613ead57600080fd5b613eb6836138e0565b915060208301358015158114613ecb57600080fd5b809150509250929050565b600060208284031215613ee857600080fd5b610cde826138e0565b60008060008060808587031215613f0757600080fd5b5050823594602084013594506040840135936060013592509050565b600080600080600060a08688031215613f3b57600080fd5b613f44866138e0565b9450613f52602087016138e0565b93506040860135925060608601359150608086013567ffffffffffffffff811115613f7c57600080fd5b613c9188828901613bd4565b81518152602080830151610140830191613fac908401826001600160a01b03169052565b5060408301516040830152606083015160608301526080830151608083015260a083015160a083015260c083015160c083015260e083015160e083015261010080840151818401525061012080840151818401525092915050565b60006020828403121561401957600080fd5b815167ffffffffffffffff81111561403057600080fd5b8201601f8101841361404157600080fd5b805161404c81613b66565b6040516140598282613aa4565b82815286602084860101111561406e57600080fd5b61407f836020830160208701613971565b9695505050505050565b634e487b7160e01b600052601160045260246000fd5b808201808211156109f6576109f6614089565b818103818111156109f6576109f6614089565b80820281158282048414176109f6576109f6614089565b6000826140f957634e487b7160e01b600052601260045260246000fd5b500490565b634e487b7160e01b600052603260045260246000fd5b6000600019820361412757614127614089565b5060010190565b600181811c9082168061414257607f821691505b60208210810361416257634e487b7160e01b600052602260045260246000fd5b50919050565b60408152600061417b6040830185613d69565b82810360208401526120188185613d69565b601f821115611dcc57600081815260208120601f850160051c810160208610156141b45750805b601f850160051c820191505b8181101561276a578281556001016141c0565b815167ffffffffffffffff8111156141ed576141ed613a8e565b614201816141fb845461412e565b8461418d565b602080601f831160018114614236576000841561421e5750858301515b600019600386901b1c1916600185901b17855561276a565b600085815260208120601f198616915b8281101561426557888601518255948401946001909101908401614246565b50858210156142835787850151600019600388901b60f8161c191681555b5050505050600190811b01905550565b8281526040602082015260006122a26040830184613995565b60006001600160a01b03808816835280871660208401525060a060408301526142d860a0830186613d69565b82810360608401526142ea8186613d69565b90508281036080840152610d8a8185613995565b60006020828403121561431057600080fd5b8151610cde81613926565b600060033d11156143345760046000803e5060005160e01c5b90565b600060443d10156143455790565b6040517ffffffffffffffffffffffffffffffffffffffffffffffffffffffffffffffffc803d016004833e81513d67ffffffffffffffff816024840111818411171561439357505050505090565b82850191508151818111156143ab5750505050505090565b843d87010160208285010111156143c55750505050505090565b6143d460208286010187613aa4565b509095945050505050565b60006001600160a01b03808816835280871660208401525084604083015283606083015260a0608083015261238660a083018461399556fe4d6f73734875623a206661696c656420746f207472616e736665722063726561746f72206665654d6f73734875623a207472616e736665722066756e6473206261636b206661696c65644d6f73734875623a206661696c656420746f207472616e736665722064657620666565a264697066735822122052ebb2eba515e63f45f88071fe8637005c8657a518262ca36875463df998520b64736f6c63430008130033",
  "deployedBytecode": "0x6080604052600436106102c85760003560e01c806371fc76f511610179578063bd85b039116100d6578063cdb9c4eb1161008a578063f213edda11610064578063f213edda146108ee578063f242432a1461090e578063f740fd341461092e57600080fd5b8063cdb9c4eb14610864578063e2e1b89014610885578063e985e9c5146108a557600080fd5b8063c4d66de8116100bb578063c4d66de814610804578063c5464eb414610824578063c79ab6a21461084457600080fd5b8063bd85b03914610791578063c3c854b6146107b157600080fd5b8063836a10401161012d57806391cca3db1161011257806391cca3db14610731578063936906f114610751578063a22cb4651461077157600080fd5b8063836a1040146106f05780638d6a84941461070357600080fd5b8063780900dc1161015e578063780900dc1461068f5780637ab58add146106a2578063810c3738146106d057600080fd5b806371fc76f51461064f57806375e583e61461066f57600080fd5b80632eb2c2d611610227578063503e0a98116101db578063504f5e56116101c0578063504f5e5614610593578063589a1743146105c157806361c44d601461060f57600080fd5b8063503e0a981461055a578063504d95781461057357600080fd5b8063443ddba21161020c578063443ddba2146104df5780634e1273f41461050d5780634f558e791461053a57600080fd5b80632eb2c2d6146104a357806343a54a0c146104c357600080fd5b8063129678941161027e57806321a72a421161026357806321a72a421461041b57806327fc36371461043b57806329bff6901461045d57600080fd5b806312967894146103c05780631930e825146103e057600080fd5b806301ffc9a7116102af57806301ffc9a71461033557806309501e66146103655780630e89341c1461039357600080fd5b8062d92e39146102d4578062fdd58e1461031557600080fd5b366102cf57005b600080fd5b3480156102e057600080fd5b506103026102ef3660046138c7565b6000908152610105602052604090205490565b6040519081526020015b60405180910390f35b34801561032157600080fd5b506103026103303660046138fc565b61094e565b34801561034157600080fd5b50610355610350366004613954565b6109fc565b604051901515815260200161030c565b34801561037157600080fd5b506103026103803660046138c7565b6000908152610106602052604090205490565b34801561039f57600080fd5b506103b36103ae3660046138c7565b610adf565b60405161030c91906139c1565b3480156103cc57600080fd5b506103026103db3660046138c7565b610ce5565b3480156103ec57600080fd5b506103556103fb3660046139d4565b60c960209081526000928352604080842090915290825290205460ff1681565b34801561042757600080fd5b50610302610436366004613a07565b610d96565b34801561044757600080fd5b5061045b610456366004613a53565b610f09565b005b34801561046957600080fd5b5060fe5461048a9068010000000000000000900467ffffffffffffffff1681565b60405167ffffffffffffffff909116815260200161030c565b3480156104af57600080fd5b5061045b6104be366004613bf4565b6112d2565b3480156104cf57600080fd5b5061048a670de0b6b3a764000081565b3480156104eb57600080fd5b506103026104fa3660046138c7565b6101016020526000908152604090205481565b34801561051957600080fd5b5061052d610528366004613c9e565b611374565b60405161030c9190613da4565b34801561054657600080fd5b506103556105553660046138c7565b6114b2565b34801561056657600080fd5b5061048a64e8d4a5100081565b34801561057f57600080fd5b5061045b61058e366004613db7565b6114c8565b34801561059f57600080fd5b506103026105ae3660046138c7565b6000908152610102602052604090205490565b3480156105cd57600080fd5b506105f76105dc3660046138c7565b600090815260ca60205260409020546001600160a01b031690565b6040516001600160a01b03909116815260200161030c565b34801561061b57600080fd5b5061062f61062a366004613e08565b611569565b60408051948552602085019390935291830152606082015260800161030c565b34801561065b57600080fd5b5061062f61066a366004613e43565b611787565b34801561067b57600080fd5b5061062f61068a366004613e43565b6118aa565b61045b61069d3660046138c7565b61196c565b3480156106ae57600080fd5b506103026106bd3660046138c7565b6101046020526000908152604090205481565b3480156106dc57600080fd5b506103026106eb3660046138c7565b6119ed565b61045b6106fe366004613e65565b611a13565b34801561070f57600080fd5b5061030261071e3660046138c7565b6101036020526000908152604090205481565b34801561073d57600080fd5b5060ff546105f7906001600160a01b031681565b34801561075d57600080fd5b5061030261076c3660046138c7565b611dd1565b34801561077d57600080fd5b5061045b61078c366004613e9a565b611e33565b34801561079d57600080fd5b506103026107ac3660046138c7565b611e42565b3480156107bd57600080fd5b5061045b6107cc366004613e9a565b33600090815260c9602090815260408083206001600160a01b0395909516835293905291909120805460ff1916911515919091179055565b34801561081057600080fd5b5061045b61081f366004613ed6565b611e4d565b34801561083057600080fd5b5061030261083f3660046138c7565b611fd2565b34801561085057600080fd5b5061062f61085f366004613e08565b612021565b34801561087057600080fd5b5060fe5461048a9067ffffffffffffffff1681565b34801561089157600080fd5b506103b36108a03660046138c7565b61219f565b3480156108b157600080fd5b506103556108c03660046139d4565b6001600160a01b03918216600090815260666020908152604080832093909416825291909152205460ff1690565b3480156108fa57600080fd5b50610302610909366004613ef1565b612241565b34801561091a57600080fd5b5061045b610929366004613f23565b6122aa565b34801561093a57600080fd5b50610302610949366004613e08565b612345565b60006001600160a01b0383166109d15760405162461bcd60e51b815260206004820152602a60248201527f455243313135353a2061646472657373207a65726f206973206e6f742061207660448201527f616c6964206f776e65720000000000000000000000000000000000000000000060648201526084015b60405180910390fd5b5060008181526065602090815260408083206001600160a01b03861684529091529020545b92915050565b60007fffffffff0000000000000000000000000000000000000000000000000000000082167fd9b67a26000000000000000000000000000000000000000000000000000000001480610a8f57507fffffffff0000000000000000000000000000000000000000000000000000000082167f0e89341c00000000000000000000000000000000000000000000000000000000145b806109f657507f01ffc9a7000000000000000000000000000000000000000000000000000000007fffffffff000000000000000000000000000000000000000000000000000000008316146109f6565b6060610b406040518061014001604052806000815260200160006001600160a01b0316815260200160008152602001600081526020016000815260200160008152602001600081526020016000815260200160008152602001600081525090565b828152600083815261010160209081526040808320548185015285835260ca8252808320546001600160a01b0316828501528583526101029091529020546060820152610b8c836119ed565b6080820152610b9a83611e42565b60a0820152610ba883611dd1565b60c08201526000838152610101602052604090205460a082015160808301516060840151610bd893929190612241565b6101208201526000838152610101602052604090205460a082015160808301516060840151610c0b939291906001612021565b505060e0830152506000838152610101602052604090205460a082015160808301516060840151610c40939291906001611569565b5050610100830152506040517f2a5a1a1400000000000000000000000000000000000000000000000000000000815273__$cea9be979eee3d87fb124d6cbb244bb0b5$__90632a5a1a1490610c99908490600401613f88565b600060405180830381865af4158015610cb6573d6000803e3d6000fd5b505050506040513d6000823e601f3d908101601f19168201604052610cde9190810190614007565b9392505050565b6000818152610101602052604081205481610cff84611dd1565b90506000610d0c856119ed565b60008681526101026020526040812054919250610d2b85858585612241565b60008881526101036020908152604080832054610106835281842054610105909352908320549394509192610d64928892909185612345565b9050610d8a868661010360008c8152602001908152602001600020548487876000610d96565b98975050505050505050565b600080610da3868861409f565b905080610db0848a61409f565b11610e235760405162461bcd60e51b815260206004820152602960248201527f4d6f73734875623a20666c6f6f7220737570706c792069732067746520746f7460448201527f616c20737570706c79000000000000000000000000000000000000000000000060648201526084016109c8565b600081610e30858b61409f565b610e3a91906140b2565b9050610e46848a61409f565b610e519060026140c5565b81610e5c818d6140c5565b610e6691906140c5565b610e718760026140c5565b610e7b91906140b2565b610e8591906140dc565b9250858311610efc5760405162461bcd60e51b815260206004820152603960248201527f4d6f73734875623a2061646a757374656420666c6f6f7220707269636520697360448201527f206c7465206f726967696e616c20666c6f6f722070726963650000000000000060648201526084016109c8565b5050979650505050505050565b610f11612391565b610f1a846114b2565b610f665760405162461bcd60e51b815260206004820152601a60248201527f4d6f73734875623a206e6f6e6578736974656e7420746f6b656e00000000000060448201526064016109c8565b60008211610fdc5760405162461bcd60e51b815260206004820152602660248201527f4d6f73734875623a20616d6f756e74206d75737420626520677265617465722060448201527f7468616e2030000000000000000000000000000000000000000000000000000060648201526084016109c8565b6000610fe785611e42565b9050828110156110395760405162461bcd60e51b815260206004820181905260248201527f4d6f73734875623a20746f6f206d75636820616d6f756e7420746f206275726e60448201526064016109c8565b60408051610100810182528681526000878152610101602090815283822054908301529181018390526060810161106f886119ed565b815260200161108b886000908152610102602052604090205490565b81526020016110a7886000908152610105602052604090205490565b8152602001858152602001866001600160a01b031681525090506000806000806110e885602001518660400151876060015188608001518960c00151611569565b93509350935093508684101561118c5760405162461bcd60e51b815260206004820152604960248201527f4d6f73734875623a2072656365697665642076616c7565206d7573742062652060448201527f67726561746572207468616e206f7220657175616c20746f206d696e696d756d60648201527f2072656365697665640000000000000000000000000000000000000000000000608482015260a4016109c8565b61119f3386600001518760c001516123ea565b6111df89856040518060400160405280601e81526020017f4d6f73734875623a207472616e736665722076616c7565206661696c6564000081525061244d565b60ff546040805160608101909152602380825261120f926001600160a01b0316918491614462602083013961244d565b8451600090815260ca602052604090205461124d906001600160a01b03165b836040518060600160405280602781526020016144186027913961244d565b845160e08087015160c0808901516040805133815260208101969096526001600160a01b039093168584015260608501526080840187905260a084018690528301849052517f63b3cda962e4a1210ab73053c3af0163312c753575551b8c9d04906ec6e0ff679281900390910190a15050505050506112cc600160cc55565b50505050565b6001600160a01b0385163314806112ee57506112ee85336108c0565b6113605760405162461bcd60e51b815260206004820152602e60248201527f455243313135353a2063616c6c6572206973206e6f7420746f6b656e206f776e60448201527f6572206f7220617070726f76656400000000000000000000000000000000000060648201526084016109c8565b61136d85858585856124c3565b5050505050565b606081518351146113ed5760405162461bcd60e51b815260206004820152602960248201527f455243313135353a206163636f756e747320616e6420696473206c656e67746860448201527f206d69736d61746368000000000000000000000000000000000000000000000060648201526084016109c8565b6000835167ffffffffffffffff81111561140957611409613a8e565b604051908082528060200260200182016040528015611432578160200160208202803683370190505b50905060005b84518110156114aa5761147d858281518110611456576114566140fe565b6020026020010151858381518110611470576114706140fe565b602002602001015161094e565b82828151811061148f5761148f6140fe565b60209081029190910101526114a381614114565b9050611438565b509392505050565b60008181526097602052604081205415156109f6565b600082815260ca602052604090205482906001600160a01b03163381148061151357506001600160a01b038116600090815260c96020908152604080832033845290915290205460ff165b61155f5760405162461bcd60e51b815260206004820152601b60248201527f4d6f73733a2044656c6567617465206e6f7420617070726f766564000000000060448201526064016109c8565b6112cc8484612772565b6000806000808488101561160b5760405162461bcd60e51b815260206004820152604260248201527f4d6f73734875623a206275726e696e6720616d6f756e74206d7573742062652060448201527f6c657373207468616e206f7220657175616c20746f20746f74616c207375707060648201527f6c79000000000000000000000000000000000000000000000000000000000000608482015260a4016109c8565b8688116116235761161c85876140c5565b92506116fd565b8661162e868a6140b2565b111561169357600261164088826140c5565b8661164c8b60026140c5565b61165691906140b2565b61166091906140b2565b61166a908b6140c5565b6116758860026140c5565b61167f919061409f565b61168990876140c5565b61161c91906140dc565b600061169f888a6140b2565b905060006116ad82886140b2565b905060026116bb838d6140c5565b6116c68a60026140c5565b6116d0919061409f565b6116da90846140c5565b6116e491906140dc565b6116ee828a6140c5565b6116f8919061409f565b945050505b60fe54670de0b6b3a76400009061171e9067ffffffffffffffff16856140c5565b61172891906140dc565b60fe54909250670de0b6b3a7640000906117589068010000000000000000900467ffffffffffffffff16856140c5565b61176291906140dc565b90508061176f83856140b2565b61177991906140b2565b935095509550955095915050565b6000808080806117ac87600090815260ca60205260409020546001600160a01b031690565b6001600160a01b0316036118025760405162461bcd60e51b815260206004820152601d60248201527f4d6f73734875623a20746f6b656e206973206e6f74206372656174656400000060448201526064016109c8565b600086815261010160205260408120549061181c88611e42565b90506000611829896119ed565b60008a81526101026020526040902054909150806118895760405162461bcd60e51b815260206004820152601960248201527f4d6f73734875623a207a65726f20666c6f6f722070726963650000000000000060448201526064016109c8565b611896848484848d612021565b929d919c509a509098509650505050505050565b6000808080806118cf87600090815260ca60205260409020546001600160a01b031690565b6001600160a01b0316036119255760405162461bcd60e51b815260206004820152601d60248201527f4d6f73734875623a20746f6b656e206973206e6f74206372656174656400000060448201526064016109c8565b600086815261010160205260408120549061193f88611e42565b9050600061194c896119ed565b60008a81526101026020526040902054909150611896848484848d611569565b611974612391565b8042106119c35760405162461bcd60e51b815260206004820152601360248201527f4d6f73734875623a2074782074696d656f75740000000000000000000000000060448201526064016109c8565b6119e066038d7ea4c68000655af3107a40006001600a60026127bc565b6119ea600160cc55565b50565b600081815261010460209081526040808320546101039092528220546109f6919061409f565b611a1b612391565b60008111611a915760405162461bcd60e51b815260206004820152602660248201527f4d6f73734875623a20616d6f756e74206d75737420626520677265617465722060448201527f7468616e2030000000000000000000000000000000000000000000000000000060648201526084016109c8565b6040805161010081018252848152600085815261010160209081528382205490830152918101611ac086611e42565b8152602001611ace866119ed565b8152602001611aea866000908152610102602052604090205490565b8152602001611b06866000908152610105602052604090205490565b8152602001838152602001846001600160a01b03168152509050600080600080611b4785602001518660400151876060015188608001518960c00151612021565b935093509350935083341015611bc55760405162461bcd60e51b815260206004820152602360248201527f4d6f73734875623a20696e73756666696369656e742066756e647320746f206d60448201527f696e74000000000000000000000000000000000000000000000000000000000060648201526084016109c8565b83341115611bf957611bf933611bdb86346140b2565b60405180606001604052806023815260200161443f6023913961244d565b60ff5460408051606081019091526023808252611c29926001600160a01b0316918491614462602083013961244d565b8451600090815260ca6020526040902054611c4c906001600160a01b031661122e565b60408086015186516000908152610103602090815283822054895183526101069091529281205460a089015160c08a01519294611c8d949390929190612345565b90506000611cad8760200151886040015189606001518a60800151612241565b875160009081526101046020526040902054909150821115611d355760008a815261010160209081526040808320548a8201518b51855261010390935292205460808a0151611d0f939291908690611d058b8861409f565b8d60c00151610d96565b875160009081526101026020908152604080832093909355895182526101049052208290555b611d4c8760e0015188600001518960c00151612c26565b865160e08089015160c0808b01516040805133815260208101969096526001600160a01b03909316858401526060850152608084018a905260a084018890528301869052517fdcaf588f09c2b7600db130d5b5166c2c3eecdb321c81cdaba0921b1205d9888f9281900390910190a150505050505050611dcc600160cc55565b505050565b600081815261010560209081526040808320546101068352818420546101049093529083205490918291611e0591906140dc565b611e0f91906140c5565b60008481526101036020526040902054611e29919061409f565b6109f6919061409f565b611e3e338383612cce565b5050565b60006109f682612dc2565b600054610100900460ff1615808015611e6d5750600054600160ff909116105b80611e875750303b158015611e87575060005460ff166001145b611ef95760405162461bcd60e51b815260206004820152602e60248201527f496e697469616c697a61626c653a20636f6e747261637420697320616c72656160448201527f647920696e697469616c697a656400000000000000000000000000000000000060648201526084016109c8565b6000805460ff191660011790558015611f1c576000805461ff0019166101001790555b60ff80547fffffffffffffffffffffffff0000000000000000000000000000000000000000166001600160a01b03841617905560fe80547fffffffffffffffffffffffffffffffff00000000000000000000000000000000166e58d15e176280000058d15e176280001790558015611e3e576000805461ff0019169055604051600181527f7f26b83ff96e1f2b6a682f133852f6798a09c465da95921460cefb3847402498906020015b60405180910390a15050565b600080611fde83611e42565b90506000611feb846119ed565b60008581526101026020908152604080832054610101909252909120549192509061201890848484612241565b95945050505050565b600080808086612031868a61409f565b116120475761204085876140c5565b9250612123565b868811156120ae57600261205b88826140c5565b866120678b60026140c5565b612071919061409f565b61207b91906140b2565b612085908b6140c5565b6120908860026140c5565b61209a919061409f565b6120a490876140c5565b61204091906140dc565b60006120ba89896140b2565b90506000886120c9888c61409f565b6120d391906140b2565b905060026120e1828d6140c5565b6120ec8a60026140c5565b6120f6919061409f565b61210090836140c5565b61210a91906140dc565b612114838a6140c5565b61211e919061409f565b945050505b60fe54670de0b6b3a7640000906121449067ffffffffffffffff16856140c5565b61214e91906140dc565b60fe54909250670de0b6b3a76400009061217e9068010000000000000000900467ffffffffffffffff16856140c5565b61218891906140dc565b905080612195838561409f565b611779919061409f565b600081815260cb602052604090208054606091906121bc9061412e565b80601f01602080910402602001604051908101604052809291908181526020018280546121e89061412e565b80156122355780601f1061220a57610100808354040283529160200191612235565b820191906000526020600020905b81548152906001019060200180831161221857829003601f168201915b50505050509050919050565b600082841161225b5761225484836140c5565b90506122a2565b600061226784866140b2565b905060028161227681896140c5565b61228091906140c5565b61228a91906140dc565b61229486856140c5565b61229e919061409f565b9150505b949350505050565b6001600160a01b0385163314806122c657506122c685336108c0565b6123385760405162461bcd60e51b815260206004820152602e60248201527f455243313135353a2063616c6c6572206973206e6f7420746f6b656e206f776e60448201527f6572206f7220617070726f76656400000000000000000000000000000000000060648201526084016109c8565b61136d8585858585612dd6565b600084612352838861409f565b11156120185760008386612366858a61409f565b61237091906140b2565b61237a91906140dc565b905061238685826140c5565b979650505050505050565b600260cc54036123e35760405162461bcd60e51b815260206004820152601f60248201527f5265656e7472616e637947756172643a207265656e7472616e742063616c6c0060448201526064016109c8565b600260cc55565b6123f5838383612fbe565b600061240083611e42565b1115611dcc57817f6bb7ff708619ba0610cba295a58592e0451dee2622938c8755667688daf3529b60405161244090602080825260009082015260400190565b60405180910390a2505050565b6000836001600160a01b03168360405160006040518083038185875af1925050503d806000811461249a576040519150601f19603f3d011682016040523d82523d6000602084013e61249f565b606091505b5050905080829061136d5760405162461bcd60e51b81526004016109c891906139c1565b815183511461253a5760405162461bcd60e51b815260206004820152602860248201527f455243313135353a2069647320616e6420616d6f756e7473206c656e6774682060448201527f6d69736d6174636800000000000000000000000000000000000000000000000060648201526084016109c8565b6001600160a01b0384166125b65760405162461bcd60e51b815260206004820152602560248201527f455243313135353a207472616e7366657220746f20746865207a65726f20616460448201527f647265737300000000000000000000000000000000000000000000000000000060648201526084016109c8565b336125c581878787878761318a565b60005b84518110156127045760008582815181106125e5576125e56140fe565b602002602001015190506000858381518110612603576126036140fe565b60209081029190910181015160008481526065835260408082206001600160a01b038e1683529093529190912054909150818110156126aa5760405162461bcd60e51b815260206004820152602a60248201527f455243313135353a20696e73756666696369656e742062616c616e636520666f60448201527f72207472616e736665720000000000000000000000000000000000000000000060648201526084016109c8565b60008381526065602090815260408083206001600160a01b038e8116855292528083208585039055908b168252812080548492906126e990849061409f565b92505081905550505050806126fd90614114565b90506125c8565b50846001600160a01b0316866001600160a01b0316826001600160a01b03167f4a39dc06d4c0dbc64b70af90fd698a233a518aa5d07e595d983b8c0526c8f7fb8787604051612754929190614168565b60405180910390a461276a818787878787613318565b505050505050565b600082815260cb6020526040902061278a82826141d3565b507f9881d3fc43c7ddce9f432f1abbb2720b9aa58489a32de89d7269df1807ac4d968282604051611fc6929190614293565b6101005464e8d4a5100085101561283b5760405162461bcd60e51b815260206004820152603d60248201527f4d6f73734875623a20666c6f6f72206d7573742062652067726561746572207460448201527f68616e206f7220657175616c20746f206d696e696d756d20666c6f6f7200000060648201526084016109c8565b600084116128b15760405162461bcd60e51b815260206004820152602f60248201527f4d6f73734875623a20666c6f6f7220737570706c79206d75737420626520677260448201527f6561746572207468616e207a65726f000000000000000000000000000000000060648201526084016109c8565b600083116129265760405162461bcd60e51b8152602060048201526024808201527f4d6f73734875623a2073746570206d7573742067726561746572207468616e2060448201527f7a65726f0000000000000000000000000000000000000000000000000000000060648201526084016109c8565b6000821161299c5760405162461bcd60e51b815260206004820152602660248201527f4d6f73734875623a20667353746570206d75737420677265617465722074686160448201527f6e207a65726f000000000000000000000000000000000000000000000000000060648201526084016109c8565b6129a76005846140dc565b821115612a1c5760405162461bcd60e51b815260206004820152602960248201527f4d6f73734875623a20667353746570206d757374206265206c6573732074686160448201527f6e20737465702f3130000000000000000000000000000000000000000000000060648201526084016109c8565b60fe54600090670de0b6b3a764000090612a4c9068010000000000000000900467ffffffffffffffff16886140c5565b612a5691906140dc565b9050612a62818761409f565b341015612ad75760405162461bcd60e51b815260206004820152602560248201527f4d6f73734875623a20696e73756666696369656e742066756e647320746f206360448201527f726561746500000000000000000000000000000000000000000000000000000060648201526084016109c8565b612ae1818761409f565b341115612b0157612b013382612af789346140b2565b611bdb91906140b2565b60ff5460408051808201909152601e81527f4d6f73734875623a206661696c656420746f20726563656976652066656500006020820152612b4d916001600160a01b031690839061244d565b612b57823361351c565b612b6333836001612c26565b6000828152610101602090815260408083208a90556101028252808320899055610103825280832088905561010582528083208790556101069091528120849055610100805491612bb383614114565b90915550506040805133815260208101849052908101879052606081018690526080810185905260a0810184905260c0810187905260e081018290527f460cf3f1c0e37440b24f7a57d7c52f04ca2f3df751bcb4097d4a9e383b1a2477906101000160405180910390a150505050505050565b60008111612c765760405162461bcd60e51b815260206004820152601160248201527f4d6f73733a207a65726f20616d6f756e7400000000000000000000000000000060448201526064016109c8565b604080516000815260208101909152612c94908490849084906135e9565b817f6bb7ff708619ba0610cba295a58592e0451dee2622938c8755667688daf3529b60405161244090602080825260009082015260400190565b816001600160a01b0316836001600160a01b031603612d555760405162461bcd60e51b815260206004820152602960248201527f455243313135353a2073657474696e6720617070726f76616c2073746174757360448201527f20666f722073656c66000000000000000000000000000000000000000000000060648201526084016109c8565b6001600160a01b03838116600081815260666020908152604080832094871680845294825291829020805460ff191686151590811790915591519182527f17307eab39ab6107e8899845ad3d59bd9653f200f220920489ca2b5937696c31910160405180910390a3505050565b6000818152609760205260408120546109f6565b6001600160a01b038416612e525760405162461bcd60e51b815260206004820152602560248201527f455243313135353a207472616e7366657220746f20746865207a65726f20616460448201527f647265737300000000000000000000000000000000000000000000000000000060648201526084016109c8565b336000612e5e85613721565b90506000612e6b85613721565b9050612e7b83898985858961318a565b60008681526065602090815260408083206001600160a01b038c16845290915290205485811015612f145760405162461bcd60e51b815260206004820152602a60248201527f455243313135353a20696e73756666696369656e742062616c616e636520666f60448201527f72207472616e736665720000000000000000000000000000000000000000000060648201526084016109c8565b60008781526065602090815260408083206001600160a01b038d8116855292528083208985039055908a16825281208054889290612f5390849061409f565b909155505060408051888152602081018890526001600160a01b03808b16928c821692918816917fc3d58168c5ae7397731d063d5bbf3d657854427343f4c083240f7aacaa2d0f62910160405180910390a4612fb3848a8a8a8a8a61376c565b505050505050505050565b6001600160a01b03831661303a5760405162461bcd60e51b815260206004820152602360248201527f455243313135353a206275726e2066726f6d20746865207a65726f206164647260448201527f657373000000000000000000000000000000000000000000000000000000000060648201526084016109c8565b33600061304684613721565b9050600061305384613721565b90506130738387600085856040518060200160405280600081525061318a565b60008581526065602090815260408083206001600160a01b038a1684529091529020548481101561310b5760405162461bcd60e51b8152602060048201526024808201527f455243313135353a206275726e20616d6f756e7420657863656564732062616c60448201527f616e63650000000000000000000000000000000000000000000000000000000060648201526084016109c8565b60008681526065602090815260408083206001600160a01b038b81168086529184528285208a8703905582518b81529384018a90529092908816917fc3d58168c5ae7397731d063d5bbf3d657854427343f4c083240f7aacaa2d0f62910160405180910390a46040805160208101909152600090525b50505050505050565b6001600160a01b0385166132115760005b835181101561320f578281815181106131b6576131b66140fe565b6020026020010151609760008684815181106131d4576131d46140fe565b6020026020010151815260200190815260200160002060008282546131f9919061409f565b90915550613208905081614114565b905061319b565b505b6001600160a01b03841661276a5760005b835181101561318157600084828151811061323f5761323f6140fe565b60200260200101519050600084838151811061325d5761325d6140fe565b60200260200101519050600060976000848152602001908152602001600020549050818110156132f55760405162461bcd60e51b815260206004820152602860248201527f455243313135353a206275726e20616d6f756e74206578636565647320746f7460448201527f616c537570706c7900000000000000000000000000000000000000000000000060648201526084016109c8565b6000928352609760205260409092209103905561331181614114565b9050613222565b6001600160a01b0384163b1561276a576040517fbc197c810000000000000000000000000000000000000000000000000000000081526001600160a01b0385169063bc197c819061337590899089908890889088906004016142ac565b6020604051808303816000875af19250505080156133b0575060408051601f3d908101601f191682019092526133ad918101906142fe565b60015b613465576133bc61431b565b806308c379a0036133f557506133d0614337565b806133db57506133f7565b8060405162461bcd60e51b81526004016109c891906139c1565b505b60405162461bcd60e51b815260206004820152603460248201527f455243313135353a207472616e7366657220746f206e6f6e2d4552433131353560448201527f526563656976657220696d706c656d656e74657200000000000000000000000060648201526084016109c8565b7fffffffff0000000000000000000000000000000000000000000000000000000081167fbc197c8100000000000000000000000000000000000000000000000000000000146131815760405162461bcd60e51b815260206004820152602860248201527f455243313135353a204552433131353552656365697665722072656a6563746560448201527f6420746f6b656e7300000000000000000000000000000000000000000000000060648201526084016109c8565b613525826114b2565b156135725760405162461bcd60e51b815260206004820152601260248201527f4d6f73733a20746f6b656e20657869737473000000000000000000000000000060448201526064016109c8565b600082815260ca602090815260409182902080547fffffffffffffffffffffffff0000000000000000000000000000000000000000166001600160a01b0385169081179091558251858152918201527fc0186d9ba7364ebd80a7010121367f481af81e1028bf368b2172fedf2c6fc7de9101611fc6565b6001600160a01b0384166136655760405162461bcd60e51b815260206004820152602160248201527f455243313135353a206d696e7420746f20746865207a65726f2061646472657360448201527f730000000000000000000000000000000000000000000000000000000000000060648201526084016109c8565b33600061367185613721565b9050600061367e85613721565b905061368f8360008985858961318a565b60008681526065602090815260408083206001600160a01b038b168452909152812080548792906136c190849061409f565b909155505060408051878152602081018790526001600160a01b03808a1692600092918716917fc3d58168c5ae7397731d063d5bbf3d657854427343f4c083240f7aacaa2d0f62910160405180910390a46131818360008989898961376c565b6040805160018082528183019092526060916000919060208083019080368337019050509050828160008151811061375b5761375b6140fe565b602090810291909101015292915050565b6001600160a01b0384163b1561276a576040517ff23a6e610000000000000000000000000000000000000000000000000000000081526001600160a01b0385169063f23a6e61906137c990899089908890889088906004016143df565b6020604051808303816000875af1925050508015613804575060408051601f3d908101601f19168201909252613801918101906142fe565b60015b613810576133bc61431b565b7fffffffff0000000000000000000000000000000000000000000000000000000081167ff23a6e6100000000000000000000000000000000000000000000000000000000146131815760405162461bcd60e51b815260206004820152602860248201527f455243313135353a204552433131353552656365697665722072656a6563746560448201527f6420746f6b656e7300000000000000000000000000000000000000000000000060648201526084016109c8565b6000602082840312156138d957600080fd5b5035919050565b80356001600160a01b03811681146138f757600080fd5b919050565b6000806040838503121561390f57600080fd5b613918836138e0565b946020939093013593505050565b7fffffffff00000000000000000000000000000000000000000000000000000000811681146119ea57600080fd5b60006020828403121561396657600080fd5b8135610cde81613926565b60005b8381101561398c578181015183820152602001613974565b50506000910152565b600081518084526139ad816020860160208601613971565b601f01601f19169290920160200192915050565b602081526000610cde6020830184613995565b600080604083850312156139e757600080fd5b6139f0836138e0565b91506139fe602084016138e0565b90509250929050565b600080600080600080600060e0888a031215613a2257600080fd5b505085359760208701359750604087013596606081013596506080810135955060a0810135945060c0013592509050565b60008060008060808587031215613a6957600080fd5b84359350613a79602086016138e0565b93969395505050506040820135916060013590565b634e487b7160e01b600052604160045260246000fd5b601f19601f830116810181811067ffffffffffffffff82111715613aca57613aca613a8e565b6040525050565b600067ffffffffffffffff821115613aeb57613aeb613a8e565b5060051b60200190565b600082601f830112613b0657600080fd5b81356020613b1382613ad1565b604051613b208282613aa4565b83815260059390931b8501820192828101915086841115613b4057600080fd5b8286015b84811015613b5b5780358352918301918301613b44565b509695505050505050565b600067ffffffffffffffff821115613b8057613b80613a8e565b50601f01601f191660200190565b6000613b9983613b66565b604051613ba68282613aa4565b809250848152858585011115613bbb57600080fd5b8484602083013760006020868301015250509392505050565b600082601f830112613be557600080fd5b610cde83833560208501613b8e565b600080600080600060a08688031215613c0c57600080fd5b613c15866138e0565b9450613c23602087016138e0565b9350604086013567ffffffffffffffff80821115613c4057600080fd5b613c4c89838a01613af5565b94506060880135915080821115613c6257600080fd5b613c6e89838a01613af5565b93506080880135915080821115613c8457600080fd5b50613c9188828901613bd4565b9150509295509295909350565b60008060408385031215613cb157600080fd5b823567ffffffffffffffff80821115613cc957600080fd5b818501915085601f830112613cdd57600080fd5b81356020613cea82613ad1565b604051613cf78282613aa4565b83815260059390931b8501820192828101915089841115613d1757600080fd5b948201945b83861015613d3c57613d2d866138e0565b82529482019490820190613d1c565b96505086013592505080821115613d5257600080fd5b50613d5f85828601613af5565b9150509250929050565b600081518084526020808501945080840160005b83811015613d9957815187529582019590820190600101613d7d565b509495945050505050565b602081526000610cde6020830184613d69565b60008060408385031215613dca57600080fd5b82359150602083013567ffffffffffffffff811115613de857600080fd5b8301601f81018513613df957600080fd5b613d5f85823560208401613b8e565b600080600080600060a08688031215613e2057600080fd5b505083359560208501359550604085013594606081013594506080013592509050565b60008060408385031215613e5657600080fd5b50508035926020909101359150565b600080600060608486031215613e7a57600080fd5b83359250613e8a602085016138e0565b9150604084013590509250925092565b60008060408385031215613ead57600080fd5b613eb6836138e0565b915060208301358015158114613ecb57600080fd5b809150509250929050565b600060208284031215613ee857600080fd5b610cde826138e0565b60008060008060808587031215613f0757600080fd5b5050823594602084013594506040840135936060013592509050565b600080600080600060a08688031215613f3b57600080fd5b613f44866138e0565b9450613f52602087016138e0565b93506040860135925060608601359150608086013567ffffffffffffffff811115613f7c57600080fd5b613c9188828901613bd4565b81518152602080830151610140830191613fac908401826001600160a01b03169052565b5060408301516040830152606083015160608301526080830151608083015260a083015160a083015260c083015160c083015260e083015160e083015261010080840151818401525061012080840151818401525092915050565b60006020828403121561401957600080fd5b815167ffffffffffffffff81111561403057600080fd5b8201601f8101841361404157600080fd5b805161404c81613b66565b6040516140598282613aa4565b82815286602084860101111561406e57600080fd5b61407f836020830160208701613971565b9695505050505050565b634e487b7160e01b600052601160045260246000fd5b808201808211156109f6576109f6614089565b818103818111156109f6576109f6614089565b80820281158282048414176109f6576109f6614089565b6000826140f957634e487b7160e01b600052601260045260246000fd5b500490565b634e487b7160e01b600052603260045260246000fd5b6000600019820361412757614127614089565b5060010190565b600181811c9082168061414257607f821691505b60208210810361416257634e487b7160e01b600052602260045260246000fd5b50919050565b60408152600061417b6040830185613d69565b82810360208401526120188185613d69565b601f821115611dcc57600081815260208120601f850160051c810160208610156141b45750805b601f850160051c820191505b8181101561276a578281556001016141c0565b815167ffffffffffffffff8111156141ed576141ed613a8e565b614201816141fb845461412e565b8461418d565b602080601f831160018114614236576000841561421e5750858301515b600019600386901b1c1916600185901b17855561276a565b600085815260208120601f198616915b8281101561426557888601518255948401946001909101908401614246565b50858210156142835787850151600019600388901b60f8161c191681555b5050505050600190811b01905550565b8281526040602082015260006122a26040830184613995565b60006001600160a01b03808816835280871660208401525060a060408301526142d860a0830186613d69565b82810360608401526142ea8186613d69565b90508281036080840152610d8a8185613995565b60006020828403121561431057600080fd5b8151610cde81613926565b600060033d11156143345760046000803e5060005160e01c5b90565b600060443d10156143455790565b6040517ffffffffffffffffffffffffffffffffffffffffffffffffffffffffffffffffc803d016004833e81513d67ffffffffffffffff816024840111818411171561439357505050505090565b82850191508151818111156143ab5750505050505090565b843d87010160208285010111156143c55750505050505090565b6143d460208286010187613aa4565b509095945050505050565b60006001600160a01b03808816835280871660208401525084604083015283606083015260a0608083015261238660a083018461399556fe4d6f73734875623a206661696c656420746f207472616e736665722063726561746f72206665654d6f73734875623a207472616e736665722066756e6473206261636b206661696c65644d6f73734875623a206661696c656420746f207472616e736665722064657620666565a264697066735822122052ebb2eba515e63f45f88071fe8637005c8657a518262ca36875463df998520b64736f6c63430008130033",
  "libraries": {
    "NFTDescriptor": "0x8f02889d36d01BdF95b3B7B63a32629fc46e643E"
  },
  "devdoc": {
    "events": {
      "ApprovalForAll(address,address,bool)": {
        "details": "Emitted when `account` grants or revokes permission to `operator` to transfer their tokens, according to `approved`."
      },
      "Initialized(uint8)": {
        "details": "Triggered when the contract has been initialized or reinitialized."
      },
      "TransferBatch(address,address,address,uint256[],uint256[])": {
        "details": "Equivalent to multiple {TransferSingle} events, where `operator`, `from` and `to` are the same for all transfers."
      },
      "TransferSingle(address,address,address,uint256,uint256)": {
        "details": "Emitted when `value` tokens of token type `id` are transferred from `from` to `to` by `operator`."
      },
      "URI(string,uint256)": {
        "details": "Emitted when the URI for token type `id` changes to `value`, if it is a non-programmatic URI. If an {URI} event was emitted for `id`, the standard https://eips.ethereum.org/EIPS/eip-1155#metadata-extensions[guarantees] that `value` will equal the value returned by {IERC1155MetadataURI-uri}."
      }
    },
    "kind": "dev",
    "methods": {
      "balanceOf(address,uint256)": {
        "details": "See {IERC1155-balanceOf}. Requirements: - `account` cannot be the zero address."
      },
      "balanceOfBatch(address[],uint256[])": {
        "details": "See {IERC1155-balanceOfBatch}. Requirements: - `accounts` and `ids` must have the same length."
      },
      "isApprovedForAll(address,address)": {
        "details": "See {IERC1155-isApprovedForAll}."
      },
      "safeBatchTransferFrom(address,address,uint256[],uint256[],bytes)": {
        "details": "See {IERC1155-safeBatchTransferFrom}."
      },
      "safeTransferFrom(address,address,uint256,uint256,bytes)": {
        "details": "See {IERC1155-safeTransferFrom}."
      },
      "setApprovalForAll(address,bool)": {
        "details": "See {IERC1155-setApprovalForAll}."
      },
      "supportsInterface(bytes4)": {
        "details": "See {IERC165-supportsInterface}."
      }
    },
    "version": 1
  },
  "userdoc": {
    "kind": "user",
    "methods": {},
    "version": 1
  },
  "storageLayout": {
    "storage": [
      {
        "astId": 6,
        "contract": "contracts/core/MossHub.sol:MossHub",
        "label": "_initialized",
        "offset": 0,
        "slot": "0",
        "type": "t_uint8"
      },
      {
        "astId": 9,
        "contract": "contracts/core/MossHub.sol:MossHub",
        "label": "_initializing",
        "offset": 1,
        "slot": "0",
        "type": "t_bool"
      },
      {
        "astId": 2223,
        "contract": "contracts/core/MossHub.sol:MossHub",
        "label": "__gap",
        "offset": 0,
        "slot": "1",
        "type": "t_array(t_uint256)50_storage"
      },
      {
        "astId": 2267,
        "contract": "contracts/core/MossHub.sol:MossHub",
        "label": "__gap",
        "offset": 0,
        "slot": "51",
        "type": "t_array(t_uint256)50_storage"
      },
      {
        "astId": 281,
        "contract": "contracts/core/MossHub.sol:MossHub",
        "label": "_balances",
        "offset": 0,
        "slot": "101",
        "type": "t_mapping(t_uint256,t_mapping(t_address,t_uint256))"
      },
      {
        "astId": 287,
        "contract": "contracts/core/MossHub.sol:MossHub",
        "label": "_operatorApprovals",
        "offset": 0,
        "slot": "102",
        "type": "t_mapping(t_address,t_mapping(t_address,t_bool))"
      },
      {
        "astId": 289,
        "contract": "contracts/core/MossHub.sol:MossHub",
        "label": "_uri",
        "offset": 0,
        "slot": "103",
        "type": "t_string_storage"
      },
      {
        "astId": 1496,
        "contract": "contracts/core/MossHub.sol:MossHub",
        "label": "__gap",
        "offset": 0,
        "slot": "104",
        "type": "t_array(t_uint256)47_storage"
      },
      {
        "astId": 1685,
        "contract": "contracts/core/MossHub.sol:MossHub",
        "label": "_totalSupply",
        "offset": 0,
        "slot": "151",
        "type": "t_mapping(t_uint256,t_uint256)"
      },
      {
        "astId": 1836,
        "contract": "contracts/core/MossHub.sol:MossHub",
        "label": "__gap",
        "offset": 0,
        "slot": "152",
        "type": "t_array(t_uint256)49_storage"
      },
      {
        "astId": 5329,
        "contract": "contracts/core/MossHub.sol:MossHub",
        "label": "isApprovedDelegate",
        "offset": 0,
        "slot": "201",
        "type": "t_mapping(t_address,t_mapping(t_address,t_bool))"
      },
      {
        "astId": 3587,
        "contract": "contracts/core/MossHub.sol:MossHub",
        "label": "creators",
        "offset": 0,
        "slot": "202",
        "type": "t_mapping(t_uint256,t_address)"
      },
      {
        "astId": 3591,
        "contract": "contracts/core/MossHub.sol:MossHub",
        "label": "stoneNames",
        "offset": 0,
        "slot": "203",
        "type": "t_mapping(t_uint256,t_string_storage)"
      },
      {
        "astId": 182,
        "contract": "contracts/core/MossHub.sol:MossHub",
        "label": "_status",
        "offset": 0,
        "slot": "204",
        "type": "t_uint256"
      },
      {
        "astId": 251,
        "contract": "contracts/core/MossHub.sol:MossHub",
        "label": "__gap",
        "offset": 0,
        "slot": "205",
        "type": "t_array(t_uint256)49_storage"
      },
      {
        "astId": 3824,
        "contract": "contracts/core/MossHub.sol:MossHub",
        "label": "defaultCreatorFeePCT",
        "offset": 0,
        "slot": "254",
        "type": "t_uint64"
      },
      {
        "astId": 3826,
        "contract": "contracts/core/MossHub.sol:MossHub",
        "label": "devFeePCT",
        "offset": 8,
        "slot": "254",
        "type": "t_uint64"
      },
      {
        "astId": 3828,
        "contract": "contracts/core/MossHub.sol:MossHub",
        "label": "dev",
        "offset": 0,
        "slot": "255",
        "type": "t_address"
      },
      {
        "astId": 3830,
        "contract": "contracts/core/MossHub.sol:MossHub",
        "label": "currentId",
        "offset": 0,
        "slot": "256",
        "type": "t_uint256"
      },
      {
        "astId": 3834,
        "contract": "contracts/core/MossHub.sol:MossHub",
        "label": "k",
        "offset": 0,
        "slot": "257",
        "type": "t_mapping(t_uint256,t_uint256)"
      },
      {
        "astId": 3838,
        "contract": "contracts/core/MossHub.sol:MossHub",
        "label": "f",
        "offset": 0,
        "slot": "258",
        "type": "t_mapping(t_uint256,t_uint256)"
      },
      {
        "astId": 3842,
        "contract": "contracts/core/MossHub.sol:MossHub",
        "label": "ifs",
        "offset": 0,
        "slot": "259",
        "type": "t_mapping(t_uint256,t_uint256)"
      },
      {
        "astId": 3846,
        "contract": "contracts/core/MossHub.sol:MossHub",
        "label": "fsIncr",
        "offset": 0,
        "slot": "260",
        "type": "t_mapping(t_uint256,t_uint256)"
      },
      {
        "astId": 3850,
        "contract": "contracts/core/MossHub.sol:MossHub",
        "label": "step",
        "offset": 0,
        "slot": "261",
        "type": "t_mapping(t_uint256,t_uint256)"
      },
      {
        "astId": 3854,
        "contract": "contracts/core/MossHub.sol:MossHub",
        "label": "fsStep",
        "offset": 0,
        "slot": "262",
        "type": "t_mapping(t_uint256,t_uint256)"
      }
    ],
    "types": {
      "t_address": {
        "encoding": "inplace",
        "label": "address",
        "numberOfBytes": "20"
      },
      "t_array(t_uint256)47_storage": {
        "base": "t_uint256",
        "encoding": "inplace",
        "label": "uint256[47]",
        "numberOfBytes": "1504"
      },
      "t_array(t_uint256)49_storage": {
        "base": "t_uint256",
        "encoding": "inplace",
        "label": "uint256[49]",
        "numberOfBytes": "1568"
      },
      "t_array(t_uint256)50_storage": {
        "base": "t_uint256",
        "encoding": "inplace",
        "label": "uint256[50]",
        "numberOfBytes": "1600"
      },
      "t_bool": {
        "encoding": "inplace",
        "label": "bool",
        "numberOfBytes": "1"
      },
      "t_mapping(t_address,t_bool)": {
        "encoding": "mapping",
        "key": "t_address",
        "label": "mapping(address => bool)",
        "numberOfBytes": "32",
        "value": "t_bool"
      },
      "t_mapping(t_address,t_mapping(t_address,t_bool))": {
        "encoding": "mapping",
        "key": "t_address",
        "label": "mapping(address => mapping(address => bool))",
        "numberOfBytes": "32",
        "value": "t_mapping(t_address,t_bool)"
      },
      "t_mapping(t_address,t_uint256)": {
        "encoding": "mapping",
        "key": "t_address",
        "label": "mapping(address => uint256)",
        "numberOfBytes": "32",
        "value": "t_uint256"
      },
      "t_mapping(t_uint256,t_address)": {
        "encoding": "mapping",
        "key": "t_uint256",
        "label": "mapping(uint256 => address)",
        "numberOfBytes": "32",
        "value": "t_address"
      },
      "t_mapping(t_uint256,t_mapping(t_address,t_uint256))": {
        "encoding": "mapping",
        "key": "t_uint256",
        "label": "mapping(uint256 => mapping(address => uint256))",
        "numberOfBytes": "32",
        "value": "t_mapping(t_address,t_uint256)"
      },
      "t_mapping(t_uint256,t_string_storage)": {
        "encoding": "mapping",
        "key": "t_uint256",
        "label": "mapping(uint256 => string)",
        "numberOfBytes": "32",
        "value": "t_string_storage"
      },
      "t_mapping(t_uint256,t_uint256)": {
        "encoding": "mapping",
        "key": "t_uint256",
        "label": "mapping(uint256 => uint256)",
        "numberOfBytes": "32",
        "value": "t_uint256"
      },
      "t_string_storage": {
        "encoding": "bytes",
        "label": "string",
        "numberOfBytes": "32"
      },
      "t_uint256": {
        "encoding": "inplace",
        "label": "uint256",
        "numberOfBytes": "32"
      },
      "t_uint64": {
        "encoding": "inplace",
        "label": "uint64",
        "numberOfBytes": "8"
      },
      "t_uint8": {
        "encoding": "inplace",
        "label": "uint8",
        "numberOfBytes": "1"
      }
    }
  }
}