{
  "address": "0xe9940ACe86b1B857D3a59Ab0C9b09039ba0ad9fa",
  "abi": [
    {
      "anonymous": false,
      "inputs": [
        {
          "indexed": true,
          "internalType": "address",
          "name": "account",
          "type": "address"
        },
        {
          "indexed": true,
          "internalType": "address",
          "name": "operator",
          "type": "address"
        },
        {
          "indexed": false,
          "internalType": "bool",
          "name": "approved",
          "type": "bool"
        }
      ],
      "name": "ApprovalForAll",
      "type": "event"
    },
    {
      "anonymous": false,
      "inputs": [
        {
          "indexed": false,
          "internalType": "address",
          "name": "from",
          "type": "address"
        },
        {
          "indexed": false,
          "internalType": "uint256",
          "name": "id",
          "type": "uint256"
        },
        {
          "indexed": false,
          "internalType": "address",
          "name": "to",
          "type": "address"
        },
        {
          "indexed": false,
          "internalType": "uint256",
          "name": "amount",
          "type": "uint256"
        },
        {
          "indexed": false,
          "internalType": "uint256",
          "name": "value",
          "type": "uint256"
        },
        {
          "indexed": false,
          "internalType": "uint256",
          "name": "creatorFee",
          "type": "uint256"
        },
        {
          "indexed": false,
          "internalType": "uint256",
          "name": "devFee",
          "type": "uint256"
        }
      ],
      "name": "Burnt",
      "type": "event"
    },
    {
      "anonymous": false,
      "inputs": [
        {
          "indexed": false,
          "internalType": "address",
          "name": "from",
          "type": "address"
        },
        {
          "indexed": false,
          "internalType": "uint256",
          "name": "id",
          "type": "uint256"
        },
        {
          "indexed": false,
          "internalType": "uint256",
          "name": "_f",
          "type": "uint256"
        },
        {
          "indexed": false,
          "internalType": "uint256",
          "name": "_fs",
          "type": "uint256"
        },
        {
          "indexed": false,
          "internalType": "uint256",
          "name": "_s",
          "type": "uint256"
        },
        {
          "indexed": false,
          "internalType": "uint256",
          "name": "_tar",
          "type": "uint256"
        },
        {
          "indexed": false,
          "internalType": "uint256",
          "name": "value",
          "type": "uint256"
        },
        {
          "indexed": false,
          "internalType": "uint256",
          "name": "devFee",
          "type": "uint256"
        }
      ],
      "name": "Created",
      "type": "event"
    },
    {
      "anonymous": false,
      "inputs": [
        {
          "indexed": false,
          "internalType": "uint256",
          "name": "id",
          "type": "uint256"
        },
        {
          "indexed": false,
          "internalType": "address",
          "name": "creator",
          "type": "address"
        }
      ],
      "name": "CreatorUpdated",
      "type": "event"
    },
    {
      "anonymous": false,
      "inputs": [
        {
          "indexed": false,
          "internalType": "uint8",
          "name": "version",
          "type": "uint8"
        }
      ],
      "name": "Initialized",
      "type": "event"
    },
    {
      "anonymous": false,
      "inputs": [
        {
          "indexed": false,
          "internalType": "address",
          "name": "from",
          "type": "address"
        },
        {
          "indexed": false,
          "internalType": "uint256",
          "name": "id",
          "type": "uint256"
        },
        {
          "indexed": false,
          "internalType": "address",
          "name": "to",
          "type": "address"
        },
        {
          "indexed": false,
          "internalType": "uint256",
          "name": "amount",
          "type": "uint256"
        },
        {
          "indexed": false,
          "internalType": "uint256",
          "name": "value",
          "type": "uint256"
        },
        {
          "indexed": false,
          "internalType": "uint256",
          "name": "creatorFee",
          "type": "uint256"
        },
        {
          "indexed": false,
          "internalType": "uint256",
          "name": "devFee",
          "type": "uint256"
        }
      ],
      "name": "Minted",
      "type": "event"
    },
    {
      "anonymous": false,
      "inputs": [
        {
          "indexed": false,
          "internalType": "uint256",
          "name": "id",
          "type": "uint256"
        },
        {
          "indexed": false,
          "internalType": "string",
          "name": "name",
          "type": "string"
        }
      ],
      "name": "StoneNameUpdated",
      "type": "event"
    },
    {
      "anonymous": false,
      "inputs": [
        {
          "indexed": true,
          "internalType": "address",
          "name": "operator",
          "type": "address"
        },
        {
          "indexed": true,
          "internalType": "address",
          "name": "from",
          "type": "address"
        },
        {
          "indexed": true,
          "internalType": "address",
          "name": "to",
          "type": "address"
        },
        {
          "indexed": false,
          "internalType": "uint256[]",
          "name": "ids",
          "type": "uint256[]"
        },
        {
          "indexed": false,
          "internalType": "uint256[]",
          "name": "values",
          "type": "uint256[]"
        }
      ],
      "name": "TransferBatch",
      "type": "event"
    },
    {
      "anonymous": false,
      "inputs": [
        {
          "indexed": true,
          "internalType": "address",
          "name": "operator",
          "type": "address"
        },
        {
          "indexed": true,
          "internalType": "address",
          "name": "from",
          "type": "address"
        },
        {
          "indexed": true,
          "internalType": "address",
          "name": "to",
          "type": "address"
        },
        {
          "indexed": false,
          "internalType": "uint256",
          "name": "id",
          "type": "uint256"
        },
        {
          "indexed": false,
          "internalType": "uint256",
          "name": "value",
          "type": "uint256"
        }
      ],
      "name": "TransferSingle",
      "type": "event"
    },
    {
      "anonymous": false,
      "inputs": [
        {
          "indexed": false,
          "internalType": "string",
          "name": "value",
          "type": "string"
        },
        {
          "indexed": true,
          "internalType": "uint256",
          "name": "id",
          "type": "uint256"
        }
      ],
      "name": "URI",
      "type": "event"
    },
    {
      "inputs": [],
      "name": "PRECISIONDECIMALS",
      "outputs": [
        {
          "internalType": "uint64",
          "name": "",
          "type": "uint64"
        }
      ],
      "stateMutability": "view",
      "type": "function"
    },
    {
      "inputs": [
        {
          "internalType": "uint256",
          "name": "_t",
          "type": "uint256"
        },
        {
          "internalType": "uint256",
          "name": "_fs",
          "type": "uint256"
        },
        {
          "internalType": "uint256",
          "name": "_fsStep",
          "type": "uint256"
        },
        {
          "internalType": "uint256",
          "name": "_step",
          "type": "uint256"
        },
        {
          "internalType": "uint256",
          "name": "amount",
          "type": "uint256"
        }
      ],
      "name": "adjustment",
      "outputs": [
        {
          "internalType": "uint256",
          "name": "_fsIncr",
          "type": "uint256"
        }
      ],
      "stateMutability": "pure",
      "type": "function"
    },
    {
      "inputs": [
        {
          "internalType": "address",
          "name": "account",
          "type": "address"
        },
        {
          "internalType": "uint256",
          "name": "id",
          "type": "uint256"
        }
      ],
      "name": "balanceOf",
      "outputs": [
        {
          "internalType": "uint256",
          "name": "",
          "type": "uint256"
        }
      ],
      "stateMutability": "view",
      "type": "function"
    },
    {
      "inputs": [
        {
          "internalType": "address[]",
          "name": "accounts",
          "type": "address[]"
        },
        {
          "internalType": "uint256[]",
          "name": "ids",
          "type": "uint256[]"
        }
      ],
      "name": "balanceOfBatch",
      "outputs": [
        {
          "internalType": "uint256[]",
          "name": "",
          "type": "uint256[]"
        }
      ],
      "stateMutability": "view",
      "type": "function"
    },
    {
      "inputs": [
        {
          "internalType": "uint256",
          "name": "id",
          "type": "uint256"
        },
        {
          "internalType": "address",
          "name": "to",
          "type": "address"
        },
        {
          "internalType": "uint256",
          "name": "amount",
          "type": "uint256"
        },
        {
          "internalType": "uint256",
          "name": "minReceived",
          "type": "uint256"
        }
      ],
      "name": "burn",
      "outputs": [],
      "stateMutability": "nonpayable",
      "type": "function"
    },
    {
      "inputs": [
        {
          "internalType": "uint256",
          "name": "timeoutAt",
          "type": "uint256"
        }
      ],
      "name": "create",
      "outputs": [],
      "stateMutability": "payable",
      "type": "function"
    },
    {
      "inputs": [
        {
          "internalType": "uint256",
          "name": "id",
          "type": "uint256"
        }
      ],
      "name": "creatorOf",
      "outputs": [
        {
          "internalType": "address",
          "name": "",
          "type": "address"
        }
      ],
      "stateMutability": "view",
      "type": "function"
    },
    {
      "inputs": [],
      "name": "defaultCreatorFeePCT",
      "outputs": [
        {
          "internalType": "uint64",
          "name": "",
          "type": "uint64"
        }
      ],
      "stateMutability": "view",
      "type": "function"
    },
    {
      "inputs": [],
      "name": "dev",
      "outputs": [
        {
          "internalType": "address",
          "name": "",
          "type": "address"
        }
      ],
      "stateMutability": "view",
      "type": "function"
    },
    {
      "inputs": [],
      "name": "devFeePCT",
      "outputs": [
        {
          "internalType": "uint64",
          "name": "",
          "type": "uint64"
        }
      ],
      "stateMutability": "view",
      "type": "function"
    },
    {
      "inputs": [
        {
          "internalType": "uint256",
          "name": "_k",
          "type": "uint256"
        },
        {
          "internalType": "uint256",
          "name": "_t",
          "type": "uint256"
        },
        {
          "internalType": "uint256",
          "name": "_fs",
          "type": "uint256"
        },
        {
          "internalType": "uint256",
          "name": "_fsIncr",
          "type": "uint256"
        },
        {
          "internalType": "uint256",
          "name": "_f",
          "type": "uint256"
        },
        {
          "internalType": "uint256",
          "name": "_w",
          "type": "uint256"
        },
        {
          "internalType": "uint256",
          "name": "amount",
          "type": "uint256"
        }
      ],
      "name": "estimateAdjust",
      "outputs": [
        {
          "internalType": "uint256",
          "name": "_floor",
          "type": "uint256"
        }
      ],
      "stateMutability": "pure",
      "type": "function"
    },
    {
      "inputs": [
        {
          "internalType": "uint256",
          "name": "_k",
          "type": "uint256"
        },
        {
          "internalType": "uint256",
          "name": "_t",
          "type": "uint256"
        },
        {
          "internalType": "uint256",
          "name": "_fs",
          "type": "uint256"
        },
        {
          "internalType": "uint256",
          "name": "_f",
          "type": "uint256"
        },
        {
          "internalType": "uint256",
          "name": "amount",
          "type": "uint256"
        }
      ],
      "name": "estimateBurn",
      "outputs": [
        {
          "internalType": "uint256",
          "name": "total",
          "type": "uint256"
        },
        {
          "internalType": "uint256",
          "name": "value",
          "type": "uint256"
        },
        {
          "internalType": "uint256",
          "name": "creatorFee",
          "type": "uint256"
        },
        {
          "internalType": "uint256",
          "name": "devFee",
          "type": "uint256"
        }
      ],
      "stateMutability": "view",
      "type": "function"
    },
    {
      "inputs": [
        {
          "internalType": "uint256",
          "name": "id",
          "type": "uint256"
        },
        {
          "internalType": "uint256",
          "name": "amount",
          "type": "uint256"
        }
      ],
      "name": "estimateBurn",
      "outputs": [
        {
          "internalType": "uint256",
          "name": "total",
          "type": "uint256"
        },
        {
          "internalType": "uint256",
          "name": "value",
          "type": "uint256"
        },
        {
          "internalType": "uint256",
          "name": "creatorFee",
          "type": "uint256"
        },
        {
          "internalType": "uint256",
          "name": "devFee",
          "type": "uint256"
        }
      ],
      "stateMutability": "view",
      "type": "function"
    },
    {
      "inputs": [
        {
          "internalType": "uint256",
          "name": "id",
          "type": "uint256"
        },
        {
          "internalType": "uint256",
          "name": "amount",
          "type": "uint256"
        }
      ],
      "name": "estimateMint",
      "outputs": [
        {
          "internalType": "uint256",
          "name": "total",
          "type": "uint256"
        },
        {
          "internalType": "uint256",
          "name": "value",
          "type": "uint256"
        },
        {
          "internalType": "uint256",
          "name": "creatorFee",
          "type": "uint256"
        },
        {
          "internalType": "uint256",
          "name": "devFee",
          "type": "uint256"
        }
      ],
      "stateMutability": "view",
      "type": "function"
    },
    {
      "inputs": [
        {
          "internalType": "uint256",
          "name": "_k",
          "type": "uint256"
        },
        {
          "internalType": "uint256",
          "name": "_t",
          "type": "uint256"
        },
        {
          "internalType": "uint256",
          "name": "_fs",
          "type": "uint256"
        },
        {
          "internalType": "uint256",
          "name": "_f",
          "type": "uint256"
        },
        {
          "internalType": "uint256",
          "name": "amount",
          "type": "uint256"
        }
      ],
      "name": "estimateMint",
      "outputs": [
        {
          "internalType": "uint256",
          "name": "total",
          "type": "uint256"
        },
        {
          "internalType": "uint256",
          "name": "value",
          "type": "uint256"
        },
        {
          "internalType": "uint256",
          "name": "creatorFee",
          "type": "uint256"
        },
        {
          "internalType": "uint256",
          "name": "devFee",
          "type": "uint256"
        }
      ],
      "stateMutability": "view",
      "type": "function"
    },
    {
      "inputs": [
        {
          "internalType": "uint256",
          "name": "id",
          "type": "uint256"
        }
      ],
      "name": "exists",
      "outputs": [
        {
          "internalType": "bool",
          "name": "",
          "type": "bool"
        }
      ],
      "stateMutability": "view",
      "type": "function"
    },
    {
      "inputs": [
        {
          "internalType": "uint256",
          "name": "id",
          "type": "uint256"
        }
      ],
      "name": "floor",
      "outputs": [
        {
          "internalType": "uint256",
          "name": "",
          "type": "uint256"
        }
      ],
      "stateMutability": "view",
      "type": "function"
    },
    {
      "inputs": [
        {
          "internalType": "uint256",
          "name": "id",
          "type": "uint256"
        }
      ],
      "name": "floorSupply",
      "outputs": [
        {
          "internalType": "uint256",
          "name": "",
          "type": "uint256"
        }
      ],
      "stateMutability": "view",
      "type": "function"
    },
    {
      "inputs": [
        {
          "internalType": "uint256",
          "name": "",
          "type": "uint256"
        }
      ],
      "name": "fsIncr",
      "outputs": [
        {
          "internalType": "uint256",
          "name": "",
          "type": "uint256"
        }
      ],
      "stateMutability": "view",
      "type": "function"
    },
    {
      "inputs": [
        {
          "internalType": "uint256",
          "name": "id",
          "type": "uint256"
        }
      ],
      "name": "fsStepOf",
      "outputs": [
        {
          "internalType": "uint256",
          "name": "",
          "type": "uint256"
        }
      ],
      "stateMutability": "view",
      "type": "function"
    },
    {
      "inputs": [
        {
          "internalType": "uint256",
          "name": "",
          "type": "uint256"
        }
      ],
      "name": "ifs",
      "outputs": [
        {
          "internalType": "uint256",
          "name": "",
          "type": "uint256"
        }
      ],
      "stateMutability": "view",
      "type": "function"
    },
    {
      "inputs": [
        {
          "internalType": "address",
          "name": "_dev",
          "type": "address"
        }
      ],
      "name": "initialize",
      "outputs": [],
      "stateMutability": "nonpayable",
      "type": "function"
    },
    {
      "inputs": [
        {
          "internalType": "address",
          "name": "",
          "type": "address"
        },
        {
          "internalType": "address",
          "name": "",
          "type": "address"
        }
      ],
      "name": "isApprovedDelegate",
      "outputs": [
        {
          "internalType": "bool",
          "name": "",
          "type": "bool"
        }
      ],
      "stateMutability": "view",
      "type": "function"
    },
    {
      "inputs": [
        {
          "internalType": "address",
          "name": "account",
          "type": "address"
        },
        {
          "internalType": "address",
          "name": "operator",
          "type": "address"
        }
      ],
      "name": "isApprovedForAll",
      "outputs": [
        {
          "internalType": "bool",
          "name": "",
          "type": "bool"
        }
      ],
      "stateMutability": "view",
      "type": "function"
    },
    {
      "inputs": [
        {
          "internalType": "uint256",
          "name": "",
          "type": "uint256"
        }
      ],
      "name": "k",
      "outputs": [
        {
          "internalType": "uint256",
          "name": "",
          "type": "uint256"
        }
      ],
      "stateMutability": "view",
      "type": "function"
    },
    {
      "inputs": [],
      "name": "minFloor",
      "outputs": [
        {
          "internalType": "uint64",
          "name": "",
          "type": "uint64"
        }
      ],
      "stateMutability": "view",
      "type": "function"
    },
    {
      "inputs": [
        {
          "internalType": "uint256",
          "name": "id",
          "type": "uint256"
        },
        {
          "internalType": "address",
          "name": "to",
          "type": "address"
        },
        {
          "internalType": "uint256",
          "name": "amount",
          "type": "uint256"
        }
      ],
      "name": "mint",
      "outputs": [],
      "stateMutability": "payable",
      "type": "function"
    },
    {
      "inputs": [
        {
          "internalType": "uint256",
          "name": "id",
          "type": "uint256"
        }
      ],
      "name": "nextFloor",
      "outputs": [
        {
          "internalType": "uint256",
          "name": "",
          "type": "uint256"
        }
      ],
      "stateMutability": "view",
      "type": "function"
    },
    {
      "inputs": [
        {
          "internalType": "address",
          "name": "from",
          "type": "address"
        },
        {
          "internalType": "address",
          "name": "to",
          "type": "address"
        },
        {
          "internalType": "uint256[]",
          "name": "ids",
          "type": "uint256[]"
        },
        {
          "internalType": "uint256[]",
          "name": "amounts",
          "type": "uint256[]"
        },
        {
          "internalType": "bytes",
          "name": "data",
          "type": "bytes"
        }
      ],
      "name": "safeBatchTransferFrom",
      "outputs": [],
      "stateMutability": "nonpayable",
      "type": "function"
    },
    {
      "inputs": [
        {
          "internalType": "address",
          "name": "from",
          "type": "address"
        },
        {
          "internalType": "address",
          "name": "to",
          "type": "address"
        },
        {
          "internalType": "uint256",
          "name": "id",
          "type": "uint256"
        },
        {
          "internalType": "uint256",
          "name": "amount",
          "type": "uint256"
        },
        {
          "internalType": "bytes",
          "name": "data",
          "type": "bytes"
        }
      ],
      "name": "safeTransferFrom",
      "outputs": [],
      "stateMutability": "nonpayable",
      "type": "function"
    },
    {
      "inputs": [
        {
          "internalType": "address",
          "name": "operator",
          "type": "address"
        },
        {
          "internalType": "bool",
          "name": "approved",
          "type": "bool"
        }
      ],
      "name": "setApprovalForAll",
      "outputs": [],
      "stateMutability": "nonpayable",
      "type": "function"
    },
    {
      "inputs": [
        {
          "internalType": "address",
          "name": "_delegate",
          "type": "address"
        },
        {
          "internalType": "bool",
          "name": "_isApproved",
          "type": "bool"
        }
      ],
      "name": "setDelegateApproval",
      "outputs": [],
      "stateMutability": "nonpayable",
      "type": "function"
    },
    {
      "inputs": [
        {
          "internalType": "uint256",
          "name": "id",
          "type": "uint256"
        }
      ],
      "name": "stepment",
      "outputs": [
        {
          "internalType": "uint256",
          "name": "",
          "type": "uint256"
        }
      ],
      "stateMutability": "view",
      "type": "function"
    },
    {
      "inputs": [
        {
          "internalType": "uint256",
          "name": "id",
          "type": "uint256"
        }
      ],
      "name": "stoneNameOf",
      "outputs": [
        {
          "internalType": "string",
          "name": "",
          "type": "string"
        }
      ],
      "stateMutability": "view",
      "type": "function"
    },
    {
      "inputs": [
        {
          "internalType": "bytes4",
          "name": "interfaceId",
          "type": "bytes4"
        }
      ],
      "name": "supportsInterface",
      "outputs": [
        {
          "internalType": "bool",
          "name": "",
          "type": "bool"
        }
      ],
      "stateMutability": "view",
      "type": "function"
    },
    {
      "inputs": [
        {
          "internalType": "uint256",
          "name": "id",
          "type": "uint256"
        }
      ],
      "name": "targetSupply",
      "outputs": [
        {
          "internalType": "uint256",
          "name": "",
          "type": "uint256"
        }
      ],
      "stateMutability": "view",
      "type": "function"
    },
    {
      "inputs": [
        {
          "internalType": "uint256",
          "name": "id",
          "type": "uint256"
        }
      ],
      "name": "totalSupply",
      "outputs": [
        {
          "internalType": "uint256",
          "name": "",
          "type": "uint256"
        }
      ],
      "stateMutability": "view",
      "type": "function"
    },
    {
      "inputs": [
        {
          "internalType": "address",
          "name": "newDev",
          "type": "address"
        }
      ],
      "name": "transferDev",
      "outputs": [],
      "stateMutability": "nonpayable",
      "type": "function"
    },
    {
      "inputs": [
        {
          "internalType": "uint256",
          "name": "id",
          "type": "uint256"
        },
        {
          "internalType": "string",
          "name": "stoneName",
          "type": "string"
        }
      ],
      "name": "updateStoneName",
      "outputs": [],
      "stateMutability": "nonpayable",
      "type": "function"
    },
    {
      "inputs": [
        {
          "internalType": "uint256",
          "name": "id",
          "type": "uint256"
        }
      ],
      "name": "uri",
      "outputs": [
        {
          "internalType": "string",
          "name": "",
          "type": "string"
        }
      ],
      "stateMutability": "view",
      "type": "function"
    },
    {
      "inputs": [
        {
          "internalType": "uint256",
          "name": "_k",
          "type": "uint256"
        },
        {
          "internalType": "uint256",
          "name": "_t",
          "type": "uint256"
        },
        {
          "internalType": "uint256",
          "name": "_fs",
          "type": "uint256"
        },
        {
          "internalType": "uint256",
          "name": "_f",
          "type": "uint256"
        }
      ],
      "name": "worth",
      "outputs": [
        {
          "internalType": "uint256",
          "name": "",
          "type": "uint256"
        }
      ],
      "stateMutability": "pure",
      "type": "function"
    },
    {
      "inputs": [
        {
          "internalType": "uint256",
          "name": "id",
          "type": "uint256"
        }
      ],
      "name": "worthOf",
      "outputs": [
        {
          "internalType": "uint256",
          "name": "",
          "type": "uint256"
        }
      ],
      "stateMutability": "view",
      "type": "function"
    },
    {
      "stateMutability": "payable",
      "type": "receive"
    }
  ],
  "transactionHash": "0x7b163e33372cc8312af5fa73aae3ad0133e91262c304ca3298dcb8dabbfb2353",
  "args": [],
  "numDeployments": 3,
  "solcInputHash": "88a33188e95b90c40af35fd1f21922b2",
  "bytecode": "0x608060405234801561001057600080fd5b50614558806100206000396000f3fe6080604052600436106102d35760003560e01c806371fc76f511610179578063bd85b039116100d6578063cdb9c4eb1161008a578063f213edda11610064578063f213edda14610919578063f242432a14610939578063f740fd341461095957600080fd5b8063cdb9c4eb1461088f578063e2e1b890146108b0578063e985e9c5146108d057600080fd5b8063c4d66de8116100bb578063c4d66de81461082f578063c5464eb41461084f578063c79ab6a21461086f57600080fd5b8063bd85b039146107bc578063c3c854b6146107dc57600080fd5b8063836a10401161012d57806391cca3db1161011257806391cca3db1461075c578063936906f11461077c578063a22cb4651461079c57600080fd5b8063836a10401461071b5780638d6a84941461072e57600080fd5b8063780900dc1161015e578063780900dc146106ba5780637ab58add146106cd578063810c3738146106fb57600080fd5b806371fc76f51461067a57806375e583e61461069a57600080fd5b80632eb2c2d6116102325780634f558e79116101e6578063504f5e56116101c0578063504f5e56146105be578063589a1743146105ec57806361c44d601461063a57600080fd5b80634f558e7914610565578063503e0a9814610585578063504d95781461059e57600080fd5b806343a54a0c1161021757806343a54a0c146104ee578063443ddba21461050a5780634e1273f41461053857600080fd5b80632eb2c2d6146104ae578063332ca4f2146104ce57600080fd5b8063129678941161028957806321a72a421161026e57806321a72a421461042657806327fc36371461044657806329bff6901461046857600080fd5b806312967894146103cb5780631930e825146103eb57600080fd5b806301ffc9a7116102ba57806301ffc9a71461034057806309501e66146103705780630e89341c1461039e57600080fd5b8062d92e39146102df578062fdd58e1461032057600080fd5b366102da57005b600080fd5b3480156102eb57600080fd5b5061030d6102fa366004613965565b6000908152610105602052604090205490565b6040519081526020015b60405180910390f35b34801561032c57600080fd5b5061030d61033b36600461399a565b610979565b34801561034c57600080fd5b5061036061035b3660046139f2565b610a27565b6040519015158152602001610317565b34801561037c57600080fd5b5061030d61038b366004613965565b6000908152610106602052604090205490565b3480156103aa57600080fd5b506103be6103b9366004613965565b610b0a565b6040516103179190613a5f565b3480156103d757600080fd5b5061030d6103e6366004613965565b610d10565b3480156103f757600080fd5b50610360610406366004613a72565b60c960209081526000928352604080842090915290825290205460ff1681565b34801561043257600080fd5b5061030d610441366004613aa5565b610dc1565b34801561045257600080fd5b50610466610461366004613af1565b610f34565b005b34801561047457600080fd5b5060fe546104959068010000000000000000900467ffffffffffffffff1681565b60405167ffffffffffffffff9091168152602001610317565b3480156104ba57600080fd5b506104666104c9366004613c92565b6112fd565b3480156104da57600080fd5b506104666104e9366004613d3c565b61139f565b3480156104fa57600080fd5b50610495670de0b6b3a764000081565b34801561051657600080fd5b5061030d610525366004613965565b6101016020526000908152604090205481565b34801561054457600080fd5b50610558610553366004613d57565b611428565b6040516103179190613e5d565b34801561057157600080fd5b50610360610580366004613965565b611566565b34801561059157600080fd5b5061049564e8d4a5100081565b3480156105aa57600080fd5b506104666105b9366004613e70565b61157c565b3480156105ca57600080fd5b5061030d6105d9366004613965565b6000908152610102602052604090205490565b3480156105f857600080fd5b50610622610607366004613965565b600090815260ca60205260409020546001600160a01b031690565b6040516001600160a01b039091168152602001610317565b34801561064657600080fd5b5061065a610655366004613ec1565b61161d565b604080519485526020850193909352918301526060820152608001610317565b34801561068657600080fd5b5061065a610695366004613efc565b61183b565b3480156106a657600080fd5b5061065a6106b5366004613efc565b61195e565b6104666106c8366004613965565b611a20565b3480156106d957600080fd5b5061030d6106e8366004613965565b6101046020526000908152604090205481565b34801561070757600080fd5b5061030d610716366004613965565b611aa1565b610466610729366004613f1e565b611ac7565b34801561073a57600080fd5b5061030d610749366004613965565b6101036020526000908152604090205481565b34801561076857600080fd5b5060ff54610622906001600160a01b031681565b34801561078857600080fd5b5061030d610797366004613965565b611e85565b3480156107a857600080fd5b506104666107b7366004613f53565b611ee7565b3480156107c857600080fd5b5061030d6107d7366004613965565b611ef6565b3480156107e857600080fd5b506104666107f7366004613f53565b33600090815260c9602090815260408083206001600160a01b0395909516835293905291909120805460ff1916911515919091179055565b34801561083b57600080fd5b5061046661084a366004613d3c565b611f01565b34801561085b57600080fd5b5061030d61086a366004613965565b61207b565b34801561087b57600080fd5b5061065a61088a366004613ec1565b6120ca565b34801561089b57600080fd5b5060fe546104959067ffffffffffffffff1681565b3480156108bc57600080fd5b506103be6108cb366004613965565b612248565b3480156108dc57600080fd5b506103606108eb366004613a72565b6001600160a01b03918216600090815260666020908152604080832093909416825291909152205460ff1690565b34801561092557600080fd5b5061030d610934366004613f8f565b6122ea565b34801561094557600080fd5b50610466610954366004613fc1565b612353565b34801561096557600080fd5b5061030d610974366004613ec1565b6123ee565b60006001600160a01b0383166109fc5760405162461bcd60e51b815260206004820152602a60248201527f455243313135353a2061646472657373207a65726f206973206e6f742061207660448201527f616c6964206f776e65720000000000000000000000000000000000000000000060648201526084015b60405180910390fd5b5060008181526065602090815260408083206001600160a01b03861684529091529020545b92915050565b60007fffffffff0000000000000000000000000000000000000000000000000000000082167fd9b67a26000000000000000000000000000000000000000000000000000000001480610aba57507fffffffff0000000000000000000000000000000000000000000000000000000082167f0e89341c00000000000000000000000000000000000000000000000000000000145b80610a2157507f01ffc9a7000000000000000000000000000000000000000000000000000000007fffffffff00000000000000000000000000000000000000000000000000000000831614610a21565b6060610b6b6040518061014001604052806000815260200160006001600160a01b0316815260200160008152602001600081526020016000815260200160008152602001600081526020016000815260200160008152602001600081525090565b828152600083815261010160209081526040808320548185015285835260ca8252808320546001600160a01b0316828501528583526101029091529020546060820152610bb783611aa1565b6080820152610bc583611ef6565b60a0820152610bd383611e85565b60c08201526000838152610101602052604090205460a082015160808301516060840151610c03939291906122ea565b6101208201526000838152610101602052604090205460a082015160808301516060840151610c369392919060016120ca565b505060e0830152506000838152610101602052604090205460a082015160808301516060840151610c6b93929190600161161d565b5050610100830152506040517f2a5a1a14000000000000000000000000000000000000000000000000000000008152736Eb2E3b63Df577401eE6f926fFD30580021FE22290632a5a1a1490610cc4908490600401614026565b600060405180830381865af4158015610ce1573d6000803e3d6000fd5b505050506040513d6000823e601f3d908101601f19168201604052610d0991908101906140a5565b9392505050565b6000818152610101602052604081205481610d2a84611e85565b90506000610d3785611aa1565b60008681526101026020526040812054919250610d56858585856122ea565b60008881526101036020908152604080832054610106835281842054610105909352908320549394509192610d8f9288929091856123ee565b9050610db5868661010360008c8152602001908152602001600020548487876000610dc1565b98975050505050505050565b600080610dce868861413d565b905080610ddb848a61413d565b11610e4e5760405162461bcd60e51b815260206004820152602960248201527f4d6f73734875623a20666c6f6f7220737570706c792069732067746520746f7460448201527f616c20737570706c79000000000000000000000000000000000000000000000060648201526084016109f3565b600081610e5b858b61413d565b610e659190614150565b9050610e71848a61413d565b610e7c906002614163565b81610e87818d614163565b610e919190614163565b610e9c876002614163565b610ea69190614150565b610eb0919061417a565b9250858311610f275760405162461bcd60e51b815260206004820152603960248201527f4d6f73734875623a2061646a757374656420666c6f6f7220707269636520697360448201527f206c7465206f726967696e616c20666c6f6f722070726963650000000000000060648201526084016109f3565b5050979650505050505050565b610f3c61243a565b610f4584611566565b610f915760405162461bcd60e51b815260206004820152601a60248201527f4d6f73734875623a206e6f6e6578736974656e7420746f6b656e00000000000060448201526064016109f3565b600082116110075760405162461bcd60e51b815260206004820152602660248201527f4d6f73734875623a20616d6f756e74206d75737420626520677265617465722060448201527f7468616e2030000000000000000000000000000000000000000000000000000060648201526084016109f3565b600061101285611ef6565b9050828110156110645760405162461bcd60e51b815260206004820181905260248201527f4d6f73734875623a20746f6f206d75636820616d6f756e7420746f206275726e60448201526064016109f3565b60408051610100810182528681526000878152610101602090815283822054908301529181018390526060810161109a88611aa1565b81526020016110b6886000908152610102602052604090205490565b81526020016110d2886000908152610105602052604090205490565b8152602001858152602001866001600160a01b0316815250905060008060008061111385602001518660400151876060015188608001518960c0015161161d565b9350935093509350868410156111b75760405162461bcd60e51b815260206004820152604960248201527f4d6f73734875623a2072656365697665642076616c7565206d7573742062652060448201527f67726561746572207468616e206f7220657175616c20746f206d696e696d756d60648201527f2072656365697665640000000000000000000000000000000000000000000000608482015260a4016109f3565b6111ca3386600001518760c00151612493565b61120a89856040518060400160405280601e81526020017f4d6f73734875623a207472616e736665722076616c7565206661696c656400008152506124f6565b60ff546040805160608101909152602380825261123a926001600160a01b031691849161450060208301396124f6565b8451600090815260ca6020526040902054611278906001600160a01b03165b836040518060600160405280602781526020016144b6602791396124f6565b845160e08087015160c0808901516040805133815260208101969096526001600160a01b039093168584015260608501526080840187905260a084018690528301849052517f63b3cda962e4a1210ab73053c3af0163312c753575551b8c9d04906ec6e0ff679281900390910190a15050505050506112f7600160cc55565b50505050565b6001600160a01b038516331480611319575061131985336108eb565b61138b5760405162461bcd60e51b815260206004820152602e60248201527f455243313135353a2063616c6c6572206973206e6f7420746f6b656e206f776e60448201527f6572206f7220617070726f76656400000000000000000000000000000000000060648201526084016109f3565b611398858585858561256c565b5050505050565b60ff546001600160a01b031633146113f95760405162461bcd60e51b815260206004820152601a60248201527f4d6f73734875623a2063616c6c6572206973206e6f742064657600000000000060448201526064016109f3565b60ff805473ffffffffffffffffffffffffffffffffffffffff19166001600160a01b0392909216919091179055565b606081518351146114a15760405162461bcd60e51b815260206004820152602960248201527f455243313135353a206163636f756e747320616e6420696473206c656e67746860448201527f206d69736d61746368000000000000000000000000000000000000000000000060648201526084016109f3565b6000835167ffffffffffffffff8111156114bd576114bd613b2c565b6040519080825280602002602001820160405280156114e6578160200160208202803683370190505b50905060005b845181101561155e5761153185828151811061150a5761150a61419c565b60200260200101518583815181106115245761152461419c565b6020026020010151610979565b8282815181106115435761154361419c565b6020908102919091010152611557816141b2565b90506114ec565b509392505050565b6000818152609760205260408120541515610a21565b600082815260ca602052604090205482906001600160a01b0316338114806115c757506001600160a01b038116600090815260c96020908152604080832033845290915290205460ff165b6116135760405162461bcd60e51b815260206004820152601b60248201527f4d6f73733a2044656c6567617465206e6f7420617070726f766564000000000060448201526064016109f3565b6112f7848461281b565b600080600080848810156116bf5760405162461bcd60e51b815260206004820152604260248201527f4d6f73734875623a206275726e696e6720616d6f756e74206d7573742062652060448201527f6c657373207468616e206f7220657175616c20746f20746f74616c207375707060648201527f6c79000000000000000000000000000000000000000000000000000000000000608482015260a4016109f3565b8688116116d7576116d08587614163565b92506117b1565b866116e2868a614150565b11156117475760026116f48882614163565b866117008b6002614163565b61170a9190614150565b6117149190614150565b61171e908b614163565b611729886002614163565b611733919061413d565b61173d9087614163565b6116d0919061417a565b6000611753888a614150565b905060006117618288614150565b9050600261176f838d614163565b61177a8a6002614163565b611784919061413d565b61178e9084614163565b611798919061417a565b6117a2828a614163565b6117ac919061413d565b945050505b60fe54670de0b6b3a7640000906117d29067ffffffffffffffff1685614163565b6117dc919061417a565b60fe54909250670de0b6b3a76400009061180c9068010000000000000000900467ffffffffffffffff1685614163565b611816919061417a565b9050806118238385614150565b61182d9190614150565b935095509550955095915050565b60008080808061186087600090815260ca60205260409020546001600160a01b031690565b6001600160a01b0316036118b65760405162461bcd60e51b815260206004820152601d60248201527f4d6f73734875623a20746f6b656e206973206e6f74206372656174656400000060448201526064016109f3565b60008681526101016020526040812054906118d088611ef6565b905060006118dd89611aa1565b60008a815261010260205260409020549091508061193d5760405162461bcd60e51b815260206004820152601960248201527f4d6f73734875623a207a65726f20666c6f6f722070726963650000000000000060448201526064016109f3565b61194a848484848d6120ca565b929d919c509a509098509650505050505050565b60008080808061198387600090815260ca60205260409020546001600160a01b031690565b6001600160a01b0316036119d95760405162461bcd60e51b815260206004820152601d60248201527f4d6f73734875623a20746f6b656e206973206e6f74206372656174656400000060448201526064016109f3565b60008681526101016020526040812054906119f388611ef6565b90506000611a0089611aa1565b60008a8152610102602052604090205490915061194a848484848d61161d565b611a2861243a565b804210611a775760405162461bcd60e51b815260206004820152601360248201527f4d6f73734875623a2074782074696d656f75740000000000000000000000000060448201526064016109f3565b611a9466038d7ea4c68000655af3107a40006001600a6002612865565b611a9e600160cc55565b50565b60008181526101046020908152604080832054610103909252822054610a21919061413d565b611acf61243a565b60008111611b455760405162461bcd60e51b815260206004820152602660248201527f4d6f73734875623a20616d6f756e74206d75737420626520677265617465722060448201527f7468616e2030000000000000000000000000000000000000000000000000000060648201526084016109f3565b6040805161010081018252848152600085815261010160209081528382205490830152918101611b7486611ef6565b8152602001611b8286611aa1565b8152602001611b9e866000908152610102602052604090205490565b8152602001611bba866000908152610105602052604090205490565b8152602001838152602001846001600160a01b03168152509050600080600080611bfb85602001518660400151876060015188608001518960c001516120ca565b935093509350935083341015611c795760405162461bcd60e51b815260206004820152602360248201527f4d6f73734875623a20696e73756666696369656e742066756e647320746f206d60448201527f696e74000000000000000000000000000000000000000000000000000000000060648201526084016109f3565b83341115611cad57611cad33611c8f8634614150565b6040518060600160405280602381526020016144dd602391396124f6565b60ff5460408051606081019091526023808252611cdd926001600160a01b031691849161450060208301396124f6565b8451600090815260ca6020526040902054611d00906001600160a01b0316611259565b60408086015186516000908152610103602090815283822054895183526101069091529281205460a089015160c08a01519294611d419493909291906123ee565b90506000611d618760200151886040015189606001518a608001516122ea565b875160009081526101046020526040902054909150821115611de95760008a815261010160209081526040808320548a8201518b51855261010390935292205460808a0151611dc3939291908690611db98b8861413d565b8d60c00151610dc1565b875160009081526101026020908152604080832093909355895182526101049052208290555b611e008760e0015188600001518960c00151612ccf565b865160e08089015160c0808b01516040805133815260208101969096526001600160a01b03909316858401526060850152608084018a905260a084018890528301869052517fdcaf588f09c2b7600db130d5b5166c2c3eecdb321c81cdaba0921b1205d9888f9281900390910190a150505050505050611e80600160cc55565b505050565b600081815261010560209081526040808320546101068352818420546101049093529083205490918291611eb9919061417a565b611ec39190614163565b60008481526101036020526040902054611edd919061413d565b610a21919061413d565b611ef2338383612d77565b5050565b6000610a2182612e6b565b600054610100900460ff1615808015611f215750600054600160ff909116105b80611f3b5750303b158015611f3b575060005460ff166001145b611fad5760405162461bcd60e51b815260206004820152602e60248201527f496e697469616c697a61626c653a20636f6e747261637420697320616c72656160448201527f647920696e697469616c697a656400000000000000000000000000000000000060648201526084016109f3565b6000805460ff191660011790558015611fd0576000805461ff0019166101001790555b60ff805473ffffffffffffffffffffffffffffffffffffffff19166001600160a01b03841617905560fe80547fffffffffffffffffffffffffffffffff00000000000000000000000000000000166e58d15e176280000058d15e176280001790558015611ef2576000805461ff0019169055604051600181527f7f26b83ff96e1f2b6a682f133852f6798a09c465da95921460cefb3847402498906020015b60405180910390a15050565b60008061208783611ef6565b9050600061209484611aa1565b6000858152610102602090815260408083205461010190925290912054919250906120c1908484846122ea565b95945050505050565b6000808080866120da868a61413d565b116120f0576120e98587614163565b92506121cc565b868811156121575760026121048882614163565b866121108b6002614163565b61211a919061413d565b6121249190614150565b61212e908b614163565b612139886002614163565b612143919061413d565b61214d9087614163565b6120e9919061417a565b60006121638989614150565b9050600088612172888c61413d565b61217c9190614150565b9050600261218a828d614163565b6121958a6002614163565b61219f919061413d565b6121a99083614163565b6121b3919061417a565b6121bd838a614163565b6121c7919061413d565b945050505b60fe54670de0b6b3a7640000906121ed9067ffffffffffffffff1685614163565b6121f7919061417a565b60fe54909250670de0b6b3a7640000906122279068010000000000000000900467ffffffffffffffff1685614163565b612231919061417a565b90508061223e838561413d565b61182d919061413d565b600081815260cb60205260409020805460609190612265906141cc565b80601f0160208091040260200160405190810160405280929190818152602001828054612291906141cc565b80156122de5780601f106122b3576101008083540402835291602001916122de565b820191906000526020600020905b8154815290600101906020018083116122c157829003601f168201915b50505050509050919050565b6000828411612304576122fd8483614163565b905061234b565b60006123108486614150565b905060028161231f8189614163565b6123299190614163565b612333919061417a565b61233d8685614163565b612347919061413d565b9150505b949350505050565b6001600160a01b03851633148061236f575061236f85336108eb565b6123e15760405162461bcd60e51b815260206004820152602e60248201527f455243313135353a2063616c6c6572206973206e6f7420746f6b656e206f776e60448201527f6572206f7220617070726f76656400000000000000000000000000000000000060648201526084016109f3565b6113988585858585612e7f565b6000846123fb838861413d565b11156120c1576000838661240f858a61413d565b6124199190614150565b612423919061417a565b905061242f8582614163565b979650505050505050565b600260cc540361248c5760405162461bcd60e51b815260206004820152601f60248201527f5265656e7472616e637947756172643a207265656e7472616e742063616c6c0060448201526064016109f3565b600260cc55565b61249e838383613067565b60006124a983611ef6565b1115611e8057817f6bb7ff708619ba0610cba295a58592e0451dee2622938c8755667688daf3529b6040516124e990602080825260009082015260400190565b60405180910390a2505050565b6000836001600160a01b03168360405160006040518083038185875af1925050503d8060008114612543576040519150601f19603f3d011682016040523d82523d6000602084013e612548565b606091505b505090508082906113985760405162461bcd60e51b81526004016109f39190613a5f565b81518351146125e35760405162461bcd60e51b815260206004820152602860248201527f455243313135353a2069647320616e6420616d6f756e7473206c656e6774682060448201527f6d69736d6174636800000000000000000000000000000000000000000000000060648201526084016109f3565b6001600160a01b03841661265f5760405162461bcd60e51b815260206004820152602560248201527f455243313135353a207472616e7366657220746f20746865207a65726f20616460448201527f647265737300000000000000000000000000000000000000000000000000000060648201526084016109f3565b3361266e818787878787613233565b60005b84518110156127ad57600085828151811061268e5761268e61419c565b6020026020010151905060008583815181106126ac576126ac61419c565b60209081029190910181015160008481526065835260408082206001600160a01b038e1683529093529190912054909150818110156127535760405162461bcd60e51b815260206004820152602a60248201527f455243313135353a20696e73756666696369656e742062616c616e636520666f60448201527f72207472616e736665720000000000000000000000000000000000000000000060648201526084016109f3565b60008381526065602090815260408083206001600160a01b038e8116855292528083208585039055908b1682528120805484929061279290849061413d565b92505081905550505050806127a6906141b2565b9050612671565b50846001600160a01b0316866001600160a01b0316826001600160a01b03167f4a39dc06d4c0dbc64b70af90fd698a233a518aa5d07e595d983b8c0526c8f7fb87876040516127fd929190614206565b60405180910390a46128138187878787876133c1565b505050505050565b600082815260cb602052604090206128338282614271565b507f9881d3fc43c7ddce9f432f1abbb2720b9aa58489a32de89d7269df1807ac4d96828260405161206f929190614331565b6101005464e8d4a510008510156128e45760405162461bcd60e51b815260206004820152603d60248201527f4d6f73734875623a20666c6f6f72206d7573742062652067726561746572207460448201527f68616e206f7220657175616c20746f206d696e696d756d20666c6f6f7200000060648201526084016109f3565b6000841161295a5760405162461bcd60e51b815260206004820152602f60248201527f4d6f73734875623a20666c6f6f7220737570706c79206d75737420626520677260448201527f6561746572207468616e207a65726f000000000000000000000000000000000060648201526084016109f3565b600083116129cf5760405162461bcd60e51b8152602060048201526024808201527f4d6f73734875623a2073746570206d7573742067726561746572207468616e2060448201527f7a65726f0000000000000000000000000000000000000000000000000000000060648201526084016109f3565b60008211612a455760405162461bcd60e51b815260206004820152602660248201527f4d6f73734875623a20667353746570206d75737420677265617465722074686160448201527f6e207a65726f000000000000000000000000000000000000000000000000000060648201526084016109f3565b612a5060058461417a565b821115612ac55760405162461bcd60e51b815260206004820152602960248201527f4d6f73734875623a20667353746570206d757374206265206c6573732074686160448201527f6e20737465702f3130000000000000000000000000000000000000000000000060648201526084016109f3565b60fe54600090670de0b6b3a764000090612af59068010000000000000000900467ffffffffffffffff1688614163565b612aff919061417a565b9050612b0b818761413d565b341015612b805760405162461bcd60e51b815260206004820152602560248201527f4d6f73734875623a20696e73756666696369656e742066756e647320746f206360448201527f726561746500000000000000000000000000000000000000000000000000000060648201526084016109f3565b612b8a818761413d565b341115612baa57612baa3382612ba08934614150565b611c8f9190614150565b60ff5460408051808201909152601e81527f4d6f73734875623a206661696c656420746f20726563656976652066656500006020820152612bf6916001600160a01b03169083906124f6565b612c0082336135c5565b612c0c33836001612ccf565b6000828152610101602090815260408083208a90556101028252808320899055610103825280832088905561010582528083208790556101069091528120849055610100805491612c5c836141b2565b90915550506040805133815260208101849052908101879052606081018690526080810185905260a0810184905260c0810187905260e081018290527f460cf3f1c0e37440b24f7a57d7c52f04ca2f3df751bcb4097d4a9e383b1a2477906101000160405180910390a150505050505050565b60008111612d1f5760405162461bcd60e51b815260206004820152601160248201527f4d6f73733a207a65726f20616d6f756e7400000000000000000000000000000060448201526064016109f3565b604080516000815260208101909152612d3d90849084908490613687565b817f6bb7ff708619ba0610cba295a58592e0451dee2622938c8755667688daf3529b6040516124e990602080825260009082015260400190565b816001600160a01b0316836001600160a01b031603612dfe5760405162461bcd60e51b815260206004820152602960248201527f455243313135353a2073657474696e6720617070726f76616c2073746174757360448201527f20666f722073656c66000000000000000000000000000000000000000000000060648201526084016109f3565b6001600160a01b03838116600081815260666020908152604080832094871680845294825291829020805460ff191686151590811790915591519182527f17307eab39ab6107e8899845ad3d59bd9653f200f220920489ca2b5937696c31910160405180910390a3505050565b600081815260976020526040812054610a21565b6001600160a01b038416612efb5760405162461bcd60e51b815260206004820152602560248201527f455243313135353a207472616e7366657220746f20746865207a65726f20616460448201527f647265737300000000000000000000000000000000000000000000000000000060648201526084016109f3565b336000612f07856137bf565b90506000612f14856137bf565b9050612f24838989858589613233565b60008681526065602090815260408083206001600160a01b038c16845290915290205485811015612fbd5760405162461bcd60e51b815260206004820152602a60248201527f455243313135353a20696e73756666696369656e742062616c616e636520666f60448201527f72207472616e736665720000000000000000000000000000000000000000000060648201526084016109f3565b60008781526065602090815260408083206001600160a01b038d8116855292528083208985039055908a16825281208054889290612ffc90849061413d565b909155505060408051888152602081018890526001600160a01b03808b16928c821692918816917fc3d58168c5ae7397731d063d5bbf3d657854427343f4c083240f7aacaa2d0f62910160405180910390a461305c848a8a8a8a8a61380a565b505050505050505050565b6001600160a01b0383166130e35760405162461bcd60e51b815260206004820152602360248201527f455243313135353a206275726e2066726f6d20746865207a65726f206164647260448201527f657373000000000000000000000000000000000000000000000000000000000060648201526084016109f3565b3360006130ef846137bf565b905060006130fc846137bf565b905061311c83876000858560405180602001604052806000815250613233565b60008581526065602090815260408083206001600160a01b038a168452909152902054848110156131b45760405162461bcd60e51b8152602060048201526024808201527f455243313135353a206275726e20616d6f756e7420657863656564732062616c60448201527f616e63650000000000000000000000000000000000000000000000000000000060648201526084016109f3565b60008681526065602090815260408083206001600160a01b038b81168086529184528285208a8703905582518b81529384018a90529092908816917fc3d58168c5ae7397731d063d5bbf3d657854427343f4c083240f7aacaa2d0f62910160405180910390a46040805160208101909152600090525b50505050505050565b6001600160a01b0385166132ba5760005b83518110156132b85782818151811061325f5761325f61419c565b60200260200101516097600086848151811061327d5761327d61419c565b6020026020010151815260200190815260200160002060008282546132a2919061413d565b909155506132b19050816141b2565b9050613244565b505b6001600160a01b0384166128135760005b835181101561322a5760008482815181106132e8576132e861419c565b6020026020010151905060008483815181106133065761330661419c565b602002602001015190506000609760008481526020019081526020016000205490508181101561339e5760405162461bcd60e51b815260206004820152602860248201527f455243313135353a206275726e20616d6f756e74206578636565647320746f7460448201527f616c537570706c7900000000000000000000000000000000000000000000000060648201526084016109f3565b600092835260976020526040909220910390556133ba816141b2565b90506132cb565b6001600160a01b0384163b15612813576040517fbc197c810000000000000000000000000000000000000000000000000000000081526001600160a01b0385169063bc197c819061341e908990899088908890889060040161434a565b6020604051808303816000875af1925050508015613459575060408051601f3d908101601f191682019092526134569181019061439c565b60015b61350e576134656143b9565b806308c379a00361349e57506134796143d5565b8061348457506134a0565b8060405162461bcd60e51b81526004016109f39190613a5f565b505b60405162461bcd60e51b815260206004820152603460248201527f455243313135353a207472616e7366657220746f206e6f6e2d4552433131353560448201527f526563656976657220696d706c656d656e74657200000000000000000000000060648201526084016109f3565b7fffffffff0000000000000000000000000000000000000000000000000000000081167fbc197c81000000000000000000000000000000000000000000000000000000001461322a5760405162461bcd60e51b815260206004820152602860248201527f455243313135353a204552433131353552656365697665722072656a6563746560448201527f6420746f6b656e7300000000000000000000000000000000000000000000000060648201526084016109f3565b6135ce82611566565b1561361b5760405162461bcd60e51b815260206004820152601260248201527f4d6f73733a20746f6b656e20657869737473000000000000000000000000000060448201526064016109f3565b600082815260ca6020908152604091829020805473ffffffffffffffffffffffffffffffffffffffff19166001600160a01b0385169081179091558251858152918201527fc0186d9ba7364ebd80a7010121367f481af81e1028bf368b2172fedf2c6fc7de910161206f565b6001600160a01b0384166137035760405162461bcd60e51b815260206004820152602160248201527f455243313135353a206d696e7420746f20746865207a65726f2061646472657360448201527f730000000000000000000000000000000000000000000000000000000000000060648201526084016109f3565b33600061370f856137bf565b9050600061371c856137bf565b905061372d83600089858589613233565b60008681526065602090815260408083206001600160a01b038b1684529091528120805487929061375f90849061413d565b909155505060408051878152602081018790526001600160a01b03808a1692600092918716917fc3d58168c5ae7397731d063d5bbf3d657854427343f4c083240f7aacaa2d0f62910160405180910390a461322a8360008989898961380a565b604080516001808252818301909252606091600091906020808301908036833701905050905082816000815181106137f9576137f961419c565b602090810291909101015292915050565b6001600160a01b0384163b15612813576040517ff23a6e610000000000000000000000000000000000000000000000000000000081526001600160a01b0385169063f23a6e6190613867908990899088908890889060040161447d565b6020604051808303816000875af19250505080156138a2575060408051601f3d908101601f1916820190925261389f9181019061439c565b60015b6138ae576134656143b9565b7fffffffff0000000000000000000000000000000000000000000000000000000081167ff23a6e61000000000000000000000000000000000000000000000000000000001461322a5760405162461bcd60e51b815260206004820152602860248201527f455243313135353a204552433131353552656365697665722072656a6563746560448201527f6420746f6b656e7300000000000000000000000000000000000000000000000060648201526084016109f3565b60006020828403121561397757600080fd5b5035919050565b80356001600160a01b038116811461399557600080fd5b919050565b600080604083850312156139ad57600080fd5b6139b68361397e565b946020939093013593505050565b7fffffffff0000000000000000000000000000000000000000000000000000000081168114611a9e57600080fd5b600060208284031215613a0457600080fd5b8135610d09816139c4565b60005b83811015613a2a578181015183820152602001613a12565b50506000910152565b60008151808452613a4b816020860160208601613a0f565b601f01601f19169290920160200192915050565b602081526000610d096020830184613a33565b60008060408385031215613a8557600080fd5b613a8e8361397e565b9150613a9c6020840161397e565b90509250929050565b600080600080600080600060e0888a031215613ac057600080fd5b505085359760208701359750604087013596606081013596506080810135955060a0810135945060c0013592509050565b60008060008060808587031215613b0757600080fd5b84359350613b176020860161397e565b93969395505050506040820135916060013590565b634e487b7160e01b600052604160045260246000fd5b601f19601f830116810181811067ffffffffffffffff82111715613b6857613b68613b2c565b6040525050565b600067ffffffffffffffff821115613b8957613b89613b2c565b5060051b60200190565b600082601f830112613ba457600080fd5b81356020613bb182613b6f565b604051613bbe8282613b42565b83815260059390931b8501820192828101915086841115613bde57600080fd5b8286015b84811015613bf95780358352918301918301613be2565b509695505050505050565b600067ffffffffffffffff821115613c1e57613c1e613b2c565b50601f01601f191660200190565b6000613c3783613c04565b604051613c448282613b42565b809250848152858585011115613c5957600080fd5b8484602083013760006020868301015250509392505050565b600082601f830112613c8357600080fd5b610d0983833560208501613c2c565b600080600080600060a08688031215613caa57600080fd5b613cb38661397e565b9450613cc16020870161397e565b9350604086013567ffffffffffffffff80821115613cde57600080fd5b613cea89838a01613b93565b94506060880135915080821115613d0057600080fd5b613d0c89838a01613b93565b93506080880135915080821115613d2257600080fd5b50613d2f88828901613c72565b9150509295509295909350565b600060208284031215613d4e57600080fd5b610d098261397e565b60008060408385031215613d6a57600080fd5b823567ffffffffffffffff80821115613d8257600080fd5b818501915085601f830112613d9657600080fd5b81356020613da382613b6f565b604051613db08282613b42565b83815260059390931b8501820192828101915089841115613dd057600080fd5b948201945b83861015613df557613de68661397e565b82529482019490820190613dd5565b96505086013592505080821115613e0b57600080fd5b50613e1885828601613b93565b9150509250929050565b600081518084526020808501945080840160005b83811015613e5257815187529582019590820190600101613e36565b509495945050505050565b602081526000610d096020830184613e22565b60008060408385031215613e8357600080fd5b82359150602083013567ffffffffffffffff811115613ea157600080fd5b8301601f81018513613eb257600080fd5b613e1885823560208401613c2c565b600080600080600060a08688031215613ed957600080fd5b505083359560208501359550604085013594606081013594506080013592509050565b60008060408385031215613f0f57600080fd5b50508035926020909101359150565b600080600060608486031215613f3357600080fd5b83359250613f436020850161397e565b9150604084013590509250925092565b60008060408385031215613f6657600080fd5b613f6f8361397e565b915060208301358015158114613f8457600080fd5b809150509250929050565b60008060008060808587031215613fa557600080fd5b5050823594602084013594506040840135936060013592509050565b600080600080600060a08688031215613fd957600080fd5b613fe28661397e565b9450613ff06020870161397e565b93506040860135925060608601359150608086013567ffffffffffffffff81111561401a57600080fd5b613d2f88828901613c72565b8151815260208083015161014083019161404a908401826001600160a01b03169052565b5060408301516040830152606083015160608301526080830151608083015260a083015160a083015260c083015160c083015260e083015160e083015261010080840151818401525061012080840151818401525092915050565b6000602082840312156140b757600080fd5b815167ffffffffffffffff8111156140ce57600080fd5b8201601f810184136140df57600080fd5b80516140ea81613c04565b6040516140f78282613b42565b82815286602084860101111561410c57600080fd5b61411d836020830160208701613a0f565b9695505050505050565b634e487b7160e01b600052601160045260246000fd5b80820180821115610a2157610a21614127565b81810381811115610a2157610a21614127565b8082028115828204841417610a2157610a21614127565b60008261419757634e487b7160e01b600052601260045260246000fd5b500490565b634e487b7160e01b600052603260045260246000fd5b600060001982036141c5576141c5614127565b5060010190565b600181811c908216806141e057607f821691505b60208210810361420057634e487b7160e01b600052602260045260246000fd5b50919050565b6040815260006142196040830185613e22565b82810360208401526120c18185613e22565b601f821115611e8057600081815260208120601f850160051c810160208610156142525750805b601f850160051c820191505b818110156128135782815560010161425e565b815167ffffffffffffffff81111561428b5761428b613b2c565b61429f8161429984546141cc565b8461422b565b602080601f8311600181146142d457600084156142bc5750858301515b600019600386901b1c1916600185901b178555612813565b600085815260208120601f198616915b82811015614303578886015182559484019460019091019084016142e4565b50858210156143215787850151600019600388901b60f8161c191681555b5050505050600190811b01905550565b82815260406020820152600061234b6040830184613a33565b60006001600160a01b03808816835280871660208401525060a0604083015261437660a0830186613e22565b82810360608401526143888186613e22565b90508281036080840152610db58185613a33565b6000602082840312156143ae57600080fd5b8151610d09816139c4565b600060033d11156143d25760046000803e5060005160e01c5b90565b600060443d10156143e35790565b6040517ffffffffffffffffffffffffffffffffffffffffffffffffffffffffffffffffc803d016004833e81513d67ffffffffffffffff816024840111818411171561443157505050505090565b82850191508151818111156144495750505050505090565b843d87010160208285010111156144635750505050505090565b61447260208286010187613b42565b509095945050505050565b60006001600160a01b03808816835280871660208401525084604083015283606083015260a0608083015261242f60a0830184613a3356fe4d6f73734875623a206661696c656420746f207472616e736665722063726561746f72206665654d6f73734875623a207472616e736665722066756e6473206261636b206661696c65644d6f73734875623a206661696c656420746f207472616e736665722064657620666565a26469706673582212209f3c41fde83a52213aeb83261a0e7f2e00113152017d02647988c18fcff3c72e64736f6c63430008130033",
  "deployedBytecode": "0x6080604052600436106102d35760003560e01c806371fc76f511610179578063bd85b039116100d6578063cdb9c4eb1161008a578063f213edda11610064578063f213edda14610919578063f242432a14610939578063f740fd341461095957600080fd5b8063cdb9c4eb1461088f578063e2e1b890146108b0578063e985e9c5146108d057600080fd5b8063c4d66de8116100bb578063c4d66de81461082f578063c5464eb41461084f578063c79ab6a21461086f57600080fd5b8063bd85b039146107bc578063c3c854b6146107dc57600080fd5b8063836a10401161012d57806391cca3db1161011257806391cca3db1461075c578063936906f11461077c578063a22cb4651461079c57600080fd5b8063836a10401461071b5780638d6a84941461072e57600080fd5b8063780900dc1161015e578063780900dc146106ba5780637ab58add146106cd578063810c3738146106fb57600080fd5b806371fc76f51461067a57806375e583e61461069a57600080fd5b80632eb2c2d6116102325780634f558e79116101e6578063504f5e56116101c0578063504f5e56146105be578063589a1743146105ec57806361c44d601461063a57600080fd5b80634f558e7914610565578063503e0a9814610585578063504d95781461059e57600080fd5b806343a54a0c1161021757806343a54a0c146104ee578063443ddba21461050a5780634e1273f41461053857600080fd5b80632eb2c2d6146104ae578063332ca4f2146104ce57600080fd5b8063129678941161028957806321a72a421161026e57806321a72a421461042657806327fc36371461044657806329bff6901461046857600080fd5b806312967894146103cb5780631930e825146103eb57600080fd5b806301ffc9a7116102ba57806301ffc9a71461034057806309501e66146103705780630e89341c1461039e57600080fd5b8062d92e39146102df578062fdd58e1461032057600080fd5b366102da57005b600080fd5b3480156102eb57600080fd5b5061030d6102fa366004613965565b6000908152610105602052604090205490565b6040519081526020015b60405180910390f35b34801561032c57600080fd5b5061030d61033b36600461399a565b610979565b34801561034c57600080fd5b5061036061035b3660046139f2565b610a27565b6040519015158152602001610317565b34801561037c57600080fd5b5061030d61038b366004613965565b6000908152610106602052604090205490565b3480156103aa57600080fd5b506103be6103b9366004613965565b610b0a565b6040516103179190613a5f565b3480156103d757600080fd5b5061030d6103e6366004613965565b610d10565b3480156103f757600080fd5b50610360610406366004613a72565b60c960209081526000928352604080842090915290825290205460ff1681565b34801561043257600080fd5b5061030d610441366004613aa5565b610dc1565b34801561045257600080fd5b50610466610461366004613af1565b610f34565b005b34801561047457600080fd5b5060fe546104959068010000000000000000900467ffffffffffffffff1681565b60405167ffffffffffffffff9091168152602001610317565b3480156104ba57600080fd5b506104666104c9366004613c92565b6112fd565b3480156104da57600080fd5b506104666104e9366004613d3c565b61139f565b3480156104fa57600080fd5b50610495670de0b6b3a764000081565b34801561051657600080fd5b5061030d610525366004613965565b6101016020526000908152604090205481565b34801561054457600080fd5b50610558610553366004613d57565b611428565b6040516103179190613e5d565b34801561057157600080fd5b50610360610580366004613965565b611566565b34801561059157600080fd5b5061049564e8d4a5100081565b3480156105aa57600080fd5b506104666105b9366004613e70565b61157c565b3480156105ca57600080fd5b5061030d6105d9366004613965565b6000908152610102602052604090205490565b3480156105f857600080fd5b50610622610607366004613965565b600090815260ca60205260409020546001600160a01b031690565b6040516001600160a01b039091168152602001610317565b34801561064657600080fd5b5061065a610655366004613ec1565b61161d565b604080519485526020850193909352918301526060820152608001610317565b34801561068657600080fd5b5061065a610695366004613efc565b61183b565b3480156106a657600080fd5b5061065a6106b5366004613efc565b61195e565b6104666106c8366004613965565b611a20565b3480156106d957600080fd5b5061030d6106e8366004613965565b6101046020526000908152604090205481565b34801561070757600080fd5b5061030d610716366004613965565b611aa1565b610466610729366004613f1e565b611ac7565b34801561073a57600080fd5b5061030d610749366004613965565b6101036020526000908152604090205481565b34801561076857600080fd5b5060ff54610622906001600160a01b031681565b34801561078857600080fd5b5061030d610797366004613965565b611e85565b3480156107a857600080fd5b506104666107b7366004613f53565b611ee7565b3480156107c857600080fd5b5061030d6107d7366004613965565b611ef6565b3480156107e857600080fd5b506104666107f7366004613f53565b33600090815260c9602090815260408083206001600160a01b0395909516835293905291909120805460ff1916911515919091179055565b34801561083b57600080fd5b5061046661084a366004613d3c565b611f01565b34801561085b57600080fd5b5061030d61086a366004613965565b61207b565b34801561087b57600080fd5b5061065a61088a366004613ec1565b6120ca565b34801561089b57600080fd5b5060fe546104959067ffffffffffffffff1681565b3480156108bc57600080fd5b506103be6108cb366004613965565b612248565b3480156108dc57600080fd5b506103606108eb366004613a72565b6001600160a01b03918216600090815260666020908152604080832093909416825291909152205460ff1690565b34801561092557600080fd5b5061030d610934366004613f8f565b6122ea565b34801561094557600080fd5b50610466610954366004613fc1565b612353565b34801561096557600080fd5b5061030d610974366004613ec1565b6123ee565b60006001600160a01b0383166109fc5760405162461bcd60e51b815260206004820152602a60248201527f455243313135353a2061646472657373207a65726f206973206e6f742061207660448201527f616c6964206f776e65720000000000000000000000000000000000000000000060648201526084015b60405180910390fd5b5060008181526065602090815260408083206001600160a01b03861684529091529020545b92915050565b60007fffffffff0000000000000000000000000000000000000000000000000000000082167fd9b67a26000000000000000000000000000000000000000000000000000000001480610aba57507fffffffff0000000000000000000000000000000000000000000000000000000082167f0e89341c00000000000000000000000000000000000000000000000000000000145b80610a2157507f01ffc9a7000000000000000000000000000000000000000000000000000000007fffffffff00000000000000000000000000000000000000000000000000000000831614610a21565b6060610b6b6040518061014001604052806000815260200160006001600160a01b0316815260200160008152602001600081526020016000815260200160008152602001600081526020016000815260200160008152602001600081525090565b828152600083815261010160209081526040808320548185015285835260ca8252808320546001600160a01b0316828501528583526101029091529020546060820152610bb783611aa1565b6080820152610bc583611ef6565b60a0820152610bd383611e85565b60c08201526000838152610101602052604090205460a082015160808301516060840151610c03939291906122ea565b6101208201526000838152610101602052604090205460a082015160808301516060840151610c369392919060016120ca565b505060e0830152506000838152610101602052604090205460a082015160808301516060840151610c6b93929190600161161d565b5050610100830152506040517f2a5a1a1400000000000000000000000000000000000000000000000000000000815273__$cea9be979eee3d87fb124d6cbb244bb0b5$__90632a5a1a1490610cc4908490600401614026565b600060405180830381865af4158015610ce1573d6000803e3d6000fd5b505050506040513d6000823e601f3d908101601f19168201604052610d0991908101906140a5565b9392505050565b6000818152610101602052604081205481610d2a84611e85565b90506000610d3785611aa1565b60008681526101026020526040812054919250610d56858585856122ea565b60008881526101036020908152604080832054610106835281842054610105909352908320549394509192610d8f9288929091856123ee565b9050610db5868661010360008c8152602001908152602001600020548487876000610dc1565b98975050505050505050565b600080610dce868861413d565b905080610ddb848a61413d565b11610e4e5760405162461bcd60e51b815260206004820152602960248201527f4d6f73734875623a20666c6f6f7220737570706c792069732067746520746f7460448201527f616c20737570706c79000000000000000000000000000000000000000000000060648201526084016109f3565b600081610e5b858b61413d565b610e659190614150565b9050610e71848a61413d565b610e7c906002614163565b81610e87818d614163565b610e919190614163565b610e9c876002614163565b610ea69190614150565b610eb0919061417a565b9250858311610f275760405162461bcd60e51b815260206004820152603960248201527f4d6f73734875623a2061646a757374656420666c6f6f7220707269636520697360448201527f206c7465206f726967696e616c20666c6f6f722070726963650000000000000060648201526084016109f3565b5050979650505050505050565b610f3c61243a565b610f4584611566565b610f915760405162461bcd60e51b815260206004820152601a60248201527f4d6f73734875623a206e6f6e6578736974656e7420746f6b656e00000000000060448201526064016109f3565b600082116110075760405162461bcd60e51b815260206004820152602660248201527f4d6f73734875623a20616d6f756e74206d75737420626520677265617465722060448201527f7468616e2030000000000000000000000000000000000000000000000000000060648201526084016109f3565b600061101285611ef6565b9050828110156110645760405162461bcd60e51b815260206004820181905260248201527f4d6f73734875623a20746f6f206d75636820616d6f756e7420746f206275726e60448201526064016109f3565b60408051610100810182528681526000878152610101602090815283822054908301529181018390526060810161109a88611aa1565b81526020016110b6886000908152610102602052604090205490565b81526020016110d2886000908152610105602052604090205490565b8152602001858152602001866001600160a01b0316815250905060008060008061111385602001518660400151876060015188608001518960c0015161161d565b9350935093509350868410156111b75760405162461bcd60e51b815260206004820152604960248201527f4d6f73734875623a2072656365697665642076616c7565206d7573742062652060448201527f67726561746572207468616e206f7220657175616c20746f206d696e696d756d60648201527f2072656365697665640000000000000000000000000000000000000000000000608482015260a4016109f3565b6111ca3386600001518760c00151612493565b61120a89856040518060400160405280601e81526020017f4d6f73734875623a207472616e736665722076616c7565206661696c656400008152506124f6565b60ff546040805160608101909152602380825261123a926001600160a01b031691849161450060208301396124f6565b8451600090815260ca6020526040902054611278906001600160a01b03165b836040518060600160405280602781526020016144b6602791396124f6565b845160e08087015160c0808901516040805133815260208101969096526001600160a01b039093168584015260608501526080840187905260a084018690528301849052517f63b3cda962e4a1210ab73053c3af0163312c753575551b8c9d04906ec6e0ff679281900390910190a15050505050506112f7600160cc55565b50505050565b6001600160a01b038516331480611319575061131985336108eb565b61138b5760405162461bcd60e51b815260206004820152602e60248201527f455243313135353a2063616c6c6572206973206e6f7420746f6b656e206f776e60448201527f6572206f7220617070726f76656400000000000000000000000000000000000060648201526084016109f3565b611398858585858561256c565b5050505050565b60ff546001600160a01b031633146113f95760405162461bcd60e51b815260206004820152601a60248201527f4d6f73734875623a2063616c6c6572206973206e6f742064657600000000000060448201526064016109f3565b60ff805473ffffffffffffffffffffffffffffffffffffffff19166001600160a01b0392909216919091179055565b606081518351146114a15760405162461bcd60e51b815260206004820152602960248201527f455243313135353a206163636f756e747320616e6420696473206c656e67746860448201527f206d69736d61746368000000000000000000000000000000000000000000000060648201526084016109f3565b6000835167ffffffffffffffff8111156114bd576114bd613b2c565b6040519080825280602002602001820160405280156114e6578160200160208202803683370190505b50905060005b845181101561155e5761153185828151811061150a5761150a61419c565b60200260200101518583815181106115245761152461419c565b6020026020010151610979565b8282815181106115435761154361419c565b6020908102919091010152611557816141b2565b90506114ec565b509392505050565b6000818152609760205260408120541515610a21565b600082815260ca602052604090205482906001600160a01b0316338114806115c757506001600160a01b038116600090815260c96020908152604080832033845290915290205460ff165b6116135760405162461bcd60e51b815260206004820152601b60248201527f4d6f73733a2044656c6567617465206e6f7420617070726f766564000000000060448201526064016109f3565b6112f7848461281b565b600080600080848810156116bf5760405162461bcd60e51b815260206004820152604260248201527f4d6f73734875623a206275726e696e6720616d6f756e74206d7573742062652060448201527f6c657373207468616e206f7220657175616c20746f20746f74616c207375707060648201527f6c79000000000000000000000000000000000000000000000000000000000000608482015260a4016109f3565b8688116116d7576116d08587614163565b92506117b1565b866116e2868a614150565b11156117475760026116f48882614163565b866117008b6002614163565b61170a9190614150565b6117149190614150565b61171e908b614163565b611729886002614163565b611733919061413d565b61173d9087614163565b6116d0919061417a565b6000611753888a614150565b905060006117618288614150565b9050600261176f838d614163565b61177a8a6002614163565b611784919061413d565b61178e9084614163565b611798919061417a565b6117a2828a614163565b6117ac919061413d565b945050505b60fe54670de0b6b3a7640000906117d29067ffffffffffffffff1685614163565b6117dc919061417a565b60fe54909250670de0b6b3a76400009061180c9068010000000000000000900467ffffffffffffffff1685614163565b611816919061417a565b9050806118238385614150565b61182d9190614150565b935095509550955095915050565b60008080808061186087600090815260ca60205260409020546001600160a01b031690565b6001600160a01b0316036118b65760405162461bcd60e51b815260206004820152601d60248201527f4d6f73734875623a20746f6b656e206973206e6f74206372656174656400000060448201526064016109f3565b60008681526101016020526040812054906118d088611ef6565b905060006118dd89611aa1565b60008a815261010260205260409020549091508061193d5760405162461bcd60e51b815260206004820152601960248201527f4d6f73734875623a207a65726f20666c6f6f722070726963650000000000000060448201526064016109f3565b61194a848484848d6120ca565b929d919c509a509098509650505050505050565b60008080808061198387600090815260ca60205260409020546001600160a01b031690565b6001600160a01b0316036119d95760405162461bcd60e51b815260206004820152601d60248201527f4d6f73734875623a20746f6b656e206973206e6f74206372656174656400000060448201526064016109f3565b60008681526101016020526040812054906119f388611ef6565b90506000611a0089611aa1565b60008a8152610102602052604090205490915061194a848484848d61161d565b611a2861243a565b804210611a775760405162461bcd60e51b815260206004820152601360248201527f4d6f73734875623a2074782074696d656f75740000000000000000000000000060448201526064016109f3565b611a9466038d7ea4c68000655af3107a40006001600a6002612865565b611a9e600160cc55565b50565b60008181526101046020908152604080832054610103909252822054610a21919061413d565b611acf61243a565b60008111611b455760405162461bcd60e51b815260206004820152602660248201527f4d6f73734875623a20616d6f756e74206d75737420626520677265617465722060448201527f7468616e2030000000000000000000000000000000000000000000000000000060648201526084016109f3565b6040805161010081018252848152600085815261010160209081528382205490830152918101611b7486611ef6565b8152602001611b8286611aa1565b8152602001611b9e866000908152610102602052604090205490565b8152602001611bba866000908152610105602052604090205490565b8152602001838152602001846001600160a01b03168152509050600080600080611bfb85602001518660400151876060015188608001518960c001516120ca565b935093509350935083341015611c795760405162461bcd60e51b815260206004820152602360248201527f4d6f73734875623a20696e73756666696369656e742066756e647320746f206d60448201527f696e74000000000000000000000000000000000000000000000000000000000060648201526084016109f3565b83341115611cad57611cad33611c8f8634614150565b6040518060600160405280602381526020016144dd602391396124f6565b60ff5460408051606081019091526023808252611cdd926001600160a01b031691849161450060208301396124f6565b8451600090815260ca6020526040902054611d00906001600160a01b0316611259565b60408086015186516000908152610103602090815283822054895183526101069091529281205460a089015160c08a01519294611d419493909291906123ee565b90506000611d618760200151886040015189606001518a608001516122ea565b875160009081526101046020526040902054909150821115611de95760008a815261010160209081526040808320548a8201518b51855261010390935292205460808a0151611dc3939291908690611db98b8861413d565b8d60c00151610dc1565b875160009081526101026020908152604080832093909355895182526101049052208290555b611e008760e0015188600001518960c00151612ccf565b865160e08089015160c0808b01516040805133815260208101969096526001600160a01b03909316858401526060850152608084018a905260a084018890528301869052517fdcaf588f09c2b7600db130d5b5166c2c3eecdb321c81cdaba0921b1205d9888f9281900390910190a150505050505050611e80600160cc55565b505050565b600081815261010560209081526040808320546101068352818420546101049093529083205490918291611eb9919061417a565b611ec39190614163565b60008481526101036020526040902054611edd919061413d565b610a21919061413d565b611ef2338383612d77565b5050565b6000610a2182612e6b565b600054610100900460ff1615808015611f215750600054600160ff909116105b80611f3b5750303b158015611f3b575060005460ff166001145b611fad5760405162461bcd60e51b815260206004820152602e60248201527f496e697469616c697a61626c653a20636f6e747261637420697320616c72656160448201527f647920696e697469616c697a656400000000000000000000000000000000000060648201526084016109f3565b6000805460ff191660011790558015611fd0576000805461ff0019166101001790555b60ff805473ffffffffffffffffffffffffffffffffffffffff19166001600160a01b03841617905560fe80547fffffffffffffffffffffffffffffffff00000000000000000000000000000000166e58d15e176280000058d15e176280001790558015611ef2576000805461ff0019169055604051600181527f7f26b83ff96e1f2b6a682f133852f6798a09c465da95921460cefb3847402498906020015b60405180910390a15050565b60008061208783611ef6565b9050600061209484611aa1565b6000858152610102602090815260408083205461010190925290912054919250906120c1908484846122ea565b95945050505050565b6000808080866120da868a61413d565b116120f0576120e98587614163565b92506121cc565b868811156121575760026121048882614163565b866121108b6002614163565b61211a919061413d565b6121249190614150565b61212e908b614163565b612139886002614163565b612143919061413d565b61214d9087614163565b6120e9919061417a565b60006121638989614150565b9050600088612172888c61413d565b61217c9190614150565b9050600261218a828d614163565b6121958a6002614163565b61219f919061413d565b6121a99083614163565b6121b3919061417a565b6121bd838a614163565b6121c7919061413d565b945050505b60fe54670de0b6b3a7640000906121ed9067ffffffffffffffff1685614163565b6121f7919061417a565b60fe54909250670de0b6b3a7640000906122279068010000000000000000900467ffffffffffffffff1685614163565b612231919061417a565b90508061223e838561413d565b61182d919061413d565b600081815260cb60205260409020805460609190612265906141cc565b80601f0160208091040260200160405190810160405280929190818152602001828054612291906141cc565b80156122de5780601f106122b3576101008083540402835291602001916122de565b820191906000526020600020905b8154815290600101906020018083116122c157829003601f168201915b50505050509050919050565b6000828411612304576122fd8483614163565b905061234b565b60006123108486614150565b905060028161231f8189614163565b6123299190614163565b612333919061417a565b61233d8685614163565b612347919061413d565b9150505b949350505050565b6001600160a01b03851633148061236f575061236f85336108eb565b6123e15760405162461bcd60e51b815260206004820152602e60248201527f455243313135353a2063616c6c6572206973206e6f7420746f6b656e206f776e60448201527f6572206f7220617070726f76656400000000000000000000000000000000000060648201526084016109f3565b6113988585858585612e7f565b6000846123fb838861413d565b11156120c1576000838661240f858a61413d565b6124199190614150565b612423919061417a565b905061242f8582614163565b979650505050505050565b600260cc540361248c5760405162461bcd60e51b815260206004820152601f60248201527f5265656e7472616e637947756172643a207265656e7472616e742063616c6c0060448201526064016109f3565b600260cc55565b61249e838383613067565b60006124a983611ef6565b1115611e8057817f6bb7ff708619ba0610cba295a58592e0451dee2622938c8755667688daf3529b6040516124e990602080825260009082015260400190565b60405180910390a2505050565b6000836001600160a01b03168360405160006040518083038185875af1925050503d8060008114612543576040519150601f19603f3d011682016040523d82523d6000602084013e612548565b606091505b505090508082906113985760405162461bcd60e51b81526004016109f39190613a5f565b81518351146125e35760405162461bcd60e51b815260206004820152602860248201527f455243313135353a2069647320616e6420616d6f756e7473206c656e6774682060448201527f6d69736d6174636800000000000000000000000000000000000000000000000060648201526084016109f3565b6001600160a01b03841661265f5760405162461bcd60e51b815260206004820152602560248201527f455243313135353a207472616e7366657220746f20746865207a65726f20616460448201527f647265737300000000000000000000000000000000000000000000000000000060648201526084016109f3565b3361266e818787878787613233565b60005b84518110156127ad57600085828151811061268e5761268e61419c565b6020026020010151905060008583815181106126ac576126ac61419c565b60209081029190910181015160008481526065835260408082206001600160a01b038e1683529093529190912054909150818110156127535760405162461bcd60e51b815260206004820152602a60248201527f455243313135353a20696e73756666696369656e742062616c616e636520666f60448201527f72207472616e736665720000000000000000000000000000000000000000000060648201526084016109f3565b60008381526065602090815260408083206001600160a01b038e8116855292528083208585039055908b1682528120805484929061279290849061413d565b92505081905550505050806127a6906141b2565b9050612671565b50846001600160a01b0316866001600160a01b0316826001600160a01b03167f4a39dc06d4c0dbc64b70af90fd698a233a518aa5d07e595d983b8c0526c8f7fb87876040516127fd929190614206565b60405180910390a46128138187878787876133c1565b505050505050565b600082815260cb602052604090206128338282614271565b507f9881d3fc43c7ddce9f432f1abbb2720b9aa58489a32de89d7269df1807ac4d96828260405161206f929190614331565b6101005464e8d4a510008510156128e45760405162461bcd60e51b815260206004820152603d60248201527f4d6f73734875623a20666c6f6f72206d7573742062652067726561746572207460448201527f68616e206f7220657175616c20746f206d696e696d756d20666c6f6f7200000060648201526084016109f3565b6000841161295a5760405162461bcd60e51b815260206004820152602f60248201527f4d6f73734875623a20666c6f6f7220737570706c79206d75737420626520677260448201527f6561746572207468616e207a65726f000000000000000000000000000000000060648201526084016109f3565b600083116129cf5760405162461bcd60e51b8152602060048201526024808201527f4d6f73734875623a2073746570206d7573742067726561746572207468616e2060448201527f7a65726f0000000000000000000000000000000000000000000000000000000060648201526084016109f3565b60008211612a455760405162461bcd60e51b815260206004820152602660248201527f4d6f73734875623a20667353746570206d75737420677265617465722074686160448201527f6e207a65726f000000000000000000000000000000000000000000000000000060648201526084016109f3565b612a5060058461417a565b821115612ac55760405162461bcd60e51b815260206004820152602960248201527f4d6f73734875623a20667353746570206d757374206265206c6573732074686160448201527f6e20737465702f3130000000000000000000000000000000000000000000000060648201526084016109f3565b60fe54600090670de0b6b3a764000090612af59068010000000000000000900467ffffffffffffffff1688614163565b612aff919061417a565b9050612b0b818761413d565b341015612b805760405162461bcd60e51b815260206004820152602560248201527f4d6f73734875623a20696e73756666696369656e742066756e647320746f206360448201527f726561746500000000000000000000000000000000000000000000000000000060648201526084016109f3565b612b8a818761413d565b341115612baa57612baa3382612ba08934614150565b611c8f9190614150565b60ff5460408051808201909152601e81527f4d6f73734875623a206661696c656420746f20726563656976652066656500006020820152612bf6916001600160a01b03169083906124f6565b612c0082336135c5565b612c0c33836001612ccf565b6000828152610101602090815260408083208a90556101028252808320899055610103825280832088905561010582528083208790556101069091528120849055610100805491612c5c836141b2565b90915550506040805133815260208101849052908101879052606081018690526080810185905260a0810184905260c0810187905260e081018290527f460cf3f1c0e37440b24f7a57d7c52f04ca2f3df751bcb4097d4a9e383b1a2477906101000160405180910390a150505050505050565b60008111612d1f5760405162461bcd60e51b815260206004820152601160248201527f4d6f73733a207a65726f20616d6f756e7400000000000000000000000000000060448201526064016109f3565b604080516000815260208101909152612d3d90849084908490613687565b817f6bb7ff708619ba0610cba295a58592e0451dee2622938c8755667688daf3529b6040516124e990602080825260009082015260400190565b816001600160a01b0316836001600160a01b031603612dfe5760405162461bcd60e51b815260206004820152602960248201527f455243313135353a2073657474696e6720617070726f76616c2073746174757360448201527f20666f722073656c66000000000000000000000000000000000000000000000060648201526084016109f3565b6001600160a01b03838116600081815260666020908152604080832094871680845294825291829020805460ff191686151590811790915591519182527f17307eab39ab6107e8899845ad3d59bd9653f200f220920489ca2b5937696c31910160405180910390a3505050565b600081815260976020526040812054610a21565b6001600160a01b038416612efb5760405162461bcd60e51b815260206004820152602560248201527f455243313135353a207472616e7366657220746f20746865207a65726f20616460448201527f647265737300000000000000000000000000000000000000000000000000000060648201526084016109f3565b336000612f07856137bf565b90506000612f14856137bf565b9050612f24838989858589613233565b60008681526065602090815260408083206001600160a01b038c16845290915290205485811015612fbd5760405162461bcd60e51b815260206004820152602a60248201527f455243313135353a20696e73756666696369656e742062616c616e636520666f60448201527f72207472616e736665720000000000000000000000000000000000000000000060648201526084016109f3565b60008781526065602090815260408083206001600160a01b038d8116855292528083208985039055908a16825281208054889290612ffc90849061413d565b909155505060408051888152602081018890526001600160a01b03808b16928c821692918816917fc3d58168c5ae7397731d063d5bbf3d657854427343f4c083240f7aacaa2d0f62910160405180910390a461305c848a8a8a8a8a61380a565b505050505050505050565b6001600160a01b0383166130e35760405162461bcd60e51b815260206004820152602360248201527f455243313135353a206275726e2066726f6d20746865207a65726f206164647260448201527f657373000000000000000000000000000000000000000000000000000000000060648201526084016109f3565b3360006130ef846137bf565b905060006130fc846137bf565b905061311c83876000858560405180602001604052806000815250613233565b60008581526065602090815260408083206001600160a01b038a168452909152902054848110156131b45760405162461bcd60e51b8152602060048201526024808201527f455243313135353a206275726e20616d6f756e7420657863656564732062616c60448201527f616e63650000000000000000000000000000000000000000000000000000000060648201526084016109f3565b60008681526065602090815260408083206001600160a01b038b81168086529184528285208a8703905582518b81529384018a90529092908816917fc3d58168c5ae7397731d063d5bbf3d657854427343f4c083240f7aacaa2d0f62910160405180910390a46040805160208101909152600090525b50505050505050565b6001600160a01b0385166132ba5760005b83518110156132b85782818151811061325f5761325f61419c565b60200260200101516097600086848151811061327d5761327d61419c565b6020026020010151815260200190815260200160002060008282546132a2919061413d565b909155506132b19050816141b2565b9050613244565b505b6001600160a01b0384166128135760005b835181101561322a5760008482815181106132e8576132e861419c565b6020026020010151905060008483815181106133065761330661419c565b602002602001015190506000609760008481526020019081526020016000205490508181101561339e5760405162461bcd60e51b815260206004820152602860248201527f455243313135353a206275726e20616d6f756e74206578636565647320746f7460448201527f616c537570706c7900000000000000000000000000000000000000000000000060648201526084016109f3565b600092835260976020526040909220910390556133ba816141b2565b90506132cb565b6001600160a01b0384163b15612813576040517fbc197c810000000000000000000000000000000000000000000000000000000081526001600160a01b0385169063bc197c819061341e908990899088908890889060040161434a565b6020604051808303816000875af1925050508015613459575060408051601f3d908101601f191682019092526134569181019061439c565b60015b61350e576134656143b9565b806308c379a00361349e57506134796143d5565b8061348457506134a0565b8060405162461bcd60e51b81526004016109f39190613a5f565b505b60405162461bcd60e51b815260206004820152603460248201527f455243313135353a207472616e7366657220746f206e6f6e2d4552433131353560448201527f526563656976657220696d706c656d656e74657200000000000000000000000060648201526084016109f3565b7fffffffff0000000000000000000000000000000000000000000000000000000081167fbc197c81000000000000000000000000000000000000000000000000000000001461322a5760405162461bcd60e51b815260206004820152602860248201527f455243313135353a204552433131353552656365697665722072656a6563746560448201527f6420746f6b656e7300000000000000000000000000000000000000000000000060648201526084016109f3565b6135ce82611566565b1561361b5760405162461bcd60e51b815260206004820152601260248201527f4d6f73733a20746f6b656e20657869737473000000000000000000000000000060448201526064016109f3565b600082815260ca6020908152604091829020805473ffffffffffffffffffffffffffffffffffffffff19166001600160a01b0385169081179091558251858152918201527fc0186d9ba7364ebd80a7010121367f481af81e1028bf368b2172fedf2c6fc7de910161206f565b6001600160a01b0384166137035760405162461bcd60e51b815260206004820152602160248201527f455243313135353a206d696e7420746f20746865207a65726f2061646472657360448201527f730000000000000000000000000000000000000000000000000000000000000060648201526084016109f3565b33600061370f856137bf565b9050600061371c856137bf565b905061372d83600089858589613233565b60008681526065602090815260408083206001600160a01b038b1684529091528120805487929061375f90849061413d565b909155505060408051878152602081018790526001600160a01b03808a1692600092918716917fc3d58168c5ae7397731d063d5bbf3d657854427343f4c083240f7aacaa2d0f62910160405180910390a461322a8360008989898961380a565b604080516001808252818301909252606091600091906020808301908036833701905050905082816000815181106137f9576137f961419c565b602090810291909101015292915050565b6001600160a01b0384163b15612813576040517ff23a6e610000000000000000000000000000000000000000000000000000000081526001600160a01b0385169063f23a6e6190613867908990899088908890889060040161447d565b6020604051808303816000875af19250505080156138a2575060408051601f3d908101601f1916820190925261389f9181019061439c565b60015b6138ae576134656143b9565b7fffffffff0000000000000000000000000000000000000000000000000000000081167ff23a6e61000000000000000000000000000000000000000000000000000000001461322a5760405162461bcd60e51b815260206004820152602860248201527f455243313135353a204552433131353552656365697665722072656a6563746560448201527f6420746f6b656e7300000000000000000000000000000000000000000000000060648201526084016109f3565b60006020828403121561397757600080fd5b5035919050565b80356001600160a01b038116811461399557600080fd5b919050565b600080604083850312156139ad57600080fd5b6139b68361397e565b946020939093013593505050565b7fffffffff0000000000000000000000000000000000000000000000000000000081168114611a9e57600080fd5b600060208284031215613a0457600080fd5b8135610d09816139c4565b60005b83811015613a2a578181015183820152602001613a12565b50506000910152565b60008151808452613a4b816020860160208601613a0f565b601f01601f19169290920160200192915050565b602081526000610d096020830184613a33565b60008060408385031215613a8557600080fd5b613a8e8361397e565b9150613a9c6020840161397e565b90509250929050565b600080600080600080600060e0888a031215613ac057600080fd5b505085359760208701359750604087013596606081013596506080810135955060a0810135945060c0013592509050565b60008060008060808587031215613b0757600080fd5b84359350613b176020860161397e565b93969395505050506040820135916060013590565b634e487b7160e01b600052604160045260246000fd5b601f19601f830116810181811067ffffffffffffffff82111715613b6857613b68613b2c565b6040525050565b600067ffffffffffffffff821115613b8957613b89613b2c565b5060051b60200190565b600082601f830112613ba457600080fd5b81356020613bb182613b6f565b604051613bbe8282613b42565b83815260059390931b8501820192828101915086841115613bde57600080fd5b8286015b84811015613bf95780358352918301918301613be2565b509695505050505050565b600067ffffffffffffffff821115613c1e57613c1e613b2c565b50601f01601f191660200190565b6000613c3783613c04565b604051613c448282613b42565b809250848152858585011115613c5957600080fd5b8484602083013760006020868301015250509392505050565b600082601f830112613c8357600080fd5b610d0983833560208501613c2c565b600080600080600060a08688031215613caa57600080fd5b613cb38661397e565b9450613cc16020870161397e565b9350604086013567ffffffffffffffff80821115613cde57600080fd5b613cea89838a01613b93565b94506060880135915080821115613d0057600080fd5b613d0c89838a01613b93565b93506080880135915080821115613d2257600080fd5b50613d2f88828901613c72565b9150509295509295909350565b600060208284031215613d4e57600080fd5b610d098261397e565b60008060408385031215613d6a57600080fd5b823567ffffffffffffffff80821115613d8257600080fd5b818501915085601f830112613d9657600080fd5b81356020613da382613b6f565b604051613db08282613b42565b83815260059390931b8501820192828101915089841115613dd057600080fd5b948201945b83861015613df557613de68661397e565b82529482019490820190613dd5565b96505086013592505080821115613e0b57600080fd5b50613e1885828601613b93565b9150509250929050565b600081518084526020808501945080840160005b83811015613e5257815187529582019590820190600101613e36565b509495945050505050565b602081526000610d096020830184613e22565b60008060408385031215613e8357600080fd5b82359150602083013567ffffffffffffffff811115613ea157600080fd5b8301601f81018513613eb257600080fd5b613e1885823560208401613c2c565b600080600080600060a08688031215613ed957600080fd5b505083359560208501359550604085013594606081013594506080013592509050565b60008060408385031215613f0f57600080fd5b50508035926020909101359150565b600080600060608486031215613f3357600080fd5b83359250613f436020850161397e565b9150604084013590509250925092565b60008060408385031215613f6657600080fd5b613f6f8361397e565b915060208301358015158114613f8457600080fd5b809150509250929050565b60008060008060808587031215613fa557600080fd5b5050823594602084013594506040840135936060013592509050565b600080600080600060a08688031215613fd957600080fd5b613fe28661397e565b9450613ff06020870161397e565b93506040860135925060608601359150608086013567ffffffffffffffff81111561401a57600080fd5b613d2f88828901613c72565b8151815260208083015161014083019161404a908401826001600160a01b03169052565b5060408301516040830152606083015160608301526080830151608083015260a083015160a083015260c083015160c083015260e083015160e083015261010080840151818401525061012080840151818401525092915050565b6000602082840312156140b757600080fd5b815167ffffffffffffffff8111156140ce57600080fd5b8201601f810184136140df57600080fd5b80516140ea81613c04565b6040516140f78282613b42565b82815286602084860101111561410c57600080fd5b61411d836020830160208701613a0f565b9695505050505050565b634e487b7160e01b600052601160045260246000fd5b80820180821115610a2157610a21614127565b81810381811115610a2157610a21614127565b8082028115828204841417610a2157610a21614127565b60008261419757634e487b7160e01b600052601260045260246000fd5b500490565b634e487b7160e01b600052603260045260246000fd5b600060001982036141c5576141c5614127565b5060010190565b600181811c908216806141e057607f821691505b60208210810361420057634e487b7160e01b600052602260045260246000fd5b50919050565b6040815260006142196040830185613e22565b82810360208401526120c18185613e22565b601f821115611e8057600081815260208120601f850160051c810160208610156142525750805b601f850160051c820191505b818110156128135782815560010161425e565b815167ffffffffffffffff81111561428b5761428b613b2c565b61429f8161429984546141cc565b8461422b565b602080601f8311600181146142d457600084156142bc5750858301515b600019600386901b1c1916600185901b178555612813565b600085815260208120601f198616915b82811015614303578886015182559484019460019091019084016142e4565b50858210156143215787850151600019600388901b60f8161c191681555b5050505050600190811b01905550565b82815260406020820152600061234b6040830184613a33565b60006001600160a01b03808816835280871660208401525060a0604083015261437660a0830186613e22565b82810360608401526143888186613e22565b90508281036080840152610db58185613a33565b6000602082840312156143ae57600080fd5b8151610d09816139c4565b600060033d11156143d25760046000803e5060005160e01c5b90565b600060443d10156143e35790565b6040517ffffffffffffffffffffffffffffffffffffffffffffffffffffffffffffffffc803d016004833e81513d67ffffffffffffffff816024840111818411171561443157505050505090565b82850191508151818111156144495750505050505090565b843d87010160208285010111156144635750505050505090565b61447260208286010187613b42565b509095945050505050565b60006001600160a01b03808816835280871660208401525084604083015283606083015260a0608083015261242f60a0830184613a3356fe4d6f73734875623a206661696c656420746f207472616e736665722063726561746f72206665654d6f73734875623a207472616e736665722066756e6473206261636b206661696c65644d6f73734875623a206661696c656420746f207472616e736665722064657620666565a26469706673582212209f3c41fde83a52213aeb83261a0e7f2e00113152017d02647988c18fcff3c72e64736f6c63430008130033",
  "libraries": {
    "NFTDescriptor": "0x6Eb2E3b63Df577401eE6f926fFD30580021FE222"
  },
  "devdoc": {
    "events": {
      "ApprovalForAll(address,address,bool)": {
        "details": "Emitted when `account` grants or revokes permission to `operator` to transfer their tokens, according to `approved`."
      },
      "Initialized(uint8)": {
        "details": "Triggered when the contract has been initialized or reinitialized."
      },
      "TransferBatch(address,address,address,uint256[],uint256[])": {
        "details": "Equivalent to multiple {TransferSingle} events, where `operator`, `from` and `to` are the same for all transfers."
      },
      "TransferSingle(address,address,address,uint256,uint256)": {
        "details": "Emitted when `value` tokens of token type `id` are transferred from `from` to `to` by `operator`."
      },
      "URI(string,uint256)": {
        "details": "Emitted when the URI for token type `id` changes to `value`, if it is a non-programmatic URI. If an {URI} event was emitted for `id`, the standard https://eips.ethereum.org/EIPS/eip-1155#metadata-extensions[guarantees] that `value` will equal the value returned by {IERC1155MetadataURI-uri}."
      }
    },
    "kind": "dev",
    "methods": {
      "balanceOf(address,uint256)": {
        "details": "See {IERC1155-balanceOf}. Requirements: - `account` cannot be the zero address."
      },
      "balanceOfBatch(address[],uint256[])": {
        "details": "See {IERC1155-balanceOfBatch}. Requirements: - `accounts` and `ids` must have the same length."
      },
      "isApprovedForAll(address,address)": {
        "details": "See {IERC1155-isApprovedForAll}."
      },
      "safeBatchTransferFrom(address,address,uint256[],uint256[],bytes)": {
        "details": "See {IERC1155-safeBatchTransferFrom}."
      },
      "safeTransferFrom(address,address,uint256,uint256,bytes)": {
        "details": "See {IERC1155-safeTransferFrom}."
      },
      "setApprovalForAll(address,bool)": {
        "details": "See {IERC1155-setApprovalForAll}."
      },
      "supportsInterface(bytes4)": {
        "details": "See {IERC165-supportsInterface}."
      }
    },
    "version": 1
  },
  "userdoc": {
    "kind": "user",
    "methods": {},
    "version": 1
  },
  "storageLayout": {
    "storage": [
      {
        "astId": 6,
        "contract": "contracts/core/MossHub.sol:MossHub",
        "label": "_initialized",
        "offset": 0,
        "slot": "0",
        "type": "t_uint8"
      },
      {
        "astId": 9,
        "contract": "contracts/core/MossHub.sol:MossHub",
        "label": "_initializing",
        "offset": 1,
        "slot": "0",
        "type": "t_bool"
      },
      {
        "astId": 2223,
        "contract": "contracts/core/MossHub.sol:MossHub",
        "label": "__gap",
        "offset": 0,
        "slot": "1",
        "type": "t_array(t_uint256)50_storage"
      },
      {
        "astId": 2267,
        "contract": "contracts/core/MossHub.sol:MossHub",
        "label": "__gap",
        "offset": 0,
        "slot": "51",
        "type": "t_array(t_uint256)50_storage"
      },
      {
        "astId": 281,
        "contract": "contracts/core/MossHub.sol:MossHub",
        "label": "_balances",
        "offset": 0,
        "slot": "101",
        "type": "t_mapping(t_uint256,t_mapping(t_address,t_uint256))"
      },
      {
        "astId": 287,
        "contract": "contracts/core/MossHub.sol:MossHub",
        "label": "_operatorApprovals",
        "offset": 0,
        "slot": "102",
        "type": "t_mapping(t_address,t_mapping(t_address,t_bool))"
      },
      {
        "astId": 289,
        "contract": "contracts/core/MossHub.sol:MossHub",
        "label": "_uri",
        "offset": 0,
        "slot": "103",
        "type": "t_string_storage"
      },
      {
        "astId": 1496,
        "contract": "contracts/core/MossHub.sol:MossHub",
        "label": "__gap",
        "offset": 0,
        "slot": "104",
        "type": "t_array(t_uint256)47_storage"
      },
      {
        "astId": 1685,
        "contract": "contracts/core/MossHub.sol:MossHub",
        "label": "_totalSupply",
        "offset": 0,
        "slot": "151",
        "type": "t_mapping(t_uint256,t_uint256)"
      },
      {
        "astId": 1836,
        "contract": "contracts/core/MossHub.sol:MossHub",
        "label": "__gap",
        "offset": 0,
        "slot": "152",
        "type": "t_array(t_uint256)49_storage"
      },
      {
        "astId": 5026,
        "contract": "contracts/core/MossHub.sol:MossHub",
        "label": "isApprovedDelegate",
        "offset": 0,
        "slot": "201",
        "type": "t_mapping(t_address,t_mapping(t_address,t_bool))"
      },
      {
        "astId": 3266,
        "contract": "contracts/core/MossHub.sol:MossHub",
        "label": "creators",
        "offset": 0,
        "slot": "202",
        "type": "t_mapping(t_uint256,t_address)"
      },
      {
        "astId": 3270,
        "contract": "contracts/core/MossHub.sol:MossHub",
        "label": "stoneNames",
        "offset": 0,
        "slot": "203",
        "type": "t_mapping(t_uint256,t_string_storage)"
      },
      {
        "astId": 182,
        "contract": "contracts/core/MossHub.sol:MossHub",
        "label": "_status",
        "offset": 0,
        "slot": "204",
        "type": "t_uint256"
      },
      {
        "astId": 251,
        "contract": "contracts/core/MossHub.sol:MossHub",
        "label": "__gap",
        "offset": 0,
        "slot": "205",
        "type": "t_array(t_uint256)49_storage"
      },
      {
        "astId": 3503,
        "contract": "contracts/core/MossHub.sol:MossHub",
        "label": "defaultCreatorFeePCT",
        "offset": 0,
        "slot": "254",
        "type": "t_uint64"
      },
      {
        "astId": 3505,
        "contract": "contracts/core/MossHub.sol:MossHub",
        "label": "devFeePCT",
        "offset": 8,
        "slot": "254",
        "type": "t_uint64"
      },
      {
        "astId": 3507,
        "contract": "contracts/core/MossHub.sol:MossHub",
        "label": "dev",
        "offset": 0,
        "slot": "255",
        "type": "t_address"
      },
      {
        "astId": 3509,
        "contract": "contracts/core/MossHub.sol:MossHub",
        "label": "currentId",
        "offset": 0,
        "slot": "256",
        "type": "t_uint256"
      },
      {
        "astId": 3513,
        "contract": "contracts/core/MossHub.sol:MossHub",
        "label": "k",
        "offset": 0,
        "slot": "257",
        "type": "t_mapping(t_uint256,t_uint256)"
      },
      {
        "astId": 3517,
        "contract": "contracts/core/MossHub.sol:MossHub",
        "label": "f",
        "offset": 0,
        "slot": "258",
        "type": "t_mapping(t_uint256,t_uint256)"
      },
      {
        "astId": 3521,
        "contract": "contracts/core/MossHub.sol:MossHub",
        "label": "ifs",
        "offset": 0,
        "slot": "259",
        "type": "t_mapping(t_uint256,t_uint256)"
      },
      {
        "astId": 3525,
        "contract": "contracts/core/MossHub.sol:MossHub",
        "label": "fsIncr",
        "offset": 0,
        "slot": "260",
        "type": "t_mapping(t_uint256,t_uint256)"
      },
      {
        "astId": 3529,
        "contract": "contracts/core/MossHub.sol:MossHub",
        "label": "step",
        "offset": 0,
        "slot": "261",
        "type": "t_mapping(t_uint256,t_uint256)"
      },
      {
        "astId": 3533,
        "contract": "contracts/core/MossHub.sol:MossHub",
        "label": "fsStep",
        "offset": 0,
        "slot": "262",
        "type": "t_mapping(t_uint256,t_uint256)"
      }
    ],
    "types": {
      "t_address": {
        "encoding": "inplace",
        "label": "address",
        "numberOfBytes": "20"
      },
      "t_array(t_uint256)47_storage": {
        "base": "t_uint256",
        "encoding": "inplace",
        "label": "uint256[47]",
        "numberOfBytes": "1504"
      },
      "t_array(t_uint256)49_storage": {
        "base": "t_uint256",
        "encoding": "inplace",
        "label": "uint256[49]",
        "numberOfBytes": "1568"
      },
      "t_array(t_uint256)50_storage": {
        "base": "t_uint256",
        "encoding": "inplace",
        "label": "uint256[50]",
        "numberOfBytes": "1600"
      },
      "t_bool": {
        "encoding": "inplace",
        "label": "bool",
        "numberOfBytes": "1"
      },
      "t_mapping(t_address,t_bool)": {
        "encoding": "mapping",
        "key": "t_address",
        "label": "mapping(address => bool)",
        "numberOfBytes": "32",
        "value": "t_bool"
      },
      "t_mapping(t_address,t_mapping(t_address,t_bool))": {
        "encoding": "mapping",
        "key": "t_address",
        "label": "mapping(address => mapping(address => bool))",
        "numberOfBytes": "32",
        "value": "t_mapping(t_address,t_bool)"
      },
      "t_mapping(t_address,t_uint256)": {
        "encoding": "mapping",
        "key": "t_address",
        "label": "mapping(address => uint256)",
        "numberOfBytes": "32",
        "value": "t_uint256"
      },
      "t_mapping(t_uint256,t_address)": {
        "encoding": "mapping",
        "key": "t_uint256",
        "label": "mapping(uint256 => address)",
        "numberOfBytes": "32",
        "value": "t_address"
      },
      "t_mapping(t_uint256,t_mapping(t_address,t_uint256))": {
        "encoding": "mapping",
        "key": "t_uint256",
        "label": "mapping(uint256 => mapping(address => uint256))",
        "numberOfBytes": "32",
        "value": "t_mapping(t_address,t_uint256)"
      },
      "t_mapping(t_uint256,t_string_storage)": {
        "encoding": "mapping",
        "key": "t_uint256",
        "label": "mapping(uint256 => string)",
        "numberOfBytes": "32",
        "value": "t_string_storage"
      },
      "t_mapping(t_uint256,t_uint256)": {
        "encoding": "mapping",
        "key": "t_uint256",
        "label": "mapping(uint256 => uint256)",
        "numberOfBytes": "32",
        "value": "t_uint256"
      },
      "t_string_storage": {
        "encoding": "bytes",
        "label": "string",
        "numberOfBytes": "32"
      },
      "t_uint256": {
        "encoding": "inplace",
        "label": "uint256",
        "numberOfBytes": "32"
      },
      "t_uint64": {
        "encoding": "inplace",
        "label": "uint64",
        "numberOfBytes": "8"
      },
      "t_uint8": {
        "encoding": "inplace",
        "label": "uint8",
        "numberOfBytes": "1"
      }
    }
  }
}