{
  "address": "0x9302610bDcc4819E5C9e3B96F17E53c8658f6682",
  "abi": [
    {
      "inputs": [
        {
          "internalType": "contract IMoss",
          "name": "_moss",
          "type": "address"
        }
      ],
      "stateMutability": "nonpayable",
      "type": "constructor"
    },
    {
      "inputs": [],
      "name": "moss",
      "outputs": [
        {
          "internalType": "contract IMoss",
          "name": "",
          "type": "address"
        }
      ],
      "stateMutability": "view",
      "type": "function"
    },
    {
      "inputs": [
        {
          "internalType": "uint256",
          "name": "id",
          "type": "uint256"
        },
        {
          "internalType": "uint256",
          "name": "amountToBuy",
          "type": "uint256"
        }
      ],
      "name": "stoneBuy",
      "outputs": [
        {
          "components": [
            {
              "internalType": "uint256",
              "name": "total",
              "type": "uint256"
            },
            {
              "internalType": "uint256",
              "name": "value",
              "type": "uint256"
            },
            {
              "internalType": "uint256",
              "name": "creatorFee",
              "type": "uint256"
            },
            {
              "internalType": "uint256",
              "name": "devFee",
              "type": "uint256"
            }
          ],
          "internalType": "struct Helpers.BuyPriceInfo",
          "name": "buy",
          "type": "tuple"
        }
      ],
      "stateMutability": "view",
      "type": "function"
    },
    {
      "inputs": [
        {
          "internalType": "address",
          "name": "to",
          "type": "address"
        },
        {
          "internalType": "uint256",
          "name": "id",
          "type": "uint256"
        }
      ],
      "name": "stoneOf",
      "outputs": [
        {
          "components": [
            {
              "internalType": "uint64",
              "name": "k",
              "type": "uint64"
            },
            {
              "internalType": "uint64",
              "name": "minFloor",
              "type": "uint64"
            },
            {
              "internalType": "uint64",
              "name": "devFeePCT",
              "type": "uint64"
            },
            {
              "internalType": "uint64",
              "name": "defaultCreatorFeePCT",
              "type": "uint64"
            },
            {
              "internalType": "address",
              "name": "creator",
              "type": "address"
            },
            {
              "internalType": "uint256",
              "name": "floor",
              "type": "uint256"
            },
            {
              "internalType": "uint256",
              "name": "floorSupply",
              "type": "uint256"
            },
            {
              "internalType": "uint256",
              "name": "stepment",
              "type": "uint256"
            },
            {
              "internalType": "uint256",
              "name": "fsStep",
              "type": "uint256"
            },
            {
              "internalType": "uint256",
              "name": "accountBalance",
              "type": "uint256"
            },
            {
              "internalType": "uint256",
              "name": "totalSupply",
              "type": "uint256"
            },
            {
              "internalType": "uint256",
              "name": "worth",
              "type": "uint256"
            }
          ],
          "internalType": "struct Helpers.StoneInfo",
          "name": "stone",
          "type": "tuple"
        }
      ],
      "stateMutability": "view",
      "type": "function"
    },
    {
      "inputs": [
        {
          "internalType": "uint256",
          "name": "id",
          "type": "uint256"
        },
        {
          "internalType": "uint256",
          "name": "amountToSell",
          "type": "uint256"
        }
      ],
      "name": "stoneSell",
      "outputs": [
        {
          "components": [
            {
              "internalType": "uint256",
              "name": "total",
              "type": "uint256"
            },
            {
              "internalType": "uint256",
              "name": "value",
              "type": "uint256"
            },
            {
              "internalType": "uint256",
              "name": "devFee",
              "type": "uint256"
            }
          ],
          "internalType": "struct Helpers.SellPriceInfo",
          "name": "sale",
          "type": "tuple"
        }
      ],
      "stateMutability": "view",
      "type": "function"
    }
  ],
  "transactionHash": "0xc79e8e5eefa317633ac67e6d9819b69795f6d58f3dcc159bd5b3d68ee9f2b542",
  "args": [
    "0x920899B0B41033E37F26A39FA5314390f9c4EA03"
  ],
  "numDeployments": 4,
  "solcInputHash": "b1832a380dcdcd771a43ba1cc6af5f50",
  "bytecode": "0x60a060405234801561001057600080fd5b5060405161138738038061138783398101604081905261002f91610040565b6001600160a01b0316608052610070565b60006020828403121561005257600080fd5b81516001600160a01b038116811461006957600080fd5b9392505050565b6080516112636101246000396000818160fa015281816101cb0152818161028a0152818161033f015281816103cb015281816104890152818161053b015281816105c3015281816106690152818161070f015281816107c60152818161084c015281816108f40152818161099b01528181610a2b01528181610adc01528181610b6b01528181610c3301528181610cf401528181610d8401528181610e3501528181610ec40152610f8e01526112636000f3fe608060405234801561001057600080fd5b506004361061004c5760003560e01c806307da15ac146100515780630ce914c81461007a5780639d3af6b6146100af578063a5fd3ea8146100f5575b600080fd5b61006461005f36600461103e565b610134565b604051610071919061106a565b60405180910390f35b61008d610088366004611140565b610973565b6040805182518152602080840151908201529181015190820152606001610071565b6100c26100bd366004611140565b610cc5565b60405161007191908151815260208083015190820152604080830151908201526060918201519181019190915260800190565b61011c7f000000000000000000000000000000000000000000000000000000000000000081565b6040516001600160a01b039091168152602001610071565b6101c9604051806101800160405280600067ffffffffffffffff168152602001600067ffffffffffffffff168152602001600067ffffffffffffffff168152602001600067ffffffffffffffff16815260200160006001600160a01b03168152602001600081526020016000815260200160008152602001600081526020016000815260200160008152602001600081525090565b7f00000000000000000000000000000000000000000000000000000000000000006001600160a01b031663b4f40c616040518163ffffffff1660e01b8152600401602060405180830381865afa158015610227573d6000803e3d6000fd5b505050506040513d601f19601f8201168201806040525081019061024b9190611162565b67ffffffffffffffff168152604080517f503e0a9800000000000000000000000000000000000000000000000000000000815290516001600160a01b037f0000000000000000000000000000000000000000000000000000000000000000169163503e0a989160048083019260209291908290030181865afa1580156102d5573d6000803e3d6000fd5b505050506040513d601f19601f820116820180604052508101906102f99190611162565b67ffffffffffffffff16602080830191909152604080517f29bff69000000000000000000000000000000000000000000000000000000000815290516001600160a01b037f000000000000000000000000000000000000000000000000000000000000000016926329bff69092600480820193918290030181865afa158015610386573d6000803e3d6000fd5b505050506040513d601f19601f820116820180604052508101906103aa9190611162565b816040019067ffffffffffffffff16908167ffffffffffffffff16815250507f00000000000000000000000000000000000000000000000000000000000000006001600160a01b031663cdb9c4eb6040518163ffffffff1660e01b8152600401602060405180830381865afa158015610427573d6000803e3d6000fd5b505050506040513d601f19601f8201168201806040525081019061044b9190611162565b67ffffffffffffffff1660608201526040517f589a1743000000000000000000000000000000000000000000000000000000008152600481018390527f00000000000000000000000000000000000000000000000000000000000000006001600160a01b03169063589a174390602401602060405180830381865afa1580156104d8573d6000803e3d6000fd5b505050506040513d601f19601f820116820180604052508101906104fc9190611193565b6001600160a01b0390811660808301526040517f504f5e56000000000000000000000000000000000000000000000000000000008152600481018490527f00000000000000000000000000000000000000000000000000000000000000009091169063504f5e5690602401602060405180830381865afa158015610584573d6000803e3d6000fd5b505050506040513d601f19601f820116820180604052508101906105a891906111b0565b60a082015260405163102186e760e31b8152600481018390527f00000000000000000000000000000000000000000000000000000000000000006001600160a01b03169063810c373890602401602060405180830381865afa158015610612573d6000803e3d6000fd5b505050506040513d601f19601f8201168201806040525081019061063691906111b0565b60c08201526040517ed92e39000000000000000000000000000000000000000000000000000000008152600481018390527f00000000000000000000000000000000000000000000000000000000000000006001600160a01b03169062d92e3990602401602060405180830381865afa1580156106b7573d6000803e3d6000fd5b505050506040513d601f19601f820116820180604052508101906106db91906111b0565b60e08201526040517f09501e66000000000000000000000000000000000000000000000000000000008152600481018390527f00000000000000000000000000000000000000000000000000000000000000006001600160a01b0316906309501e6690602401602060405180830381865afa15801561075e573d6000803e3d6000fd5b505050506040513d601f19601f8201168201806040525081019061078291906111b0565b6101008201526040517efdd58e0000000000000000000000000000000000000000000000000000000081526001600160a01b038481166004830152602482018490527f0000000000000000000000000000000000000000000000000000000000000000169062fdd58e90604401602060405180830381865afa15801561080c573d6000803e3d6000fd5b505050506040513d601f19601f8201168201806040525081019061083091906111b0565b61012082015260405163bd85b03960e01b8152600481018390527f00000000000000000000000000000000000000000000000000000000000000006001600160a01b03169063bd85b03990602401602060405180830381865afa15801561089b573d6000803e3d6000fd5b505050506040513d601f19601f820116820180604052508101906108bf91906111b0565b6101408201526040517fc5464eb4000000000000000000000000000000000000000000000000000000008152600481018390527f00000000000000000000000000000000000000000000000000000000000000006001600160a01b03169063c5464eb490602401602060405180830381865afa158015610943573d6000803e3d6000fd5b505050506040513d601f19601f8201168201806040525081019061096791906111b0565b61016082015292915050565b61099760405180606001604052806000815260200160008152602001600081525090565b60007f00000000000000000000000000000000000000000000000000000000000000006001600160a01b031663b4f40c616040518163ffffffff1660e01b8152600401602060405180830381865afa1580156109f7573d6000803e3d6000fd5b505050506040513d601f19601f82011682018060405250810190610a1b9190611162565b67ffffffffffffffff16905060007f00000000000000000000000000000000000000000000000000000000000000006001600160a01b031663504f5e56866040518263ffffffff1660e01b8152600401610a7791815260200190565b602060405180830381865afa158015610a94573d6000803e3d6000fd5b505050506040513d601f19601f82011682018060405250810190610ab891906111b0565b60405163102186e760e31b8152600481018790529091506000906001600160a01b037f0000000000000000000000000000000000000000000000000000000000000000169063810c373890602401602060405180830381865afa158015610b23573d6000803e3d6000fd5b505050506040513d601f19601f82011682018060405250810190610b4791906111b0565b60405163bd85b03960e01b8152600481018890529091506000906001600160a01b037f0000000000000000000000000000000000000000000000000000000000000000169063bd85b03990602401602060405180830381865afa158015610bb2573d6000803e3d6000fd5b505050506040513d601f19601f82011682018060405250810190610bd691906111b0565b6040517f62585e920000000000000000000000000000000000000000000000000000000081526004810186905260248101829052604481018490526064810185905260848101889052909150600090819081906001600160a01b037f000000000000000000000000000000000000000000000000000000000000000016906362585e929060a401606060405180830381865afa158015610c7a573d6000803e3d6000fd5b505050506040513d601f19601f82011682018060405250810190610c9e91906111c9565b604080516060810182529384526020840192909252908201529a9950505050505050505050565b610cf06040518060800160405280600081526020016000815260200160008152602001600081525090565b60007f00000000000000000000000000000000000000000000000000000000000000006001600160a01b031663b4f40c616040518163ffffffff1660e01b8152600401602060405180830381865afa158015610d50573d6000803e3d6000fd5b505050506040513d601f19601f82011682018060405250810190610d749190611162565b67ffffffffffffffff16905060007f00000000000000000000000000000000000000000000000000000000000000006001600160a01b031663504f5e56866040518263ffffffff1660e01b8152600401610dd091815260200190565b602060405180830381865afa158015610ded573d6000803e3d6000fd5b505050506040513d601f19601f82011682018060405250810190610e1191906111b0565b60405163102186e760e31b8152600481018790529091506000906001600160a01b037f0000000000000000000000000000000000000000000000000000000000000000169063810c373890602401602060405180830381865afa158015610e7c573d6000803e3d6000fd5b505050506040513d601f19601f82011682018060405250810190610ea091906111b0565b60405163bd85b03960e01b8152600481018890529091506000906001600160a01b037f0000000000000000000000000000000000000000000000000000000000000000169063bd85b03990602401602060405180830381865afa158015610f0b573d6000803e3d6000fd5b505050506040513d601f19601f82011682018060405250810190610f2f91906111b0565b6040517f666a27bb00000000000000000000000000000000000000000000000000000000815260048101869052602481018290526044810184905260648101859052608481018890529091506000908190819081906001600160a01b037f0000000000000000000000000000000000000000000000000000000000000000169063666a27bb9060a401608060405180830381865afa158015610fd5573d6000803e3d6000fd5b505050506040513d601f19601f82011682018060405250810190610ff991906111f7565b6040805160808101825294855260208501939093529183015260608201529b9a5050505050505050505050565b6001600160a01b038116811461103b57600080fd5b50565b6000806040838503121561105157600080fd5b823561105c81611026565b946020939093013593505050565b815167ffffffffffffffff16815261018081016020830151611098602084018267ffffffffffffffff169052565b5060408301516110b4604084018267ffffffffffffffff169052565b5060608301516110d0606084018267ffffffffffffffff169052565b5060808301516110eb60808401826001600160a01b03169052565b5060a083015160a083015260c083015160c083015260e083015160e083015261010080840151818401525061012080840151818401525061014080840151818401525061016080840151818401525092915050565b6000806040838503121561115357600080fd5b50508035926020909101359150565b60006020828403121561117457600080fd5b815167ffffffffffffffff8116811461118c57600080fd5b9392505050565b6000602082840312156111a557600080fd5b815161118c81611026565b6000602082840312156111c257600080fd5b5051919050565b6000806000606084860312156111de57600080fd5b8351925060208401519150604084015190509250925092565b6000806000806080858703121561120d57600080fd5b50508251602084015160408501516060909501519196909550909250905056fea2646970667358221220fe6dd6c5ca8f964c71f31b274415841012822d727343ec74bcff6db61cd5c30064736f6c63430008130033",
  "devdoc": {
    "kind": "dev",
    "methods": {},
    "version": 1
  },
  "userdoc": {
    "kind": "user",
    "methods": {},
    "version": 1
  },
  "storageLayout": {
    "storage": [],
    "types": null
  }
}