{
  "address": "0x4746f7f99fba38872B11BBc3289bFF706DC335f6",
  "abi": [
    {
      "anonymous": false,
      "inputs": [
        {
          "indexed": true,
          "internalType": "address",
          "name": "account",
          "type": "address"
        },
        {
          "indexed": true,
          "internalType": "address",
          "name": "operator",
          "type": "address"
        },
        {
          "indexed": false,
          "internalType": "bool",
          "name": "approved",
          "type": "bool"
        }
      ],
      "name": "ApprovalForAll",
      "type": "event"
    },
    {
      "anonymous": false,
      "inputs": [
        {
          "indexed": false,
          "internalType": "address",
          "name": "from",
          "type": "address"
        },
        {
          "indexed": false,
          "internalType": "uint256",
          "name": "id",
          "type": "uint256"
        },
        {
          "indexed": false,
          "internalType": "address",
          "name": "to",
          "type": "address"
        },
        {
          "indexed": false,
          "internalType": "uint256",
          "name": "amount",
          "type": "uint256"
        },
        {
          "indexed": false,
          "internalType": "uint256",
          "name": "value",
          "type": "uint256"
        },
        {
          "indexed": false,
          "internalType": "uint256",
          "name": "creatorFee",
          "type": "uint256"
        },
        {
          "indexed": false,
          "internalType": "uint256",
          "name": "devFee",
          "type": "uint256"
        }
      ],
      "name": "Burnt",
      "type": "event"
    },
    {
      "anonymous": false,
      "inputs": [
        {
          "indexed": false,
          "internalType": "address",
          "name": "from",
          "type": "address"
        },
        {
          "indexed": false,
          "internalType": "uint256",
          "name": "id",
          "type": "uint256"
        },
        {
          "indexed": false,
          "internalType": "uint256",
          "name": "_f",
          "type": "uint256"
        },
        {
          "indexed": false,
          "internalType": "uint256",
          "name": "_fs",
          "type": "uint256"
        },
        {
          "indexed": false,
          "internalType": "uint256",
          "name": "_s",
          "type": "uint256"
        },
        {
          "indexed": false,
          "internalType": "uint256",
          "name": "_tar",
          "type": "uint256"
        },
        {
          "indexed": false,
          "internalType": "uint256",
          "name": "value",
          "type": "uint256"
        },
        {
          "indexed": false,
          "internalType": "uint256",
          "name": "devFee",
          "type": "uint256"
        }
      ],
      "name": "Created",
      "type": "event"
    },
    {
      "anonymous": false,
      "inputs": [
        {
          "indexed": false,
          "internalType": "uint256",
          "name": "id",
          "type": "uint256"
        },
        {
          "indexed": false,
          "internalType": "address",
          "name": "creator",
          "type": "address"
        }
      ],
      "name": "CreatorUpdated",
      "type": "event"
    },
    {
      "anonymous": false,
      "inputs": [
        {
          "indexed": false,
          "internalType": "uint8",
          "name": "version",
          "type": "uint8"
        }
      ],
      "name": "Initialized",
      "type": "event"
    },
    {
      "anonymous": false,
      "inputs": [
        {
          "indexed": false,
          "internalType": "address",
          "name": "from",
          "type": "address"
        },
        {
          "indexed": false,
          "internalType": "uint256",
          "name": "id",
          "type": "uint256"
        },
        {
          "indexed": false,
          "internalType": "address",
          "name": "to",
          "type": "address"
        },
        {
          "indexed": false,
          "internalType": "uint256",
          "name": "amount",
          "type": "uint256"
        },
        {
          "indexed": false,
          "internalType": "uint256",
          "name": "value",
          "type": "uint256"
        },
        {
          "indexed": false,
          "internalType": "uint256",
          "name": "creatorFee",
          "type": "uint256"
        },
        {
          "indexed": false,
          "internalType": "uint256",
          "name": "devFee",
          "type": "uint256"
        }
      ],
      "name": "Minted",
      "type": "event"
    },
    {
      "anonymous": false,
      "inputs": [
        {
          "indexed": false,
          "internalType": "uint256",
          "name": "id",
          "type": "uint256"
        },
        {
          "indexed": false,
          "internalType": "string",
          "name": "name",
          "type": "string"
        }
      ],
      "name": "StoneNameUpdated",
      "type": "event"
    },
    {
      "anonymous": false,
      "inputs": [
        {
          "indexed": true,
          "internalType": "address",
          "name": "operator",
          "type": "address"
        },
        {
          "indexed": true,
          "internalType": "address",
          "name": "from",
          "type": "address"
        },
        {
          "indexed": true,
          "internalType": "address",
          "name": "to",
          "type": "address"
        },
        {
          "indexed": false,
          "internalType": "uint256[]",
          "name": "ids",
          "type": "uint256[]"
        },
        {
          "indexed": false,
          "internalType": "uint256[]",
          "name": "values",
          "type": "uint256[]"
        }
      ],
      "name": "TransferBatch",
      "type": "event"
    },
    {
      "anonymous": false,
      "inputs": [
        {
          "indexed": true,
          "internalType": "address",
          "name": "operator",
          "type": "address"
        },
        {
          "indexed": true,
          "internalType": "address",
          "name": "from",
          "type": "address"
        },
        {
          "indexed": true,
          "internalType": "address",
          "name": "to",
          "type": "address"
        },
        {
          "indexed": false,
          "internalType": "uint256",
          "name": "id",
          "type": "uint256"
        },
        {
          "indexed": false,
          "internalType": "uint256",
          "name": "value",
          "type": "uint256"
        }
      ],
      "name": "TransferSingle",
      "type": "event"
    },
    {
      "anonymous": false,
      "inputs": [
        {
          "indexed": false,
          "internalType": "string",
          "name": "value",
          "type": "string"
        },
        {
          "indexed": true,
          "internalType": "uint256",
          "name": "id",
          "type": "uint256"
        }
      ],
      "name": "URI",
      "type": "event"
    },
    {
      "inputs": [],
      "name": "PRECISIONDECIMALS",
      "outputs": [
        {
          "internalType": "uint64",
          "name": "",
          "type": "uint64"
        }
      ],
      "stateMutability": "view",
      "type": "function"
    },
    {
      "inputs": [
        {
          "internalType": "uint256",
          "name": "_t",
          "type": "uint256"
        },
        {
          "internalType": "uint256",
          "name": "_fs",
          "type": "uint256"
        },
        {
          "internalType": "uint256",
          "name": "_fsStep",
          "type": "uint256"
        },
        {
          "internalType": "uint256",
          "name": "_step",
          "type": "uint256"
        },
        {
          "internalType": "uint256",
          "name": "amount",
          "type": "uint256"
        }
      ],
      "name": "adjustment",
      "outputs": [
        {
          "internalType": "uint256",
          "name": "_fsIncr",
          "type": "uint256"
        }
      ],
      "stateMutability": "pure",
      "type": "function"
    },
    {
      "inputs": [
        {
          "internalType": "address",
          "name": "account",
          "type": "address"
        },
        {
          "internalType": "uint256",
          "name": "id",
          "type": "uint256"
        }
      ],
      "name": "balanceOf",
      "outputs": [
        {
          "internalType": "uint256",
          "name": "",
          "type": "uint256"
        }
      ],
      "stateMutability": "view",
      "type": "function"
    },
    {
      "inputs": [
        {
          "internalType": "address[]",
          "name": "accounts",
          "type": "address[]"
        },
        {
          "internalType": "uint256[]",
          "name": "ids",
          "type": "uint256[]"
        }
      ],
      "name": "balanceOfBatch",
      "outputs": [
        {
          "internalType": "uint256[]",
          "name": "",
          "type": "uint256[]"
        }
      ],
      "stateMutability": "view",
      "type": "function"
    },
    {
      "inputs": [
        {
          "internalType": "uint256",
          "name": "id",
          "type": "uint256"
        },
        {
          "internalType": "address",
          "name": "to",
          "type": "address"
        },
        {
          "internalType": "uint256",
          "name": "amount",
          "type": "uint256"
        },
        {
          "internalType": "uint256",
          "name": "minReceived",
          "type": "uint256"
        }
      ],
      "name": "burn",
      "outputs": [],
      "stateMutability": "nonpayable",
      "type": "function"
    },
    {
      "inputs": [
        {
          "internalType": "uint256",
          "name": "id",
          "type": "uint256"
        },
        {
          "internalType": "uint256",
          "name": "_f",
          "type": "uint256"
        },
        {
          "internalType": "uint256",
          "name": "_fs",
          "type": "uint256"
        },
        {
          "internalType": "uint256",
          "name": "_s",
          "type": "uint256"
        },
        {
          "internalType": "uint256",
          "name": "_fsStep",
          "type": "uint256"
        },
        {
          "internalType": "uint256",
          "name": "timeoutAt",
          "type": "uint256"
        }
      ],
      "name": "create",
      "outputs": [],
      "stateMutability": "payable",
      "type": "function"
    },
    {
      "inputs": [
        {
          "internalType": "uint256",
          "name": "id",
          "type": "uint256"
        }
      ],
      "name": "creatorOf",
      "outputs": [
        {
          "internalType": "address",
          "name": "",
          "type": "address"
        }
      ],
      "stateMutability": "view",
      "type": "function"
    },
    {
      "inputs": [],
      "name": "defaultCreatorFeePCT",
      "outputs": [
        {
          "internalType": "uint64",
          "name": "",
          "type": "uint64"
        }
      ],
      "stateMutability": "view",
      "type": "function"
    },
    {
      "inputs": [],
      "name": "dev",
      "outputs": [
        {
          "internalType": "address",
          "name": "",
          "type": "address"
        }
      ],
      "stateMutability": "view",
      "type": "function"
    },
    {
      "inputs": [],
      "name": "devFeePCT",
      "outputs": [
        {
          "internalType": "uint64",
          "name": "",
          "type": "uint64"
        }
      ],
      "stateMutability": "view",
      "type": "function"
    },
    {
      "inputs": [
        {
          "internalType": "uint256",
          "name": "_t",
          "type": "uint256"
        },
        {
          "internalType": "uint256",
          "name": "_fs",
          "type": "uint256"
        },
        {
          "internalType": "uint256",
          "name": "_fsIncr",
          "type": "uint256"
        },
        {
          "internalType": "uint256",
          "name": "_f",
          "type": "uint256"
        },
        {
          "internalType": "uint256",
          "name": "_w",
          "type": "uint256"
        },
        {
          "internalType": "uint256",
          "name": "amount",
          "type": "uint256"
        }
      ],
      "name": "estimateAdjust",
      "outputs": [
        {
          "internalType": "uint256",
          "name": "_floor",
          "type": "uint256"
        }
      ],
      "stateMutability": "pure",
      "type": "function"
    },
    {
      "inputs": [
        {
          "internalType": "uint256",
          "name": "_k",
          "type": "uint256"
        },
        {
          "internalType": "uint256",
          "name": "_t",
          "type": "uint256"
        },
        {
          "internalType": "uint256",
          "name": "_fs",
          "type": "uint256"
        },
        {
          "internalType": "uint256",
          "name": "_f",
          "type": "uint256"
        },
        {
          "internalType": "uint256",
          "name": "amount",
          "type": "uint256"
        }
      ],
      "name": "estimateBurn",
      "outputs": [
        {
          "internalType": "uint256",
          "name": "total",
          "type": "uint256"
        },
        {
          "internalType": "uint256",
          "name": "value",
          "type": "uint256"
        },
        {
          "internalType": "uint256",
          "name": "creatorFee",
          "type": "uint256"
        },
        {
          "internalType": "uint256",
          "name": "devFee",
          "type": "uint256"
        }
      ],
      "stateMutability": "view",
      "type": "function"
    },
    {
      "inputs": [
        {
          "internalType": "uint256",
          "name": "id",
          "type": "uint256"
        },
        {
          "internalType": "uint256",
          "name": "amount",
          "type": "uint256"
        }
      ],
      "name": "estimateBurn",
      "outputs": [
        {
          "internalType": "uint256",
          "name": "total",
          "type": "uint256"
        },
        {
          "internalType": "uint256",
          "name": "value",
          "type": "uint256"
        },
        {
          "internalType": "uint256",
          "name": "creatorFee",
          "type": "uint256"
        },
        {
          "internalType": "uint256",
          "name": "devFee",
          "type": "uint256"
        }
      ],
      "stateMutability": "view",
      "type": "function"
    },
    {
      "inputs": [
        {
          "internalType": "uint256",
          "name": "id",
          "type": "uint256"
        },
        {
          "internalType": "uint256",
          "name": "amount",
          "type": "uint256"
        }
      ],
      "name": "estimateMint",
      "outputs": [
        {
          "internalType": "uint256",
          "name": "total",
          "type": "uint256"
        },
        {
          "internalType": "uint256",
          "name": "value",
          "type": "uint256"
        },
        {
          "internalType": "uint256",
          "name": "creatorFee",
          "type": "uint256"
        },
        {
          "internalType": "uint256",
          "name": "devFee",
          "type": "uint256"
        }
      ],
      "stateMutability": "view",
      "type": "function"
    },
    {
      "inputs": [
        {
          "internalType": "uint256",
          "name": "_k",
          "type": "uint256"
        },
        {
          "internalType": "uint256",
          "name": "_t",
          "type": "uint256"
        },
        {
          "internalType": "uint256",
          "name": "_fs",
          "type": "uint256"
        },
        {
          "internalType": "uint256",
          "name": "_f",
          "type": "uint256"
        },
        {
          "internalType": "uint256",
          "name": "amount",
          "type": "uint256"
        }
      ],
      "name": "estimateMint",
      "outputs": [
        {
          "internalType": "uint256",
          "name": "total",
          "type": "uint256"
        },
        {
          "internalType": "uint256",
          "name": "value",
          "type": "uint256"
        },
        {
          "internalType": "uint256",
          "name": "creatorFee",
          "type": "uint256"
        },
        {
          "internalType": "uint256",
          "name": "devFee",
          "type": "uint256"
        }
      ],
      "stateMutability": "view",
      "type": "function"
    },
    {
      "inputs": [
        {
          "internalType": "uint256",
          "name": "id",
          "type": "uint256"
        }
      ],
      "name": "exists",
      "outputs": [
        {
          "internalType": "bool",
          "name": "",
          "type": "bool"
        }
      ],
      "stateMutability": "view",
      "type": "function"
    },
    {
      "inputs": [
        {
          "internalType": "uint256",
          "name": "id",
          "type": "uint256"
        }
      ],
      "name": "floor",
      "outputs": [
        {
          "internalType": "uint256",
          "name": "",
          "type": "uint256"
        }
      ],
      "stateMutability": "view",
      "type": "function"
    },
    {
      "inputs": [
        {
          "internalType": "uint256",
          "name": "id",
          "type": "uint256"
        }
      ],
      "name": "floorSupply",
      "outputs": [
        {
          "internalType": "uint256",
          "name": "",
          "type": "uint256"
        }
      ],
      "stateMutability": "view",
      "type": "function"
    },
    {
      "inputs": [
        {
          "internalType": "uint256",
          "name": "",
          "type": "uint256"
        }
      ],
      "name": "fs",
      "outputs": [
        {
          "internalType": "uint256",
          "name": "",
          "type": "uint256"
        }
      ],
      "stateMutability": "view",
      "type": "function"
    },
    {
      "inputs": [
        {
          "internalType": "uint256",
          "name": "",
          "type": "uint256"
        }
      ],
      "name": "fsIncr",
      "outputs": [
        {
          "internalType": "uint256",
          "name": "",
          "type": "uint256"
        }
      ],
      "stateMutability": "view",
      "type": "function"
    },
    {
      "inputs": [
        {
          "internalType": "uint256",
          "name": "id",
          "type": "uint256"
        }
      ],
      "name": "fsStepOf",
      "outputs": [
        {
          "internalType": "uint256",
          "name": "",
          "type": "uint256"
        }
      ],
      "stateMutability": "view",
      "type": "function"
    },
    {
      "inputs": [
        {
          "internalType": "address",
          "name": "_dev",
          "type": "address"
        }
      ],
      "name": "initialize",
      "outputs": [],
      "stateMutability": "nonpayable",
      "type": "function"
    },
    {
      "inputs": [
        {
          "internalType": "address",
          "name": "",
          "type": "address"
        },
        {
          "internalType": "address",
          "name": "",
          "type": "address"
        }
      ],
      "name": "isApprovedDelegate",
      "outputs": [
        {
          "internalType": "bool",
          "name": "",
          "type": "bool"
        }
      ],
      "stateMutability": "view",
      "type": "function"
    },
    {
      "inputs": [
        {
          "internalType": "address",
          "name": "account",
          "type": "address"
        },
        {
          "internalType": "address",
          "name": "operator",
          "type": "address"
        }
      ],
      "name": "isApprovedForAll",
      "outputs": [
        {
          "internalType": "bool",
          "name": "",
          "type": "bool"
        }
      ],
      "stateMutability": "view",
      "type": "function"
    },
    {
      "inputs": [],
      "name": "k",
      "outputs": [
        {
          "internalType": "uint64",
          "name": "",
          "type": "uint64"
        }
      ],
      "stateMutability": "view",
      "type": "function"
    },
    {
      "inputs": [],
      "name": "minFloor",
      "outputs": [
        {
          "internalType": "uint64",
          "name": "",
          "type": "uint64"
        }
      ],
      "stateMutability": "view",
      "type": "function"
    },
    {
      "inputs": [
        {
          "internalType": "uint256",
          "name": "id",
          "type": "uint256"
        },
        {
          "internalType": "address",
          "name": "to",
          "type": "address"
        },
        {
          "internalType": "uint256",
          "name": "amount",
          "type": "uint256"
        },
        {
          "internalType": "uint256",
          "name": "maxSent",
          "type": "uint256"
        }
      ],
      "name": "mint",
      "outputs": [],
      "stateMutability": "payable",
      "type": "function"
    },
    {
      "inputs": [
        {
          "internalType": "address",
          "name": "from",
          "type": "address"
        },
        {
          "internalType": "address",
          "name": "to",
          "type": "address"
        },
        {
          "internalType": "uint256[]",
          "name": "ids",
          "type": "uint256[]"
        },
        {
          "internalType": "uint256[]",
          "name": "amounts",
          "type": "uint256[]"
        },
        {
          "internalType": "bytes",
          "name": "data",
          "type": "bytes"
        }
      ],
      "name": "safeBatchTransferFrom",
      "outputs": [],
      "stateMutability": "nonpayable",
      "type": "function"
    },
    {
      "inputs": [
        {
          "internalType": "address",
          "name": "from",
          "type": "address"
        },
        {
          "internalType": "address",
          "name": "to",
          "type": "address"
        },
        {
          "internalType": "uint256",
          "name": "id",
          "type": "uint256"
        },
        {
          "internalType": "uint256",
          "name": "amount",
          "type": "uint256"
        },
        {
          "internalType": "bytes",
          "name": "data",
          "type": "bytes"
        }
      ],
      "name": "safeTransferFrom",
      "outputs": [],
      "stateMutability": "nonpayable",
      "type": "function"
    },
    {
      "inputs": [
        {
          "internalType": "address",
          "name": "operator",
          "type": "address"
        },
        {
          "internalType": "bool",
          "name": "approved",
          "type": "bool"
        }
      ],
      "name": "setApprovalForAll",
      "outputs": [],
      "stateMutability": "nonpayable",
      "type": "function"
    },
    {
      "inputs": [
        {
          "internalType": "address",
          "name": "_delegate",
          "type": "address"
        },
        {
          "internalType": "bool",
          "name": "_isApproved",
          "type": "bool"
        }
      ],
      "name": "setDelegateApproval",
      "outputs": [],
      "stateMutability": "nonpayable",
      "type": "function"
    },
    {
      "inputs": [
        {
          "internalType": "uint256",
          "name": "id",
          "type": "uint256"
        }
      ],
      "name": "stepment",
      "outputs": [
        {
          "internalType": "uint256",
          "name": "",
          "type": "uint256"
        }
      ],
      "stateMutability": "view",
      "type": "function"
    },
    {
      "inputs": [
        {
          "internalType": "uint256",
          "name": "id",
          "type": "uint256"
        }
      ],
      "name": "stoneNameOf",
      "outputs": [
        {
          "internalType": "string",
          "name": "",
          "type": "string"
        }
      ],
      "stateMutability": "view",
      "type": "function"
    },
    {
      "inputs": [
        {
          "internalType": "bytes4",
          "name": "interfaceId",
          "type": "bytes4"
        }
      ],
      "name": "supportsInterface",
      "outputs": [
        {
          "internalType": "bool",
          "name": "",
          "type": "bool"
        }
      ],
      "stateMutability": "view",
      "type": "function"
    },
    {
      "inputs": [
        {
          "internalType": "uint256",
          "name": "id",
          "type": "uint256"
        }
      ],
      "name": "targetSupply",
      "outputs": [
        {
          "internalType": "uint256",
          "name": "",
          "type": "uint256"
        }
      ],
      "stateMutability": "view",
      "type": "function"
    },
    {
      "inputs": [
        {
          "internalType": "uint256",
          "name": "id",
          "type": "uint256"
        }
      ],
      "name": "totalSupply",
      "outputs": [
        {
          "internalType": "uint256",
          "name": "",
          "type": "uint256"
        }
      ],
      "stateMutability": "view",
      "type": "function"
    },
    {
      "inputs": [
        {
          "internalType": "uint256",
          "name": "id",
          "type": "uint256"
        },
        {
          "internalType": "string",
          "name": "stoneName",
          "type": "string"
        }
      ],
      "name": "updateStoneName",
      "outputs": [],
      "stateMutability": "nonpayable",
      "type": "function"
    },
    {
      "inputs": [
        {
          "internalType": "uint256",
          "name": "id",
          "type": "uint256"
        }
      ],
      "name": "uri",
      "outputs": [
        {
          "internalType": "string",
          "name": "",
          "type": "string"
        }
      ],
      "stateMutability": "view",
      "type": "function"
    },
    {
      "inputs": [
        {
          "internalType": "uint256",
          "name": "_k",
          "type": "uint256"
        },
        {
          "internalType": "uint256",
          "name": "_t",
          "type": "uint256"
        },
        {
          "internalType": "uint256",
          "name": "_fs",
          "type": "uint256"
        },
        {
          "internalType": "uint256",
          "name": "_f",
          "type": "uint256"
        }
      ],
      "name": "worth",
      "outputs": [
        {
          "internalType": "uint256",
          "name": "",
          "type": "uint256"
        }
      ],
      "stateMutability": "pure",
      "type": "function"
    },
    {
      "inputs": [
        {
          "internalType": "uint256",
          "name": "id",
          "type": "uint256"
        }
      ],
      "name": "worthOf",
      "outputs": [
        {
          "internalType": "uint256",
          "name": "",
          "type": "uint256"
        }
      ],
      "stateMutability": "view",
      "type": "function"
    },
    {
      "stateMutability": "payable",
      "type": "receive"
    }
  ],
  "transactionHash": "0x2a414f9eaa60c8c62046ed1f025075957670bdfe19c5a6e70f59f9641f97f5d7",
  "args": [],
  "numDeployments": 13,
  "solcInputHash": "cb8d8eb62b2095ba6f79daf590667329",
  "bytecode": "0x608060405234801561001057600080fd5b5061452c806100206000396000f3fe6080604052600436106102bd5760003560e01c806375e583e61161016e578063c3c854b6116100cb578063e2e1b8901161007f578063f213edda11610064578063f213edda146108b0578063f242432a146108d0578063f740fd34146108f057600080fd5b8063e2e1b89014610847578063e985e9c51461086757600080fd5b8063c5464eb4116100b0578063c5464eb4146107e6578063c79ab6a214610806578063cdb9c4eb1461082657600080fd5b8063c3c854b614610773578063c4d66de8146107c657600080fd5b8063a22cb46511610122578063bd85b03911610107578063bd85b03914610720578063bf2c8a9414610740578063c0facbea1461075357600080fd5b8063a22cb465146106e5578063b4f40c611461070557600080fd5b8063810c373811610153578063810c37381461068557806391cca3db146106a5578063936906f1146106c557600080fd5b806375e583e6146106375780637ab58add1461065757600080fd5b80634e1273f41161021c578063589a1743116101d05780636e4ae82c116101b55780636e4ae82c146105d657806371fc76f5146105e95780637272d03c1461060957600080fd5b8063589a17431461054857806361c44d601461059657600080fd5b8063503e0a9811610201578063503e0a98146104e1578063504d9578146104fa578063504f5e561461051a57600080fd5b80634e1273f4146104945780634f558e79146104c157600080fd5b80631930e8251161027357806329bff6901161025857806329bff690146104125780632eb2c2d61461045857806343a54a0c1461047857600080fd5b80631930e825146103b557806327fc3637146103f057600080fd5b806301ffc9a7116102a457806301ffc9a71461032a57806309501e661461035a5780630e89341c1461038857600080fd5b8062d92e39146102c9578062fdd58e1461030a57600080fd5b366102c457005b600080fd5b3480156102d557600080fd5b506102f76102e4366004613956565b6000908152610103602052604090205490565b6040519081526020015b60405180910390f35b34801561031657600080fd5b506102f761032536600461398b565b610910565b34801561033657600080fd5b5061034a6103453660046139e6565b6109be565b6040519015158152602001610301565b34801561036657600080fd5b506102f7610375366004613956565b6000908152610104602052604090205490565b34801561039457600080fd5b506103a86103a3366004613956565b610aa1565b6040516103019190613a53565b3480156103c157600080fd5b5061034a6103d0366004613a66565b60c960209081526000928352604080842090915290825290205460ff1681565b3480156103fc57600080fd5b5061041061040b366004613a99565b610caf565b005b34801561041e57600080fd5b5060fe5461043f9068010000000000000000900467ffffffffffffffff1681565b60405167ffffffffffffffff9091168152602001610301565b34801561046457600080fd5b50610410610473366004613c3a565b61107c565b34801561048457600080fd5b5061043f670de0b6b3a764000081565b3480156104a057600080fd5b506104b46104af366004613ce4565b61111e565b6040516103019190613dea565b3480156104cd57600080fd5b5061034a6104dc366004613956565b61125c565b3480156104ed57600080fd5b5061043f64e8d4a5100081565b34801561050657600080fd5b50610410610515366004613dfd565b611272565b34801561052657600080fd5b506102f7610535366004613956565b6000908152610100602052604090205490565b34801561055457600080fd5b5061057e610563366004613956565b600090815260ca60205260409020546001600160a01b031690565b6040516001600160a01b039091168152602001610301565b3480156105a257600080fd5b506105b66105b1366004613e4e565b611313565b604080519485526020850193909352918301526060820152608001610301565b6104106105e4366004613e89565b611512565b3480156105f557600080fd5b506105b6610604366004613ecc565b611588565b34801561061557600080fd5b506102f7610624366004613956565b6101016020526000908152604090205481565b34801561064357600080fd5b506105b6610652366004613ecc565b6116a4565b34801561066357600080fd5b506102f7610672366004613956565b6101026020526000908152604090205481565b34801561069157600080fd5b506102f76106a0366004613956565b61175f565b3480156106b157600080fd5b5060ff5461057e906001600160a01b031681565b3480156106d157600080fd5b506102f76106e0366004613956565b611785565b3480156106f157600080fd5b50610410610700366004613eee565b6117e7565b34801561071157600080fd5b5061043f66071afd498d000081565b34801561072c57600080fd5b506102f761073b366004613956565b6117f6565b61041061074e366004613a99565b611801565b34801561075f57600080fd5b506102f761076e366004613e89565b611c1d565b34801561077f57600080fd5b5061041061078e366004613eee565b33600090815260c9602090815260408083206001600160a01b0395909516835293905291909120805460ff1916911515919091179055565b3480156107d257600080fd5b506104106107e1366004613f2a565b611d4a565b3480156107f257600080fd5b506102f7610801366004613956565b611ecf565b34801561081257600080fd5b506105b6610821366004613e4e565b611f17565b34801561083257600080fd5b5060fe5461043f9067ffffffffffffffff1681565b34801561085357600080fd5b506103a8610862366004613956565b61209c565b34801561087357600080fd5b5061034a610882366004613a66565b6001600160a01b03918216600090815260666020908152604080832093909416825291909152205460ff1690565b3480156108bc57600080fd5b506102f76108cb366004613f45565b61213e565b3480156108dc57600080fd5b506104106108eb366004613f77565b6121a7565b3480156108fc57600080fd5b506102f761090b366004613e4e565b612242565b60006001600160a01b0383166109935760405162461bcd60e51b815260206004820152602a60248201527f455243313135353a2061646472657373207a65726f206973206e6f742061207660448201527f616c6964206f776e65720000000000000000000000000000000000000000000060648201526084015b60405180910390fd5b5060008181526065602090815260408083206001600160a01b03861684529091529020545b92915050565b60007fffffffff0000000000000000000000000000000000000000000000000000000082167fd9b67a26000000000000000000000000000000000000000000000000000000001480610a5157507fffffffff0000000000000000000000000000000000000000000000000000000082167f0e89341c00000000000000000000000000000000000000000000000000000000145b806109b857507f01ffc9a7000000000000000000000000000000000000000000000000000000007fffffffff000000000000000000000000000000000000000000000000000000008316146109b8565b6060610b0c6040518061014001604052806000815260200160006001600160a01b03168152602001600067ffffffffffffffff168152602001600081526020016000815260200160008152602001600081526020016000815260200160008152602001600081525090565b82815266071afd498d00006040820152610b3b83600090815260ca60205260409020546001600160a01b031690565b6001600160a01b03166020820152610b60836000908152610100602052604090205490565b6060820152610b6e8361175f565b6080820152610b7c836117f6565b60a0820152610b8a83611785565b60c082015260a081015160808201516060830151610bb29266071afd498d000092909161213e565b61012082015260a081015160808201516060830151610bdd9266071afd498d00009290916001611f17565b505060e08301525060a081015160808201516060830151610c0a9266071afd498d00009290916001611313565b5050610100830152506040517f2a5a1a1400000000000000000000000000000000000000000000000000000000815273D7365F13697a5748DBb8FFf74C643FB1ae64480e90632a5a1a1490610c63908490600401613fdc565b600060405180830381865af4158015610c80573d6000803e3d6000fd5b505050506040513d6000823e601f3d908101601f19168201604052610ca8919081019061406d565b9392505050565b610cb761228e565b610cc08461125c565b610d0c5760405162461bcd60e51b815260206004820152601a60248201527f4d6f73734875623a206e6f6e6578736974656e7420746f6b656e000000000000604482015260640161098a565b60008211610d825760405162461bcd60e51b815260206004820152602660248201527f4d6f73734875623a20616d6f756e74206d75737420626520677265617465722060448201527f7468616e20300000000000000000000000000000000000000000000000000000606482015260840161098a565b6000610d8d856117f6565b905082811015610ddf5760405162461bcd60e51b815260206004820152601d60248201527f48696b653a20746f6f206d75636820616d6f756e7420746f206275726e000000604482015260640161098a565b600060405180610100016040528087815260200166071afd498d000067ffffffffffffffff168152602001838152602001610e198861175f565b8152602001610e35886000908152610100602052604090205490565b8152602001610e51886000908152610103602052604090205490565b8152602001858152602001866001600160a01b03168152509050600080600080610e9285602001518660400151876060015188608001518960c00151611313565b935093509350935086841015610f365760405162461bcd60e51b815260206004820152604960248201527f4d6f73734875623a2072656365697665642076616c7565206d7573742062652060448201527f67726561746572207468616e206f7220657175616c20746f206d696e696d756d60648201527f2072656365697665640000000000000000000000000000000000000000000000608482015260a40161098a565b610f493386600001518760c001516122e7565b610f8989856040518060400160405280601e81526020017f4d6f73734875623a207472616e736665722076616c7565206661696c6564000081525061234b565b60ff5460408051606081019091526023808252610fb9926001600160a01b03169184916144d4602083013961234b565b8451600090815260ca6020526040902054610ff7906001600160a01b03165b8360405180606001604052806027815260200161448a6027913961234b565b845160e08087015160c0808901516040805133815260208101969096526001600160a01b039093168584015260608501526080840187905260a084018690528301849052517f63b3cda962e4a1210ab73053c3af0163312c753575551b8c9d04906ec6e0ff679281900390910190a1505050505050611076600160cc55565b50505050565b6001600160a01b03851633148061109857506110988533610882565b61110a5760405162461bcd60e51b815260206004820152602e60248201527f455243313135353a2063616c6c6572206973206e6f7420746f6b656e206f776e60448201527f6572206f7220617070726f766564000000000000000000000000000000000000606482015260840161098a565b61111785858585856123c1565b5050505050565b606081518351146111975760405162461bcd60e51b815260206004820152602960248201527f455243313135353a206163636f756e747320616e6420696473206c656e67746860448201527f206d69736d617463680000000000000000000000000000000000000000000000606482015260840161098a565b6000835167ffffffffffffffff8111156111b3576111b3613ad4565b6040519080825280602002602001820160405280156111dc578160200160208202803683370190505b50905060005b845181101561125457611227858281518110611200576112006140ef565b602002602001015185838151811061121a5761121a6140ef565b6020026020010151610910565b828281518110611239576112396140ef565b602090810291909101015261124d8161411b565b90506111e2565b509392505050565b60008181526097602052604081205415156109b8565b600082815260ca602052604090205482906001600160a01b0316338114806112bd57506001600160a01b038116600090815260c96020908152604080832033845290915290205460ff165b6113095760405162461bcd60e51b815260206004820152601b60248201527f4d6f73733a2044656c6567617465206e6f7420617070726f7665640000000000604482015260640161098a565b6110768484612668565b6000806000808488101561138f5760405162461bcd60e51b815260206004820152603360248201527f4d6f73734875623a204275726e20616d6f756e74206d757374206265206c657360448201527f73207468616e20746f74616c20737570706c7900000000000000000000000000606482015260840161098a565b8688116113a7576113a08587614135565b9250611488565b866113b2868a61414c565b11156114175760026113c48882614135565b866113d08b6002614135565b6113da919061414c565b6113e4919061414c565b6113ee908b614135565b6113f9886002614135565b611403919061415f565b61140d9087614135565b6113a09190614172565b6000611423888a61414c565b90506000611431828861414c565b905060026114468366071afd498d0000614135565b6114518a6002614135565b61145b919061415f565b6114659084614135565b61146f9190614172565b611479828a614135565b611483919061415f565b945050505b60fe54670de0b6b3a7640000906114a99067ffffffffffffffff1685614135565b6114b39190614172565b60fe54909250670de0b6b3a7640000906114e39068010000000000000000900467ffffffffffffffff1685614135565b6114ed9190614172565b9050806114fa838561414c565b611504919061414c565b935095509550955095915050565b61151a61228e565b8042106115695760405162461bcd60e51b815260206004820152601360248201527f4d6f73734875623a2074782074696d656f757400000000000000000000000000604482015260640161098a565b61157686868686866126b2565b611580600160cc55565b505050505050565b6000808080806115ad87600090815260ca60205260409020546001600160a01b031690565b6001600160a01b0316036116035760405162461bcd60e51b815260206004820152601d60248201527f4d6f73734875623a20746f6b656e206973206e6f742063726561746564000000604482015260640161098a565b66071afd498d00006000611616886117f6565b905060006116238961175f565b60008a81526101006020526040902054909150806116835760405162461bcd60e51b815260206004820152601960248201527f4d6f73734875623a207a65726f20666c6f6f7220707269636500000000000000604482015260640161098a565b611690848484848d611f17565b929d919c509a509098509650505050505050565b6000808080806116c987600090815260ca60205260409020546001600160a01b031690565b6001600160a01b03160361171f5760405162461bcd60e51b815260206004820152601d60248201527f4d6f73734875623a20746f6b656e206973206e6f742063726561746564000000604482015260640161098a565b66071afd498d00006000611732886117f6565b9050600061173f8961175f565b60008a81526101006020526040902054909150611690848484848d611313565b600081815261010260209081526040808320546101019092528220546109b8919061415f565b6000818152610103602090815260408083205461010483528184205461010290935290832054909182916117b99190614172565b6117c39190614135565b600084815261010160205260409020546117dd919061415f565b6109b8919061415f565b6117f2338383612cb5565b5050565b60006109b882612da9565b61180961228e565b6000821161187f5760405162461bcd60e51b815260206004820152602660248201527f4d6f73734875623a20616d6f756e74206d75737420626520677265617465722060448201527f7468616e20300000000000000000000000000000000000000000000000000000606482015260840161098a565b604080516101008101825285815266071afd498d0000602082015260009181016118a8876117f6565b81526020016118b68761175f565b81526020016118d2876000908152610100602052604090205490565b81526020016118ee876000908152610103602052604090205490565b8152602001848152602001856001600160a01b0316815250905060008060008061192f85602001518660400151876060015188608001518960c00151611f17565b9350935093509350833410156119ad5760405162461bcd60e51b815260206004820152602360248201527f4d6f73734875623a20696e73756666696369656e742066756e647320746f206d60448201527f696e740000000000000000000000000000000000000000000000000000000000606482015260840161098a565b85841115611a235760405162461bcd60e51b815260206004820152603960248201527f4d6f73734875623a2066756e6473206d757374206265206c657373207468616e60448201527f206f7220657175616c20746f206d6178696d756d2073656e7400000000000000606482015260840161098a565b83341115611a5757611a5733611a39863461414c565b6040518060600160405280602381526020016144b16023913961234b565b60ff5460408051606081019091526023808252611a87926001600160a01b03169184916144d4602083013961234b565b8451600090815260ca6020526040902054611aaa906001600160a01b0316610fd8565b60408086015186516000908152610101602090815283822054895183526101049091529281205460a089015160c08a01519294611aeb949390929190612242565b90506000611b0b8760200151886040015189606001518a6080015161213e565b875160009081526101026020526040902054909150821115611b86576040808801518851600090815261010160205291909120546080890151611b609291908590611b568a8761415f565b8c60c00151611c1d565b875160009081526101006020908152604080832093909355895182526101029052208290555b611b9d8760e0015188600001518960c00151612dbd565b865160e08089015160c0808b01516040805133815260208101969096526001600160a01b03909316858401526060850152608084018a905260a084018890528301869052517fdcaf588f09c2b7600db130d5b5166c2c3eecdb321c81cdaba0921b1205d9888f9281900390910190a150505050505050611076600160cc55565b600080611c2a868861415f565b905080611c37848a61415f565b11611c845760405162461bcd60e51b815260206004820152601160248201527f696e76616c696420706172616d65746572000000000000000000000000000000604482015260640161098a565b600081611c91858b61415f565b611c9b919061414c565b9050611ca7848a61415f565b611cb2906002614135565b81611cc48166071afd498d0000614135565b611cce9190614135565b611cd9876002614135565b611ce3919061414c565b611ced9190614172565b9250858311611d3e5760405162461bcd60e51b815260206004820152600d60248201527f696e76616c696420666c6f6f7200000000000000000000000000000000000000604482015260640161098a565b50509695505050505050565b600054610100900460ff1615808015611d6a5750600054600160ff909116105b80611d845750303b158015611d84575060005460ff166001145b611df65760405162461bcd60e51b815260206004820152602e60248201527f496e697469616c697a61626c653a20636f6e747261637420697320616c72656160448201527f647920696e697469616c697a6564000000000000000000000000000000000000606482015260840161098a565b6000805460ff191660011790558015611e19576000805461ff0019166101001790555b60ff80547fffffffffffffffffffffffff0000000000000000000000000000000000000000166001600160a01b03841617905560fe80547fffffffffffffffffffffffffffffffff00000000000000000000000000000000166e58d15e176280000058d15e1762800017905580156117f2576000805461ff0019169055604051600181527f7f26b83ff96e1f2b6a682f133852f6798a09c465da95921460cefb3847402498906020015b60405180910390a15050565b600080611edb836117f6565b90506000611ee88461175f565b60008581526101006020526040902054909150611f0e66071afd498d000084848461213e565b95945050505050565b600080808086611f27868a61415f565b11611f3d57611f368587614135565b9250612020565b86881115611fa4576002611f518882614135565b86611f5d8b6002614135565b611f67919061415f565b611f71919061414c565b611f7b908b614135565b611f86886002614135565b611f90919061415f565b611f9a9087614135565b611f369190614172565b6000611fb0898961414c565b9050600088611fbf888c61415f565b611fc9919061414c565b90506002611fde8266071afd498d0000614135565b611fe98a6002614135565b611ff3919061415f565b611ffd9083614135565b6120079190614172565b612011838a614135565b61201b919061415f565b945050505b60fe54670de0b6b3a7640000906120419067ffffffffffffffff1685614135565b61204b9190614172565b60fe54909250670de0b6b3a76400009061207b9068010000000000000000900467ffffffffffffffff1685614135565b6120859190614172565b905080612092838561415f565b611504919061415f565b600081815260cb602052604090208054606091906120b990614194565b80601f01602080910402602001604051908101604052809291908181526020018280546120e590614194565b80156121325780601f1061210757610100808354040283529160200191612132565b820191906000526020600020905b81548152906001019060200180831161211557829003601f168201915b50505050509050919050565b6000828411612158576121518483614135565b905061219f565b6000612164848661414c565b90506002816121738189614135565b61217d9190614135565b6121879190614172565b6121918685614135565b61219b919061415f565b9150505b949350505050565b6001600160a01b0385163314806121c357506121c38533610882565b6122355760405162461bcd60e51b815260206004820152602e60248201527f455243313135353a2063616c6c6572206973206e6f7420746f6b656e206f776e60448201527f6572206f7220617070726f766564000000000000000000000000000000000000606482015260840161098a565b6111178585858585612e65565b60008461224f838861415f565b1115611f0e5760008386612263858a61415f565b61226d919061414c565b6122779190614172565b90506122838582614135565b979650505050505050565b600260cc54036122e05760405162461bcd60e51b815260206004820152601f60248201527f5265656e7472616e637947756172643a207265656e7472616e742063616c6c00604482015260640161098a565b600260cc55565b6122f283838361304d565b60006122fd836117f6565b111561234657817f6bb7ff708619ba0610cba295a58592e0451dee2622938c8755667688daf3529b60405161233d90602080825260009082015260400190565b60405180910390a25b505050565b6000836001600160a01b03168360405160006040518083038185875af1925050503d8060008114612398576040519150601f19603f3d011682016040523d82523d6000602084013e61239d565b606091505b505090508082906111175760405162461bcd60e51b815260040161098a9190613a53565b81518351146124385760405162461bcd60e51b815260206004820152602860248201527f455243313135353a2069647320616e6420616d6f756e7473206c656e6774682060448201527f6d69736d61746368000000000000000000000000000000000000000000000000606482015260840161098a565b6001600160a01b0384166124b45760405162461bcd60e51b815260206004820152602560248201527f455243313135353a207472616e7366657220746f20746865207a65726f20616460448201527f6472657373000000000000000000000000000000000000000000000000000000606482015260840161098a565b336124c3818787878787613219565b60005b84518110156126025760008582815181106124e3576124e36140ef565b602002602001015190506000858381518110612501576125016140ef565b60209081029190910181015160008481526065835260408082206001600160a01b038e1683529093529190912054909150818110156125a85760405162461bcd60e51b815260206004820152602a60248201527f455243313135353a20696e73756666696369656e742062616c616e636520666f60448201527f72207472616e7366657200000000000000000000000000000000000000000000606482015260840161098a565b60008381526065602090815260408083206001600160a01b038e8116855292528083208585039055908b168252812080548492906125e790849061415f565b92505081905550505050806125fb9061411b565b90506124c6565b50846001600160a01b0316866001600160a01b0316826001600160a01b03167f4a39dc06d4c0dbc64b70af90fd698a233a518aa5d07e595d983b8c0526c8f7fb87876040516126529291906141ce565b60405180910390a46115808187878787876133a7565b600082815260cb602052604090206126808282614239565b507f9881d3fc43c7ddce9f432f1abbb2720b9aa58489a32de89d7269df1807ac4d968282604051611ec39291906142f9565b6126bb8561125c565b156127085760405162461bcd60e51b815260206004820152601560248201527f4d6f73734875623a20746f6b656e206578697374730000000000000000000000604482015260640161098a565b600085815260ca60205260409020546001600160a01b03161561276d5760405162461bcd60e51b815260206004820152601960248201527f4d6f73734875623a20746f6b656e206973206372656174656400000000000000604482015260640161098a565b64e8d4a510008410156127e85760405162461bcd60e51b815260206004820152603d60248201527f4d6f73734875623a20666c6f6f72206d7573742062652067726561746572207460448201527f68616e206f7220657175616c20746f206d696e696d756d20666c6f6f72000000606482015260840161098a565b6000831161285e5760405162461bcd60e51b815260206004820152602f60248201527f4d6f73734875623a20666c6f6f7220737570706c79206d75737420626520677260448201527f6561746572207468616e207a65726f0000000000000000000000000000000000606482015260840161098a565b600082116128d45760405162461bcd60e51b815260206004820152602b60248201527f4d6f73734875623a2061646a7573742073746570206d7573742067726561746560448201527f72207468616e207a65726f000000000000000000000000000000000000000000606482015260840161098a565b6000811161294a5760405162461bcd60e51b815260206004820152602660248201527f4d6f73734875623a20667353746570206d75737420677265617465722074686160448201527f6e207a65726f0000000000000000000000000000000000000000000000000000606482015260840161098a565b8181106129bf5760405162461bcd60e51b815260206004820152602660248201527f4d6f73734875623a20667353746570206d757374206265206c6573732074686160448201527f6e20737465700000000000000000000000000000000000000000000000000000606482015260840161098a565b60fe54600090670de0b6b3a7640000906129ef9068010000000000000000900467ffffffffffffffff1687614135565b6129f99190614172565b9050612a05818661415f565b341015612a7a5760405162461bcd60e51b815260206004820152602560248201527f4d6f73734875623a20696e73756666696369656e742066756e647320746f206360448201527f7265617465000000000000000000000000000000000000000000000000000000606482015260840161098a565b612a84818661415f565b341115612b5d5760003382612a99883461414c565b612aa3919061414c565b604051600081818185875af1925050503d8060008114612adf576040519150601f19603f3d011682016040523d82523d6000602084013e612ae4565b606091505b5050905080612b5b5760405162461bcd60e51b815260206004820152602360248201527f4d6f73734875623a207472616e736665722066756e6473206261636b2066616960448201527f6c65640000000000000000000000000000000000000000000000000000000000606482015260840161098a565b505b60ff546040516000916001600160a01b03169083908381818185875af1925050503d8060008114612baa576040519150601f19603f3d011682016040523d82523d6000602084013e612baf565b606091505b5050905080612c005760405162461bcd60e51b815260206004820152601f60248201527f4d6f73734875623a206661696c656420746f2072656365697665206665652000604482015260640161098a565b612c0a87336135ab565b612c1633886001612dbd565b6000878152610100602081815260408084208a90556101018252808420899055610103825280842088905561010482529283902086905582513381529081018a9052918201889052606082018790526080820186905260a0820185905260c0820188905260e082018490527f460cf3f1c0e37440b24f7a57d7c52f04ca2f3df751bcb4097d4a9e383b1a2477910160405180910390a150505050505050565b816001600160a01b0316836001600160a01b031603612d3c5760405162461bcd60e51b815260206004820152602960248201527f455243313135353a2073657474696e6720617070726f76616c2073746174757360448201527f20666f722073656c660000000000000000000000000000000000000000000000606482015260840161098a565b6001600160a01b03838116600081815260666020908152604080832094871680845294825291829020805460ff191686151590811790915591519182527f17307eab39ab6107e8899845ad3d59bd9653f200f220920489ca2b5937696c31910160405180910390a3505050565b6000818152609760205260408120546109b8565b60008111612e0d5760405162461bcd60e51b815260206004820152601160248201527f4d6f73733a207a65726f20616d6f756e74000000000000000000000000000000604482015260640161098a565b604080516000815260208101909152612e2b90849084908490613678565b817f6bb7ff708619ba0610cba295a58592e0451dee2622938c8755667688daf3529b60405161233d90602080825260009082015260400190565b6001600160a01b038416612ee15760405162461bcd60e51b815260206004820152602560248201527f455243313135353a207472616e7366657220746f20746865207a65726f20616460448201527f6472657373000000000000000000000000000000000000000000000000000000606482015260840161098a565b336000612eed856137b0565b90506000612efa856137b0565b9050612f0a838989858589613219565b60008681526065602090815260408083206001600160a01b038c16845290915290205485811015612fa35760405162461bcd60e51b815260206004820152602a60248201527f455243313135353a20696e73756666696369656e742062616c616e636520666f60448201527f72207472616e7366657200000000000000000000000000000000000000000000606482015260840161098a565b60008781526065602090815260408083206001600160a01b038d8116855292528083208985039055908a16825281208054889290612fe290849061415f565b909155505060408051888152602081018890526001600160a01b03808b16928c821692918816917fc3d58168c5ae7397731d063d5bbf3d657854427343f4c083240f7aacaa2d0f62910160405180910390a4613042848a8a8a8a8a6137fb565b505050505050505050565b6001600160a01b0383166130c95760405162461bcd60e51b815260206004820152602360248201527f455243313135353a206275726e2066726f6d20746865207a65726f206164647260448201527f6573730000000000000000000000000000000000000000000000000000000000606482015260840161098a565b3360006130d5846137b0565b905060006130e2846137b0565b905061310283876000858560405180602001604052806000815250613219565b60008581526065602090815260408083206001600160a01b038a1684529091529020548481101561319a5760405162461bcd60e51b8152602060048201526024808201527f455243313135353a206275726e20616d6f756e7420657863656564732062616c60448201527f616e636500000000000000000000000000000000000000000000000000000000606482015260840161098a565b60008681526065602090815260408083206001600160a01b038b81168086529184528285208a8703905582518b81529384018a90529092908816917fc3d58168c5ae7397731d063d5bbf3d657854427343f4c083240f7aacaa2d0f62910160405180910390a46040805160208101909152600090525b50505050505050565b6001600160a01b0385166132a05760005b835181101561329e57828181518110613245576132456140ef565b602002602001015160976000868481518110613263576132636140ef565b602002602001015181526020019081526020016000206000828254613288919061415f565b9091555061329790508161411b565b905061322a565b505b6001600160a01b0384166115805760005b83518110156132105760008482815181106132ce576132ce6140ef565b6020026020010151905060008483815181106132ec576132ec6140ef565b60200260200101519050600060976000848152602001908152602001600020549050818110156133845760405162461bcd60e51b815260206004820152602860248201527f455243313135353a206275726e20616d6f756e74206578636565647320746f7460448201527f616c537570706c79000000000000000000000000000000000000000000000000606482015260840161098a565b600092835260976020526040909220910390556133a08161411b565b90506132b1565b6001600160a01b0384163b15611580576040517fbc197c810000000000000000000000000000000000000000000000000000000081526001600160a01b0385169063bc197c81906134049089908990889088908890600401614312565b6020604051808303816000875af192505050801561343f575060408051601f3d908101601f1916820190925261343c91810190614370565b60015b6134f45761344b61438d565b806308c379a003613484575061345f6143a9565b8061346a5750613486565b8060405162461bcd60e51b815260040161098a9190613a53565b505b60405162461bcd60e51b815260206004820152603460248201527f455243313135353a207472616e7366657220746f206e6f6e2d4552433131353560448201527f526563656976657220696d706c656d656e746572000000000000000000000000606482015260840161098a565b7fffffffff0000000000000000000000000000000000000000000000000000000081167fbc197c8100000000000000000000000000000000000000000000000000000000146132105760405162461bcd60e51b815260206004820152602860248201527f455243313135353a204552433131353552656365697665722072656a6563746560448201527f6420746f6b656e73000000000000000000000000000000000000000000000000606482015260840161098a565b6135b48261125c565b156136015760405162461bcd60e51b815260206004820152601260248201527f4d6f73733a20746f6b656e206578697374730000000000000000000000000000604482015260640161098a565b600082815260ca602090815260409182902080547fffffffffffffffffffffffff0000000000000000000000000000000000000000166001600160a01b0385169081179091558251858152918201527fc0186d9ba7364ebd80a7010121367f481af81e1028bf368b2172fedf2c6fc7de9101611ec3565b6001600160a01b0384166136f45760405162461bcd60e51b815260206004820152602160248201527f455243313135353a206d696e7420746f20746865207a65726f2061646472657360448201527f7300000000000000000000000000000000000000000000000000000000000000606482015260840161098a565b336000613700856137b0565b9050600061370d856137b0565b905061371e83600089858589613219565b60008681526065602090815260408083206001600160a01b038b1684529091528120805487929061375090849061415f565b909155505060408051878152602081018790526001600160a01b03808a1692600092918716917fc3d58168c5ae7397731d063d5bbf3d657854427343f4c083240f7aacaa2d0f62910160405180910390a4613210836000898989896137fb565b604080516001808252818301909252606091600091906020808301908036833701905050905082816000815181106137ea576137ea6140ef565b602090810291909101015292915050565b6001600160a01b0384163b15611580576040517ff23a6e610000000000000000000000000000000000000000000000000000000081526001600160a01b0385169063f23a6e61906138589089908990889088908890600401614451565b6020604051808303816000875af1925050508015613893575060408051601f3d908101601f1916820190925261389091810190614370565b60015b61389f5761344b61438d565b7fffffffff0000000000000000000000000000000000000000000000000000000081167ff23a6e6100000000000000000000000000000000000000000000000000000000146132105760405162461bcd60e51b815260206004820152602860248201527f455243313135353a204552433131353552656365697665722072656a6563746560448201527f6420746f6b656e73000000000000000000000000000000000000000000000000606482015260840161098a565b60006020828403121561396857600080fd5b5035919050565b80356001600160a01b038116811461398657600080fd5b919050565b6000806040838503121561399e57600080fd5b6139a78361396f565b946020939093013593505050565b7fffffffff00000000000000000000000000000000000000000000000000000000811681146139e357600080fd5b50565b6000602082840312156139f857600080fd5b8135610ca8816139b5565b60005b83811015613a1e578181015183820152602001613a06565b50506000910152565b60008151808452613a3f816020860160208601613a03565b601f01601f19169290920160200192915050565b602081526000610ca86020830184613a27565b60008060408385031215613a7957600080fd5b613a828361396f565b9150613a906020840161396f565b90509250929050565b60008060008060808587031215613aaf57600080fd5b84359350613abf6020860161396f565b93969395505050506040820135916060013590565b634e487b7160e01b600052604160045260246000fd5b601f19601f830116810181811067ffffffffffffffff82111715613b1057613b10613ad4565b6040525050565b600067ffffffffffffffff821115613b3157613b31613ad4565b5060051b60200190565b600082601f830112613b4c57600080fd5b81356020613b5982613b17565b604051613b668282613aea565b83815260059390931b8501820192828101915086841115613b8657600080fd5b8286015b84811015613ba15780358352918301918301613b8a565b509695505050505050565b600067ffffffffffffffff821115613bc657613bc6613ad4565b50601f01601f191660200190565b6000613bdf83613bac565b604051613bec8282613aea565b809250848152858585011115613c0157600080fd5b8484602083013760006020868301015250509392505050565b600082601f830112613c2b57600080fd5b610ca883833560208501613bd4565b600080600080600060a08688031215613c5257600080fd5b613c5b8661396f565b9450613c696020870161396f565b9350604086013567ffffffffffffffff80821115613c8657600080fd5b613c9289838a01613b3b565b94506060880135915080821115613ca857600080fd5b613cb489838a01613b3b565b93506080880135915080821115613cca57600080fd5b50613cd788828901613c1a565b9150509295509295909350565b60008060408385031215613cf757600080fd5b823567ffffffffffffffff80821115613d0f57600080fd5b818501915085601f830112613d2357600080fd5b81356020613d3082613b17565b604051613d3d8282613aea565b83815260059390931b8501820192828101915089841115613d5d57600080fd5b948201945b83861015613d8257613d738661396f565b82529482019490820190613d62565b96505086013592505080821115613d9857600080fd5b50613da585828601613b3b565b9150509250929050565b600081518084526020808501945080840160005b83811015613ddf57815187529582019590820190600101613dc3565b509495945050505050565b602081526000610ca86020830184613daf565b60008060408385031215613e1057600080fd5b82359150602083013567ffffffffffffffff811115613e2e57600080fd5b8301601f81018513613e3f57600080fd5b613da585823560208401613bd4565b600080600080600060a08688031215613e6657600080fd5b505083359560208501359550604085013594606081013594506080013592509050565b60008060008060008060c08789031215613ea257600080fd5b505084359660208601359650604086013595606081013595506080810135945060a0013592509050565b60008060408385031215613edf57600080fd5b50508035926020909101359150565b60008060408385031215613f0157600080fd5b613f0a8361396f565b915060208301358015158114613f1f57600080fd5b809150509250929050565b600060208284031215613f3c57600080fd5b610ca88261396f565b60008060008060808587031215613f5b57600080fd5b5050823594602084013594506040840135936060013592509050565b600080600080600060a08688031215613f8f57600080fd5b613f988661396f565b9450613fa66020870161396f565b93506040860135925060608601359150608086013567ffffffffffffffff811115613fd057600080fd5b613cd788828901613c1a565b81518152602080830151610140830191614000908401826001600160a01b03169052565b50604083015161401c604084018267ffffffffffffffff169052565b50606083015160608301526080830151608083015260a083015160a083015260c083015160c083015260e083015160e083015261010080840151818401525061012080840151818401525092915050565b60006020828403121561407f57600080fd5b815167ffffffffffffffff81111561409657600080fd5b8201601f810184136140a757600080fd5b80516140b281613bac565b6040516140bf8282613aea565b8281528660208486010111156140d457600080fd5b6140e5836020830160208701613a03565b9695505050505050565b634e487b7160e01b600052603260045260246000fd5b634e487b7160e01b600052601160045260246000fd5b6000600019820361412e5761412e614105565b5060010190565b80820281158282048414176109b8576109b8614105565b818103818111156109b8576109b8614105565b808201808211156109b8576109b8614105565b60008261418f57634e487b7160e01b600052601260045260246000fd5b500490565b600181811c908216806141a857607f821691505b6020821081036141c857634e487b7160e01b600052602260045260246000fd5b50919050565b6040815260006141e16040830185613daf565b8281036020840152611f0e8185613daf565b601f82111561234657600081815260208120601f850160051c8101602086101561421a5750805b601f850160051c820191505b8181101561158057828155600101614226565b815167ffffffffffffffff81111561425357614253613ad4565b614267816142618454614194565b846141f3565b602080601f83116001811461429c57600084156142845750858301515b600019600386901b1c1916600185901b178555611580565b600085815260208120601f198616915b828110156142cb578886015182559484019460019091019084016142ac565b50858210156142e95787850151600019600388901b60f8161c191681555b5050505050600190811b01905550565b82815260406020820152600061219f6040830184613a27565b60006001600160a01b03808816835280871660208401525060a0604083015261433e60a0830186613daf565b82810360608401526143508186613daf565b905082810360808401526143648185613a27565b98975050505050505050565b60006020828403121561438257600080fd5b8151610ca8816139b5565b600060033d11156143a65760046000803e5060005160e01c5b90565b600060443d10156143b75790565b6040517ffffffffffffffffffffffffffffffffffffffffffffffffffffffffffffffffc803d016004833e81513d67ffffffffffffffff816024840111818411171561440557505050505090565b828501915081518181111561441d5750505050505090565b843d87010160208285010111156144375750505050505090565b61444660208286010187613aea565b509095945050505050565b60006001600160a01b03808816835280871660208401525084604083015283606083015260a0608083015261228360a0830184613a2756fe4d6f73734875623a206661696c656420746f207472616e736665722063726561746f72206665654d6f73734875623a207472616e736665722066756e6473206261636b206661696c65644d6f73734875623a206661696c656420746f207472616e736665722064657620666565a264697066735822122040b97d3747981b98cca466ad02ec7ed8461e24da7af87d5e8af3bff0d3bdaf8764736f6c63430008130033",
  "deployedBytecode": "0x6080604052600436106102bd5760003560e01c806375e583e61161016e578063c3c854b6116100cb578063e2e1b8901161007f578063f213edda11610064578063f213edda146108b0578063f242432a146108d0578063f740fd34146108f057600080fd5b8063e2e1b89014610847578063e985e9c51461086757600080fd5b8063c5464eb4116100b0578063c5464eb4146107e6578063c79ab6a214610806578063cdb9c4eb1461082657600080fd5b8063c3c854b614610773578063c4d66de8146107c657600080fd5b8063a22cb46511610122578063bd85b03911610107578063bd85b03914610720578063bf2c8a9414610740578063c0facbea1461075357600080fd5b8063a22cb465146106e5578063b4f40c611461070557600080fd5b8063810c373811610153578063810c37381461068557806391cca3db146106a5578063936906f1146106c557600080fd5b806375e583e6146106375780637ab58add1461065757600080fd5b80634e1273f41161021c578063589a1743116101d05780636e4ae82c116101b55780636e4ae82c146105d657806371fc76f5146105e95780637272d03c1461060957600080fd5b8063589a17431461054857806361c44d601461059657600080fd5b8063503e0a9811610201578063503e0a98146104e1578063504d9578146104fa578063504f5e561461051a57600080fd5b80634e1273f4146104945780634f558e79146104c157600080fd5b80631930e8251161027357806329bff6901161025857806329bff690146104125780632eb2c2d61461045857806343a54a0c1461047857600080fd5b80631930e825146103b557806327fc3637146103f057600080fd5b806301ffc9a7116102a457806301ffc9a71461032a57806309501e661461035a5780630e89341c1461038857600080fd5b8062d92e39146102c9578062fdd58e1461030a57600080fd5b366102c457005b600080fd5b3480156102d557600080fd5b506102f76102e4366004613956565b6000908152610103602052604090205490565b6040519081526020015b60405180910390f35b34801561031657600080fd5b506102f761032536600461398b565b610910565b34801561033657600080fd5b5061034a6103453660046139e6565b6109be565b6040519015158152602001610301565b34801561036657600080fd5b506102f7610375366004613956565b6000908152610104602052604090205490565b34801561039457600080fd5b506103a86103a3366004613956565b610aa1565b6040516103019190613a53565b3480156103c157600080fd5b5061034a6103d0366004613a66565b60c960209081526000928352604080842090915290825290205460ff1681565b3480156103fc57600080fd5b5061041061040b366004613a99565b610caf565b005b34801561041e57600080fd5b5060fe5461043f9068010000000000000000900467ffffffffffffffff1681565b60405167ffffffffffffffff9091168152602001610301565b34801561046457600080fd5b50610410610473366004613c3a565b61107c565b34801561048457600080fd5b5061043f670de0b6b3a764000081565b3480156104a057600080fd5b506104b46104af366004613ce4565b61111e565b6040516103019190613dea565b3480156104cd57600080fd5b5061034a6104dc366004613956565b61125c565b3480156104ed57600080fd5b5061043f64e8d4a5100081565b34801561050657600080fd5b50610410610515366004613dfd565b611272565b34801561052657600080fd5b506102f7610535366004613956565b6000908152610100602052604090205490565b34801561055457600080fd5b5061057e610563366004613956565b600090815260ca60205260409020546001600160a01b031690565b6040516001600160a01b039091168152602001610301565b3480156105a257600080fd5b506105b66105b1366004613e4e565b611313565b604080519485526020850193909352918301526060820152608001610301565b6104106105e4366004613e89565b611512565b3480156105f557600080fd5b506105b6610604366004613ecc565b611588565b34801561061557600080fd5b506102f7610624366004613956565b6101016020526000908152604090205481565b34801561064357600080fd5b506105b6610652366004613ecc565b6116a4565b34801561066357600080fd5b506102f7610672366004613956565b6101026020526000908152604090205481565b34801561069157600080fd5b506102f76106a0366004613956565b61175f565b3480156106b157600080fd5b5060ff5461057e906001600160a01b031681565b3480156106d157600080fd5b506102f76106e0366004613956565b611785565b3480156106f157600080fd5b50610410610700366004613eee565b6117e7565b34801561071157600080fd5b5061043f66071afd498d000081565b34801561072c57600080fd5b506102f761073b366004613956565b6117f6565b61041061074e366004613a99565b611801565b34801561075f57600080fd5b506102f761076e366004613e89565b611c1d565b34801561077f57600080fd5b5061041061078e366004613eee565b33600090815260c9602090815260408083206001600160a01b0395909516835293905291909120805460ff1916911515919091179055565b3480156107d257600080fd5b506104106107e1366004613f2a565b611d4a565b3480156107f257600080fd5b506102f7610801366004613956565b611ecf565b34801561081257600080fd5b506105b6610821366004613e4e565b611f17565b34801561083257600080fd5b5060fe5461043f9067ffffffffffffffff1681565b34801561085357600080fd5b506103a8610862366004613956565b61209c565b34801561087357600080fd5b5061034a610882366004613a66565b6001600160a01b03918216600090815260666020908152604080832093909416825291909152205460ff1690565b3480156108bc57600080fd5b506102f76108cb366004613f45565b61213e565b3480156108dc57600080fd5b506104106108eb366004613f77565b6121a7565b3480156108fc57600080fd5b506102f761090b366004613e4e565b612242565b60006001600160a01b0383166109935760405162461bcd60e51b815260206004820152602a60248201527f455243313135353a2061646472657373207a65726f206973206e6f742061207660448201527f616c6964206f776e65720000000000000000000000000000000000000000000060648201526084015b60405180910390fd5b5060008181526065602090815260408083206001600160a01b03861684529091529020545b92915050565b60007fffffffff0000000000000000000000000000000000000000000000000000000082167fd9b67a26000000000000000000000000000000000000000000000000000000001480610a5157507fffffffff0000000000000000000000000000000000000000000000000000000082167f0e89341c00000000000000000000000000000000000000000000000000000000145b806109b857507f01ffc9a7000000000000000000000000000000000000000000000000000000007fffffffff000000000000000000000000000000000000000000000000000000008316146109b8565b6060610b0c6040518061014001604052806000815260200160006001600160a01b03168152602001600067ffffffffffffffff168152602001600081526020016000815260200160008152602001600081526020016000815260200160008152602001600081525090565b82815266071afd498d00006040820152610b3b83600090815260ca60205260409020546001600160a01b031690565b6001600160a01b03166020820152610b60836000908152610100602052604090205490565b6060820152610b6e8361175f565b6080820152610b7c836117f6565b60a0820152610b8a83611785565b60c082015260a081015160808201516060830151610bb29266071afd498d000092909161213e565b61012082015260a081015160808201516060830151610bdd9266071afd498d00009290916001611f17565b505060e08301525060a081015160808201516060830151610c0a9266071afd498d00009290916001611313565b5050610100830152506040517f2a5a1a1400000000000000000000000000000000000000000000000000000000815273__$cea9be979eee3d87fb124d6cbb244bb0b5$__90632a5a1a1490610c63908490600401613fdc565b600060405180830381865af4158015610c80573d6000803e3d6000fd5b505050506040513d6000823e601f3d908101601f19168201604052610ca8919081019061406d565b9392505050565b610cb761228e565b610cc08461125c565b610d0c5760405162461bcd60e51b815260206004820152601a60248201527f4d6f73734875623a206e6f6e6578736974656e7420746f6b656e000000000000604482015260640161098a565b60008211610d825760405162461bcd60e51b815260206004820152602660248201527f4d6f73734875623a20616d6f756e74206d75737420626520677265617465722060448201527f7468616e20300000000000000000000000000000000000000000000000000000606482015260840161098a565b6000610d8d856117f6565b905082811015610ddf5760405162461bcd60e51b815260206004820152601d60248201527f48696b653a20746f6f206d75636820616d6f756e7420746f206275726e000000604482015260640161098a565b600060405180610100016040528087815260200166071afd498d000067ffffffffffffffff168152602001838152602001610e198861175f565b8152602001610e35886000908152610100602052604090205490565b8152602001610e51886000908152610103602052604090205490565b8152602001858152602001866001600160a01b03168152509050600080600080610e9285602001518660400151876060015188608001518960c00151611313565b935093509350935086841015610f365760405162461bcd60e51b815260206004820152604960248201527f4d6f73734875623a2072656365697665642076616c7565206d7573742062652060448201527f67726561746572207468616e206f7220657175616c20746f206d696e696d756d60648201527f2072656365697665640000000000000000000000000000000000000000000000608482015260a40161098a565b610f493386600001518760c001516122e7565b610f8989856040518060400160405280601e81526020017f4d6f73734875623a207472616e736665722076616c7565206661696c6564000081525061234b565b60ff5460408051606081019091526023808252610fb9926001600160a01b03169184916144d4602083013961234b565b8451600090815260ca6020526040902054610ff7906001600160a01b03165b8360405180606001604052806027815260200161448a6027913961234b565b845160e08087015160c0808901516040805133815260208101969096526001600160a01b039093168584015260608501526080840187905260a084018690528301849052517f63b3cda962e4a1210ab73053c3af0163312c753575551b8c9d04906ec6e0ff679281900390910190a1505050505050611076600160cc55565b50505050565b6001600160a01b03851633148061109857506110988533610882565b61110a5760405162461bcd60e51b815260206004820152602e60248201527f455243313135353a2063616c6c6572206973206e6f7420746f6b656e206f776e60448201527f6572206f7220617070726f766564000000000000000000000000000000000000606482015260840161098a565b61111785858585856123c1565b5050505050565b606081518351146111975760405162461bcd60e51b815260206004820152602960248201527f455243313135353a206163636f756e747320616e6420696473206c656e67746860448201527f206d69736d617463680000000000000000000000000000000000000000000000606482015260840161098a565b6000835167ffffffffffffffff8111156111b3576111b3613ad4565b6040519080825280602002602001820160405280156111dc578160200160208202803683370190505b50905060005b845181101561125457611227858281518110611200576112006140ef565b602002602001015185838151811061121a5761121a6140ef565b6020026020010151610910565b828281518110611239576112396140ef565b602090810291909101015261124d8161411b565b90506111e2565b509392505050565b60008181526097602052604081205415156109b8565b600082815260ca602052604090205482906001600160a01b0316338114806112bd57506001600160a01b038116600090815260c96020908152604080832033845290915290205460ff165b6113095760405162461bcd60e51b815260206004820152601b60248201527f4d6f73733a2044656c6567617465206e6f7420617070726f7665640000000000604482015260640161098a565b6110768484612668565b6000806000808488101561138f5760405162461bcd60e51b815260206004820152603360248201527f4d6f73734875623a204275726e20616d6f756e74206d757374206265206c657360448201527f73207468616e20746f74616c20737570706c7900000000000000000000000000606482015260840161098a565b8688116113a7576113a08587614135565b9250611488565b866113b2868a61414c565b11156114175760026113c48882614135565b866113d08b6002614135565b6113da919061414c565b6113e4919061414c565b6113ee908b614135565b6113f9886002614135565b611403919061415f565b61140d9087614135565b6113a09190614172565b6000611423888a61414c565b90506000611431828861414c565b905060026114468366071afd498d0000614135565b6114518a6002614135565b61145b919061415f565b6114659084614135565b61146f9190614172565b611479828a614135565b611483919061415f565b945050505b60fe54670de0b6b3a7640000906114a99067ffffffffffffffff1685614135565b6114b39190614172565b60fe54909250670de0b6b3a7640000906114e39068010000000000000000900467ffffffffffffffff1685614135565b6114ed9190614172565b9050806114fa838561414c565b611504919061414c565b935095509550955095915050565b61151a61228e565b8042106115695760405162461bcd60e51b815260206004820152601360248201527f4d6f73734875623a2074782074696d656f757400000000000000000000000000604482015260640161098a565b61157686868686866126b2565b611580600160cc55565b505050505050565b6000808080806115ad87600090815260ca60205260409020546001600160a01b031690565b6001600160a01b0316036116035760405162461bcd60e51b815260206004820152601d60248201527f4d6f73734875623a20746f6b656e206973206e6f742063726561746564000000604482015260640161098a565b66071afd498d00006000611616886117f6565b905060006116238961175f565b60008a81526101006020526040902054909150806116835760405162461bcd60e51b815260206004820152601960248201527f4d6f73734875623a207a65726f20666c6f6f7220707269636500000000000000604482015260640161098a565b611690848484848d611f17565b929d919c509a509098509650505050505050565b6000808080806116c987600090815260ca60205260409020546001600160a01b031690565b6001600160a01b03160361171f5760405162461bcd60e51b815260206004820152601d60248201527f4d6f73734875623a20746f6b656e206973206e6f742063726561746564000000604482015260640161098a565b66071afd498d00006000611732886117f6565b9050600061173f8961175f565b60008a81526101006020526040902054909150611690848484848d611313565b600081815261010260209081526040808320546101019092528220546109b8919061415f565b6000818152610103602090815260408083205461010483528184205461010290935290832054909182916117b99190614172565b6117c39190614135565b600084815261010160205260409020546117dd919061415f565b6109b8919061415f565b6117f2338383612cb5565b5050565b60006109b882612da9565b61180961228e565b6000821161187f5760405162461bcd60e51b815260206004820152602660248201527f4d6f73734875623a20616d6f756e74206d75737420626520677265617465722060448201527f7468616e20300000000000000000000000000000000000000000000000000000606482015260840161098a565b604080516101008101825285815266071afd498d0000602082015260009181016118a8876117f6565b81526020016118b68761175f565b81526020016118d2876000908152610100602052604090205490565b81526020016118ee876000908152610103602052604090205490565b8152602001848152602001856001600160a01b0316815250905060008060008061192f85602001518660400151876060015188608001518960c00151611f17565b9350935093509350833410156119ad5760405162461bcd60e51b815260206004820152602360248201527f4d6f73734875623a20696e73756666696369656e742066756e647320746f206d60448201527f696e740000000000000000000000000000000000000000000000000000000000606482015260840161098a565b85841115611a235760405162461bcd60e51b815260206004820152603960248201527f4d6f73734875623a2066756e6473206d757374206265206c657373207468616e60448201527f206f7220657175616c20746f206d6178696d756d2073656e7400000000000000606482015260840161098a565b83341115611a5757611a5733611a39863461414c565b6040518060600160405280602381526020016144b16023913961234b565b60ff5460408051606081019091526023808252611a87926001600160a01b03169184916144d4602083013961234b565b8451600090815260ca6020526040902054611aaa906001600160a01b0316610fd8565b60408086015186516000908152610101602090815283822054895183526101049091529281205460a089015160c08a01519294611aeb949390929190612242565b90506000611b0b8760200151886040015189606001518a6080015161213e565b875160009081526101026020526040902054909150821115611b86576040808801518851600090815261010160205291909120546080890151611b609291908590611b568a8761415f565b8c60c00151611c1d565b875160009081526101006020908152604080832093909355895182526101029052208290555b611b9d8760e0015188600001518960c00151612dbd565b865160e08089015160c0808b01516040805133815260208101969096526001600160a01b03909316858401526060850152608084018a905260a084018890528301869052517fdcaf588f09c2b7600db130d5b5166c2c3eecdb321c81cdaba0921b1205d9888f9281900390910190a150505050505050611076600160cc55565b600080611c2a868861415f565b905080611c37848a61415f565b11611c845760405162461bcd60e51b815260206004820152601160248201527f696e76616c696420706172616d65746572000000000000000000000000000000604482015260640161098a565b600081611c91858b61415f565b611c9b919061414c565b9050611ca7848a61415f565b611cb2906002614135565b81611cc48166071afd498d0000614135565b611cce9190614135565b611cd9876002614135565b611ce3919061414c565b611ced9190614172565b9250858311611d3e5760405162461bcd60e51b815260206004820152600d60248201527f696e76616c696420666c6f6f7200000000000000000000000000000000000000604482015260640161098a565b50509695505050505050565b600054610100900460ff1615808015611d6a5750600054600160ff909116105b80611d845750303b158015611d84575060005460ff166001145b611df65760405162461bcd60e51b815260206004820152602e60248201527f496e697469616c697a61626c653a20636f6e747261637420697320616c72656160448201527f647920696e697469616c697a6564000000000000000000000000000000000000606482015260840161098a565b6000805460ff191660011790558015611e19576000805461ff0019166101001790555b60ff80547fffffffffffffffffffffffff0000000000000000000000000000000000000000166001600160a01b03841617905560fe80547fffffffffffffffffffffffffffffffff00000000000000000000000000000000166e58d15e176280000058d15e1762800017905580156117f2576000805461ff0019169055604051600181527f7f26b83ff96e1f2b6a682f133852f6798a09c465da95921460cefb3847402498906020015b60405180910390a15050565b600080611edb836117f6565b90506000611ee88461175f565b60008581526101006020526040902054909150611f0e66071afd498d000084848461213e565b95945050505050565b600080808086611f27868a61415f565b11611f3d57611f368587614135565b9250612020565b86881115611fa4576002611f518882614135565b86611f5d8b6002614135565b611f67919061415f565b611f71919061414c565b611f7b908b614135565b611f86886002614135565b611f90919061415f565b611f9a9087614135565b611f369190614172565b6000611fb0898961414c565b9050600088611fbf888c61415f565b611fc9919061414c565b90506002611fde8266071afd498d0000614135565b611fe98a6002614135565b611ff3919061415f565b611ffd9083614135565b6120079190614172565b612011838a614135565b61201b919061415f565b945050505b60fe54670de0b6b3a7640000906120419067ffffffffffffffff1685614135565b61204b9190614172565b60fe54909250670de0b6b3a76400009061207b9068010000000000000000900467ffffffffffffffff1685614135565b6120859190614172565b905080612092838561415f565b611504919061415f565b600081815260cb602052604090208054606091906120b990614194565b80601f01602080910402602001604051908101604052809291908181526020018280546120e590614194565b80156121325780601f1061210757610100808354040283529160200191612132565b820191906000526020600020905b81548152906001019060200180831161211557829003601f168201915b50505050509050919050565b6000828411612158576121518483614135565b905061219f565b6000612164848661414c565b90506002816121738189614135565b61217d9190614135565b6121879190614172565b6121918685614135565b61219b919061415f565b9150505b949350505050565b6001600160a01b0385163314806121c357506121c38533610882565b6122355760405162461bcd60e51b815260206004820152602e60248201527f455243313135353a2063616c6c6572206973206e6f7420746f6b656e206f776e60448201527f6572206f7220617070726f766564000000000000000000000000000000000000606482015260840161098a565b6111178585858585612e65565b60008461224f838861415f565b1115611f0e5760008386612263858a61415f565b61226d919061414c565b6122779190614172565b90506122838582614135565b979650505050505050565b600260cc54036122e05760405162461bcd60e51b815260206004820152601f60248201527f5265656e7472616e637947756172643a207265656e7472616e742063616c6c00604482015260640161098a565b600260cc55565b6122f283838361304d565b60006122fd836117f6565b111561234657817f6bb7ff708619ba0610cba295a58592e0451dee2622938c8755667688daf3529b60405161233d90602080825260009082015260400190565b60405180910390a25b505050565b6000836001600160a01b03168360405160006040518083038185875af1925050503d8060008114612398576040519150601f19603f3d011682016040523d82523d6000602084013e61239d565b606091505b505090508082906111175760405162461bcd60e51b815260040161098a9190613a53565b81518351146124385760405162461bcd60e51b815260206004820152602860248201527f455243313135353a2069647320616e6420616d6f756e7473206c656e6774682060448201527f6d69736d61746368000000000000000000000000000000000000000000000000606482015260840161098a565b6001600160a01b0384166124b45760405162461bcd60e51b815260206004820152602560248201527f455243313135353a207472616e7366657220746f20746865207a65726f20616460448201527f6472657373000000000000000000000000000000000000000000000000000000606482015260840161098a565b336124c3818787878787613219565b60005b84518110156126025760008582815181106124e3576124e36140ef565b602002602001015190506000858381518110612501576125016140ef565b60209081029190910181015160008481526065835260408082206001600160a01b038e1683529093529190912054909150818110156125a85760405162461bcd60e51b815260206004820152602a60248201527f455243313135353a20696e73756666696369656e742062616c616e636520666f60448201527f72207472616e7366657200000000000000000000000000000000000000000000606482015260840161098a565b60008381526065602090815260408083206001600160a01b038e8116855292528083208585039055908b168252812080548492906125e790849061415f565b92505081905550505050806125fb9061411b565b90506124c6565b50846001600160a01b0316866001600160a01b0316826001600160a01b03167f4a39dc06d4c0dbc64b70af90fd698a233a518aa5d07e595d983b8c0526c8f7fb87876040516126529291906141ce565b60405180910390a46115808187878787876133a7565b600082815260cb602052604090206126808282614239565b507f9881d3fc43c7ddce9f432f1abbb2720b9aa58489a32de89d7269df1807ac4d968282604051611ec39291906142f9565b6126bb8561125c565b156127085760405162461bcd60e51b815260206004820152601560248201527f4d6f73734875623a20746f6b656e206578697374730000000000000000000000604482015260640161098a565b600085815260ca60205260409020546001600160a01b03161561276d5760405162461bcd60e51b815260206004820152601960248201527f4d6f73734875623a20746f6b656e206973206372656174656400000000000000604482015260640161098a565b64e8d4a510008410156127e85760405162461bcd60e51b815260206004820152603d60248201527f4d6f73734875623a20666c6f6f72206d7573742062652067726561746572207460448201527f68616e206f7220657175616c20746f206d696e696d756d20666c6f6f72000000606482015260840161098a565b6000831161285e5760405162461bcd60e51b815260206004820152602f60248201527f4d6f73734875623a20666c6f6f7220737570706c79206d75737420626520677260448201527f6561746572207468616e207a65726f0000000000000000000000000000000000606482015260840161098a565b600082116128d45760405162461bcd60e51b815260206004820152602b60248201527f4d6f73734875623a2061646a7573742073746570206d7573742067726561746560448201527f72207468616e207a65726f000000000000000000000000000000000000000000606482015260840161098a565b6000811161294a5760405162461bcd60e51b815260206004820152602660248201527f4d6f73734875623a20667353746570206d75737420677265617465722074686160448201527f6e207a65726f0000000000000000000000000000000000000000000000000000606482015260840161098a565b8181106129bf5760405162461bcd60e51b815260206004820152602660248201527f4d6f73734875623a20667353746570206d757374206265206c6573732074686160448201527f6e20737465700000000000000000000000000000000000000000000000000000606482015260840161098a565b60fe54600090670de0b6b3a7640000906129ef9068010000000000000000900467ffffffffffffffff1687614135565b6129f99190614172565b9050612a05818661415f565b341015612a7a5760405162461bcd60e51b815260206004820152602560248201527f4d6f73734875623a20696e73756666696369656e742066756e647320746f206360448201527f7265617465000000000000000000000000000000000000000000000000000000606482015260840161098a565b612a84818661415f565b341115612b5d5760003382612a99883461414c565b612aa3919061414c565b604051600081818185875af1925050503d8060008114612adf576040519150601f19603f3d011682016040523d82523d6000602084013e612ae4565b606091505b5050905080612b5b5760405162461bcd60e51b815260206004820152602360248201527f4d6f73734875623a207472616e736665722066756e6473206261636b2066616960448201527f6c65640000000000000000000000000000000000000000000000000000000000606482015260840161098a565b505b60ff546040516000916001600160a01b03169083908381818185875af1925050503d8060008114612baa576040519150601f19603f3d011682016040523d82523d6000602084013e612baf565b606091505b5050905080612c005760405162461bcd60e51b815260206004820152601f60248201527f4d6f73734875623a206661696c656420746f2072656365697665206665652000604482015260640161098a565b612c0a87336135ab565b612c1633886001612dbd565b6000878152610100602081815260408084208a90556101018252808420899055610103825280842088905561010482529283902086905582513381529081018a9052918201889052606082018790526080820186905260a0820185905260c0820188905260e082018490527f460cf3f1c0e37440b24f7a57d7c52f04ca2f3df751bcb4097d4a9e383b1a2477910160405180910390a150505050505050565b816001600160a01b0316836001600160a01b031603612d3c5760405162461bcd60e51b815260206004820152602960248201527f455243313135353a2073657474696e6720617070726f76616c2073746174757360448201527f20666f722073656c660000000000000000000000000000000000000000000000606482015260840161098a565b6001600160a01b03838116600081815260666020908152604080832094871680845294825291829020805460ff191686151590811790915591519182527f17307eab39ab6107e8899845ad3d59bd9653f200f220920489ca2b5937696c31910160405180910390a3505050565b6000818152609760205260408120546109b8565b60008111612e0d5760405162461bcd60e51b815260206004820152601160248201527f4d6f73733a207a65726f20616d6f756e74000000000000000000000000000000604482015260640161098a565b604080516000815260208101909152612e2b90849084908490613678565b817f6bb7ff708619ba0610cba295a58592e0451dee2622938c8755667688daf3529b60405161233d90602080825260009082015260400190565b6001600160a01b038416612ee15760405162461bcd60e51b815260206004820152602560248201527f455243313135353a207472616e7366657220746f20746865207a65726f20616460448201527f6472657373000000000000000000000000000000000000000000000000000000606482015260840161098a565b336000612eed856137b0565b90506000612efa856137b0565b9050612f0a838989858589613219565b60008681526065602090815260408083206001600160a01b038c16845290915290205485811015612fa35760405162461bcd60e51b815260206004820152602a60248201527f455243313135353a20696e73756666696369656e742062616c616e636520666f60448201527f72207472616e7366657200000000000000000000000000000000000000000000606482015260840161098a565b60008781526065602090815260408083206001600160a01b038d8116855292528083208985039055908a16825281208054889290612fe290849061415f565b909155505060408051888152602081018890526001600160a01b03808b16928c821692918816917fc3d58168c5ae7397731d063d5bbf3d657854427343f4c083240f7aacaa2d0f62910160405180910390a4613042848a8a8a8a8a6137fb565b505050505050505050565b6001600160a01b0383166130c95760405162461bcd60e51b815260206004820152602360248201527f455243313135353a206275726e2066726f6d20746865207a65726f206164647260448201527f6573730000000000000000000000000000000000000000000000000000000000606482015260840161098a565b3360006130d5846137b0565b905060006130e2846137b0565b905061310283876000858560405180602001604052806000815250613219565b60008581526065602090815260408083206001600160a01b038a1684529091529020548481101561319a5760405162461bcd60e51b8152602060048201526024808201527f455243313135353a206275726e20616d6f756e7420657863656564732062616c60448201527f616e636500000000000000000000000000000000000000000000000000000000606482015260840161098a565b60008681526065602090815260408083206001600160a01b038b81168086529184528285208a8703905582518b81529384018a90529092908816917fc3d58168c5ae7397731d063d5bbf3d657854427343f4c083240f7aacaa2d0f62910160405180910390a46040805160208101909152600090525b50505050505050565b6001600160a01b0385166132a05760005b835181101561329e57828181518110613245576132456140ef565b602002602001015160976000868481518110613263576132636140ef565b602002602001015181526020019081526020016000206000828254613288919061415f565b9091555061329790508161411b565b905061322a565b505b6001600160a01b0384166115805760005b83518110156132105760008482815181106132ce576132ce6140ef565b6020026020010151905060008483815181106132ec576132ec6140ef565b60200260200101519050600060976000848152602001908152602001600020549050818110156133845760405162461bcd60e51b815260206004820152602860248201527f455243313135353a206275726e20616d6f756e74206578636565647320746f7460448201527f616c537570706c79000000000000000000000000000000000000000000000000606482015260840161098a565b600092835260976020526040909220910390556133a08161411b565b90506132b1565b6001600160a01b0384163b15611580576040517fbc197c810000000000000000000000000000000000000000000000000000000081526001600160a01b0385169063bc197c81906134049089908990889088908890600401614312565b6020604051808303816000875af192505050801561343f575060408051601f3d908101601f1916820190925261343c91810190614370565b60015b6134f45761344b61438d565b806308c379a003613484575061345f6143a9565b8061346a5750613486565b8060405162461bcd60e51b815260040161098a9190613a53565b505b60405162461bcd60e51b815260206004820152603460248201527f455243313135353a207472616e7366657220746f206e6f6e2d4552433131353560448201527f526563656976657220696d706c656d656e746572000000000000000000000000606482015260840161098a565b7fffffffff0000000000000000000000000000000000000000000000000000000081167fbc197c8100000000000000000000000000000000000000000000000000000000146132105760405162461bcd60e51b815260206004820152602860248201527f455243313135353a204552433131353552656365697665722072656a6563746560448201527f6420746f6b656e73000000000000000000000000000000000000000000000000606482015260840161098a565b6135b48261125c565b156136015760405162461bcd60e51b815260206004820152601260248201527f4d6f73733a20746f6b656e206578697374730000000000000000000000000000604482015260640161098a565b600082815260ca602090815260409182902080547fffffffffffffffffffffffff0000000000000000000000000000000000000000166001600160a01b0385169081179091558251858152918201527fc0186d9ba7364ebd80a7010121367f481af81e1028bf368b2172fedf2c6fc7de9101611ec3565b6001600160a01b0384166136f45760405162461bcd60e51b815260206004820152602160248201527f455243313135353a206d696e7420746f20746865207a65726f2061646472657360448201527f7300000000000000000000000000000000000000000000000000000000000000606482015260840161098a565b336000613700856137b0565b9050600061370d856137b0565b905061371e83600089858589613219565b60008681526065602090815260408083206001600160a01b038b1684529091528120805487929061375090849061415f565b909155505060408051878152602081018790526001600160a01b03808a1692600092918716917fc3d58168c5ae7397731d063d5bbf3d657854427343f4c083240f7aacaa2d0f62910160405180910390a4613210836000898989896137fb565b604080516001808252818301909252606091600091906020808301908036833701905050905082816000815181106137ea576137ea6140ef565b602090810291909101015292915050565b6001600160a01b0384163b15611580576040517ff23a6e610000000000000000000000000000000000000000000000000000000081526001600160a01b0385169063f23a6e61906138589089908990889088908890600401614451565b6020604051808303816000875af1925050508015613893575060408051601f3d908101601f1916820190925261389091810190614370565b60015b61389f5761344b61438d565b7fffffffff0000000000000000000000000000000000000000000000000000000081167ff23a6e6100000000000000000000000000000000000000000000000000000000146132105760405162461bcd60e51b815260206004820152602860248201527f455243313135353a204552433131353552656365697665722072656a6563746560448201527f6420746f6b656e73000000000000000000000000000000000000000000000000606482015260840161098a565b60006020828403121561396857600080fd5b5035919050565b80356001600160a01b038116811461398657600080fd5b919050565b6000806040838503121561399e57600080fd5b6139a78361396f565b946020939093013593505050565b7fffffffff00000000000000000000000000000000000000000000000000000000811681146139e357600080fd5b50565b6000602082840312156139f857600080fd5b8135610ca8816139b5565b60005b83811015613a1e578181015183820152602001613a06565b50506000910152565b60008151808452613a3f816020860160208601613a03565b601f01601f19169290920160200192915050565b602081526000610ca86020830184613a27565b60008060408385031215613a7957600080fd5b613a828361396f565b9150613a906020840161396f565b90509250929050565b60008060008060808587031215613aaf57600080fd5b84359350613abf6020860161396f565b93969395505050506040820135916060013590565b634e487b7160e01b600052604160045260246000fd5b601f19601f830116810181811067ffffffffffffffff82111715613b1057613b10613ad4565b6040525050565b600067ffffffffffffffff821115613b3157613b31613ad4565b5060051b60200190565b600082601f830112613b4c57600080fd5b81356020613b5982613b17565b604051613b668282613aea565b83815260059390931b8501820192828101915086841115613b8657600080fd5b8286015b84811015613ba15780358352918301918301613b8a565b509695505050505050565b600067ffffffffffffffff821115613bc657613bc6613ad4565b50601f01601f191660200190565b6000613bdf83613bac565b604051613bec8282613aea565b809250848152858585011115613c0157600080fd5b8484602083013760006020868301015250509392505050565b600082601f830112613c2b57600080fd5b610ca883833560208501613bd4565b600080600080600060a08688031215613c5257600080fd5b613c5b8661396f565b9450613c696020870161396f565b9350604086013567ffffffffffffffff80821115613c8657600080fd5b613c9289838a01613b3b565b94506060880135915080821115613ca857600080fd5b613cb489838a01613b3b565b93506080880135915080821115613cca57600080fd5b50613cd788828901613c1a565b9150509295509295909350565b60008060408385031215613cf757600080fd5b823567ffffffffffffffff80821115613d0f57600080fd5b818501915085601f830112613d2357600080fd5b81356020613d3082613b17565b604051613d3d8282613aea565b83815260059390931b8501820192828101915089841115613d5d57600080fd5b948201945b83861015613d8257613d738661396f565b82529482019490820190613d62565b96505086013592505080821115613d9857600080fd5b50613da585828601613b3b565b9150509250929050565b600081518084526020808501945080840160005b83811015613ddf57815187529582019590820190600101613dc3565b509495945050505050565b602081526000610ca86020830184613daf565b60008060408385031215613e1057600080fd5b82359150602083013567ffffffffffffffff811115613e2e57600080fd5b8301601f81018513613e3f57600080fd5b613da585823560208401613bd4565b600080600080600060a08688031215613e6657600080fd5b505083359560208501359550604085013594606081013594506080013592509050565b60008060008060008060c08789031215613ea257600080fd5b505084359660208601359650604086013595606081013595506080810135945060a0013592509050565b60008060408385031215613edf57600080fd5b50508035926020909101359150565b60008060408385031215613f0157600080fd5b613f0a8361396f565b915060208301358015158114613f1f57600080fd5b809150509250929050565b600060208284031215613f3c57600080fd5b610ca88261396f565b60008060008060808587031215613f5b57600080fd5b5050823594602084013594506040840135936060013592509050565b600080600080600060a08688031215613f8f57600080fd5b613f988661396f565b9450613fa66020870161396f565b93506040860135925060608601359150608086013567ffffffffffffffff811115613fd057600080fd5b613cd788828901613c1a565b81518152602080830151610140830191614000908401826001600160a01b03169052565b50604083015161401c604084018267ffffffffffffffff169052565b50606083015160608301526080830151608083015260a083015160a083015260c083015160c083015260e083015160e083015261010080840151818401525061012080840151818401525092915050565b60006020828403121561407f57600080fd5b815167ffffffffffffffff81111561409657600080fd5b8201601f810184136140a757600080fd5b80516140b281613bac565b6040516140bf8282613aea565b8281528660208486010111156140d457600080fd5b6140e5836020830160208701613a03565b9695505050505050565b634e487b7160e01b600052603260045260246000fd5b634e487b7160e01b600052601160045260246000fd5b6000600019820361412e5761412e614105565b5060010190565b80820281158282048414176109b8576109b8614105565b818103818111156109b8576109b8614105565b808201808211156109b8576109b8614105565b60008261418f57634e487b7160e01b600052601260045260246000fd5b500490565b600181811c908216806141a857607f821691505b6020821081036141c857634e487b7160e01b600052602260045260246000fd5b50919050565b6040815260006141e16040830185613daf565b8281036020840152611f0e8185613daf565b601f82111561234657600081815260208120601f850160051c8101602086101561421a5750805b601f850160051c820191505b8181101561158057828155600101614226565b815167ffffffffffffffff81111561425357614253613ad4565b614267816142618454614194565b846141f3565b602080601f83116001811461429c57600084156142845750858301515b600019600386901b1c1916600185901b178555611580565b600085815260208120601f198616915b828110156142cb578886015182559484019460019091019084016142ac565b50858210156142e95787850151600019600388901b60f8161c191681555b5050505050600190811b01905550565b82815260406020820152600061219f6040830184613a27565b60006001600160a01b03808816835280871660208401525060a0604083015261433e60a0830186613daf565b82810360608401526143508186613daf565b905082810360808401526143648185613a27565b98975050505050505050565b60006020828403121561438257600080fd5b8151610ca8816139b5565b600060033d11156143a65760046000803e5060005160e01c5b90565b600060443d10156143b75790565b6040517ffffffffffffffffffffffffffffffffffffffffffffffffffffffffffffffffc803d016004833e81513d67ffffffffffffffff816024840111818411171561440557505050505090565b828501915081518181111561441d5750505050505090565b843d87010160208285010111156144375750505050505090565b61444660208286010187613aea565b509095945050505050565b60006001600160a01b03808816835280871660208401525084604083015283606083015260a0608083015261228360a0830184613a2756fe4d6f73734875623a206661696c656420746f207472616e736665722063726561746f72206665654d6f73734875623a207472616e736665722066756e6473206261636b206661696c65644d6f73734875623a206661696c656420746f207472616e736665722064657620666565a264697066735822122040b97d3747981b98cca466ad02ec7ed8461e24da7af87d5e8af3bff0d3bdaf8764736f6c63430008130033",
  "libraries": {
    "NFTDescriptor": "0xD7365F13697a5748DBb8FFf74C643FB1ae64480e"
  },
  "devdoc": {
    "events": {
      "ApprovalForAll(address,address,bool)": {
        "details": "Emitted when `account` grants or revokes permission to `operator` to transfer their tokens, according to `approved`."
      },
      "Initialized(uint8)": {
        "details": "Triggered when the contract has been initialized or reinitialized."
      },
      "TransferBatch(address,address,address,uint256[],uint256[])": {
        "details": "Equivalent to multiple {TransferSingle} events, where `operator`, `from` and `to` are the same for all transfers."
      },
      "TransferSingle(address,address,address,uint256,uint256)": {
        "details": "Emitted when `value` tokens of token type `id` are transferred from `from` to `to` by `operator`."
      },
      "URI(string,uint256)": {
        "details": "Emitted when the URI for token type `id` changes to `value`, if it is a non-programmatic URI. If an {URI} event was emitted for `id`, the standard https://eips.ethereum.org/EIPS/eip-1155#metadata-extensions[guarantees] that `value` will equal the value returned by {IERC1155MetadataURI-uri}."
      }
    },
    "kind": "dev",
    "methods": {
      "balanceOf(address,uint256)": {
        "details": "See {IERC1155-balanceOf}. Requirements: - `account` cannot be the zero address."
      },
      "balanceOfBatch(address[],uint256[])": {
        "details": "See {IERC1155-balanceOfBatch}. Requirements: - `accounts` and `ids` must have the same length."
      },
      "isApprovedForAll(address,address)": {
        "details": "See {IERC1155-isApprovedForAll}."
      },
      "safeBatchTransferFrom(address,address,uint256[],uint256[],bytes)": {
        "details": "See {IERC1155-safeBatchTransferFrom}."
      },
      "safeTransferFrom(address,address,uint256,uint256,bytes)": {
        "details": "See {IERC1155-safeTransferFrom}."
      },
      "setApprovalForAll(address,bool)": {
        "details": "See {IERC1155-setApprovalForAll}."
      },
      "supportsInterface(bytes4)": {
        "details": "See {IERC165-supportsInterface}."
      }
    },
    "version": 1
  },
  "userdoc": {
    "kind": "user",
    "methods": {},
    "version": 1
  },
  "storageLayout": {
    "storage": [
      {
        "astId": 6,
        "contract": "contracts/core/MossHub.sol:MossHub",
        "label": "_initialized",
        "offset": 0,
        "slot": "0",
        "type": "t_uint8"
      },
      {
        "astId": 9,
        "contract": "contracts/core/MossHub.sol:MossHub",
        "label": "_initializing",
        "offset": 1,
        "slot": "0",
        "type": "t_bool"
      },
      {
        "astId": 2223,
        "contract": "contracts/core/MossHub.sol:MossHub",
        "label": "__gap",
        "offset": 0,
        "slot": "1",
        "type": "t_array(t_uint256)50_storage"
      },
      {
        "astId": 2267,
        "contract": "contracts/core/MossHub.sol:MossHub",
        "label": "__gap",
        "offset": 0,
        "slot": "51",
        "type": "t_array(t_uint256)50_storage"
      },
      {
        "astId": 281,
        "contract": "contracts/core/MossHub.sol:MossHub",
        "label": "_balances",
        "offset": 0,
        "slot": "101",
        "type": "t_mapping(t_uint256,t_mapping(t_address,t_uint256))"
      },
      {
        "astId": 287,
        "contract": "contracts/core/MossHub.sol:MossHub",
        "label": "_operatorApprovals",
        "offset": 0,
        "slot": "102",
        "type": "t_mapping(t_address,t_mapping(t_address,t_bool))"
      },
      {
        "astId": 289,
        "contract": "contracts/core/MossHub.sol:MossHub",
        "label": "_uri",
        "offset": 0,
        "slot": "103",
        "type": "t_string_storage"
      },
      {
        "astId": 1496,
        "contract": "contracts/core/MossHub.sol:MossHub",
        "label": "__gap",
        "offset": 0,
        "slot": "104",
        "type": "t_array(t_uint256)47_storage"
      },
      {
        "astId": 1685,
        "contract": "contracts/core/MossHub.sol:MossHub",
        "label": "_totalSupply",
        "offset": 0,
        "slot": "151",
        "type": "t_mapping(t_uint256,t_uint256)"
      },
      {
        "astId": 1836,
        "contract": "contracts/core/MossHub.sol:MossHub",
        "label": "__gap",
        "offset": 0,
        "slot": "152",
        "type": "t_array(t_uint256)49_storage"
      },
      {
        "astId": 4953,
        "contract": "contracts/core/MossHub.sol:MossHub",
        "label": "isApprovedDelegate",
        "offset": 0,
        "slot": "201",
        "type": "t_mapping(t_address,t_mapping(t_address,t_bool))"
      },
      {
        "astId": 3266,
        "contract": "contracts/core/MossHub.sol:MossHub",
        "label": "creators",
        "offset": 0,
        "slot": "202",
        "type": "t_mapping(t_uint256,t_address)"
      },
      {
        "astId": 3270,
        "contract": "contracts/core/MossHub.sol:MossHub",
        "label": "stoneNames",
        "offset": 0,
        "slot": "203",
        "type": "t_mapping(t_uint256,t_string_storage)"
      },
      {
        "astId": 182,
        "contract": "contracts/core/MossHub.sol:MossHub",
        "label": "_status",
        "offset": 0,
        "slot": "204",
        "type": "t_uint256"
      },
      {
        "astId": 251,
        "contract": "contracts/core/MossHub.sol:MossHub",
        "label": "__gap",
        "offset": 0,
        "slot": "205",
        "type": "t_array(t_uint256)49_storage"
      },
      {
        "astId": 3506,
        "contract": "contracts/core/MossHub.sol:MossHub",
        "label": "defaultCreatorFeePCT",
        "offset": 0,
        "slot": "254",
        "type": "t_uint64"
      },
      {
        "astId": 3508,
        "contract": "contracts/core/MossHub.sol:MossHub",
        "label": "devFeePCT",
        "offset": 8,
        "slot": "254",
        "type": "t_uint64"
      },
      {
        "astId": 3510,
        "contract": "contracts/core/MossHub.sol:MossHub",
        "label": "dev",
        "offset": 0,
        "slot": "255",
        "type": "t_address"
      },
      {
        "astId": 3514,
        "contract": "contracts/core/MossHub.sol:MossHub",
        "label": "f",
        "offset": 0,
        "slot": "256",
        "type": "t_mapping(t_uint256,t_uint256)"
      },
      {
        "astId": 3518,
        "contract": "contracts/core/MossHub.sol:MossHub",
        "label": "fs",
        "offset": 0,
        "slot": "257",
        "type": "t_mapping(t_uint256,t_uint256)"
      },
      {
        "astId": 3522,
        "contract": "contracts/core/MossHub.sol:MossHub",
        "label": "fsIncr",
        "offset": 0,
        "slot": "258",
        "type": "t_mapping(t_uint256,t_uint256)"
      },
      {
        "astId": 3526,
        "contract": "contracts/core/MossHub.sol:MossHub",
        "label": "step",
        "offset": 0,
        "slot": "259",
        "type": "t_mapping(t_uint256,t_uint256)"
      },
      {
        "astId": 3530,
        "contract": "contracts/core/MossHub.sol:MossHub",
        "label": "fsStep",
        "offset": 0,
        "slot": "260",
        "type": "t_mapping(t_uint256,t_uint256)"
      }
    ],
    "types": {
      "t_address": {
        "encoding": "inplace",
        "label": "address",
        "numberOfBytes": "20"
      },
      "t_array(t_uint256)47_storage": {
        "base": "t_uint256",
        "encoding": "inplace",
        "label": "uint256[47]",
        "numberOfBytes": "1504"
      },
      "t_array(t_uint256)49_storage": {
        "base": "t_uint256",
        "encoding": "inplace",
        "label": "uint256[49]",
        "numberOfBytes": "1568"
      },
      "t_array(t_uint256)50_storage": {
        "base": "t_uint256",
        "encoding": "inplace",
        "label": "uint256[50]",
        "numberOfBytes": "1600"
      },
      "t_bool": {
        "encoding": "inplace",
        "label": "bool",
        "numberOfBytes": "1"
      },
      "t_mapping(t_address,t_bool)": {
        "encoding": "mapping",
        "key": "t_address",
        "label": "mapping(address => bool)",
        "numberOfBytes": "32",
        "value": "t_bool"
      },
      "t_mapping(t_address,t_mapping(t_address,t_bool))": {
        "encoding": "mapping",
        "key": "t_address",
        "label": "mapping(address => mapping(address => bool))",
        "numberOfBytes": "32",
        "value": "t_mapping(t_address,t_bool)"
      },
      "t_mapping(t_address,t_uint256)": {
        "encoding": "mapping",
        "key": "t_address",
        "label": "mapping(address => uint256)",
        "numberOfBytes": "32",
        "value": "t_uint256"
      },
      "t_mapping(t_uint256,t_address)": {
        "encoding": "mapping",
        "key": "t_uint256",
        "label": "mapping(uint256 => address)",
        "numberOfBytes": "32",
        "value": "t_address"
      },
      "t_mapping(t_uint256,t_mapping(t_address,t_uint256))": {
        "encoding": "mapping",
        "key": "t_uint256",
        "label": "mapping(uint256 => mapping(address => uint256))",
        "numberOfBytes": "32",
        "value": "t_mapping(t_address,t_uint256)"
      },
      "t_mapping(t_uint256,t_string_storage)": {
        "encoding": "mapping",
        "key": "t_uint256",
        "label": "mapping(uint256 => string)",
        "numberOfBytes": "32",
        "value": "t_string_storage"
      },
      "t_mapping(t_uint256,t_uint256)": {
        "encoding": "mapping",
        "key": "t_uint256",
        "label": "mapping(uint256 => uint256)",
        "numberOfBytes": "32",
        "value": "t_uint256"
      },
      "t_string_storage": {
        "encoding": "bytes",
        "label": "string",
        "numberOfBytes": "32"
      },
      "t_uint256": {
        "encoding": "inplace",
        "label": "uint256",
        "numberOfBytes": "32"
      },
      "t_uint64": {
        "encoding": "inplace",
        "label": "uint64",
        "numberOfBytes": "8"
      },
      "t_uint8": {
        "encoding": "inplace",
        "label": "uint8",
        "numberOfBytes": "1"
      }
    }
  }
}