{
  "address": "0x1Dd7ccC0f3AD3288DAfd16eBEf6D72eb43C51D81",
  "abi": [
    {
      "anonymous": false,
      "inputs": [
        {
          "indexed": true,
          "internalType": "address",
          "name": "account",
          "type": "address"
        },
        {
          "indexed": true,
          "internalType": "address",
          "name": "operator",
          "type": "address"
        },
        {
          "indexed": false,
          "internalType": "bool",
          "name": "approved",
          "type": "bool"
        }
      ],
      "name": "ApprovalForAll",
      "type": "event"
    },
    {
      "anonymous": false,
      "inputs": [
        {
          "indexed": false,
          "internalType": "address",
          "name": "from",
          "type": "address"
        },
        {
          "indexed": false,
          "internalType": "uint256",
          "name": "id",
          "type": "uint256"
        },
        {
          "indexed": false,
          "internalType": "address",
          "name": "to",
          "type": "address"
        },
        {
          "indexed": false,
          "internalType": "uint256",
          "name": "amount",
          "type": "uint256"
        },
        {
          "indexed": false,
          "internalType": "uint256",
          "name": "value",
          "type": "uint256"
        },
        {
          "indexed": false,
          "internalType": "uint256",
          "name": "creatorFee",
          "type": "uint256"
        },
        {
          "indexed": false,
          "internalType": "uint256",
          "name": "devFee",
          "type": "uint256"
        }
      ],
      "name": "Burnt",
      "type": "event"
    },
    {
      "anonymous": false,
      "inputs": [
        {
          "indexed": false,
          "internalType": "address",
          "name": "from",
          "type": "address"
        },
        {
          "indexed": false,
          "internalType": "uint256",
          "name": "id",
          "type": "uint256"
        },
        {
          "indexed": false,
          "internalType": "uint256",
          "name": "_f",
          "type": "uint256"
        },
        {
          "indexed": false,
          "internalType": "uint256",
          "name": "_fs",
          "type": "uint256"
        },
        {
          "indexed": false,
          "internalType": "uint256",
          "name": "_s",
          "type": "uint256"
        },
        {
          "indexed": false,
          "internalType": "uint256",
          "name": "_tar",
          "type": "uint256"
        },
        {
          "indexed": false,
          "internalType": "uint256",
          "name": "value",
          "type": "uint256"
        },
        {
          "indexed": false,
          "internalType": "uint256",
          "name": "devFee",
          "type": "uint256"
        }
      ],
      "name": "Created",
      "type": "event"
    },
    {
      "anonymous": false,
      "inputs": [
        {
          "indexed": false,
          "internalType": "uint256",
          "name": "id",
          "type": "uint256"
        },
        {
          "indexed": false,
          "internalType": "address",
          "name": "creator",
          "type": "address"
        }
      ],
      "name": "CreatorUpdated",
      "type": "event"
    },
    {
      "anonymous": false,
      "inputs": [
        {
          "indexed": false,
          "internalType": "uint8",
          "name": "version",
          "type": "uint8"
        }
      ],
      "name": "Initialized",
      "type": "event"
    },
    {
      "anonymous": false,
      "inputs": [
        {
          "indexed": false,
          "internalType": "address",
          "name": "from",
          "type": "address"
        },
        {
          "indexed": false,
          "internalType": "uint256",
          "name": "id",
          "type": "uint256"
        },
        {
          "indexed": false,
          "internalType": "address",
          "name": "to",
          "type": "address"
        },
        {
          "indexed": false,
          "internalType": "uint256",
          "name": "amount",
          "type": "uint256"
        },
        {
          "indexed": false,
          "internalType": "uint256",
          "name": "value",
          "type": "uint256"
        },
        {
          "indexed": false,
          "internalType": "uint256",
          "name": "creatorFee",
          "type": "uint256"
        },
        {
          "indexed": false,
          "internalType": "uint256",
          "name": "devFee",
          "type": "uint256"
        }
      ],
      "name": "Minted",
      "type": "event"
    },
    {
      "anonymous": false,
      "inputs": [
        {
          "indexed": false,
          "internalType": "uint256",
          "name": "id",
          "type": "uint256"
        },
        {
          "indexed": false,
          "internalType": "string",
          "name": "name",
          "type": "string"
        }
      ],
      "name": "StoneNameUpdated",
      "type": "event"
    },
    {
      "anonymous": false,
      "inputs": [
        {
          "indexed": true,
          "internalType": "address",
          "name": "operator",
          "type": "address"
        },
        {
          "indexed": true,
          "internalType": "address",
          "name": "from",
          "type": "address"
        },
        {
          "indexed": true,
          "internalType": "address",
          "name": "to",
          "type": "address"
        },
        {
          "indexed": false,
          "internalType": "uint256[]",
          "name": "ids",
          "type": "uint256[]"
        },
        {
          "indexed": false,
          "internalType": "uint256[]",
          "name": "values",
          "type": "uint256[]"
        }
      ],
      "name": "TransferBatch",
      "type": "event"
    },
    {
      "anonymous": false,
      "inputs": [
        {
          "indexed": true,
          "internalType": "address",
          "name": "operator",
          "type": "address"
        },
        {
          "indexed": true,
          "internalType": "address",
          "name": "from",
          "type": "address"
        },
        {
          "indexed": true,
          "internalType": "address",
          "name": "to",
          "type": "address"
        },
        {
          "indexed": false,
          "internalType": "uint256",
          "name": "id",
          "type": "uint256"
        },
        {
          "indexed": false,
          "internalType": "uint256",
          "name": "value",
          "type": "uint256"
        }
      ],
      "name": "TransferSingle",
      "type": "event"
    },
    {
      "anonymous": false,
      "inputs": [
        {
          "indexed": false,
          "internalType": "string",
          "name": "value",
          "type": "string"
        },
        {
          "indexed": true,
          "internalType": "uint256",
          "name": "id",
          "type": "uint256"
        }
      ],
      "name": "URI",
      "type": "event"
    },
    {
      "inputs": [],
      "name": "PRECISIONDECIMALS",
      "outputs": [
        {
          "internalType": "uint64",
          "name": "",
          "type": "uint64"
        }
      ],
      "stateMutability": "view",
      "type": "function"
    },
    {
      "inputs": [
        {
          "internalType": "uint256",
          "name": "_t",
          "type": "uint256"
        },
        {
          "internalType": "uint256",
          "name": "_fs",
          "type": "uint256"
        },
        {
          "internalType": "uint256",
          "name": "_fsStep",
          "type": "uint256"
        },
        {
          "internalType": "uint256",
          "name": "_step",
          "type": "uint256"
        },
        {
          "internalType": "uint256",
          "name": "amount",
          "type": "uint256"
        }
      ],
      "name": "adjustment",
      "outputs": [
        {
          "internalType": "uint256",
          "name": "_fsIncr",
          "type": "uint256"
        }
      ],
      "stateMutability": "pure",
      "type": "function"
    },
    {
      "inputs": [
        {
          "internalType": "address",
          "name": "account",
          "type": "address"
        },
        {
          "internalType": "uint256",
          "name": "id",
          "type": "uint256"
        }
      ],
      "name": "balanceOf",
      "outputs": [
        {
          "internalType": "uint256",
          "name": "",
          "type": "uint256"
        }
      ],
      "stateMutability": "view",
      "type": "function"
    },
    {
      "inputs": [
        {
          "internalType": "address[]",
          "name": "accounts",
          "type": "address[]"
        },
        {
          "internalType": "uint256[]",
          "name": "ids",
          "type": "uint256[]"
        }
      ],
      "name": "balanceOfBatch",
      "outputs": [
        {
          "internalType": "uint256[]",
          "name": "",
          "type": "uint256[]"
        }
      ],
      "stateMutability": "view",
      "type": "function"
    },
    {
      "inputs": [
        {
          "internalType": "uint256",
          "name": "id",
          "type": "uint256"
        },
        {
          "internalType": "address",
          "name": "to",
          "type": "address"
        },
        {
          "internalType": "uint256",
          "name": "amount",
          "type": "uint256"
        },
        {
          "internalType": "uint256",
          "name": "minReceived",
          "type": "uint256"
        }
      ],
      "name": "burn",
      "outputs": [],
      "stateMutability": "nonpayable",
      "type": "function"
    },
    {
      "inputs": [
        {
          "internalType": "uint256",
          "name": "id",
          "type": "uint256"
        },
        {
          "internalType": "uint256",
          "name": "_f",
          "type": "uint256"
        },
        {
          "internalType": "uint256",
          "name": "_fs",
          "type": "uint256"
        },
        {
          "internalType": "uint256",
          "name": "_s",
          "type": "uint256"
        },
        {
          "internalType": "uint256",
          "name": "_fsStep",
          "type": "uint256"
        },
        {
          "internalType": "uint256",
          "name": "timeoutAt",
          "type": "uint256"
        }
      ],
      "name": "create",
      "outputs": [],
      "stateMutability": "payable",
      "type": "function"
    },
    {
      "inputs": [
        {
          "internalType": "uint256",
          "name": "id",
          "type": "uint256"
        }
      ],
      "name": "creatorOf",
      "outputs": [
        {
          "internalType": "address",
          "name": "",
          "type": "address"
        }
      ],
      "stateMutability": "view",
      "type": "function"
    },
    {
      "inputs": [],
      "name": "defaultCreatorFeePCT",
      "outputs": [
        {
          "internalType": "uint64",
          "name": "",
          "type": "uint64"
        }
      ],
      "stateMutability": "view",
      "type": "function"
    },
    {
      "inputs": [],
      "name": "dev",
      "outputs": [
        {
          "internalType": "address",
          "name": "",
          "type": "address"
        }
      ],
      "stateMutability": "view",
      "type": "function"
    },
    {
      "inputs": [],
      "name": "devFeePCT",
      "outputs": [
        {
          "internalType": "uint64",
          "name": "",
          "type": "uint64"
        }
      ],
      "stateMutability": "view",
      "type": "function"
    },
    {
      "inputs": [
        {
          "internalType": "uint256",
          "name": "_t",
          "type": "uint256"
        },
        {
          "internalType": "uint256",
          "name": "_fs",
          "type": "uint256"
        },
        {
          "internalType": "uint256",
          "name": "_fsIncr",
          "type": "uint256"
        },
        {
          "internalType": "uint256",
          "name": "_f",
          "type": "uint256"
        },
        {
          "internalType": "uint256",
          "name": "_w",
          "type": "uint256"
        },
        {
          "internalType": "uint256",
          "name": "amount",
          "type": "uint256"
        }
      ],
      "name": "estimateAdjust",
      "outputs": [
        {
          "internalType": "uint256",
          "name": "_floor",
          "type": "uint256"
        }
      ],
      "stateMutability": "pure",
      "type": "function"
    },
    {
      "inputs": [
        {
          "internalType": "uint256",
          "name": "_k",
          "type": "uint256"
        },
        {
          "internalType": "uint256",
          "name": "_t",
          "type": "uint256"
        },
        {
          "internalType": "uint256",
          "name": "_fs",
          "type": "uint256"
        },
        {
          "internalType": "uint256",
          "name": "_f",
          "type": "uint256"
        },
        {
          "internalType": "uint256",
          "name": "amount",
          "type": "uint256"
        }
      ],
      "name": "estimateBurn",
      "outputs": [
        {
          "internalType": "uint256",
          "name": "total",
          "type": "uint256"
        },
        {
          "internalType": "uint256",
          "name": "value",
          "type": "uint256"
        },
        {
          "internalType": "uint256",
          "name": "creatorFee",
          "type": "uint256"
        },
        {
          "internalType": "uint256",
          "name": "devFee",
          "type": "uint256"
        }
      ],
      "stateMutability": "view",
      "type": "function"
    },
    {
      "inputs": [
        {
          "internalType": "uint256",
          "name": "id",
          "type": "uint256"
        },
        {
          "internalType": "uint256",
          "name": "amount",
          "type": "uint256"
        }
      ],
      "name": "estimateBurn",
      "outputs": [
        {
          "internalType": "uint256",
          "name": "total",
          "type": "uint256"
        },
        {
          "internalType": "uint256",
          "name": "value",
          "type": "uint256"
        },
        {
          "internalType": "uint256",
          "name": "creatorFee",
          "type": "uint256"
        },
        {
          "internalType": "uint256",
          "name": "devFee",
          "type": "uint256"
        }
      ],
      "stateMutability": "view",
      "type": "function"
    },
    {
      "inputs": [
        {
          "internalType": "uint256",
          "name": "id",
          "type": "uint256"
        },
        {
          "internalType": "uint256",
          "name": "amount",
          "type": "uint256"
        }
      ],
      "name": "estimateMint",
      "outputs": [
        {
          "internalType": "uint256",
          "name": "total",
          "type": "uint256"
        },
        {
          "internalType": "uint256",
          "name": "value",
          "type": "uint256"
        },
        {
          "internalType": "uint256",
          "name": "creatorFee",
          "type": "uint256"
        },
        {
          "internalType": "uint256",
          "name": "devFee",
          "type": "uint256"
        }
      ],
      "stateMutability": "view",
      "type": "function"
    },
    {
      "inputs": [
        {
          "internalType": "uint256",
          "name": "_k",
          "type": "uint256"
        },
        {
          "internalType": "uint256",
          "name": "_t",
          "type": "uint256"
        },
        {
          "internalType": "uint256",
          "name": "_fs",
          "type": "uint256"
        },
        {
          "internalType": "uint256",
          "name": "_f",
          "type": "uint256"
        },
        {
          "internalType": "uint256",
          "name": "amount",
          "type": "uint256"
        }
      ],
      "name": "estimateMint",
      "outputs": [
        {
          "internalType": "uint256",
          "name": "total",
          "type": "uint256"
        },
        {
          "internalType": "uint256",
          "name": "value",
          "type": "uint256"
        },
        {
          "internalType": "uint256",
          "name": "creatorFee",
          "type": "uint256"
        },
        {
          "internalType": "uint256",
          "name": "devFee",
          "type": "uint256"
        }
      ],
      "stateMutability": "view",
      "type": "function"
    },
    {
      "inputs": [
        {
          "internalType": "uint256",
          "name": "id",
          "type": "uint256"
        }
      ],
      "name": "exists",
      "outputs": [
        {
          "internalType": "bool",
          "name": "",
          "type": "bool"
        }
      ],
      "stateMutability": "view",
      "type": "function"
    },
    {
      "inputs": [
        {
          "internalType": "uint256",
          "name": "id",
          "type": "uint256"
        }
      ],
      "name": "floor",
      "outputs": [
        {
          "internalType": "uint256",
          "name": "",
          "type": "uint256"
        }
      ],
      "stateMutability": "view",
      "type": "function"
    },
    {
      "inputs": [
        {
          "internalType": "uint256",
          "name": "id",
          "type": "uint256"
        }
      ],
      "name": "floorSupply",
      "outputs": [
        {
          "internalType": "uint256",
          "name": "",
          "type": "uint256"
        }
      ],
      "stateMutability": "view",
      "type": "function"
    },
    {
      "inputs": [
        {
          "internalType": "uint256",
          "name": "",
          "type": "uint256"
        }
      ],
      "name": "fs",
      "outputs": [
        {
          "internalType": "uint256",
          "name": "",
          "type": "uint256"
        }
      ],
      "stateMutability": "view",
      "type": "function"
    },
    {
      "inputs": [
        {
          "internalType": "uint256",
          "name": "",
          "type": "uint256"
        }
      ],
      "name": "fsIncr",
      "outputs": [
        {
          "internalType": "uint256",
          "name": "",
          "type": "uint256"
        }
      ],
      "stateMutability": "view",
      "type": "function"
    },
    {
      "inputs": [
        {
          "internalType": "uint256",
          "name": "id",
          "type": "uint256"
        }
      ],
      "name": "fsStepOf",
      "outputs": [
        {
          "internalType": "uint256",
          "name": "",
          "type": "uint256"
        }
      ],
      "stateMutability": "view",
      "type": "function"
    },
    {
      "inputs": [
        {
          "internalType": "address",
          "name": "_dev",
          "type": "address"
        }
      ],
      "name": "initialize",
      "outputs": [],
      "stateMutability": "nonpayable",
      "type": "function"
    },
    {
      "inputs": [
        {
          "internalType": "address",
          "name": "",
          "type": "address"
        },
        {
          "internalType": "address",
          "name": "",
          "type": "address"
        }
      ],
      "name": "isApprovedDelegate",
      "outputs": [
        {
          "internalType": "bool",
          "name": "",
          "type": "bool"
        }
      ],
      "stateMutability": "view",
      "type": "function"
    },
    {
      "inputs": [
        {
          "internalType": "address",
          "name": "account",
          "type": "address"
        },
        {
          "internalType": "address",
          "name": "operator",
          "type": "address"
        }
      ],
      "name": "isApprovedForAll",
      "outputs": [
        {
          "internalType": "bool",
          "name": "",
          "type": "bool"
        }
      ],
      "stateMutability": "view",
      "type": "function"
    },
    {
      "inputs": [],
      "name": "k",
      "outputs": [
        {
          "internalType": "uint64",
          "name": "",
          "type": "uint64"
        }
      ],
      "stateMutability": "view",
      "type": "function"
    },
    {
      "inputs": [],
      "name": "minFloor",
      "outputs": [
        {
          "internalType": "uint64",
          "name": "",
          "type": "uint64"
        }
      ],
      "stateMutability": "view",
      "type": "function"
    },
    {
      "inputs": [
        {
          "internalType": "uint256",
          "name": "id",
          "type": "uint256"
        },
        {
          "internalType": "address",
          "name": "to",
          "type": "address"
        },
        {
          "internalType": "uint256",
          "name": "amount",
          "type": "uint256"
        },
        {
          "internalType": "uint256",
          "name": "maxSent",
          "type": "uint256"
        }
      ],
      "name": "mint",
      "outputs": [],
      "stateMutability": "payable",
      "type": "function"
    },
    {
      "inputs": [
        {
          "internalType": "address",
          "name": "from",
          "type": "address"
        },
        {
          "internalType": "address",
          "name": "to",
          "type": "address"
        },
        {
          "internalType": "uint256[]",
          "name": "ids",
          "type": "uint256[]"
        },
        {
          "internalType": "uint256[]",
          "name": "amounts",
          "type": "uint256[]"
        },
        {
          "internalType": "bytes",
          "name": "data",
          "type": "bytes"
        }
      ],
      "name": "safeBatchTransferFrom",
      "outputs": [],
      "stateMutability": "nonpayable",
      "type": "function"
    },
    {
      "inputs": [
        {
          "internalType": "address",
          "name": "from",
          "type": "address"
        },
        {
          "internalType": "address",
          "name": "to",
          "type": "address"
        },
        {
          "internalType": "uint256",
          "name": "id",
          "type": "uint256"
        },
        {
          "internalType": "uint256",
          "name": "amount",
          "type": "uint256"
        },
        {
          "internalType": "bytes",
          "name": "data",
          "type": "bytes"
        }
      ],
      "name": "safeTransferFrom",
      "outputs": [],
      "stateMutability": "nonpayable",
      "type": "function"
    },
    {
      "inputs": [
        {
          "internalType": "address",
          "name": "operator",
          "type": "address"
        },
        {
          "internalType": "bool",
          "name": "approved",
          "type": "bool"
        }
      ],
      "name": "setApprovalForAll",
      "outputs": [],
      "stateMutability": "nonpayable",
      "type": "function"
    },
    {
      "inputs": [
        {
          "internalType": "address",
          "name": "_delegate",
          "type": "address"
        },
        {
          "internalType": "bool",
          "name": "_isApproved",
          "type": "bool"
        }
      ],
      "name": "setDelegateApproval",
      "outputs": [],
      "stateMutability": "nonpayable",
      "type": "function"
    },
    {
      "inputs": [
        {
          "internalType": "uint256",
          "name": "id",
          "type": "uint256"
        }
      ],
      "name": "stepment",
      "outputs": [
        {
          "internalType": "uint256",
          "name": "",
          "type": "uint256"
        }
      ],
      "stateMutability": "view",
      "type": "function"
    },
    {
      "inputs": [
        {
          "internalType": "uint256",
          "name": "id",
          "type": "uint256"
        }
      ],
      "name": "stoneNameOf",
      "outputs": [
        {
          "internalType": "string",
          "name": "",
          "type": "string"
        }
      ],
      "stateMutability": "view",
      "type": "function"
    },
    {
      "inputs": [
        {
          "internalType": "bytes4",
          "name": "interfaceId",
          "type": "bytes4"
        }
      ],
      "name": "supportsInterface",
      "outputs": [
        {
          "internalType": "bool",
          "name": "",
          "type": "bool"
        }
      ],
      "stateMutability": "view",
      "type": "function"
    },
    {
      "inputs": [
        {
          "internalType": "uint256",
          "name": "id",
          "type": "uint256"
        }
      ],
      "name": "totalSupply",
      "outputs": [
        {
          "internalType": "uint256",
          "name": "",
          "type": "uint256"
        }
      ],
      "stateMutability": "view",
      "type": "function"
    },
    {
      "inputs": [
        {
          "internalType": "uint256",
          "name": "id",
          "type": "uint256"
        },
        {
          "internalType": "string",
          "name": "stoneName",
          "type": "string"
        }
      ],
      "name": "updateStoneName",
      "outputs": [],
      "stateMutability": "nonpayable",
      "type": "function"
    },
    {
      "inputs": [
        {
          "internalType": "uint256",
          "name": "id",
          "type": "uint256"
        }
      ],
      "name": "uri",
      "outputs": [
        {
          "internalType": "string",
          "name": "",
          "type": "string"
        }
      ],
      "stateMutability": "view",
      "type": "function"
    },
    {
      "inputs": [
        {
          "internalType": "uint256",
          "name": "_k",
          "type": "uint256"
        },
        {
          "internalType": "uint256",
          "name": "_t",
          "type": "uint256"
        },
        {
          "internalType": "uint256",
          "name": "_fs",
          "type": "uint256"
        },
        {
          "internalType": "uint256",
          "name": "_f",
          "type": "uint256"
        }
      ],
      "name": "worth",
      "outputs": [
        {
          "internalType": "uint256",
          "name": "",
          "type": "uint256"
        }
      ],
      "stateMutability": "pure",
      "type": "function"
    },
    {
      "inputs": [
        {
          "internalType": "uint256",
          "name": "id",
          "type": "uint256"
        }
      ],
      "name": "worthOf",
      "outputs": [
        {
          "internalType": "uint256",
          "name": "",
          "type": "uint256"
        }
      ],
      "stateMutability": "view",
      "type": "function"
    },
    {
      "stateMutability": "payable",
      "type": "receive"
    }
  ],
  "transactionHash": "0xc72e5d8d10b7e2e80106ee614e44a8e168b869cd0d1791a6eeed31bb7cd65d6a",
  "args": [],
  "numDeployments": 7,
  "solcInputHash": "ed9e71ba8b81f064303d8c8bb4558186",
  "bytecode": "0x608060405234801561001057600080fd5b5061469e806100206000396000f3fe6080604052600436106102a25760003560e01c80637272d03c1161016e578063c3c854b6116100cb578063e2e1b8901161007f578063f213edda11610064578063f213edda14610875578063f242432a14610895578063f740fd34146108b557600080fd5b8063e2e1b8901461080c578063e985e9c51461082c57600080fd5b8063c5464eb4116100b0578063c5464eb4146107ab578063c79ab6a2146107cb578063cdb9c4eb146107eb57600080fd5b8063c3c854b614610738578063c4d66de81461078b57600080fd5b8063a22cb46511610122578063bd85b03911610107578063bd85b039146106e5578063bf2c8a9414610705578063c0facbea1461071857600080fd5b8063a22cb465146106aa578063b4f40c61146106ca57600080fd5b80637ab58add116101535780637ab58add1461063c578063810c37381461066a57806391cca3db1461068a57600080fd5b80637272d03c146105ee57806375e583e61461061c57600080fd5b806343a54a0c1161021c578063504f5e56116101d057806361c44d60116101b557806361c44d601461057b5780636e4ae82c146105bb57806371fc76f5146105ce57600080fd5b8063504f5e56146104ff578063589a17431461052d57600080fd5b80634f558e79116102015780634f558e79146104a6578063503e0a98146104c6578063504d9578146104df57600080fd5b806343a54a0c1461045d5780634e1273f41461047957600080fd5b80630e89341c1161027357806327fc36371161025857806327fc3637146103d557806329bff690146103f75780632eb2c2d61461043d57600080fd5b80630e89341c1461036d5780631930e8251461039a57600080fd5b8062d92e39146102ae578062fdd58e146102ef57806301ffc9a71461030f57806309501e661461033f57600080fd5b366102a957005b600080fd5b3480156102ba57600080fd5b506102dc6102c9366004613bc6565b6000908152610103602052604090205490565b6040519081526020015b60405180910390f35b3480156102fb57600080fd5b506102dc61030a366004613bfb565b6108d5565b34801561031b57600080fd5b5061032f61032a366004613c56565b610983565b60405190151581526020016102e6565b34801561034b57600080fd5b506102dc61035a366004613bc6565b6000908152610104602052604090205490565b34801561037957600080fd5b5061038d610388366004613bc6565b610a66565b6040516102e69190613cc3565b3480156103a657600080fd5b5061032f6103b5366004613cd6565b60c960209081526000928352604080842090915290825290205460ff1681565b3480156103e157600080fd5b506103f56103f0366004613d09565b610c6e565b005b34801561040357600080fd5b5060fe546104249068010000000000000000900467ffffffffffffffff1681565b60405167ffffffffffffffff90911681526020016102e6565b34801561044957600080fd5b506103f5610458366004613eaa565b6111e2565b34801561046957600080fd5b50610424670de0b6b3a764000081565b34801561048557600080fd5b50610499610494366004613f54565b611284565b6040516102e6919061405a565b3480156104b257600080fd5b5061032f6104c1366004613bc6565b6113c2565b3480156104d257600080fd5b5061042464e8d4a5100081565b3480156104eb57600080fd5b506103f56104fa36600461406d565b6113d8565b34801561050b57600080fd5b506102dc61051a366004613bc6565b6000908152610100602052604090205490565b34801561053957600080fd5b50610563610548366004613bc6565b600090815260ca60205260409020546001600160a01b031690565b6040516001600160a01b0390911681526020016102e6565b34801561058757600080fd5b5061059b6105963660046140be565b611479565b6040805194855260208501939093529183015260608201526080016102e6565b6103f56105c93660046140f9565b611678565b3480156105da57600080fd5b5061059b6105e936600461413c565b6116ee565b3480156105fa57600080fd5b506102dc610609366004613bc6565b6101016020526000908152604090205481565b34801561062857600080fd5b5061059b61063736600461413c565b61180a565b34801561064857600080fd5b506102dc610657366004613bc6565b6101026020526000908152604090205481565b34801561067657600080fd5b506102dc610685366004613bc6565b6118c5565b34801561069657600080fd5b5060ff54610563906001600160a01b031681565b3480156106b657600080fd5b506103f56106c536600461415e565b6118eb565b3480156106d657600080fd5b5061042466071afd498d000081565b3480156106f157600080fd5b506102dc610700366004613bc6565b6118fa565b6103f5610713366004613d09565b611905565b34801561072457600080fd5b506102dc6107333660046140f9565b611f14565b34801561074457600080fd5b506103f561075336600461415e565b33600090815260c9602090815260408083206001600160a01b0395909516835293905291909120805460ff1916911515919091179055565b34801561079757600080fd5b506103f56107a636600461419a565b612041565b3480156107b757600080fd5b506102dc6107c6366004613bc6565b6121c6565b3480156107d757600080fd5b5061059b6107e63660046140be565b61220e565b3480156107f757600080fd5b5060fe546104249067ffffffffffffffff1681565b34801561081857600080fd5b5061038d610827366004613bc6565b612393565b34801561083857600080fd5b5061032f610847366004613cd6565b6001600160a01b03918216600090815260666020908152604080832093909416825291909152205460ff1690565b34801561088157600080fd5b506102dc6108903660046141b5565b612435565b3480156108a157600080fd5b506103f56108b03660046141e7565b61249e565b3480156108c157600080fd5b506102dc6108d03660046140be565b612539565b60006001600160a01b0383166109585760405162461bcd60e51b815260206004820152602a60248201527f455243313135353a2061646472657373207a65726f206973206e6f742061207660448201527f616c6964206f776e65720000000000000000000000000000000000000000000060648201526084015b60405180910390fd5b5060008181526065602090815260408083206001600160a01b03861684529091529020545b92915050565b60007fffffffff0000000000000000000000000000000000000000000000000000000082167fd9b67a26000000000000000000000000000000000000000000000000000000001480610a1657507fffffffff0000000000000000000000000000000000000000000000000000000082167f0e89341c00000000000000000000000000000000000000000000000000000000145b8061097d57507f01ffc9a7000000000000000000000000000000000000000000000000000000007fffffffff0000000000000000000000000000000000000000000000000000000083161461097d565b6060610ab96040518061010001604052806000815260200160006001600160a01b031681526020016000815260200160008152602001600081526020016000815260200160008152602001600081525090565b828152600083815260ca60209081526040808320546001600160a01b0316828501528583526101009091529020546080820152610af5836118c5565b60a0820152610b03836118fa565b60c0820181905260a08201516080830151610b289266071afd498d0000929091612435565b60e082015260c081015160a08201516080830151610b529266071afd498d0000929091600161220e565b505060408301525060c081015160a08201516080830151610b7f9266071afd498d00009290916001611479565b505060608301908152604080517f2a5a1a140000000000000000000000000000000000000000000000000000000081528451600482015260208501516001600160a01b03166024820152908401516044820152905160648201526080830151608482015260a083015160a482015260c083015160c482015260e083015160e482015273565d8cd5f571b67888735c915d7602836b3b16fe9150632a5a1a149061010401600060405180830381865af4158015610c3f573d6000803e3d6000fd5b505050506040513d6000823e601f3d908101601f19168201604052610c67919081019061424c565b9392505050565b610c76612585565b610c7f846113c2565b610ccb5760405162461bcd60e51b815260206004820152601a60248201527f4d6f73734875623a206e6f6e6578736974656e7420746f6b656e000000000000604482015260640161094f565b60008211610d415760405162461bcd60e51b815260206004820152602660248201527f4d6f73734875623a20616d6f756e74206d75737420626520677265617465722060448201527f7468616e20300000000000000000000000000000000000000000000000000000606482015260840161094f565b6000610d4c856118fa565b905082811015610d9e5760405162461bcd60e51b815260206004820152601d60248201527f48696b653a20746f6f206d75636820616d6f756e7420746f204275726e000000604482015260640161094f565b600060405180610100016040528087815260200166071afd498d000067ffffffffffffffff168152602001838152602001610dd8886118c5565b8152602001610df4886000908152610100602052604090205490565b8152602001610e10886000908152610103602052604090205490565b8152602001858152602001866001600160a01b03168152509050600080600080610e5185602001518660400151876060015188608001518960c00151611479565b935093509350935086841015610ef55760405162461bcd60e51b815260206004820152604960248201527f4d6f73734875623a2072656365697665642076616c7565206d7573742062652060448201527f67726561746572207468616e206f7220657175616c20746f206d696e696d756d60648201527f2072656365697665640000000000000000000000000000000000000000000000608482015260a40161094f565b610f083386600001518760c001516125de565b60008560e001516001600160a01b03168560405160006040518083038185875af1925050503d8060008114610f59576040519150601f19603f3d011682016040523d82523d6000602084013e610f5e565b606091505b5050905080610faf5760405162461bcd60e51b815260206004820152601e60248201527f4d6f73734875623a207472616e736665722076616c7565206661696c65640000604482015260640161094f565b8551600090815260ca60205260409020546001600160a01b03166001600160a01b03168360405160006040518083038185875af1925050503d8060008114611013576040519150601f19603f3d011682016040523d82523d6000602084013e611018565b606091505b505080915050806110915760405162461bcd60e51b815260206004820152602860248201527f4d6f73734875623a206661696c656420746f207472616e73666572206372656160448201527f746f722066656520000000000000000000000000000000000000000000000000606482015260840161094f565b60ff546040516001600160a01b03909116908390600081818185875af1925050503d80600081146110de576040519150601f19603f3d011682016040523d82523d6000602084013e6110e3565b606091505b5050809150508061115c5760405162461bcd60e51b815260206004820152602360248201527f4d6f73734875623a206661696c656420746f207472616e73666572206465762060448201527f6665650000000000000000000000000000000000000000000000000000000000606482015260840161094f565b855160e08088015160c0808a01516040805133815260208101969096526001600160a01b039093168584015260608501526080840188905260a084018790528301859052517f63b3cda962e4a1210ab73053c3af0163312c753575551b8c9d04906ec6e0ff679281900390910190a1505050505050506111dc600160cc55565b50505050565b6001600160a01b0385163314806111fe57506111fe8533610847565b6112705760405162461bcd60e51b815260206004820152602e60248201527f455243313135353a2063616c6c6572206973206e6f7420746f6b656e206f776e60448201527f6572206f7220617070726f766564000000000000000000000000000000000000606482015260840161094f565b61127d8585858585612640565b5050505050565b606081518351146112fd5760405162461bcd60e51b815260206004820152602960248201527f455243313135353a206163636f756e747320616e6420696473206c656e67746860448201527f206d69736d617463680000000000000000000000000000000000000000000000606482015260840161094f565b6000835167ffffffffffffffff81111561131957611319613d44565b604051908082528060200260200182016040528015611342578160200160208202803683370190505b50905060005b84518110156113ba5761138d858281518110611366576113666142ce565b6020026020010151858381518110611380576113806142ce565b60200260200101516108d5565b82828151811061139f5761139f6142ce565b60209081029190910101526113b3816142fa565b9050611348565b509392505050565b600081815260976020526040812054151561097d565b600082815260ca602052604090205482906001600160a01b03163381148061142357506001600160a01b038116600090815260c96020908152604080832033845290915290205460ff165b61146f5760405162461bcd60e51b815260206004820152601b60248201527f4d6f73733a2044656c6567617465206e6f7420617070726f7665640000000000604482015260640161094f565b6111dc84846128e7565b600080600080848810156114f55760405162461bcd60e51b815260206004820152603360248201527f4d6f73734875623a204275726e20616d6f756e74206d757374206265206c657360448201527f73207468616e20746f74616c20737570706c7900000000000000000000000000606482015260840161094f565b86881161150d576115068587614314565b92506115ee565b86611518868a61432b565b111561157d57600261152a8882614314565b866115368b6002614314565b611540919061432b565b61154a919061432b565b611554908b614314565b61155f886002614314565b611569919061433e565b6115739087614314565b6115069190614351565b6000611589888a61432b565b90506000611597828861432b565b905060026115ac8366071afd498d0000614314565b6115b78a6002614314565b6115c1919061433e565b6115cb9084614314565b6115d59190614351565b6115df828a614314565b6115e9919061433e565b945050505b60fe54670de0b6b3a76400009061160f9067ffffffffffffffff1685614314565b6116199190614351565b60fe54909250670de0b6b3a7640000906116499068010000000000000000900467ffffffffffffffff1685614314565b6116539190614351565b905080611660838561432b565b61166a919061432b565b935095509550955095915050565b611680612585565b8042106116cf5760405162461bcd60e51b815260206004820152601360248201527f4d6f73734875623a2074782074696d656f757400000000000000000000000000604482015260640161094f565b6116dc8686868686612931565b6116e6600160cc55565b505050505050565b60008080808061171387600090815260ca60205260409020546001600160a01b031690565b6001600160a01b0316036117695760405162461bcd60e51b815260206004820152601d60248201527f4d6f73734875623a20746f6b656e206973206e6f742063726561746564000000604482015260640161094f565b66071afd498d0000600061177c886118fa565b90506000611789896118c5565b60008a81526101006020526040902054909150806117e95760405162461bcd60e51b815260206004820152601960248201527f4d6f73734875623a207a65726f20666c6f6f7220707269636500000000000000604482015260640161094f565b6117f6848484848d61220e565b929d919c509a509098509650505050505050565b60008080808061182f87600090815260ca60205260409020546001600160a01b031690565b6001600160a01b0316036118855760405162461bcd60e51b815260206004820152601d60248201527f4d6f73734875623a20746f6b656e206973206e6f742063726561746564000000604482015260640161094f565b66071afd498d00006000611898886118fa565b905060006118a5896118c5565b60008a815261010060205260409020549091506117f6848484848d611479565b6000818152610102602090815260408083205461010190925282205461097d919061433e565b6118f6338383612f34565b5050565b600061097d82613028565b61190d612585565b600082116119835760405162461bcd60e51b815260206004820152602660248201527f4d6f73734875623a20616d6f756e74206d75737420626520677265617465722060448201527f7468616e20300000000000000000000000000000000000000000000000000000606482015260840161094f565b604080516101008101825285815266071afd498d0000602082015260009181016119ac876118fa565b81526020016119ba876118c5565b81526020016119d6876000908152610100602052604090205490565b81526020016119f2876000908152610103602052604090205490565b8152602001848152602001856001600160a01b03168152509050600080600080611a3385602001518660400151876060015188608001518960c0015161220e565b935093509350935083341015611ab15760405162461bcd60e51b815260206004820152602360248201527f4d6f73734875623a20696e73756666696369656e742066756e647320746f204d60448201527f696e740000000000000000000000000000000000000000000000000000000000606482015260840161094f565b85841115611b275760405162461bcd60e51b815260206004820152603960248201527f4d6f73734875623a2066756e6473206d757374206265206c657373207468616e60448201527f206f7220657175616c20746f206d6178696d756d2073656e7400000000000000606482015260840161094f565b83341115611bf657600033611b3c863461432b565b604051600081818185875af1925050503d8060008114611b78576040519150601f19603f3d011682016040523d82523d6000602084013e611b7d565b606091505b5050905080611bf45760405162461bcd60e51b815260206004820152602360248201527f4d6f73734875623a207472616e736665722066756e6473206261636b2066616960448201527f6c65640000000000000000000000000000000000000000000000000000000000606482015260840161094f565b505b60ff546040516000916001600160a01b03169083908381818185875af1925050503d8060008114611c43576040519150601f19603f3d011682016040523d82523d6000602084013e611c48565b606091505b5050905080611cbe5760405162461bcd60e51b8152602060048201526024808201527f4d6f73734875623a206661696c656420746f207472616e73666572206465762060448201527f6665652000000000000000000000000000000000000000000000000000000000606482015260840161094f565b8551600090815260ca60205260409020546001600160a01b03166001600160a01b03168360405160006040518083038185875af1925050503d8060008114611d22576040519150601f19603f3d011682016040523d82523d6000602084013e611d27565b606091505b50508091505080611da05760405162461bcd60e51b815260206004820152602860248201527f4d6f73734875623a206661696c656420746f207472616e73666572206372656160448201527f746f722066656520000000000000000000000000000000000000000000000000606482015260840161094f565b604080870151875160009081526101016020908152838220548a5183526101049091529281205460a08a015160c08b01519294611de1949390929190612539565b90506000611e01886020015189604001518a606001518b60800151612435565b885160009081526101026020526040902054909150821115611e7c5760408089015189516000908152610101602052919091205460808a0151611e569291908590611e4c8b8761433e565b8d60c00151611f14565b8851600090815261010060209081526040808320939093558a5182526101029052208290555b611e938860e0015189600001518a60c0015161303c565b875160e0808a015160c0808c01516040805133815260208101969096526001600160a01b03909316858401526060850152608084018b905260a084018990528301879052517fdcaf588f09c2b7600db130d5b5166c2c3eecdb321c81cdaba0921b1205d9888f9281900390910190a150505050505050506111dc600160cc55565b600080611f21868861433e565b905080611f2e848a61433e565b11611f7b5760405162461bcd60e51b815260206004820152601160248201527f696e76616c696420706172616d65746572000000000000000000000000000000604482015260640161094f565b600081611f88858b61433e565b611f92919061432b565b9050611f9e848a61433e565b611fa9906002614314565b81611fbb8166071afd498d0000614314565b611fc59190614314565b611fd0876002614314565b611fda919061432b565b611fe49190614351565b92508583116120355760405162461bcd60e51b815260206004820152600d60248201527f696e76616c696420666c6f6f7200000000000000000000000000000000000000604482015260640161094f565b50509695505050505050565b600054610100900460ff16158080156120615750600054600160ff909116105b8061207b5750303b15801561207b575060005460ff166001145b6120ed5760405162461bcd60e51b815260206004820152602e60248201527f496e697469616c697a61626c653a20636f6e747261637420697320616c72656160448201527f647920696e697469616c697a6564000000000000000000000000000000000000606482015260840161094f565b6000805460ff191660011790558015612110576000805461ff0019166101001790555b60ff80547fffffffffffffffffffffffff0000000000000000000000000000000000000000166001600160a01b03841617905560fe80547fffffffffffffffffffffffffffffffff00000000000000000000000000000000166e58d15e176280000058d15e1762800017905580156118f6576000805461ff0019169055604051600181527f7f26b83ff96e1f2b6a682f133852f6798a09c465da95921460cefb3847402498906020015b60405180910390a15050565b6000806121d2836118fa565b905060006121df846118c5565b6000858152610100602052604090205490915061220566071afd498d0000848484612435565b95945050505050565b60008080808661221e868a61433e565b116122345761222d8587614314565b9250612317565b8688111561229b5760026122488882614314565b866122548b6002614314565b61225e919061433e565b612268919061432b565b612272908b614314565b61227d886002614314565b612287919061433e565b6122919087614314565b61222d9190614351565b60006122a7898961432b565b90506000886122b6888c61433e565b6122c0919061432b565b905060026122d58266071afd498d0000614314565b6122e08a6002614314565b6122ea919061433e565b6122f49083614314565b6122fe9190614351565b612308838a614314565b612312919061433e565b945050505b60fe54670de0b6b3a7640000906123389067ffffffffffffffff1685614314565b6123429190614351565b60fe54909250670de0b6b3a7640000906123729068010000000000000000900467ffffffffffffffff1685614314565b61237c9190614351565b905080612389838561433e565b61166a919061433e565b600081815260cb602052604090208054606091906123b090614373565b80601f01602080910402602001604051908101604052809291908181526020018280546123dc90614373565b80156124295780601f106123fe57610100808354040283529160200191612429565b820191906000526020600020905b81548152906001019060200180831161240c57829003601f168201915b50505050509050919050565b600082841161244f576124488483614314565b9050612496565b600061245b848661432b565b905060028161246a8189614314565b6124749190614314565b61247e9190614351565b6124888685614314565b612492919061433e565b9150505b949350505050565b6001600160a01b0385163314806124ba57506124ba8533610847565b61252c5760405162461bcd60e51b815260206004820152602e60248201527f455243313135353a2063616c6c6572206973206e6f7420746f6b656e206f776e60448201527f6572206f7220617070726f766564000000000000000000000000000000000000606482015260840161094f565b61127d85858585856130d5565b600084612546838861433e565b1115612205576000838661255a858a61433e565b612564919061432b565b61256e9190614351565b905061257a8582614314565b979650505050505050565b600260cc54036125d75760405162461bcd60e51b815260206004820152601f60248201527f5265656e7472616e637947756172643a207265656e7472616e742063616c6c00604482015260640161094f565b600260cc55565b6125e98383836132bd565b60006125f4836118fa565b111561263b57817f6bb7ff708619ba0610cba295a58592e0451dee2622938c8755667688daf3529b61262584610a66565b6040516126329190613cc3565b60405180910390a25b505050565b81518351146126b75760405162461bcd60e51b815260206004820152602860248201527f455243313135353a2069647320616e6420616d6f756e7473206c656e6774682060448201527f6d69736d61746368000000000000000000000000000000000000000000000000606482015260840161094f565b6001600160a01b0384166127335760405162461bcd60e51b815260206004820152602560248201527f455243313135353a207472616e7366657220746f20746865207a65726f20616460448201527f6472657373000000000000000000000000000000000000000000000000000000606482015260840161094f565b33612742818787878787613489565b60005b8451811015612881576000858281518110612762576127626142ce565b602002602001015190506000858381518110612780576127806142ce565b60209081029190910181015160008481526065835260408082206001600160a01b038e1683529093529190912054909150818110156128275760405162461bcd60e51b815260206004820152602a60248201527f455243313135353a20696e73756666696369656e742062616c616e636520666f60448201527f72207472616e7366657200000000000000000000000000000000000000000000606482015260840161094f565b60008381526065602090815260408083206001600160a01b038e8116855292528083208585039055908b1682528120805484929061286690849061433e565b925050819055505050508061287a906142fa565b9050612745565b50846001600160a01b0316866001600160a01b0316826001600160a01b03167f4a39dc06d4c0dbc64b70af90fd698a233a518aa5d07e595d983b8c0526c8f7fb87876040516128d19291906143ad565b60405180910390a46116e6818787878787613617565b600082815260cb602052604090206128ff8282614418565b507f9881d3fc43c7ddce9f432f1abbb2720b9aa58489a32de89d7269df1807ac4d9682826040516121ba9291906144d8565b61293a856113c2565b156129875760405162461bcd60e51b815260206004820152601560248201527f4d6f73734875623a20746f6b656e206578697374730000000000000000000000604482015260640161094f565b600085815260ca60205260409020546001600160a01b0316156129ec5760405162461bcd60e51b815260206004820152601960248201527f4d6f73734875623a20746f6b656e206973206372656174656400000000000000604482015260640161094f565b64e8d4a51000841015612a675760405162461bcd60e51b815260206004820152603d60248201527f4d6f73734875623a20666c6f6f72206d7573742062652067726561746572207460448201527f68616e206f7220657175616c20746f206d696e696d756d20666c6f6f72000000606482015260840161094f565b60008311612add5760405162461bcd60e51b815260206004820152602f60248201527f4d6f73734875623a20666c6f6f7220737570706c79206d75737420626520677260448201527f6561746572207468616e207a65726f0000000000000000000000000000000000606482015260840161094f565b60008211612b535760405162461bcd60e51b815260206004820152602b60248201527f4d6f73734875623a2061646a7573742073746570206d7573742067726561746560448201527f72207468616e207a65726f000000000000000000000000000000000000000000606482015260840161094f565b60008111612bc95760405162461bcd60e51b815260206004820152602660248201527f4d6f73734875623a20667353746570206d75737420677265617465722074686160448201527f6e207a65726f0000000000000000000000000000000000000000000000000000606482015260840161094f565b818110612c3e5760405162461bcd60e51b815260206004820152602660248201527f4d6f73734875623a20667353746570206d757374206265206c6573732074686160448201527f6e20737465700000000000000000000000000000000000000000000000000000606482015260840161094f565b60fe54600090670de0b6b3a764000090612c6e9068010000000000000000900467ffffffffffffffff1687614314565b612c789190614351565b9050612c84818661433e565b341015612cf95760405162461bcd60e51b815260206004820152602560248201527f4d6f73734875623a20696e73756666696369656e742066756e647320746f206360448201527f7265617465000000000000000000000000000000000000000000000000000000606482015260840161094f565b612d03818661433e565b341115612ddc5760003382612d18883461432b565b612d22919061432b565b604051600081818185875af1925050503d8060008114612d5e576040519150601f19603f3d011682016040523d82523d6000602084013e612d63565b606091505b5050905080612dda5760405162461bcd60e51b815260206004820152602360248201527f4d6f73734875623a207472616e736665722066756e6473206261636b2066616960448201527f6c65640000000000000000000000000000000000000000000000000000000000606482015260840161094f565b505b60ff546040516000916001600160a01b03169083908381818185875af1925050503d8060008114612e29576040519150601f19603f3d011682016040523d82523d6000602084013e612e2e565b606091505b5050905080612e7f5760405162461bcd60e51b815260206004820152601f60248201527f4d6f73734875623a206661696c656420746f2072656365697665206665652000604482015260640161094f565b612e89873361381b565b612e953388600161303c565b6000878152610100602081815260408084208a90556101018252808420899055610103825280842088905561010482529283902086905582513381529081018a9052918201889052606082018790526080820186905260a0820185905260c0820188905260e082018490527f460cf3f1c0e37440b24f7a57d7c52f04ca2f3df751bcb4097d4a9e383b1a2477910160405180910390a150505050505050565b816001600160a01b0316836001600160a01b031603612fbb5760405162461bcd60e51b815260206004820152602960248201527f455243313135353a2073657474696e6720617070726f76616c2073746174757360448201527f20666f722073656c660000000000000000000000000000000000000000000000606482015260840161094f565b6001600160a01b03838116600081815260666020908152604080832094871680845294825291829020805460ff191686151590811790915591519182527f17307eab39ab6107e8899845ad3d59bd9653f200f220920489ca2b5937696c31910160405180910390a3505050565b60008181526097602052604081205461097d565b6000811161308c5760405162461bcd60e51b815260206004820152601160248201527f4d6f73733a207a65726f20616d6f756e74000000000000000000000000000000604482015260640161094f565b6040805160008152602081019091526130aa908490849084906138e8565b817f6bb7ff708619ba0610cba295a58592e0451dee2622938c8755667688daf3529b61262584610a66565b6001600160a01b0384166131515760405162461bcd60e51b815260206004820152602560248201527f455243313135353a207472616e7366657220746f20746865207a65726f20616460448201527f6472657373000000000000000000000000000000000000000000000000000000606482015260840161094f565b33600061315d85613a20565b9050600061316a85613a20565b905061317a838989858589613489565b60008681526065602090815260408083206001600160a01b038c168452909152902054858110156132135760405162461bcd60e51b815260206004820152602a60248201527f455243313135353a20696e73756666696369656e742062616c616e636520666f60448201527f72207472616e7366657200000000000000000000000000000000000000000000606482015260840161094f565b60008781526065602090815260408083206001600160a01b038d8116855292528083208985039055908a1682528120805488929061325290849061433e565b909155505060408051888152602081018890526001600160a01b03808b16928c821692918816917fc3d58168c5ae7397731d063d5bbf3d657854427343f4c083240f7aacaa2d0f62910160405180910390a46132b2848a8a8a8a8a613a6b565b505050505050505050565b6001600160a01b0383166133395760405162461bcd60e51b815260206004820152602360248201527f455243313135353a206275726e2066726f6d20746865207a65726f206164647260448201527f6573730000000000000000000000000000000000000000000000000000000000606482015260840161094f565b33600061334584613a20565b9050600061335284613a20565b905061337283876000858560405180602001604052806000815250613489565b60008581526065602090815260408083206001600160a01b038a1684529091529020548481101561340a5760405162461bcd60e51b8152602060048201526024808201527f455243313135353a206275726e20616d6f756e7420657863656564732062616c60448201527f616e636500000000000000000000000000000000000000000000000000000000606482015260840161094f565b60008681526065602090815260408083206001600160a01b038b81168086529184528285208a8703905582518b81529384018a90529092908816917fc3d58168c5ae7397731d063d5bbf3d657854427343f4c083240f7aacaa2d0f62910160405180910390a46040805160208101909152600090525b50505050505050565b6001600160a01b0385166135105760005b835181101561350e578281815181106134b5576134b56142ce565b6020026020010151609760008684815181106134d3576134d36142ce565b6020026020010151815260200190815260200160002060008282546134f8919061433e565b909155506135079050816142fa565b905061349a565b505b6001600160a01b0384166116e65760005b835181101561348057600084828151811061353e5761353e6142ce565b60200260200101519050600084838151811061355c5761355c6142ce565b60200260200101519050600060976000848152602001908152602001600020549050818110156135f45760405162461bcd60e51b815260206004820152602860248201527f455243313135353a206275726e20616d6f756e74206578636565647320746f7460448201527f616c537570706c79000000000000000000000000000000000000000000000000606482015260840161094f565b60009283526097602052604090922091039055613610816142fa565b9050613521565b6001600160a01b0384163b156116e6576040517fbc197c810000000000000000000000000000000000000000000000000000000081526001600160a01b0385169063bc197c819061367490899089908890889088906004016144f1565b6020604051808303816000875af19250505080156136af575060408051601f3d908101601f191682019092526136ac9181019061454f565b60015b613764576136bb61456c565b806308c379a0036136f457506136cf614588565b806136da57506136f6565b8060405162461bcd60e51b815260040161094f9190613cc3565b505b60405162461bcd60e51b815260206004820152603460248201527f455243313135353a207472616e7366657220746f206e6f6e2d4552433131353560448201527f526563656976657220696d706c656d656e746572000000000000000000000000606482015260840161094f565b7fffffffff0000000000000000000000000000000000000000000000000000000081167fbc197c8100000000000000000000000000000000000000000000000000000000146134805760405162461bcd60e51b815260206004820152602860248201527f455243313135353a204552433131353552656365697665722072656a6563746560448201527f6420746f6b656e73000000000000000000000000000000000000000000000000606482015260840161094f565b613824826113c2565b156138715760405162461bcd60e51b815260206004820152601260248201527f4d6f73733a20746f6b656e206578697374730000000000000000000000000000604482015260640161094f565b600082815260ca602090815260409182902080547fffffffffffffffffffffffff0000000000000000000000000000000000000000166001600160a01b0385169081179091558251858152918201527fc0186d9ba7364ebd80a7010121367f481af81e1028bf368b2172fedf2c6fc7de91016121ba565b6001600160a01b0384166139645760405162461bcd60e51b815260206004820152602160248201527f455243313135353a206d696e7420746f20746865207a65726f2061646472657360448201527f7300000000000000000000000000000000000000000000000000000000000000606482015260840161094f565b33600061397085613a20565b9050600061397d85613a20565b905061398e83600089858589613489565b60008681526065602090815260408083206001600160a01b038b168452909152812080548792906139c090849061433e565b909155505060408051878152602081018790526001600160a01b03808a1692600092918716917fc3d58168c5ae7397731d063d5bbf3d657854427343f4c083240f7aacaa2d0f62910160405180910390a461348083600089898989613a6b565b60408051600180825281830190925260609160009190602080830190803683370190505090508281600081518110613a5a57613a5a6142ce565b602090810291909101015292915050565b6001600160a01b0384163b156116e6576040517ff23a6e610000000000000000000000000000000000000000000000000000000081526001600160a01b0385169063f23a6e6190613ac89089908990889088908890600401614630565b6020604051808303816000875af1925050508015613b03575060408051601f3d908101601f19168201909252613b009181019061454f565b60015b613b0f576136bb61456c565b7fffffffff0000000000000000000000000000000000000000000000000000000081167ff23a6e6100000000000000000000000000000000000000000000000000000000146134805760405162461bcd60e51b815260206004820152602860248201527f455243313135353a204552433131353552656365697665722072656a6563746560448201527f6420746f6b656e73000000000000000000000000000000000000000000000000606482015260840161094f565b600060208284031215613bd857600080fd5b5035919050565b80356001600160a01b0381168114613bf657600080fd5b919050565b60008060408385031215613c0e57600080fd5b613c1783613bdf565b946020939093013593505050565b7fffffffff0000000000000000000000000000000000000000000000000000000081168114613c5357600080fd5b50565b600060208284031215613c6857600080fd5b8135610c6781613c25565b60005b83811015613c8e578181015183820152602001613c76565b50506000910152565b60008151808452613caf816020860160208601613c73565b601f01601f19169290920160200192915050565b602081526000610c676020830184613c97565b60008060408385031215613ce957600080fd5b613cf283613bdf565b9150613d0060208401613bdf565b90509250929050565b60008060008060808587031215613d1f57600080fd5b84359350613d2f60208601613bdf565b93969395505050506040820135916060013590565b634e487b7160e01b600052604160045260246000fd5b601f19601f830116810181811067ffffffffffffffff82111715613d8057613d80613d44565b6040525050565b600067ffffffffffffffff821115613da157613da1613d44565b5060051b60200190565b600082601f830112613dbc57600080fd5b81356020613dc982613d87565b604051613dd68282613d5a565b83815260059390931b8501820192828101915086841115613df657600080fd5b8286015b84811015613e115780358352918301918301613dfa565b509695505050505050565b600067ffffffffffffffff821115613e3657613e36613d44565b50601f01601f191660200190565b6000613e4f83613e1c565b604051613e5c8282613d5a565b809250848152858585011115613e7157600080fd5b8484602083013760006020868301015250509392505050565b600082601f830112613e9b57600080fd5b610c6783833560208501613e44565b600080600080600060a08688031215613ec257600080fd5b613ecb86613bdf565b9450613ed960208701613bdf565b9350604086013567ffffffffffffffff80821115613ef657600080fd5b613f0289838a01613dab565b94506060880135915080821115613f1857600080fd5b613f2489838a01613dab565b93506080880135915080821115613f3a57600080fd5b50613f4788828901613e8a565b9150509295509295909350565b60008060408385031215613f6757600080fd5b823567ffffffffffffffff80821115613f7f57600080fd5b818501915085601f830112613f9357600080fd5b81356020613fa082613d87565b604051613fad8282613d5a565b83815260059390931b8501820192828101915089841115613fcd57600080fd5b948201945b83861015613ff257613fe386613bdf565b82529482019490820190613fd2565b9650508601359250508082111561400857600080fd5b5061401585828601613dab565b9150509250929050565b600081518084526020808501945080840160005b8381101561404f57815187529582019590820190600101614033565b509495945050505050565b602081526000610c67602083018461401f565b6000806040838503121561408057600080fd5b82359150602083013567ffffffffffffffff81111561409e57600080fd5b8301601f810185136140af57600080fd5b61401585823560208401613e44565b600080600080600060a086880312156140d657600080fd5b505083359560208501359550604085013594606081013594506080013592509050565b60008060008060008060c0878903121561411257600080fd5b505084359660208601359650604086013595606081013595506080810135945060a0013592509050565b6000806040838503121561414f57600080fd5b50508035926020909101359150565b6000806040838503121561417157600080fd5b61417a83613bdf565b91506020830135801515811461418f57600080fd5b809150509250929050565b6000602082840312156141ac57600080fd5b610c6782613bdf565b600080600080608085870312156141cb57600080fd5b5050823594602084013594506040840135936060013592509050565b600080600080600060a086880312156141ff57600080fd5b61420886613bdf565b945061421660208701613bdf565b93506040860135925060608601359150608086013567ffffffffffffffff81111561424057600080fd5b613f4788828901613e8a565b60006020828403121561425e57600080fd5b815167ffffffffffffffff81111561427557600080fd5b8201601f8101841361428657600080fd5b805161429181613e1c565b60405161429e8282613d5a565b8281528660208486010111156142b357600080fd5b6142c4836020830160208701613c73565b9695505050505050565b634e487b7160e01b600052603260045260246000fd5b634e487b7160e01b600052601160045260246000fd5b6000600019820361430d5761430d6142e4565b5060010190565b808202811582820484141761097d5761097d6142e4565b8181038181111561097d5761097d6142e4565b8082018082111561097d5761097d6142e4565b60008261436e57634e487b7160e01b600052601260045260246000fd5b500490565b600181811c9082168061438757607f821691505b6020821081036143a757634e487b7160e01b600052602260045260246000fd5b50919050565b6040815260006143c0604083018561401f565b8281036020840152612205818561401f565b601f82111561263b57600081815260208120601f850160051c810160208610156143f95750805b601f850160051c820191505b818110156116e657828155600101614405565b815167ffffffffffffffff81111561443257614432613d44565b614446816144408454614373565b846143d2565b602080601f83116001811461447b57600084156144635750858301515b600019600386901b1c1916600185901b1785556116e6565b600085815260208120601f198616915b828110156144aa5788860151825594840194600190910190840161448b565b50858210156144c85787850151600019600388901b60f8161c191681555b5050505050600190811b01905550565b8281526040602082015260006124966040830184613c97565b60006001600160a01b03808816835280871660208401525060a0604083015261451d60a083018661401f565b828103606084015261452f818661401f565b905082810360808401526145438185613c97565b98975050505050505050565b60006020828403121561456157600080fd5b8151610c6781613c25565b600060033d11156145855760046000803e5060005160e01c5b90565b600060443d10156145965790565b6040517ffffffffffffffffffffffffffffffffffffffffffffffffffffffffffffffffc803d016004833e81513d67ffffffffffffffff81602484011181841117156145e457505050505090565b82850191508151818111156145fc5750505050505090565b843d87010160208285010111156146165750505050505090565b61462560208286010187613d5a565b509095945050505050565b60006001600160a01b03808816835280871660208401525084604083015283606083015260a0608083015261257a60a0830184613c9756fea26469706673582212202b3aaa89440fad9ef78ebc27905426ca4acf387bea3a064f62ec1f8b9762863e64736f6c63430008130033",
  "deployedBytecode": "0x6080604052600436106102a25760003560e01c80637272d03c1161016e578063c3c854b6116100cb578063e2e1b8901161007f578063f213edda11610064578063f213edda14610875578063f242432a14610895578063f740fd34146108b557600080fd5b8063e2e1b8901461080c578063e985e9c51461082c57600080fd5b8063c5464eb4116100b0578063c5464eb4146107ab578063c79ab6a2146107cb578063cdb9c4eb146107eb57600080fd5b8063c3c854b614610738578063c4d66de81461078b57600080fd5b8063a22cb46511610122578063bd85b03911610107578063bd85b039146106e5578063bf2c8a9414610705578063c0facbea1461071857600080fd5b8063a22cb465146106aa578063b4f40c61146106ca57600080fd5b80637ab58add116101535780637ab58add1461063c578063810c37381461066a57806391cca3db1461068a57600080fd5b80637272d03c146105ee57806375e583e61461061c57600080fd5b806343a54a0c1161021c578063504f5e56116101d057806361c44d60116101b557806361c44d601461057b5780636e4ae82c146105bb57806371fc76f5146105ce57600080fd5b8063504f5e56146104ff578063589a17431461052d57600080fd5b80634f558e79116102015780634f558e79146104a6578063503e0a98146104c6578063504d9578146104df57600080fd5b806343a54a0c1461045d5780634e1273f41461047957600080fd5b80630e89341c1161027357806327fc36371161025857806327fc3637146103d557806329bff690146103f75780632eb2c2d61461043d57600080fd5b80630e89341c1461036d5780631930e8251461039a57600080fd5b8062d92e39146102ae578062fdd58e146102ef57806301ffc9a71461030f57806309501e661461033f57600080fd5b366102a957005b600080fd5b3480156102ba57600080fd5b506102dc6102c9366004613bc6565b6000908152610103602052604090205490565b6040519081526020015b60405180910390f35b3480156102fb57600080fd5b506102dc61030a366004613bfb565b6108d5565b34801561031b57600080fd5b5061032f61032a366004613c56565b610983565b60405190151581526020016102e6565b34801561034b57600080fd5b506102dc61035a366004613bc6565b6000908152610104602052604090205490565b34801561037957600080fd5b5061038d610388366004613bc6565b610a66565b6040516102e69190613cc3565b3480156103a657600080fd5b5061032f6103b5366004613cd6565b60c960209081526000928352604080842090915290825290205460ff1681565b3480156103e157600080fd5b506103f56103f0366004613d09565b610c6e565b005b34801561040357600080fd5b5060fe546104249068010000000000000000900467ffffffffffffffff1681565b60405167ffffffffffffffff90911681526020016102e6565b34801561044957600080fd5b506103f5610458366004613eaa565b6111e2565b34801561046957600080fd5b50610424670de0b6b3a764000081565b34801561048557600080fd5b50610499610494366004613f54565b611284565b6040516102e6919061405a565b3480156104b257600080fd5b5061032f6104c1366004613bc6565b6113c2565b3480156104d257600080fd5b5061042464e8d4a5100081565b3480156104eb57600080fd5b506103f56104fa36600461406d565b6113d8565b34801561050b57600080fd5b506102dc61051a366004613bc6565b6000908152610100602052604090205490565b34801561053957600080fd5b50610563610548366004613bc6565b600090815260ca60205260409020546001600160a01b031690565b6040516001600160a01b0390911681526020016102e6565b34801561058757600080fd5b5061059b6105963660046140be565b611479565b6040805194855260208501939093529183015260608201526080016102e6565b6103f56105c93660046140f9565b611678565b3480156105da57600080fd5b5061059b6105e936600461413c565b6116ee565b3480156105fa57600080fd5b506102dc610609366004613bc6565b6101016020526000908152604090205481565b34801561062857600080fd5b5061059b61063736600461413c565b61180a565b34801561064857600080fd5b506102dc610657366004613bc6565b6101026020526000908152604090205481565b34801561067657600080fd5b506102dc610685366004613bc6565b6118c5565b34801561069657600080fd5b5060ff54610563906001600160a01b031681565b3480156106b657600080fd5b506103f56106c536600461415e565b6118eb565b3480156106d657600080fd5b5061042466071afd498d000081565b3480156106f157600080fd5b506102dc610700366004613bc6565b6118fa565b6103f5610713366004613d09565b611905565b34801561072457600080fd5b506102dc6107333660046140f9565b611f14565b34801561074457600080fd5b506103f561075336600461415e565b33600090815260c9602090815260408083206001600160a01b0395909516835293905291909120805460ff1916911515919091179055565b34801561079757600080fd5b506103f56107a636600461419a565b612041565b3480156107b757600080fd5b506102dc6107c6366004613bc6565b6121c6565b3480156107d757600080fd5b5061059b6107e63660046140be565b61220e565b3480156107f757600080fd5b5060fe546104249067ffffffffffffffff1681565b34801561081857600080fd5b5061038d610827366004613bc6565b612393565b34801561083857600080fd5b5061032f610847366004613cd6565b6001600160a01b03918216600090815260666020908152604080832093909416825291909152205460ff1690565b34801561088157600080fd5b506102dc6108903660046141b5565b612435565b3480156108a157600080fd5b506103f56108b03660046141e7565b61249e565b3480156108c157600080fd5b506102dc6108d03660046140be565b612539565b60006001600160a01b0383166109585760405162461bcd60e51b815260206004820152602a60248201527f455243313135353a2061646472657373207a65726f206973206e6f742061207660448201527f616c6964206f776e65720000000000000000000000000000000000000000000060648201526084015b60405180910390fd5b5060008181526065602090815260408083206001600160a01b03861684529091529020545b92915050565b60007fffffffff0000000000000000000000000000000000000000000000000000000082167fd9b67a26000000000000000000000000000000000000000000000000000000001480610a1657507fffffffff0000000000000000000000000000000000000000000000000000000082167f0e89341c00000000000000000000000000000000000000000000000000000000145b8061097d57507f01ffc9a7000000000000000000000000000000000000000000000000000000007fffffffff0000000000000000000000000000000000000000000000000000000083161461097d565b6060610ab96040518061010001604052806000815260200160006001600160a01b031681526020016000815260200160008152602001600081526020016000815260200160008152602001600081525090565b828152600083815260ca60209081526040808320546001600160a01b0316828501528583526101009091529020546080820152610af5836118c5565b60a0820152610b03836118fa565b60c0820181905260a08201516080830151610b289266071afd498d0000929091612435565b60e082015260c081015160a08201516080830151610b529266071afd498d0000929091600161220e565b505060408301525060c081015160a08201516080830151610b7f9266071afd498d00009290916001611479565b505060608301908152604080517f2a5a1a140000000000000000000000000000000000000000000000000000000081528451600482015260208501516001600160a01b03166024820152908401516044820152905160648201526080830151608482015260a083015160a482015260c083015160c482015260e083015160e482015273__$cea9be979eee3d87fb124d6cbb244bb0b5$__9150632a5a1a149061010401600060405180830381865af4158015610c3f573d6000803e3d6000fd5b505050506040513d6000823e601f3d908101601f19168201604052610c67919081019061424c565b9392505050565b610c76612585565b610c7f846113c2565b610ccb5760405162461bcd60e51b815260206004820152601a60248201527f4d6f73734875623a206e6f6e6578736974656e7420746f6b656e000000000000604482015260640161094f565b60008211610d415760405162461bcd60e51b815260206004820152602660248201527f4d6f73734875623a20616d6f756e74206d75737420626520677265617465722060448201527f7468616e20300000000000000000000000000000000000000000000000000000606482015260840161094f565b6000610d4c856118fa565b905082811015610d9e5760405162461bcd60e51b815260206004820152601d60248201527f48696b653a20746f6f206d75636820616d6f756e7420746f204275726e000000604482015260640161094f565b600060405180610100016040528087815260200166071afd498d000067ffffffffffffffff168152602001838152602001610dd8886118c5565b8152602001610df4886000908152610100602052604090205490565b8152602001610e10886000908152610103602052604090205490565b8152602001858152602001866001600160a01b03168152509050600080600080610e5185602001518660400151876060015188608001518960c00151611479565b935093509350935086841015610ef55760405162461bcd60e51b815260206004820152604960248201527f4d6f73734875623a2072656365697665642076616c7565206d7573742062652060448201527f67726561746572207468616e206f7220657175616c20746f206d696e696d756d60648201527f2072656365697665640000000000000000000000000000000000000000000000608482015260a40161094f565b610f083386600001518760c001516125de565b60008560e001516001600160a01b03168560405160006040518083038185875af1925050503d8060008114610f59576040519150601f19603f3d011682016040523d82523d6000602084013e610f5e565b606091505b5050905080610faf5760405162461bcd60e51b815260206004820152601e60248201527f4d6f73734875623a207472616e736665722076616c7565206661696c65640000604482015260640161094f565b8551600090815260ca60205260409020546001600160a01b03166001600160a01b03168360405160006040518083038185875af1925050503d8060008114611013576040519150601f19603f3d011682016040523d82523d6000602084013e611018565b606091505b505080915050806110915760405162461bcd60e51b815260206004820152602860248201527f4d6f73734875623a206661696c656420746f207472616e73666572206372656160448201527f746f722066656520000000000000000000000000000000000000000000000000606482015260840161094f565b60ff546040516001600160a01b03909116908390600081818185875af1925050503d80600081146110de576040519150601f19603f3d011682016040523d82523d6000602084013e6110e3565b606091505b5050809150508061115c5760405162461bcd60e51b815260206004820152602360248201527f4d6f73734875623a206661696c656420746f207472616e73666572206465762060448201527f6665650000000000000000000000000000000000000000000000000000000000606482015260840161094f565b855160e08088015160c0808a01516040805133815260208101969096526001600160a01b039093168584015260608501526080840188905260a084018790528301859052517f63b3cda962e4a1210ab73053c3af0163312c753575551b8c9d04906ec6e0ff679281900390910190a1505050505050506111dc600160cc55565b50505050565b6001600160a01b0385163314806111fe57506111fe8533610847565b6112705760405162461bcd60e51b815260206004820152602e60248201527f455243313135353a2063616c6c6572206973206e6f7420746f6b656e206f776e60448201527f6572206f7220617070726f766564000000000000000000000000000000000000606482015260840161094f565b61127d8585858585612640565b5050505050565b606081518351146112fd5760405162461bcd60e51b815260206004820152602960248201527f455243313135353a206163636f756e747320616e6420696473206c656e67746860448201527f206d69736d617463680000000000000000000000000000000000000000000000606482015260840161094f565b6000835167ffffffffffffffff81111561131957611319613d44565b604051908082528060200260200182016040528015611342578160200160208202803683370190505b50905060005b84518110156113ba5761138d858281518110611366576113666142ce565b6020026020010151858381518110611380576113806142ce565b60200260200101516108d5565b82828151811061139f5761139f6142ce565b60209081029190910101526113b3816142fa565b9050611348565b509392505050565b600081815260976020526040812054151561097d565b600082815260ca602052604090205482906001600160a01b03163381148061142357506001600160a01b038116600090815260c96020908152604080832033845290915290205460ff165b61146f5760405162461bcd60e51b815260206004820152601b60248201527f4d6f73733a2044656c6567617465206e6f7420617070726f7665640000000000604482015260640161094f565b6111dc84846128e7565b600080600080848810156114f55760405162461bcd60e51b815260206004820152603360248201527f4d6f73734875623a204275726e20616d6f756e74206d757374206265206c657360448201527f73207468616e20746f74616c20737570706c7900000000000000000000000000606482015260840161094f565b86881161150d576115068587614314565b92506115ee565b86611518868a61432b565b111561157d57600261152a8882614314565b866115368b6002614314565b611540919061432b565b61154a919061432b565b611554908b614314565b61155f886002614314565b611569919061433e565b6115739087614314565b6115069190614351565b6000611589888a61432b565b90506000611597828861432b565b905060026115ac8366071afd498d0000614314565b6115b78a6002614314565b6115c1919061433e565b6115cb9084614314565b6115d59190614351565b6115df828a614314565b6115e9919061433e565b945050505b60fe54670de0b6b3a76400009061160f9067ffffffffffffffff1685614314565b6116199190614351565b60fe54909250670de0b6b3a7640000906116499068010000000000000000900467ffffffffffffffff1685614314565b6116539190614351565b905080611660838561432b565b61166a919061432b565b935095509550955095915050565b611680612585565b8042106116cf5760405162461bcd60e51b815260206004820152601360248201527f4d6f73734875623a2074782074696d656f757400000000000000000000000000604482015260640161094f565b6116dc8686868686612931565b6116e6600160cc55565b505050505050565b60008080808061171387600090815260ca60205260409020546001600160a01b031690565b6001600160a01b0316036117695760405162461bcd60e51b815260206004820152601d60248201527f4d6f73734875623a20746f6b656e206973206e6f742063726561746564000000604482015260640161094f565b66071afd498d0000600061177c886118fa565b90506000611789896118c5565b60008a81526101006020526040902054909150806117e95760405162461bcd60e51b815260206004820152601960248201527f4d6f73734875623a207a65726f20666c6f6f7220707269636500000000000000604482015260640161094f565b6117f6848484848d61220e565b929d919c509a509098509650505050505050565b60008080808061182f87600090815260ca60205260409020546001600160a01b031690565b6001600160a01b0316036118855760405162461bcd60e51b815260206004820152601d60248201527f4d6f73734875623a20746f6b656e206973206e6f742063726561746564000000604482015260640161094f565b66071afd498d00006000611898886118fa565b905060006118a5896118c5565b60008a815261010060205260409020549091506117f6848484848d611479565b6000818152610102602090815260408083205461010190925282205461097d919061433e565b6118f6338383612f34565b5050565b600061097d82613028565b61190d612585565b600082116119835760405162461bcd60e51b815260206004820152602660248201527f4d6f73734875623a20616d6f756e74206d75737420626520677265617465722060448201527f7468616e20300000000000000000000000000000000000000000000000000000606482015260840161094f565b604080516101008101825285815266071afd498d0000602082015260009181016119ac876118fa565b81526020016119ba876118c5565b81526020016119d6876000908152610100602052604090205490565b81526020016119f2876000908152610103602052604090205490565b8152602001848152602001856001600160a01b03168152509050600080600080611a3385602001518660400151876060015188608001518960c0015161220e565b935093509350935083341015611ab15760405162461bcd60e51b815260206004820152602360248201527f4d6f73734875623a20696e73756666696369656e742066756e647320746f204d60448201527f696e740000000000000000000000000000000000000000000000000000000000606482015260840161094f565b85841115611b275760405162461bcd60e51b815260206004820152603960248201527f4d6f73734875623a2066756e6473206d757374206265206c657373207468616e60448201527f206f7220657175616c20746f206d6178696d756d2073656e7400000000000000606482015260840161094f565b83341115611bf657600033611b3c863461432b565b604051600081818185875af1925050503d8060008114611b78576040519150601f19603f3d011682016040523d82523d6000602084013e611b7d565b606091505b5050905080611bf45760405162461bcd60e51b815260206004820152602360248201527f4d6f73734875623a207472616e736665722066756e6473206261636b2066616960448201527f6c65640000000000000000000000000000000000000000000000000000000000606482015260840161094f565b505b60ff546040516000916001600160a01b03169083908381818185875af1925050503d8060008114611c43576040519150601f19603f3d011682016040523d82523d6000602084013e611c48565b606091505b5050905080611cbe5760405162461bcd60e51b8152602060048201526024808201527f4d6f73734875623a206661696c656420746f207472616e73666572206465762060448201527f6665652000000000000000000000000000000000000000000000000000000000606482015260840161094f565b8551600090815260ca60205260409020546001600160a01b03166001600160a01b03168360405160006040518083038185875af1925050503d8060008114611d22576040519150601f19603f3d011682016040523d82523d6000602084013e611d27565b606091505b50508091505080611da05760405162461bcd60e51b815260206004820152602860248201527f4d6f73734875623a206661696c656420746f207472616e73666572206372656160448201527f746f722066656520000000000000000000000000000000000000000000000000606482015260840161094f565b604080870151875160009081526101016020908152838220548a5183526101049091529281205460a08a015160c08b01519294611de1949390929190612539565b90506000611e01886020015189604001518a606001518b60800151612435565b885160009081526101026020526040902054909150821115611e7c5760408089015189516000908152610101602052919091205460808a0151611e569291908590611e4c8b8761433e565b8d60c00151611f14565b8851600090815261010060209081526040808320939093558a5182526101029052208290555b611e938860e0015189600001518a60c0015161303c565b875160e0808a015160c0808c01516040805133815260208101969096526001600160a01b03909316858401526060850152608084018b905260a084018990528301879052517fdcaf588f09c2b7600db130d5b5166c2c3eecdb321c81cdaba0921b1205d9888f9281900390910190a150505050505050506111dc600160cc55565b600080611f21868861433e565b905080611f2e848a61433e565b11611f7b5760405162461bcd60e51b815260206004820152601160248201527f696e76616c696420706172616d65746572000000000000000000000000000000604482015260640161094f565b600081611f88858b61433e565b611f92919061432b565b9050611f9e848a61433e565b611fa9906002614314565b81611fbb8166071afd498d0000614314565b611fc59190614314565b611fd0876002614314565b611fda919061432b565b611fe49190614351565b92508583116120355760405162461bcd60e51b815260206004820152600d60248201527f696e76616c696420666c6f6f7200000000000000000000000000000000000000604482015260640161094f565b50509695505050505050565b600054610100900460ff16158080156120615750600054600160ff909116105b8061207b5750303b15801561207b575060005460ff166001145b6120ed5760405162461bcd60e51b815260206004820152602e60248201527f496e697469616c697a61626c653a20636f6e747261637420697320616c72656160448201527f647920696e697469616c697a6564000000000000000000000000000000000000606482015260840161094f565b6000805460ff191660011790558015612110576000805461ff0019166101001790555b60ff80547fffffffffffffffffffffffff0000000000000000000000000000000000000000166001600160a01b03841617905560fe80547fffffffffffffffffffffffffffffffff00000000000000000000000000000000166e58d15e176280000058d15e1762800017905580156118f6576000805461ff0019169055604051600181527f7f26b83ff96e1f2b6a682f133852f6798a09c465da95921460cefb3847402498906020015b60405180910390a15050565b6000806121d2836118fa565b905060006121df846118c5565b6000858152610100602052604090205490915061220566071afd498d0000848484612435565b95945050505050565b60008080808661221e868a61433e565b116122345761222d8587614314565b9250612317565b8688111561229b5760026122488882614314565b866122548b6002614314565b61225e919061433e565b612268919061432b565b612272908b614314565b61227d886002614314565b612287919061433e565b6122919087614314565b61222d9190614351565b60006122a7898961432b565b90506000886122b6888c61433e565b6122c0919061432b565b905060026122d58266071afd498d0000614314565b6122e08a6002614314565b6122ea919061433e565b6122f49083614314565b6122fe9190614351565b612308838a614314565b612312919061433e565b945050505b60fe54670de0b6b3a7640000906123389067ffffffffffffffff1685614314565b6123429190614351565b60fe54909250670de0b6b3a7640000906123729068010000000000000000900467ffffffffffffffff1685614314565b61237c9190614351565b905080612389838561433e565b61166a919061433e565b600081815260cb602052604090208054606091906123b090614373565b80601f01602080910402602001604051908101604052809291908181526020018280546123dc90614373565b80156124295780601f106123fe57610100808354040283529160200191612429565b820191906000526020600020905b81548152906001019060200180831161240c57829003601f168201915b50505050509050919050565b600082841161244f576124488483614314565b9050612496565b600061245b848661432b565b905060028161246a8189614314565b6124749190614314565b61247e9190614351565b6124888685614314565b612492919061433e565b9150505b949350505050565b6001600160a01b0385163314806124ba57506124ba8533610847565b61252c5760405162461bcd60e51b815260206004820152602e60248201527f455243313135353a2063616c6c6572206973206e6f7420746f6b656e206f776e60448201527f6572206f7220617070726f766564000000000000000000000000000000000000606482015260840161094f565b61127d85858585856130d5565b600084612546838861433e565b1115612205576000838661255a858a61433e565b612564919061432b565b61256e9190614351565b905061257a8582614314565b979650505050505050565b600260cc54036125d75760405162461bcd60e51b815260206004820152601f60248201527f5265656e7472616e637947756172643a207265656e7472616e742063616c6c00604482015260640161094f565b600260cc55565b6125e98383836132bd565b60006125f4836118fa565b111561263b57817f6bb7ff708619ba0610cba295a58592e0451dee2622938c8755667688daf3529b61262584610a66565b6040516126329190613cc3565b60405180910390a25b505050565b81518351146126b75760405162461bcd60e51b815260206004820152602860248201527f455243313135353a2069647320616e6420616d6f756e7473206c656e6774682060448201527f6d69736d61746368000000000000000000000000000000000000000000000000606482015260840161094f565b6001600160a01b0384166127335760405162461bcd60e51b815260206004820152602560248201527f455243313135353a207472616e7366657220746f20746865207a65726f20616460448201527f6472657373000000000000000000000000000000000000000000000000000000606482015260840161094f565b33612742818787878787613489565b60005b8451811015612881576000858281518110612762576127626142ce565b602002602001015190506000858381518110612780576127806142ce565b60209081029190910181015160008481526065835260408082206001600160a01b038e1683529093529190912054909150818110156128275760405162461bcd60e51b815260206004820152602a60248201527f455243313135353a20696e73756666696369656e742062616c616e636520666f60448201527f72207472616e7366657200000000000000000000000000000000000000000000606482015260840161094f565b60008381526065602090815260408083206001600160a01b038e8116855292528083208585039055908b1682528120805484929061286690849061433e565b925050819055505050508061287a906142fa565b9050612745565b50846001600160a01b0316866001600160a01b0316826001600160a01b03167f4a39dc06d4c0dbc64b70af90fd698a233a518aa5d07e595d983b8c0526c8f7fb87876040516128d19291906143ad565b60405180910390a46116e6818787878787613617565b600082815260cb602052604090206128ff8282614418565b507f9881d3fc43c7ddce9f432f1abbb2720b9aa58489a32de89d7269df1807ac4d9682826040516121ba9291906144d8565b61293a856113c2565b156129875760405162461bcd60e51b815260206004820152601560248201527f4d6f73734875623a20746f6b656e206578697374730000000000000000000000604482015260640161094f565b600085815260ca60205260409020546001600160a01b0316156129ec5760405162461bcd60e51b815260206004820152601960248201527f4d6f73734875623a20746f6b656e206973206372656174656400000000000000604482015260640161094f565b64e8d4a51000841015612a675760405162461bcd60e51b815260206004820152603d60248201527f4d6f73734875623a20666c6f6f72206d7573742062652067726561746572207460448201527f68616e206f7220657175616c20746f206d696e696d756d20666c6f6f72000000606482015260840161094f565b60008311612add5760405162461bcd60e51b815260206004820152602f60248201527f4d6f73734875623a20666c6f6f7220737570706c79206d75737420626520677260448201527f6561746572207468616e207a65726f0000000000000000000000000000000000606482015260840161094f565b60008211612b535760405162461bcd60e51b815260206004820152602b60248201527f4d6f73734875623a2061646a7573742073746570206d7573742067726561746560448201527f72207468616e207a65726f000000000000000000000000000000000000000000606482015260840161094f565b60008111612bc95760405162461bcd60e51b815260206004820152602660248201527f4d6f73734875623a20667353746570206d75737420677265617465722074686160448201527f6e207a65726f0000000000000000000000000000000000000000000000000000606482015260840161094f565b818110612c3e5760405162461bcd60e51b815260206004820152602660248201527f4d6f73734875623a20667353746570206d757374206265206c6573732074686160448201527f6e20737465700000000000000000000000000000000000000000000000000000606482015260840161094f565b60fe54600090670de0b6b3a764000090612c6e9068010000000000000000900467ffffffffffffffff1687614314565b612c789190614351565b9050612c84818661433e565b341015612cf95760405162461bcd60e51b815260206004820152602560248201527f4d6f73734875623a20696e73756666696369656e742066756e647320746f206360448201527f7265617465000000000000000000000000000000000000000000000000000000606482015260840161094f565b612d03818661433e565b341115612ddc5760003382612d18883461432b565b612d22919061432b565b604051600081818185875af1925050503d8060008114612d5e576040519150601f19603f3d011682016040523d82523d6000602084013e612d63565b606091505b5050905080612dda5760405162461bcd60e51b815260206004820152602360248201527f4d6f73734875623a207472616e736665722066756e6473206261636b2066616960448201527f6c65640000000000000000000000000000000000000000000000000000000000606482015260840161094f565b505b60ff546040516000916001600160a01b03169083908381818185875af1925050503d8060008114612e29576040519150601f19603f3d011682016040523d82523d6000602084013e612e2e565b606091505b5050905080612e7f5760405162461bcd60e51b815260206004820152601f60248201527f4d6f73734875623a206661696c656420746f2072656365697665206665652000604482015260640161094f565b612e89873361381b565b612e953388600161303c565b6000878152610100602081815260408084208a90556101018252808420899055610103825280842088905561010482529283902086905582513381529081018a9052918201889052606082018790526080820186905260a0820185905260c0820188905260e082018490527f460cf3f1c0e37440b24f7a57d7c52f04ca2f3df751bcb4097d4a9e383b1a2477910160405180910390a150505050505050565b816001600160a01b0316836001600160a01b031603612fbb5760405162461bcd60e51b815260206004820152602960248201527f455243313135353a2073657474696e6720617070726f76616c2073746174757360448201527f20666f722073656c660000000000000000000000000000000000000000000000606482015260840161094f565b6001600160a01b03838116600081815260666020908152604080832094871680845294825291829020805460ff191686151590811790915591519182527f17307eab39ab6107e8899845ad3d59bd9653f200f220920489ca2b5937696c31910160405180910390a3505050565b60008181526097602052604081205461097d565b6000811161308c5760405162461bcd60e51b815260206004820152601160248201527f4d6f73733a207a65726f20616d6f756e74000000000000000000000000000000604482015260640161094f565b6040805160008152602081019091526130aa908490849084906138e8565b817f6bb7ff708619ba0610cba295a58592e0451dee2622938c8755667688daf3529b61262584610a66565b6001600160a01b0384166131515760405162461bcd60e51b815260206004820152602560248201527f455243313135353a207472616e7366657220746f20746865207a65726f20616460448201527f6472657373000000000000000000000000000000000000000000000000000000606482015260840161094f565b33600061315d85613a20565b9050600061316a85613a20565b905061317a838989858589613489565b60008681526065602090815260408083206001600160a01b038c168452909152902054858110156132135760405162461bcd60e51b815260206004820152602a60248201527f455243313135353a20696e73756666696369656e742062616c616e636520666f60448201527f72207472616e7366657200000000000000000000000000000000000000000000606482015260840161094f565b60008781526065602090815260408083206001600160a01b038d8116855292528083208985039055908a1682528120805488929061325290849061433e565b909155505060408051888152602081018890526001600160a01b03808b16928c821692918816917fc3d58168c5ae7397731d063d5bbf3d657854427343f4c083240f7aacaa2d0f62910160405180910390a46132b2848a8a8a8a8a613a6b565b505050505050505050565b6001600160a01b0383166133395760405162461bcd60e51b815260206004820152602360248201527f455243313135353a206275726e2066726f6d20746865207a65726f206164647260448201527f6573730000000000000000000000000000000000000000000000000000000000606482015260840161094f565b33600061334584613a20565b9050600061335284613a20565b905061337283876000858560405180602001604052806000815250613489565b60008581526065602090815260408083206001600160a01b038a1684529091529020548481101561340a5760405162461bcd60e51b8152602060048201526024808201527f455243313135353a206275726e20616d6f756e7420657863656564732062616c60448201527f616e636500000000000000000000000000000000000000000000000000000000606482015260840161094f565b60008681526065602090815260408083206001600160a01b038b81168086529184528285208a8703905582518b81529384018a90529092908816917fc3d58168c5ae7397731d063d5bbf3d657854427343f4c083240f7aacaa2d0f62910160405180910390a46040805160208101909152600090525b50505050505050565b6001600160a01b0385166135105760005b835181101561350e578281815181106134b5576134b56142ce565b6020026020010151609760008684815181106134d3576134d36142ce565b6020026020010151815260200190815260200160002060008282546134f8919061433e565b909155506135079050816142fa565b905061349a565b505b6001600160a01b0384166116e65760005b835181101561348057600084828151811061353e5761353e6142ce565b60200260200101519050600084838151811061355c5761355c6142ce565b60200260200101519050600060976000848152602001908152602001600020549050818110156135f45760405162461bcd60e51b815260206004820152602860248201527f455243313135353a206275726e20616d6f756e74206578636565647320746f7460448201527f616c537570706c79000000000000000000000000000000000000000000000000606482015260840161094f565b60009283526097602052604090922091039055613610816142fa565b9050613521565b6001600160a01b0384163b156116e6576040517fbc197c810000000000000000000000000000000000000000000000000000000081526001600160a01b0385169063bc197c819061367490899089908890889088906004016144f1565b6020604051808303816000875af19250505080156136af575060408051601f3d908101601f191682019092526136ac9181019061454f565b60015b613764576136bb61456c565b806308c379a0036136f457506136cf614588565b806136da57506136f6565b8060405162461bcd60e51b815260040161094f9190613cc3565b505b60405162461bcd60e51b815260206004820152603460248201527f455243313135353a207472616e7366657220746f206e6f6e2d4552433131353560448201527f526563656976657220696d706c656d656e746572000000000000000000000000606482015260840161094f565b7fffffffff0000000000000000000000000000000000000000000000000000000081167fbc197c8100000000000000000000000000000000000000000000000000000000146134805760405162461bcd60e51b815260206004820152602860248201527f455243313135353a204552433131353552656365697665722072656a6563746560448201527f6420746f6b656e73000000000000000000000000000000000000000000000000606482015260840161094f565b613824826113c2565b156138715760405162461bcd60e51b815260206004820152601260248201527f4d6f73733a20746f6b656e206578697374730000000000000000000000000000604482015260640161094f565b600082815260ca602090815260409182902080547fffffffffffffffffffffffff0000000000000000000000000000000000000000166001600160a01b0385169081179091558251858152918201527fc0186d9ba7364ebd80a7010121367f481af81e1028bf368b2172fedf2c6fc7de91016121ba565b6001600160a01b0384166139645760405162461bcd60e51b815260206004820152602160248201527f455243313135353a206d696e7420746f20746865207a65726f2061646472657360448201527f7300000000000000000000000000000000000000000000000000000000000000606482015260840161094f565b33600061397085613a20565b9050600061397d85613a20565b905061398e83600089858589613489565b60008681526065602090815260408083206001600160a01b038b168452909152812080548792906139c090849061433e565b909155505060408051878152602081018790526001600160a01b03808a1692600092918716917fc3d58168c5ae7397731d063d5bbf3d657854427343f4c083240f7aacaa2d0f62910160405180910390a461348083600089898989613a6b565b60408051600180825281830190925260609160009190602080830190803683370190505090508281600081518110613a5a57613a5a6142ce565b602090810291909101015292915050565b6001600160a01b0384163b156116e6576040517ff23a6e610000000000000000000000000000000000000000000000000000000081526001600160a01b0385169063f23a6e6190613ac89089908990889088908890600401614630565b6020604051808303816000875af1925050508015613b03575060408051601f3d908101601f19168201909252613b009181019061454f565b60015b613b0f576136bb61456c565b7fffffffff0000000000000000000000000000000000000000000000000000000081167ff23a6e6100000000000000000000000000000000000000000000000000000000146134805760405162461bcd60e51b815260206004820152602860248201527f455243313135353a204552433131353552656365697665722072656a6563746560448201527f6420746f6b656e73000000000000000000000000000000000000000000000000606482015260840161094f565b600060208284031215613bd857600080fd5b5035919050565b80356001600160a01b0381168114613bf657600080fd5b919050565b60008060408385031215613c0e57600080fd5b613c1783613bdf565b946020939093013593505050565b7fffffffff0000000000000000000000000000000000000000000000000000000081168114613c5357600080fd5b50565b600060208284031215613c6857600080fd5b8135610c6781613c25565b60005b83811015613c8e578181015183820152602001613c76565b50506000910152565b60008151808452613caf816020860160208601613c73565b601f01601f19169290920160200192915050565b602081526000610c676020830184613c97565b60008060408385031215613ce957600080fd5b613cf283613bdf565b9150613d0060208401613bdf565b90509250929050565b60008060008060808587031215613d1f57600080fd5b84359350613d2f60208601613bdf565b93969395505050506040820135916060013590565b634e487b7160e01b600052604160045260246000fd5b601f19601f830116810181811067ffffffffffffffff82111715613d8057613d80613d44565b6040525050565b600067ffffffffffffffff821115613da157613da1613d44565b5060051b60200190565b600082601f830112613dbc57600080fd5b81356020613dc982613d87565b604051613dd68282613d5a565b83815260059390931b8501820192828101915086841115613df657600080fd5b8286015b84811015613e115780358352918301918301613dfa565b509695505050505050565b600067ffffffffffffffff821115613e3657613e36613d44565b50601f01601f191660200190565b6000613e4f83613e1c565b604051613e5c8282613d5a565b809250848152858585011115613e7157600080fd5b8484602083013760006020868301015250509392505050565b600082601f830112613e9b57600080fd5b610c6783833560208501613e44565b600080600080600060a08688031215613ec257600080fd5b613ecb86613bdf565b9450613ed960208701613bdf565b9350604086013567ffffffffffffffff80821115613ef657600080fd5b613f0289838a01613dab565b94506060880135915080821115613f1857600080fd5b613f2489838a01613dab565b93506080880135915080821115613f3a57600080fd5b50613f4788828901613e8a565b9150509295509295909350565b60008060408385031215613f6757600080fd5b823567ffffffffffffffff80821115613f7f57600080fd5b818501915085601f830112613f9357600080fd5b81356020613fa082613d87565b604051613fad8282613d5a565b83815260059390931b8501820192828101915089841115613fcd57600080fd5b948201945b83861015613ff257613fe386613bdf565b82529482019490820190613fd2565b9650508601359250508082111561400857600080fd5b5061401585828601613dab565b9150509250929050565b600081518084526020808501945080840160005b8381101561404f57815187529582019590820190600101614033565b509495945050505050565b602081526000610c67602083018461401f565b6000806040838503121561408057600080fd5b82359150602083013567ffffffffffffffff81111561409e57600080fd5b8301601f810185136140af57600080fd5b61401585823560208401613e44565b600080600080600060a086880312156140d657600080fd5b505083359560208501359550604085013594606081013594506080013592509050565b60008060008060008060c0878903121561411257600080fd5b505084359660208601359650604086013595606081013595506080810135945060a0013592509050565b6000806040838503121561414f57600080fd5b50508035926020909101359150565b6000806040838503121561417157600080fd5b61417a83613bdf565b91506020830135801515811461418f57600080fd5b809150509250929050565b6000602082840312156141ac57600080fd5b610c6782613bdf565b600080600080608085870312156141cb57600080fd5b5050823594602084013594506040840135936060013592509050565b600080600080600060a086880312156141ff57600080fd5b61420886613bdf565b945061421660208701613bdf565b93506040860135925060608601359150608086013567ffffffffffffffff81111561424057600080fd5b613f4788828901613e8a565b60006020828403121561425e57600080fd5b815167ffffffffffffffff81111561427557600080fd5b8201601f8101841361428657600080fd5b805161429181613e1c565b60405161429e8282613d5a565b8281528660208486010111156142b357600080fd5b6142c4836020830160208701613c73565b9695505050505050565b634e487b7160e01b600052603260045260246000fd5b634e487b7160e01b600052601160045260246000fd5b6000600019820361430d5761430d6142e4565b5060010190565b808202811582820484141761097d5761097d6142e4565b8181038181111561097d5761097d6142e4565b8082018082111561097d5761097d6142e4565b60008261436e57634e487b7160e01b600052601260045260246000fd5b500490565b600181811c9082168061438757607f821691505b6020821081036143a757634e487b7160e01b600052602260045260246000fd5b50919050565b6040815260006143c0604083018561401f565b8281036020840152612205818561401f565b601f82111561263b57600081815260208120601f850160051c810160208610156143f95750805b601f850160051c820191505b818110156116e657828155600101614405565b815167ffffffffffffffff81111561443257614432613d44565b614446816144408454614373565b846143d2565b602080601f83116001811461447b57600084156144635750858301515b600019600386901b1c1916600185901b1785556116e6565b600085815260208120601f198616915b828110156144aa5788860151825594840194600190910190840161448b565b50858210156144c85787850151600019600388901b60f8161c191681555b5050505050600190811b01905550565b8281526040602082015260006124966040830184613c97565b60006001600160a01b03808816835280871660208401525060a0604083015261451d60a083018661401f565b828103606084015261452f818661401f565b905082810360808401526145438185613c97565b98975050505050505050565b60006020828403121561456157600080fd5b8151610c6781613c25565b600060033d11156145855760046000803e5060005160e01c5b90565b600060443d10156145965790565b6040517ffffffffffffffffffffffffffffffffffffffffffffffffffffffffffffffffc803d016004833e81513d67ffffffffffffffff81602484011181841117156145e457505050505090565b82850191508151818111156145fc5750505050505090565b843d87010160208285010111156146165750505050505090565b61462560208286010187613d5a565b509095945050505050565b60006001600160a01b03808816835280871660208401525084604083015283606083015260a0608083015261257a60a0830184613c9756fea26469706673582212202b3aaa89440fad9ef78ebc27905426ca4acf387bea3a064f62ec1f8b9762863e64736f6c63430008130033",
  "libraries": {
    "NFTDescriptor": "0x565d8cd5f571b67888735c915d7602836b3b16fe"
  },
  "devdoc": {
    "events": {
      "ApprovalForAll(address,address,bool)": {
        "details": "Emitted when `account` grants or revokes permission to `operator` to transfer their tokens, according to `approved`."
      },
      "Initialized(uint8)": {
        "details": "Triggered when the contract has been initialized or reinitialized."
      },
      "TransferBatch(address,address,address,uint256[],uint256[])": {
        "details": "Equivalent to multiple {TransferSingle} events, where `operator`, `from` and `to` are the same for all transfers."
      },
      "TransferSingle(address,address,address,uint256,uint256)": {
        "details": "Emitted when `value` tokens of token type `id` are transferred from `from` to `to` by `operator`."
      },
      "URI(string,uint256)": {
        "details": "Emitted when the URI for token type `id` changes to `value`, if it is a non-programmatic URI. If an {URI} event was emitted for `id`, the standard https://eips.ethereum.org/EIPS/eip-1155#metadata-extensions[guarantees] that `value` will equal the value returned by {IERC1155MetadataURI-uri}."
      }
    },
    "kind": "dev",
    "methods": {
      "balanceOf(address,uint256)": {
        "details": "See {IERC1155-balanceOf}. Requirements: - `account` cannot be the zero address."
      },
      "balanceOfBatch(address[],uint256[])": {
        "details": "See {IERC1155-balanceOfBatch}. Requirements: - `accounts` and `ids` must have the same length."
      },
      "isApprovedForAll(address,address)": {
        "details": "See {IERC1155-isApprovedForAll}."
      },
      "safeBatchTransferFrom(address,address,uint256[],uint256[],bytes)": {
        "details": "See {IERC1155-safeBatchTransferFrom}."
      },
      "safeTransferFrom(address,address,uint256,uint256,bytes)": {
        "details": "See {IERC1155-safeTransferFrom}."
      },
      "setApprovalForAll(address,bool)": {
        "details": "See {IERC1155-setApprovalForAll}."
      },
      "supportsInterface(bytes4)": {
        "details": "See {IERC165-supportsInterface}."
      }
    },
    "version": 1
  },
  "userdoc": {
    "kind": "user",
    "methods": {},
    "version": 1
  },
  "storageLayout": {
    "storage": [
      {
        "astId": 6,
        "contract": "contracts/core/MossHub.sol:MossHub",
        "label": "_initialized",
        "offset": 0,
        "slot": "0",
        "type": "t_uint8"
      },
      {
        "astId": 9,
        "contract": "contracts/core/MossHub.sol:MossHub",
        "label": "_initializing",
        "offset": 1,
        "slot": "0",
        "type": "t_bool"
      },
      {
        "astId": 2223,
        "contract": "contracts/core/MossHub.sol:MossHub",
        "label": "__gap",
        "offset": 0,
        "slot": "1",
        "type": "t_array(t_uint256)50_storage"
      },
      {
        "astId": 2267,
        "contract": "contracts/core/MossHub.sol:MossHub",
        "label": "__gap",
        "offset": 0,
        "slot": "51",
        "type": "t_array(t_uint256)50_storage"
      },
      {
        "astId": 281,
        "contract": "contracts/core/MossHub.sol:MossHub",
        "label": "_balances",
        "offset": 0,
        "slot": "101",
        "type": "t_mapping(t_uint256,t_mapping(t_address,t_uint256))"
      },
      {
        "astId": 287,
        "contract": "contracts/core/MossHub.sol:MossHub",
        "label": "_operatorApprovals",
        "offset": 0,
        "slot": "102",
        "type": "t_mapping(t_address,t_mapping(t_address,t_bool))"
      },
      {
        "astId": 289,
        "contract": "contracts/core/MossHub.sol:MossHub",
        "label": "_uri",
        "offset": 0,
        "slot": "103",
        "type": "t_string_storage"
      },
      {
        "astId": 1496,
        "contract": "contracts/core/MossHub.sol:MossHub",
        "label": "__gap",
        "offset": 0,
        "slot": "104",
        "type": "t_array(t_uint256)47_storage"
      },
      {
        "astId": 1685,
        "contract": "contracts/core/MossHub.sol:MossHub",
        "label": "_totalSupply",
        "offset": 0,
        "slot": "151",
        "type": "t_mapping(t_uint256,t_uint256)"
      },
      {
        "astId": 1836,
        "contract": "contracts/core/MossHub.sol:MossHub",
        "label": "__gap",
        "offset": 0,
        "slot": "152",
        "type": "t_array(t_uint256)49_storage"
      },
      {
        "astId": 4989,
        "contract": "contracts/core/MossHub.sol:MossHub",
        "label": "isApprovedDelegate",
        "offset": 0,
        "slot": "201",
        "type": "t_mapping(t_address,t_mapping(t_address,t_bool))"
      },
      {
        "astId": 3313,
        "contract": "contracts/core/MossHub.sol:MossHub",
        "label": "creators",
        "offset": 0,
        "slot": "202",
        "type": "t_mapping(t_uint256,t_address)"
      },
      {
        "astId": 3317,
        "contract": "contracts/core/MossHub.sol:MossHub",
        "label": "stoneNames",
        "offset": 0,
        "slot": "203",
        "type": "t_mapping(t_uint256,t_string_storage)"
      },
      {
        "astId": 182,
        "contract": "contracts/core/MossHub.sol:MossHub",
        "label": "_status",
        "offset": 0,
        "slot": "204",
        "type": "t_uint256"
      },
      {
        "astId": 251,
        "contract": "contracts/core/MossHub.sol:MossHub",
        "label": "__gap",
        "offset": 0,
        "slot": "205",
        "type": "t_array(t_uint256)49_storage"
      },
      {
        "astId": 3557,
        "contract": "contracts/core/MossHub.sol:MossHub",
        "label": "defaultCreatorFeePCT",
        "offset": 0,
        "slot": "254",
        "type": "t_uint64"
      },
      {
        "astId": 3559,
        "contract": "contracts/core/MossHub.sol:MossHub",
        "label": "devFeePCT",
        "offset": 8,
        "slot": "254",
        "type": "t_uint64"
      },
      {
        "astId": 3561,
        "contract": "contracts/core/MossHub.sol:MossHub",
        "label": "dev",
        "offset": 0,
        "slot": "255",
        "type": "t_address"
      },
      {
        "astId": 3565,
        "contract": "contracts/core/MossHub.sol:MossHub",
        "label": "f",
        "offset": 0,
        "slot": "256",
        "type": "t_mapping(t_uint256,t_uint256)"
      },
      {
        "astId": 3569,
        "contract": "contracts/core/MossHub.sol:MossHub",
        "label": "fs",
        "offset": 0,
        "slot": "257",
        "type": "t_mapping(t_uint256,t_uint256)"
      },
      {
        "astId": 3573,
        "contract": "contracts/core/MossHub.sol:MossHub",
        "label": "fsIncr",
        "offset": 0,
        "slot": "258",
        "type": "t_mapping(t_uint256,t_uint256)"
      },
      {
        "astId": 3577,
        "contract": "contracts/core/MossHub.sol:MossHub",
        "label": "step",
        "offset": 0,
        "slot": "259",
        "type": "t_mapping(t_uint256,t_uint256)"
      },
      {
        "astId": 3581,
        "contract": "contracts/core/MossHub.sol:MossHub",
        "label": "fsStep",
        "offset": 0,
        "slot": "260",
        "type": "t_mapping(t_uint256,t_uint256)"
      }
    ],
    "types": {
      "t_address": {
        "encoding": "inplace",
        "label": "address",
        "numberOfBytes": "20"
      },
      "t_array(t_uint256)47_storage": {
        "base": "t_uint256",
        "encoding": "inplace",
        "label": "uint256[47]",
        "numberOfBytes": "1504"
      },
      "t_array(t_uint256)49_storage": {
        "base": "t_uint256",
        "encoding": "inplace",
        "label": "uint256[49]",
        "numberOfBytes": "1568"
      },
      "t_array(t_uint256)50_storage": {
        "base": "t_uint256",
        "encoding": "inplace",
        "label": "uint256[50]",
        "numberOfBytes": "1600"
      },
      "t_bool": {
        "encoding": "inplace",
        "label": "bool",
        "numberOfBytes": "1"
      },
      "t_mapping(t_address,t_bool)": {
        "encoding": "mapping",
        "key": "t_address",
        "label": "mapping(address => bool)",
        "numberOfBytes": "32",
        "value": "t_bool"
      },
      "t_mapping(t_address,t_mapping(t_address,t_bool))": {
        "encoding": "mapping",
        "key": "t_address",
        "label": "mapping(address => mapping(address => bool))",
        "numberOfBytes": "32",
        "value": "t_mapping(t_address,t_bool)"
      },
      "t_mapping(t_address,t_uint256)": {
        "encoding": "mapping",
        "key": "t_address",
        "label": "mapping(address => uint256)",
        "numberOfBytes": "32",
        "value": "t_uint256"
      },
      "t_mapping(t_uint256,t_address)": {
        "encoding": "mapping",
        "key": "t_uint256",
        "label": "mapping(uint256 => address)",
        "numberOfBytes": "32",
        "value": "t_address"
      },
      "t_mapping(t_uint256,t_mapping(t_address,t_uint256))": {
        "encoding": "mapping",
        "key": "t_uint256",
        "label": "mapping(uint256 => mapping(address => uint256))",
        "numberOfBytes": "32",
        "value": "t_mapping(t_address,t_uint256)"
      },
      "t_mapping(t_uint256,t_string_storage)": {
        "encoding": "mapping",
        "key": "t_uint256",
        "label": "mapping(uint256 => string)",
        "numberOfBytes": "32",
        "value": "t_string_storage"
      },
      "t_mapping(t_uint256,t_uint256)": {
        "encoding": "mapping",
        "key": "t_uint256",
        "label": "mapping(uint256 => uint256)",
        "numberOfBytes": "32",
        "value": "t_uint256"
      },
      "t_string_storage": {
        "encoding": "bytes",
        "label": "string",
        "numberOfBytes": "32"
      },
      "t_uint256": {
        "encoding": "inplace",
        "label": "uint256",
        "numberOfBytes": "32"
      },
      "t_uint64": {
        "encoding": "inplace",
        "label": "uint64",
        "numberOfBytes": "8"
      },
      "t_uint8": {
        "encoding": "inplace",
        "label": "uint8",
        "numberOfBytes": "1"
      }
    }
  }
}