{
  "address": "0x64c7DE3A7d89632370740D6c3d9cc4876A962769",
  "abi": [
    {
      "anonymous": false,
      "inputs": [
        {
          "indexed": true,
          "internalType": "address",
          "name": "account",
          "type": "address"
        },
        {
          "indexed": true,
          "internalType": "address",
          "name": "operator",
          "type": "address"
        },
        {
          "indexed": false,
          "internalType": "bool",
          "name": "approved",
          "type": "bool"
        }
      ],
      "name": "ApprovalForAll",
      "type": "event"
    },
    {
      "anonymous": false,
      "inputs": [
        {
          "indexed": false,
          "internalType": "address",
          "name": "from",
          "type": "address"
        },
        {
          "indexed": false,
          "internalType": "uint256",
          "name": "id",
          "type": "uint256"
        },
        {
          "indexed": false,
          "internalType": "address",
          "name": "to",
          "type": "address"
        },
        {
          "indexed": false,
          "internalType": "uint256",
          "name": "amount",
          "type": "uint256"
        },
        {
          "indexed": false,
          "internalType": "uint256",
          "name": "value",
          "type": "uint256"
        },
        {
          "indexed": false,
          "internalType": "uint256",
          "name": "creatorFee",
          "type": "uint256"
        },
        {
          "indexed": false,
          "internalType": "uint256",
          "name": "devFee",
          "type": "uint256"
        }
      ],
      "name": "Bought",
      "type": "event"
    },
    {
      "anonymous": false,
      "inputs": [
        {
          "indexed": false,
          "internalType": "address",
          "name": "from",
          "type": "address"
        },
        {
          "indexed": false,
          "internalType": "uint256",
          "name": "id",
          "type": "uint256"
        },
        {
          "indexed": false,
          "internalType": "uint256",
          "name": "_f",
          "type": "uint256"
        },
        {
          "indexed": false,
          "internalType": "uint256",
          "name": "_fs",
          "type": "uint256"
        },
        {
          "indexed": false,
          "internalType": "uint256",
          "name": "_s",
          "type": "uint256"
        },
        {
          "indexed": false,
          "internalType": "uint256",
          "name": "_tar",
          "type": "uint256"
        },
        {
          "indexed": false,
          "internalType": "uint256",
          "name": "value",
          "type": "uint256"
        },
        {
          "indexed": false,
          "internalType": "uint256",
          "name": "devFee",
          "type": "uint256"
        }
      ],
      "name": "Created",
      "type": "event"
    },
    {
      "anonymous": false,
      "inputs": [
        {
          "indexed": false,
          "internalType": "uint256",
          "name": "id",
          "type": "uint256"
        },
        {
          "indexed": false,
          "internalType": "address",
          "name": "creator",
          "type": "address"
        }
      ],
      "name": "CreatorUpdated",
      "type": "event"
    },
    {
      "anonymous": false,
      "inputs": [
        {
          "indexed": false,
          "internalType": "uint8",
          "name": "version",
          "type": "uint8"
        }
      ],
      "name": "Initialized",
      "type": "event"
    },
    {
      "anonymous": false,
      "inputs": [
        {
          "indexed": false,
          "internalType": "address",
          "name": "from",
          "type": "address"
        },
        {
          "indexed": false,
          "internalType": "uint256",
          "name": "id",
          "type": "uint256"
        },
        {
          "indexed": false,
          "internalType": "address",
          "name": "to",
          "type": "address"
        },
        {
          "indexed": false,
          "internalType": "uint256",
          "name": "amount",
          "type": "uint256"
        },
        {
          "indexed": false,
          "internalType": "uint256",
          "name": "value",
          "type": "uint256"
        },
        {
          "indexed": false,
          "internalType": "uint256",
          "name": "creatorFee",
          "type": "uint256"
        },
        {
          "indexed": false,
          "internalType": "uint256",
          "name": "devFee",
          "type": "uint256"
        }
      ],
      "name": "Sold",
      "type": "event"
    },
    {
      "anonymous": false,
      "inputs": [
        {
          "indexed": false,
          "internalType": "uint256",
          "name": "id",
          "type": "uint256"
        },
        {
          "indexed": false,
          "internalType": "string",
          "name": "tokenURI",
          "type": "string"
        }
      ],
      "name": "TokenURIUpdated",
      "type": "event"
    },
    {
      "anonymous": false,
      "inputs": [
        {
          "indexed": true,
          "internalType": "address",
          "name": "operator",
          "type": "address"
        },
        {
          "indexed": true,
          "internalType": "address",
          "name": "from",
          "type": "address"
        },
        {
          "indexed": true,
          "internalType": "address",
          "name": "to",
          "type": "address"
        },
        {
          "indexed": false,
          "internalType": "uint256[]",
          "name": "ids",
          "type": "uint256[]"
        },
        {
          "indexed": false,
          "internalType": "uint256[]",
          "name": "values",
          "type": "uint256[]"
        }
      ],
      "name": "TransferBatch",
      "type": "event"
    },
    {
      "anonymous": false,
      "inputs": [
        {
          "indexed": true,
          "internalType": "address",
          "name": "operator",
          "type": "address"
        },
        {
          "indexed": true,
          "internalType": "address",
          "name": "from",
          "type": "address"
        },
        {
          "indexed": true,
          "internalType": "address",
          "name": "to",
          "type": "address"
        },
        {
          "indexed": false,
          "internalType": "uint256",
          "name": "id",
          "type": "uint256"
        },
        {
          "indexed": false,
          "internalType": "uint256",
          "name": "value",
          "type": "uint256"
        }
      ],
      "name": "TransferSingle",
      "type": "event"
    },
    {
      "anonymous": false,
      "inputs": [
        {
          "indexed": false,
          "internalType": "string",
          "name": "value",
          "type": "string"
        },
        {
          "indexed": true,
          "internalType": "uint256",
          "name": "id",
          "type": "uint256"
        }
      ],
      "name": "URI",
      "type": "event"
    },
    {
      "inputs": [],
      "name": "PRECISIONDECIMALS",
      "outputs": [
        {
          "internalType": "uint64",
          "name": "",
          "type": "uint64"
        }
      ],
      "stateMutability": "view",
      "type": "function"
    },
    {
      "inputs": [
        {
          "internalType": "uint256",
          "name": "_t",
          "type": "uint256"
        },
        {
          "internalType": "uint256",
          "name": "_fs",
          "type": "uint256"
        },
        {
          "internalType": "uint256",
          "name": "_fsStep",
          "type": "uint256"
        },
        {
          "internalType": "uint256",
          "name": "_step",
          "type": "uint256"
        },
        {
          "internalType": "uint256",
          "name": "amount",
          "type": "uint256"
        }
      ],
      "name": "adjustment",
      "outputs": [
        {
          "internalType": "uint256",
          "name": "_fsIncr",
          "type": "uint256"
        }
      ],
      "stateMutability": "pure",
      "type": "function"
    },
    {
      "inputs": [
        {
          "internalType": "address",
          "name": "to",
          "type": "address"
        },
        {
          "internalType": "uint256",
          "name": "id",
          "type": "uint256"
        }
      ],
      "name": "balanceOf",
      "outputs": [
        {
          "internalType": "uint256",
          "name": "",
          "type": "uint256"
        }
      ],
      "stateMutability": "view",
      "type": "function"
    },
    {
      "inputs": [
        {
          "internalType": "address[]",
          "name": "accounts",
          "type": "address[]"
        },
        {
          "internalType": "uint256[]",
          "name": "ids",
          "type": "uint256[]"
        }
      ],
      "name": "balanceOfBatch",
      "outputs": [
        {
          "internalType": "uint256[]",
          "name": "",
          "type": "uint256[]"
        }
      ],
      "stateMutability": "view",
      "type": "function"
    },
    {
      "inputs": [
        {
          "internalType": "uint256",
          "name": "id",
          "type": "uint256"
        },
        {
          "internalType": "address",
          "name": "to",
          "type": "address"
        },
        {
          "internalType": "uint256",
          "name": "amount",
          "type": "uint256"
        },
        {
          "internalType": "uint256",
          "name": "maxSent",
          "type": "uint256"
        }
      ],
      "name": "buy",
      "outputs": [],
      "stateMutability": "payable",
      "type": "function"
    },
    {
      "inputs": [
        {
          "internalType": "uint256",
          "name": "id",
          "type": "uint256"
        },
        {
          "internalType": "uint256",
          "name": "_f",
          "type": "uint256"
        },
        {
          "internalType": "uint256",
          "name": "_fs",
          "type": "uint256"
        },
        {
          "internalType": "uint256",
          "name": "_s",
          "type": "uint256"
        },
        {
          "internalType": "uint256",
          "name": "_fsStep",
          "type": "uint256"
        },
        {
          "internalType": "string",
          "name": "_tokenURI",
          "type": "string"
        },
        {
          "internalType": "uint256",
          "name": "timeoutAt",
          "type": "uint256"
        }
      ],
      "name": "create",
      "outputs": [],
      "stateMutability": "payable",
      "type": "function"
    },
    {
      "inputs": [
        {
          "internalType": "uint256",
          "name": "id",
          "type": "uint256"
        }
      ],
      "name": "creatorOf",
      "outputs": [
        {
          "internalType": "address",
          "name": "",
          "type": "address"
        }
      ],
      "stateMutability": "view",
      "type": "function"
    },
    {
      "inputs": [],
      "name": "defaultCreatorFeePCT",
      "outputs": [
        {
          "internalType": "uint64",
          "name": "",
          "type": "uint64"
        }
      ],
      "stateMutability": "view",
      "type": "function"
    },
    {
      "inputs": [],
      "name": "dev",
      "outputs": [
        {
          "internalType": "address",
          "name": "",
          "type": "address"
        }
      ],
      "stateMutability": "view",
      "type": "function"
    },
    {
      "inputs": [],
      "name": "devFeePCT",
      "outputs": [
        {
          "internalType": "uint64",
          "name": "",
          "type": "uint64"
        }
      ],
      "stateMutability": "view",
      "type": "function"
    },
    {
      "inputs": [
        {
          "internalType": "uint256",
          "name": "_t",
          "type": "uint256"
        },
        {
          "internalType": "uint256",
          "name": "_fs",
          "type": "uint256"
        },
        {
          "internalType": "uint256",
          "name": "_fsIncr",
          "type": "uint256"
        },
        {
          "internalType": "uint256",
          "name": "_f",
          "type": "uint256"
        },
        {
          "internalType": "uint256",
          "name": "_w",
          "type": "uint256"
        },
        {
          "internalType": "uint256",
          "name": "amount",
          "type": "uint256"
        }
      ],
      "name": "estimateAdjust",
      "outputs": [
        {
          "internalType": "uint256",
          "name": "_floor",
          "type": "uint256"
        }
      ],
      "stateMutability": "pure",
      "type": "function"
    },
    {
      "inputs": [
        {
          "internalType": "uint256",
          "name": "id",
          "type": "uint256"
        },
        {
          "internalType": "uint256",
          "name": "amount",
          "type": "uint256"
        }
      ],
      "name": "estimateBuy",
      "outputs": [
        {
          "internalType": "uint256",
          "name": "total",
          "type": "uint256"
        },
        {
          "internalType": "uint256",
          "name": "value",
          "type": "uint256"
        },
        {
          "internalType": "uint256",
          "name": "creatorFee",
          "type": "uint256"
        },
        {
          "internalType": "uint256",
          "name": "devFee",
          "type": "uint256"
        }
      ],
      "stateMutability": "view",
      "type": "function"
    },
    {
      "inputs": [
        {
          "internalType": "uint256",
          "name": "_k",
          "type": "uint256"
        },
        {
          "internalType": "uint256",
          "name": "_t",
          "type": "uint256"
        },
        {
          "internalType": "uint256",
          "name": "_fs",
          "type": "uint256"
        },
        {
          "internalType": "uint256",
          "name": "_f",
          "type": "uint256"
        },
        {
          "internalType": "uint256",
          "name": "amount",
          "type": "uint256"
        }
      ],
      "name": "estimateBuy",
      "outputs": [
        {
          "internalType": "uint256",
          "name": "total",
          "type": "uint256"
        },
        {
          "internalType": "uint256",
          "name": "value",
          "type": "uint256"
        },
        {
          "internalType": "uint256",
          "name": "creatorFee",
          "type": "uint256"
        },
        {
          "internalType": "uint256",
          "name": "devFee",
          "type": "uint256"
        }
      ],
      "stateMutability": "view",
      "type": "function"
    },
    {
      "inputs": [
        {
          "internalType": "uint256",
          "name": "_k",
          "type": "uint256"
        },
        {
          "internalType": "uint256",
          "name": "_t",
          "type": "uint256"
        },
        {
          "internalType": "uint256",
          "name": "_fs",
          "type": "uint256"
        },
        {
          "internalType": "uint256",
          "name": "_f",
          "type": "uint256"
        },
        {
          "internalType": "uint256",
          "name": "amount",
          "type": "uint256"
        }
      ],
      "name": "estimateSell",
      "outputs": [
        {
          "internalType": "uint256",
          "name": "total",
          "type": "uint256"
        },
        {
          "internalType": "uint256",
          "name": "value",
          "type": "uint256"
        },
        {
          "internalType": "uint256",
          "name": "creatorFee",
          "type": "uint256"
        },
        {
          "internalType": "uint256",
          "name": "devFee",
          "type": "uint256"
        }
      ],
      "stateMutability": "view",
      "type": "function"
    },
    {
      "inputs": [
        {
          "internalType": "uint256",
          "name": "id",
          "type": "uint256"
        },
        {
          "internalType": "uint256",
          "name": "amount",
          "type": "uint256"
        }
      ],
      "name": "estimateSell",
      "outputs": [
        {
          "internalType": "uint256",
          "name": "total",
          "type": "uint256"
        },
        {
          "internalType": "uint256",
          "name": "value",
          "type": "uint256"
        },
        {
          "internalType": "uint256",
          "name": "creatorFee",
          "type": "uint256"
        },
        {
          "internalType": "uint256",
          "name": "devFee",
          "type": "uint256"
        }
      ],
      "stateMutability": "view",
      "type": "function"
    },
    {
      "inputs": [
        {
          "internalType": "uint256",
          "name": "id",
          "type": "uint256"
        }
      ],
      "name": "exists",
      "outputs": [
        {
          "internalType": "bool",
          "name": "",
          "type": "bool"
        }
      ],
      "stateMutability": "view",
      "type": "function"
    },
    {
      "inputs": [
        {
          "internalType": "uint256",
          "name": "id",
          "type": "uint256"
        }
      ],
      "name": "floor",
      "outputs": [
        {
          "internalType": "uint256",
          "name": "",
          "type": "uint256"
        }
      ],
      "stateMutability": "view",
      "type": "function"
    },
    {
      "inputs": [
        {
          "internalType": "uint256",
          "name": "id",
          "type": "uint256"
        }
      ],
      "name": "floorSupply",
      "outputs": [
        {
          "internalType": "uint256",
          "name": "",
          "type": "uint256"
        }
      ],
      "stateMutability": "view",
      "type": "function"
    },
    {
      "inputs": [
        {
          "internalType": "uint256",
          "name": "",
          "type": "uint256"
        }
      ],
      "name": "fs",
      "outputs": [
        {
          "internalType": "uint256",
          "name": "",
          "type": "uint256"
        }
      ],
      "stateMutability": "view",
      "type": "function"
    },
    {
      "inputs": [
        {
          "internalType": "uint256",
          "name": "",
          "type": "uint256"
        }
      ],
      "name": "fsIncr",
      "outputs": [
        {
          "internalType": "uint256",
          "name": "",
          "type": "uint256"
        }
      ],
      "stateMutability": "view",
      "type": "function"
    },
    {
      "inputs": [
        {
          "internalType": "uint256",
          "name": "id",
          "type": "uint256"
        }
      ],
      "name": "fsStepOf",
      "outputs": [
        {
          "internalType": "uint256",
          "name": "",
          "type": "uint256"
        }
      ],
      "stateMutability": "view",
      "type": "function"
    },
    {
      "inputs": [
        {
          "internalType": "address",
          "name": "dev",
          "type": "address"
        }
      ],
      "name": "initialize",
      "outputs": [],
      "stateMutability": "nonpayable",
      "type": "function"
    },
    {
      "inputs": [
        {
          "internalType": "address",
          "name": "",
          "type": "address"
        },
        {
          "internalType": "address",
          "name": "",
          "type": "address"
        }
      ],
      "name": "isApprovedDelegate",
      "outputs": [
        {
          "internalType": "bool",
          "name": "",
          "type": "bool"
        }
      ],
      "stateMutability": "view",
      "type": "function"
    },
    {
      "inputs": [
        {
          "internalType": "address",
          "name": "account",
          "type": "address"
        },
        {
          "internalType": "address",
          "name": "operator",
          "type": "address"
        }
      ],
      "name": "isApprovedForAll",
      "outputs": [
        {
          "internalType": "bool",
          "name": "",
          "type": "bool"
        }
      ],
      "stateMutability": "view",
      "type": "function"
    },
    {
      "inputs": [],
      "name": "k",
      "outputs": [
        {
          "internalType": "uint64",
          "name": "",
          "type": "uint64"
        }
      ],
      "stateMutability": "view",
      "type": "function"
    },
    {
      "inputs": [],
      "name": "minFloor",
      "outputs": [
        {
          "internalType": "uint64",
          "name": "",
          "type": "uint64"
        }
      ],
      "stateMutability": "view",
      "type": "function"
    },
    {
      "inputs": [
        {
          "internalType": "address",
          "name": "from",
          "type": "address"
        },
        {
          "internalType": "address",
          "name": "to",
          "type": "address"
        },
        {
          "internalType": "uint256[]",
          "name": "ids",
          "type": "uint256[]"
        },
        {
          "internalType": "uint256[]",
          "name": "amounts",
          "type": "uint256[]"
        },
        {
          "internalType": "bytes",
          "name": "data",
          "type": "bytes"
        }
      ],
      "name": "safeBatchTransferFrom",
      "outputs": [],
      "stateMutability": "nonpayable",
      "type": "function"
    },
    {
      "inputs": [
        {
          "internalType": "address",
          "name": "from",
          "type": "address"
        },
        {
          "internalType": "address",
          "name": "to",
          "type": "address"
        },
        {
          "internalType": "uint256",
          "name": "id",
          "type": "uint256"
        },
        {
          "internalType": "uint256",
          "name": "amount",
          "type": "uint256"
        },
        {
          "internalType": "bytes",
          "name": "data",
          "type": "bytes"
        }
      ],
      "name": "safeTransferFrom",
      "outputs": [],
      "stateMutability": "nonpayable",
      "type": "function"
    },
    {
      "inputs": [
        {
          "internalType": "uint256",
          "name": "id",
          "type": "uint256"
        },
        {
          "internalType": "address",
          "name": "to",
          "type": "address"
        },
        {
          "internalType": "uint256",
          "name": "amount",
          "type": "uint256"
        },
        {
          "internalType": "uint256",
          "name": "minReceived",
          "type": "uint256"
        }
      ],
      "name": "sell",
      "outputs": [],
      "stateMutability": "nonpayable",
      "type": "function"
    },
    {
      "inputs": [
        {
          "internalType": "address",
          "name": "operator",
          "type": "address"
        },
        {
          "internalType": "bool",
          "name": "approved",
          "type": "bool"
        }
      ],
      "name": "setApprovalForAll",
      "outputs": [],
      "stateMutability": "nonpayable",
      "type": "function"
    },
    {
      "inputs": [
        {
          "internalType": "address",
          "name": "_delegate",
          "type": "address"
        },
        {
          "internalType": "bool",
          "name": "_isApproved",
          "type": "bool"
        }
      ],
      "name": "setDelegateApproval",
      "outputs": [],
      "stateMutability": "nonpayable",
      "type": "function"
    },
    {
      "inputs": [
        {
          "internalType": "uint256",
          "name": "id",
          "type": "uint256"
        },
        {
          "internalType": "string",
          "name": "tokenURI",
          "type": "string"
        }
      ],
      "name": "setTokenURI",
      "outputs": [],
      "stateMutability": "nonpayable",
      "type": "function"
    },
    {
      "inputs": [
        {
          "internalType": "uint256",
          "name": "id",
          "type": "uint256"
        }
      ],
      "name": "stepment",
      "outputs": [
        {
          "internalType": "uint256",
          "name": "",
          "type": "uint256"
        }
      ],
      "stateMutability": "view",
      "type": "function"
    },
    {
      "inputs": [
        {
          "internalType": "bytes4",
          "name": "interfaceId",
          "type": "bytes4"
        }
      ],
      "name": "supportsInterface",
      "outputs": [
        {
          "internalType": "bool",
          "name": "",
          "type": "bool"
        }
      ],
      "stateMutability": "view",
      "type": "function"
    },
    {
      "inputs": [
        {
          "internalType": "uint256",
          "name": "",
          "type": "uint256"
        }
      ],
      "name": "tokenURIs",
      "outputs": [
        {
          "internalType": "string",
          "name": "",
          "type": "string"
        }
      ],
      "stateMutability": "view",
      "type": "function"
    },
    {
      "inputs": [
        {
          "internalType": "uint256",
          "name": "id",
          "type": "uint256"
        }
      ],
      "name": "totalSupply",
      "outputs": [
        {
          "internalType": "uint256",
          "name": "",
          "type": "uint256"
        }
      ],
      "stateMutability": "view",
      "type": "function"
    },
    {
      "inputs": [
        {
          "internalType": "uint256",
          "name": "id",
          "type": "uint256"
        }
      ],
      "name": "uri",
      "outputs": [
        {
          "internalType": "string",
          "name": "",
          "type": "string"
        }
      ],
      "stateMutability": "view",
      "type": "function"
    },
    {
      "inputs": [
        {
          "internalType": "uint256",
          "name": "_k",
          "type": "uint256"
        },
        {
          "internalType": "uint256",
          "name": "_t",
          "type": "uint256"
        },
        {
          "internalType": "uint256",
          "name": "_fs",
          "type": "uint256"
        },
        {
          "internalType": "uint256",
          "name": "_f",
          "type": "uint256"
        }
      ],
      "name": "worth",
      "outputs": [
        {
          "internalType": "uint256",
          "name": "",
          "type": "uint256"
        }
      ],
      "stateMutability": "pure",
      "type": "function"
    },
    {
      "inputs": [
        {
          "internalType": "uint256",
          "name": "id",
          "type": "uint256"
        }
      ],
      "name": "worthOf",
      "outputs": [
        {
          "internalType": "uint256",
          "name": "",
          "type": "uint256"
        }
      ],
      "stateMutability": "view",
      "type": "function"
    },
    {
      "stateMutability": "payable",
      "type": "receive"
    }
  ],
  "transactionHash": "0xbb989f325362a5b04b7a8435d4afad90ff4ec7f053776e9a7d7311b5d86a19af",
  "args": [],
  "numDeployments": 7,
  "solcInputHash": "1789bf94cac5ea78f94d47b620991789",
  "bytecode": "0x608060405234801561001057600080fd5b506144aa806100206000396000f3fe6080604052600436106102a25760003560e01c8063706910ff1161016e578063c0facbea116100cb578063cdb9c4eb1161007f578063f213edda11610064578063f213edda14610875578063f242432a14610895578063f740fd34146108b557600080fd5b8063cdb9c4eb1461080b578063e985e9c51461082c57600080fd5b8063c3c854b6116100b0578063c3c854b614610777578063c4d66de8146107cb578063c5464eb4146107eb57600080fd5b8063c0facbea14610744578063c10820601461076457600080fd5b806391cca3db11610122578063b233e05611610107578063b233e056146106e9578063b4f40c6114610709578063bd85b0391461072457600080fd5b806391cca3db146106a9578063a22cb465146106c957600080fd5b80637ab58add116101535780637ab58add1461063c578063810c37381461066957806385bc69251461068957600080fd5b8063706910ff146105fc5780637272d03c1461060f57600080fd5b80632eb2c2d61161021c578063504f5e56116101d057806362585e92116101b557806362585e921461059c578063666a27bb146105bc5780636c8b703f146105dc57600080fd5b8063504f5e5614610520578063589a17431461054d57600080fd5b80634e1273f4116102015780634e1273f4146104ba5780634f558e79146104e7578063503e0a981461050757600080fd5b80632eb2c2d61461047e57806343a54a0c1461049e57600080fd5b806309501e6611610273578063162094c411610258578063162094c4146103da5780631930e825146103fc57806329bff6901461043857600080fd5b806309501e661461037f5780630e89341c146103ad57600080fd5b8062d92e39146102ae578062fdd58e146102ef57806301ffc9a71461030f57806308349b901461033f57600080fd5b366102a957005b600080fd5b3480156102ba57600080fd5b506102dc6102c9366004613a0e565b6000908152610100602052604090205490565b6040519081526020015b60405180910390f35b3480156102fb57600080fd5b506102dc61030a366004613a43565b6108d5565b34801561031b57600080fd5b5061032f61032a366004613a9e565b6108ea565b60405190151581526020016102e6565b34801561034b57600080fd5b5061035f61035a366004613ac2565b6109cd565b6040805194855260208501939093529183015260608201526080016102e6565b34801561038b57600080fd5b506102dc61039a366004613a0e565b6000908152610101602052604090205490565b3480156103b957600080fd5b506103cd6103c8366004613a0e565b610aee565b6040516102e69190613b2a565b3480156103e657600080fd5b506103fa6103f5366004613bf4565b610b91565b005b34801561040857600080fd5b5061032f610417366004613c3b565b61010260209081526000928352604080842090915290825290205460ff1681565b34801561044457600080fd5b5060fb546104659068010000000000000000900467ffffffffffffffff1681565b60405167ffffffffffffffff90911681526020016102e6565b34801561048a57600080fd5b506103fa610499366004613d03565b610c37565b3480156104aa57600080fd5b50610465670de0b6b3a764000081565b3480156104c657600080fd5b506104da6104d5366004613dad565b610cd9565b6040516102e69190613ea9565b3480156104f357600080fd5b5061032f610502366004613a0e565b610e17565b34801561051357600080fd5b5061046564e8d4a5100081565b34801561052c57600080fd5b506102dc61053b366004613a0e565b600090815260fd602052604090205490565b34801561055957600080fd5b50610584610568366004613a0e565b600090815261010460205260409020546001600160a01b031690565b6040516001600160a01b0390911681526020016102e6565b3480156105a857600080fd5b5061035f6105b7366004613ebc565b610e2d565b3480156105c857600080fd5b5061035f6105d7366004613ebc565b61102c565b3480156105e857600080fd5b506103cd6105f7366004613a0e565b6111b1565b6103fa61060a366004613ef7565b61124c565b34801561061b57600080fd5b506102dc61062a366004613a0e565b60fe6020526000908152604090205481565b34801561064857600080fd5b506102dc610657366004613a0e565b60ff6020526000908152604090205481565b34801561067557600080fd5b506102dc610684366004613a0e565b611836565b34801561069557600080fd5b5061035f6106a4366004613ac2565b61185a565b3480156106b557600080fd5b5060fc54610584906001600160a01b031681565b3480156106d557600080fd5b506103fa6106e4366004613f32565b611915565b3480156106f557600080fd5b506103fa610704366004613ef7565b611924565b34801561071557600080fd5b5061046566071afd498d000081565b34801561073057600080fd5b506102dc61073f366004613a0e565b611eb7565b34801561075057600080fd5b506102dc61075f366004613f6e565b611ecb565b6103fa610772366004613fb1565b611ff8565b34801561078357600080fd5b506103fa610792366004613f32565b336000908152610102602090815260408083206001600160a01b0395909516835293905291909120805460ff1916911515919091179055565b3480156107d757600080fd5b506103fa6107e6366004614028565b612079565b3480156107f757600080fd5b506102dc610806366004613a0e565b6121fe565b34801561081757600080fd5b5060fb546104659067ffffffffffffffff1681565b34801561083857600080fd5b5061032f610847366004613c3b565b6001600160a01b03918216600090815260666020908152604080832093909416825291909152205460ff1690565b34801561088157600080fd5b506102dc610890366004614043565b612245565b3480156108a157600080fd5b506103fa6108b0366004614075565b6122ae565b3480156108c157600080fd5b506102dc6108d0366004613ebc565b612349565b60006108e18383612395565b90505b92915050565b60007fffffffff0000000000000000000000000000000000000000000000000000000082167fd9b67a2600000000000000000000000000000000000000000000000000000000148061097d57507fffffffff0000000000000000000000000000000000000000000000000000000082167f0e89341c00000000000000000000000000000000000000000000000000000000145b806108e457507f01ffc9a7000000000000000000000000000000000000000000000000000000007fffffffff000000000000000000000000000000000000000000000000000000008316146108e4565b6000808080806109f387600090815261010460205260409020546001600160a01b031690565b6001600160a01b031603610a4e5760405162461bcd60e51b815260206004820152601b60248201527f48696b65723a20746f6b656e206973206e6f742063726561746564000000000060448201526064015b60405180910390fd5b66071afd498d00006000610a6188611eb7565b90506000610a6e89611836565b60008a815260fd602052604090205490915080610acd5760405162461bcd60e51b815260206004820152601760248201527f48696b65723a207a65726f20666c6f6f722070726963650000000000000000006044820152606401610a45565b610ada848484848d61102c565b929d919c509a509098509650505050505050565b600081815261010360205260409020805460609190610b0c906140da565b80601f0160208091040260200160405190810160405280929190818152602001828054610b38906140da565b8015610b855780601f10610b5a57610100808354040283529160200191610b85565b820191906000526020600020905b815481529060010190602001808311610b6857829003601f168201915b50505050509050919050565b600082815261010460205260409020546001600160a01b031633811480610bdc57506001600160a01b03811660009081526101026020908152604080832033845290915290205460ff165b610c285760405162461bcd60e51b815260206004820152601560248201527f44656c6567617465206e6f7420617070726f76656400000000000000000000006044820152606401610a45565b610c32838361243b565b505050565b6001600160a01b038516331480610c535750610c538533610847565b610cc55760405162461bcd60e51b815260206004820152602e60248201527f455243313135353a2063616c6c6572206973206e6f7420746f6b656e206f776e60448201527f6572206f7220617070726f7665640000000000000000000000000000000000006064820152608401610a45565b610cd28585858585612486565b5050505050565b60608151835114610d525760405162461bcd60e51b815260206004820152602960248201527f455243313135353a206163636f756e747320616e6420696473206c656e67746860448201527f206d69736d6174636800000000000000000000000000000000000000000000006064820152608401610a45565b6000835167ffffffffffffffff811115610d6e57610d6e613b3d565b604051908082528060200260200182016040528015610d97578160200160208202803683370190505b50905060005b8451811015610e0f57610de2858281518110610dbb57610dbb614114565b6020026020010151858381518110610dd557610dd5614114565b60200260200101516108d5565b828281518110610df457610df4614114565b6020908102919091010152610e0881614140565b9050610d9d565b509392505050565b60008181526097602052604081205415156108e4565b60008060008084881015610ea95760405162461bcd60e51b815260206004820152603160248201527f48696b65723a2073656c6c20616d6f756e74206d757374206265206c6573732060448201527f7468616e20746f74616c20737570706c790000000000000000000000000000006064820152608401610a45565b868811610ec157610eba858761415a565b9250610fa2565b86610ecc868a614171565b1115610f31576002610ede888261415a565b86610eea8b600261415a565b610ef49190614171565b610efe9190614171565b610f08908b61415a565b610f1388600261415a565b610f1d9190614184565b610f27908761415a565b610eba9190614197565b6000610f3d888a614171565b90506000610f4b8288614171565b90506002610f608366071afd498d000061415a565b610f6b8a600261415a565b610f759190614184565b610f7f908461415a565b610f899190614197565b610f93828a61415a565b610f9d9190614184565b945050505b60fb54670de0b6b3a764000090610fc39067ffffffffffffffff168561415a565b610fcd9190614197565b60fb54909250670de0b6b3a764000090610ffd9068010000000000000000900467ffffffffffffffff168561415a565b6110079190614197565b9050806110148385614171565b61101e9190614171565b935095509550955095915050565b60008080808661103c868a614184565b116110525761104b858761415a565b9250611135565b868811156110b9576002611066888261415a565b866110728b600261415a565b61107c9190614184565b6110869190614171565b611090908b61415a565b61109b88600261415a565b6110a59190614184565b6110af908761415a565b61104b9190614197565b60006110c58989614171565b90506000886110d4888c614184565b6110de9190614171565b905060026110f38266071afd498d000061415a565b6110fe8a600261415a565b6111089190614184565b611112908361415a565b61111c9190614197565b611126838a61415a565b6111309190614184565b945050505b60fb54670de0b6b3a7640000906111569067ffffffffffffffff168561415a565b6111609190614197565b60fb54909250670de0b6b3a7640000906111909068010000000000000000900467ffffffffffffffff168561415a565b61119a9190614197565b9050806111a78385614184565b61101e9190614184565b61010360205260009081526040902080546111cb906140da565b80601f01602080910402602001604051908101604052809291908181526020018280546111f7906140da565b80156112445780601f1061121957610100808354040283529160200191611244565b820191906000526020600020905b81548152906001019060200180831161122757829003601f168201915b505050505081565b611254612735565b600082116112c95760405162461bcd60e51b8152602060048201526024808201527f48696b65723a20616d6f756e74206d757374206265206772656174657220746860448201527f616e2030000000000000000000000000000000000000000000000000000000006064820152608401610a45565b604080516101008101825285815266071afd498d0000602082015260009181016112f287611eb7565b815260200161130087611836565b815260200161131b87600090815260fd602052604090205490565b8152602001611337876000908152610100602052604090205490565b8152602001848152602001856001600160a01b0316815250905060008060008061137885602001518660400151876060015188608001518960c0015161102c565b9350935093509350833410156113d05760405162461bcd60e51b815260206004820181905260248201527f48696b65723a20696e73756666696369656e742066756e647320746f206275796044820152606401610a45565b858411156114465760405162461bcd60e51b815260206004820152603760248201527f48696b65723a2066756e6473206d757374206265206c657373207468616e206f60448201527f7220657175616c20746f206d6178696d756d2073656e740000000000000000006064820152608401610a45565b833411156115155760003361145b8634614171565b604051600081818185875af1925050503d8060008114611497576040519150601f19603f3d011682016040523d82523d6000602084013e61149c565b606091505b50509050806115135760405162461bcd60e51b815260206004820152602160248201527f48696b65723a207472616e736665722066756e6473206261636b206661696c6560448201527f64000000000000000000000000000000000000000000000000000000000000006064820152608401610a45565b505b60fc546040516000916001600160a01b03169083908381818185875af1925050503d8060008114611562576040519150601f19603f3d011682016040523d82523d6000602084013e611567565b606091505b50509050806115de5760405162461bcd60e51b815260206004820152602260248201527f48696b65723a206661696c656420746f207472616e736665722064657620666560448201527f65200000000000000000000000000000000000000000000000000000000000006064820152608401610a45565b8551600090815261010460205260409020546001600160a01b03166001600160a01b03168360405160006040518083038185875af1925050503d8060008114611643576040519150601f19603f3d011682016040523d82523d6000602084013e611648565b606091505b505080915050806116c15760405162461bcd60e51b815260206004820152602660248201527f48696b65723a206661696c656420746f207472616e736665722063726561746f60448201527f72206665652000000000000000000000000000000000000000000000000000006064820152608401610a45565b6040808701518751600090815260fe6020908152838220548a5183526101019091529281205460a08a015160c08b01519294611701949390929190612349565b90506000611721886020015189604001518a606001518b60800151612245565b8851600090815260ff6020526040902054909150821115611798576040808901518951600090815260fe602052919091205460808a0151611774929190859061176a8b87614184565b8d60c00151611ecb565b8851600090815260fd60209081526040808320939093558a51825260ff9052208290555b6117af8860e0015189600001518a60c0015161278e565b875160e0808a015160c0808c01516040805133815260208101969096526001600160a01b03909316858401526060850152608084018b905260a084018990528301879052517f12c4d1c4d79a304fbab32f712e8a64f5a799441611dba85c44ea807121cd76c99281900390910190a15050505050505050611830600160c955565b50505050565b600081815260ff602090815260408083205460fe9092528220546108e49190614184565b60008080808061188087600090815261010460205260409020546001600160a01b031690565b6001600160a01b0316036118d65760405162461bcd60e51b815260206004820152601b60248201527f48696b65723a20746f6b656e206973206e6f74206372656174656400000000006044820152606401610a45565b66071afd498d000060006118e988611eb7565b905060006118f689611836565b60008a815260fd6020526040902054909150610ada848484848d610e2d565b6119203383836127fc565b5050565b61192c612735565b61193584610e17565b6119815760405162461bcd60e51b815260206004820152601860248201527f48696b65723a206e6f6e6578736974656e7420746f6b656e00000000000000006044820152606401610a45565b600082116119f65760405162461bcd60e51b8152602060048201526024808201527f48696b65723a20616d6f756e74206d757374206265206772656174657220746860448201527f616e2030000000000000000000000000000000000000000000000000000000006064820152608401610a45565b6000611a0185611eb7565b905082811015611a795760405162461bcd60e51b815260206004820152603760248201527f48696b653a20616d6f756e74206d757374206265206c657373207468616e206f60448201527f7220657175616c20746f20746f74616c20737570706c790000000000000000006064820152608401610a45565b600060405180610100016040528087815260200166071afd498d000067ffffffffffffffff168152602001838152602001611ab388611836565b8152602001611ace88600090815260fd602052604090205490565b8152602001611aea886000908152610100602052604090205490565b8152602001858152602001866001600160a01b03168152509050600080600080611b2b85602001518660400151876060015188608001518960c00151610e2d565b935093509350935086841015611bcf5760405162461bcd60e51b815260206004820152604760248201527f48696b65723a2072656365697665642076616c7565206d75737420626520677260448201527f6561746572207468616e206f7220657175616c20746f206d696e696d756d207260648201527f6563656976656400000000000000000000000000000000000000000000000000608482015260a401610a45565b611be23386600001518760c001516128f0565b60008560e001516001600160a01b03168560405160006040518083038185875af1925050503d8060008114611c33576040519150601f19603f3d011682016040523d82523d6000602084013e611c38565b606091505b5050905080611c895760405162461bcd60e51b815260206004820152601c60248201527f48696b65723a207472616e736665722076616c7565206661696c6564000000006044820152606401610a45565b8551600090815261010460205260409020546001600160a01b03166001600160a01b03168360405160006040518083038185875af1925050503d8060008114611cee576040519150601f19603f3d011682016040523d82523d6000602084013e611cf3565b606091505b50508091505080611d6c5760405162461bcd60e51b815260206004820152602660248201527f48696b65723a206661696c656420746f207472616e736665722063726561746f60448201527f72206665652000000000000000000000000000000000000000000000000000006064820152608401610a45565b60fc546040516001600160a01b03909116908390600081818185875af1925050503d8060008114611db9576040519150601f19603f3d011682016040523d82523d6000602084013e611dbe565b606091505b50508091505080611e375760405162461bcd60e51b815260206004820152602160248201527f48696b65723a206661696c656420746f207472616e736665722064657620666560448201527f65000000000000000000000000000000000000000000000000000000000000006064820152608401610a45565b855160e08088015160c0808a01516040805133815260208101969096526001600160a01b039093168584015260608501526080840188905260a084018790528301859052517f6d3aa85cb96efd25cb6d017a79d4886372838f72b0bef340d75db4a2b4c0f5d89281900390910190a150505050505050611830600160c955565b6000818152609760205260408120546108e4565b600080611ed88688614184565b905080611ee5848a614184565b11611f325760405162461bcd60e51b815260206004820152601160248201527f696e76616c696420706172616d657465720000000000000000000000000000006044820152606401610a45565b600081611f3f858b614184565b611f499190614171565b9050611f55848a614184565b611f6090600261415a565b81611f728166071afd498d000061415a565b611f7c919061415a565b611f8787600261415a565b611f919190614171565b611f9b9190614197565b9250858311611fec5760405162461bcd60e51b815260206004820152600d60248201527f696e76616c696420666c6f6f72000000000000000000000000000000000000006044820152606401610a45565b50509695505050505050565b612000612735565b80421061204f5760405162461bcd60e51b815260206004820152601160248201527f48696b65723a2074782074696d656f75740000000000000000000000000000006044820152606401610a45565b61205c87878787876128fb565b612066878361243b565b612070600160c955565b50505050505050565b600054610100900460ff16158080156120995750600054600160ff909116105b806120b35750303b1580156120b3575060005460ff166001145b6121255760405162461bcd60e51b815260206004820152602e60248201527f496e697469616c697a61626c653a20636f6e747261637420697320616c72656160448201527f647920696e697469616c697a65640000000000000000000000000000000000006064820152608401610a45565b6000805460ff191660011790558015612148576000805461ff0019166101001790555b60fc80547fffffffffffffffffffffffff0000000000000000000000000000000000000000166001600160a01b03841617905560fb80547fffffffffffffffffffffffffffffffff00000000000000000000000000000000166e58d15e176280000058d15e176280001790558015611920576000805461ff0019169055604051600181527f7f26b83ff96e1f2b6a682f133852f6798a09c465da95921460cefb3847402498906020015b60405180910390a15050565b60008061220a83611eb7565b9050600061221784611836565b600085815260fd602052604090205490915061223c66071afd498d0000848484612245565b95945050505050565b600082841161225f57612258848361415a565b90506122a6565b600061226b8486614171565b905060028161227a818961415a565b612284919061415a565b61228e9190614197565b612298868561415a565b6122a29190614184565b9150505b949350505050565b6001600160a01b0385163314806122ca57506122ca8533610847565b61233c5760405162461bcd60e51b815260206004820152602e60248201527f455243313135353a2063616c6c6572206973206e6f7420746f6b656e206f776e60448201527f6572206f7220617070726f7665640000000000000000000000000000000000006064820152608401610a45565b610cd28585858585612f21565b6000846123568388614184565b111561223c576000838661236a858a614184565b6123749190614171565b61237e9190614197565b905061238a858261415a565b979650505050505050565b60006001600160a01b0383166124135760405162461bcd60e51b815260206004820152602a60248201527f455243313135353a2061646472657373207a65726f206973206e6f742061207660448201527f616c6964206f776e6572000000000000000000000000000000000000000000006064820152608401610a45565b5060009081526065602090815260408083206001600160a01b03949094168352929052205490565b60008281526101036020526040902061245482826141ff565b507f931f495b9a8e5d8e61946ea5d61e021f636cfe213a801f97589c18c152e408bd82826040516121f29291906142bf565b81518351146124fd5760405162461bcd60e51b815260206004820152602860248201527f455243313135353a2069647320616e6420616d6f756e7473206c656e6774682060448201527f6d69736d617463680000000000000000000000000000000000000000000000006064820152608401610a45565b6001600160a01b0384166125795760405162461bcd60e51b815260206004820152602560248201527f455243313135353a207472616e7366657220746f20746865207a65726f20616460448201527f64726573730000000000000000000000000000000000000000000000000000006064820152608401610a45565b33612588818787878787613109565b60005b84518110156126c75760008582815181106125a8576125a8614114565b6020026020010151905060008583815181106125c6576125c6614114565b60209081029190910181015160008481526065835260408082206001600160a01b038e16835290935291909120549091508181101561266d5760405162461bcd60e51b815260206004820152602a60248201527f455243313135353a20696e73756666696369656e742062616c616e636520666f60448201527f72207472616e73666572000000000000000000000000000000000000000000006064820152608401610a45565b60008381526065602090815260408083206001600160a01b038e8116855292528083208585039055908b168252812080548492906126ac908490614184565b92505081905550505050806126c090614140565b905061258b565b50846001600160a01b0316866001600160a01b0316826001600160a01b03167f4a39dc06d4c0dbc64b70af90fd698a233a518aa5d07e595d983b8c0526c8f7fb87876040516127179291906142d8565b60405180910390a461272d818787878787613297565b505050505050565b600260c954036127875760405162461bcd60e51b815260206004820152601f60248201527f5265656e7472616e637947756172643a207265656e7472616e742063616c6c006044820152606401610a45565b600260c955565b600081116127de5760405162461bcd60e51b815260206004820152601160248201527f4d6f73733a207a65726f20616d6f756e740000000000000000000000000000006044820152606401610a45565b604080516000815260208101909152610c329084908490849061349b565b816001600160a01b0316836001600160a01b0316036128835760405162461bcd60e51b815260206004820152602960248201527f455243313135353a2073657474696e6720617070726f76616c2073746174757360448201527f20666f722073656c6600000000000000000000000000000000000000000000006064820152608401610a45565b6001600160a01b03838116600081815260666020908152604080832094871680845294825291829020805460ff191686151590811790915591519182527f17307eab39ab6107e8899845ad3d59bd9653f200f220920489ca2b5937696c31910160405180910390a3505050565b610c328383836135d3565b61290485610e17565b156129515760405162461bcd60e51b815260206004820152601360248201527f48696b65723a20746f6b656e20657869737473000000000000000000000000006044820152606401610a45565b600085815261010460205260409020546001600160a01b0316156129b75760405162461bcd60e51b815260206004820152601760248201527f48696b65723a20746f6b656e20697320637265617465640000000000000000006044820152606401610a45565b64e8d4a51000841015612a325760405162461bcd60e51b815260206004820152603b60248201527f48696b65723a20666c6f6f72206d75737420626520677265617465722074686160448201527f6e206f7220657175616c20746f206d696e696d756d20666c6f6f7200000000006064820152608401610a45565b60008311612ace5760405162461bcd60e51b815260206004820152604960248201527f48696b65723a20666c6f6f7220737570706c79206d757374206265206772656160448201527f746572207468616e206f7220657175616c20746f206d696e696d756d20666c6f60648201527f6f7220737570706c790000000000000000000000000000000000000000000000608482015260a401610a45565b60008211612b445760405162461bcd60e51b815260206004820152602960248201527f48696b65723a2061646a7573742073746570206d75737420677265617465722060448201527f7468616e207a65726f00000000000000000000000000000000000000000000006064820152608401610a45565b60008111612bb95760405162461bcd60e51b8152602060048201526024808201527f48696b65723a20667353746570206d7573742067726561746572207468616e2060448201527f7a65726f000000000000000000000000000000000000000000000000000000006064820152608401610a45565b818110612c2d5760405162461bcd60e51b8152602060048201526024808201527f48696b65723a20667353746570206d757374206265206c657373207468616e2060448201527f73746570000000000000000000000000000000000000000000000000000000006064820152608401610a45565b60fb54600090670de0b6b3a764000090612c5d9068010000000000000000900467ffffffffffffffff168761415a565b612c679190614197565b9050612c738186614184565b341015612ce85760405162461bcd60e51b815260206004820152602360248201527f48696b65723a20696e73756666696369656e742066756e647320746f2063726560448201527f61746500000000000000000000000000000000000000000000000000000000006064820152608401610a45565b612cf28186614184565b341115612dcb5760003382612d078834614171565b612d119190614171565b604051600081818185875af1925050503d8060008114612d4d576040519150601f19603f3d011682016040523d82523d6000602084013e612d52565b606091505b5050905080612dc95760405162461bcd60e51b815260206004820152602160248201527f48696b65723a207472616e736665722066756e6473206261636b206661696c6560448201527f64000000000000000000000000000000000000000000000000000000000000006064820152608401610a45565b505b60fc546040516000916001600160a01b03169083908381818185875af1925050503d8060008114612e18576040519150601f19603f3d011682016040523d82523d6000602084013e612e1d565b606091505b5050905080612e6e5760405162461bcd60e51b815260206004820152601d60248201527f48696b65723a206661696c656420746f207265636569766520666565200000006044820152606401610a45565b612e78873361379a565b612e843388600161278e565b600087815260fd6020908152604080832089905560fe825280832088905561010080835281842088905561010183529281902086905580513381529182018a90528101889052606081018790526080810186905260a0810185905260c0810188905260e081018490527f460cf3f1c0e37440b24f7a57d7c52f04ca2f3df751bcb4097d4a9e383b1a2477910160405180910390a150505050505050565b6001600160a01b038416612f9d5760405162461bcd60e51b815260206004820152602560248201527f455243313135353a207472616e7366657220746f20746865207a65726f20616460448201527f64726573730000000000000000000000000000000000000000000000000000006064820152608401610a45565b336000612fa985613868565b90506000612fb685613868565b9050612fc6838989858589613109565b60008681526065602090815260408083206001600160a01b038c1684529091529020548581101561305f5760405162461bcd60e51b815260206004820152602a60248201527f455243313135353a20696e73756666696369656e742062616c616e636520666f60448201527f72207472616e73666572000000000000000000000000000000000000000000006064820152608401610a45565b60008781526065602090815260408083206001600160a01b038d8116855292528083208985039055908a1682528120805488929061309e908490614184565b909155505060408051888152602081018890526001600160a01b03808b16928c821692918816917fc3d58168c5ae7397731d063d5bbf3d657854427343f4c083240f7aacaa2d0f62910160405180910390a46130fe848a8a8a8a8a6138b3565b505050505050505050565b6001600160a01b0385166131905760005b835181101561318e5782818151811061313557613135614114565b60200260200101516097600086848151811061315357613153614114565b6020026020010151815260200190815260200160002060008282546131789190614184565b90915550613187905081614140565b905061311a565b505b6001600160a01b03841661272d5760005b83518110156120705760008482815181106131be576131be614114565b6020026020010151905060008483815181106131dc576131dc614114565b60200260200101519050600060976000848152602001908152602001600020549050818110156132745760405162461bcd60e51b815260206004820152602860248201527f455243313135353a206275726e20616d6f756e74206578636565647320746f7460448201527f616c537570706c790000000000000000000000000000000000000000000000006064820152608401610a45565b6000928352609760205260409092209103905561329081614140565b90506131a1565b6001600160a01b0384163b1561272d576040517fbc197c810000000000000000000000000000000000000000000000000000000081526001600160a01b0385169063bc197c81906132f490899089908890889088906004016142fd565b6020604051808303816000875af192505050801561332f575060408051601f3d908101601f1916820190925261332c9181019061435b565b60015b6133e45761333b614378565b806308c379a003613374575061334f614394565b8061335a5750613376565b8060405162461bcd60e51b8152600401610a459190613b2a565b505b60405162461bcd60e51b815260206004820152603460248201527f455243313135353a207472616e7366657220746f206e6f6e2d4552433131353560448201527f526563656976657220696d706c656d656e7465720000000000000000000000006064820152608401610a45565b7fffffffff0000000000000000000000000000000000000000000000000000000081167fbc197c8100000000000000000000000000000000000000000000000000000000146120705760405162461bcd60e51b815260206004820152602860248201527f455243313135353a204552433131353552656365697665722072656a6563746560448201527f6420746f6b656e730000000000000000000000000000000000000000000000006064820152608401610a45565b6001600160a01b0384166135175760405162461bcd60e51b815260206004820152602160248201527f455243313135353a206d696e7420746f20746865207a65726f2061646472657360448201527f73000000000000000000000000000000000000000000000000000000000000006064820152608401610a45565b33600061352385613868565b9050600061353085613868565b905061354183600089858589613109565b60008681526065602090815260408083206001600160a01b038b16845290915281208054879290613573908490614184565b909155505060408051878152602081018790526001600160a01b03808a1692600092918716917fc3d58168c5ae7397731d063d5bbf3d657854427343f4c083240f7aacaa2d0f62910160405180910390a4612070836000898989896138b3565b6001600160a01b03831661364f5760405162461bcd60e51b815260206004820152602360248201527f455243313135353a206275726e2066726f6d20746865207a65726f206164647260448201527f65737300000000000000000000000000000000000000000000000000000000006064820152608401610a45565b33600061365b84613868565b9050600061366884613868565b905061368883876000858560405180602001604052806000815250613109565b60008581526065602090815260408083206001600160a01b038a168452909152902054848110156137205760405162461bcd60e51b8152602060048201526024808201527f455243313135353a206275726e20616d6f756e7420657863656564732062616c60448201527f616e6365000000000000000000000000000000000000000000000000000000006064820152608401610a45565b60008681526065602090815260408083206001600160a01b038b81168086529184528285208a8703905582518b81529384018a90529092908816917fc3d58168c5ae7397731d063d5bbf3d657854427343f4c083240f7aacaa2d0f62910160405180910390a4604080516020810190915260009052612070565b6137a382610e17565b156137f05760405162461bcd60e51b815260206004820152601260248201527f4d6f73733a20746f6b656e2065786973747300000000000000000000000000006044820152606401610a45565b6000828152610104602090815260409182902080547fffffffffffffffffffffffff0000000000000000000000000000000000000000166001600160a01b0385169081179091558251858152918201527fc0186d9ba7364ebd80a7010121367f481af81e1028bf368b2172fedf2c6fc7de91016121f2565b604080516001808252818301909252606091600091906020808301908036833701905050905082816000815181106138a2576138a2614114565b602090810291909101015292915050565b6001600160a01b0384163b1561272d576040517ff23a6e610000000000000000000000000000000000000000000000000000000081526001600160a01b0385169063f23a6e6190613910908990899088908890889060040161443c565b6020604051808303816000875af192505050801561394b575060408051601f3d908101601f191682019092526139489181019061435b565b60015b6139575761333b614378565b7fffffffff0000000000000000000000000000000000000000000000000000000081167ff23a6e6100000000000000000000000000000000000000000000000000000000146120705760405162461bcd60e51b815260206004820152602860248201527f455243313135353a204552433131353552656365697665722072656a6563746560448201527f6420746f6b656e730000000000000000000000000000000000000000000000006064820152608401610a45565b600060208284031215613a2057600080fd5b5035919050565b80356001600160a01b0381168114613a3e57600080fd5b919050565b60008060408385031215613a5657600080fd5b613a5f83613a27565b946020939093013593505050565b7fffffffff0000000000000000000000000000000000000000000000000000000081168114613a9b57600080fd5b50565b600060208284031215613ab057600080fd5b8135613abb81613a6d565b9392505050565b60008060408385031215613ad557600080fd5b50508035926020909101359150565b6000815180845260005b81811015613b0a57602081850181015186830182015201613aee565b506000602082860101526020601f19601f83011685010191505092915050565b6020815260006108e16020830184613ae4565b634e487b7160e01b600052604160045260246000fd5b601f19601f830116810181811067ffffffffffffffff82111715613b7957613b79613b3d565b6040525050565b600082601f830112613b9157600080fd5b813567ffffffffffffffff811115613bab57613bab613b3d565b604051613bc26020601f19601f8501160182613b53565b818152846020838601011115613bd757600080fd5b816020850160208301376000918101602001919091529392505050565b60008060408385031215613c0757600080fd5b82359150602083013567ffffffffffffffff811115613c2557600080fd5b613c3185828601613b80565b9150509250929050565b60008060408385031215613c4e57600080fd5b613c5783613a27565b9150613c6560208401613a27565b90509250929050565b600067ffffffffffffffff821115613c8857613c88613b3d565b5060051b60200190565b600082601f830112613ca357600080fd5b81356020613cb082613c6e565b604051613cbd8282613b53565b83815260059390931b8501820192828101915086841115613cdd57600080fd5b8286015b84811015613cf85780358352918301918301613ce1565b509695505050505050565b600080600080600060a08688031215613d1b57600080fd5b613d2486613a27565b9450613d3260208701613a27565b9350604086013567ffffffffffffffff80821115613d4f57600080fd5b613d5b89838a01613c92565b94506060880135915080821115613d7157600080fd5b613d7d89838a01613c92565b93506080880135915080821115613d9357600080fd5b50613da088828901613b80565b9150509295509295909350565b60008060408385031215613dc057600080fd5b823567ffffffffffffffff80821115613dd857600080fd5b818501915085601f830112613dec57600080fd5b81356020613df982613c6e565b604051613e068282613b53565b83815260059390931b8501820192828101915089841115613e2657600080fd5b948201945b83861015613e4b57613e3c86613a27565b82529482019490820190613e2b565b96505086013592505080821115613e6157600080fd5b50613c3185828601613c92565b600081518084526020808501945080840160005b83811015613e9e57815187529582019590820190600101613e82565b509495945050505050565b6020815260006108e16020830184613e6e565b600080600080600060a08688031215613ed457600080fd5b505083359560208501359550604085013594606081013594506080013592509050565b60008060008060808587031215613f0d57600080fd5b84359350613f1d60208601613a27565b93969395505050506040820135916060013590565b60008060408385031215613f4557600080fd5b613f4e83613a27565b915060208301358015158114613f6357600080fd5b809150509250929050565b60008060008060008060c08789031215613f8757600080fd5b505084359660208601359650604086013595606081013595506080810135945060a0013592509050565b600080600080600080600060e0888a031215613fcc57600080fd5b873596506020880135955060408801359450606088013593506080880135925060a088013567ffffffffffffffff81111561400657600080fd5b6140128a828b01613b80565b92505060c0880135905092959891949750929550565b60006020828403121561403a57600080fd5b6108e182613a27565b6000806000806080858703121561405957600080fd5b5050823594602084013594506040840135936060013592509050565b600080600080600060a0868803121561408d57600080fd5b61409686613a27565b94506140a460208701613a27565b93506040860135925060608601359150608086013567ffffffffffffffff8111156140ce57600080fd5b613da088828901613b80565b600181811c908216806140ee57607f821691505b60208210810361410e57634e487b7160e01b600052602260045260246000fd5b50919050565b634e487b7160e01b600052603260045260246000fd5b634e487b7160e01b600052601160045260246000fd5b600060001982036141535761415361412a565b5060010190565b80820281158282048414176108e4576108e461412a565b818103818111156108e4576108e461412a565b808201808211156108e4576108e461412a565b6000826141b457634e487b7160e01b600052601260045260246000fd5b500490565b601f821115610c3257600081815260208120601f850160051c810160208610156141e05750805b601f850160051c820191505b8181101561272d578281556001016141ec565b815167ffffffffffffffff81111561421957614219613b3d565b61422d8161422784546140da565b846141b9565b602080601f831160018114614262576000841561424a5750858301515b600019600386901b1c1916600185901b17855561272d565b600085815260208120601f198616915b8281101561429157888601518255948401946001909101908401614272565b50858210156142af5787850151600019600388901b60f8161c191681555b5050505050600190811b01905550565b8281526040602082015260006122a66040830184613ae4565b6040815260006142eb6040830185613e6e565b828103602084015261223c8185613e6e565b60006001600160a01b03808816835280871660208401525060a0604083015261432960a0830186613e6e565b828103606084015261433b8186613e6e565b9050828103608084015261434f8185613ae4565b98975050505050505050565b60006020828403121561436d57600080fd5b8151613abb81613a6d565b600060033d11156143915760046000803e5060005160e01c5b90565b600060443d10156143a25790565b6040517ffffffffffffffffffffffffffffffffffffffffffffffffffffffffffffffffc803d016004833e81513d67ffffffffffffffff81602484011181841117156143f057505050505090565b82850191508151818111156144085750505050505090565b843d87010160208285010111156144225750505050505090565b61443160208286010187613b53565b509095945050505050565b60006001600160a01b03808816835280871660208401525084604083015283606083015260a0608083015261238a60a0830184613ae456fea26469706673582212202ebdd22b9770ad812972b04f3a366d4f498b8aee1856864fa8af3123a89c1ba764736f6c63430008130033",
  "devdoc": {
    "events": {
      "ApprovalForAll(address,address,bool)": {
        "details": "Emitted when `account` grants or revokes permission to `operator` to transfer their tokens, according to `approved`."
      },
      "Initialized(uint8)": {
        "details": "Triggered when the contract has been initialized or reinitialized."
      },
      "TransferBatch(address,address,address,uint256[],uint256[])": {
        "details": "Equivalent to multiple {TransferSingle} events, where `operator`, `from` and `to` are the same for all transfers."
      },
      "TransferSingle(address,address,address,uint256,uint256)": {
        "details": "Emitted when `value` tokens of token type `id` are transferred from `from` to `to` by `operator`."
      },
      "URI(string,uint256)": {
        "details": "Emitted when the URI for token type `id` changes to `value`, if it is a non-programmatic URI. If an {URI} event was emitted for `id`, the standard https://eips.ethereum.org/EIPS/eip-1155#metadata-extensions[guarantees] that `value` will equal the value returned by {IERC1155MetadataURI-uri}."
      }
    },
    "kind": "dev",
    "methods": {
      "balanceOfBatch(address[],uint256[])": {
        "details": "See {IERC1155-balanceOfBatch}. Requirements: - `accounts` and `ids` must have the same length."
      },
      "isApprovedForAll(address,address)": {
        "details": "See {IERC1155-isApprovedForAll}."
      },
      "safeBatchTransferFrom(address,address,uint256[],uint256[],bytes)": {
        "details": "See {IERC1155-safeBatchTransferFrom}."
      },
      "safeTransferFrom(address,address,uint256,uint256,bytes)": {
        "details": "See {IERC1155-safeTransferFrom}."
      },
      "setApprovalForAll(address,bool)": {
        "details": "See {IERC1155-setApprovalForAll}."
      },
      "supportsInterface(bytes4)": {
        "details": "See {IERC165-supportsInterface}."
      }
    },
    "version": 1
  },
  "userdoc": {
    "kind": "user",
    "methods": {},
    "version": 1
  },
  "storageLayout": {
    "storage": [
      {
        "astId": 6,
        "contract": "contracts/core/Moss.sol:Moss",
        "label": "_initialized",
        "offset": 0,
        "slot": "0",
        "type": "t_uint8"
      },
      {
        "astId": 9,
        "contract": "contracts/core/Moss.sol:Moss",
        "label": "_initializing",
        "offset": 1,
        "slot": "0",
        "type": "t_bool"
      },
      {
        "astId": 2223,
        "contract": "contracts/core/Moss.sol:Moss",
        "label": "__gap",
        "offset": 0,
        "slot": "1",
        "type": "t_array(t_uint256)50_storage"
      },
      {
        "astId": 2267,
        "contract": "contracts/core/Moss.sol:Moss",
        "label": "__gap",
        "offset": 0,
        "slot": "51",
        "type": "t_array(t_uint256)50_storage"
      },
      {
        "astId": 281,
        "contract": "contracts/core/Moss.sol:Moss",
        "label": "_balances",
        "offset": 0,
        "slot": "101",
        "type": "t_mapping(t_uint256,t_mapping(t_address,t_uint256))"
      },
      {
        "astId": 287,
        "contract": "contracts/core/Moss.sol:Moss",
        "label": "_operatorApprovals",
        "offset": 0,
        "slot": "102",
        "type": "t_mapping(t_address,t_mapping(t_address,t_bool))"
      },
      {
        "astId": 289,
        "contract": "contracts/core/Moss.sol:Moss",
        "label": "_uri",
        "offset": 0,
        "slot": "103",
        "type": "t_string_storage"
      },
      {
        "astId": 1496,
        "contract": "contracts/core/Moss.sol:Moss",
        "label": "__gap",
        "offset": 0,
        "slot": "104",
        "type": "t_array(t_uint256)47_storage"
      },
      {
        "astId": 1685,
        "contract": "contracts/core/Moss.sol:Moss",
        "label": "_totalSupply",
        "offset": 0,
        "slot": "151",
        "type": "t_mapping(t_uint256,t_uint256)"
      },
      {
        "astId": 1836,
        "contract": "contracts/core/Moss.sol:Moss",
        "label": "__gap",
        "offset": 0,
        "slot": "152",
        "type": "t_array(t_uint256)49_storage"
      },
      {
        "astId": 182,
        "contract": "contracts/core/Moss.sol:Moss",
        "label": "_status",
        "offset": 0,
        "slot": "201",
        "type": "t_uint256"
      },
      {
        "astId": 251,
        "contract": "contracts/core/Moss.sol:Moss",
        "label": "__gap",
        "offset": 0,
        "slot": "202",
        "type": "t_array(t_uint256)49_storage"
      },
      {
        "astId": 2300,
        "contract": "contracts/core/Moss.sol:Moss",
        "label": "defaultCreatorFeePCT",
        "offset": 0,
        "slot": "251",
        "type": "t_uint64"
      },
      {
        "astId": 2302,
        "contract": "contracts/core/Moss.sol:Moss",
        "label": "devFeePCT",
        "offset": 8,
        "slot": "251",
        "type": "t_uint64"
      },
      {
        "astId": 2304,
        "contract": "contracts/core/Moss.sol:Moss",
        "label": "dev",
        "offset": 0,
        "slot": "252",
        "type": "t_address"
      },
      {
        "astId": 2308,
        "contract": "contracts/core/Moss.sol:Moss",
        "label": "f",
        "offset": 0,
        "slot": "253",
        "type": "t_mapping(t_uint256,t_uint256)"
      },
      {
        "astId": 2312,
        "contract": "contracts/core/Moss.sol:Moss",
        "label": "fs",
        "offset": 0,
        "slot": "254",
        "type": "t_mapping(t_uint256,t_uint256)"
      },
      {
        "astId": 2316,
        "contract": "contracts/core/Moss.sol:Moss",
        "label": "fsIncr",
        "offset": 0,
        "slot": "255",
        "type": "t_mapping(t_uint256,t_uint256)"
      },
      {
        "astId": 2320,
        "contract": "contracts/core/Moss.sol:Moss",
        "label": "step",
        "offset": 0,
        "slot": "256",
        "type": "t_mapping(t_uint256,t_uint256)"
      },
      {
        "astId": 2324,
        "contract": "contracts/core/Moss.sol:Moss",
        "label": "fsStep",
        "offset": 0,
        "slot": "257",
        "type": "t_mapping(t_uint256,t_uint256)"
      },
      {
        "astId": 3885,
        "contract": "contracts/core/Moss.sol:Moss",
        "label": "isApprovedDelegate",
        "offset": 0,
        "slot": "258",
        "type": "t_mapping(t_address,t_mapping(t_address,t_bool))"
      },
      {
        "astId": 3661,
        "contract": "contracts/core/Moss.sol:Moss",
        "label": "tokenURIs",
        "offset": 0,
        "slot": "259",
        "type": "t_mapping(t_uint256,t_string_storage)"
      },
      {
        "astId": 3665,
        "contract": "contracts/core/Moss.sol:Moss",
        "label": "creators",
        "offset": 0,
        "slot": "260",
        "type": "t_mapping(t_uint256,t_address)"
      }
    ],
    "types": {
      "t_address": {
        "encoding": "inplace",
        "label": "address",
        "numberOfBytes": "20"
      },
      "t_array(t_uint256)47_storage": {
        "base": "t_uint256",
        "encoding": "inplace",
        "label": "uint256[47]",
        "numberOfBytes": "1504"
      },
      "t_array(t_uint256)49_storage": {
        "base": "t_uint256",
        "encoding": "inplace",
        "label": "uint256[49]",
        "numberOfBytes": "1568"
      },
      "t_array(t_uint256)50_storage": {
        "base": "t_uint256",
        "encoding": "inplace",
        "label": "uint256[50]",
        "numberOfBytes": "1600"
      },
      "t_bool": {
        "encoding": "inplace",
        "label": "bool",
        "numberOfBytes": "1"
      },
      "t_mapping(t_address,t_bool)": {
        "encoding": "mapping",
        "key": "t_address",
        "label": "mapping(address => bool)",
        "numberOfBytes": "32",
        "value": "t_bool"
      },
      "t_mapping(t_address,t_mapping(t_address,t_bool))": {
        "encoding": "mapping",
        "key": "t_address",
        "label": "mapping(address => mapping(address => bool))",
        "numberOfBytes": "32",
        "value": "t_mapping(t_address,t_bool)"
      },
      "t_mapping(t_address,t_uint256)": {
        "encoding": "mapping",
        "key": "t_address",
        "label": "mapping(address => uint256)",
        "numberOfBytes": "32",
        "value": "t_uint256"
      },
      "t_mapping(t_uint256,t_address)": {
        "encoding": "mapping",
        "key": "t_uint256",
        "label": "mapping(uint256 => address)",
        "numberOfBytes": "32",
        "value": "t_address"
      },
      "t_mapping(t_uint256,t_mapping(t_address,t_uint256))": {
        "encoding": "mapping",
        "key": "t_uint256",
        "label": "mapping(uint256 => mapping(address => uint256))",
        "numberOfBytes": "32",
        "value": "t_mapping(t_address,t_uint256)"
      },
      "t_mapping(t_uint256,t_string_storage)": {
        "encoding": "mapping",
        "key": "t_uint256",
        "label": "mapping(uint256 => string)",
        "numberOfBytes": "32",
        "value": "t_string_storage"
      },
      "t_mapping(t_uint256,t_uint256)": {
        "encoding": "mapping",
        "key": "t_uint256",
        "label": "mapping(uint256 => uint256)",
        "numberOfBytes": "32",
        "value": "t_uint256"
      },
      "t_string_storage": {
        "encoding": "bytes",
        "label": "string",
        "numberOfBytes": "32"
      },
      "t_uint256": {
        "encoding": "inplace",
        "label": "uint256",
        "numberOfBytes": "32"
      },
      "t_uint64": {
        "encoding": "inplace",
        "label": "uint64",
        "numberOfBytes": "8"
      },
      "t_uint8": {
        "encoding": "inplace",
        "label": "uint8",
        "numberOfBytes": "1"
      }
    }
  }
}