{
  "address": "0x819C69a75D09FbB5253F1D8D4a0145Fa8217A53c",
  "abi": [
    {
      "anonymous": false,
      "inputs": [
        {
          "indexed": true,
          "internalType": "address",
          "name": "account",
          "type": "address"
        },
        {
          "indexed": true,
          "internalType": "address",
          "name": "operator",
          "type": "address"
        },
        {
          "indexed": false,
          "internalType": "bool",
          "name": "approved",
          "type": "bool"
        }
      ],
      "name": "ApprovalForAll",
      "type": "event"
    },
    {
      "anonymous": false,
      "inputs": [
        {
          "indexed": false,
          "internalType": "address",
          "name": "from",
          "type": "address"
        },
        {
          "indexed": false,
          "internalType": "uint256",
          "name": "id",
          "type": "uint256"
        },
        {
          "indexed": false,
          "internalType": "address",
          "name": "to",
          "type": "address"
        },
        {
          "indexed": false,
          "internalType": "uint256",
          "name": "amount",
          "type": "uint256"
        },
        {
          "indexed": false,
          "internalType": "uint256",
          "name": "value",
          "type": "uint256"
        },
        {
          "indexed": false,
          "internalType": "uint256",
          "name": "creatorFee",
          "type": "uint256"
        },
        {
          "indexed": false,
          "internalType": "uint256",
          "name": "devFee",
          "type": "uint256"
        }
      ],
      "name": "Bought",
      "type": "event"
    },
    {
      "anonymous": false,
      "inputs": [
        {
          "indexed": false,
          "internalType": "address",
          "name": "from",
          "type": "address"
        },
        {
          "indexed": false,
          "internalType": "uint256",
          "name": "id",
          "type": "uint256"
        },
        {
          "indexed": false,
          "internalType": "uint256",
          "name": "_f",
          "type": "uint256"
        },
        {
          "indexed": false,
          "internalType": "uint256",
          "name": "_fs",
          "type": "uint256"
        },
        {
          "indexed": false,
          "internalType": "uint256",
          "name": "_s",
          "type": "uint256"
        },
        {
          "indexed": false,
          "internalType": "uint256",
          "name": "_tar",
          "type": "uint256"
        },
        {
          "indexed": false,
          "internalType": "uint256",
          "name": "value",
          "type": "uint256"
        },
        {
          "indexed": false,
          "internalType": "uint256",
          "name": "devFee",
          "type": "uint256"
        }
      ],
      "name": "Created",
      "type": "event"
    },
    {
      "anonymous": false,
      "inputs": [
        {
          "indexed": false,
          "internalType": "uint256",
          "name": "id",
          "type": "uint256"
        },
        {
          "indexed": false,
          "internalType": "address",
          "name": "creator",
          "type": "address"
        }
      ],
      "name": "CreatorUpdated",
      "type": "event"
    },
    {
      "anonymous": false,
      "inputs": [
        {
          "indexed": false,
          "internalType": "uint8",
          "name": "version",
          "type": "uint8"
        }
      ],
      "name": "Initialized",
      "type": "event"
    },
    {
      "anonymous": false,
      "inputs": [
        {
          "indexed": false,
          "internalType": "address",
          "name": "from",
          "type": "address"
        },
        {
          "indexed": false,
          "internalType": "uint256",
          "name": "id",
          "type": "uint256"
        },
        {
          "indexed": false,
          "internalType": "address",
          "name": "to",
          "type": "address"
        },
        {
          "indexed": false,
          "internalType": "uint256",
          "name": "amount",
          "type": "uint256"
        },
        {
          "indexed": false,
          "internalType": "uint256",
          "name": "value",
          "type": "uint256"
        },
        {
          "indexed": false,
          "internalType": "uint256",
          "name": "devFee",
          "type": "uint256"
        }
      ],
      "name": "Sold",
      "type": "event"
    },
    {
      "anonymous": false,
      "inputs": [
        {
          "indexed": false,
          "internalType": "uint256",
          "name": "id",
          "type": "uint256"
        },
        {
          "indexed": false,
          "internalType": "string",
          "name": "tokenURI",
          "type": "string"
        }
      ],
      "name": "TokenURIUpdated",
      "type": "event"
    },
    {
      "anonymous": false,
      "inputs": [
        {
          "indexed": true,
          "internalType": "address",
          "name": "operator",
          "type": "address"
        },
        {
          "indexed": true,
          "internalType": "address",
          "name": "from",
          "type": "address"
        },
        {
          "indexed": true,
          "internalType": "address",
          "name": "to",
          "type": "address"
        },
        {
          "indexed": false,
          "internalType": "uint256[]",
          "name": "ids",
          "type": "uint256[]"
        },
        {
          "indexed": false,
          "internalType": "uint256[]",
          "name": "values",
          "type": "uint256[]"
        }
      ],
      "name": "TransferBatch",
      "type": "event"
    },
    {
      "anonymous": false,
      "inputs": [
        {
          "indexed": true,
          "internalType": "address",
          "name": "operator",
          "type": "address"
        },
        {
          "indexed": true,
          "internalType": "address",
          "name": "from",
          "type": "address"
        },
        {
          "indexed": true,
          "internalType": "address",
          "name": "to",
          "type": "address"
        },
        {
          "indexed": false,
          "internalType": "uint256",
          "name": "id",
          "type": "uint256"
        },
        {
          "indexed": false,
          "internalType": "uint256",
          "name": "value",
          "type": "uint256"
        }
      ],
      "name": "TransferSingle",
      "type": "event"
    },
    {
      "anonymous": false,
      "inputs": [
        {
          "indexed": false,
          "internalType": "string",
          "name": "value",
          "type": "string"
        },
        {
          "indexed": true,
          "internalType": "uint256",
          "name": "id",
          "type": "uint256"
        }
      ],
      "name": "URI",
      "type": "event"
    },
    {
      "inputs": [],
      "name": "PRECISIONDECIMALS",
      "outputs": [
        {
          "internalType": "uint64",
          "name": "",
          "type": "uint64"
        }
      ],
      "stateMutability": "view",
      "type": "function"
    },
    {
      "inputs": [
        {
          "internalType": "uint256",
          "name": "_t",
          "type": "uint256"
        },
        {
          "internalType": "uint256",
          "name": "_fs",
          "type": "uint256"
        },
        {
          "internalType": "uint256",
          "name": "_fsStep",
          "type": "uint256"
        },
        {
          "internalType": "uint256",
          "name": "_step",
          "type": "uint256"
        },
        {
          "internalType": "uint256",
          "name": "amount",
          "type": "uint256"
        }
      ],
      "name": "adjustment",
      "outputs": [
        {
          "internalType": "uint256",
          "name": "_fsIncr",
          "type": "uint256"
        }
      ],
      "stateMutability": "pure",
      "type": "function"
    },
    {
      "inputs": [
        {
          "internalType": "address",
          "name": "to",
          "type": "address"
        },
        {
          "internalType": "uint256",
          "name": "id",
          "type": "uint256"
        }
      ],
      "name": "balanceOf",
      "outputs": [
        {
          "internalType": "uint256",
          "name": "",
          "type": "uint256"
        }
      ],
      "stateMutability": "view",
      "type": "function"
    },
    {
      "inputs": [
        {
          "internalType": "address[]",
          "name": "accounts",
          "type": "address[]"
        },
        {
          "internalType": "uint256[]",
          "name": "ids",
          "type": "uint256[]"
        }
      ],
      "name": "balanceOfBatch",
      "outputs": [
        {
          "internalType": "uint256[]",
          "name": "",
          "type": "uint256[]"
        }
      ],
      "stateMutability": "view",
      "type": "function"
    },
    {
      "inputs": [
        {
          "internalType": "uint256",
          "name": "id",
          "type": "uint256"
        },
        {
          "internalType": "address",
          "name": "to",
          "type": "address"
        },
        {
          "internalType": "uint256",
          "name": "amount",
          "type": "uint256"
        },
        {
          "internalType": "uint256",
          "name": "maxSent",
          "type": "uint256"
        }
      ],
      "name": "buy",
      "outputs": [],
      "stateMutability": "payable",
      "type": "function"
    },
    {
      "inputs": [
        {
          "internalType": "uint256",
          "name": "id",
          "type": "uint256"
        },
        {
          "internalType": "uint256",
          "name": "_f",
          "type": "uint256"
        },
        {
          "internalType": "string",
          "name": "_tokenURI",
          "type": "string"
        },
        {
          "internalType": "uint256",
          "name": "timeoutAt",
          "type": "uint256"
        }
      ],
      "name": "create",
      "outputs": [],
      "stateMutability": "payable",
      "type": "function"
    },
    {
      "inputs": [
        {
          "internalType": "uint256",
          "name": "id",
          "type": "uint256"
        }
      ],
      "name": "creatorOf",
      "outputs": [
        {
          "internalType": "address",
          "name": "",
          "type": "address"
        }
      ],
      "stateMutability": "view",
      "type": "function"
    },
    {
      "inputs": [],
      "name": "defaultCreatorFeePCT",
      "outputs": [
        {
          "internalType": "uint64",
          "name": "",
          "type": "uint64"
        }
      ],
      "stateMutability": "view",
      "type": "function"
    },
    {
      "inputs": [],
      "name": "dev",
      "outputs": [
        {
          "internalType": "address",
          "name": "",
          "type": "address"
        }
      ],
      "stateMutability": "view",
      "type": "function"
    },
    {
      "inputs": [],
      "name": "devFeePCT",
      "outputs": [
        {
          "internalType": "uint64",
          "name": "",
          "type": "uint64"
        }
      ],
      "stateMutability": "view",
      "type": "function"
    },
    {
      "inputs": [
        {
          "internalType": "uint256",
          "name": "_t",
          "type": "uint256"
        },
        {
          "internalType": "uint256",
          "name": "_fs",
          "type": "uint256"
        },
        {
          "internalType": "uint256",
          "name": "_fsIncr",
          "type": "uint256"
        },
        {
          "internalType": "uint256",
          "name": "_f",
          "type": "uint256"
        },
        {
          "internalType": "uint256",
          "name": "_w",
          "type": "uint256"
        },
        {
          "internalType": "uint256",
          "name": "amount",
          "type": "uint256"
        }
      ],
      "name": "estimateAdjust",
      "outputs": [
        {
          "internalType": "uint256",
          "name": "_floor",
          "type": "uint256"
        }
      ],
      "stateMutability": "pure",
      "type": "function"
    },
    {
      "inputs": [
        {
          "internalType": "uint256",
          "name": "id",
          "type": "uint256"
        },
        {
          "internalType": "uint256",
          "name": "amount",
          "type": "uint256"
        }
      ],
      "name": "estimateBuy",
      "outputs": [
        {
          "internalType": "uint256",
          "name": "total",
          "type": "uint256"
        },
        {
          "internalType": "uint256",
          "name": "value",
          "type": "uint256"
        },
        {
          "internalType": "uint256",
          "name": "creatorFee",
          "type": "uint256"
        },
        {
          "internalType": "uint256",
          "name": "devFee",
          "type": "uint256"
        }
      ],
      "stateMutability": "view",
      "type": "function"
    },
    {
      "inputs": [
        {
          "internalType": "uint256",
          "name": "_k",
          "type": "uint256"
        },
        {
          "internalType": "uint256",
          "name": "_t",
          "type": "uint256"
        },
        {
          "internalType": "uint256",
          "name": "_fs",
          "type": "uint256"
        },
        {
          "internalType": "uint256",
          "name": "_f",
          "type": "uint256"
        },
        {
          "internalType": "uint256",
          "name": "amount",
          "type": "uint256"
        }
      ],
      "name": "estimateBuy",
      "outputs": [
        {
          "internalType": "uint256",
          "name": "total",
          "type": "uint256"
        },
        {
          "internalType": "uint256",
          "name": "value",
          "type": "uint256"
        },
        {
          "internalType": "uint256",
          "name": "creatorFee",
          "type": "uint256"
        },
        {
          "internalType": "uint256",
          "name": "devFee",
          "type": "uint256"
        }
      ],
      "stateMutability": "view",
      "type": "function"
    },
    {
      "inputs": [
        {
          "internalType": "uint256",
          "name": "_k",
          "type": "uint256"
        },
        {
          "internalType": "uint256",
          "name": "_t",
          "type": "uint256"
        },
        {
          "internalType": "uint256",
          "name": "_fs",
          "type": "uint256"
        },
        {
          "internalType": "uint256",
          "name": "_f",
          "type": "uint256"
        },
        {
          "internalType": "uint256",
          "name": "amount",
          "type": "uint256"
        }
      ],
      "name": "estimateSell",
      "outputs": [
        {
          "internalType": "uint256",
          "name": "total",
          "type": "uint256"
        },
        {
          "internalType": "uint256",
          "name": "value",
          "type": "uint256"
        },
        {
          "internalType": "uint256",
          "name": "devFee",
          "type": "uint256"
        }
      ],
      "stateMutability": "view",
      "type": "function"
    },
    {
      "inputs": [
        {
          "internalType": "uint256",
          "name": "id",
          "type": "uint256"
        },
        {
          "internalType": "uint256",
          "name": "amount",
          "type": "uint256"
        }
      ],
      "name": "estimateSell",
      "outputs": [
        {
          "internalType": "uint256",
          "name": "total",
          "type": "uint256"
        },
        {
          "internalType": "uint256",
          "name": "value",
          "type": "uint256"
        },
        {
          "internalType": "uint256",
          "name": "devFee",
          "type": "uint256"
        }
      ],
      "stateMutability": "view",
      "type": "function"
    },
    {
      "inputs": [
        {
          "internalType": "uint256",
          "name": "id",
          "type": "uint256"
        }
      ],
      "name": "exists",
      "outputs": [
        {
          "internalType": "bool",
          "name": "",
          "type": "bool"
        }
      ],
      "stateMutability": "view",
      "type": "function"
    },
    {
      "inputs": [
        {
          "internalType": "uint256",
          "name": "id",
          "type": "uint256"
        }
      ],
      "name": "floor",
      "outputs": [
        {
          "internalType": "uint256",
          "name": "",
          "type": "uint256"
        }
      ],
      "stateMutability": "view",
      "type": "function"
    },
    {
      "inputs": [
        {
          "internalType": "uint256",
          "name": "id",
          "type": "uint256"
        }
      ],
      "name": "floorSupply",
      "outputs": [
        {
          "internalType": "uint256",
          "name": "",
          "type": "uint256"
        }
      ],
      "stateMutability": "view",
      "type": "function"
    },
    {
      "inputs": [
        {
          "internalType": "uint256",
          "name": "",
          "type": "uint256"
        }
      ],
      "name": "fs",
      "outputs": [
        {
          "internalType": "uint256",
          "name": "",
          "type": "uint256"
        }
      ],
      "stateMutability": "view",
      "type": "function"
    },
    {
      "inputs": [
        {
          "internalType": "uint256",
          "name": "",
          "type": "uint256"
        }
      ],
      "name": "fsIncr",
      "outputs": [
        {
          "internalType": "uint256",
          "name": "",
          "type": "uint256"
        }
      ],
      "stateMutability": "view",
      "type": "function"
    },
    {
      "inputs": [
        {
          "internalType": "uint256",
          "name": "id",
          "type": "uint256"
        }
      ],
      "name": "fsStepOf",
      "outputs": [
        {
          "internalType": "uint256",
          "name": "",
          "type": "uint256"
        }
      ],
      "stateMutability": "view",
      "type": "function"
    },
    {
      "inputs": [
        {
          "internalType": "address",
          "name": "dev",
          "type": "address"
        }
      ],
      "name": "initialize",
      "outputs": [],
      "stateMutability": "nonpayable",
      "type": "function"
    },
    {
      "inputs": [
        {
          "internalType": "address",
          "name": "",
          "type": "address"
        },
        {
          "internalType": "address",
          "name": "",
          "type": "address"
        }
      ],
      "name": "isApprovedDelegate",
      "outputs": [
        {
          "internalType": "bool",
          "name": "",
          "type": "bool"
        }
      ],
      "stateMutability": "view",
      "type": "function"
    },
    {
      "inputs": [
        {
          "internalType": "address",
          "name": "account",
          "type": "address"
        },
        {
          "internalType": "address",
          "name": "operator",
          "type": "address"
        }
      ],
      "name": "isApprovedForAll",
      "outputs": [
        {
          "internalType": "bool",
          "name": "",
          "type": "bool"
        }
      ],
      "stateMutability": "view",
      "type": "function"
    },
    {
      "inputs": [],
      "name": "k",
      "outputs": [
        {
          "internalType": "uint64",
          "name": "",
          "type": "uint64"
        }
      ],
      "stateMutability": "view",
      "type": "function"
    },
    {
      "inputs": [],
      "name": "minFloor",
      "outputs": [
        {
          "internalType": "uint64",
          "name": "",
          "type": "uint64"
        }
      ],
      "stateMutability": "view",
      "type": "function"
    },
    {
      "inputs": [
        {
          "internalType": "address",
          "name": "from",
          "type": "address"
        },
        {
          "internalType": "address",
          "name": "to",
          "type": "address"
        },
        {
          "internalType": "uint256[]",
          "name": "ids",
          "type": "uint256[]"
        },
        {
          "internalType": "uint256[]",
          "name": "amounts",
          "type": "uint256[]"
        },
        {
          "internalType": "bytes",
          "name": "data",
          "type": "bytes"
        }
      ],
      "name": "safeBatchTransferFrom",
      "outputs": [],
      "stateMutability": "nonpayable",
      "type": "function"
    },
    {
      "inputs": [
        {
          "internalType": "address",
          "name": "from",
          "type": "address"
        },
        {
          "internalType": "address",
          "name": "to",
          "type": "address"
        },
        {
          "internalType": "uint256",
          "name": "id",
          "type": "uint256"
        },
        {
          "internalType": "uint256",
          "name": "amount",
          "type": "uint256"
        },
        {
          "internalType": "bytes",
          "name": "data",
          "type": "bytes"
        }
      ],
      "name": "safeTransferFrom",
      "outputs": [],
      "stateMutability": "nonpayable",
      "type": "function"
    },
    {
      "inputs": [
        {
          "internalType": "uint256",
          "name": "id",
          "type": "uint256"
        },
        {
          "internalType": "address",
          "name": "to",
          "type": "address"
        },
        {
          "internalType": "uint256",
          "name": "amount",
          "type": "uint256"
        },
        {
          "internalType": "uint256",
          "name": "minReceived",
          "type": "uint256"
        }
      ],
      "name": "sell",
      "outputs": [],
      "stateMutability": "nonpayable",
      "type": "function"
    },
    {
      "inputs": [
        {
          "internalType": "address",
          "name": "operator",
          "type": "address"
        },
        {
          "internalType": "bool",
          "name": "approved",
          "type": "bool"
        }
      ],
      "name": "setApprovalForAll",
      "outputs": [],
      "stateMutability": "nonpayable",
      "type": "function"
    },
    {
      "inputs": [
        {
          "internalType": "address",
          "name": "_delegate",
          "type": "address"
        },
        {
          "internalType": "bool",
          "name": "_isApproved",
          "type": "bool"
        }
      ],
      "name": "setDelegateApproval",
      "outputs": [],
      "stateMutability": "nonpayable",
      "type": "function"
    },
    {
      "inputs": [
        {
          "internalType": "uint256",
          "name": "id",
          "type": "uint256"
        },
        {
          "internalType": "string",
          "name": "tokenURI",
          "type": "string"
        }
      ],
      "name": "setTokenURI",
      "outputs": [],
      "stateMutability": "nonpayable",
      "type": "function"
    },
    {
      "inputs": [
        {
          "internalType": "uint256",
          "name": "id",
          "type": "uint256"
        }
      ],
      "name": "stepment",
      "outputs": [
        {
          "internalType": "uint256",
          "name": "",
          "type": "uint256"
        }
      ],
      "stateMutability": "view",
      "type": "function"
    },
    {
      "inputs": [
        {
          "internalType": "bytes4",
          "name": "interfaceId",
          "type": "bytes4"
        }
      ],
      "name": "supportsInterface",
      "outputs": [
        {
          "internalType": "bool",
          "name": "",
          "type": "bool"
        }
      ],
      "stateMutability": "view",
      "type": "function"
    },
    {
      "inputs": [
        {
          "internalType": "uint256",
          "name": "",
          "type": "uint256"
        }
      ],
      "name": "tokenURIs",
      "outputs": [
        {
          "internalType": "string",
          "name": "",
          "type": "string"
        }
      ],
      "stateMutability": "view",
      "type": "function"
    },
    {
      "inputs": [
        {
          "internalType": "uint256",
          "name": "id",
          "type": "uint256"
        }
      ],
      "name": "totalSupply",
      "outputs": [
        {
          "internalType": "uint256",
          "name": "",
          "type": "uint256"
        }
      ],
      "stateMutability": "view",
      "type": "function"
    },
    {
      "inputs": [
        {
          "internalType": "uint256",
          "name": "id",
          "type": "uint256"
        }
      ],
      "name": "uri",
      "outputs": [
        {
          "internalType": "string",
          "name": "",
          "type": "string"
        }
      ],
      "stateMutability": "view",
      "type": "function"
    },
    {
      "inputs": [
        {
          "internalType": "uint256",
          "name": "_k",
          "type": "uint256"
        },
        {
          "internalType": "uint256",
          "name": "_t",
          "type": "uint256"
        },
        {
          "internalType": "uint256",
          "name": "_fs",
          "type": "uint256"
        },
        {
          "internalType": "uint256",
          "name": "_f",
          "type": "uint256"
        }
      ],
      "name": "worth",
      "outputs": [
        {
          "internalType": "uint256",
          "name": "",
          "type": "uint256"
        }
      ],
      "stateMutability": "pure",
      "type": "function"
    },
    {
      "inputs": [
        {
          "internalType": "uint256",
          "name": "id",
          "type": "uint256"
        }
      ],
      "name": "worthOf",
      "outputs": [
        {
          "internalType": "uint256",
          "name": "",
          "type": "uint256"
        }
      ],
      "stateMutability": "view",
      "type": "function"
    },
    {
      "stateMutability": "payable",
      "type": "receive"
    }
  ],
  "transactionHash": "0xcf3ac388e26824fd10b127dd1cefaeb03f41d1e88248ecd4a77dbf9fdd0b7807",
  "args": [],
  "numDeployments": 4,
  "solcInputHash": "347af7b2ad46a4b4fedc7ea020cedeab",
  "bytecode": "0x608060405234801561001057600080fd5b506142be806100206000396000f3fe6080604052600436106102a25760003560e01c80636c8b703f1161016e578063bd85b039116100cb578063cdb9c4eb1161007f578063f213edda11610064578063f213edda1461088b578063f242432a146108ab578063f740fd34146108cb57600080fd5b8063cdb9c4eb14610821578063e985e9c51461084257600080fd5b8063c3c854b6116100b0578063c3c854b61461078e578063c4d66de8146107e1578063c5464eb41461080157600080fd5b8063bd85b0391461074e578063c0facbea1461076e57600080fd5b806385bc692511610122578063a22cb46511610107578063a22cb465146106f3578063b233e05614610713578063b4f40c611461073357600080fd5b806385bc6925146106b357806391cca3db146106d357600080fd5b80637272d03c116101535780637272d03c146106395780637ab58add14610666578063810c37381461069357600080fd5b80636c8b703f14610606578063706910ff1461062657600080fd5b80632eb2c2d61161021c578063504f5e56116101d0578063589a1743116101b5578063589a17431461055d57806362585e92146105ab578063666a27bb146105e657600080fd5b8063504f5e561461051d5780635770b2a21461054a57600080fd5b80634e1273f4116102015780634e1273f4146104b75780634f558e79146104e4578063503e0a981461050457600080fd5b80632eb2c2d61461047b57806343a54a0c1461049b57600080fd5b806309501e6611610273578063162094c411610258578063162094c4146103d85780631930e825146103fa57806329bff6901461043557600080fd5b806309501e661461037e5780630e89341c146103ab57600080fd5b8062d92e39146102ae578062fdd58e146102ee57806301ffc9a71461030e57806308349b901461033e57600080fd5b366102a957005b600080fd5b3480156102ba57600080fd5b506102db6102c9366004613841565b600090815260ce602052604090205490565b6040519081526020015b60405180910390f35b3480156102fa57600080fd5b506102db610309366004613876565b6108eb565b34801561031a57600080fd5b5061032e6103293660046138d1565b610900565b60405190151581526020016102e5565b34801561034a57600080fd5b5061035e6103593660046138f5565b6109e3565b6040805194855260208501939093529183015260608201526080016102e5565b34801561038a57600080fd5b506102db610399366004613841565b600090815260cf602052604090205490565b3480156103b757600080fd5b506103cb6103c6366004613841565b610ae3565b6040516102e5919061395d565b3480156103e457600080fd5b506103f86103f3366004613a27565b610b85565b005b34801561040657600080fd5b5061032e610415366004613a6e565b60d060209081526000928352604080842090915290825290205460ff1681565b34801561044157600080fd5b5060c9546104629068010000000000000000900467ffffffffffffffff1681565b60405167ffffffffffffffff90911681526020016102e5565b34801561048757600080fd5b506103f8610496366004613b36565b610c29565b3480156104a757600080fd5b50610462670de0b6b3a764000081565b3480156104c357600080fd5b506104d76104d2366004613be0565b610ccb565b6040516102e59190613cdc565b3480156104f057600080fd5b5061032e6104ff366004613841565b610e09565b34801561051057600080fd5b5061046264e8d4a5100081565b34801561052957600080fd5b506102db610538366004613841565b600090815260cb602052604090205490565b6103f8610558366004613cef565b610e1f565b34801561056957600080fd5b50610593610578366004613841565b600090815260d260205260409020546001600160a01b031690565b6040516001600160a01b0390911681526020016102e5565b3480156105b757600080fd5b506105cb6105c6366004613d47565b610e8e565b604080519384526020840192909252908201526060016102e5565b3480156105f257600080fd5b5061035e610601366004613d47565b611052565b34801561061257600080fd5b506103cb610621366004613841565b6111e5565b6103f8610634366004613d82565b61127f565b34801561064557600080fd5b506102db610654366004613841565b60cc6020526000908152604090205481565b34801561067257600080fd5b506102db610681366004613841565b60cd6020526000908152604090205481565b34801561069f57600080fd5b506102db6106ae366004613841565b611883565b3480156106bf57600080fd5b506105cb6106ce3660046138f5565b6118a7565b3480156106df57600080fd5b5060ca54610593906001600160a01b031681565b3480156106ff57600080fd5b506103f861070e366004613dbd565b611951565b34801561071f57600080fd5b506103f861072e366004613d82565b611960565b34801561073f57600080fd5b5061046266071afd498d000081565b34801561075a57600080fd5b506102db610769366004613841565b611dbd565b34801561077a57600080fd5b506102db610789366004613df9565b611dd1565b34801561079a57600080fd5b506103f86107a9366004613dbd565b33600090815260d0602090815260408083206001600160a01b0395909516835293905291909120805460ff1916911515919091179055565b3480156107ed57600080fd5b506103f86107fc366004613e3c565b611efe565b34801561080d57600080fd5b506102db61081c366004613841565b612083565b34801561082d57600080fd5b5060c9546104629067ffffffffffffffff1681565b34801561084e57600080fd5b5061032e61085d366004613a6e565b6001600160a01b03918216600090815260666020908152604080832093909416825291909152205460ff1690565b34801561089757600080fd5b506102db6108a6366004613e57565b6120ca565b3480156108b757600080fd5b506103f86108c6366004613e89565b612133565b3480156108d757600080fd5b506102db6108e6366004613d47565b6121ce565b60006108f7838361221a565b90505b92915050565b60007fffffffff0000000000000000000000000000000000000000000000000000000082167fd9b67a2600000000000000000000000000000000000000000000000000000000148061099357507fffffffff0000000000000000000000000000000000000000000000000000000082167f0e89341c00000000000000000000000000000000000000000000000000000000145b806108fa57507f01ffc9a7000000000000000000000000000000000000000000000000000000007fffffffff000000000000000000000000000000000000000000000000000000008316146108fa565b6000806000806109f286610e09565b610a435760405162461bcd60e51b815260206004820152601560248201527f48696b65723a206e6f6e6578697374656e74206964000000000000000000000060448201526064015b60405180910390fd5b66071afd498d00006000610a5688611dbd565b90506000610a6389611883565b60008a815260cb602052604090205490915080610ac25760405162461bcd60e51b815260206004820152601760248201527f48696b65723a207a65726f20666c6f6f722070726963650000000000000000006044820152606401610a3a565b610acf848484848d611052565b929d919c509a509098509650505050505050565b600081815260d160205260409020805460609190610b0090613eee565b80601f0160208091040260200160405190810160405280929190818152602001828054610b2c90613eee565b8015610b795780601f10610b4e57610100808354040283529160200191610b79565b820191906000526020600020905b815481529060010190602001808311610b5c57829003601f168201915b50505050509050919050565b600082815260d260205260409020546001600160a01b031633811480610bce57506001600160a01b038116600090815260d06020908152604080832033845290915290205460ff165b610c1a5760405162461bcd60e51b815260206004820152601560248201527f44656c6567617465206e6f7420617070726f76656400000000000000000000006044820152606401610a3a565b610c2483836122c0565b505050565b6001600160a01b038516331480610c455750610c45853361085d565b610cb75760405162461bcd60e51b815260206004820152602e60248201527f455243313135353a2063616c6c6572206973206e6f7420746f6b656e206f776e60448201527f6572206f7220617070726f7665640000000000000000000000000000000000006064820152608401610a3a565b610cc4858585858561230a565b5050505050565b60608151835114610d445760405162461bcd60e51b815260206004820152602960248201527f455243313135353a206163636f756e747320616e6420696473206c656e67746860448201527f206d69736d6174636800000000000000000000000000000000000000000000006064820152608401610a3a565b6000835167ffffffffffffffff811115610d6057610d60613970565b604051908082528060200260200182016040528015610d89578160200160208202803683370190505b50905060005b8451811015610e0157610dd4858281518110610dad57610dad613f28565b6020026020010151858381518110610dc757610dc7613f28565b60200260200101516108eb565b828281518110610de657610de6613f28565b6020908102919091010152610dfa81613f54565b9050610d8f565b509392505050565b60008181526097602052604081205415156108fa565b804210610e6e5760405162461bcd60e51b815260206004820152600e60248201527f48696b65723a2074696d656f75740000000000000000000000000000000000006044820152606401610a3a565b610e7e8484606460c8600a6125b9565b610e8884836122c0565b50505050565b600080600083871015610f095760405162461bcd60e51b815260206004820152603160248201527f48696b65723a2073656c6c20616d6f756e74206d757374206265206c6573732060448201527f7468616e20746f74616c20737570706c790000000000000000000000000000006064820152608401610a3a565b858711610f2157610f1a8486613f6e565b9150611002565b85610f2c8589613f85565b1115610f91576002610f3e8782613f6e565b85610f4a8a6002613f6e565b610f549190613f85565b610f5e9190613f85565b610f68908a613f6e565b610f73876002613f6e565b610f7d9190613f98565b610f879086613f6e565b610f1a9190613fab565b6000610f9d8789613f85565b90506000610fab8287613f85565b90506002610fc08366071afd498d0000613f6e565b610fcb896002613f6e565b610fd59190613f98565b610fdf9084613f6e565b610fe99190613fab565b610ff38289613f6e565b610ffd9190613f98565b935050505b60c954670de0b6b3a76400009061102f9068010000000000000000900467ffffffffffffffff1684613f6e565b6110399190613fab565b90506110458183613f85565b9250955095509592505050565b600080808086611062868a613f98565b11611078576110718587613f6e565b925061115b565b868811156110df57600261108c8882613f6e565b866110988b6002613f6e565b6110a29190613f98565b6110ac9190613f85565b6110b6908b613f6e565b6110c1886002613f6e565b6110cb9190613f98565b6110d59087613f6e565b6110719190613fab565b60006110eb8989613f85565b90506000886110fa888c613f98565b6111049190613f85565b905060026111198266071afd498d0000613f6e565b6111248a6002613f6e565b61112e9190613f98565b6111389083613f6e565b6111429190613fab565b61114c838a613f6e565b6111569190613f98565b945050505b60c954670de0b6b3a76400009061117c9067ffffffffffffffff1685613f6e565b6111869190613fab565b60c954909250670de0b6b3a7640000906111b69068010000000000000000900467ffffffffffffffff1685613f6e565b6111c09190613fab565b9050806111cd8385613f98565b6111d79190613f98565b935095509550955095915050565b60d160205260009081526040902080546111fe90613eee565b80601f016020809104026020016040519081016040528092919081815260200182805461122a90613eee565b80156112775780601f1061124c57610100808354040283529160200191611277565b820191906000526020600020905b81548152906001019060200180831161125a57829003601f168201915b505050505081565b600084815260d260205260409020546001600160a01b03166112e35760405162461bcd60e51b815260206004820152601b60248201527f48696b65723a20746f6b656e206973206e6f74206372656174656400000000006044820152606401610a3a565b600082116113585760405162461bcd60e51b8152602060048201526024808201527f48696b65723a20616d6f756e74206d757374206265206772656174657220746860448201527f616e2030000000000000000000000000000000000000000000000000000000006064820152608401610a3a565b60006040518060a0016040528066071afd498d000067ffffffffffffffff16815260200161138587611dbd565b815260200161139387611883565b81526020016113ae87600090815260cb602052604090205490565b81526020016113c987600090815260ce602052604090205490565b8152509050600085905060008590506000859050600080600080611400886000015189602001518a604001518b6060015189611052565b9350935093509350833410156114585760405162461bcd60e51b815260206004820181905260248201527f48696b65723a20696e73756666696369656e742066756e647320746f206275796044820152606401610a3a565b888411156114ce5760405162461bcd60e51b815260206004820152603760248201527f48696b65723a2066756e6473206d757374206265206c657373207468616e206f60448201527f7220657175616c20746f206d6178696d756d2073656e740000000000000000006064820152608401610a3a565b8334111561159d576000336114e38634613f85565b604051600081818185875af1925050503d806000811461151f576040519150601f19603f3d011682016040523d82523d6000602084013e611524565b606091505b505090508061159b5760405162461bcd60e51b815260206004820152602160248201527f48696b65723a207472616e736665722066756e6473206261636b206661696c6560448201527f64000000000000000000000000000000000000000000000000000000000000006064820152608401610a3a565b505b60ca546040516000916001600160a01b03169083908381818185875af1925050503d80600081146115ea576040519150601f19603f3d011682016040523d82523d6000602084013e6115ef565b606091505b50509050806116665760405162461bcd60e51b815260206004820152602260248201527f48696b65723a206661696c656420746f207472616e736665722064657620666560448201527f65200000000000000000000000000000000000000000000000000000000000006064820152608401610a3a565b600088815260d260205260409020546001600160a01b03166001600160a01b03168360405160006040518083038185875af1925050503d80600081146116c8576040519150601f19603f3d011682016040523d82523d6000602084013e6116cd565b606091505b505080915050806117465760405162461bcd60e51b815260206004820152602660248201527f48696b65723a206661696c656420746f207472616e736665722063726561746f60448201527f72206665652000000000000000000000000000000000000000000000000000006064820152608401610a3a565b6020808a015160008a815260cc835260408082205460cf90945281205460808d0151919361177893929091908b6121ce565b905060006117988b600001518c602001518d604001518e606001516120ca565b60008b815260cd6020526040902054909150821115611803576117e58b6020015160cc60008d815260200190815260200160002054848e606001518a866117df9190613f98565b8d611dd1565b60008b815260cb602090815260408083209390935560cd9052208290555b61180e898b8a612bdf565b60408051338152602081018c90526001600160a01b038b1681830152606081018a90526080810189905260a0810187905260c0810186905290517f12c4d1c4d79a304fbab32f712e8a64f5a799441611dba85c44ea807121cd76c99181900360e00190a1505050505050505050505050505050565b600081815260cd602090815260408083205460cc9092528220546108fa9190613f98565b60008060006118b585610e09565b6119015760405162461bcd60e51b815260206004820152601560248201527f48696b65723a206e6f6e6578697374656e7420696400000000000000000000006044820152606401610a3a565b66071afd498d0000600061191487611dbd565b9050600061192188611883565b600089815260cb6020526040902054909150611940848484848c610e8e565b965096509650505050509250925092565b61195c338383612c4d565b5050565b61196984610e09565b6119b55760405162461bcd60e51b815260206004820152601860248201527f48696b65723a206e6f6e6578736974656e7420746f6b656e00000000000000006044820152606401610a3a565b60008211611a2a5760405162461bcd60e51b8152602060048201526024808201527f48696b65723a20616d6f756e74206d757374206265206772656174657220746860448201527f616e2030000000000000000000000000000000000000000000000000000000006064820152608401610a3a565b6000611a3585611dbd565b905082811015611aad5760405162461bcd60e51b815260206004820152603760248201527f48696b653a20616d6f756e74206d757374206265206c657373207468616e206f60448201527f7220657175616c20746f20746f74616c20737570706c790000000000000000006064820152608401610a3a565b60006040518060a0016040528066071afd498d000067ffffffffffffffff168152602001838152602001611ae088611883565b8152602001611afb88600090815260cb602052604090205490565b8152602001611b1688600090815260ce602052604090205490565b8152509050600080611b3b83600001518460200151856040015186606001518a610e8e565b925050915084821015611bdc5760405162461bcd60e51b815260206004820152604760248201527f48696b65723a2072656365697665642076616c7565206d75737420626520677260448201527f6561746572207468616e206f7220657175616c20746f206d696e696d756d207260648201527f6563656976656400000000000000000000000000000000000000000000000000608482015260a401610a3a565b611be7338988612d41565b6000876001600160a01b03168360405160006040518083038185875af1925050503d8060008114611c34576040519150601f19603f3d011682016040523d82523d6000602084013e611c39565b606091505b5050905080611c8a5760405162461bcd60e51b815260206004820152601c60248201527f48696b65723a207472616e736665722076616c7565206661696c6564000000006044820152606401610a3a565b60ca546040516001600160a01b03909116908390600081818185875af1925050503d8060008114611cd7576040519150601f19603f3d011682016040523d82523d6000602084013e611cdc565b606091505b50508091505080611d555760405162461bcd60e51b815260206004820152602160248201527f48696b65723a206661696c656420746f207472616e736665722064657620666560448201527f65000000000000000000000000000000000000000000000000000000000000006064820152608401610a3a565b60408051338152602081018b90526001600160a01b038a1681830152606081018990526080810185905260a0810184905290517fc0a231a7f7212c406ebe9c01a92adbb7c3972729d6b23d0910d7e5359d901a399181900360c00190a1505050505050505050565b6000818152609760205260408120546108fa565b600080611dde8688613f98565b905080611deb848a613f98565b11611e385760405162461bcd60e51b815260206004820152601160248201527f696e76616c696420706172616d657465720000000000000000000000000000006044820152606401610a3a565b600081611e45858b613f98565b611e4f9190613f85565b9050611e5b848a613f98565b611e66906002613f6e565b81611e788166071afd498d0000613f6e565b611e829190613f6e565b611e8d876002613f6e565b611e979190613f85565b611ea19190613fab565b9250858311611ef25760405162461bcd60e51b815260206004820152600d60248201527f696e76616c696420666c6f6f72000000000000000000000000000000000000006044820152606401610a3a565b50509695505050505050565b600054610100900460ff1615808015611f1e5750600054600160ff909116105b80611f385750303b158015611f38575060005460ff166001145b611faa5760405162461bcd60e51b815260206004820152602e60248201527f496e697469616c697a61626c653a20636f6e747261637420697320616c72656160448201527f647920696e697469616c697a65640000000000000000000000000000000000006064820152608401610a3a565b6000805460ff191660011790558015611fcd576000805461ff0019166101001790555b60ca80547fffffffffffffffffffffffff0000000000000000000000000000000000000000166001600160a01b03841617905560c980547fffffffffffffffffffffffffffffffff00000000000000000000000000000000166eb1a2bc2ec5000000b1a2bc2ec50000179055801561195c576000805461ff0019169055604051600181527f7f26b83ff96e1f2b6a682f133852f6798a09c465da95921460cefb3847402498906020015b60405180910390a15050565b60008061208f83611dbd565b9050600061209c84611883565b600085815260cb60205260409020549091506120c166071afd498d00008484846120ca565b95945050505050565b60008284116120e4576120dd8483613f6e565b905061212b565b60006120f08486613f85565b90506002816120ff8189613f6e565b6121099190613f6e565b6121139190613fab565b61211d8685613f6e565b6121279190613f98565b9150505b949350505050565b6001600160a01b03851633148061214f575061214f853361085d565b6121c15760405162461bcd60e51b815260206004820152602e60248201527f455243313135353a2063616c6c6572206973206e6f7420746f6b656e206f776e60448201527f6572206f7220617070726f7665640000000000000000000000000000000000006064820152608401610a3a565b610cc48585858585612d4c565b6000846121db8388613f98565b11156120c157600083866121ef858a613f98565b6121f99190613f85565b6122039190613fab565b905061220f8582613f6e565b979650505050505050565b60006001600160a01b0383166122985760405162461bcd60e51b815260206004820152602a60248201527f455243313135353a2061646472657373207a65726f206973206e6f742061207660448201527f616c6964206f776e6572000000000000000000000000000000000000000000006064820152608401610a3a565b5060009081526065602090815260408083206001600160a01b03949094168352929052205490565b600082815260d1602052604090206122d88282614013565b507f931f495b9a8e5d8e61946ea5d61e021f636cfe213a801f97589c18c152e408bd82826040516120779291906140d3565b81518351146123815760405162461bcd60e51b815260206004820152602860248201527f455243313135353a2069647320616e6420616d6f756e7473206c656e6774682060448201527f6d69736d617463680000000000000000000000000000000000000000000000006064820152608401610a3a565b6001600160a01b0384166123fd5760405162461bcd60e51b815260206004820152602560248201527f455243313135353a207472616e7366657220746f20746865207a65726f20616460448201527f64726573730000000000000000000000000000000000000000000000000000006064820152608401610a3a565b3361240c818787878787612f34565b60005b845181101561254b57600085828151811061242c5761242c613f28565b60200260200101519050600085838151811061244a5761244a613f28565b60209081029190910181015160008481526065835260408082206001600160a01b038e1683529093529190912054909150818110156124f15760405162461bcd60e51b815260206004820152602a60248201527f455243313135353a20696e73756666696369656e742062616c616e636520666f60448201527f72207472616e73666572000000000000000000000000000000000000000000006064820152608401610a3a565b60008381526065602090815260408083206001600160a01b038e8116855292528083208585039055908b16825281208054849290612530908490613f98565b925050819055505050508061254490613f54565b905061240f565b50846001600160a01b0316866001600160a01b0316826001600160a01b03167f4a39dc06d4c0dbc64b70af90fd698a233a518aa5d07e595d983b8c0526c8f7fb878760405161259b9291906140ec565b60405180910390a46125b18187878787876130cb565b505050505050565b6125c285610e09565b1561260f5760405162461bcd60e51b815260206004820152601360248201527f48696b65723a20746f6b656e20657869737473000000000000000000000000006044820152606401610a3a565b600085815260d260205260409020546001600160a01b0316156126745760405162461bcd60e51b815260206004820152601760248201527f48696b65723a20746f6b656e20697320637265617465640000000000000000006044820152606401610a3a565b64e8d4a510008410156126ef5760405162461bcd60e51b815260206004820152603b60248201527f48696b65723a20666c6f6f72206d75737420626520677265617465722074686160448201527f6e206f7220657175616c20746f206d696e696d756d20666c6f6f7200000000006064820152608401610a3a565b6000831161278b5760405162461bcd60e51b815260206004820152604960248201527f48696b65723a20666c6f6f7220737570706c79206d757374206265206772656160448201527f746572207468616e206f7220657175616c20746f206d696e696d756d20666c6f60648201527f6f7220737570706c790000000000000000000000000000000000000000000000608482015260a401610a3a565b600082116128015760405162461bcd60e51b815260206004820152602960248201527f48696b65723a2061646a7573742073746570206d75737420677265617465722060448201527f7468616e207a65726f00000000000000000000000000000000000000000000006064820152608401610a3a565b600081116128765760405162461bcd60e51b8152602060048201526024808201527f48696b65723a20667353746570206d7573742067726561746572207468616e2060448201527f7a65726f000000000000000000000000000000000000000000000000000000006064820152608401610a3a565b8181106128ea5760405162461bcd60e51b8152602060048201526024808201527f48696b65723a20667353746570206d757374206265206c657373207468616e2060448201527f73746570000000000000000000000000000000000000000000000000000000006064820152608401610a3a565b60c954600090670de0b6b3a76400009061291a9068010000000000000000900467ffffffffffffffff1687613f6e565b6129249190613fab565b90506129308186613f98565b3410156129a55760405162461bcd60e51b815260206004820152602360248201527f48696b65723a20696e73756666696369656e742066756e647320746f2063726560448201527f61746500000000000000000000000000000000000000000000000000000000006064820152608401610a3a565b6129af8186613f98565b341115612a8857600033826129c48834613f85565b6129ce9190613f85565b604051600081818185875af1925050503d8060008114612a0a576040519150601f19603f3d011682016040523d82523d6000602084013e612a0f565b606091505b5050905080612a865760405162461bcd60e51b815260206004820152602160248201527f48696b65723a207472616e736665722066756e6473206261636b206661696c6560448201527f64000000000000000000000000000000000000000000000000000000000000006064820152608401610a3a565b505b60ca546040516000916001600160a01b03169083908381818185875af1925050503d8060008114612ad5576040519150601f19603f3d011682016040523d82523d6000602084013e612ada565b606091505b5050905080612b2b5760405162461bcd60e51b815260206004820152601d60248201527f48696b65723a206661696c656420746f207265636569766520666565200000006044820152606401610a3a565b612b3587336132cf565b612b4133886001612bdf565b600087815260cb6020908152604080832089905560cc825280832088905560ce825280832087905560cf8252918290208590558151338152908101899052908101879052606081018690526080810185905260a0810184905260c0810187905260e081018390527f460cf3f1c0e37440b24f7a57d7c52f04ca2f3df751bcb4097d4a9e383b1a2477906101000160405180910390a150505050505050565b60008111612c2f5760405162461bcd60e51b815260206004820152601160248201527f4d6f73733a207a65726f20616d6f756e740000000000000000000000000000006044820152606401610a3a565b604080516000815260208101909152610c249084908490849061339c565b816001600160a01b0316836001600160a01b031603612cd45760405162461bcd60e51b815260206004820152602960248201527f455243313135353a2073657474696e6720617070726f76616c2073746174757360448201527f20666f722073656c6600000000000000000000000000000000000000000000006064820152608401610a3a565b6001600160a01b03838116600081815260666020908152604080832094871680845294825291829020805460ff191686151590811790915591519182527f17307eab39ab6107e8899845ad3d59bd9653f200f220920489ca2b5937696c31910160405180910390a3505050565b610c248383836134d4565b6001600160a01b038416612dc85760405162461bcd60e51b815260206004820152602560248201527f455243313135353a207472616e7366657220746f20746865207a65726f20616460448201527f64726573730000000000000000000000000000000000000000000000000000006064820152608401610a3a565b336000612dd48561369b565b90506000612de18561369b565b9050612df1838989858589612f34565b60008681526065602090815260408083206001600160a01b038c16845290915290205485811015612e8a5760405162461bcd60e51b815260206004820152602a60248201527f455243313135353a20696e73756666696369656e742062616c616e636520666f60448201527f72207472616e73666572000000000000000000000000000000000000000000006064820152608401610a3a565b60008781526065602090815260408083206001600160a01b038d8116855292528083208985039055908a16825281208054889290612ec9908490613f98565b909155505060408051888152602081018890526001600160a01b03808b16928c821692918816917fc3d58168c5ae7397731d063d5bbf3d657854427343f4c083240f7aacaa2d0f62910160405180910390a4612f29848a8a8a8a8a6136e6565b505050505050505050565b6001600160a01b038516612fbb5760005b8351811015612fb957828181518110612f6057612f60613f28565b602002602001015160976000868481518110612f7e57612f7e613f28565b602002602001015181526020019081526020016000206000828254612fa39190613f98565b90915550612fb2905081613f54565b9050612f45565b505b6001600160a01b0384166125b15760005b83518110156130c2576000848281518110612fe957612fe9613f28565b60200260200101519050600084838151811061300757613007613f28565b602002602001015190506000609760008481526020019081526020016000205490508181101561309f5760405162461bcd60e51b815260206004820152602860248201527f455243313135353a206275726e20616d6f756e74206578636565647320746f7460448201527f616c537570706c790000000000000000000000000000000000000000000000006064820152608401610a3a565b600092835260976020526040909220910390556130bb81613f54565b9050612fcc565b50505050505050565b6001600160a01b0384163b156125b1576040517fbc197c810000000000000000000000000000000000000000000000000000000081526001600160a01b0385169063bc197c81906131289089908990889088908890600401614111565b6020604051808303816000875af1925050508015613163575060408051601f3d908101601f191682019092526131609181019061416f565b60015b6132185761316f61418c565b806308c379a0036131a857506131836141a8565b8061318e57506131aa565b8060405162461bcd60e51b8152600401610a3a919061395d565b505b60405162461bcd60e51b815260206004820152603460248201527f455243313135353a207472616e7366657220746f206e6f6e2d4552433131353560448201527f526563656976657220696d706c656d656e7465720000000000000000000000006064820152608401610a3a565b7fffffffff0000000000000000000000000000000000000000000000000000000081167fbc197c8100000000000000000000000000000000000000000000000000000000146130c25760405162461bcd60e51b815260206004820152602860248201527f455243313135353a204552433131353552656365697665722072656a6563746560448201527f6420746f6b656e730000000000000000000000000000000000000000000000006064820152608401610a3a565b6132d882610e09565b156133255760405162461bcd60e51b815260206004820152601260248201527f4d6f73733a20746f6b656e2065786973747300000000000000000000000000006044820152606401610a3a565b600082815260d2602090815260409182902080547fffffffffffffffffffffffff0000000000000000000000000000000000000000166001600160a01b0385169081179091558251858152918201527fc0186d9ba7364ebd80a7010121367f481af81e1028bf368b2172fedf2c6fc7de9101612077565b6001600160a01b0384166134185760405162461bcd60e51b815260206004820152602160248201527f455243313135353a206d696e7420746f20746865207a65726f2061646472657360448201527f73000000000000000000000000000000000000000000000000000000000000006064820152608401610a3a565b3360006134248561369b565b905060006134318561369b565b905061344283600089858589612f34565b60008681526065602090815260408083206001600160a01b038b16845290915281208054879290613474908490613f98565b909155505060408051878152602081018790526001600160a01b03808a1692600092918716917fc3d58168c5ae7397731d063d5bbf3d657854427343f4c083240f7aacaa2d0f62910160405180910390a46130c2836000898989896136e6565b6001600160a01b0383166135505760405162461bcd60e51b815260206004820152602360248201527f455243313135353a206275726e2066726f6d20746865207a65726f206164647260448201527f65737300000000000000000000000000000000000000000000000000000000006064820152608401610a3a565b33600061355c8461369b565b905060006135698461369b565b905061358983876000858560405180602001604052806000815250612f34565b60008581526065602090815260408083206001600160a01b038a168452909152902054848110156136215760405162461bcd60e51b8152602060048201526024808201527f455243313135353a206275726e20616d6f756e7420657863656564732062616c60448201527f616e6365000000000000000000000000000000000000000000000000000000006064820152608401610a3a565b60008681526065602090815260408083206001600160a01b038b81168086529184528285208a8703905582518b81529384018a90529092908816917fc3d58168c5ae7397731d063d5bbf3d657854427343f4c083240f7aacaa2d0f62910160405180910390a46040805160208101909152600090526130c2565b604080516001808252818301909252606091600091906020808301908036833701905050905082816000815181106136d5576136d5613f28565b602090810291909101015292915050565b6001600160a01b0384163b156125b1576040517ff23a6e610000000000000000000000000000000000000000000000000000000081526001600160a01b0385169063f23a6e61906137439089908990889088908890600401614250565b6020604051808303816000875af192505050801561377e575060408051601f3d908101601f1916820190925261377b9181019061416f565b60015b61378a5761316f61418c565b7fffffffff0000000000000000000000000000000000000000000000000000000081167ff23a6e6100000000000000000000000000000000000000000000000000000000146130c25760405162461bcd60e51b815260206004820152602860248201527f455243313135353a204552433131353552656365697665722072656a6563746560448201527f6420746f6b656e730000000000000000000000000000000000000000000000006064820152608401610a3a565b60006020828403121561385357600080fd5b5035919050565b80356001600160a01b038116811461387157600080fd5b919050565b6000806040838503121561388957600080fd5b6138928361385a565b946020939093013593505050565b7fffffffff00000000000000000000000000000000000000000000000000000000811681146138ce57600080fd5b50565b6000602082840312156138e357600080fd5b81356138ee816138a0565b9392505050565b6000806040838503121561390857600080fd5b50508035926020909101359150565b6000815180845260005b8181101561393d57602081850181015186830182015201613921565b506000602082860101526020601f19601f83011685010191505092915050565b6020815260006108f76020830184613917565b634e487b7160e01b600052604160045260246000fd5b601f19601f830116810181811067ffffffffffffffff821117156139ac576139ac613970565b6040525050565b600082601f8301126139c457600080fd5b813567ffffffffffffffff8111156139de576139de613970565b6040516139f56020601f19601f8501160182613986565b818152846020838601011115613a0a57600080fd5b816020850160208301376000918101602001919091529392505050565b60008060408385031215613a3a57600080fd5b82359150602083013567ffffffffffffffff811115613a5857600080fd5b613a64858286016139b3565b9150509250929050565b60008060408385031215613a8157600080fd5b613a8a8361385a565b9150613a986020840161385a565b90509250929050565b600067ffffffffffffffff821115613abb57613abb613970565b5060051b60200190565b600082601f830112613ad657600080fd5b81356020613ae382613aa1565b604051613af08282613986565b83815260059390931b8501820192828101915086841115613b1057600080fd5b8286015b84811015613b2b5780358352918301918301613b14565b509695505050505050565b600080600080600060a08688031215613b4e57600080fd5b613b578661385a565b9450613b656020870161385a565b9350604086013567ffffffffffffffff80821115613b8257600080fd5b613b8e89838a01613ac5565b94506060880135915080821115613ba457600080fd5b613bb089838a01613ac5565b93506080880135915080821115613bc657600080fd5b50613bd3888289016139b3565b9150509295509295909350565b60008060408385031215613bf357600080fd5b823567ffffffffffffffff80821115613c0b57600080fd5b818501915085601f830112613c1f57600080fd5b81356020613c2c82613aa1565b604051613c398282613986565b83815260059390931b8501820192828101915089841115613c5957600080fd5b948201945b83861015613c7e57613c6f8661385a565b82529482019490820190613c5e565b96505086013592505080821115613c9457600080fd5b50613a6485828601613ac5565b600081518084526020808501945080840160005b83811015613cd157815187529582019590820190600101613cb5565b509495945050505050565b6020815260006108f76020830184613ca1565b60008060008060808587031215613d0557600080fd5b8435935060208501359250604085013567ffffffffffffffff811115613d2a57600080fd5b613d36878288016139b3565b949793965093946060013593505050565b600080600080600060a08688031215613d5f57600080fd5b505083359560208501359550604085013594606081013594506080013592509050565b60008060008060808587031215613d9857600080fd5b84359350613da86020860161385a565b93969395505050506040820135916060013590565b60008060408385031215613dd057600080fd5b613dd98361385a565b915060208301358015158114613dee57600080fd5b809150509250929050565b60008060008060008060c08789031215613e1257600080fd5b505084359660208601359650604086013595606081013595506080810135945060a0013592509050565b600060208284031215613e4e57600080fd5b6108f78261385a565b60008060008060808587031215613e6d57600080fd5b5050823594602084013594506040840135936060013592509050565b600080600080600060a08688031215613ea157600080fd5b613eaa8661385a565b9450613eb86020870161385a565b93506040860135925060608601359150608086013567ffffffffffffffff811115613ee257600080fd5b613bd3888289016139b3565b600181811c90821680613f0257607f821691505b602082108103613f2257634e487b7160e01b600052602260045260246000fd5b50919050565b634e487b7160e01b600052603260045260246000fd5b634e487b7160e01b600052601160045260246000fd5b60006000198203613f6757613f67613f3e565b5060010190565b80820281158282048414176108fa576108fa613f3e565b818103818111156108fa576108fa613f3e565b808201808211156108fa576108fa613f3e565b600082613fc857634e487b7160e01b600052601260045260246000fd5b500490565b601f821115610c2457600081815260208120601f850160051c81016020861015613ff45750805b601f850160051c820191505b818110156125b157828155600101614000565b815167ffffffffffffffff81111561402d5761402d613970565b6140418161403b8454613eee565b84613fcd565b602080601f831160018114614076576000841561405e5750858301515b600019600386901b1c1916600185901b1785556125b1565b600085815260208120601f198616915b828110156140a557888601518255948401946001909101908401614086565b50858210156140c35787850151600019600388901b60f8161c191681555b5050505050600190811b01905550565b82815260406020820152600061212b6040830184613917565b6040815260006140ff6040830185613ca1565b82810360208401526120c18185613ca1565b60006001600160a01b03808816835280871660208401525060a0604083015261413d60a0830186613ca1565b828103606084015261414f8186613ca1565b905082810360808401526141638185613917565b98975050505050505050565b60006020828403121561418157600080fd5b81516138ee816138a0565b600060033d11156141a55760046000803e5060005160e01c5b90565b600060443d10156141b65790565b6040517ffffffffffffffffffffffffffffffffffffffffffffffffffffffffffffffffc803d016004833e81513d67ffffffffffffffff816024840111818411171561420457505050505090565b828501915081518181111561421c5750505050505090565b843d87010160208285010111156142365750505050505090565b61424560208286010187613986565b509095945050505050565b60006001600160a01b03808816835280871660208401525084604083015283606083015260a0608083015261220f60a083018461391756fea264697066735822122009732c53d0db8e5d76df2904a0ce46c2fdda465c1c5a3716bc5840e3fc70b31764736f6c63430008130033",
  "devdoc": {
    "events": {
      "ApprovalForAll(address,address,bool)": {
        "details": "Emitted when `account` grants or revokes permission to `operator` to transfer their tokens, according to `approved`."
      },
      "Initialized(uint8)": {
        "details": "Triggered when the contract has been initialized or reinitialized."
      },
      "TransferBatch(address,address,address,uint256[],uint256[])": {
        "details": "Equivalent to multiple {TransferSingle} events, where `operator`, `from` and `to` are the same for all transfers."
      },
      "TransferSingle(address,address,address,uint256,uint256)": {
        "details": "Emitted when `value` tokens of token type `id` are transferred from `from` to `to` by `operator`."
      },
      "URI(string,uint256)": {
        "details": "Emitted when the URI for token type `id` changes to `value`, if it is a non-programmatic URI. If an {URI} event was emitted for `id`, the standard https://eips.ethereum.org/EIPS/eip-1155#metadata-extensions[guarantees] that `value` will equal the value returned by {IERC1155MetadataURI-uri}."
      }
    },
    "kind": "dev",
    "methods": {
      "balanceOfBatch(address[],uint256[])": {
        "details": "See {IERC1155-balanceOfBatch}. Requirements: - `accounts` and `ids` must have the same length."
      },
      "isApprovedForAll(address,address)": {
        "details": "See {IERC1155-isApprovedForAll}."
      },
      "safeBatchTransferFrom(address,address,uint256[],uint256[],bytes)": {
        "details": "See {IERC1155-safeBatchTransferFrom}."
      },
      "safeTransferFrom(address,address,uint256,uint256,bytes)": {
        "details": "See {IERC1155-safeTransferFrom}."
      },
      "setApprovalForAll(address,bool)": {
        "details": "See {IERC1155-setApprovalForAll}."
      },
      "supportsInterface(bytes4)": {
        "details": "See {IERC165-supportsInterface}."
      }
    },
    "version": 1
  },
  "userdoc": {
    "kind": "user",
    "methods": {},
    "version": 1
  },
  "storageLayout": {
    "storage": [
      {
        "astId": 6,
        "contract": "contracts/core/Moss.sol:Moss",
        "label": "_initialized",
        "offset": 0,
        "slot": "0",
        "type": "t_uint8"
      },
      {
        "astId": 9,
        "contract": "contracts/core/Moss.sol:Moss",
        "label": "_initializing",
        "offset": 1,
        "slot": "0",
        "type": "t_bool"
      },
      {
        "astId": 2139,
        "contract": "contracts/core/Moss.sol:Moss",
        "label": "__gap",
        "offset": 0,
        "slot": "1",
        "type": "t_array(t_uint256)50_storage"
      },
      {
        "astId": 2183,
        "contract": "contracts/core/Moss.sol:Moss",
        "label": "__gap",
        "offset": 0,
        "slot": "51",
        "type": "t_array(t_uint256)50_storage"
      },
      {
        "astId": 197,
        "contract": "contracts/core/Moss.sol:Moss",
        "label": "_balances",
        "offset": 0,
        "slot": "101",
        "type": "t_mapping(t_uint256,t_mapping(t_address,t_uint256))"
      },
      {
        "astId": 203,
        "contract": "contracts/core/Moss.sol:Moss",
        "label": "_operatorApprovals",
        "offset": 0,
        "slot": "102",
        "type": "t_mapping(t_address,t_mapping(t_address,t_bool))"
      },
      {
        "astId": 205,
        "contract": "contracts/core/Moss.sol:Moss",
        "label": "_uri",
        "offset": 0,
        "slot": "103",
        "type": "t_string_storage"
      },
      {
        "astId": 1412,
        "contract": "contracts/core/Moss.sol:Moss",
        "label": "__gap",
        "offset": 0,
        "slot": "104",
        "type": "t_array(t_uint256)47_storage"
      },
      {
        "astId": 1601,
        "contract": "contracts/core/Moss.sol:Moss",
        "label": "_totalSupply",
        "offset": 0,
        "slot": "151",
        "type": "t_mapping(t_uint256,t_uint256)"
      },
      {
        "astId": 1752,
        "contract": "contracts/core/Moss.sol:Moss",
        "label": "__gap",
        "offset": 0,
        "slot": "152",
        "type": "t_array(t_uint256)49_storage"
      },
      {
        "astId": 2216,
        "contract": "contracts/core/Moss.sol:Moss",
        "label": "defaultCreatorFeePCT",
        "offset": 0,
        "slot": "201",
        "type": "t_uint64"
      },
      {
        "astId": 2218,
        "contract": "contracts/core/Moss.sol:Moss",
        "label": "devFeePCT",
        "offset": 8,
        "slot": "201",
        "type": "t_uint64"
      },
      {
        "astId": 2220,
        "contract": "contracts/core/Moss.sol:Moss",
        "label": "dev",
        "offset": 0,
        "slot": "202",
        "type": "t_address"
      },
      {
        "astId": 2224,
        "contract": "contracts/core/Moss.sol:Moss",
        "label": "f",
        "offset": 0,
        "slot": "203",
        "type": "t_mapping(t_uint256,t_uint256)"
      },
      {
        "astId": 2228,
        "contract": "contracts/core/Moss.sol:Moss",
        "label": "fs",
        "offset": 0,
        "slot": "204",
        "type": "t_mapping(t_uint256,t_uint256)"
      },
      {
        "astId": 2232,
        "contract": "contracts/core/Moss.sol:Moss",
        "label": "fsIncr",
        "offset": 0,
        "slot": "205",
        "type": "t_mapping(t_uint256,t_uint256)"
      },
      {
        "astId": 2236,
        "contract": "contracts/core/Moss.sol:Moss",
        "label": "step",
        "offset": 0,
        "slot": "206",
        "type": "t_mapping(t_uint256,t_uint256)"
      },
      {
        "astId": 2240,
        "contract": "contracts/core/Moss.sol:Moss",
        "label": "fsStep",
        "offset": 0,
        "slot": "207",
        "type": "t_mapping(t_uint256,t_uint256)"
      },
      {
        "astId": 3730,
        "contract": "contracts/core/Moss.sol:Moss",
        "label": "isApprovedDelegate",
        "offset": 0,
        "slot": "208",
        "type": "t_mapping(t_address,t_mapping(t_address,t_bool))"
      },
      {
        "astId": 3506,
        "contract": "contracts/core/Moss.sol:Moss",
        "label": "tokenURIs",
        "offset": 0,
        "slot": "209",
        "type": "t_mapping(t_uint256,t_string_storage)"
      },
      {
        "astId": 3510,
        "contract": "contracts/core/Moss.sol:Moss",
        "label": "creators",
        "offset": 0,
        "slot": "210",
        "type": "t_mapping(t_uint256,t_address)"
      }
    ],
    "types": {
      "t_address": {
        "encoding": "inplace",
        "label": "address",
        "numberOfBytes": "20"
      },
      "t_array(t_uint256)47_storage": {
        "base": "t_uint256",
        "encoding": "inplace",
        "label": "uint256[47]",
        "numberOfBytes": "1504"
      },
      "t_array(t_uint256)49_storage": {
        "base": "t_uint256",
        "encoding": "inplace",
        "label": "uint256[49]",
        "numberOfBytes": "1568"
      },
      "t_array(t_uint256)50_storage": {
        "base": "t_uint256",
        "encoding": "inplace",
        "label": "uint256[50]",
        "numberOfBytes": "1600"
      },
      "t_bool": {
        "encoding": "inplace",
        "label": "bool",
        "numberOfBytes": "1"
      },
      "t_mapping(t_address,t_bool)": {
        "encoding": "mapping",
        "key": "t_address",
        "label": "mapping(address => bool)",
        "numberOfBytes": "32",
        "value": "t_bool"
      },
      "t_mapping(t_address,t_mapping(t_address,t_bool))": {
        "encoding": "mapping",
        "key": "t_address",
        "label": "mapping(address => mapping(address => bool))",
        "numberOfBytes": "32",
        "value": "t_mapping(t_address,t_bool)"
      },
      "t_mapping(t_address,t_uint256)": {
        "encoding": "mapping",
        "key": "t_address",
        "label": "mapping(address => uint256)",
        "numberOfBytes": "32",
        "value": "t_uint256"
      },
      "t_mapping(t_uint256,t_address)": {
        "encoding": "mapping",
        "key": "t_uint256",
        "label": "mapping(uint256 => address)",
        "numberOfBytes": "32",
        "value": "t_address"
      },
      "t_mapping(t_uint256,t_mapping(t_address,t_uint256))": {
        "encoding": "mapping",
        "key": "t_uint256",
        "label": "mapping(uint256 => mapping(address => uint256))",
        "numberOfBytes": "32",
        "value": "t_mapping(t_address,t_uint256)"
      },
      "t_mapping(t_uint256,t_string_storage)": {
        "encoding": "mapping",
        "key": "t_uint256",
        "label": "mapping(uint256 => string)",
        "numberOfBytes": "32",
        "value": "t_string_storage"
      },
      "t_mapping(t_uint256,t_uint256)": {
        "encoding": "mapping",
        "key": "t_uint256",
        "label": "mapping(uint256 => uint256)",
        "numberOfBytes": "32",
        "value": "t_uint256"
      },
      "t_string_storage": {
        "encoding": "bytes",
        "label": "string",
        "numberOfBytes": "32"
      },
      "t_uint256": {
        "encoding": "inplace",
        "label": "uint256",
        "numberOfBytes": "32"
      },
      "t_uint64": {
        "encoding": "inplace",
        "label": "uint64",
        "numberOfBytes": "8"
      },
      "t_uint8": {
        "encoding": "inplace",
        "label": "uint8",
        "numberOfBytes": "1"
      }
    }
  }
}