{
  "address": "0x1DeB74562F1Ced2D2Da3B1ba85ef6d1842aFDBca",
  "abi": [
    {
      "anonymous": false,
      "inputs": [
        {
          "indexed": true,
          "internalType": "address",
          "name": "account",
          "type": "address"
        },
        {
          "indexed": true,
          "internalType": "address",
          "name": "operator",
          "type": "address"
        },
        {
          "indexed": false,
          "internalType": "bool",
          "name": "approved",
          "type": "bool"
        }
      ],
      "name": "ApprovalForAll",
      "type": "event"
    },
    {
      "anonymous": false,
      "inputs": [
        {
          "indexed": false,
          "internalType": "address",
          "name": "from",
          "type": "address"
        },
        {
          "indexed": false,
          "internalType": "uint256",
          "name": "id",
          "type": "uint256"
        },
        {
          "indexed": false,
          "internalType": "address",
          "name": "to",
          "type": "address"
        },
        {
          "indexed": false,
          "internalType": "uint256",
          "name": "amount",
          "type": "uint256"
        },
        {
          "indexed": false,
          "internalType": "uint256",
          "name": "value",
          "type": "uint256"
        },
        {
          "indexed": false,
          "internalType": "uint256",
          "name": "creatorFee",
          "type": "uint256"
        },
        {
          "indexed": false,
          "internalType": "uint256",
          "name": "devFee",
          "type": "uint256"
        }
      ],
      "name": "Burnt",
      "type": "event"
    },
    {
      "anonymous": false,
      "inputs": [
        {
          "indexed": false,
          "internalType": "address",
          "name": "from",
          "type": "address"
        },
        {
          "indexed": false,
          "internalType": "uint256",
          "name": "id",
          "type": "uint256"
        },
        {
          "indexed": false,
          "internalType": "uint256",
          "name": "_f",
          "type": "uint256"
        },
        {
          "indexed": false,
          "internalType": "uint256",
          "name": "_fs",
          "type": "uint256"
        },
        {
          "indexed": false,
          "internalType": "uint256",
          "name": "_s",
          "type": "uint256"
        },
        {
          "indexed": false,
          "internalType": "uint256",
          "name": "_tar",
          "type": "uint256"
        },
        {
          "indexed": false,
          "internalType": "uint256",
          "name": "value",
          "type": "uint256"
        },
        {
          "indexed": false,
          "internalType": "uint256",
          "name": "devFee",
          "type": "uint256"
        }
      ],
      "name": "Created",
      "type": "event"
    },
    {
      "anonymous": false,
      "inputs": [
        {
          "indexed": false,
          "internalType": "uint256",
          "name": "id",
          "type": "uint256"
        },
        {
          "indexed": false,
          "internalType": "address",
          "name": "creator",
          "type": "address"
        }
      ],
      "name": "CreatorUpdated",
      "type": "event"
    },
    {
      "anonymous": false,
      "inputs": [
        {
          "indexed": false,
          "internalType": "uint8",
          "name": "version",
          "type": "uint8"
        }
      ],
      "name": "Initialized",
      "type": "event"
    },
    {
      "anonymous": false,
      "inputs": [
        {
          "indexed": false,
          "internalType": "address",
          "name": "from",
          "type": "address"
        },
        {
          "indexed": false,
          "internalType": "uint256",
          "name": "id",
          "type": "uint256"
        },
        {
          "indexed": false,
          "internalType": "address",
          "name": "to",
          "type": "address"
        },
        {
          "indexed": false,
          "internalType": "uint256",
          "name": "amount",
          "type": "uint256"
        },
        {
          "indexed": false,
          "internalType": "uint256",
          "name": "value",
          "type": "uint256"
        },
        {
          "indexed": false,
          "internalType": "uint256",
          "name": "creatorFee",
          "type": "uint256"
        },
        {
          "indexed": false,
          "internalType": "uint256",
          "name": "devFee",
          "type": "uint256"
        }
      ],
      "name": "Minted",
      "type": "event"
    },
    {
      "anonymous": false,
      "inputs": [
        {
          "indexed": false,
          "internalType": "uint256",
          "name": "id",
          "type": "uint256"
        },
        {
          "indexed": false,
          "internalType": "string",
          "name": "name",
          "type": "string"
        }
      ],
      "name": "StoneNameUpdated",
      "type": "event"
    },
    {
      "anonymous": false,
      "inputs": [
        {
          "indexed": true,
          "internalType": "address",
          "name": "operator",
          "type": "address"
        },
        {
          "indexed": true,
          "internalType": "address",
          "name": "from",
          "type": "address"
        },
        {
          "indexed": true,
          "internalType": "address",
          "name": "to",
          "type": "address"
        },
        {
          "indexed": false,
          "internalType": "uint256[]",
          "name": "ids",
          "type": "uint256[]"
        },
        {
          "indexed": false,
          "internalType": "uint256[]",
          "name": "values",
          "type": "uint256[]"
        }
      ],
      "name": "TransferBatch",
      "type": "event"
    },
    {
      "anonymous": false,
      "inputs": [
        {
          "indexed": true,
          "internalType": "address",
          "name": "operator",
          "type": "address"
        },
        {
          "indexed": true,
          "internalType": "address",
          "name": "from",
          "type": "address"
        },
        {
          "indexed": true,
          "internalType": "address",
          "name": "to",
          "type": "address"
        },
        {
          "indexed": false,
          "internalType": "uint256",
          "name": "id",
          "type": "uint256"
        },
        {
          "indexed": false,
          "internalType": "uint256",
          "name": "value",
          "type": "uint256"
        }
      ],
      "name": "TransferSingle",
      "type": "event"
    },
    {
      "anonymous": false,
      "inputs": [
        {
          "indexed": false,
          "internalType": "string",
          "name": "value",
          "type": "string"
        },
        {
          "indexed": true,
          "internalType": "uint256",
          "name": "id",
          "type": "uint256"
        }
      ],
      "name": "URI",
      "type": "event"
    },
    {
      "inputs": [],
      "name": "PRECISIONDECIMALS",
      "outputs": [
        {
          "internalType": "uint64",
          "name": "",
          "type": "uint64"
        }
      ],
      "stateMutability": "view",
      "type": "function"
    },
    {
      "inputs": [
        {
          "internalType": "uint256",
          "name": "_t",
          "type": "uint256"
        },
        {
          "internalType": "uint256",
          "name": "_fs",
          "type": "uint256"
        },
        {
          "internalType": "uint256",
          "name": "_fsStep",
          "type": "uint256"
        },
        {
          "internalType": "uint256",
          "name": "_step",
          "type": "uint256"
        },
        {
          "internalType": "uint256",
          "name": "amount",
          "type": "uint256"
        }
      ],
      "name": "adjustment",
      "outputs": [
        {
          "internalType": "uint256",
          "name": "_fsIncr",
          "type": "uint256"
        }
      ],
      "stateMutability": "pure",
      "type": "function"
    },
    {
      "inputs": [
        {
          "internalType": "address",
          "name": "account",
          "type": "address"
        },
        {
          "internalType": "uint256",
          "name": "id",
          "type": "uint256"
        }
      ],
      "name": "balanceOf",
      "outputs": [
        {
          "internalType": "uint256",
          "name": "",
          "type": "uint256"
        }
      ],
      "stateMutability": "view",
      "type": "function"
    },
    {
      "inputs": [
        {
          "internalType": "address[]",
          "name": "accounts",
          "type": "address[]"
        },
        {
          "internalType": "uint256[]",
          "name": "ids",
          "type": "uint256[]"
        }
      ],
      "name": "balanceOfBatch",
      "outputs": [
        {
          "internalType": "uint256[]",
          "name": "",
          "type": "uint256[]"
        }
      ],
      "stateMutability": "view",
      "type": "function"
    },
    {
      "inputs": [
        {
          "internalType": "uint256",
          "name": "id",
          "type": "uint256"
        },
        {
          "internalType": "address",
          "name": "to",
          "type": "address"
        },
        {
          "internalType": "uint256",
          "name": "amount",
          "type": "uint256"
        },
        {
          "internalType": "uint256",
          "name": "minReceived",
          "type": "uint256"
        }
      ],
      "name": "burn",
      "outputs": [],
      "stateMutability": "nonpayable",
      "type": "function"
    },
    {
      "inputs": [
        {
          "internalType": "uint256",
          "name": "_f",
          "type": "uint256"
        },
        {
          "internalType": "uint256",
          "name": "_fs",
          "type": "uint256"
        },
        {
          "internalType": "uint256",
          "name": "_s",
          "type": "uint256"
        },
        {
          "internalType": "uint256",
          "name": "_fsStep",
          "type": "uint256"
        },
        {
          "internalType": "uint256",
          "name": "timeoutAt",
          "type": "uint256"
        }
      ],
      "name": "create",
      "outputs": [],
      "stateMutability": "payable",
      "type": "function"
    },
    {
      "inputs": [
        {
          "internalType": "uint256",
          "name": "id",
          "type": "uint256"
        }
      ],
      "name": "creatorOf",
      "outputs": [
        {
          "internalType": "address",
          "name": "",
          "type": "address"
        }
      ],
      "stateMutability": "view",
      "type": "function"
    },
    {
      "inputs": [],
      "name": "defaultCreatorFeePCT",
      "outputs": [
        {
          "internalType": "uint64",
          "name": "",
          "type": "uint64"
        }
      ],
      "stateMutability": "view",
      "type": "function"
    },
    {
      "inputs": [],
      "name": "dev",
      "outputs": [
        {
          "internalType": "address",
          "name": "",
          "type": "address"
        }
      ],
      "stateMutability": "view",
      "type": "function"
    },
    {
      "inputs": [],
      "name": "devFeePCT",
      "outputs": [
        {
          "internalType": "uint64",
          "name": "",
          "type": "uint64"
        }
      ],
      "stateMutability": "view",
      "type": "function"
    },
    {
      "inputs": [
        {
          "internalType": "uint256",
          "name": "_t",
          "type": "uint256"
        },
        {
          "internalType": "uint256",
          "name": "_fs",
          "type": "uint256"
        },
        {
          "internalType": "uint256",
          "name": "_fsIncr",
          "type": "uint256"
        },
        {
          "internalType": "uint256",
          "name": "_f",
          "type": "uint256"
        },
        {
          "internalType": "uint256",
          "name": "_w",
          "type": "uint256"
        },
        {
          "internalType": "uint256",
          "name": "amount",
          "type": "uint256"
        }
      ],
      "name": "estimateAdjust",
      "outputs": [
        {
          "internalType": "uint256",
          "name": "_floor",
          "type": "uint256"
        }
      ],
      "stateMutability": "pure",
      "type": "function"
    },
    {
      "inputs": [
        {
          "internalType": "uint256",
          "name": "_k",
          "type": "uint256"
        },
        {
          "internalType": "uint256",
          "name": "_t",
          "type": "uint256"
        },
        {
          "internalType": "uint256",
          "name": "_fs",
          "type": "uint256"
        },
        {
          "internalType": "uint256",
          "name": "_f",
          "type": "uint256"
        },
        {
          "internalType": "uint256",
          "name": "amount",
          "type": "uint256"
        }
      ],
      "name": "estimateBurn",
      "outputs": [
        {
          "internalType": "uint256",
          "name": "total",
          "type": "uint256"
        },
        {
          "internalType": "uint256",
          "name": "value",
          "type": "uint256"
        },
        {
          "internalType": "uint256",
          "name": "creatorFee",
          "type": "uint256"
        },
        {
          "internalType": "uint256",
          "name": "devFee",
          "type": "uint256"
        }
      ],
      "stateMutability": "view",
      "type": "function"
    },
    {
      "inputs": [
        {
          "internalType": "uint256",
          "name": "id",
          "type": "uint256"
        },
        {
          "internalType": "uint256",
          "name": "amount",
          "type": "uint256"
        }
      ],
      "name": "estimateBurn",
      "outputs": [
        {
          "internalType": "uint256",
          "name": "total",
          "type": "uint256"
        },
        {
          "internalType": "uint256",
          "name": "value",
          "type": "uint256"
        },
        {
          "internalType": "uint256",
          "name": "creatorFee",
          "type": "uint256"
        },
        {
          "internalType": "uint256",
          "name": "devFee",
          "type": "uint256"
        }
      ],
      "stateMutability": "view",
      "type": "function"
    },
    {
      "inputs": [
        {
          "internalType": "uint256",
          "name": "id",
          "type": "uint256"
        },
        {
          "internalType": "uint256",
          "name": "amount",
          "type": "uint256"
        }
      ],
      "name": "estimateMint",
      "outputs": [
        {
          "internalType": "uint256",
          "name": "total",
          "type": "uint256"
        },
        {
          "internalType": "uint256",
          "name": "value",
          "type": "uint256"
        },
        {
          "internalType": "uint256",
          "name": "creatorFee",
          "type": "uint256"
        },
        {
          "internalType": "uint256",
          "name": "devFee",
          "type": "uint256"
        }
      ],
      "stateMutability": "view",
      "type": "function"
    },
    {
      "inputs": [
        {
          "internalType": "uint256",
          "name": "_k",
          "type": "uint256"
        },
        {
          "internalType": "uint256",
          "name": "_t",
          "type": "uint256"
        },
        {
          "internalType": "uint256",
          "name": "_fs",
          "type": "uint256"
        },
        {
          "internalType": "uint256",
          "name": "_f",
          "type": "uint256"
        },
        {
          "internalType": "uint256",
          "name": "amount",
          "type": "uint256"
        }
      ],
      "name": "estimateMint",
      "outputs": [
        {
          "internalType": "uint256",
          "name": "total",
          "type": "uint256"
        },
        {
          "internalType": "uint256",
          "name": "value",
          "type": "uint256"
        },
        {
          "internalType": "uint256",
          "name": "creatorFee",
          "type": "uint256"
        },
        {
          "internalType": "uint256",
          "name": "devFee",
          "type": "uint256"
        }
      ],
      "stateMutability": "view",
      "type": "function"
    },
    {
      "inputs": [
        {
          "internalType": "uint256",
          "name": "id",
          "type": "uint256"
        }
      ],
      "name": "exists",
      "outputs": [
        {
          "internalType": "bool",
          "name": "",
          "type": "bool"
        }
      ],
      "stateMutability": "view",
      "type": "function"
    },
    {
      "inputs": [
        {
          "internalType": "uint256",
          "name": "id",
          "type": "uint256"
        }
      ],
      "name": "floor",
      "outputs": [
        {
          "internalType": "uint256",
          "name": "",
          "type": "uint256"
        }
      ],
      "stateMutability": "view",
      "type": "function"
    },
    {
      "inputs": [
        {
          "internalType": "uint256",
          "name": "id",
          "type": "uint256"
        }
      ],
      "name": "floorSupply",
      "outputs": [
        {
          "internalType": "uint256",
          "name": "",
          "type": "uint256"
        }
      ],
      "stateMutability": "view",
      "type": "function"
    },
    {
      "inputs": [
        {
          "internalType": "uint256",
          "name": "",
          "type": "uint256"
        }
      ],
      "name": "fsIncr",
      "outputs": [
        {
          "internalType": "uint256",
          "name": "",
          "type": "uint256"
        }
      ],
      "stateMutability": "view",
      "type": "function"
    },
    {
      "inputs": [
        {
          "internalType": "uint256",
          "name": "id",
          "type": "uint256"
        }
      ],
      "name": "fsStepOf",
      "outputs": [
        {
          "internalType": "uint256",
          "name": "",
          "type": "uint256"
        }
      ],
      "stateMutability": "view",
      "type": "function"
    },
    {
      "inputs": [
        {
          "internalType": "uint256",
          "name": "",
          "type": "uint256"
        }
      ],
      "name": "ifs",
      "outputs": [
        {
          "internalType": "uint256",
          "name": "",
          "type": "uint256"
        }
      ],
      "stateMutability": "view",
      "type": "function"
    },
    {
      "inputs": [
        {
          "internalType": "address",
          "name": "_dev",
          "type": "address"
        }
      ],
      "name": "initialize",
      "outputs": [],
      "stateMutability": "nonpayable",
      "type": "function"
    },
    {
      "inputs": [
        {
          "internalType": "address",
          "name": "",
          "type": "address"
        },
        {
          "internalType": "address",
          "name": "",
          "type": "address"
        }
      ],
      "name": "isApprovedDelegate",
      "outputs": [
        {
          "internalType": "bool",
          "name": "",
          "type": "bool"
        }
      ],
      "stateMutability": "view",
      "type": "function"
    },
    {
      "inputs": [
        {
          "internalType": "address",
          "name": "account",
          "type": "address"
        },
        {
          "internalType": "address",
          "name": "operator",
          "type": "address"
        }
      ],
      "name": "isApprovedForAll",
      "outputs": [
        {
          "internalType": "bool",
          "name": "",
          "type": "bool"
        }
      ],
      "stateMutability": "view",
      "type": "function"
    },
    {
      "inputs": [],
      "name": "k",
      "outputs": [
        {
          "internalType": "uint64",
          "name": "",
          "type": "uint64"
        }
      ],
      "stateMutability": "view",
      "type": "function"
    },
    {
      "inputs": [],
      "name": "minFloor",
      "outputs": [
        {
          "internalType": "uint64",
          "name": "",
          "type": "uint64"
        }
      ],
      "stateMutability": "view",
      "type": "function"
    },
    {
      "inputs": [
        {
          "internalType": "uint256",
          "name": "id",
          "type": "uint256"
        },
        {
          "internalType": "address",
          "name": "to",
          "type": "address"
        },
        {
          "internalType": "uint256",
          "name": "amount",
          "type": "uint256"
        }
      ],
      "name": "mint",
      "outputs": [],
      "stateMutability": "payable",
      "type": "function"
    },
    {
      "inputs": [
        {
          "internalType": "uint256",
          "name": "id",
          "type": "uint256"
        }
      ],
      "name": "nextFloor",
      "outputs": [
        {
          "internalType": "uint256",
          "name": "",
          "type": "uint256"
        }
      ],
      "stateMutability": "view",
      "type": "function"
    },
    {
      "inputs": [
        {
          "internalType": "address",
          "name": "from",
          "type": "address"
        },
        {
          "internalType": "address",
          "name": "to",
          "type": "address"
        },
        {
          "internalType": "uint256[]",
          "name": "ids",
          "type": "uint256[]"
        },
        {
          "internalType": "uint256[]",
          "name": "amounts",
          "type": "uint256[]"
        },
        {
          "internalType": "bytes",
          "name": "data",
          "type": "bytes"
        }
      ],
      "name": "safeBatchTransferFrom",
      "outputs": [],
      "stateMutability": "nonpayable",
      "type": "function"
    },
    {
      "inputs": [
        {
          "internalType": "address",
          "name": "from",
          "type": "address"
        },
        {
          "internalType": "address",
          "name": "to",
          "type": "address"
        },
        {
          "internalType": "uint256",
          "name": "id",
          "type": "uint256"
        },
        {
          "internalType": "uint256",
          "name": "amount",
          "type": "uint256"
        },
        {
          "internalType": "bytes",
          "name": "data",
          "type": "bytes"
        }
      ],
      "name": "safeTransferFrom",
      "outputs": [],
      "stateMutability": "nonpayable",
      "type": "function"
    },
    {
      "inputs": [
        {
          "internalType": "address",
          "name": "operator",
          "type": "address"
        },
        {
          "internalType": "bool",
          "name": "approved",
          "type": "bool"
        }
      ],
      "name": "setApprovalForAll",
      "outputs": [],
      "stateMutability": "nonpayable",
      "type": "function"
    },
    {
      "inputs": [
        {
          "internalType": "address",
          "name": "_delegate",
          "type": "address"
        },
        {
          "internalType": "bool",
          "name": "_isApproved",
          "type": "bool"
        }
      ],
      "name": "setDelegateApproval",
      "outputs": [],
      "stateMutability": "nonpayable",
      "type": "function"
    },
    {
      "inputs": [
        {
          "internalType": "uint256",
          "name": "id",
          "type": "uint256"
        }
      ],
      "name": "stepment",
      "outputs": [
        {
          "internalType": "uint256",
          "name": "",
          "type": "uint256"
        }
      ],
      "stateMutability": "view",
      "type": "function"
    },
    {
      "inputs": [
        {
          "internalType": "uint256",
          "name": "id",
          "type": "uint256"
        }
      ],
      "name": "stoneNameOf",
      "outputs": [
        {
          "internalType": "string",
          "name": "",
          "type": "string"
        }
      ],
      "stateMutability": "view",
      "type": "function"
    },
    {
      "inputs": [
        {
          "internalType": "bytes4",
          "name": "interfaceId",
          "type": "bytes4"
        }
      ],
      "name": "supportsInterface",
      "outputs": [
        {
          "internalType": "bool",
          "name": "",
          "type": "bool"
        }
      ],
      "stateMutability": "view",
      "type": "function"
    },
    {
      "inputs": [
        {
          "internalType": "uint256",
          "name": "id",
          "type": "uint256"
        }
      ],
      "name": "targetSupply",
      "outputs": [
        {
          "internalType": "uint256",
          "name": "",
          "type": "uint256"
        }
      ],
      "stateMutability": "view",
      "type": "function"
    },
    {
      "inputs": [
        {
          "internalType": "uint256",
          "name": "id",
          "type": "uint256"
        }
      ],
      "name": "totalSupply",
      "outputs": [
        {
          "internalType": "uint256",
          "name": "",
          "type": "uint256"
        }
      ],
      "stateMutability": "view",
      "type": "function"
    },
    {
      "inputs": [
        {
          "internalType": "uint256",
          "name": "id",
          "type": "uint256"
        },
        {
          "internalType": "string",
          "name": "stoneName",
          "type": "string"
        }
      ],
      "name": "updateStoneName",
      "outputs": [],
      "stateMutability": "nonpayable",
      "type": "function"
    },
    {
      "inputs": [
        {
          "internalType": "uint256",
          "name": "id",
          "type": "uint256"
        }
      ],
      "name": "uri",
      "outputs": [
        {
          "internalType": "string",
          "name": "",
          "type": "string"
        }
      ],
      "stateMutability": "view",
      "type": "function"
    },
    {
      "inputs": [
        {
          "internalType": "uint256",
          "name": "_k",
          "type": "uint256"
        },
        {
          "internalType": "uint256",
          "name": "_t",
          "type": "uint256"
        },
        {
          "internalType": "uint256",
          "name": "_fs",
          "type": "uint256"
        },
        {
          "internalType": "uint256",
          "name": "_f",
          "type": "uint256"
        }
      ],
      "name": "worth",
      "outputs": [
        {
          "internalType": "uint256",
          "name": "",
          "type": "uint256"
        }
      ],
      "stateMutability": "pure",
      "type": "function"
    },
    {
      "inputs": [
        {
          "internalType": "uint256",
          "name": "id",
          "type": "uint256"
        }
      ],
      "name": "worthOf",
      "outputs": [
        {
          "internalType": "uint256",
          "name": "",
          "type": "uint256"
        }
      ],
      "stateMutability": "view",
      "type": "function"
    },
    {
      "stateMutability": "payable",
      "type": "receive"
    }
  ],
  "transactionHash": "0x1a99c40224b2e846dbf015ea586f75a89c7f90865876b9fe8297e2710e4bee3c",
  "args": [],
  "numDeployments": 1,
  "solcInputHash": "206549d4f3c4dc691248ae4f3f814d84",
  "bytecode": "0x608060405234801561001057600080fd5b50614595806100206000396000f3fe6080604052600436106102c85760003560e01c80637ab58add11610179578063c0facbea116100d6578063cdb9c4eb1161008a578063f213edda11610064578063f213edda146108db578063f242432a146108fb578063f740fd341461091b57600080fd5b8063cdb9c4eb14610851578063e2e1b89014610872578063e985e9c51461089257600080fd5b8063c4d66de8116100bb578063c4d66de8146107f1578063c5464eb414610811578063c79ab6a21461083157600080fd5b8063c0facbea1461077e578063c3c854b61461079e57600080fd5b8063936906f11161012d578063b4f40c6111610112578063b4f40c6114610730578063bb4fa5dd1461074b578063bd85b0391461075e57600080fd5b8063936906f1146106f0578063a22cb4651461071057600080fd5b8063836a10401161015e578063836a10401461068f5780638d6a8494146106a257806391cca3db146106d057600080fd5b80637ab58add14610641578063810c37381461066f57600080fd5b806343a54a0c11610227578063504f5e56116101db57806361c44d60116101c057806361c44d60146105c157806371fc76f51461060157806375e583e61461062157600080fd5b8063504f5e5614610545578063589a17431461057357600080fd5b80634f558e791161020c5780634f558e79146104ec578063503e0a981461050c578063504d95781461052557600080fd5b806343a54a0c146104a35780634e1273f4146104bf57600080fd5b8063129678941161027e57806327fc36371161026357806327fc36371461041b57806329bff6901461043d5780632eb2c2d61461048357600080fd5b806312967894146103c05780631930e825146103e057600080fd5b806301ffc9a7116102af57806301ffc9a71461033557806309501e66146103655780630e89341c1461039357600080fd5b8062d92e39146102d4578062fdd58e1461031557600080fd5b366102cf57005b600080fd5b3480156102e057600080fd5b506103026102ef366004613996565b6000908152610104602052604090205490565b6040519081526020015b60405180910390f35b34801561032157600080fd5b506103026103303660046139cb565b61093b565b34801561034157600080fd5b50610355610350366004613a26565b6109e9565b604051901515815260200161030c565b34801561037157600080fd5b50610302610380366004613996565b6000908152610105602052604090205490565b34801561039f57600080fd5b506103b36103ae366004613996565b610acc565b60405161030c9190613a93565b3480156103cc57600080fd5b506103026103db366004613996565b610cda565b3480156103ec57600080fd5b506103556103fb366004613aa6565b60c960209081526000928352604080842090915290825290205460ff1681565b34801561042757600080fd5b5061043b610436366004613ad9565b610d84565b005b34801561044957600080fd5b5060fe5461046a9068010000000000000000900467ffffffffffffffff1681565b60405167ffffffffffffffff909116815260200161030c565b34801561048f57600080fd5b5061043b61049e366004613c7a565b611151565b3480156104af57600080fd5b5061046a670de0b6b3a764000081565b3480156104cb57600080fd5b506104df6104da366004613d24565b6111f3565b60405161030c9190613e2a565b3480156104f857600080fd5b50610355610507366004613996565b611331565b34801561051857600080fd5b5061046a64e8d4a5100081565b34801561053157600080fd5b5061043b610540366004613e3d565b611347565b34801561055157600080fd5b50610302610560366004613996565b6000908152610101602052604090205490565b34801561057f57600080fd5b506105a961058e366004613996565b600090815260ca60205260409020546001600160a01b031690565b6040516001600160a01b03909116815260200161030c565b3480156105cd57600080fd5b506105e16105dc366004613e8e565b6113e8565b60408051948552602085019390935291830152606082015260800161030c565b34801561060d57600080fd5b506105e161061c366004613ec9565b61160d565b34801561062d57600080fd5b506105e161063c366004613ec9565b611729565b34801561064d57600080fd5b5061030261065c366004613996565b6101036020526000908152604090205481565b34801561067b57600080fd5b5061030261068a366004613996565b6117e4565b61043b61069d366004613eeb565b61180a565b3480156106ae57600080fd5b506103026106bd366004613996565b6101026020526000908152604090205481565b3480156106dc57600080fd5b5060ff546105a9906001600160a01b031681565b3480156106fc57600080fd5b5061030261070b366004613996565b611bb5565b34801561071c57600080fd5b5061043b61072b366004613f20565b611c17565b34801561073c57600080fd5b5061046a66071afd498d000081565b61043b610759366004613e8e565b611c26565b34801561076a57600080fd5b50610302610779366004613996565b611c93565b34801561078a57600080fd5b50610302610799366004613f5c565b611c9e565b3480156107aa57600080fd5b5061043b6107b9366004613f20565b33600090815260c9602090815260408083206001600160a01b0395909516835293905291909120805460ff1916911515919091179055565b3480156107fd57600080fd5b5061043b61080c366004613f9f565b611e17565b34801561081d57600080fd5b5061030261082c366004613996565b611f9c565b34801561083d57600080fd5b506105e161084c366004613e8e565b611fe4565b34801561085d57600080fd5b5060fe5461046a9067ffffffffffffffff1681565b34801561087e57600080fd5b506103b361088d366004613996565b612169565b34801561089e57600080fd5b506103556108ad366004613aa6565b6001600160a01b03918216600090815260666020908152604080832093909416825291909152205460ff1690565b3480156108e757600080fd5b506103026108f6366004613fba565b61220b565b34801561090757600080fd5b5061043b610916366004613fec565b612274565b34801561092757600080fd5b50610302610936366004613e8e565b61230f565b60006001600160a01b0383166109be5760405162461bcd60e51b815260206004820152602a60248201527f455243313135353a2061646472657373207a65726f206973206e6f742061207660448201527f616c6964206f776e65720000000000000000000000000000000000000000000060648201526084015b60405180910390fd5b5060008181526065602090815260408083206001600160a01b03861684529091529020545b92915050565b60007fffffffff0000000000000000000000000000000000000000000000000000000082167fd9b67a26000000000000000000000000000000000000000000000000000000001480610a7c57507fffffffff0000000000000000000000000000000000000000000000000000000082167f0e89341c00000000000000000000000000000000000000000000000000000000145b806109e357507f01ffc9a7000000000000000000000000000000000000000000000000000000007fffffffff000000000000000000000000000000000000000000000000000000008316146109e3565b6060610b376040518061014001604052806000815260200160006001600160a01b03168152602001600067ffffffffffffffff168152602001600081526020016000815260200160008152602001600081526020016000815260200160008152602001600081525090565b82815266071afd498d00006040820152610b6683600090815260ca60205260409020546001600160a01b031690565b6001600160a01b03166020820152610b8b836000908152610101602052604090205490565b6060820152610b99836117e4565b6080820152610ba783611c93565b60a0820152610bb583611bb5565b60c082015260a081015160808201516060830151610bdd9266071afd498d000092909161220b565b61012082015260a081015160808201516060830151610c089266071afd498d00009290916001611fe4565b505060e08301525060a081015160808201516060830151610c359266071afd498d000092909160016113e8565b5050610100830152506040517f2a5a1a1400000000000000000000000000000000000000000000000000000000815273Ce4FB7ed615A0ae77Ea9fFE6ef6F4CC4B51EF9CD90632a5a1a1490610c8e908490600401614051565b600060405180830381865af4158015610cab573d6000803e3d6000fd5b505050506040513d6000823e601f3d908101601f19168201604052610cd391908101906140e2565b9392505050565b600066071afd498d000081610cee84611bb5565b90506000610cfb856117e4565b60008681526101016020526040812054919250610d1a8585858561220b565b60008881526101026020908152604080832054610105835281842054610104909352908320549394509192610d5392889290918561230f565b9050610d788561010260008b8152602001908152602001600020548386866000611c9e565b98975050505050505050565b610d8c61235b565b610d9584611331565b610de15760405162461bcd60e51b815260206004820152601a60248201527f4d6f73734875623a206e6f6e6578736974656e7420746f6b656e00000000000060448201526064016109b5565b60008211610e575760405162461bcd60e51b815260206004820152602660248201527f4d6f73734875623a20616d6f756e74206d75737420626520677265617465722060448201527f7468616e2030000000000000000000000000000000000000000000000000000060648201526084016109b5565b6000610e6285611c93565b905082811015610eb45760405162461bcd60e51b815260206004820152601d60248201527f48696b653a20746f6f206d75636820616d6f756e7420746f206275726e00000060448201526064016109b5565b600060405180610100016040528087815260200166071afd498d000067ffffffffffffffff168152602001838152602001610eee886117e4565b8152602001610f0a886000908152610101602052604090205490565b8152602001610f26886000908152610104602052604090205490565b8152602001858152602001866001600160a01b03168152509050600080600080610f6785602001518660400151876060015188608001518960c001516113e8565b93509350935093508684101561100b5760405162461bcd60e51b815260206004820152604960248201527f4d6f73734875623a2072656365697665642076616c7565206d7573742062652060448201527f67726561746572207468616e206f7220657175616c20746f206d696e696d756d60648201527f2072656365697665640000000000000000000000000000000000000000000000608482015260a4016109b5565b61101e3386600001518760c001516123b4565b61105e89856040518060400160405280601e81526020017f4d6f73734875623a207472616e736665722076616c7565206661696c65640000815250612417565b60ff546040805160608101909152602380825261108e926001600160a01b031691849161453d6020830139612417565b8451600090815260ca60205260409020546110cc906001600160a01b03165b836040518060600160405280602781526020016144f360279139612417565b845160e08087015160c0808901516040805133815260208101969096526001600160a01b039093168584015260608501526080840187905260a084018690528301849052517f63b3cda962e4a1210ab73053c3af0163312c753575551b8c9d04906ec6e0ff679281900390910190a150505050505061114b600160cc55565b50505050565b6001600160a01b03851633148061116d575061116d85336108ad565b6111df5760405162461bcd60e51b815260206004820152602e60248201527f455243313135353a2063616c6c6572206973206e6f7420746f6b656e206f776e60448201527f6572206f7220617070726f76656400000000000000000000000000000000000060648201526084016109b5565b6111ec858585858561248d565b5050505050565b6060815183511461126c5760405162461bcd60e51b815260206004820152602960248201527f455243313135353a206163636f756e747320616e6420696473206c656e67746860448201527f206d69736d61746368000000000000000000000000000000000000000000000060648201526084016109b5565b6000835167ffffffffffffffff81111561128857611288613b14565b6040519080825280602002602001820160405280156112b1578160200160208202803683370190505b50905060005b8451811015611329576112fc8582815181106112d5576112d5614164565b60200260200101518583815181106112ef576112ef614164565b602002602001015161093b565b82828151811061130e5761130e614164565b602090810291909101015261132281614190565b90506112b7565b509392505050565b60008181526097602052604081205415156109e3565b600082815260ca602052604090205482906001600160a01b03163381148061139257506001600160a01b038116600090815260c96020908152604080832033845290915290205460ff165b6113de5760405162461bcd60e51b815260206004820152601b60248201527f4d6f73733a2044656c6567617465206e6f7420617070726f766564000000000060448201526064016109b5565b61114b848461273c565b6000806000808488101561148a5760405162461bcd60e51b815260206004820152604260248201527f4d6f73734875623a206275726e696e6720616d6f756e74206d7573742062652060448201527f6c657373207468616e206f7220657175616c20746f20746f74616c207375707060648201527f6c79000000000000000000000000000000000000000000000000000000000000608482015260a4016109b5565b8688116114a25761149b85876141aa565b9250611583565b866114ad868a6141c1565b11156115125760026114bf88826141aa565b866114cb8b60026141aa565b6114d591906141c1565b6114df91906141c1565b6114e9908b6141aa565b6114f48860026141aa565b6114fe91906141d4565b61150890876141aa565b61149b91906141e7565b600061151e888a6141c1565b9050600061152c82886141c1565b905060026115418366071afd498d00006141aa565b61154c8a60026141aa565b61155691906141d4565b61156090846141aa565b61156a91906141e7565b611574828a6141aa565b61157e91906141d4565b945050505b60fe54670de0b6b3a7640000906115a49067ffffffffffffffff16856141aa565b6115ae91906141e7565b60fe54909250670de0b6b3a7640000906115de9068010000000000000000900467ffffffffffffffff16856141aa565b6115e891906141e7565b9050806115f583856141c1565b6115ff91906141c1565b935095509550955095915050565b60008080808061163287600090815260ca60205260409020546001600160a01b031690565b6001600160a01b0316036116885760405162461bcd60e51b815260206004820152601d60248201527f4d6f73734875623a20746f6b656e206973206e6f74206372656174656400000060448201526064016109b5565b66071afd498d0000600061169b88611c93565b905060006116a8896117e4565b60008a81526101016020526040902054909150806117085760405162461bcd60e51b815260206004820152601960248201527f4d6f73734875623a207a65726f20666c6f6f722070726963650000000000000060448201526064016109b5565b611715848484848d611fe4565b929d919c509a509098509650505050505050565b60008080808061174e87600090815260ca60205260409020546001600160a01b031690565b6001600160a01b0316036117a45760405162461bcd60e51b815260206004820152601d60248201527f4d6f73734875623a20746f6b656e206973206e6f74206372656174656400000060448201526064016109b5565b66071afd498d000060006117b788611c93565b905060006117c4896117e4565b60008a81526101016020526040902054909150611715848484848d6113e8565b600081815261010360209081526040808320546101029092528220546109e391906141d4565b61181261235b565b600081116118885760405162461bcd60e51b815260206004820152602660248201527f4d6f73734875623a20616d6f756e74206d75737420626520677265617465722060448201527f7468616e2030000000000000000000000000000000000000000000000000000060648201526084016109b5565b604080516101008101825284815266071afd498d0000602082015260009181016118b186611c93565b81526020016118bf866117e4565b81526020016118db866000908152610101602052604090205490565b81526020016118f7866000908152610104602052604090205490565b8152602001838152602001846001600160a01b0316815250905060008060008061193885602001518660400151876060015188608001518960c00151611fe4565b9350935093509350833410156119b65760405162461bcd60e51b815260206004820152602360248201527f4d6f73734875623a20696e73756666696369656e742066756e647320746f206d60448201527f696e74000000000000000000000000000000000000000000000000000000000060648201526084016109b5565b833411156119ea576119ea336119cc86346141c1565b60405180606001604052806023815260200161451a60239139612417565b60ff5460408051606081019091526023808252611a1a926001600160a01b031691849161453d6020830139612417565b8451600090815260ca6020526040902054611a3d906001600160a01b03166110ad565b60408086015186516000908152610102602090815283822054895183526101059091529281205460a089015160c08a01519294611a7e94939092919061230f565b90506000611a9e8760200151886040015189606001518a6080015161220b565b875160009081526101036020526040902054909150821115611b19576040808801518851600090815261010260205291909120546080890151611af39291908590611ae98a876141d4565b8c60c00151611c9e565b875160009081526101016020908152604080832093909355895182526101039052208290555b611b308760e0015188600001518960c00151612786565b865160e08089015160c0808b01516040805133815260208101969096526001600160a01b03909316858401526060850152608084018a905260a084018890528301869052517fdcaf588f09c2b7600db130d5b5166c2c3eecdb321c81cdaba0921b1205d9888f9281900390910190a150505050505050611bb0600160cc55565b505050565b600081815261010460209081526040808320546101058352818420546101039093529083205490918291611be991906141e7565b611bf391906141aa565b60008481526101026020526040902054611c0d91906141d4565b6109e391906141d4565b611c2233838361282e565b5050565b611c2e61235b565b804210611c7d5760405162461bcd60e51b815260206004820152601360248201527f4d6f73734875623a2074782074696d656f75740000000000000000000000000060448201526064016109b5565b611c8985858585612922565b6111ec600160cc55565b60006109e382612e91565b600080611cab86886141d4565b905080611cb8848a6141d4565b11611d2b5760405162461bcd60e51b815260206004820152602960248201527f4d6f73734875623a20666c6f6f7220737570706c792069732067746520746f7460448201527f616c20737570706c79000000000000000000000000000000000000000000000060648201526084016109b5565b600081611d38858b6141d4565b611d4291906141c1565b9050611d4e848a6141d4565b611d599060026141aa565b81611d6b8166071afd498d00006141aa565b611d7591906141aa565b611d808760026141aa565b611d8a91906141c1565b611d9491906141e7565b9250858311611e0b5760405162461bcd60e51b815260206004820152603960248201527f4d6f73734875623a2061646a757374656420666c6f6f7220707269636520697360448201527f206c7465206f726967696e616c20666c6f6f722070726963650000000000000060648201526084016109b5565b50509695505050505050565b600054610100900460ff1615808015611e375750600054600160ff909116105b80611e515750303b158015611e51575060005460ff166001145b611ec35760405162461bcd60e51b815260206004820152602e60248201527f496e697469616c697a61626c653a20636f6e747261637420697320616c72656160448201527f647920696e697469616c697a656400000000000000000000000000000000000060648201526084016109b5565b6000805460ff191660011790558015611ee6576000805461ff0019166101001790555b60ff80547fffffffffffffffffffffffff0000000000000000000000000000000000000000166001600160a01b03841617905560fe80547fffffffffffffffffffffffffffffffff00000000000000000000000000000000166e58d15e176280000058d15e176280001790558015611c22576000805461ff0019169055604051600181527f7f26b83ff96e1f2b6a682f133852f6798a09c465da95921460cefb3847402498906020015b60405180910390a15050565b600080611fa883611c93565b90506000611fb5846117e4565b60008581526101016020526040902054909150611fdb66071afd498d000084848461220b565b95945050505050565b600080808086611ff4868a6141d4565b1161200a5761200385876141aa565b92506120ed565b8688111561207157600261201e88826141aa565b8661202a8b60026141aa565b61203491906141d4565b61203e91906141c1565b612048908b6141aa565b6120538860026141aa565b61205d91906141d4565b61206790876141aa565b61200391906141e7565b600061207d89896141c1565b905060008861208c888c6141d4565b61209691906141c1565b905060026120ab8266071afd498d00006141aa565b6120b68a60026141aa565b6120c091906141d4565b6120ca90836141aa565b6120d491906141e7565b6120de838a6141aa565b6120e891906141d4565b945050505b60fe54670de0b6b3a76400009061210e9067ffffffffffffffff16856141aa565b61211891906141e7565b60fe54909250670de0b6b3a7640000906121489068010000000000000000900467ffffffffffffffff16856141aa565b61215291906141e7565b90508061215f83856141d4565b6115ff91906141d4565b600081815260cb6020526040902080546060919061218690614209565b80601f01602080910402602001604051908101604052809291908181526020018280546121b290614209565b80156121ff5780601f106121d4576101008083540402835291602001916121ff565b820191906000526020600020905b8154815290600101906020018083116121e257829003601f168201915b50505050509050919050565b60008284116122255761221e84836141aa565b905061226c565b600061223184866141c1565b905060028161224081896141aa565b61224a91906141aa565b61225491906141e7565b61225e86856141aa565b61226891906141d4565b9150505b949350505050565b6001600160a01b038516331480612290575061229085336108ad565b6123025760405162461bcd60e51b815260206004820152602e60248201527f455243313135353a2063616c6c6572206973206e6f7420746f6b656e206f776e60448201527f6572206f7220617070726f76656400000000000000000000000000000000000060648201526084016109b5565b6111ec8585858585612ea5565b60008461231c83886141d4565b1115611fdb5760008386612330858a6141d4565b61233a91906141c1565b61234491906141e7565b905061235085826141aa565b979650505050505050565b600260cc54036123ad5760405162461bcd60e51b815260206004820152601f60248201527f5265656e7472616e637947756172643a207265656e7472616e742063616c6c0060448201526064016109b5565b600260cc55565b6123bf83838361308d565b60006123ca83611c93565b1115611bb057817f6bb7ff708619ba0610cba295a58592e0451dee2622938c8755667688daf3529b60405161240a90602080825260009082015260400190565b60405180910390a2505050565b6000836001600160a01b03168360405160006040518083038185875af1925050503d8060008114612464576040519150601f19603f3d011682016040523d82523d6000602084013e612469565b606091505b505090508082906111ec5760405162461bcd60e51b81526004016109b59190613a93565b81518351146125045760405162461bcd60e51b815260206004820152602860248201527f455243313135353a2069647320616e6420616d6f756e7473206c656e6774682060448201527f6d69736d6174636800000000000000000000000000000000000000000000000060648201526084016109b5565b6001600160a01b0384166125805760405162461bcd60e51b815260206004820152602560248201527f455243313135353a207472616e7366657220746f20746865207a65726f20616460448201527f647265737300000000000000000000000000000000000000000000000000000060648201526084016109b5565b3361258f818787878787613259565b60005b84518110156126ce5760008582815181106125af576125af614164565b6020026020010151905060008583815181106125cd576125cd614164565b60209081029190910181015160008481526065835260408082206001600160a01b038e1683529093529190912054909150818110156126745760405162461bcd60e51b815260206004820152602a60248201527f455243313135353a20696e73756666696369656e742062616c616e636520666f60448201527f72207472616e736665720000000000000000000000000000000000000000000060648201526084016109b5565b60008381526065602090815260408083206001600160a01b038e8116855292528083208585039055908b168252812080548492906126b39084906141d4565b92505081905550505050806126c790614190565b9050612592565b50846001600160a01b0316866001600160a01b0316826001600160a01b03167f4a39dc06d4c0dbc64b70af90fd698a233a518aa5d07e595d983b8c0526c8f7fb878760405161271e929190614243565b60405180910390a46127348187878787876133e7565b505050505050565b600082815260cb6020526040902061275482826142ae565b507f9881d3fc43c7ddce9f432f1abbb2720b9aa58489a32de89d7269df1807ac4d968282604051611f9092919061436e565b600081116127d65760405162461bcd60e51b815260206004820152601160248201527f4d6f73733a207a65726f20616d6f756e7400000000000000000000000000000060448201526064016109b5565b6040805160008152602081019091526127f4908490849084906135eb565b817f6bb7ff708619ba0610cba295a58592e0451dee2622938c8755667688daf3529b60405161240a90602080825260009082015260400190565b816001600160a01b0316836001600160a01b0316036128b55760405162461bcd60e51b815260206004820152602960248201527f455243313135353a2073657474696e6720617070726f76616c2073746174757360448201527f20666f722073656c66000000000000000000000000000000000000000000000060648201526084016109b5565b6001600160a01b03838116600081815260666020908152604080832094871680845294825291829020805460ff191686151590811790915591519182527f17307eab39ab6107e8899845ad3d59bd9653f200f220920489ca2b5937696c31910160405180910390a3505050565b6101005464e8d4a510008510156129a15760405162461bcd60e51b815260206004820152603d60248201527f4d6f73734875623a20666c6f6f72206d7573742062652067726561746572207460448201527f68616e206f7220657175616c20746f206d696e696d756d20666c6f6f7200000060648201526084016109b5565b60008411612a175760405162461bcd60e51b815260206004820152602f60248201527f4d6f73734875623a20666c6f6f7220737570706c79206d75737420626520677260448201527f6561746572207468616e207a65726f000000000000000000000000000000000060648201526084016109b5565b60008311612a8c5760405162461bcd60e51b8152602060048201526024808201527f4d6f73734875623a2073746570206d7573742067726561746572207468616e2060448201527f7a65726f0000000000000000000000000000000000000000000000000000000060648201526084016109b5565b60008211612b025760405162461bcd60e51b815260206004820152602660248201527f4d6f73734875623a20667353746570206d75737420677265617465722074686160448201527f6e207a65726f000000000000000000000000000000000000000000000000000060648201526084016109b5565b612b0d600a846141e7565b821115612b825760405162461bcd60e51b815260206004820152602960248201527f4d6f73734875623a20667353746570206d757374206265206c6573732074686160448201527f6e20737465702f3130000000000000000000000000000000000000000000000060648201526084016109b5565b60fe54600090670de0b6b3a764000090612bb29068010000000000000000900467ffffffffffffffff16886141aa565b612bbc91906141e7565b9050612bc881876141d4565b341015612c3d5760405162461bcd60e51b815260206004820152602560248201527f4d6f73734875623a20696e73756666696369656e742066756e647320746f206360448201527f726561746500000000000000000000000000000000000000000000000000000060648201526084016109b5565b612c4781876141d4565b341115612d205760003382612c5c89346141c1565b612c6691906141c1565b604051600081818185875af1925050503d8060008114612ca2576040519150601f19603f3d011682016040523d82523d6000602084013e612ca7565b606091505b5050905080612d1e5760405162461bcd60e51b815260206004820152602360248201527f4d6f73734875623a207472616e736665722066756e6473206261636b2066616960448201527f6c6564000000000000000000000000000000000000000000000000000000000060648201526084016109b5565b505b60ff546040516000916001600160a01b03169083908381818185875af1925050503d8060008114612d6d576040519150601f19603f3d011682016040523d82523d6000602084013e612d72565b606091505b5050905080612dc35760405162461bcd60e51b815260206004820152601e60248201527f4d6f73734875623a206661696c656420746f207265636569766520666565000060448201526064016109b5565b612dcd8333613723565b612dd933846001612786565b6000838152610101602090815260408083208a9055610102825280832089905561010482528083208890556101059091528120859055610100805491612e1e83614190565b90915550506040805133815260208101859052908101889052606081018790526080810186905260a0810185905260c0810188905260e081018390527f460cf3f1c0e37440b24f7a57d7c52f04ca2f3df751bcb4097d4a9e383b1a2477906101000160405180910390a150505050505050565b6000818152609760205260408120546109e3565b6001600160a01b038416612f215760405162461bcd60e51b815260206004820152602560248201527f455243313135353a207472616e7366657220746f20746865207a65726f20616460448201527f647265737300000000000000000000000000000000000000000000000000000060648201526084016109b5565b336000612f2d856137f0565b90506000612f3a856137f0565b9050612f4a838989858589613259565b60008681526065602090815260408083206001600160a01b038c16845290915290205485811015612fe35760405162461bcd60e51b815260206004820152602a60248201527f455243313135353a20696e73756666696369656e742062616c616e636520666f60448201527f72207472616e736665720000000000000000000000000000000000000000000060648201526084016109b5565b60008781526065602090815260408083206001600160a01b038d8116855292528083208985039055908a168252812080548892906130229084906141d4565b909155505060408051888152602081018890526001600160a01b03808b16928c821692918816917fc3d58168c5ae7397731d063d5bbf3d657854427343f4c083240f7aacaa2d0f62910160405180910390a4613082848a8a8a8a8a61383b565b505050505050505050565b6001600160a01b0383166131095760405162461bcd60e51b815260206004820152602360248201527f455243313135353a206275726e2066726f6d20746865207a65726f206164647260448201527f657373000000000000000000000000000000000000000000000000000000000060648201526084016109b5565b336000613115846137f0565b90506000613122846137f0565b905061314283876000858560405180602001604052806000815250613259565b60008581526065602090815260408083206001600160a01b038a168452909152902054848110156131da5760405162461bcd60e51b8152602060048201526024808201527f455243313135353a206275726e20616d6f756e7420657863656564732062616c60448201527f616e63650000000000000000000000000000000000000000000000000000000060648201526084016109b5565b60008681526065602090815260408083206001600160a01b038b81168086529184528285208a8703905582518b81529384018a90529092908816917fc3d58168c5ae7397731d063d5bbf3d657854427343f4c083240f7aacaa2d0f62910160405180910390a46040805160208101909152600090525b50505050505050565b6001600160a01b0385166132e05760005b83518110156132de5782818151811061328557613285614164565b6020026020010151609760008684815181106132a3576132a3614164565b6020026020010151815260200190815260200160002060008282546132c891906141d4565b909155506132d7905081614190565b905061326a565b505b6001600160a01b0384166127345760005b835181101561325057600084828151811061330e5761330e614164565b60200260200101519050600084838151811061332c5761332c614164565b60200260200101519050600060976000848152602001908152602001600020549050818110156133c45760405162461bcd60e51b815260206004820152602860248201527f455243313135353a206275726e20616d6f756e74206578636565647320746f7460448201527f616c537570706c7900000000000000000000000000000000000000000000000060648201526084016109b5565b600092835260976020526040909220910390556133e081614190565b90506132f1565b6001600160a01b0384163b15612734576040517fbc197c810000000000000000000000000000000000000000000000000000000081526001600160a01b0385169063bc197c81906134449089908990889088908890600401614387565b6020604051808303816000875af192505050801561347f575060408051601f3d908101601f1916820190925261347c918101906143d9565b60015b6135345761348b6143f6565b806308c379a0036134c4575061349f614412565b806134aa57506134c6565b8060405162461bcd60e51b81526004016109b59190613a93565b505b60405162461bcd60e51b815260206004820152603460248201527f455243313135353a207472616e7366657220746f206e6f6e2d4552433131353560448201527f526563656976657220696d706c656d656e74657200000000000000000000000060648201526084016109b5565b7fffffffff0000000000000000000000000000000000000000000000000000000081167fbc197c8100000000000000000000000000000000000000000000000000000000146132505760405162461bcd60e51b815260206004820152602860248201527f455243313135353a204552433131353552656365697665722072656a6563746560448201527f6420746f6b656e7300000000000000000000000000000000000000000000000060648201526084016109b5565b6001600160a01b0384166136675760405162461bcd60e51b815260206004820152602160248201527f455243313135353a206d696e7420746f20746865207a65726f2061646472657360448201527f730000000000000000000000000000000000000000000000000000000000000060648201526084016109b5565b336000613673856137f0565b90506000613680856137f0565b905061369183600089858589613259565b60008681526065602090815260408083206001600160a01b038b168452909152812080548792906136c39084906141d4565b909155505060408051878152602081018790526001600160a01b03808a1692600092918716917fc3d58168c5ae7397731d063d5bbf3d657854427343f4c083240f7aacaa2d0f62910160405180910390a46132508360008989898961383b565b61372c82611331565b156137795760405162461bcd60e51b815260206004820152601260248201527f4d6f73733a20746f6b656e20657869737473000000000000000000000000000060448201526064016109b5565b600082815260ca602090815260409182902080547fffffffffffffffffffffffff0000000000000000000000000000000000000000166001600160a01b0385169081179091558251858152918201527fc0186d9ba7364ebd80a7010121367f481af81e1028bf368b2172fedf2c6fc7de9101611f90565b6040805160018082528183019092526060916000919060208083019080368337019050509050828160008151811061382a5761382a614164565b602090810291909101015292915050565b6001600160a01b0384163b15612734576040517ff23a6e610000000000000000000000000000000000000000000000000000000081526001600160a01b0385169063f23a6e619061389890899089908890889088906004016144ba565b6020604051808303816000875af19250505080156138d3575060408051601f3d908101601f191682019092526138d0918101906143d9565b60015b6138df5761348b6143f6565b7fffffffff0000000000000000000000000000000000000000000000000000000081167ff23a6e6100000000000000000000000000000000000000000000000000000000146132505760405162461bcd60e51b815260206004820152602860248201527f455243313135353a204552433131353552656365697665722072656a6563746560448201527f6420746f6b656e7300000000000000000000000000000000000000000000000060648201526084016109b5565b6000602082840312156139a857600080fd5b5035919050565b80356001600160a01b03811681146139c657600080fd5b919050565b600080604083850312156139de57600080fd5b6139e7836139af565b946020939093013593505050565b7fffffffff0000000000000000000000000000000000000000000000000000000081168114613a2357600080fd5b50565b600060208284031215613a3857600080fd5b8135610cd3816139f5565b60005b83811015613a5e578181015183820152602001613a46565b50506000910152565b60008151808452613a7f816020860160208601613a43565b601f01601f19169290920160200192915050565b602081526000610cd36020830184613a67565b60008060408385031215613ab957600080fd5b613ac2836139af565b9150613ad0602084016139af565b90509250929050565b60008060008060808587031215613aef57600080fd5b84359350613aff602086016139af565b93969395505050506040820135916060013590565b634e487b7160e01b600052604160045260246000fd5b601f19601f830116810181811067ffffffffffffffff82111715613b5057613b50613b14565b6040525050565b600067ffffffffffffffff821115613b7157613b71613b14565b5060051b60200190565b600082601f830112613b8c57600080fd5b81356020613b9982613b57565b604051613ba68282613b2a565b83815260059390931b8501820192828101915086841115613bc657600080fd5b8286015b84811015613be15780358352918301918301613bca565b509695505050505050565b600067ffffffffffffffff821115613c0657613c06613b14565b50601f01601f191660200190565b6000613c1f83613bec565b604051613c2c8282613b2a565b809250848152858585011115613c4157600080fd5b8484602083013760006020868301015250509392505050565b600082601f830112613c6b57600080fd5b610cd383833560208501613c14565b600080600080600060a08688031215613c9257600080fd5b613c9b866139af565b9450613ca9602087016139af565b9350604086013567ffffffffffffffff80821115613cc657600080fd5b613cd289838a01613b7b565b94506060880135915080821115613ce857600080fd5b613cf489838a01613b7b565b93506080880135915080821115613d0a57600080fd5b50613d1788828901613c5a565b9150509295509295909350565b60008060408385031215613d3757600080fd5b823567ffffffffffffffff80821115613d4f57600080fd5b818501915085601f830112613d6357600080fd5b81356020613d7082613b57565b604051613d7d8282613b2a565b83815260059390931b8501820192828101915089841115613d9d57600080fd5b948201945b83861015613dc257613db3866139af565b82529482019490820190613da2565b96505086013592505080821115613dd857600080fd5b50613de585828601613b7b565b9150509250929050565b600081518084526020808501945080840160005b83811015613e1f57815187529582019590820190600101613e03565b509495945050505050565b602081526000610cd36020830184613def565b60008060408385031215613e5057600080fd5b82359150602083013567ffffffffffffffff811115613e6e57600080fd5b8301601f81018513613e7f57600080fd5b613de585823560208401613c14565b600080600080600060a08688031215613ea657600080fd5b505083359560208501359550604085013594606081013594506080013592509050565b60008060408385031215613edc57600080fd5b50508035926020909101359150565b600080600060608486031215613f0057600080fd5b83359250613f10602085016139af565b9150604084013590509250925092565b60008060408385031215613f3357600080fd5b613f3c836139af565b915060208301358015158114613f5157600080fd5b809150509250929050565b60008060008060008060c08789031215613f7557600080fd5b505084359660208601359650604086013595606081013595506080810135945060a0013592509050565b600060208284031215613fb157600080fd5b610cd3826139af565b60008060008060808587031215613fd057600080fd5b5050823594602084013594506040840135936060013592509050565b600080600080600060a0868803121561400457600080fd5b61400d866139af565b945061401b602087016139af565b93506040860135925060608601359150608086013567ffffffffffffffff81111561404557600080fd5b613d1788828901613c5a565b81518152602080830151610140830191614075908401826001600160a01b03169052565b506040830151614091604084018267ffffffffffffffff169052565b50606083015160608301526080830151608083015260a083015160a083015260c083015160c083015260e083015160e083015261010080840151818401525061012080840151818401525092915050565b6000602082840312156140f457600080fd5b815167ffffffffffffffff81111561410b57600080fd5b8201601f8101841361411c57600080fd5b805161412781613bec565b6040516141348282613b2a565b82815286602084860101111561414957600080fd5b61415a836020830160208701613a43565b9695505050505050565b634e487b7160e01b600052603260045260246000fd5b634e487b7160e01b600052601160045260246000fd5b600060001982036141a3576141a361417a565b5060010190565b80820281158282048414176109e3576109e361417a565b818103818111156109e3576109e361417a565b808201808211156109e3576109e361417a565b60008261420457634e487b7160e01b600052601260045260246000fd5b500490565b600181811c9082168061421d57607f821691505b60208210810361423d57634e487b7160e01b600052602260045260246000fd5b50919050565b6040815260006142566040830185613def565b8281036020840152611fdb8185613def565b601f821115611bb057600081815260208120601f850160051c8101602086101561428f5750805b601f850160051c820191505b818110156127345782815560010161429b565b815167ffffffffffffffff8111156142c8576142c8613b14565b6142dc816142d68454614209565b84614268565b602080601f83116001811461431157600084156142f95750858301515b600019600386901b1c1916600185901b178555612734565b600085815260208120601f198616915b8281101561434057888601518255948401946001909101908401614321565b508582101561435e5787850151600019600388901b60f8161c191681555b5050505050600190811b01905550565b82815260406020820152600061226c6040830184613a67565b60006001600160a01b03808816835280871660208401525060a060408301526143b360a0830186613def565b82810360608401526143c58186613def565b90508281036080840152610d788185613a67565b6000602082840312156143eb57600080fd5b8151610cd3816139f5565b600060033d111561440f5760046000803e5060005160e01c5b90565b600060443d10156144205790565b6040517ffffffffffffffffffffffffffffffffffffffffffffffffffffffffffffffffc803d016004833e81513d67ffffffffffffffff816024840111818411171561446e57505050505090565b82850191508151818111156144865750505050505090565b843d87010160208285010111156144a05750505050505090565b6144af60208286010187613b2a565b509095945050505050565b60006001600160a01b03808816835280871660208401525084604083015283606083015260a0608083015261235060a0830184613a6756fe4d6f73734875623a206661696c656420746f207472616e736665722063726561746f72206665654d6f73734875623a207472616e736665722066756e6473206261636b206661696c65644d6f73734875623a206661696c656420746f207472616e736665722064657620666565a2646970667358221220e3c6201036ff9167f7b5d4fd42ab4dc323cda326b16c1e427d667a0c6863389264736f6c63430008130033",
  "deployedBytecode": "0x6080604052600436106102c85760003560e01c80637ab58add11610179578063c0facbea116100d6578063cdb9c4eb1161008a578063f213edda11610064578063f213edda146108db578063f242432a146108fb578063f740fd341461091b57600080fd5b8063cdb9c4eb14610851578063e2e1b89014610872578063e985e9c51461089257600080fd5b8063c4d66de8116100bb578063c4d66de8146107f1578063c5464eb414610811578063c79ab6a21461083157600080fd5b8063c0facbea1461077e578063c3c854b61461079e57600080fd5b8063936906f11161012d578063b4f40c6111610112578063b4f40c6114610730578063bb4fa5dd1461074b578063bd85b0391461075e57600080fd5b8063936906f1146106f0578063a22cb4651461071057600080fd5b8063836a10401161015e578063836a10401461068f5780638d6a8494146106a257806391cca3db146106d057600080fd5b80637ab58add14610641578063810c37381461066f57600080fd5b806343a54a0c11610227578063504f5e56116101db57806361c44d60116101c057806361c44d60146105c157806371fc76f51461060157806375e583e61461062157600080fd5b8063504f5e5614610545578063589a17431461057357600080fd5b80634f558e791161020c5780634f558e79146104ec578063503e0a981461050c578063504d95781461052557600080fd5b806343a54a0c146104a35780634e1273f4146104bf57600080fd5b8063129678941161027e57806327fc36371161026357806327fc36371461041b57806329bff6901461043d5780632eb2c2d61461048357600080fd5b806312967894146103c05780631930e825146103e057600080fd5b806301ffc9a7116102af57806301ffc9a71461033557806309501e66146103655780630e89341c1461039357600080fd5b8062d92e39146102d4578062fdd58e1461031557600080fd5b366102cf57005b600080fd5b3480156102e057600080fd5b506103026102ef366004613996565b6000908152610104602052604090205490565b6040519081526020015b60405180910390f35b34801561032157600080fd5b506103026103303660046139cb565b61093b565b34801561034157600080fd5b50610355610350366004613a26565b6109e9565b604051901515815260200161030c565b34801561037157600080fd5b50610302610380366004613996565b6000908152610105602052604090205490565b34801561039f57600080fd5b506103b36103ae366004613996565b610acc565b60405161030c9190613a93565b3480156103cc57600080fd5b506103026103db366004613996565b610cda565b3480156103ec57600080fd5b506103556103fb366004613aa6565b60c960209081526000928352604080842090915290825290205460ff1681565b34801561042757600080fd5b5061043b610436366004613ad9565b610d84565b005b34801561044957600080fd5b5060fe5461046a9068010000000000000000900467ffffffffffffffff1681565b60405167ffffffffffffffff909116815260200161030c565b34801561048f57600080fd5b5061043b61049e366004613c7a565b611151565b3480156104af57600080fd5b5061046a670de0b6b3a764000081565b3480156104cb57600080fd5b506104df6104da366004613d24565b6111f3565b60405161030c9190613e2a565b3480156104f857600080fd5b50610355610507366004613996565b611331565b34801561051857600080fd5b5061046a64e8d4a5100081565b34801561053157600080fd5b5061043b610540366004613e3d565b611347565b34801561055157600080fd5b50610302610560366004613996565b6000908152610101602052604090205490565b34801561057f57600080fd5b506105a961058e366004613996565b600090815260ca60205260409020546001600160a01b031690565b6040516001600160a01b03909116815260200161030c565b3480156105cd57600080fd5b506105e16105dc366004613e8e565b6113e8565b60408051948552602085019390935291830152606082015260800161030c565b34801561060d57600080fd5b506105e161061c366004613ec9565b61160d565b34801561062d57600080fd5b506105e161063c366004613ec9565b611729565b34801561064d57600080fd5b5061030261065c366004613996565b6101036020526000908152604090205481565b34801561067b57600080fd5b5061030261068a366004613996565b6117e4565b61043b61069d366004613eeb565b61180a565b3480156106ae57600080fd5b506103026106bd366004613996565b6101026020526000908152604090205481565b3480156106dc57600080fd5b5060ff546105a9906001600160a01b031681565b3480156106fc57600080fd5b5061030261070b366004613996565b611bb5565b34801561071c57600080fd5b5061043b61072b366004613f20565b611c17565b34801561073c57600080fd5b5061046a66071afd498d000081565b61043b610759366004613e8e565b611c26565b34801561076a57600080fd5b50610302610779366004613996565b611c93565b34801561078a57600080fd5b50610302610799366004613f5c565b611c9e565b3480156107aa57600080fd5b5061043b6107b9366004613f20565b33600090815260c9602090815260408083206001600160a01b0395909516835293905291909120805460ff1916911515919091179055565b3480156107fd57600080fd5b5061043b61080c366004613f9f565b611e17565b34801561081d57600080fd5b5061030261082c366004613996565b611f9c565b34801561083d57600080fd5b506105e161084c366004613e8e565b611fe4565b34801561085d57600080fd5b5060fe5461046a9067ffffffffffffffff1681565b34801561087e57600080fd5b506103b361088d366004613996565b612169565b34801561089e57600080fd5b506103556108ad366004613aa6565b6001600160a01b03918216600090815260666020908152604080832093909416825291909152205460ff1690565b3480156108e757600080fd5b506103026108f6366004613fba565b61220b565b34801561090757600080fd5b5061043b610916366004613fec565b612274565b34801561092757600080fd5b50610302610936366004613e8e565b61230f565b60006001600160a01b0383166109be5760405162461bcd60e51b815260206004820152602a60248201527f455243313135353a2061646472657373207a65726f206973206e6f742061207660448201527f616c6964206f776e65720000000000000000000000000000000000000000000060648201526084015b60405180910390fd5b5060008181526065602090815260408083206001600160a01b03861684529091529020545b92915050565b60007fffffffff0000000000000000000000000000000000000000000000000000000082167fd9b67a26000000000000000000000000000000000000000000000000000000001480610a7c57507fffffffff0000000000000000000000000000000000000000000000000000000082167f0e89341c00000000000000000000000000000000000000000000000000000000145b806109e357507f01ffc9a7000000000000000000000000000000000000000000000000000000007fffffffff000000000000000000000000000000000000000000000000000000008316146109e3565b6060610b376040518061014001604052806000815260200160006001600160a01b03168152602001600067ffffffffffffffff168152602001600081526020016000815260200160008152602001600081526020016000815260200160008152602001600081525090565b82815266071afd498d00006040820152610b6683600090815260ca60205260409020546001600160a01b031690565b6001600160a01b03166020820152610b8b836000908152610101602052604090205490565b6060820152610b99836117e4565b6080820152610ba783611c93565b60a0820152610bb583611bb5565b60c082015260a081015160808201516060830151610bdd9266071afd498d000092909161220b565b61012082015260a081015160808201516060830151610c089266071afd498d00009290916001611fe4565b505060e08301525060a081015160808201516060830151610c359266071afd498d000092909160016113e8565b5050610100830152506040517f2a5a1a1400000000000000000000000000000000000000000000000000000000815273__$cea9be979eee3d87fb124d6cbb244bb0b5$__90632a5a1a1490610c8e908490600401614051565b600060405180830381865af4158015610cab573d6000803e3d6000fd5b505050506040513d6000823e601f3d908101601f19168201604052610cd391908101906140e2565b9392505050565b600066071afd498d000081610cee84611bb5565b90506000610cfb856117e4565b60008681526101016020526040812054919250610d1a8585858561220b565b60008881526101026020908152604080832054610105835281842054610104909352908320549394509192610d5392889290918561230f565b9050610d788561010260008b8152602001908152602001600020548386866000611c9e565b98975050505050505050565b610d8c61235b565b610d9584611331565b610de15760405162461bcd60e51b815260206004820152601a60248201527f4d6f73734875623a206e6f6e6578736974656e7420746f6b656e00000000000060448201526064016109b5565b60008211610e575760405162461bcd60e51b815260206004820152602660248201527f4d6f73734875623a20616d6f756e74206d75737420626520677265617465722060448201527f7468616e2030000000000000000000000000000000000000000000000000000060648201526084016109b5565b6000610e6285611c93565b905082811015610eb45760405162461bcd60e51b815260206004820152601d60248201527f48696b653a20746f6f206d75636820616d6f756e7420746f206275726e00000060448201526064016109b5565b600060405180610100016040528087815260200166071afd498d000067ffffffffffffffff168152602001838152602001610eee886117e4565b8152602001610f0a886000908152610101602052604090205490565b8152602001610f26886000908152610104602052604090205490565b8152602001858152602001866001600160a01b03168152509050600080600080610f6785602001518660400151876060015188608001518960c001516113e8565b93509350935093508684101561100b5760405162461bcd60e51b815260206004820152604960248201527f4d6f73734875623a2072656365697665642076616c7565206d7573742062652060448201527f67726561746572207468616e206f7220657175616c20746f206d696e696d756d60648201527f2072656365697665640000000000000000000000000000000000000000000000608482015260a4016109b5565b61101e3386600001518760c001516123b4565b61105e89856040518060400160405280601e81526020017f4d6f73734875623a207472616e736665722076616c7565206661696c65640000815250612417565b60ff546040805160608101909152602380825261108e926001600160a01b031691849161453d6020830139612417565b8451600090815260ca60205260409020546110cc906001600160a01b03165b836040518060600160405280602781526020016144f360279139612417565b845160e08087015160c0808901516040805133815260208101969096526001600160a01b039093168584015260608501526080840187905260a084018690528301849052517f63b3cda962e4a1210ab73053c3af0163312c753575551b8c9d04906ec6e0ff679281900390910190a150505050505061114b600160cc55565b50505050565b6001600160a01b03851633148061116d575061116d85336108ad565b6111df5760405162461bcd60e51b815260206004820152602e60248201527f455243313135353a2063616c6c6572206973206e6f7420746f6b656e206f776e60448201527f6572206f7220617070726f76656400000000000000000000000000000000000060648201526084016109b5565b6111ec858585858561248d565b5050505050565b6060815183511461126c5760405162461bcd60e51b815260206004820152602960248201527f455243313135353a206163636f756e747320616e6420696473206c656e67746860448201527f206d69736d61746368000000000000000000000000000000000000000000000060648201526084016109b5565b6000835167ffffffffffffffff81111561128857611288613b14565b6040519080825280602002602001820160405280156112b1578160200160208202803683370190505b50905060005b8451811015611329576112fc8582815181106112d5576112d5614164565b60200260200101518583815181106112ef576112ef614164565b602002602001015161093b565b82828151811061130e5761130e614164565b602090810291909101015261132281614190565b90506112b7565b509392505050565b60008181526097602052604081205415156109e3565b600082815260ca602052604090205482906001600160a01b03163381148061139257506001600160a01b038116600090815260c96020908152604080832033845290915290205460ff165b6113de5760405162461bcd60e51b815260206004820152601b60248201527f4d6f73733a2044656c6567617465206e6f7420617070726f766564000000000060448201526064016109b5565b61114b848461273c565b6000806000808488101561148a5760405162461bcd60e51b815260206004820152604260248201527f4d6f73734875623a206275726e696e6720616d6f756e74206d7573742062652060448201527f6c657373207468616e206f7220657175616c20746f20746f74616c207375707060648201527f6c79000000000000000000000000000000000000000000000000000000000000608482015260a4016109b5565b8688116114a25761149b85876141aa565b9250611583565b866114ad868a6141c1565b11156115125760026114bf88826141aa565b866114cb8b60026141aa565b6114d591906141c1565b6114df91906141c1565b6114e9908b6141aa565b6114f48860026141aa565b6114fe91906141d4565b61150890876141aa565b61149b91906141e7565b600061151e888a6141c1565b9050600061152c82886141c1565b905060026115418366071afd498d00006141aa565b61154c8a60026141aa565b61155691906141d4565b61156090846141aa565b61156a91906141e7565b611574828a6141aa565b61157e91906141d4565b945050505b60fe54670de0b6b3a7640000906115a49067ffffffffffffffff16856141aa565b6115ae91906141e7565b60fe54909250670de0b6b3a7640000906115de9068010000000000000000900467ffffffffffffffff16856141aa565b6115e891906141e7565b9050806115f583856141c1565b6115ff91906141c1565b935095509550955095915050565b60008080808061163287600090815260ca60205260409020546001600160a01b031690565b6001600160a01b0316036116885760405162461bcd60e51b815260206004820152601d60248201527f4d6f73734875623a20746f6b656e206973206e6f74206372656174656400000060448201526064016109b5565b66071afd498d0000600061169b88611c93565b905060006116a8896117e4565b60008a81526101016020526040902054909150806117085760405162461bcd60e51b815260206004820152601960248201527f4d6f73734875623a207a65726f20666c6f6f722070726963650000000000000060448201526064016109b5565b611715848484848d611fe4565b929d919c509a509098509650505050505050565b60008080808061174e87600090815260ca60205260409020546001600160a01b031690565b6001600160a01b0316036117a45760405162461bcd60e51b815260206004820152601d60248201527f4d6f73734875623a20746f6b656e206973206e6f74206372656174656400000060448201526064016109b5565b66071afd498d000060006117b788611c93565b905060006117c4896117e4565b60008a81526101016020526040902054909150611715848484848d6113e8565b600081815261010360209081526040808320546101029092528220546109e391906141d4565b61181261235b565b600081116118885760405162461bcd60e51b815260206004820152602660248201527f4d6f73734875623a20616d6f756e74206d75737420626520677265617465722060448201527f7468616e2030000000000000000000000000000000000000000000000000000060648201526084016109b5565b604080516101008101825284815266071afd498d0000602082015260009181016118b186611c93565b81526020016118bf866117e4565b81526020016118db866000908152610101602052604090205490565b81526020016118f7866000908152610104602052604090205490565b8152602001838152602001846001600160a01b0316815250905060008060008061193885602001518660400151876060015188608001518960c00151611fe4565b9350935093509350833410156119b65760405162461bcd60e51b815260206004820152602360248201527f4d6f73734875623a20696e73756666696369656e742066756e647320746f206d60448201527f696e74000000000000000000000000000000000000000000000000000000000060648201526084016109b5565b833411156119ea576119ea336119cc86346141c1565b60405180606001604052806023815260200161451a60239139612417565b60ff5460408051606081019091526023808252611a1a926001600160a01b031691849161453d6020830139612417565b8451600090815260ca6020526040902054611a3d906001600160a01b03166110ad565b60408086015186516000908152610102602090815283822054895183526101059091529281205460a089015160c08a01519294611a7e94939092919061230f565b90506000611a9e8760200151886040015189606001518a6080015161220b565b875160009081526101036020526040902054909150821115611b19576040808801518851600090815261010260205291909120546080890151611af39291908590611ae98a876141d4565b8c60c00151611c9e565b875160009081526101016020908152604080832093909355895182526101039052208290555b611b308760e0015188600001518960c00151612786565b865160e08089015160c0808b01516040805133815260208101969096526001600160a01b03909316858401526060850152608084018a905260a084018890528301869052517fdcaf588f09c2b7600db130d5b5166c2c3eecdb321c81cdaba0921b1205d9888f9281900390910190a150505050505050611bb0600160cc55565b505050565b600081815261010460209081526040808320546101058352818420546101039093529083205490918291611be991906141e7565b611bf391906141aa565b60008481526101026020526040902054611c0d91906141d4565b6109e391906141d4565b611c2233838361282e565b5050565b611c2e61235b565b804210611c7d5760405162461bcd60e51b815260206004820152601360248201527f4d6f73734875623a2074782074696d656f75740000000000000000000000000060448201526064016109b5565b611c8985858585612922565b6111ec600160cc55565b60006109e382612e91565b600080611cab86886141d4565b905080611cb8848a6141d4565b11611d2b5760405162461bcd60e51b815260206004820152602960248201527f4d6f73734875623a20666c6f6f7220737570706c792069732067746520746f7460448201527f616c20737570706c79000000000000000000000000000000000000000000000060648201526084016109b5565b600081611d38858b6141d4565b611d4291906141c1565b9050611d4e848a6141d4565b611d599060026141aa565b81611d6b8166071afd498d00006141aa565b611d7591906141aa565b611d808760026141aa565b611d8a91906141c1565b611d9491906141e7565b9250858311611e0b5760405162461bcd60e51b815260206004820152603960248201527f4d6f73734875623a2061646a757374656420666c6f6f7220707269636520697360448201527f206c7465206f726967696e616c20666c6f6f722070726963650000000000000060648201526084016109b5565b50509695505050505050565b600054610100900460ff1615808015611e375750600054600160ff909116105b80611e515750303b158015611e51575060005460ff166001145b611ec35760405162461bcd60e51b815260206004820152602e60248201527f496e697469616c697a61626c653a20636f6e747261637420697320616c72656160448201527f647920696e697469616c697a656400000000000000000000000000000000000060648201526084016109b5565b6000805460ff191660011790558015611ee6576000805461ff0019166101001790555b60ff80547fffffffffffffffffffffffff0000000000000000000000000000000000000000166001600160a01b03841617905560fe80547fffffffffffffffffffffffffffffffff00000000000000000000000000000000166e58d15e176280000058d15e176280001790558015611c22576000805461ff0019169055604051600181527f7f26b83ff96e1f2b6a682f133852f6798a09c465da95921460cefb3847402498906020015b60405180910390a15050565b600080611fa883611c93565b90506000611fb5846117e4565b60008581526101016020526040902054909150611fdb66071afd498d000084848461220b565b95945050505050565b600080808086611ff4868a6141d4565b1161200a5761200385876141aa565b92506120ed565b8688111561207157600261201e88826141aa565b8661202a8b60026141aa565b61203491906141d4565b61203e91906141c1565b612048908b6141aa565b6120538860026141aa565b61205d91906141d4565b61206790876141aa565b61200391906141e7565b600061207d89896141c1565b905060008861208c888c6141d4565b61209691906141c1565b905060026120ab8266071afd498d00006141aa565b6120b68a60026141aa565b6120c091906141d4565b6120ca90836141aa565b6120d491906141e7565b6120de838a6141aa565b6120e891906141d4565b945050505b60fe54670de0b6b3a76400009061210e9067ffffffffffffffff16856141aa565b61211891906141e7565b60fe54909250670de0b6b3a7640000906121489068010000000000000000900467ffffffffffffffff16856141aa565b61215291906141e7565b90508061215f83856141d4565b6115ff91906141d4565b600081815260cb6020526040902080546060919061218690614209565b80601f01602080910402602001604051908101604052809291908181526020018280546121b290614209565b80156121ff5780601f106121d4576101008083540402835291602001916121ff565b820191906000526020600020905b8154815290600101906020018083116121e257829003601f168201915b50505050509050919050565b60008284116122255761221e84836141aa565b905061226c565b600061223184866141c1565b905060028161224081896141aa565b61224a91906141aa565b61225491906141e7565b61225e86856141aa565b61226891906141d4565b9150505b949350505050565b6001600160a01b038516331480612290575061229085336108ad565b6123025760405162461bcd60e51b815260206004820152602e60248201527f455243313135353a2063616c6c6572206973206e6f7420746f6b656e206f776e60448201527f6572206f7220617070726f76656400000000000000000000000000000000000060648201526084016109b5565b6111ec8585858585612ea5565b60008461231c83886141d4565b1115611fdb5760008386612330858a6141d4565b61233a91906141c1565b61234491906141e7565b905061235085826141aa565b979650505050505050565b600260cc54036123ad5760405162461bcd60e51b815260206004820152601f60248201527f5265656e7472616e637947756172643a207265656e7472616e742063616c6c0060448201526064016109b5565b600260cc55565b6123bf83838361308d565b60006123ca83611c93565b1115611bb057817f6bb7ff708619ba0610cba295a58592e0451dee2622938c8755667688daf3529b60405161240a90602080825260009082015260400190565b60405180910390a2505050565b6000836001600160a01b03168360405160006040518083038185875af1925050503d8060008114612464576040519150601f19603f3d011682016040523d82523d6000602084013e612469565b606091505b505090508082906111ec5760405162461bcd60e51b81526004016109b59190613a93565b81518351146125045760405162461bcd60e51b815260206004820152602860248201527f455243313135353a2069647320616e6420616d6f756e7473206c656e6774682060448201527f6d69736d6174636800000000000000000000000000000000000000000000000060648201526084016109b5565b6001600160a01b0384166125805760405162461bcd60e51b815260206004820152602560248201527f455243313135353a207472616e7366657220746f20746865207a65726f20616460448201527f647265737300000000000000000000000000000000000000000000000000000060648201526084016109b5565b3361258f818787878787613259565b60005b84518110156126ce5760008582815181106125af576125af614164565b6020026020010151905060008583815181106125cd576125cd614164565b60209081029190910181015160008481526065835260408082206001600160a01b038e1683529093529190912054909150818110156126745760405162461bcd60e51b815260206004820152602a60248201527f455243313135353a20696e73756666696369656e742062616c616e636520666f60448201527f72207472616e736665720000000000000000000000000000000000000000000060648201526084016109b5565b60008381526065602090815260408083206001600160a01b038e8116855292528083208585039055908b168252812080548492906126b39084906141d4565b92505081905550505050806126c790614190565b9050612592565b50846001600160a01b0316866001600160a01b0316826001600160a01b03167f4a39dc06d4c0dbc64b70af90fd698a233a518aa5d07e595d983b8c0526c8f7fb878760405161271e929190614243565b60405180910390a46127348187878787876133e7565b505050505050565b600082815260cb6020526040902061275482826142ae565b507f9881d3fc43c7ddce9f432f1abbb2720b9aa58489a32de89d7269df1807ac4d968282604051611f9092919061436e565b600081116127d65760405162461bcd60e51b815260206004820152601160248201527f4d6f73733a207a65726f20616d6f756e7400000000000000000000000000000060448201526064016109b5565b6040805160008152602081019091526127f4908490849084906135eb565b817f6bb7ff708619ba0610cba295a58592e0451dee2622938c8755667688daf3529b60405161240a90602080825260009082015260400190565b816001600160a01b0316836001600160a01b0316036128b55760405162461bcd60e51b815260206004820152602960248201527f455243313135353a2073657474696e6720617070726f76616c2073746174757360448201527f20666f722073656c66000000000000000000000000000000000000000000000060648201526084016109b5565b6001600160a01b03838116600081815260666020908152604080832094871680845294825291829020805460ff191686151590811790915591519182527f17307eab39ab6107e8899845ad3d59bd9653f200f220920489ca2b5937696c31910160405180910390a3505050565b6101005464e8d4a510008510156129a15760405162461bcd60e51b815260206004820152603d60248201527f4d6f73734875623a20666c6f6f72206d7573742062652067726561746572207460448201527f68616e206f7220657175616c20746f206d696e696d756d20666c6f6f7200000060648201526084016109b5565b60008411612a175760405162461bcd60e51b815260206004820152602f60248201527f4d6f73734875623a20666c6f6f7220737570706c79206d75737420626520677260448201527f6561746572207468616e207a65726f000000000000000000000000000000000060648201526084016109b5565b60008311612a8c5760405162461bcd60e51b8152602060048201526024808201527f4d6f73734875623a2073746570206d7573742067726561746572207468616e2060448201527f7a65726f0000000000000000000000000000000000000000000000000000000060648201526084016109b5565b60008211612b025760405162461bcd60e51b815260206004820152602660248201527f4d6f73734875623a20667353746570206d75737420677265617465722074686160448201527f6e207a65726f000000000000000000000000000000000000000000000000000060648201526084016109b5565b612b0d600a846141e7565b821115612b825760405162461bcd60e51b815260206004820152602960248201527f4d6f73734875623a20667353746570206d757374206265206c6573732074686160448201527f6e20737465702f3130000000000000000000000000000000000000000000000060648201526084016109b5565b60fe54600090670de0b6b3a764000090612bb29068010000000000000000900467ffffffffffffffff16886141aa565b612bbc91906141e7565b9050612bc881876141d4565b341015612c3d5760405162461bcd60e51b815260206004820152602560248201527f4d6f73734875623a20696e73756666696369656e742066756e647320746f206360448201527f726561746500000000000000000000000000000000000000000000000000000060648201526084016109b5565b612c4781876141d4565b341115612d205760003382612c5c89346141c1565b612c6691906141c1565b604051600081818185875af1925050503d8060008114612ca2576040519150601f19603f3d011682016040523d82523d6000602084013e612ca7565b606091505b5050905080612d1e5760405162461bcd60e51b815260206004820152602360248201527f4d6f73734875623a207472616e736665722066756e6473206261636b2066616960448201527f6c6564000000000000000000000000000000000000000000000000000000000060648201526084016109b5565b505b60ff546040516000916001600160a01b03169083908381818185875af1925050503d8060008114612d6d576040519150601f19603f3d011682016040523d82523d6000602084013e612d72565b606091505b5050905080612dc35760405162461bcd60e51b815260206004820152601e60248201527f4d6f73734875623a206661696c656420746f207265636569766520666565000060448201526064016109b5565b612dcd8333613723565b612dd933846001612786565b6000838152610101602090815260408083208a9055610102825280832089905561010482528083208890556101059091528120859055610100805491612e1e83614190565b90915550506040805133815260208101859052908101889052606081018790526080810186905260a0810185905260c0810188905260e081018390527f460cf3f1c0e37440b24f7a57d7c52f04ca2f3df751bcb4097d4a9e383b1a2477906101000160405180910390a150505050505050565b6000818152609760205260408120546109e3565b6001600160a01b038416612f215760405162461bcd60e51b815260206004820152602560248201527f455243313135353a207472616e7366657220746f20746865207a65726f20616460448201527f647265737300000000000000000000000000000000000000000000000000000060648201526084016109b5565b336000612f2d856137f0565b90506000612f3a856137f0565b9050612f4a838989858589613259565b60008681526065602090815260408083206001600160a01b038c16845290915290205485811015612fe35760405162461bcd60e51b815260206004820152602a60248201527f455243313135353a20696e73756666696369656e742062616c616e636520666f60448201527f72207472616e736665720000000000000000000000000000000000000000000060648201526084016109b5565b60008781526065602090815260408083206001600160a01b038d8116855292528083208985039055908a168252812080548892906130229084906141d4565b909155505060408051888152602081018890526001600160a01b03808b16928c821692918816917fc3d58168c5ae7397731d063d5bbf3d657854427343f4c083240f7aacaa2d0f62910160405180910390a4613082848a8a8a8a8a61383b565b505050505050505050565b6001600160a01b0383166131095760405162461bcd60e51b815260206004820152602360248201527f455243313135353a206275726e2066726f6d20746865207a65726f206164647260448201527f657373000000000000000000000000000000000000000000000000000000000060648201526084016109b5565b336000613115846137f0565b90506000613122846137f0565b905061314283876000858560405180602001604052806000815250613259565b60008581526065602090815260408083206001600160a01b038a168452909152902054848110156131da5760405162461bcd60e51b8152602060048201526024808201527f455243313135353a206275726e20616d6f756e7420657863656564732062616c60448201527f616e63650000000000000000000000000000000000000000000000000000000060648201526084016109b5565b60008681526065602090815260408083206001600160a01b038b81168086529184528285208a8703905582518b81529384018a90529092908816917fc3d58168c5ae7397731d063d5bbf3d657854427343f4c083240f7aacaa2d0f62910160405180910390a46040805160208101909152600090525b50505050505050565b6001600160a01b0385166132e05760005b83518110156132de5782818151811061328557613285614164565b6020026020010151609760008684815181106132a3576132a3614164565b6020026020010151815260200190815260200160002060008282546132c891906141d4565b909155506132d7905081614190565b905061326a565b505b6001600160a01b0384166127345760005b835181101561325057600084828151811061330e5761330e614164565b60200260200101519050600084838151811061332c5761332c614164565b60200260200101519050600060976000848152602001908152602001600020549050818110156133c45760405162461bcd60e51b815260206004820152602860248201527f455243313135353a206275726e20616d6f756e74206578636565647320746f7460448201527f616c537570706c7900000000000000000000000000000000000000000000000060648201526084016109b5565b600092835260976020526040909220910390556133e081614190565b90506132f1565b6001600160a01b0384163b15612734576040517fbc197c810000000000000000000000000000000000000000000000000000000081526001600160a01b0385169063bc197c81906134449089908990889088908890600401614387565b6020604051808303816000875af192505050801561347f575060408051601f3d908101601f1916820190925261347c918101906143d9565b60015b6135345761348b6143f6565b806308c379a0036134c4575061349f614412565b806134aa57506134c6565b8060405162461bcd60e51b81526004016109b59190613a93565b505b60405162461bcd60e51b815260206004820152603460248201527f455243313135353a207472616e7366657220746f206e6f6e2d4552433131353560448201527f526563656976657220696d706c656d656e74657200000000000000000000000060648201526084016109b5565b7fffffffff0000000000000000000000000000000000000000000000000000000081167fbc197c8100000000000000000000000000000000000000000000000000000000146132505760405162461bcd60e51b815260206004820152602860248201527f455243313135353a204552433131353552656365697665722072656a6563746560448201527f6420746f6b656e7300000000000000000000000000000000000000000000000060648201526084016109b5565b6001600160a01b0384166136675760405162461bcd60e51b815260206004820152602160248201527f455243313135353a206d696e7420746f20746865207a65726f2061646472657360448201527f730000000000000000000000000000000000000000000000000000000000000060648201526084016109b5565b336000613673856137f0565b90506000613680856137f0565b905061369183600089858589613259565b60008681526065602090815260408083206001600160a01b038b168452909152812080548792906136c39084906141d4565b909155505060408051878152602081018790526001600160a01b03808a1692600092918716917fc3d58168c5ae7397731d063d5bbf3d657854427343f4c083240f7aacaa2d0f62910160405180910390a46132508360008989898961383b565b61372c82611331565b156137795760405162461bcd60e51b815260206004820152601260248201527f4d6f73733a20746f6b656e20657869737473000000000000000000000000000060448201526064016109b5565b600082815260ca602090815260409182902080547fffffffffffffffffffffffff0000000000000000000000000000000000000000166001600160a01b0385169081179091558251858152918201527fc0186d9ba7364ebd80a7010121367f481af81e1028bf368b2172fedf2c6fc7de9101611f90565b6040805160018082528183019092526060916000919060208083019080368337019050509050828160008151811061382a5761382a614164565b602090810291909101015292915050565b6001600160a01b0384163b15612734576040517ff23a6e610000000000000000000000000000000000000000000000000000000081526001600160a01b0385169063f23a6e619061389890899089908890889088906004016144ba565b6020604051808303816000875af19250505080156138d3575060408051601f3d908101601f191682019092526138d0918101906143d9565b60015b6138df5761348b6143f6565b7fffffffff0000000000000000000000000000000000000000000000000000000081167ff23a6e6100000000000000000000000000000000000000000000000000000000146132505760405162461bcd60e51b815260206004820152602860248201527f455243313135353a204552433131353552656365697665722072656a6563746560448201527f6420746f6b656e7300000000000000000000000000000000000000000000000060648201526084016109b5565b6000602082840312156139a857600080fd5b5035919050565b80356001600160a01b03811681146139c657600080fd5b919050565b600080604083850312156139de57600080fd5b6139e7836139af565b946020939093013593505050565b7fffffffff0000000000000000000000000000000000000000000000000000000081168114613a2357600080fd5b50565b600060208284031215613a3857600080fd5b8135610cd3816139f5565b60005b83811015613a5e578181015183820152602001613a46565b50506000910152565b60008151808452613a7f816020860160208601613a43565b601f01601f19169290920160200192915050565b602081526000610cd36020830184613a67565b60008060408385031215613ab957600080fd5b613ac2836139af565b9150613ad0602084016139af565b90509250929050565b60008060008060808587031215613aef57600080fd5b84359350613aff602086016139af565b93969395505050506040820135916060013590565b634e487b7160e01b600052604160045260246000fd5b601f19601f830116810181811067ffffffffffffffff82111715613b5057613b50613b14565b6040525050565b600067ffffffffffffffff821115613b7157613b71613b14565b5060051b60200190565b600082601f830112613b8c57600080fd5b81356020613b9982613b57565b604051613ba68282613b2a565b83815260059390931b8501820192828101915086841115613bc657600080fd5b8286015b84811015613be15780358352918301918301613bca565b509695505050505050565b600067ffffffffffffffff821115613c0657613c06613b14565b50601f01601f191660200190565b6000613c1f83613bec565b604051613c2c8282613b2a565b809250848152858585011115613c4157600080fd5b8484602083013760006020868301015250509392505050565b600082601f830112613c6b57600080fd5b610cd383833560208501613c14565b600080600080600060a08688031215613c9257600080fd5b613c9b866139af565b9450613ca9602087016139af565b9350604086013567ffffffffffffffff80821115613cc657600080fd5b613cd289838a01613b7b565b94506060880135915080821115613ce857600080fd5b613cf489838a01613b7b565b93506080880135915080821115613d0a57600080fd5b50613d1788828901613c5a565b9150509295509295909350565b60008060408385031215613d3757600080fd5b823567ffffffffffffffff80821115613d4f57600080fd5b818501915085601f830112613d6357600080fd5b81356020613d7082613b57565b604051613d7d8282613b2a565b83815260059390931b8501820192828101915089841115613d9d57600080fd5b948201945b83861015613dc257613db3866139af565b82529482019490820190613da2565b96505086013592505080821115613dd857600080fd5b50613de585828601613b7b565b9150509250929050565b600081518084526020808501945080840160005b83811015613e1f57815187529582019590820190600101613e03565b509495945050505050565b602081526000610cd36020830184613def565b60008060408385031215613e5057600080fd5b82359150602083013567ffffffffffffffff811115613e6e57600080fd5b8301601f81018513613e7f57600080fd5b613de585823560208401613c14565b600080600080600060a08688031215613ea657600080fd5b505083359560208501359550604085013594606081013594506080013592509050565b60008060408385031215613edc57600080fd5b50508035926020909101359150565b600080600060608486031215613f0057600080fd5b83359250613f10602085016139af565b9150604084013590509250925092565b60008060408385031215613f3357600080fd5b613f3c836139af565b915060208301358015158114613f5157600080fd5b809150509250929050565b60008060008060008060c08789031215613f7557600080fd5b505084359660208601359650604086013595606081013595506080810135945060a0013592509050565b600060208284031215613fb157600080fd5b610cd3826139af565b60008060008060808587031215613fd057600080fd5b5050823594602084013594506040840135936060013592509050565b600080600080600060a0868803121561400457600080fd5b61400d866139af565b945061401b602087016139af565b93506040860135925060608601359150608086013567ffffffffffffffff81111561404557600080fd5b613d1788828901613c5a565b81518152602080830151610140830191614075908401826001600160a01b03169052565b506040830151614091604084018267ffffffffffffffff169052565b50606083015160608301526080830151608083015260a083015160a083015260c083015160c083015260e083015160e083015261010080840151818401525061012080840151818401525092915050565b6000602082840312156140f457600080fd5b815167ffffffffffffffff81111561410b57600080fd5b8201601f8101841361411c57600080fd5b805161412781613bec565b6040516141348282613b2a565b82815286602084860101111561414957600080fd5b61415a836020830160208701613a43565b9695505050505050565b634e487b7160e01b600052603260045260246000fd5b634e487b7160e01b600052601160045260246000fd5b600060001982036141a3576141a361417a565b5060010190565b80820281158282048414176109e3576109e361417a565b818103818111156109e3576109e361417a565b808201808211156109e3576109e361417a565b60008261420457634e487b7160e01b600052601260045260246000fd5b500490565b600181811c9082168061421d57607f821691505b60208210810361423d57634e487b7160e01b600052602260045260246000fd5b50919050565b6040815260006142566040830185613def565b8281036020840152611fdb8185613def565b601f821115611bb057600081815260208120601f850160051c8101602086101561428f5750805b601f850160051c820191505b818110156127345782815560010161429b565b815167ffffffffffffffff8111156142c8576142c8613b14565b6142dc816142d68454614209565b84614268565b602080601f83116001811461431157600084156142f95750858301515b600019600386901b1c1916600185901b178555612734565b600085815260208120601f198616915b8281101561434057888601518255948401946001909101908401614321565b508582101561435e5787850151600019600388901b60f8161c191681555b5050505050600190811b01905550565b82815260406020820152600061226c6040830184613a67565b60006001600160a01b03808816835280871660208401525060a060408301526143b360a0830186613def565b82810360608401526143c58186613def565b90508281036080840152610d788185613a67565b6000602082840312156143eb57600080fd5b8151610cd3816139f5565b600060033d111561440f5760046000803e5060005160e01c5b90565b600060443d10156144205790565b6040517ffffffffffffffffffffffffffffffffffffffffffffffffffffffffffffffffc803d016004833e81513d67ffffffffffffffff816024840111818411171561446e57505050505090565b82850191508151818111156144865750505050505090565b843d87010160208285010111156144a05750505050505090565b6144af60208286010187613b2a565b509095945050505050565b60006001600160a01b03808816835280871660208401525084604083015283606083015260a0608083015261235060a0830184613a6756fe4d6f73734875623a206661696c656420746f207472616e736665722063726561746f72206665654d6f73734875623a207472616e736665722066756e6473206261636b206661696c65644d6f73734875623a206661696c656420746f207472616e736665722064657620666565a2646970667358221220e3c6201036ff9167f7b5d4fd42ab4dc323cda326b16c1e427d667a0c6863389264736f6c63430008130033",
  "libraries": {
    "NFTDescriptor": "0xCe4FB7ed615A0ae77Ea9fFE6ef6F4CC4B51EF9CD"
  },
  "devdoc": {
    "events": {
      "ApprovalForAll(address,address,bool)": {
        "details": "Emitted when `account` grants or revokes permission to `operator` to transfer their tokens, according to `approved`."
      },
      "Initialized(uint8)": {
        "details": "Triggered when the contract has been initialized or reinitialized."
      },
      "TransferBatch(address,address,address,uint256[],uint256[])": {
        "details": "Equivalent to multiple {TransferSingle} events, where `operator`, `from` and `to` are the same for all transfers."
      },
      "TransferSingle(address,address,address,uint256,uint256)": {
        "details": "Emitted when `value` tokens of token type `id` are transferred from `from` to `to` by `operator`."
      },
      "URI(string,uint256)": {
        "details": "Emitted when the URI for token type `id` changes to `value`, if it is a non-programmatic URI. If an {URI} event was emitted for `id`, the standard https://eips.ethereum.org/EIPS/eip-1155#metadata-extensions[guarantees] that `value` will equal the value returned by {IERC1155MetadataURI-uri}."
      }
    },
    "kind": "dev",
    "methods": {
      "balanceOf(address,uint256)": {
        "details": "See {IERC1155-balanceOf}. Requirements: - `account` cannot be the zero address."
      },
      "balanceOfBatch(address[],uint256[])": {
        "details": "See {IERC1155-balanceOfBatch}. Requirements: - `accounts` and `ids` must have the same length."
      },
      "isApprovedForAll(address,address)": {
        "details": "See {IERC1155-isApprovedForAll}."
      },
      "safeBatchTransferFrom(address,address,uint256[],uint256[],bytes)": {
        "details": "See {IERC1155-safeBatchTransferFrom}."
      },
      "safeTransferFrom(address,address,uint256,uint256,bytes)": {
        "details": "See {IERC1155-safeTransferFrom}."
      },
      "setApprovalForAll(address,bool)": {
        "details": "See {IERC1155-setApprovalForAll}."
      },
      "supportsInterface(bytes4)": {
        "details": "See {IERC165-supportsInterface}."
      }
    },
    "version": 1
  },
  "userdoc": {
    "kind": "user",
    "methods": {},
    "version": 1
  },
  "storageLayout": {
    "storage": [
      {
        "astId": 6,
        "contract": "contracts/core/MossHub.sol:MossHub",
        "label": "_initialized",
        "offset": 0,
        "slot": "0",
        "type": "t_uint8"
      },
      {
        "astId": 9,
        "contract": "contracts/core/MossHub.sol:MossHub",
        "label": "_initializing",
        "offset": 1,
        "slot": "0",
        "type": "t_bool"
      },
      {
        "astId": 2223,
        "contract": "contracts/core/MossHub.sol:MossHub",
        "label": "__gap",
        "offset": 0,
        "slot": "1",
        "type": "t_array(t_uint256)50_storage"
      },
      {
        "astId": 2267,
        "contract": "contracts/core/MossHub.sol:MossHub",
        "label": "__gap",
        "offset": 0,
        "slot": "51",
        "type": "t_array(t_uint256)50_storage"
      },
      {
        "astId": 281,
        "contract": "contracts/core/MossHub.sol:MossHub",
        "label": "_balances",
        "offset": 0,
        "slot": "101",
        "type": "t_mapping(t_uint256,t_mapping(t_address,t_uint256))"
      },
      {
        "astId": 287,
        "contract": "contracts/core/MossHub.sol:MossHub",
        "label": "_operatorApprovals",
        "offset": 0,
        "slot": "102",
        "type": "t_mapping(t_address,t_mapping(t_address,t_bool))"
      },
      {
        "astId": 289,
        "contract": "contracts/core/MossHub.sol:MossHub",
        "label": "_uri",
        "offset": 0,
        "slot": "103",
        "type": "t_string_storage"
      },
      {
        "astId": 1496,
        "contract": "contracts/core/MossHub.sol:MossHub",
        "label": "__gap",
        "offset": 0,
        "slot": "104",
        "type": "t_array(t_uint256)47_storage"
      },
      {
        "astId": 1685,
        "contract": "contracts/core/MossHub.sol:MossHub",
        "label": "_totalSupply",
        "offset": 0,
        "slot": "151",
        "type": "t_mapping(t_uint256,t_uint256)"
      },
      {
        "astId": 1836,
        "contract": "contracts/core/MossHub.sol:MossHub",
        "label": "__gap",
        "offset": 0,
        "slot": "152",
        "type": "t_array(t_uint256)49_storage"
      },
      {
        "astId": 5314,
        "contract": "contracts/core/MossHub.sol:MossHub",
        "label": "isApprovedDelegate",
        "offset": 0,
        "slot": "201",
        "type": "t_mapping(t_address,t_mapping(t_address,t_bool))"
      },
      {
        "astId": 3584,
        "contract": "contracts/core/MossHub.sol:MossHub",
        "label": "creators",
        "offset": 0,
        "slot": "202",
        "type": "t_mapping(t_uint256,t_address)"
      },
      {
        "astId": 3588,
        "contract": "contracts/core/MossHub.sol:MossHub",
        "label": "stoneNames",
        "offset": 0,
        "slot": "203",
        "type": "t_mapping(t_uint256,t_string_storage)"
      },
      {
        "astId": 182,
        "contract": "contracts/core/MossHub.sol:MossHub",
        "label": "_status",
        "offset": 0,
        "slot": "204",
        "type": "t_uint256"
      },
      {
        "astId": 251,
        "contract": "contracts/core/MossHub.sol:MossHub",
        "label": "__gap",
        "offset": 0,
        "slot": "205",
        "type": "t_array(t_uint256)49_storage"
      },
      {
        "astId": 3824,
        "contract": "contracts/core/MossHub.sol:MossHub",
        "label": "defaultCreatorFeePCT",
        "offset": 0,
        "slot": "254",
        "type": "t_uint64"
      },
      {
        "astId": 3826,
        "contract": "contracts/core/MossHub.sol:MossHub",
        "label": "devFeePCT",
        "offset": 8,
        "slot": "254",
        "type": "t_uint64"
      },
      {
        "astId": 3828,
        "contract": "contracts/core/MossHub.sol:MossHub",
        "label": "dev",
        "offset": 0,
        "slot": "255",
        "type": "t_address"
      },
      {
        "astId": 3830,
        "contract": "contracts/core/MossHub.sol:MossHub",
        "label": "currentId",
        "offset": 0,
        "slot": "256",
        "type": "t_uint256"
      },
      {
        "astId": 3834,
        "contract": "contracts/core/MossHub.sol:MossHub",
        "label": "f",
        "offset": 0,
        "slot": "257",
        "type": "t_mapping(t_uint256,t_uint256)"
      },
      {
        "astId": 3838,
        "contract": "contracts/core/MossHub.sol:MossHub",
        "label": "ifs",
        "offset": 0,
        "slot": "258",
        "type": "t_mapping(t_uint256,t_uint256)"
      },
      {
        "astId": 3842,
        "contract": "contracts/core/MossHub.sol:MossHub",
        "label": "fsIncr",
        "offset": 0,
        "slot": "259",
        "type": "t_mapping(t_uint256,t_uint256)"
      },
      {
        "astId": 3846,
        "contract": "contracts/core/MossHub.sol:MossHub",
        "label": "step",
        "offset": 0,
        "slot": "260",
        "type": "t_mapping(t_uint256,t_uint256)"
      },
      {
        "astId": 3850,
        "contract": "contracts/core/MossHub.sol:MossHub",
        "label": "fsStep",
        "offset": 0,
        "slot": "261",
        "type": "t_mapping(t_uint256,t_uint256)"
      }
    ],
    "types": {
      "t_address": {
        "encoding": "inplace",
        "label": "address",
        "numberOfBytes": "20"
      },
      "t_array(t_uint256)47_storage": {
        "base": "t_uint256",
        "encoding": "inplace",
        "label": "uint256[47]",
        "numberOfBytes": "1504"
      },
      "t_array(t_uint256)49_storage": {
        "base": "t_uint256",
        "encoding": "inplace",
        "label": "uint256[49]",
        "numberOfBytes": "1568"
      },
      "t_array(t_uint256)50_storage": {
        "base": "t_uint256",
        "encoding": "inplace",
        "label": "uint256[50]",
        "numberOfBytes": "1600"
      },
      "t_bool": {
        "encoding": "inplace",
        "label": "bool",
        "numberOfBytes": "1"
      },
      "t_mapping(t_address,t_bool)": {
        "encoding": "mapping",
        "key": "t_address",
        "label": "mapping(address => bool)",
        "numberOfBytes": "32",
        "value": "t_bool"
      },
      "t_mapping(t_address,t_mapping(t_address,t_bool))": {
        "encoding": "mapping",
        "key": "t_address",
        "label": "mapping(address => mapping(address => bool))",
        "numberOfBytes": "32",
        "value": "t_mapping(t_address,t_bool)"
      },
      "t_mapping(t_address,t_uint256)": {
        "encoding": "mapping",
        "key": "t_address",
        "label": "mapping(address => uint256)",
        "numberOfBytes": "32",
        "value": "t_uint256"
      },
      "t_mapping(t_uint256,t_address)": {
        "encoding": "mapping",
        "key": "t_uint256",
        "label": "mapping(uint256 => address)",
        "numberOfBytes": "32",
        "value": "t_address"
      },
      "t_mapping(t_uint256,t_mapping(t_address,t_uint256))": {
        "encoding": "mapping",
        "key": "t_uint256",
        "label": "mapping(uint256 => mapping(address => uint256))",
        "numberOfBytes": "32",
        "value": "t_mapping(t_address,t_uint256)"
      },
      "t_mapping(t_uint256,t_string_storage)": {
        "encoding": "mapping",
        "key": "t_uint256",
        "label": "mapping(uint256 => string)",
        "numberOfBytes": "32",
        "value": "t_string_storage"
      },
      "t_mapping(t_uint256,t_uint256)": {
        "encoding": "mapping",
        "key": "t_uint256",
        "label": "mapping(uint256 => uint256)",
        "numberOfBytes": "32",
        "value": "t_uint256"
      },
      "t_string_storage": {
        "encoding": "bytes",
        "label": "string",
        "numberOfBytes": "32"
      },
      "t_uint256": {
        "encoding": "inplace",
        "label": "uint256",
        "numberOfBytes": "32"
      },
      "t_uint64": {
        "encoding": "inplace",
        "label": "uint64",
        "numberOfBytes": "8"
      },
      "t_uint8": {
        "encoding": "inplace",
        "label": "uint8",
        "numberOfBytes": "1"
      }
    }
  }
}