{
  "address": "0xdf001CDeB30B7e72E300FB7066E27c994d032047",
  "abi": [
    {
      "anonymous": false,
      "inputs": [
        {
          "indexed": true,
          "internalType": "address",
          "name": "account",
          "type": "address"
        },
        {
          "indexed": true,
          "internalType": "address",
          "name": "operator",
          "type": "address"
        },
        {
          "indexed": false,
          "internalType": "bool",
          "name": "approved",
          "type": "bool"
        }
      ],
      "name": "ApprovalForAll",
      "type": "event"
    },
    {
      "anonymous": false,
      "inputs": [
        {
          "indexed": false,
          "internalType": "address",
          "name": "from",
          "type": "address"
        },
        {
          "indexed": false,
          "internalType": "uint256",
          "name": "id",
          "type": "uint256"
        },
        {
          "indexed": false,
          "internalType": "address",
          "name": "to",
          "type": "address"
        },
        {
          "indexed": false,
          "internalType": "uint256",
          "name": "amount",
          "type": "uint256"
        },
        {
          "indexed": false,
          "internalType": "uint256",
          "name": "value",
          "type": "uint256"
        },
        {
          "indexed": false,
          "internalType": "uint256",
          "name": "creatorFee",
          "type": "uint256"
        },
        {
          "indexed": false,
          "internalType": "uint256",
          "name": "devFee",
          "type": "uint256"
        }
      ],
      "name": "Bought",
      "type": "event"
    },
    {
      "anonymous": false,
      "inputs": [
        {
          "indexed": false,
          "internalType": "address",
          "name": "from",
          "type": "address"
        },
        {
          "indexed": false,
          "internalType": "uint256",
          "name": "id",
          "type": "uint256"
        },
        {
          "indexed": false,
          "internalType": "uint256",
          "name": "_f",
          "type": "uint256"
        },
        {
          "indexed": false,
          "internalType": "uint256",
          "name": "_fs",
          "type": "uint256"
        },
        {
          "indexed": false,
          "internalType": "uint256",
          "name": "_s",
          "type": "uint256"
        },
        {
          "indexed": false,
          "internalType": "uint256",
          "name": "_tar",
          "type": "uint256"
        },
        {
          "indexed": false,
          "internalType": "uint256",
          "name": "value",
          "type": "uint256"
        },
        {
          "indexed": false,
          "internalType": "uint256",
          "name": "devFee",
          "type": "uint256"
        }
      ],
      "name": "Created",
      "type": "event"
    },
    {
      "anonymous": false,
      "inputs": [
        {
          "indexed": false,
          "internalType": "uint256",
          "name": "id",
          "type": "uint256"
        },
        {
          "indexed": false,
          "internalType": "address",
          "name": "creator",
          "type": "address"
        }
      ],
      "name": "CreatorUpdated",
      "type": "event"
    },
    {
      "anonymous": false,
      "inputs": [
        {
          "indexed": false,
          "internalType": "uint8",
          "name": "version",
          "type": "uint8"
        }
      ],
      "name": "Initialized",
      "type": "event"
    },
    {
      "anonymous": false,
      "inputs": [
        {
          "indexed": false,
          "internalType": "address",
          "name": "from",
          "type": "address"
        },
        {
          "indexed": false,
          "internalType": "uint256",
          "name": "id",
          "type": "uint256"
        },
        {
          "indexed": false,
          "internalType": "address",
          "name": "to",
          "type": "address"
        },
        {
          "indexed": false,
          "internalType": "uint256",
          "name": "amount",
          "type": "uint256"
        },
        {
          "indexed": false,
          "internalType": "uint256",
          "name": "value",
          "type": "uint256"
        },
        {
          "indexed": false,
          "internalType": "uint256",
          "name": "devFee",
          "type": "uint256"
        }
      ],
      "name": "Sold",
      "type": "event"
    },
    {
      "anonymous": false,
      "inputs": [
        {
          "indexed": false,
          "internalType": "uint256",
          "name": "id",
          "type": "uint256"
        },
        {
          "indexed": false,
          "internalType": "string",
          "name": "tokenURI",
          "type": "string"
        }
      ],
      "name": "TokenURIUpdated",
      "type": "event"
    },
    {
      "anonymous": false,
      "inputs": [
        {
          "indexed": true,
          "internalType": "address",
          "name": "operator",
          "type": "address"
        },
        {
          "indexed": true,
          "internalType": "address",
          "name": "from",
          "type": "address"
        },
        {
          "indexed": true,
          "internalType": "address",
          "name": "to",
          "type": "address"
        },
        {
          "indexed": false,
          "internalType": "uint256[]",
          "name": "ids",
          "type": "uint256[]"
        },
        {
          "indexed": false,
          "internalType": "uint256[]",
          "name": "values",
          "type": "uint256[]"
        }
      ],
      "name": "TransferBatch",
      "type": "event"
    },
    {
      "anonymous": false,
      "inputs": [
        {
          "indexed": true,
          "internalType": "address",
          "name": "operator",
          "type": "address"
        },
        {
          "indexed": true,
          "internalType": "address",
          "name": "from",
          "type": "address"
        },
        {
          "indexed": true,
          "internalType": "address",
          "name": "to",
          "type": "address"
        },
        {
          "indexed": false,
          "internalType": "uint256",
          "name": "id",
          "type": "uint256"
        },
        {
          "indexed": false,
          "internalType": "uint256",
          "name": "value",
          "type": "uint256"
        }
      ],
      "name": "TransferSingle",
      "type": "event"
    },
    {
      "anonymous": false,
      "inputs": [
        {
          "indexed": false,
          "internalType": "string",
          "name": "value",
          "type": "string"
        },
        {
          "indexed": true,
          "internalType": "uint256",
          "name": "id",
          "type": "uint256"
        }
      ],
      "name": "URI",
      "type": "event"
    },
    {
      "inputs": [],
      "name": "PRECISIONDECIMALS",
      "outputs": [
        {
          "internalType": "uint64",
          "name": "",
          "type": "uint64"
        }
      ],
      "stateMutability": "view",
      "type": "function"
    },
    {
      "inputs": [
        {
          "internalType": "uint256",
          "name": "_t",
          "type": "uint256"
        },
        {
          "internalType": "uint256",
          "name": "_fs",
          "type": "uint256"
        },
        {
          "internalType": "uint256",
          "name": "_fsStep",
          "type": "uint256"
        },
        {
          "internalType": "uint256",
          "name": "_step",
          "type": "uint256"
        },
        {
          "internalType": "uint256",
          "name": "amount",
          "type": "uint256"
        }
      ],
      "name": "adjustment",
      "outputs": [
        {
          "internalType": "uint256",
          "name": "_fsIncr",
          "type": "uint256"
        }
      ],
      "stateMutability": "pure",
      "type": "function"
    },
    {
      "inputs": [
        {
          "internalType": "address",
          "name": "to",
          "type": "address"
        },
        {
          "internalType": "uint256",
          "name": "id",
          "type": "uint256"
        }
      ],
      "name": "balanceOf",
      "outputs": [
        {
          "internalType": "uint256",
          "name": "",
          "type": "uint256"
        }
      ],
      "stateMutability": "view",
      "type": "function"
    },
    {
      "inputs": [
        {
          "internalType": "address[]",
          "name": "accounts",
          "type": "address[]"
        },
        {
          "internalType": "uint256[]",
          "name": "ids",
          "type": "uint256[]"
        }
      ],
      "name": "balanceOfBatch",
      "outputs": [
        {
          "internalType": "uint256[]",
          "name": "",
          "type": "uint256[]"
        }
      ],
      "stateMutability": "view",
      "type": "function"
    },
    {
      "inputs": [
        {
          "internalType": "uint256",
          "name": "id",
          "type": "uint256"
        },
        {
          "internalType": "address",
          "name": "to",
          "type": "address"
        },
        {
          "internalType": "uint256",
          "name": "amount",
          "type": "uint256"
        },
        {
          "internalType": "uint256",
          "name": "maxSent",
          "type": "uint256"
        }
      ],
      "name": "buy",
      "outputs": [],
      "stateMutability": "payable",
      "type": "function"
    },
    {
      "inputs": [
        {
          "internalType": "uint256",
          "name": "id",
          "type": "uint256"
        },
        {
          "internalType": "uint256",
          "name": "_f",
          "type": "uint256"
        },
        {
          "internalType": "string",
          "name": "_tokenURI",
          "type": "string"
        },
        {
          "internalType": "uint256",
          "name": "timeoutAt",
          "type": "uint256"
        }
      ],
      "name": "create",
      "outputs": [],
      "stateMutability": "payable",
      "type": "function"
    },
    {
      "inputs": [
        {
          "internalType": "uint256",
          "name": "id",
          "type": "uint256"
        }
      ],
      "name": "creatorOf",
      "outputs": [
        {
          "internalType": "address",
          "name": "",
          "type": "address"
        }
      ],
      "stateMutability": "view",
      "type": "function"
    },
    {
      "inputs": [],
      "name": "defaultCreatorFeePCT",
      "outputs": [
        {
          "internalType": "uint64",
          "name": "",
          "type": "uint64"
        }
      ],
      "stateMutability": "view",
      "type": "function"
    },
    {
      "inputs": [],
      "name": "dev",
      "outputs": [
        {
          "internalType": "address",
          "name": "",
          "type": "address"
        }
      ],
      "stateMutability": "view",
      "type": "function"
    },
    {
      "inputs": [],
      "name": "devFeePCT",
      "outputs": [
        {
          "internalType": "uint64",
          "name": "",
          "type": "uint64"
        }
      ],
      "stateMutability": "view",
      "type": "function"
    },
    {
      "inputs": [
        {
          "internalType": "uint256",
          "name": "_t",
          "type": "uint256"
        },
        {
          "internalType": "uint256",
          "name": "_fs",
          "type": "uint256"
        },
        {
          "internalType": "uint256",
          "name": "_fsIncr",
          "type": "uint256"
        },
        {
          "internalType": "uint256",
          "name": "_f",
          "type": "uint256"
        },
        {
          "internalType": "uint256",
          "name": "_w",
          "type": "uint256"
        },
        {
          "internalType": "uint256",
          "name": "amount",
          "type": "uint256"
        }
      ],
      "name": "estimateAdjust",
      "outputs": [
        {
          "internalType": "uint256",
          "name": "_floor",
          "type": "uint256"
        }
      ],
      "stateMutability": "pure",
      "type": "function"
    },
    {
      "inputs": [
        {
          "internalType": "uint256",
          "name": "id",
          "type": "uint256"
        },
        {
          "internalType": "uint256",
          "name": "amount",
          "type": "uint256"
        }
      ],
      "name": "estimateBuy",
      "outputs": [
        {
          "internalType": "uint256",
          "name": "total",
          "type": "uint256"
        },
        {
          "internalType": "uint256",
          "name": "value",
          "type": "uint256"
        },
        {
          "internalType": "uint256",
          "name": "creatorFee",
          "type": "uint256"
        },
        {
          "internalType": "uint256",
          "name": "devFee",
          "type": "uint256"
        }
      ],
      "stateMutability": "view",
      "type": "function"
    },
    {
      "inputs": [
        {
          "internalType": "uint256",
          "name": "_k",
          "type": "uint256"
        },
        {
          "internalType": "uint256",
          "name": "_t",
          "type": "uint256"
        },
        {
          "internalType": "uint256",
          "name": "_fs",
          "type": "uint256"
        },
        {
          "internalType": "uint256",
          "name": "_f",
          "type": "uint256"
        },
        {
          "internalType": "uint256",
          "name": "amount",
          "type": "uint256"
        }
      ],
      "name": "estimateBuy",
      "outputs": [
        {
          "internalType": "uint256",
          "name": "total",
          "type": "uint256"
        },
        {
          "internalType": "uint256",
          "name": "value",
          "type": "uint256"
        },
        {
          "internalType": "uint256",
          "name": "creatorFee",
          "type": "uint256"
        },
        {
          "internalType": "uint256",
          "name": "devFee",
          "type": "uint256"
        }
      ],
      "stateMutability": "view",
      "type": "function"
    },
    {
      "inputs": [
        {
          "internalType": "uint256",
          "name": "_k",
          "type": "uint256"
        },
        {
          "internalType": "uint256",
          "name": "_t",
          "type": "uint256"
        },
        {
          "internalType": "uint256",
          "name": "_fs",
          "type": "uint256"
        },
        {
          "internalType": "uint256",
          "name": "_f",
          "type": "uint256"
        },
        {
          "internalType": "uint256",
          "name": "amount",
          "type": "uint256"
        }
      ],
      "name": "estimateSell",
      "outputs": [
        {
          "internalType": "uint256",
          "name": "total",
          "type": "uint256"
        },
        {
          "internalType": "uint256",
          "name": "value",
          "type": "uint256"
        },
        {
          "internalType": "uint256",
          "name": "creatorFee",
          "type": "uint256"
        },
        {
          "internalType": "uint256",
          "name": "devFee",
          "type": "uint256"
        }
      ],
      "stateMutability": "view",
      "type": "function"
    },
    {
      "inputs": [
        {
          "internalType": "uint256",
          "name": "id",
          "type": "uint256"
        },
        {
          "internalType": "uint256",
          "name": "amount",
          "type": "uint256"
        }
      ],
      "name": "estimateSell",
      "outputs": [
        {
          "internalType": "uint256",
          "name": "total",
          "type": "uint256"
        },
        {
          "internalType": "uint256",
          "name": "value",
          "type": "uint256"
        },
        {
          "internalType": "uint256",
          "name": "creatorFee",
          "type": "uint256"
        },
        {
          "internalType": "uint256",
          "name": "devFee",
          "type": "uint256"
        }
      ],
      "stateMutability": "view",
      "type": "function"
    },
    {
      "inputs": [
        {
          "internalType": "uint256",
          "name": "id",
          "type": "uint256"
        }
      ],
      "name": "exists",
      "outputs": [
        {
          "internalType": "bool",
          "name": "",
          "type": "bool"
        }
      ],
      "stateMutability": "view",
      "type": "function"
    },
    {
      "inputs": [
        {
          "internalType": "uint256",
          "name": "id",
          "type": "uint256"
        }
      ],
      "name": "floor",
      "outputs": [
        {
          "internalType": "uint256",
          "name": "",
          "type": "uint256"
        }
      ],
      "stateMutability": "view",
      "type": "function"
    },
    {
      "inputs": [
        {
          "internalType": "uint256",
          "name": "id",
          "type": "uint256"
        }
      ],
      "name": "floorSupply",
      "outputs": [
        {
          "internalType": "uint256",
          "name": "",
          "type": "uint256"
        }
      ],
      "stateMutability": "view",
      "type": "function"
    },
    {
      "inputs": [
        {
          "internalType": "uint256",
          "name": "",
          "type": "uint256"
        }
      ],
      "name": "fs",
      "outputs": [
        {
          "internalType": "uint256",
          "name": "",
          "type": "uint256"
        }
      ],
      "stateMutability": "view",
      "type": "function"
    },
    {
      "inputs": [
        {
          "internalType": "uint256",
          "name": "",
          "type": "uint256"
        }
      ],
      "name": "fsIncr",
      "outputs": [
        {
          "internalType": "uint256",
          "name": "",
          "type": "uint256"
        }
      ],
      "stateMutability": "view",
      "type": "function"
    },
    {
      "inputs": [
        {
          "internalType": "uint256",
          "name": "id",
          "type": "uint256"
        }
      ],
      "name": "fsStepOf",
      "outputs": [
        {
          "internalType": "uint256",
          "name": "",
          "type": "uint256"
        }
      ],
      "stateMutability": "view",
      "type": "function"
    },
    {
      "inputs": [
        {
          "internalType": "address",
          "name": "dev",
          "type": "address"
        }
      ],
      "name": "initialize",
      "outputs": [],
      "stateMutability": "nonpayable",
      "type": "function"
    },
    {
      "inputs": [
        {
          "internalType": "address",
          "name": "",
          "type": "address"
        },
        {
          "internalType": "address",
          "name": "",
          "type": "address"
        }
      ],
      "name": "isApprovedDelegate",
      "outputs": [
        {
          "internalType": "bool",
          "name": "",
          "type": "bool"
        }
      ],
      "stateMutability": "view",
      "type": "function"
    },
    {
      "inputs": [
        {
          "internalType": "address",
          "name": "account",
          "type": "address"
        },
        {
          "internalType": "address",
          "name": "operator",
          "type": "address"
        }
      ],
      "name": "isApprovedForAll",
      "outputs": [
        {
          "internalType": "bool",
          "name": "",
          "type": "bool"
        }
      ],
      "stateMutability": "view",
      "type": "function"
    },
    {
      "inputs": [],
      "name": "k",
      "outputs": [
        {
          "internalType": "uint64",
          "name": "",
          "type": "uint64"
        }
      ],
      "stateMutability": "view",
      "type": "function"
    },
    {
      "inputs": [],
      "name": "minFloor",
      "outputs": [
        {
          "internalType": "uint64",
          "name": "",
          "type": "uint64"
        }
      ],
      "stateMutability": "view",
      "type": "function"
    },
    {
      "inputs": [
        {
          "internalType": "address",
          "name": "from",
          "type": "address"
        },
        {
          "internalType": "address",
          "name": "to",
          "type": "address"
        },
        {
          "internalType": "uint256[]",
          "name": "ids",
          "type": "uint256[]"
        },
        {
          "internalType": "uint256[]",
          "name": "amounts",
          "type": "uint256[]"
        },
        {
          "internalType": "bytes",
          "name": "data",
          "type": "bytes"
        }
      ],
      "name": "safeBatchTransferFrom",
      "outputs": [],
      "stateMutability": "nonpayable",
      "type": "function"
    },
    {
      "inputs": [
        {
          "internalType": "address",
          "name": "from",
          "type": "address"
        },
        {
          "internalType": "address",
          "name": "to",
          "type": "address"
        },
        {
          "internalType": "uint256",
          "name": "id",
          "type": "uint256"
        },
        {
          "internalType": "uint256",
          "name": "amount",
          "type": "uint256"
        },
        {
          "internalType": "bytes",
          "name": "data",
          "type": "bytes"
        }
      ],
      "name": "safeTransferFrom",
      "outputs": [],
      "stateMutability": "nonpayable",
      "type": "function"
    },
    {
      "inputs": [
        {
          "internalType": "uint256",
          "name": "id",
          "type": "uint256"
        },
        {
          "internalType": "address",
          "name": "to",
          "type": "address"
        },
        {
          "internalType": "uint256",
          "name": "amount",
          "type": "uint256"
        },
        {
          "internalType": "uint256",
          "name": "minReceived",
          "type": "uint256"
        }
      ],
      "name": "sell",
      "outputs": [],
      "stateMutability": "nonpayable",
      "type": "function"
    },
    {
      "inputs": [
        {
          "internalType": "address",
          "name": "operator",
          "type": "address"
        },
        {
          "internalType": "bool",
          "name": "approved",
          "type": "bool"
        }
      ],
      "name": "setApprovalForAll",
      "outputs": [],
      "stateMutability": "nonpayable",
      "type": "function"
    },
    {
      "inputs": [
        {
          "internalType": "address",
          "name": "_delegate",
          "type": "address"
        },
        {
          "internalType": "bool",
          "name": "_isApproved",
          "type": "bool"
        }
      ],
      "name": "setDelegateApproval",
      "outputs": [],
      "stateMutability": "nonpayable",
      "type": "function"
    },
    {
      "inputs": [
        {
          "internalType": "uint256",
          "name": "id",
          "type": "uint256"
        },
        {
          "internalType": "string",
          "name": "tokenURI",
          "type": "string"
        }
      ],
      "name": "setTokenURI",
      "outputs": [],
      "stateMutability": "nonpayable",
      "type": "function"
    },
    {
      "inputs": [
        {
          "internalType": "uint256",
          "name": "id",
          "type": "uint256"
        }
      ],
      "name": "stepment",
      "outputs": [
        {
          "internalType": "uint256",
          "name": "",
          "type": "uint256"
        }
      ],
      "stateMutability": "view",
      "type": "function"
    },
    {
      "inputs": [
        {
          "internalType": "bytes4",
          "name": "interfaceId",
          "type": "bytes4"
        }
      ],
      "name": "supportsInterface",
      "outputs": [
        {
          "internalType": "bool",
          "name": "",
          "type": "bool"
        }
      ],
      "stateMutability": "view",
      "type": "function"
    },
    {
      "inputs": [
        {
          "internalType": "uint256",
          "name": "",
          "type": "uint256"
        }
      ],
      "name": "tokenURIs",
      "outputs": [
        {
          "internalType": "string",
          "name": "",
          "type": "string"
        }
      ],
      "stateMutability": "view",
      "type": "function"
    },
    {
      "inputs": [
        {
          "internalType": "uint256",
          "name": "id",
          "type": "uint256"
        }
      ],
      "name": "totalSupply",
      "outputs": [
        {
          "internalType": "uint256",
          "name": "",
          "type": "uint256"
        }
      ],
      "stateMutability": "view",
      "type": "function"
    },
    {
      "inputs": [
        {
          "internalType": "uint256",
          "name": "id",
          "type": "uint256"
        }
      ],
      "name": "uri",
      "outputs": [
        {
          "internalType": "string",
          "name": "",
          "type": "string"
        }
      ],
      "stateMutability": "view",
      "type": "function"
    },
    {
      "inputs": [
        {
          "internalType": "uint256",
          "name": "_k",
          "type": "uint256"
        },
        {
          "internalType": "uint256",
          "name": "_t",
          "type": "uint256"
        },
        {
          "internalType": "uint256",
          "name": "_fs",
          "type": "uint256"
        },
        {
          "internalType": "uint256",
          "name": "_f",
          "type": "uint256"
        }
      ],
      "name": "worth",
      "outputs": [
        {
          "internalType": "uint256",
          "name": "",
          "type": "uint256"
        }
      ],
      "stateMutability": "pure",
      "type": "function"
    },
    {
      "inputs": [
        {
          "internalType": "uint256",
          "name": "id",
          "type": "uint256"
        }
      ],
      "name": "worthOf",
      "outputs": [
        {
          "internalType": "uint256",
          "name": "",
          "type": "uint256"
        }
      ],
      "stateMutability": "view",
      "type": "function"
    },
    {
      "stateMutability": "payable",
      "type": "receive"
    }
  ],
  "transactionHash": "0xe2bac9698977041ed7472be7a3e10dc7208df567e6c9e003ebf5ee437c4f4f7c",
  "args": [],
  "numDeployments": 5,
  "solcInputHash": "6f3f18fb83281c881d7edb16231635ec",
  "bytecode": "0x608060405234801561001057600080fd5b506144a9806100206000396000f3fe6080604052600436106102a25760003560e01c80636c8b703f1161016e578063bd85b039116100cb578063cdb9c4eb1161007f578063f213edda11610064578063f213edda14610875578063f242432a14610895578063f740fd34146108b557600080fd5b8063cdb9c4eb1461080b578063e985e9c51461082c57600080fd5b8063c3c854b6116100b0578063c3c854b614610777578063c4d66de8146107cb578063c5464eb4146107eb57600080fd5b8063bd85b03914610737578063c0facbea1461075757600080fd5b806385bc692511610122578063a22cb46511610107578063a22cb465146106dc578063b233e056146106fc578063b4f40c611461071c57600080fd5b806385bc69251461069c57806391cca3db146106bc57600080fd5b80637272d03c116101535780637272d03c146106225780637ab58add1461064f578063810c37381461067c57600080fd5b80636c8b703f146105ef578063706910ff1461060f57600080fd5b80632eb2c2d61161021c578063504f5e56116101d0578063589a1743116101b5578063589a17431461056057806362585e92146105af578063666a27bb146105cf57600080fd5b8063504f5e56146105205780635770b2a21461054d57600080fd5b80634e1273f4116102015780634e1273f4146104ba5780634f558e79146104e7578063503e0a981461050757600080fd5b80632eb2c2d61461047e57806343a54a0c1461049e57600080fd5b806309501e6611610273578063162094c411610258578063162094c4146103da5780631930e825146103fc57806329bff6901461043857600080fd5b806309501e661461037f5780630e89341c146103ad57600080fd5b8062d92e39146102ae578062fdd58e146102ef57806301ffc9a71461030f57806308349b901461033f57600080fd5b366102a957005b600080fd5b3480156102ba57600080fd5b506102dc6102c9366004613a2c565b6000908152610100602052604090205490565b6040519081526020015b60405180910390f35b3480156102fb57600080fd5b506102dc61030a366004613a61565b6108d5565b34801561031b57600080fd5b5061032f61032a366004613abc565b6108ea565b60405190151581526020016102e6565b34801561034b57600080fd5b5061035f61035a366004613ae0565b6109cd565b6040805194855260208501939093529183015260608201526080016102e6565b34801561038b57600080fd5b506102dc61039a366004613a2c565b6000908152610101602052604090205490565b3480156103b957600080fd5b506103cd6103c8366004613a2c565b610acd565b6040516102e69190613b48565b3480156103e657600080fd5b506103fa6103f5366004613c12565b610b70565b005b34801561040857600080fd5b5061032f610417366004613c59565b61010260209081526000928352604080842090915290825290205460ff1681565b34801561044457600080fd5b5060fb546104659068010000000000000000900467ffffffffffffffff1681565b60405167ffffffffffffffff90911681526020016102e6565b34801561048a57600080fd5b506103fa610499366004613d21565b610c16565b3480156104aa57600080fd5b50610465670de0b6b3a764000081565b3480156104c657600080fd5b506104da6104d5366004613dcb565b610cb8565b6040516102e69190613ec7565b3480156104f357600080fd5b5061032f610502366004613a2c565b610df6565b34801561051357600080fd5b5061046564e8d4a5100081565b34801561052c57600080fd5b506102dc61053b366004613a2c565b600090815260fd602052604090205490565b6103fa61055b366004613eda565b610e0c565b34801561056c57600080fd5b5061059761057b366004613a2c565b600090815261010460205260409020546001600160a01b031690565b6040516001600160a01b0390911681526020016102e6565b3480156105bb57600080fd5b5061035f6105ca366004613f32565b610e8d565b3480156105db57600080fd5b5061035f6105ea366004613f32565b61108c565b3480156105fb57600080fd5b506103cd61060a366004613a2c565b611211565b6103fa61061d366004613f6d565b6112ac565b34801561062e57600080fd5b506102dc61063d366004613a2c565b60fe6020526000908152604090205481565b34801561065b57600080fd5b506102dc61066a366004613a2c565b60ff6020526000908152604090205481565b34801561068857600080fd5b506102dc610697366004613a2c565b6118f5565b3480156106a857600080fd5b5061035f6106b7366004613ae0565b611919565b3480156106c857600080fd5b5060fc54610597906001600160a01b031681565b3480156106e857600080fd5b506103fa6106f7366004613fa8565b6119b3565b34801561070857600080fd5b506103fa610717366004613f6d565b6119c2565b34801561072857600080fd5b5061046566071afd498d000081565b34801561074357600080fd5b506102dc610752366004613a2c565b611f4d565b34801561076357600080fd5b506102dc610772366004613fe4565b611f61565b34801561078357600080fd5b506103fa610792366004613fa8565b336000908152610102602090815260408083206001600160a01b0395909516835293905291909120805460ff1916911515919091179055565b3480156107d757600080fd5b506103fa6107e6366004614027565b61208e565b3480156107f757600080fd5b506102dc610806366004613a2c565b612213565b34801561081757600080fd5b5060fb546104659067ffffffffffffffff1681565b34801561083857600080fd5b5061032f610847366004613c59565b6001600160a01b03918216600090815260666020908152604080832093909416825291909152205460ff1690565b34801561088157600080fd5b506102dc610890366004614042565b61225a565b3480156108a157600080fd5b506103fa6108b0366004614074565b6122c3565b3480156108c157600080fd5b506102dc6108d0366004613f32565b61235e565b60006108e183836123aa565b90505b92915050565b60007fffffffff0000000000000000000000000000000000000000000000000000000082167fd9b67a2600000000000000000000000000000000000000000000000000000000148061097d57507fffffffff0000000000000000000000000000000000000000000000000000000082167f0e89341c00000000000000000000000000000000000000000000000000000000145b806108e457507f01ffc9a7000000000000000000000000000000000000000000000000000000007fffffffff000000000000000000000000000000000000000000000000000000008316146108e4565b6000806000806109dc86610df6565b610a2d5760405162461bcd60e51b815260206004820152601560248201527f48696b65723a206e6f6e6578697374656e74206964000000000000000000000060448201526064015b60405180910390fd5b66071afd498d00006000610a4088611f4d565b90506000610a4d896118f5565b60008a815260fd602052604090205490915080610aac5760405162461bcd60e51b815260206004820152601760248201527f48696b65723a207a65726f20666c6f6f722070726963650000000000000000006044820152606401610a24565b610ab9848484848d61108c565b929d919c509a509098509650505050505050565b600081815261010360205260409020805460609190610aeb906140d9565b80601f0160208091040260200160405190810160405280929190818152602001828054610b17906140d9565b8015610b645780601f10610b3957610100808354040283529160200191610b64565b820191906000526020600020905b815481529060010190602001808311610b4757829003601f168201915b50505050509050919050565b600082815261010460205260409020546001600160a01b031633811480610bbb57506001600160a01b03811660009081526101026020908152604080832033845290915290205460ff165b610c075760405162461bcd60e51b815260206004820152601560248201527f44656c6567617465206e6f7420617070726f76656400000000000000000000006044820152606401610a24565b610c118383612450565b505050565b6001600160a01b038516331480610c325750610c328533610847565b610ca45760405162461bcd60e51b815260206004820152602e60248201527f455243313135353a2063616c6c6572206973206e6f7420746f6b656e206f776e60448201527f6572206f7220617070726f7665640000000000000000000000000000000000006064820152608401610a24565b610cb1858585858561249b565b5050505050565b60608151835114610d315760405162461bcd60e51b815260206004820152602960248201527f455243313135353a206163636f756e747320616e6420696473206c656e67746860448201527f206d69736d6174636800000000000000000000000000000000000000000000006064820152608401610a24565b6000835167ffffffffffffffff811115610d4d57610d4d613b5b565b604051908082528060200260200182016040528015610d76578160200160208202803683370190505b50905060005b8451811015610dee57610dc1858281518110610d9a57610d9a614113565b6020026020010151858381518110610db457610db4614113565b60200260200101516108d5565b828281518110610dd357610dd3614113565b6020908102919091010152610de78161413f565b9050610d7c565b509392505050565b60008181526097602052604081205415156108e4565b610e1461274a565b804210610e635760405162461bcd60e51b815260206004820152600e60248201527f48696b65723a2074696d656f75740000000000000000000000000000000000006044820152606401610a24565b610e738484606460c8600a6127a3565b610e7d8483612450565b610e87600160c955565b50505050565b60008060008084881015610f095760405162461bcd60e51b815260206004820152603160248201527f48696b65723a2073656c6c20616d6f756e74206d757374206265206c6573732060448201527f7468616e20746f74616c20737570706c790000000000000000000000000000006064820152608401610a24565b868811610f2157610f1a8587614159565b9250611002565b86610f2c868a614170565b1115610f91576002610f3e8882614159565b86610f4a8b6002614159565b610f549190614170565b610f5e9190614170565b610f68908b614159565b610f73886002614159565b610f7d9190614183565b610f879087614159565b610f1a9190614196565b6000610f9d888a614170565b90506000610fab8288614170565b90506002610fc08366071afd498d0000614159565b610fcb8a6002614159565b610fd59190614183565b610fdf9084614159565b610fe99190614196565b610ff3828a614159565b610ffd9190614183565b945050505b60fb54670de0b6b3a7640000906110239067ffffffffffffffff1685614159565b61102d9190614196565b60fb54909250670de0b6b3a76400009061105d9068010000000000000000900467ffffffffffffffff1685614159565b6110679190614196565b9050806110748385614170565b61107e9190614170565b935095509550955095915050565b60008080808661109c868a614183565b116110b2576110ab8587614159565b9250611195565b868811156111195760026110c68882614159565b866110d28b6002614159565b6110dc9190614183565b6110e69190614170565b6110f0908b614159565b6110fb886002614159565b6111059190614183565b61110f9087614159565b6110ab9190614196565b60006111258989614170565b9050600088611134888c614183565b61113e9190614170565b905060026111538266071afd498d0000614159565b61115e8a6002614159565b6111689190614183565b6111729083614159565b61117c9190614196565b611186838a614159565b6111909190614183565b945050505b60fb54670de0b6b3a7640000906111b69067ffffffffffffffff1685614159565b6111c09190614196565b60fb54909250670de0b6b3a7640000906111f09068010000000000000000900467ffffffffffffffff1685614159565b6111fa9190614196565b9050806112078385614183565b61107e9190614183565b610103602052600090815260409020805461122b906140d9565b80601f0160208091040260200160405190810160405280929190818152602001828054611257906140d9565b80156112a45780601f10611279576101008083540402835291602001916112a4565b820191906000526020600020905b81548152906001019060200180831161128757829003601f168201915b505050505081565b6112b461274a565b600084815261010460205260409020546001600160a01b03166113195760405162461bcd60e51b815260206004820152601b60248201527f48696b65723a20746f6b656e206973206e6f74206372656174656400000000006044820152606401610a24565b6000821161138e5760405162461bcd60e51b8152602060048201526024808201527f48696b65723a20616d6f756e74206d757374206265206772656174657220746860448201527f616e2030000000000000000000000000000000000000000000000000000000006064820152608401610a24565b604080516101008101825285815266071afd498d0000602082015260009181016113b787611f4d565b81526020016113c5876118f5565b81526020016113e087600090815260fd602052604090205490565b81526020016113fc876000908152610100602052604090205490565b8152602001848152602001856001600160a01b0316815250905060008060008061143d85602001518660400151876060015188608001518960c0015161108c565b9350935093509350833410156114955760405162461bcd60e51b815260206004820181905260248201527f48696b65723a20696e73756666696369656e742066756e647320746f206275796044820152606401610a24565b8584111561150b5760405162461bcd60e51b815260206004820152603760248201527f48696b65723a2066756e6473206d757374206265206c657373207468616e206f60448201527f7220657175616c20746f206d6178696d756d2073656e740000000000000000006064820152608401610a24565b833411156115da576000336115208634614170565b604051600081818185875af1925050503d806000811461155c576040519150601f19603f3d011682016040523d82523d6000602084013e611561565b606091505b50509050806115d85760405162461bcd60e51b815260206004820152602160248201527f48696b65723a207472616e736665722066756e6473206261636b206661696c6560448201527f64000000000000000000000000000000000000000000000000000000000000006064820152608401610a24565b505b60fc546040516000916001600160a01b03169083908381818185875af1925050503d8060008114611627576040519150601f19603f3d011682016040523d82523d6000602084013e61162c565b606091505b50509050806116a35760405162461bcd60e51b815260206004820152602260248201527f48696b65723a206661696c656420746f207472616e736665722064657620666560448201527f65200000000000000000000000000000000000000000000000000000000000006064820152608401610a24565b8551600090815261010460205260409020546001600160a01b03166001600160a01b03168360405160006040518083038185875af1925050503d8060008114611708576040519150601f19603f3d011682016040523d82523d6000602084013e61170d565b606091505b505080915050806117865760405162461bcd60e51b815260206004820152602660248201527f48696b65723a206661696c656420746f207472616e736665722063726561746f60448201527f72206665652000000000000000000000000000000000000000000000000000006064820152608401610a24565b6040808701518751600090815260fe6020908152838220548a5183526101019091529281205460a08a015160c08b015192946117c694939092919061235e565b905060006117e6886020015189604001518a606001518b6080015161225a565b8851600090815260ff602052604090205490915082111561185d576040808901518951600090815260fe602052919091205460808a0151611839929190859061182f8b87614183565b8d60c00151611f61565b8851600090815260fd60209081526040808320939093558a51825260ff9052208290555b6118748860e0015189600001518a60c00151612dc9565b875160e0808a015160c0808c01516040805133815260208101969096526001600160a01b03909316858401526060850152608084018b905260a084018990528301879052517f12c4d1c4d79a304fbab32f712e8a64f5a799441611dba85c44ea807121cd76c99281900390910190a15050505050505050610e87600160c955565b600081815260ff602090815260408083205460fe9092528220546108e49190614183565b60008060008061192886610df6565b6119745760405162461bcd60e51b815260206004820152601560248201527f48696b65723a206e6f6e6578697374656e7420696400000000000000000000006044820152606401610a24565b66071afd498d0000600061198788611f4d565b90506000611994896118f5565b60008a815260fd6020526040902054909150610ab9848484848d610e8d565b6119be338383612e37565b5050565b6119ca61274a565b6119d384610df6565b611a1f5760405162461bcd60e51b815260206004820152601860248201527f48696b65723a206e6f6e6578736974656e7420746f6b656e00000000000000006044820152606401610a24565b60008211611a945760405162461bcd60e51b8152602060048201526024808201527f48696b65723a20616d6f756e74206d757374206265206772656174657220746860448201527f616e2030000000000000000000000000000000000000000000000000000000006064820152608401610a24565b6000611a9f85611f4d565b905082811015611b175760405162461bcd60e51b815260206004820152603760248201527f48696b653a20616d6f756e74206d757374206265206c657373207468616e206f60448201527f7220657175616c20746f20746f74616c20737570706c790000000000000000006064820152608401610a24565b600060405180610100016040528087815260200166071afd498d000067ffffffffffffffff168152602001838152602001611b51886118f5565b8152602001611b6c88600090815260fd602052604090205490565b8152602001611b88886000908152610100602052604090205490565b8152602001858152602001866001600160a01b031681525090506000806000611bc884602001518560400151866060015187608001518860c00151610e8d565b9350935050925085831015611c6b5760405162461bcd60e51b815260206004820152604760248201527f48696b65723a2072656365697665642076616c7565206d75737420626520677260448201527f6561746572207468616e206f7220657175616c20746f206d696e696d756d207260648201527f6563656976656400000000000000000000000000000000000000000000000000608482015260a401610a24565b611c7e3385600001518660c00151612f2b565b60008460e001516001600160a01b03168460405160006040518083038185875af1925050503d8060008114611ccf576040519150601f19603f3d011682016040523d82523d6000602084013e611cd4565b606091505b5050905080611d255760405162461bcd60e51b815260206004820152601c60248201527f48696b65723a207472616e736665722076616c7565206661696c6564000000006044820152606401610a24565b8451600090815261010460205260409020546001600160a01b03166001600160a01b03168360405160006040518083038185875af1925050503d8060008114611d8a576040519150601f19603f3d011682016040523d82523d6000602084013e611d8f565b606091505b50508091505080611e085760405162461bcd60e51b815260206004820152602660248201527f48696b65723a206661696c656420746f207472616e736665722063726561746f60448201527f72206665652000000000000000000000000000000000000000000000000000006064820152608401610a24565b60fc546040516001600160a01b03909116908390600081818185875af1925050503d8060008114611e55576040519150601f19603f3d011682016040523d82523d6000602084013e611e5a565b606091505b50508091505080611ed35760405162461bcd60e51b815260206004820152602160248201527f48696b65723a206661696c656420746f207472616e736665722064657620666560448201527f65000000000000000000000000000000000000000000000000000000000000006064820152608401610a24565b845160e086015160c0808801516040805133815260208101959095526001600160a01b039093168484015260608401526080830187905260a0830185905290517fc0a231a7f7212c406ebe9c01a92adbb7c3972729d6b23d0910d7e5359d901a399281900390910190a1505050505050610e87600160c955565b6000818152609760205260408120546108e4565b600080611f6e8688614183565b905080611f7b848a614183565b11611fc85760405162461bcd60e51b815260206004820152601160248201527f696e76616c696420706172616d657465720000000000000000000000000000006044820152606401610a24565b600081611fd5858b614183565b611fdf9190614170565b9050611feb848a614183565b611ff6906002614159565b816120088166071afd498d0000614159565b6120129190614159565b61201d876002614159565b6120279190614170565b6120319190614196565b92508583116120825760405162461bcd60e51b815260206004820152600d60248201527f696e76616c696420666c6f6f72000000000000000000000000000000000000006044820152606401610a24565b50509695505050505050565b600054610100900460ff16158080156120ae5750600054600160ff909116105b806120c85750303b1580156120c8575060005460ff166001145b61213a5760405162461bcd60e51b815260206004820152602e60248201527f496e697469616c697a61626c653a20636f6e747261637420697320616c72656160448201527f647920696e697469616c697a65640000000000000000000000000000000000006064820152608401610a24565b6000805460ff19166001179055801561215d576000805461ff0019166101001790555b60fc80547fffffffffffffffffffffffff0000000000000000000000000000000000000000166001600160a01b03841617905560fb80547fffffffffffffffffffffffffffffffff00000000000000000000000000000000166e58d15e176280000058d15e1762800017905580156119be576000805461ff0019169055604051600181527f7f26b83ff96e1f2b6a682f133852f6798a09c465da95921460cefb3847402498906020015b60405180910390a15050565b60008061221f83611f4d565b9050600061222c846118f5565b600085815260fd602052604090205490915061225166071afd498d000084848461225a565b95945050505050565b60008284116122745761226d8483614159565b90506122bb565b60006122808486614170565b905060028161228f8189614159565b6122999190614159565b6122a39190614196565b6122ad8685614159565b6122b79190614183565b9150505b949350505050565b6001600160a01b0385163314806122df57506122df8533610847565b6123515760405162461bcd60e51b815260206004820152602e60248201527f455243313135353a2063616c6c6572206973206e6f7420746f6b656e206f776e60448201527f6572206f7220617070726f7665640000000000000000000000000000000000006064820152608401610a24565b610cb18585858585612f36565b60008461236b8388614183565b1115612251576000838661237f858a614183565b6123899190614170565b6123939190614196565b905061239f8582614159565b979650505050505050565b60006001600160a01b0383166124285760405162461bcd60e51b815260206004820152602a60248201527f455243313135353a2061646472657373207a65726f206973206e6f742061207660448201527f616c6964206f776e6572000000000000000000000000000000000000000000006064820152608401610a24565b5060009081526065602090815260408083206001600160a01b03949094168352929052205490565b60008281526101036020526040902061246982826141fe565b507f931f495b9a8e5d8e61946ea5d61e021f636cfe213a801f97589c18c152e408bd82826040516122079291906142be565b81518351146125125760405162461bcd60e51b815260206004820152602860248201527f455243313135353a2069647320616e6420616d6f756e7473206c656e6774682060448201527f6d69736d617463680000000000000000000000000000000000000000000000006064820152608401610a24565b6001600160a01b03841661258e5760405162461bcd60e51b815260206004820152602560248201527f455243313135353a207472616e7366657220746f20746865207a65726f20616460448201527f64726573730000000000000000000000000000000000000000000000000000006064820152608401610a24565b3361259d81878787878761311e565b60005b84518110156126dc5760008582815181106125bd576125bd614113565b6020026020010151905060008583815181106125db576125db614113565b60209081029190910181015160008481526065835260408082206001600160a01b038e1683529093529190912054909150818110156126825760405162461bcd60e51b815260206004820152602a60248201527f455243313135353a20696e73756666696369656e742062616c616e636520666f60448201527f72207472616e73666572000000000000000000000000000000000000000000006064820152608401610a24565b60008381526065602090815260408083206001600160a01b038e8116855292528083208585039055908b168252812080548492906126c1908490614183565b92505081905550505050806126d59061413f565b90506125a0565b50846001600160a01b0316866001600160a01b0316826001600160a01b03167f4a39dc06d4c0dbc64b70af90fd698a233a518aa5d07e595d983b8c0526c8f7fb878760405161272c9291906142d7565b60405180910390a46127428187878787876132b5565b505050505050565b600260c9540361279c5760405162461bcd60e51b815260206004820152601f60248201527f5265656e7472616e637947756172643a207265656e7472616e742063616c6c006044820152606401610a24565b600260c955565b6127ac85610df6565b156127f95760405162461bcd60e51b815260206004820152601360248201527f48696b65723a20746f6b656e20657869737473000000000000000000000000006044820152606401610a24565b600085815261010460205260409020546001600160a01b03161561285f5760405162461bcd60e51b815260206004820152601760248201527f48696b65723a20746f6b656e20697320637265617465640000000000000000006044820152606401610a24565b64e8d4a510008410156128da5760405162461bcd60e51b815260206004820152603b60248201527f48696b65723a20666c6f6f72206d75737420626520677265617465722074686160448201527f6e206f7220657175616c20746f206d696e696d756d20666c6f6f7200000000006064820152608401610a24565b600083116129765760405162461bcd60e51b815260206004820152604960248201527f48696b65723a20666c6f6f7220737570706c79206d757374206265206772656160448201527f746572207468616e206f7220657175616c20746f206d696e696d756d20666c6f60648201527f6f7220737570706c790000000000000000000000000000000000000000000000608482015260a401610a24565b600082116129ec5760405162461bcd60e51b815260206004820152602960248201527f48696b65723a2061646a7573742073746570206d75737420677265617465722060448201527f7468616e207a65726f00000000000000000000000000000000000000000000006064820152608401610a24565b60008111612a615760405162461bcd60e51b8152602060048201526024808201527f48696b65723a20667353746570206d7573742067726561746572207468616e2060448201527f7a65726f000000000000000000000000000000000000000000000000000000006064820152608401610a24565b818110612ad55760405162461bcd60e51b8152602060048201526024808201527f48696b65723a20667353746570206d757374206265206c657373207468616e2060448201527f73746570000000000000000000000000000000000000000000000000000000006064820152608401610a24565b60fb54600090670de0b6b3a764000090612b059068010000000000000000900467ffffffffffffffff1687614159565b612b0f9190614196565b9050612b1b8186614183565b341015612b905760405162461bcd60e51b815260206004820152602360248201527f48696b65723a20696e73756666696369656e742066756e647320746f2063726560448201527f61746500000000000000000000000000000000000000000000000000000000006064820152608401610a24565b612b9a8186614183565b341115612c735760003382612baf8834614170565b612bb99190614170565b604051600081818185875af1925050503d8060008114612bf5576040519150601f19603f3d011682016040523d82523d6000602084013e612bfa565b606091505b5050905080612c715760405162461bcd60e51b815260206004820152602160248201527f48696b65723a207472616e736665722066756e6473206261636b206661696c6560448201527f64000000000000000000000000000000000000000000000000000000000000006064820152608401610a24565b505b60fc546040516000916001600160a01b03169083908381818185875af1925050503d8060008114612cc0576040519150601f19603f3d011682016040523d82523d6000602084013e612cc5565b606091505b5050905080612d165760405162461bcd60e51b815260206004820152601d60248201527f48696b65723a206661696c656420746f207265636569766520666565200000006044820152606401610a24565b612d2087336134b9565b612d2c33886001612dc9565b600087815260fd6020908152604080832089905560fe825280832088905561010080835281842088905561010183529281902086905580513381529182018a90528101889052606081018790526080810186905260a0810185905260c0810188905260e081018490527f460cf3f1c0e37440b24f7a57d7c52f04ca2f3df751bcb4097d4a9e383b1a2477910160405180910390a150505050505050565b60008111612e195760405162461bcd60e51b815260206004820152601160248201527f4d6f73733a207a65726f20616d6f756e740000000000000000000000000000006044820152606401610a24565b604080516000815260208101909152610c1190849084908490613587565b816001600160a01b0316836001600160a01b031603612ebe5760405162461bcd60e51b815260206004820152602960248201527f455243313135353a2073657474696e6720617070726f76616c2073746174757360448201527f20666f722073656c6600000000000000000000000000000000000000000000006064820152608401610a24565b6001600160a01b03838116600081815260666020908152604080832094871680845294825291829020805460ff191686151590811790915591519182527f17307eab39ab6107e8899845ad3d59bd9653f200f220920489ca2b5937696c31910160405180910390a3505050565b610c118383836136bf565b6001600160a01b038416612fb25760405162461bcd60e51b815260206004820152602560248201527f455243313135353a207472616e7366657220746f20746865207a65726f20616460448201527f64726573730000000000000000000000000000000000000000000000000000006064820152608401610a24565b336000612fbe85613886565b90506000612fcb85613886565b9050612fdb83898985858961311e565b60008681526065602090815260408083206001600160a01b038c168452909152902054858110156130745760405162461bcd60e51b815260206004820152602a60248201527f455243313135353a20696e73756666696369656e742062616c616e636520666f60448201527f72207472616e73666572000000000000000000000000000000000000000000006064820152608401610a24565b60008781526065602090815260408083206001600160a01b038d8116855292528083208985039055908a168252812080548892906130b3908490614183565b909155505060408051888152602081018890526001600160a01b03808b16928c821692918816917fc3d58168c5ae7397731d063d5bbf3d657854427343f4c083240f7aacaa2d0f62910160405180910390a4613113848a8a8a8a8a6138d1565b505050505050505050565b6001600160a01b0385166131a55760005b83518110156131a35782818151811061314a5761314a614113565b60200260200101516097600086848151811061316857613168614113565b60200260200101518152602001908152602001600020600082825461318d9190614183565b9091555061319c90508161413f565b905061312f565b505b6001600160a01b0384166127425760005b83518110156132ac5760008482815181106131d3576131d3614113565b6020026020010151905060008483815181106131f1576131f1614113565b60200260200101519050600060976000848152602001908152602001600020549050818110156132895760405162461bcd60e51b815260206004820152602860248201527f455243313135353a206275726e20616d6f756e74206578636565647320746f7460448201527f616c537570706c790000000000000000000000000000000000000000000000006064820152608401610a24565b600092835260976020526040909220910390556132a58161413f565b90506131b6565b50505050505050565b6001600160a01b0384163b15612742576040517fbc197c810000000000000000000000000000000000000000000000000000000081526001600160a01b0385169063bc197c819061331290899089908890889088906004016142fc565b6020604051808303816000875af192505050801561334d575060408051601f3d908101601f1916820190925261334a9181019061435a565b60015b61340257613359614377565b806308c379a003613392575061336d614393565b806133785750613394565b8060405162461bcd60e51b8152600401610a249190613b48565b505b60405162461bcd60e51b815260206004820152603460248201527f455243313135353a207472616e7366657220746f206e6f6e2d4552433131353560448201527f526563656976657220696d706c656d656e7465720000000000000000000000006064820152608401610a24565b7fffffffff0000000000000000000000000000000000000000000000000000000081167fbc197c8100000000000000000000000000000000000000000000000000000000146132ac5760405162461bcd60e51b815260206004820152602860248201527f455243313135353a204552433131353552656365697665722072656a6563746560448201527f6420746f6b656e730000000000000000000000000000000000000000000000006064820152608401610a24565b6134c282610df6565b1561350f5760405162461bcd60e51b815260206004820152601260248201527f4d6f73733a20746f6b656e2065786973747300000000000000000000000000006044820152606401610a24565b6000828152610104602090815260409182902080547fffffffffffffffffffffffff0000000000000000000000000000000000000000166001600160a01b0385169081179091558251858152918201527fc0186d9ba7364ebd80a7010121367f481af81e1028bf368b2172fedf2c6fc7de9101612207565b6001600160a01b0384166136035760405162461bcd60e51b815260206004820152602160248201527f455243313135353a206d696e7420746f20746865207a65726f2061646472657360448201527f73000000000000000000000000000000000000000000000000000000000000006064820152608401610a24565b33600061360f85613886565b9050600061361c85613886565b905061362d8360008985858961311e565b60008681526065602090815260408083206001600160a01b038b1684529091528120805487929061365f908490614183565b909155505060408051878152602081018790526001600160a01b03808a1692600092918716917fc3d58168c5ae7397731d063d5bbf3d657854427343f4c083240f7aacaa2d0f62910160405180910390a46132ac836000898989896138d1565b6001600160a01b03831661373b5760405162461bcd60e51b815260206004820152602360248201527f455243313135353a206275726e2066726f6d20746865207a65726f206164647260448201527f65737300000000000000000000000000000000000000000000000000000000006064820152608401610a24565b33600061374784613886565b9050600061375484613886565b90506137748387600085856040518060200160405280600081525061311e565b60008581526065602090815260408083206001600160a01b038a1684529091529020548481101561380c5760405162461bcd60e51b8152602060048201526024808201527f455243313135353a206275726e20616d6f756e7420657863656564732062616c60448201527f616e6365000000000000000000000000000000000000000000000000000000006064820152608401610a24565b60008681526065602090815260408083206001600160a01b038b81168086529184528285208a8703905582518b81529384018a90529092908816917fc3d58168c5ae7397731d063d5bbf3d657854427343f4c083240f7aacaa2d0f62910160405180910390a46040805160208101909152600090526132ac565b604080516001808252818301909252606091600091906020808301908036833701905050905082816000815181106138c0576138c0614113565b602090810291909101015292915050565b6001600160a01b0384163b15612742576040517ff23a6e610000000000000000000000000000000000000000000000000000000081526001600160a01b0385169063f23a6e619061392e908990899088908890889060040161443b565b6020604051808303816000875af1925050508015613969575060408051601f3d908101601f191682019092526139669181019061435a565b60015b61397557613359614377565b7fffffffff0000000000000000000000000000000000000000000000000000000081167ff23a6e6100000000000000000000000000000000000000000000000000000000146132ac5760405162461bcd60e51b815260206004820152602860248201527f455243313135353a204552433131353552656365697665722072656a6563746560448201527f6420746f6b656e730000000000000000000000000000000000000000000000006064820152608401610a24565b600060208284031215613a3e57600080fd5b5035919050565b80356001600160a01b0381168114613a5c57600080fd5b919050565b60008060408385031215613a7457600080fd5b613a7d83613a45565b946020939093013593505050565b7fffffffff0000000000000000000000000000000000000000000000000000000081168114613ab957600080fd5b50565b600060208284031215613ace57600080fd5b8135613ad981613a8b565b9392505050565b60008060408385031215613af357600080fd5b50508035926020909101359150565b6000815180845260005b81811015613b2857602081850181015186830182015201613b0c565b506000602082860101526020601f19601f83011685010191505092915050565b6020815260006108e16020830184613b02565b634e487b7160e01b600052604160045260246000fd5b601f19601f830116810181811067ffffffffffffffff82111715613b9757613b97613b5b565b6040525050565b600082601f830112613baf57600080fd5b813567ffffffffffffffff811115613bc957613bc9613b5b565b604051613be06020601f19601f8501160182613b71565b818152846020838601011115613bf557600080fd5b816020850160208301376000918101602001919091529392505050565b60008060408385031215613c2557600080fd5b82359150602083013567ffffffffffffffff811115613c4357600080fd5b613c4f85828601613b9e565b9150509250929050565b60008060408385031215613c6c57600080fd5b613c7583613a45565b9150613c8360208401613a45565b90509250929050565b600067ffffffffffffffff821115613ca657613ca6613b5b565b5060051b60200190565b600082601f830112613cc157600080fd5b81356020613cce82613c8c565b604051613cdb8282613b71565b83815260059390931b8501820192828101915086841115613cfb57600080fd5b8286015b84811015613d165780358352918301918301613cff565b509695505050505050565b600080600080600060a08688031215613d3957600080fd5b613d4286613a45565b9450613d5060208701613a45565b9350604086013567ffffffffffffffff80821115613d6d57600080fd5b613d7989838a01613cb0565b94506060880135915080821115613d8f57600080fd5b613d9b89838a01613cb0565b93506080880135915080821115613db157600080fd5b50613dbe88828901613b9e565b9150509295509295909350565b60008060408385031215613dde57600080fd5b823567ffffffffffffffff80821115613df657600080fd5b818501915085601f830112613e0a57600080fd5b81356020613e1782613c8c565b604051613e248282613b71565b83815260059390931b8501820192828101915089841115613e4457600080fd5b948201945b83861015613e6957613e5a86613a45565b82529482019490820190613e49565b96505086013592505080821115613e7f57600080fd5b50613c4f85828601613cb0565b600081518084526020808501945080840160005b83811015613ebc57815187529582019590820190600101613ea0565b509495945050505050565b6020815260006108e16020830184613e8c565b60008060008060808587031215613ef057600080fd5b8435935060208501359250604085013567ffffffffffffffff811115613f1557600080fd5b613f2187828801613b9e565b949793965093946060013593505050565b600080600080600060a08688031215613f4a57600080fd5b505083359560208501359550604085013594606081013594506080013592509050565b60008060008060808587031215613f8357600080fd5b84359350613f9360208601613a45565b93969395505050506040820135916060013590565b60008060408385031215613fbb57600080fd5b613fc483613a45565b915060208301358015158114613fd957600080fd5b809150509250929050565b60008060008060008060c08789031215613ffd57600080fd5b505084359660208601359650604086013595606081013595506080810135945060a0013592509050565b60006020828403121561403957600080fd5b6108e182613a45565b6000806000806080858703121561405857600080fd5b5050823594602084013594506040840135936060013592509050565b600080600080600060a0868803121561408c57600080fd5b61409586613a45565b94506140a360208701613a45565b93506040860135925060608601359150608086013567ffffffffffffffff8111156140cd57600080fd5b613dbe88828901613b9e565b600181811c908216806140ed57607f821691505b60208210810361410d57634e487b7160e01b600052602260045260246000fd5b50919050565b634e487b7160e01b600052603260045260246000fd5b634e487b7160e01b600052601160045260246000fd5b6000600019820361415257614152614129565b5060010190565b80820281158282048414176108e4576108e4614129565b818103818111156108e4576108e4614129565b808201808211156108e4576108e4614129565b6000826141b357634e487b7160e01b600052601260045260246000fd5b500490565b601f821115610c1157600081815260208120601f850160051c810160208610156141df5750805b601f850160051c820191505b81811015612742578281556001016141eb565b815167ffffffffffffffff81111561421857614218613b5b565b61422c8161422684546140d9565b846141b8565b602080601f83116001811461426157600084156142495750858301515b600019600386901b1c1916600185901b178555612742565b600085815260208120601f198616915b8281101561429057888601518255948401946001909101908401614271565b50858210156142ae5787850151600019600388901b60f8161c191681555b5050505050600190811b01905550565b8281526040602082015260006122bb6040830184613b02565b6040815260006142ea6040830185613e8c565b82810360208401526122518185613e8c565b60006001600160a01b03808816835280871660208401525060a0604083015261432860a0830186613e8c565b828103606084015261433a8186613e8c565b9050828103608084015261434e8185613b02565b98975050505050505050565b60006020828403121561436c57600080fd5b8151613ad981613a8b565b600060033d11156143905760046000803e5060005160e01c5b90565b600060443d10156143a15790565b6040517ffffffffffffffffffffffffffffffffffffffffffffffffffffffffffffffffc803d016004833e81513d67ffffffffffffffff81602484011181841117156143ef57505050505090565b82850191508151818111156144075750505050505090565b843d87010160208285010111156144215750505050505090565b61443060208286010187613b71565b509095945050505050565b60006001600160a01b03808816835280871660208401525084604083015283606083015260a0608083015261239f60a0830184613b0256fea2646970667358221220c0a52628d544d5f85f9e9680f33190ac18f0912fb810ee25ab84ea4c8db8bce964736f6c63430008130033",
  "devdoc": {
    "events": {
      "ApprovalForAll(address,address,bool)": {
        "details": "Emitted when `account` grants or revokes permission to `operator` to transfer their tokens, according to `approved`."
      },
      "Initialized(uint8)": {
        "details": "Triggered when the contract has been initialized or reinitialized."
      },
      "TransferBatch(address,address,address,uint256[],uint256[])": {
        "details": "Equivalent to multiple {TransferSingle} events, where `operator`, `from` and `to` are the same for all transfers."
      },
      "TransferSingle(address,address,address,uint256,uint256)": {
        "details": "Emitted when `value` tokens of token type `id` are transferred from `from` to `to` by `operator`."
      },
      "URI(string,uint256)": {
        "details": "Emitted when the URI for token type `id` changes to `value`, if it is a non-programmatic URI. If an {URI} event was emitted for `id`, the standard https://eips.ethereum.org/EIPS/eip-1155#metadata-extensions[guarantees] that `value` will equal the value returned by {IERC1155MetadataURI-uri}."
      }
    },
    "kind": "dev",
    "methods": {
      "balanceOfBatch(address[],uint256[])": {
        "details": "See {IERC1155-balanceOfBatch}. Requirements: - `accounts` and `ids` must have the same length."
      },
      "isApprovedForAll(address,address)": {
        "details": "See {IERC1155-isApprovedForAll}."
      },
      "safeBatchTransferFrom(address,address,uint256[],uint256[],bytes)": {
        "details": "See {IERC1155-safeBatchTransferFrom}."
      },
      "safeTransferFrom(address,address,uint256,uint256,bytes)": {
        "details": "See {IERC1155-safeTransferFrom}."
      },
      "setApprovalForAll(address,bool)": {
        "details": "See {IERC1155-setApprovalForAll}."
      },
      "supportsInterface(bytes4)": {
        "details": "See {IERC165-supportsInterface}."
      }
    },
    "version": 1
  },
  "userdoc": {
    "kind": "user",
    "methods": {},
    "version": 1
  },
  "storageLayout": {
    "storage": [
      {
        "astId": 6,
        "contract": "contracts/core/Moss.sol:Moss",
        "label": "_initialized",
        "offset": 0,
        "slot": "0",
        "type": "t_uint8"
      },
      {
        "astId": 9,
        "contract": "contracts/core/Moss.sol:Moss",
        "label": "_initializing",
        "offset": 1,
        "slot": "0",
        "type": "t_bool"
      },
      {
        "astId": 2223,
        "contract": "contracts/core/Moss.sol:Moss",
        "label": "__gap",
        "offset": 0,
        "slot": "1",
        "type": "t_array(t_uint256)50_storage"
      },
      {
        "astId": 2267,
        "contract": "contracts/core/Moss.sol:Moss",
        "label": "__gap",
        "offset": 0,
        "slot": "51",
        "type": "t_array(t_uint256)50_storage"
      },
      {
        "astId": 281,
        "contract": "contracts/core/Moss.sol:Moss",
        "label": "_balances",
        "offset": 0,
        "slot": "101",
        "type": "t_mapping(t_uint256,t_mapping(t_address,t_uint256))"
      },
      {
        "astId": 287,
        "contract": "contracts/core/Moss.sol:Moss",
        "label": "_operatorApprovals",
        "offset": 0,
        "slot": "102",
        "type": "t_mapping(t_address,t_mapping(t_address,t_bool))"
      },
      {
        "astId": 289,
        "contract": "contracts/core/Moss.sol:Moss",
        "label": "_uri",
        "offset": 0,
        "slot": "103",
        "type": "t_string_storage"
      },
      {
        "astId": 1496,
        "contract": "contracts/core/Moss.sol:Moss",
        "label": "__gap",
        "offset": 0,
        "slot": "104",
        "type": "t_array(t_uint256)47_storage"
      },
      {
        "astId": 1685,
        "contract": "contracts/core/Moss.sol:Moss",
        "label": "_totalSupply",
        "offset": 0,
        "slot": "151",
        "type": "t_mapping(t_uint256,t_uint256)"
      },
      {
        "astId": 1836,
        "contract": "contracts/core/Moss.sol:Moss",
        "label": "__gap",
        "offset": 0,
        "slot": "152",
        "type": "t_array(t_uint256)49_storage"
      },
      {
        "astId": 182,
        "contract": "contracts/core/Moss.sol:Moss",
        "label": "_status",
        "offset": 0,
        "slot": "201",
        "type": "t_uint256"
      },
      {
        "astId": 251,
        "contract": "contracts/core/Moss.sol:Moss",
        "label": "__gap",
        "offset": 0,
        "slot": "202",
        "type": "t_array(t_uint256)49_storage"
      },
      {
        "astId": 2300,
        "contract": "contracts/core/Moss.sol:Moss",
        "label": "defaultCreatorFeePCT",
        "offset": 0,
        "slot": "251",
        "type": "t_uint64"
      },
      {
        "astId": 2302,
        "contract": "contracts/core/Moss.sol:Moss",
        "label": "devFeePCT",
        "offset": 8,
        "slot": "251",
        "type": "t_uint64"
      },
      {
        "astId": 2304,
        "contract": "contracts/core/Moss.sol:Moss",
        "label": "dev",
        "offset": 0,
        "slot": "252",
        "type": "t_address"
      },
      {
        "astId": 2308,
        "contract": "contracts/core/Moss.sol:Moss",
        "label": "f",
        "offset": 0,
        "slot": "253",
        "type": "t_mapping(t_uint256,t_uint256)"
      },
      {
        "astId": 2312,
        "contract": "contracts/core/Moss.sol:Moss",
        "label": "fs",
        "offset": 0,
        "slot": "254",
        "type": "t_mapping(t_uint256,t_uint256)"
      },
      {
        "astId": 2316,
        "contract": "contracts/core/Moss.sol:Moss",
        "label": "fsIncr",
        "offset": 0,
        "slot": "255",
        "type": "t_mapping(t_uint256,t_uint256)"
      },
      {
        "astId": 2320,
        "contract": "contracts/core/Moss.sol:Moss",
        "label": "step",
        "offset": 0,
        "slot": "256",
        "type": "t_mapping(t_uint256,t_uint256)"
      },
      {
        "astId": 2324,
        "contract": "contracts/core/Moss.sol:Moss",
        "label": "fsStep",
        "offset": 0,
        "slot": "257",
        "type": "t_mapping(t_uint256,t_uint256)"
      },
      {
        "astId": 3878,
        "contract": "contracts/core/Moss.sol:Moss",
        "label": "isApprovedDelegate",
        "offset": 0,
        "slot": "258",
        "type": "t_mapping(t_address,t_mapping(t_address,t_bool))"
      },
      {
        "astId": 3654,
        "contract": "contracts/core/Moss.sol:Moss",
        "label": "tokenURIs",
        "offset": 0,
        "slot": "259",
        "type": "t_mapping(t_uint256,t_string_storage)"
      },
      {
        "astId": 3658,
        "contract": "contracts/core/Moss.sol:Moss",
        "label": "creators",
        "offset": 0,
        "slot": "260",
        "type": "t_mapping(t_uint256,t_address)"
      }
    ],
    "types": {
      "t_address": {
        "encoding": "inplace",
        "label": "address",
        "numberOfBytes": "20"
      },
      "t_array(t_uint256)47_storage": {
        "base": "t_uint256",
        "encoding": "inplace",
        "label": "uint256[47]",
        "numberOfBytes": "1504"
      },
      "t_array(t_uint256)49_storage": {
        "base": "t_uint256",
        "encoding": "inplace",
        "label": "uint256[49]",
        "numberOfBytes": "1568"
      },
      "t_array(t_uint256)50_storage": {
        "base": "t_uint256",
        "encoding": "inplace",
        "label": "uint256[50]",
        "numberOfBytes": "1600"
      },
      "t_bool": {
        "encoding": "inplace",
        "label": "bool",
        "numberOfBytes": "1"
      },
      "t_mapping(t_address,t_bool)": {
        "encoding": "mapping",
        "key": "t_address",
        "label": "mapping(address => bool)",
        "numberOfBytes": "32",
        "value": "t_bool"
      },
      "t_mapping(t_address,t_mapping(t_address,t_bool))": {
        "encoding": "mapping",
        "key": "t_address",
        "label": "mapping(address => mapping(address => bool))",
        "numberOfBytes": "32",
        "value": "t_mapping(t_address,t_bool)"
      },
      "t_mapping(t_address,t_uint256)": {
        "encoding": "mapping",
        "key": "t_address",
        "label": "mapping(address => uint256)",
        "numberOfBytes": "32",
        "value": "t_uint256"
      },
      "t_mapping(t_uint256,t_address)": {
        "encoding": "mapping",
        "key": "t_uint256",
        "label": "mapping(uint256 => address)",
        "numberOfBytes": "32",
        "value": "t_address"
      },
      "t_mapping(t_uint256,t_mapping(t_address,t_uint256))": {
        "encoding": "mapping",
        "key": "t_uint256",
        "label": "mapping(uint256 => mapping(address => uint256))",
        "numberOfBytes": "32",
        "value": "t_mapping(t_address,t_uint256)"
      },
      "t_mapping(t_uint256,t_string_storage)": {
        "encoding": "mapping",
        "key": "t_uint256",
        "label": "mapping(uint256 => string)",
        "numberOfBytes": "32",
        "value": "t_string_storage"
      },
      "t_mapping(t_uint256,t_uint256)": {
        "encoding": "mapping",
        "key": "t_uint256",
        "label": "mapping(uint256 => uint256)",
        "numberOfBytes": "32",
        "value": "t_uint256"
      },
      "t_string_storage": {
        "encoding": "bytes",
        "label": "string",
        "numberOfBytes": "32"
      },
      "t_uint256": {
        "encoding": "inplace",
        "label": "uint256",
        "numberOfBytes": "32"
      },
      "t_uint64": {
        "encoding": "inplace",
        "label": "uint64",
        "numberOfBytes": "8"
      },
      "t_uint8": {
        "encoding": "inplace",
        "label": "uint8",
        "numberOfBytes": "1"
      }
    }
  }
}