{
  "address": "0xF3aa4dc2CDDB3b7fD19dC6b13D880822b48a8405",
  "abi": [
    {
      "anonymous": false,
      "inputs": [
        {
          "indexed": true,
          "internalType": "address",
          "name": "account",
          "type": "address"
        },
        {
          "indexed": true,
          "internalType": "address",
          "name": "operator",
          "type": "address"
        },
        {
          "indexed": false,
          "internalType": "bool",
          "name": "approved",
          "type": "bool"
        }
      ],
      "name": "ApprovalForAll",
      "type": "event"
    },
    {
      "anonymous": false,
      "inputs": [
        {
          "indexed": false,
          "internalType": "address",
          "name": "from",
          "type": "address"
        },
        {
          "indexed": false,
          "internalType": "uint256",
          "name": "id",
          "type": "uint256"
        },
        {
          "indexed": false,
          "internalType": "address",
          "name": "to",
          "type": "address"
        },
        {
          "indexed": false,
          "internalType": "uint256",
          "name": "amount",
          "type": "uint256"
        },
        {
          "indexed": false,
          "internalType": "uint256",
          "name": "value",
          "type": "uint256"
        },
        {
          "indexed": false,
          "internalType": "uint256",
          "name": "creatorFee",
          "type": "uint256"
        },
        {
          "indexed": false,
          "internalType": "uint256",
          "name": "devFee",
          "type": "uint256"
        }
      ],
      "name": "Burnt",
      "type": "event"
    },
    {
      "anonymous": false,
      "inputs": [
        {
          "indexed": false,
          "internalType": "address",
          "name": "from",
          "type": "address"
        },
        {
          "indexed": false,
          "internalType": "uint256",
          "name": "id",
          "type": "uint256"
        },
        {
          "indexed": false,
          "internalType": "uint256",
          "name": "_f",
          "type": "uint256"
        },
        {
          "indexed": false,
          "internalType": "uint256",
          "name": "_fs",
          "type": "uint256"
        },
        {
          "indexed": false,
          "internalType": "uint256",
          "name": "_s",
          "type": "uint256"
        },
        {
          "indexed": false,
          "internalType": "uint256",
          "name": "_tar",
          "type": "uint256"
        },
        {
          "indexed": false,
          "internalType": "uint256",
          "name": "value",
          "type": "uint256"
        },
        {
          "indexed": false,
          "internalType": "uint256",
          "name": "devFee",
          "type": "uint256"
        }
      ],
      "name": "Created",
      "type": "event"
    },
    {
      "anonymous": false,
      "inputs": [
        {
          "indexed": false,
          "internalType": "uint256",
          "name": "id",
          "type": "uint256"
        },
        {
          "indexed": false,
          "internalType": "address",
          "name": "creator",
          "type": "address"
        }
      ],
      "name": "CreatorUpdated",
      "type": "event"
    },
    {
      "anonymous": false,
      "inputs": [
        {
          "indexed": false,
          "internalType": "uint8",
          "name": "version",
          "type": "uint8"
        }
      ],
      "name": "Initialized",
      "type": "event"
    },
    {
      "anonymous": false,
      "inputs": [
        {
          "indexed": false,
          "internalType": "address",
          "name": "from",
          "type": "address"
        },
        {
          "indexed": false,
          "internalType": "uint256",
          "name": "id",
          "type": "uint256"
        },
        {
          "indexed": false,
          "internalType": "address",
          "name": "to",
          "type": "address"
        },
        {
          "indexed": false,
          "internalType": "uint256",
          "name": "amount",
          "type": "uint256"
        },
        {
          "indexed": false,
          "internalType": "uint256",
          "name": "value",
          "type": "uint256"
        },
        {
          "indexed": false,
          "internalType": "uint256",
          "name": "creatorFee",
          "type": "uint256"
        },
        {
          "indexed": false,
          "internalType": "uint256",
          "name": "devFee",
          "type": "uint256"
        }
      ],
      "name": "Minted",
      "type": "event"
    },
    {
      "anonymous": false,
      "inputs": [
        {
          "indexed": false,
          "internalType": "uint256",
          "name": "id",
          "type": "uint256"
        },
        {
          "indexed": false,
          "internalType": "string",
          "name": "name",
          "type": "string"
        }
      ],
      "name": "StoneNameUpdated",
      "type": "event"
    },
    {
      "anonymous": false,
      "inputs": [
        {
          "indexed": true,
          "internalType": "address",
          "name": "operator",
          "type": "address"
        },
        {
          "indexed": true,
          "internalType": "address",
          "name": "from",
          "type": "address"
        },
        {
          "indexed": true,
          "internalType": "address",
          "name": "to",
          "type": "address"
        },
        {
          "indexed": false,
          "internalType": "uint256[]",
          "name": "ids",
          "type": "uint256[]"
        },
        {
          "indexed": false,
          "internalType": "uint256[]",
          "name": "values",
          "type": "uint256[]"
        }
      ],
      "name": "TransferBatch",
      "type": "event"
    },
    {
      "anonymous": false,
      "inputs": [
        {
          "indexed": true,
          "internalType": "address",
          "name": "operator",
          "type": "address"
        },
        {
          "indexed": true,
          "internalType": "address",
          "name": "from",
          "type": "address"
        },
        {
          "indexed": true,
          "internalType": "address",
          "name": "to",
          "type": "address"
        },
        {
          "indexed": false,
          "internalType": "uint256",
          "name": "id",
          "type": "uint256"
        },
        {
          "indexed": false,
          "internalType": "uint256",
          "name": "value",
          "type": "uint256"
        }
      ],
      "name": "TransferSingle",
      "type": "event"
    },
    {
      "anonymous": false,
      "inputs": [
        {
          "indexed": false,
          "internalType": "string",
          "name": "value",
          "type": "string"
        },
        {
          "indexed": true,
          "internalType": "uint256",
          "name": "id",
          "type": "uint256"
        }
      ],
      "name": "URI",
      "type": "event"
    },
    {
      "inputs": [],
      "name": "PRECISIONDECIMALS",
      "outputs": [
        {
          "internalType": "uint64",
          "name": "",
          "type": "uint64"
        }
      ],
      "stateMutability": "view",
      "type": "function"
    },
    {
      "inputs": [
        {
          "internalType": "uint256",
          "name": "_t",
          "type": "uint256"
        },
        {
          "internalType": "uint256",
          "name": "_fs",
          "type": "uint256"
        },
        {
          "internalType": "uint256",
          "name": "_fsStep",
          "type": "uint256"
        },
        {
          "internalType": "uint256",
          "name": "_step",
          "type": "uint256"
        },
        {
          "internalType": "uint256",
          "name": "amount",
          "type": "uint256"
        }
      ],
      "name": "adjustment",
      "outputs": [
        {
          "internalType": "uint256",
          "name": "_fsIncr",
          "type": "uint256"
        }
      ],
      "stateMutability": "pure",
      "type": "function"
    },
    {
      "inputs": [
        {
          "internalType": "address",
          "name": "account",
          "type": "address"
        },
        {
          "internalType": "uint256",
          "name": "id",
          "type": "uint256"
        }
      ],
      "name": "balanceOf",
      "outputs": [
        {
          "internalType": "uint256",
          "name": "",
          "type": "uint256"
        }
      ],
      "stateMutability": "view",
      "type": "function"
    },
    {
      "inputs": [
        {
          "internalType": "address[]",
          "name": "accounts",
          "type": "address[]"
        },
        {
          "internalType": "uint256[]",
          "name": "ids",
          "type": "uint256[]"
        }
      ],
      "name": "balanceOfBatch",
      "outputs": [
        {
          "internalType": "uint256[]",
          "name": "",
          "type": "uint256[]"
        }
      ],
      "stateMutability": "view",
      "type": "function"
    },
    {
      "inputs": [
        {
          "internalType": "uint256",
          "name": "id",
          "type": "uint256"
        },
        {
          "internalType": "address",
          "name": "to",
          "type": "address"
        },
        {
          "internalType": "uint256",
          "name": "amount",
          "type": "uint256"
        },
        {
          "internalType": "uint256",
          "name": "minReceived",
          "type": "uint256"
        }
      ],
      "name": "burn",
      "outputs": [],
      "stateMutability": "nonpayable",
      "type": "function"
    },
    {
      "inputs": [
        {
          "internalType": "uint256",
          "name": "id",
          "type": "uint256"
        },
        {
          "internalType": "uint256",
          "name": "_f",
          "type": "uint256"
        },
        {
          "internalType": "uint256",
          "name": "_fs",
          "type": "uint256"
        },
        {
          "internalType": "uint256",
          "name": "_s",
          "type": "uint256"
        },
        {
          "internalType": "uint256",
          "name": "_fsStep",
          "type": "uint256"
        },
        {
          "internalType": "uint256",
          "name": "timeoutAt",
          "type": "uint256"
        }
      ],
      "name": "create",
      "outputs": [],
      "stateMutability": "payable",
      "type": "function"
    },
    {
      "inputs": [
        {
          "internalType": "uint256",
          "name": "id",
          "type": "uint256"
        }
      ],
      "name": "creatorOf",
      "outputs": [
        {
          "internalType": "address",
          "name": "",
          "type": "address"
        }
      ],
      "stateMutability": "view",
      "type": "function"
    },
    {
      "inputs": [],
      "name": "defaultCreatorFeePCT",
      "outputs": [
        {
          "internalType": "uint64",
          "name": "",
          "type": "uint64"
        }
      ],
      "stateMutability": "view",
      "type": "function"
    },
    {
      "inputs": [],
      "name": "dev",
      "outputs": [
        {
          "internalType": "address",
          "name": "",
          "type": "address"
        }
      ],
      "stateMutability": "view",
      "type": "function"
    },
    {
      "inputs": [],
      "name": "devFeePCT",
      "outputs": [
        {
          "internalType": "uint64",
          "name": "",
          "type": "uint64"
        }
      ],
      "stateMutability": "view",
      "type": "function"
    },
    {
      "inputs": [
        {
          "internalType": "uint256",
          "name": "_t",
          "type": "uint256"
        },
        {
          "internalType": "uint256",
          "name": "_fs",
          "type": "uint256"
        },
        {
          "internalType": "uint256",
          "name": "_fsIncr",
          "type": "uint256"
        },
        {
          "internalType": "uint256",
          "name": "_f",
          "type": "uint256"
        },
        {
          "internalType": "uint256",
          "name": "_w",
          "type": "uint256"
        },
        {
          "internalType": "uint256",
          "name": "amount",
          "type": "uint256"
        }
      ],
      "name": "estimateAdjust",
      "outputs": [
        {
          "internalType": "uint256",
          "name": "_floor",
          "type": "uint256"
        }
      ],
      "stateMutability": "pure",
      "type": "function"
    },
    {
      "inputs": [
        {
          "internalType": "uint256",
          "name": "_k",
          "type": "uint256"
        },
        {
          "internalType": "uint256",
          "name": "_t",
          "type": "uint256"
        },
        {
          "internalType": "uint256",
          "name": "_fs",
          "type": "uint256"
        },
        {
          "internalType": "uint256",
          "name": "_f",
          "type": "uint256"
        },
        {
          "internalType": "uint256",
          "name": "amount",
          "type": "uint256"
        }
      ],
      "name": "estimateBurn",
      "outputs": [
        {
          "internalType": "uint256",
          "name": "total",
          "type": "uint256"
        },
        {
          "internalType": "uint256",
          "name": "value",
          "type": "uint256"
        },
        {
          "internalType": "uint256",
          "name": "creatorFee",
          "type": "uint256"
        },
        {
          "internalType": "uint256",
          "name": "devFee",
          "type": "uint256"
        }
      ],
      "stateMutability": "view",
      "type": "function"
    },
    {
      "inputs": [
        {
          "internalType": "uint256",
          "name": "id",
          "type": "uint256"
        },
        {
          "internalType": "uint256",
          "name": "amount",
          "type": "uint256"
        }
      ],
      "name": "estimateBurn",
      "outputs": [
        {
          "internalType": "uint256",
          "name": "total",
          "type": "uint256"
        },
        {
          "internalType": "uint256",
          "name": "value",
          "type": "uint256"
        },
        {
          "internalType": "uint256",
          "name": "creatorFee",
          "type": "uint256"
        },
        {
          "internalType": "uint256",
          "name": "devFee",
          "type": "uint256"
        }
      ],
      "stateMutability": "view",
      "type": "function"
    },
    {
      "inputs": [
        {
          "internalType": "uint256",
          "name": "id",
          "type": "uint256"
        },
        {
          "internalType": "uint256",
          "name": "amount",
          "type": "uint256"
        }
      ],
      "name": "estimateMint",
      "outputs": [
        {
          "internalType": "uint256",
          "name": "total",
          "type": "uint256"
        },
        {
          "internalType": "uint256",
          "name": "value",
          "type": "uint256"
        },
        {
          "internalType": "uint256",
          "name": "creatorFee",
          "type": "uint256"
        },
        {
          "internalType": "uint256",
          "name": "devFee",
          "type": "uint256"
        }
      ],
      "stateMutability": "view",
      "type": "function"
    },
    {
      "inputs": [
        {
          "internalType": "uint256",
          "name": "_k",
          "type": "uint256"
        },
        {
          "internalType": "uint256",
          "name": "_t",
          "type": "uint256"
        },
        {
          "internalType": "uint256",
          "name": "_fs",
          "type": "uint256"
        },
        {
          "internalType": "uint256",
          "name": "_f",
          "type": "uint256"
        },
        {
          "internalType": "uint256",
          "name": "amount",
          "type": "uint256"
        }
      ],
      "name": "estimateMint",
      "outputs": [
        {
          "internalType": "uint256",
          "name": "total",
          "type": "uint256"
        },
        {
          "internalType": "uint256",
          "name": "value",
          "type": "uint256"
        },
        {
          "internalType": "uint256",
          "name": "creatorFee",
          "type": "uint256"
        },
        {
          "internalType": "uint256",
          "name": "devFee",
          "type": "uint256"
        }
      ],
      "stateMutability": "view",
      "type": "function"
    },
    {
      "inputs": [
        {
          "internalType": "uint256",
          "name": "id",
          "type": "uint256"
        }
      ],
      "name": "exists",
      "outputs": [
        {
          "internalType": "bool",
          "name": "",
          "type": "bool"
        }
      ],
      "stateMutability": "view",
      "type": "function"
    },
    {
      "inputs": [
        {
          "internalType": "uint256",
          "name": "id",
          "type": "uint256"
        }
      ],
      "name": "floor",
      "outputs": [
        {
          "internalType": "uint256",
          "name": "",
          "type": "uint256"
        }
      ],
      "stateMutability": "view",
      "type": "function"
    },
    {
      "inputs": [
        {
          "internalType": "uint256",
          "name": "id",
          "type": "uint256"
        }
      ],
      "name": "floorSupply",
      "outputs": [
        {
          "internalType": "uint256",
          "name": "",
          "type": "uint256"
        }
      ],
      "stateMutability": "view",
      "type": "function"
    },
    {
      "inputs": [
        {
          "internalType": "uint256",
          "name": "",
          "type": "uint256"
        }
      ],
      "name": "fs",
      "outputs": [
        {
          "internalType": "uint256",
          "name": "",
          "type": "uint256"
        }
      ],
      "stateMutability": "view",
      "type": "function"
    },
    {
      "inputs": [
        {
          "internalType": "uint256",
          "name": "",
          "type": "uint256"
        }
      ],
      "name": "fsIncr",
      "outputs": [
        {
          "internalType": "uint256",
          "name": "",
          "type": "uint256"
        }
      ],
      "stateMutability": "view",
      "type": "function"
    },
    {
      "inputs": [
        {
          "internalType": "uint256",
          "name": "id",
          "type": "uint256"
        }
      ],
      "name": "fsStepOf",
      "outputs": [
        {
          "internalType": "uint256",
          "name": "",
          "type": "uint256"
        }
      ],
      "stateMutability": "view",
      "type": "function"
    },
    {
      "inputs": [
        {
          "internalType": "address",
          "name": "_dev",
          "type": "address"
        }
      ],
      "name": "initialize",
      "outputs": [],
      "stateMutability": "nonpayable",
      "type": "function"
    },
    {
      "inputs": [
        {
          "internalType": "address",
          "name": "",
          "type": "address"
        },
        {
          "internalType": "address",
          "name": "",
          "type": "address"
        }
      ],
      "name": "isApprovedDelegate",
      "outputs": [
        {
          "internalType": "bool",
          "name": "",
          "type": "bool"
        }
      ],
      "stateMutability": "view",
      "type": "function"
    },
    {
      "inputs": [
        {
          "internalType": "address",
          "name": "account",
          "type": "address"
        },
        {
          "internalType": "address",
          "name": "operator",
          "type": "address"
        }
      ],
      "name": "isApprovedForAll",
      "outputs": [
        {
          "internalType": "bool",
          "name": "",
          "type": "bool"
        }
      ],
      "stateMutability": "view",
      "type": "function"
    },
    {
      "inputs": [],
      "name": "k",
      "outputs": [
        {
          "internalType": "uint64",
          "name": "",
          "type": "uint64"
        }
      ],
      "stateMutability": "view",
      "type": "function"
    },
    {
      "inputs": [],
      "name": "minFloor",
      "outputs": [
        {
          "internalType": "uint64",
          "name": "",
          "type": "uint64"
        }
      ],
      "stateMutability": "view",
      "type": "function"
    },
    {
      "inputs": [
        {
          "internalType": "uint256",
          "name": "id",
          "type": "uint256"
        },
        {
          "internalType": "address",
          "name": "to",
          "type": "address"
        },
        {
          "internalType": "uint256",
          "name": "amount",
          "type": "uint256"
        },
        {
          "internalType": "uint256",
          "name": "maxSent",
          "type": "uint256"
        }
      ],
      "name": "mint",
      "outputs": [],
      "stateMutability": "payable",
      "type": "function"
    },
    {
      "inputs": [
        {
          "internalType": "address",
          "name": "from",
          "type": "address"
        },
        {
          "internalType": "address",
          "name": "to",
          "type": "address"
        },
        {
          "internalType": "uint256[]",
          "name": "ids",
          "type": "uint256[]"
        },
        {
          "internalType": "uint256[]",
          "name": "amounts",
          "type": "uint256[]"
        },
        {
          "internalType": "bytes",
          "name": "data",
          "type": "bytes"
        }
      ],
      "name": "safeBatchTransferFrom",
      "outputs": [],
      "stateMutability": "nonpayable",
      "type": "function"
    },
    {
      "inputs": [
        {
          "internalType": "address",
          "name": "from",
          "type": "address"
        },
        {
          "internalType": "address",
          "name": "to",
          "type": "address"
        },
        {
          "internalType": "uint256",
          "name": "id",
          "type": "uint256"
        },
        {
          "internalType": "uint256",
          "name": "amount",
          "type": "uint256"
        },
        {
          "internalType": "bytes",
          "name": "data",
          "type": "bytes"
        }
      ],
      "name": "safeTransferFrom",
      "outputs": [],
      "stateMutability": "nonpayable",
      "type": "function"
    },
    {
      "inputs": [
        {
          "internalType": "address",
          "name": "operator",
          "type": "address"
        },
        {
          "internalType": "bool",
          "name": "approved",
          "type": "bool"
        }
      ],
      "name": "setApprovalForAll",
      "outputs": [],
      "stateMutability": "nonpayable",
      "type": "function"
    },
    {
      "inputs": [
        {
          "internalType": "address",
          "name": "_delegate",
          "type": "address"
        },
        {
          "internalType": "bool",
          "name": "_isApproved",
          "type": "bool"
        }
      ],
      "name": "setDelegateApproval",
      "outputs": [],
      "stateMutability": "nonpayable",
      "type": "function"
    },
    {
      "inputs": [
        {
          "internalType": "uint256",
          "name": "id",
          "type": "uint256"
        }
      ],
      "name": "stepment",
      "outputs": [
        {
          "internalType": "uint256",
          "name": "",
          "type": "uint256"
        }
      ],
      "stateMutability": "view",
      "type": "function"
    },
    {
      "inputs": [
        {
          "internalType": "uint256",
          "name": "id",
          "type": "uint256"
        }
      ],
      "name": "stoneNameOf",
      "outputs": [
        {
          "internalType": "string",
          "name": "",
          "type": "string"
        }
      ],
      "stateMutability": "view",
      "type": "function"
    },
    {
      "inputs": [
        {
          "internalType": "bytes4",
          "name": "interfaceId",
          "type": "bytes4"
        }
      ],
      "name": "supportsInterface",
      "outputs": [
        {
          "internalType": "bool",
          "name": "",
          "type": "bool"
        }
      ],
      "stateMutability": "view",
      "type": "function"
    },
    {
      "inputs": [
        {
          "internalType": "uint256",
          "name": "id",
          "type": "uint256"
        }
      ],
      "name": "targetSupply",
      "outputs": [
        {
          "internalType": "uint256",
          "name": "",
          "type": "uint256"
        }
      ],
      "stateMutability": "view",
      "type": "function"
    },
    {
      "inputs": [
        {
          "internalType": "uint256",
          "name": "id",
          "type": "uint256"
        }
      ],
      "name": "totalSupply",
      "outputs": [
        {
          "internalType": "uint256",
          "name": "",
          "type": "uint256"
        }
      ],
      "stateMutability": "view",
      "type": "function"
    },
    {
      "inputs": [
        {
          "internalType": "uint256",
          "name": "id",
          "type": "uint256"
        },
        {
          "internalType": "string",
          "name": "stoneName",
          "type": "string"
        }
      ],
      "name": "updateStoneName",
      "outputs": [],
      "stateMutability": "nonpayable",
      "type": "function"
    },
    {
      "inputs": [
        {
          "internalType": "uint256",
          "name": "id",
          "type": "uint256"
        }
      ],
      "name": "uri",
      "outputs": [
        {
          "internalType": "string",
          "name": "",
          "type": "string"
        }
      ],
      "stateMutability": "view",
      "type": "function"
    },
    {
      "inputs": [
        {
          "internalType": "uint256",
          "name": "_k",
          "type": "uint256"
        },
        {
          "internalType": "uint256",
          "name": "_t",
          "type": "uint256"
        },
        {
          "internalType": "uint256",
          "name": "_fs",
          "type": "uint256"
        },
        {
          "internalType": "uint256",
          "name": "_f",
          "type": "uint256"
        }
      ],
      "name": "worth",
      "outputs": [
        {
          "internalType": "uint256",
          "name": "",
          "type": "uint256"
        }
      ],
      "stateMutability": "pure",
      "type": "function"
    },
    {
      "inputs": [
        {
          "internalType": "uint256",
          "name": "id",
          "type": "uint256"
        }
      ],
      "name": "worthOf",
      "outputs": [
        {
          "internalType": "uint256",
          "name": "",
          "type": "uint256"
        }
      ],
      "stateMutability": "view",
      "type": "function"
    },
    {
      "stateMutability": "payable",
      "type": "receive"
    }
  ],
  "transactionHash": "0xddfce81306f5179d4695cda6fa5c4bb01a052dde8d794790cdf307633c4d2d45",
  "args": [],
  "numDeployments": 15,
  "solcInputHash": "e65ee424d1f70ae1d913d62ec3f11c48",
  "bytecode": "0x608060405234801561001057600080fd5b506145a8806100206000396000f3fe6080604052600436106102bd5760003560e01c806375e583e61161016e578063c3c854b6116100cb578063e2e1b8901161007f578063f213edda11610064578063f213edda146108b0578063f242432a146108d0578063f740fd34146108f057600080fd5b8063e2e1b89014610847578063e985e9c51461086757600080fd5b8063c5464eb4116100b0578063c5464eb4146107e6578063c79ab6a214610806578063cdb9c4eb1461082657600080fd5b8063c3c854b614610773578063c4d66de8146107c657600080fd5b8063a22cb46511610122578063bd85b03911610107578063bd85b03914610720578063bf2c8a9414610740578063c0facbea1461075357600080fd5b8063a22cb465146106e5578063b4f40c611461070557600080fd5b8063810c373811610153578063810c37381461068557806391cca3db146106a5578063936906f1146106c557600080fd5b806375e583e6146106375780637ab58add1461065757600080fd5b80634e1273f41161021c578063589a1743116101d05780636e4ae82c116101b55780636e4ae82c146105d657806371fc76f5146105e95780637272d03c1461060957600080fd5b8063589a17431461054857806361c44d601461059657600080fd5b8063503e0a9811610201578063503e0a98146104e1578063504d9578146104fa578063504f5e561461051a57600080fd5b80634e1273f4146104945780634f558e79146104c157600080fd5b80631930e8251161027357806329bff6901161025857806329bff690146104125780632eb2c2d61461045857806343a54a0c1461047857600080fd5b80631930e825146103b557806327fc3637146103f057600080fd5b806301ffc9a7116102a457806301ffc9a71461032a57806309501e661461035a5780630e89341c1461038857600080fd5b8062d92e39146102c9578062fdd58e1461030a57600080fd5b366102c457005b600080fd5b3480156102d557600080fd5b506102f76102e43660046139d2565b6000908152610103602052604090205490565b6040519081526020015b60405180910390f35b34801561031657600080fd5b506102f7610325366004613a07565b610910565b34801561033657600080fd5b5061034a610345366004613a62565b6109be565b6040519015158152602001610301565b34801561036657600080fd5b506102f76103753660046139d2565b6000908152610104602052604090205490565b34801561039457600080fd5b506103a86103a33660046139d2565b610aa1565b6040516103019190613acf565b3480156103c157600080fd5b5061034a6103d0366004613ae2565b60c960209081526000928352604080842090915290825290205460ff1681565b3480156103fc57600080fd5b5061041061040b366004613b15565b610caf565b005b34801561041e57600080fd5b5060fe5461043f9068010000000000000000900467ffffffffffffffff1681565b60405167ffffffffffffffff9091168152602001610301565b34801561046457600080fd5b50610410610473366004613cb6565b61107c565b34801561048457600080fd5b5061043f670de0b6b3a764000081565b3480156104a057600080fd5b506104b46104af366004613d60565b61111e565b6040516103019190613e66565b3480156104cd57600080fd5b5061034a6104dc3660046139d2565b61125c565b3480156104ed57600080fd5b5061043f64e8d4a5100081565b34801561050657600080fd5b50610410610515366004613e79565b611272565b34801561052657600080fd5b506102f76105353660046139d2565b6000908152610100602052604090205490565b34801561055457600080fd5b5061057e6105633660046139d2565b600090815260ca60205260409020546001600160a01b031690565b6040516001600160a01b039091168152602001610301565b3480156105a257600080fd5b506105b66105b1366004613eca565b611313565b604080519485526020850193909352918301526060820152608001610301565b6104106105e4366004613f05565b611538565b3480156105f557600080fd5b506105b6610604366004613f48565b6115ae565b34801561061557600080fd5b506102f76106243660046139d2565b6101016020526000908152604090205481565b34801561064357600080fd5b506105b6610652366004613f48565b6116ca565b34801561066357600080fd5b506102f76106723660046139d2565b6101026020526000908152604090205481565b34801561069157600080fd5b506102f76106a03660046139d2565b611785565b3480156106b157600080fd5b5060ff5461057e906001600160a01b031681565b3480156106d157600080fd5b506102f76106e03660046139d2565b6117ab565b3480156106f157600080fd5b50610410610700366004613f6a565b61180d565b34801561071157600080fd5b5061043f66071afd498d000081565b34801561072c57600080fd5b506102f761073b3660046139d2565b61181c565b61041061074e366004613b15565b611827565b34801561075f57600080fd5b506102f761076e366004613f05565b611c43565b34801561077f57600080fd5b5061041061078e366004613f6a565b33600090815260c9602090815260408083206001600160a01b0395909516835293905291909120805460ff1916911515919091179055565b3480156107d257600080fd5b506104106107e1366004613fa6565b611dbc565b3480156107f257600080fd5b506102f76108013660046139d2565b611f41565b34801561081257600080fd5b506105b6610821366004613eca565b611f89565b34801561083257600080fd5b5060fe5461043f9067ffffffffffffffff1681565b34801561085357600080fd5b506103a86108623660046139d2565b61210e565b34801561087357600080fd5b5061034a610882366004613ae2565b6001600160a01b03918216600090815260666020908152604080832093909416825291909152205460ff1690565b3480156108bc57600080fd5b506102f76108cb366004613fc1565b6121b0565b3480156108dc57600080fd5b506104106108eb366004613ff3565b612219565b3480156108fc57600080fd5b506102f761090b366004613eca565b6122b4565b60006001600160a01b0383166109935760405162461bcd60e51b815260206004820152602a60248201527f455243313135353a2061646472657373207a65726f206973206e6f742061207660448201527f616c6964206f776e65720000000000000000000000000000000000000000000060648201526084015b60405180910390fd5b5060008181526065602090815260408083206001600160a01b03861684529091529020545b92915050565b60007fffffffff0000000000000000000000000000000000000000000000000000000082167fd9b67a26000000000000000000000000000000000000000000000000000000001480610a5157507fffffffff0000000000000000000000000000000000000000000000000000000082167f0e89341c00000000000000000000000000000000000000000000000000000000145b806109b857507f01ffc9a7000000000000000000000000000000000000000000000000000000007fffffffff000000000000000000000000000000000000000000000000000000008316146109b8565b6060610b0c6040518061014001604052806000815260200160006001600160a01b03168152602001600067ffffffffffffffff168152602001600081526020016000815260200160008152602001600081526020016000815260200160008152602001600081525090565b82815266071afd498d00006040820152610b3b83600090815260ca60205260409020546001600160a01b031690565b6001600160a01b03166020820152610b60836000908152610100602052604090205490565b6060820152610b6e83611785565b6080820152610b7c8361181c565b60a0820152610b8a836117ab565b60c082015260a081015160808201516060830151610bb29266071afd498d00009290916121b0565b61012082015260a081015160808201516060830151610bdd9266071afd498d00009290916001611f89565b505060e08301525060a081015160808201516060830151610c0a9266071afd498d00009290916001611313565b5050610100830152506040517f2a5a1a1400000000000000000000000000000000000000000000000000000000815273Ce4FB7ed615A0ae77Ea9fFE6ef6F4CC4B51EF9CD90632a5a1a1490610c63908490600401614058565b600060405180830381865af4158015610c80573d6000803e3d6000fd5b505050506040513d6000823e601f3d908101601f19168201604052610ca891908101906140e9565b9392505050565b610cb7612300565b610cc08461125c565b610d0c5760405162461bcd60e51b815260206004820152601a60248201527f4d6f73734875623a206e6f6e6578736974656e7420746f6b656e000000000000604482015260640161098a565b60008211610d825760405162461bcd60e51b815260206004820152602660248201527f4d6f73734875623a20616d6f756e74206d75737420626520677265617465722060448201527f7468616e20300000000000000000000000000000000000000000000000000000606482015260840161098a565b6000610d8d8561181c565b905082811015610ddf5760405162461bcd60e51b815260206004820152601d60248201527f48696b653a20746f6f206d75636820616d6f756e7420746f206275726e000000604482015260640161098a565b600060405180610100016040528087815260200166071afd498d000067ffffffffffffffff168152602001838152602001610e1988611785565b8152602001610e35886000908152610100602052604090205490565b8152602001610e51886000908152610103602052604090205490565b8152602001858152602001866001600160a01b03168152509050600080600080610e9285602001518660400151876060015188608001518960c00151611313565b935093509350935086841015610f365760405162461bcd60e51b815260206004820152604960248201527f4d6f73734875623a2072656365697665642076616c7565206d7573742062652060448201527f67726561746572207468616e206f7220657175616c20746f206d696e696d756d60648201527f2072656365697665640000000000000000000000000000000000000000000000608482015260a40161098a565b610f493386600001518760c00151612359565b610f8989856040518060400160405280601e81526020017f4d6f73734875623a207472616e736665722076616c7565206661696c656400008152506123bd565b60ff5460408051606081019091526023808252610fb9926001600160a01b031691849161455060208301396123bd565b8451600090815260ca6020526040902054610ff7906001600160a01b03165b83604051806060016040528060278152602001614506602791396123bd565b845160e08087015160c0808901516040805133815260208101969096526001600160a01b039093168584015260608501526080840187905260a084018690528301849052517f63b3cda962e4a1210ab73053c3af0163312c753575551b8c9d04906ec6e0ff679281900390910190a1505050505050611076600160cc55565b50505050565b6001600160a01b03851633148061109857506110988533610882565b61110a5760405162461bcd60e51b815260206004820152602e60248201527f455243313135353a2063616c6c6572206973206e6f7420746f6b656e206f776e60448201527f6572206f7220617070726f766564000000000000000000000000000000000000606482015260840161098a565b6111178585858585612433565b5050505050565b606081518351146111975760405162461bcd60e51b815260206004820152602960248201527f455243313135353a206163636f756e747320616e6420696473206c656e67746860448201527f206d69736d617463680000000000000000000000000000000000000000000000606482015260840161098a565b6000835167ffffffffffffffff8111156111b3576111b3613b50565b6040519080825280602002602001820160405280156111dc578160200160208202803683370190505b50905060005b8451811015611254576112278582815181106112005761120061416b565b602002602001015185838151811061121a5761121a61416b565b6020026020010151610910565b8282815181106112395761123961416b565b602090810291909101015261124d81614197565b90506111e2565b509392505050565b60008181526097602052604081205415156109b8565b600082815260ca602052604090205482906001600160a01b0316338114806112bd57506001600160a01b038116600090815260c96020908152604080832033845290915290205460ff165b6113095760405162461bcd60e51b815260206004820152601b60248201527f4d6f73733a2044656c6567617465206e6f7420617070726f7665640000000000604482015260640161098a565b61107684846126da565b600080600080848810156113b55760405162461bcd60e51b815260206004820152604260248201527f4d6f73734875623a206275726e696e6720616d6f756e74206d7573742062652060448201527f6c657373207468616e206f7220657175616c20746f20746f74616c207375707060648201527f6c79000000000000000000000000000000000000000000000000000000000000608482015260a40161098a565b8688116113cd576113c685876141b1565b92506114ae565b866113d8868a6141c8565b111561143d5760026113ea88826141b1565b866113f68b60026141b1565b61140091906141c8565b61140a91906141c8565b611414908b6141b1565b61141f8860026141b1565b61142991906141db565b61143390876141b1565b6113c691906141ee565b6000611449888a6141c8565b9050600061145782886141c8565b9050600261146c8366071afd498d00006141b1565b6114778a60026141b1565b61148191906141db565b61148b90846141b1565b61149591906141ee565b61149f828a6141b1565b6114a991906141db565b945050505b60fe54670de0b6b3a7640000906114cf9067ffffffffffffffff16856141b1565b6114d991906141ee565b60fe54909250670de0b6b3a7640000906115099068010000000000000000900467ffffffffffffffff16856141b1565b61151391906141ee565b90508061152083856141c8565b61152a91906141c8565b935095509550955095915050565b611540612300565b80421061158f5760405162461bcd60e51b815260206004820152601360248201527f4d6f73734875623a2074782074696d656f757400000000000000000000000000604482015260640161098a565b61159c8686868686612724565b6115a6600160cc55565b505050505050565b6000808080806115d387600090815260ca60205260409020546001600160a01b031690565b6001600160a01b0316036116295760405162461bcd60e51b815260206004820152601d60248201527f4d6f73734875623a20746f6b656e206973206e6f742063726561746564000000604482015260640161098a565b66071afd498d0000600061163c8861181c565b9050600061164989611785565b60008a81526101006020526040902054909150806116a95760405162461bcd60e51b815260206004820152601960248201527f4d6f73734875623a207a65726f20666c6f6f7220707269636500000000000000604482015260640161098a565b6116b6848484848d611f89565b929d919c509a509098509650505050505050565b6000808080806116ef87600090815260ca60205260409020546001600160a01b031690565b6001600160a01b0316036117455760405162461bcd60e51b815260206004820152601d60248201527f4d6f73734875623a20746f6b656e206973206e6f742063726561746564000000604482015260640161098a565b66071afd498d000060006117588861181c565b9050600061176589611785565b60008a815261010060205260409020549091506116b6848484848d611313565b600081815261010260209081526040808320546101019092528220546109b891906141db565b6000818152610103602090815260408083205461010483528184205461010290935290832054909182916117df91906141ee565b6117e991906141b1565b6000848152610101602052604090205461180391906141db565b6109b891906141db565b611818338383612d31565b5050565b60006109b882612e25565b61182f612300565b600082116118a55760405162461bcd60e51b815260206004820152602660248201527f4d6f73734875623a20616d6f756e74206d75737420626520677265617465722060448201527f7468616e20300000000000000000000000000000000000000000000000000000606482015260840161098a565b604080516101008101825285815266071afd498d0000602082015260009181016118ce8761181c565b81526020016118dc87611785565b81526020016118f8876000908152610100602052604090205490565b8152602001611914876000908152610103602052604090205490565b8152602001848152602001856001600160a01b0316815250905060008060008061195585602001518660400151876060015188608001518960c00151611f89565b9350935093509350833410156119d35760405162461bcd60e51b815260206004820152602360248201527f4d6f73734875623a20696e73756666696369656e742066756e647320746f206d60448201527f696e740000000000000000000000000000000000000000000000000000000000606482015260840161098a565b85841115611a495760405162461bcd60e51b815260206004820152603960248201527f4d6f73734875623a2066756e6473206d757374206265206c657373207468616e60448201527f206f7220657175616c20746f206d6178696d756d2073656e7400000000000000606482015260840161098a565b83341115611a7d57611a7d33611a5f86346141c8565b60405180606001604052806023815260200161452d602391396123bd565b60ff5460408051606081019091526023808252611aad926001600160a01b031691849161455060208301396123bd565b8451600090815260ca6020526040902054611ad0906001600160a01b0316610fd8565b60408086015186516000908152610101602090815283822054895183526101049091529281205460a089015160c08a01519294611b119493909291906122b4565b90506000611b318760200151886040015189606001518a608001516121b0565b875160009081526101026020526040902054909150821115611bac576040808801518851600090815261010160205291909120546080890151611b869291908590611b7c8a876141db565b8c60c00151611c43565b875160009081526101006020908152604080832093909355895182526101029052208290555b611bc38760e0015188600001518960c00151612e39565b865160e08089015160c0808b01516040805133815260208101969096526001600160a01b03909316858401526060850152608084018a905260a084018890528301869052517fdcaf588f09c2b7600db130d5b5166c2c3eecdb321c81cdaba0921b1205d9888f9281900390910190a150505050505050611076600160cc55565b600080611c5086886141db565b905080611c5d848a6141db565b11611cd05760405162461bcd60e51b815260206004820152602960248201527f4d6f73734875623a20666c6f6f7220737570706c792069732067746520746f7460448201527f616c20737570706c790000000000000000000000000000000000000000000000606482015260840161098a565b600081611cdd858b6141db565b611ce791906141c8565b9050611cf3848a6141db565b611cfe9060026141b1565b81611d108166071afd498d00006141b1565b611d1a91906141b1565b611d258760026141b1565b611d2f91906141c8565b611d3991906141ee565b9250858311611db05760405162461bcd60e51b815260206004820152603960248201527f4d6f73734875623a2061646a757374656420666c6f6f7220707269636520697360448201527f206c7465206f726967696e616c20666c6f6f7220707269636500000000000000606482015260840161098a565b50509695505050505050565b600054610100900460ff1615808015611ddc5750600054600160ff909116105b80611df65750303b158015611df6575060005460ff166001145b611e685760405162461bcd60e51b815260206004820152602e60248201527f496e697469616c697a61626c653a20636f6e747261637420697320616c72656160448201527f647920696e697469616c697a6564000000000000000000000000000000000000606482015260840161098a565b6000805460ff191660011790558015611e8b576000805461ff0019166101001790555b60ff80547fffffffffffffffffffffffff0000000000000000000000000000000000000000166001600160a01b03841617905560fe80547fffffffffffffffffffffffffffffffff00000000000000000000000000000000166e58d15e176280000058d15e176280001790558015611818576000805461ff0019169055604051600181527f7f26b83ff96e1f2b6a682f133852f6798a09c465da95921460cefb3847402498906020015b60405180910390a15050565b600080611f4d8361181c565b90506000611f5a84611785565b60008581526101006020526040902054909150611f8066071afd498d00008484846121b0565b95945050505050565b600080808086611f99868a6141db565b11611faf57611fa885876141b1565b9250612092565b86881115612016576002611fc388826141b1565b86611fcf8b60026141b1565b611fd991906141db565b611fe391906141c8565b611fed908b6141b1565b611ff88860026141b1565b61200291906141db565b61200c90876141b1565b611fa891906141ee565b600061202289896141c8565b9050600088612031888c6141db565b61203b91906141c8565b905060026120508266071afd498d00006141b1565b61205b8a60026141b1565b61206591906141db565b61206f90836141b1565b61207991906141ee565b612083838a6141b1565b61208d91906141db565b945050505b60fe54670de0b6b3a7640000906120b39067ffffffffffffffff16856141b1565b6120bd91906141ee565b60fe54909250670de0b6b3a7640000906120ed9068010000000000000000900467ffffffffffffffff16856141b1565b6120f791906141ee565b90508061210483856141db565b61152a91906141db565b600081815260cb6020526040902080546060919061212b90614210565b80601f016020809104026020016040519081016040528092919081815260200182805461215790614210565b80156121a45780601f10612179576101008083540402835291602001916121a4565b820191906000526020600020905b81548152906001019060200180831161218757829003601f168201915b50505050509050919050565b60008284116121ca576121c384836141b1565b9050612211565b60006121d684866141c8565b90506002816121e581896141b1565b6121ef91906141b1565b6121f991906141ee565b61220386856141b1565b61220d91906141db565b9150505b949350505050565b6001600160a01b03851633148061223557506122358533610882565b6122a75760405162461bcd60e51b815260206004820152602e60248201527f455243313135353a2063616c6c6572206973206e6f7420746f6b656e206f776e60448201527f6572206f7220617070726f766564000000000000000000000000000000000000606482015260840161098a565b6111178585858585612ee1565b6000846122c183886141db565b1115611f8057600083866122d5858a6141db565b6122df91906141c8565b6122e991906141ee565b90506122f585826141b1565b979650505050505050565b600260cc54036123525760405162461bcd60e51b815260206004820152601f60248201527f5265656e7472616e637947756172643a207265656e7472616e742063616c6c00604482015260640161098a565b600260cc55565b6123648383836130c9565b600061236f8361181c565b11156123b857817f6bb7ff708619ba0610cba295a58592e0451dee2622938c8755667688daf3529b6040516123af90602080825260009082015260400190565b60405180910390a25b505050565b6000836001600160a01b03168360405160006040518083038185875af1925050503d806000811461240a576040519150601f19603f3d011682016040523d82523d6000602084013e61240f565b606091505b505090508082906111175760405162461bcd60e51b815260040161098a9190613acf565b81518351146124aa5760405162461bcd60e51b815260206004820152602860248201527f455243313135353a2069647320616e6420616d6f756e7473206c656e6774682060448201527f6d69736d61746368000000000000000000000000000000000000000000000000606482015260840161098a565b6001600160a01b0384166125265760405162461bcd60e51b815260206004820152602560248201527f455243313135353a207472616e7366657220746f20746865207a65726f20616460448201527f6472657373000000000000000000000000000000000000000000000000000000606482015260840161098a565b33612535818787878787613295565b60005b84518110156126745760008582815181106125555761255561416b565b6020026020010151905060008583815181106125735761257361416b565b60209081029190910181015160008481526065835260408082206001600160a01b038e16835290935291909120549091508181101561261a5760405162461bcd60e51b815260206004820152602a60248201527f455243313135353a20696e73756666696369656e742062616c616e636520666f60448201527f72207472616e7366657200000000000000000000000000000000000000000000606482015260840161098a565b60008381526065602090815260408083206001600160a01b038e8116855292528083208585039055908b168252812080548492906126599084906141db565b925050819055505050508061266d90614197565b9050612538565b50846001600160a01b0316866001600160a01b0316826001600160a01b03167f4a39dc06d4c0dbc64b70af90fd698a233a518aa5d07e595d983b8c0526c8f7fb87876040516126c492919061424a565b60405180910390a46115a6818787878787613423565b600082815260cb602052604090206126f282826142b5565b507f9881d3fc43c7ddce9f432f1abbb2720b9aa58489a32de89d7269df1807ac4d968282604051611f35929190614375565b61272d8561125c565b1561277a5760405162461bcd60e51b815260206004820152601560248201527f4d6f73734875623a20746f6b656e206578697374730000000000000000000000604482015260640161098a565b600085815260ca60205260409020546001600160a01b0316156127df5760405162461bcd60e51b815260206004820152601960248201527f4d6f73734875623a20746f6b656e206973206372656174656400000000000000604482015260640161098a565b64e8d4a5100084101561285a5760405162461bcd60e51b815260206004820152603d60248201527f4d6f73734875623a20666c6f6f72206d7573742062652067726561746572207460448201527f68616e206f7220657175616c20746f206d696e696d756d20666c6f6f72000000606482015260840161098a565b600083116128d05760405162461bcd60e51b815260206004820152602f60248201527f4d6f73734875623a20666c6f6f7220737570706c79206d75737420626520677260448201527f6561746572207468616e207a65726f0000000000000000000000000000000000606482015260840161098a565b600082116129455760405162461bcd60e51b8152602060048201526024808201527f4d6f73734875623a2073746570206d7573742067726561746572207468616e2060448201527f7a65726f00000000000000000000000000000000000000000000000000000000606482015260840161098a565b600081116129bb5760405162461bcd60e51b815260206004820152602660248201527f4d6f73734875623a20667353746570206d75737420677265617465722074686160448201527f6e207a65726f0000000000000000000000000000000000000000000000000000606482015260840161098a565b6129c6600a836141ee565b811115612a3b5760405162461bcd60e51b815260206004820152602960248201527f4d6f73734875623a20667353746570206d757374206265206c6573732074686160448201527f6e20737465702f31300000000000000000000000000000000000000000000000606482015260840161098a565b60fe54600090670de0b6b3a764000090612a6b9068010000000000000000900467ffffffffffffffff16876141b1565b612a7591906141ee565b9050612a8181866141db565b341015612af65760405162461bcd60e51b815260206004820152602560248201527f4d6f73734875623a20696e73756666696369656e742066756e647320746f206360448201527f7265617465000000000000000000000000000000000000000000000000000000606482015260840161098a565b612b0081866141db565b341115612bd95760003382612b1588346141c8565b612b1f91906141c8565b604051600081818185875af1925050503d8060008114612b5b576040519150601f19603f3d011682016040523d82523d6000602084013e612b60565b606091505b5050905080612bd75760405162461bcd60e51b815260206004820152602360248201527f4d6f73734875623a207472616e736665722066756e6473206261636b2066616960448201527f6c65640000000000000000000000000000000000000000000000000000000000606482015260840161098a565b505b60ff546040516000916001600160a01b03169083908381818185875af1925050503d8060008114612c26576040519150601f19603f3d011682016040523d82523d6000602084013e612c2b565b606091505b5050905080612c7c5760405162461bcd60e51b815260206004820152601f60248201527f4d6f73734875623a206661696c656420746f2072656365697665206665652000604482015260640161098a565b612c868733613627565b612c9233886001612e39565b6000878152610100602081815260408084208a90556101018252808420899055610103825280842088905561010482529283902086905582513381529081018a9052918201889052606082018790526080820186905260a0820185905260c0820188905260e082018490527f460cf3f1c0e37440b24f7a57d7c52f04ca2f3df751bcb4097d4a9e383b1a2477910160405180910390a150505050505050565b816001600160a01b0316836001600160a01b031603612db85760405162461bcd60e51b815260206004820152602960248201527f455243313135353a2073657474696e6720617070726f76616c2073746174757360448201527f20666f722073656c660000000000000000000000000000000000000000000000606482015260840161098a565b6001600160a01b03838116600081815260666020908152604080832094871680845294825291829020805460ff191686151590811790915591519182527f17307eab39ab6107e8899845ad3d59bd9653f200f220920489ca2b5937696c31910160405180910390a3505050565b6000818152609760205260408120546109b8565b60008111612e895760405162461bcd60e51b815260206004820152601160248201527f4d6f73733a207a65726f20616d6f756e74000000000000000000000000000000604482015260640161098a565b604080516000815260208101909152612ea7908490849084906136f4565b817f6bb7ff708619ba0610cba295a58592e0451dee2622938c8755667688daf3529b6040516123af90602080825260009082015260400190565b6001600160a01b038416612f5d5760405162461bcd60e51b815260206004820152602560248201527f455243313135353a207472616e7366657220746f20746865207a65726f20616460448201527f6472657373000000000000000000000000000000000000000000000000000000606482015260840161098a565b336000612f698561382c565b90506000612f768561382c565b9050612f86838989858589613295565b60008681526065602090815260408083206001600160a01b038c1684529091529020548581101561301f5760405162461bcd60e51b815260206004820152602a60248201527f455243313135353a20696e73756666696369656e742062616c616e636520666f60448201527f72207472616e7366657200000000000000000000000000000000000000000000606482015260840161098a565b60008781526065602090815260408083206001600160a01b038d8116855292528083208985039055908a1682528120805488929061305e9084906141db565b909155505060408051888152602081018890526001600160a01b03808b16928c821692918816917fc3d58168c5ae7397731d063d5bbf3d657854427343f4c083240f7aacaa2d0f62910160405180910390a46130be848a8a8a8a8a613877565b505050505050505050565b6001600160a01b0383166131455760405162461bcd60e51b815260206004820152602360248201527f455243313135353a206275726e2066726f6d20746865207a65726f206164647260448201527f6573730000000000000000000000000000000000000000000000000000000000606482015260840161098a565b3360006131518461382c565b9050600061315e8461382c565b905061317e83876000858560405180602001604052806000815250613295565b60008581526065602090815260408083206001600160a01b038a168452909152902054848110156132165760405162461bcd60e51b8152602060048201526024808201527f455243313135353a206275726e20616d6f756e7420657863656564732062616c60448201527f616e636500000000000000000000000000000000000000000000000000000000606482015260840161098a565b60008681526065602090815260408083206001600160a01b038b81168086529184528285208a8703905582518b81529384018a90529092908816917fc3d58168c5ae7397731d063d5bbf3d657854427343f4c083240f7aacaa2d0f62910160405180910390a46040805160208101909152600090525b50505050505050565b6001600160a01b03851661331c5760005b835181101561331a578281815181106132c1576132c161416b565b6020026020010151609760008684815181106132df576132df61416b565b60200260200101518152602001908152602001600020600082825461330491906141db565b90915550613313905081614197565b90506132a6565b505b6001600160a01b0384166115a65760005b835181101561328c57600084828151811061334a5761334a61416b565b6020026020010151905060008483815181106133685761336861416b565b60200260200101519050600060976000848152602001908152602001600020549050818110156134005760405162461bcd60e51b815260206004820152602860248201527f455243313135353a206275726e20616d6f756e74206578636565647320746f7460448201527f616c537570706c79000000000000000000000000000000000000000000000000606482015260840161098a565b6000928352609760205260409092209103905561341c81614197565b905061332d565b6001600160a01b0384163b156115a6576040517fbc197c810000000000000000000000000000000000000000000000000000000081526001600160a01b0385169063bc197c8190613480908990899088908890889060040161438e565b6020604051808303816000875af19250505080156134bb575060408051601f3d908101601f191682019092526134b8918101906143ec565b60015b613570576134c7614409565b806308c379a00361350057506134db614425565b806134e65750613502565b8060405162461bcd60e51b815260040161098a9190613acf565b505b60405162461bcd60e51b815260206004820152603460248201527f455243313135353a207472616e7366657220746f206e6f6e2d4552433131353560448201527f526563656976657220696d706c656d656e746572000000000000000000000000606482015260840161098a565b7fffffffff0000000000000000000000000000000000000000000000000000000081167fbc197c81000000000000000000000000000000000000000000000000000000001461328c5760405162461bcd60e51b815260206004820152602860248201527f455243313135353a204552433131353552656365697665722072656a6563746560448201527f6420746f6b656e73000000000000000000000000000000000000000000000000606482015260840161098a565b6136308261125c565b1561367d5760405162461bcd60e51b815260206004820152601260248201527f4d6f73733a20746f6b656e206578697374730000000000000000000000000000604482015260640161098a565b600082815260ca602090815260409182902080547fffffffffffffffffffffffff0000000000000000000000000000000000000000166001600160a01b0385169081179091558251858152918201527fc0186d9ba7364ebd80a7010121367f481af81e1028bf368b2172fedf2c6fc7de9101611f35565b6001600160a01b0384166137705760405162461bcd60e51b815260206004820152602160248201527f455243313135353a206d696e7420746f20746865207a65726f2061646472657360448201527f7300000000000000000000000000000000000000000000000000000000000000606482015260840161098a565b33600061377c8561382c565b905060006137898561382c565b905061379a83600089858589613295565b60008681526065602090815260408083206001600160a01b038b168452909152812080548792906137cc9084906141db565b909155505060408051878152602081018790526001600160a01b03808a1692600092918716917fc3d58168c5ae7397731d063d5bbf3d657854427343f4c083240f7aacaa2d0f62910160405180910390a461328c83600089898989613877565b604080516001808252818301909252606091600091906020808301908036833701905050905082816000815181106138665761386661416b565b602090810291909101015292915050565b6001600160a01b0384163b156115a6576040517ff23a6e610000000000000000000000000000000000000000000000000000000081526001600160a01b0385169063f23a6e61906138d490899089908890889088906004016144cd565b6020604051808303816000875af192505050801561390f575060408051601f3d908101601f1916820190925261390c918101906143ec565b60015b61391b576134c7614409565b7fffffffff0000000000000000000000000000000000000000000000000000000081167ff23a6e61000000000000000000000000000000000000000000000000000000001461328c5760405162461bcd60e51b815260206004820152602860248201527f455243313135353a204552433131353552656365697665722072656a6563746560448201527f6420746f6b656e73000000000000000000000000000000000000000000000000606482015260840161098a565b6000602082840312156139e457600080fd5b5035919050565b80356001600160a01b0381168114613a0257600080fd5b919050565b60008060408385031215613a1a57600080fd5b613a23836139eb565b946020939093013593505050565b7fffffffff0000000000000000000000000000000000000000000000000000000081168114613a5f57600080fd5b50565b600060208284031215613a7457600080fd5b8135610ca881613a31565b60005b83811015613a9a578181015183820152602001613a82565b50506000910152565b60008151808452613abb816020860160208601613a7f565b601f01601f19169290920160200192915050565b602081526000610ca86020830184613aa3565b60008060408385031215613af557600080fd5b613afe836139eb565b9150613b0c602084016139eb565b90509250929050565b60008060008060808587031215613b2b57600080fd5b84359350613b3b602086016139eb565b93969395505050506040820135916060013590565b634e487b7160e01b600052604160045260246000fd5b601f19601f830116810181811067ffffffffffffffff82111715613b8c57613b8c613b50565b6040525050565b600067ffffffffffffffff821115613bad57613bad613b50565b5060051b60200190565b600082601f830112613bc857600080fd5b81356020613bd582613b93565b604051613be28282613b66565b83815260059390931b8501820192828101915086841115613c0257600080fd5b8286015b84811015613c1d5780358352918301918301613c06565b509695505050505050565b600067ffffffffffffffff821115613c4257613c42613b50565b50601f01601f191660200190565b6000613c5b83613c28565b604051613c688282613b66565b809250848152858585011115613c7d57600080fd5b8484602083013760006020868301015250509392505050565b600082601f830112613ca757600080fd5b610ca883833560208501613c50565b600080600080600060a08688031215613cce57600080fd5b613cd7866139eb565b9450613ce5602087016139eb565b9350604086013567ffffffffffffffff80821115613d0257600080fd5b613d0e89838a01613bb7565b94506060880135915080821115613d2457600080fd5b613d3089838a01613bb7565b93506080880135915080821115613d4657600080fd5b50613d5388828901613c96565b9150509295509295909350565b60008060408385031215613d7357600080fd5b823567ffffffffffffffff80821115613d8b57600080fd5b818501915085601f830112613d9f57600080fd5b81356020613dac82613b93565b604051613db98282613b66565b83815260059390931b8501820192828101915089841115613dd957600080fd5b948201945b83861015613dfe57613def866139eb565b82529482019490820190613dde565b96505086013592505080821115613e1457600080fd5b50613e2185828601613bb7565b9150509250929050565b600081518084526020808501945080840160005b83811015613e5b57815187529582019590820190600101613e3f565b509495945050505050565b602081526000610ca86020830184613e2b565b60008060408385031215613e8c57600080fd5b82359150602083013567ffffffffffffffff811115613eaa57600080fd5b8301601f81018513613ebb57600080fd5b613e2185823560208401613c50565b600080600080600060a08688031215613ee257600080fd5b505083359560208501359550604085013594606081013594506080013592509050565b60008060008060008060c08789031215613f1e57600080fd5b505084359660208601359650604086013595606081013595506080810135945060a0013592509050565b60008060408385031215613f5b57600080fd5b50508035926020909101359150565b60008060408385031215613f7d57600080fd5b613f86836139eb565b915060208301358015158114613f9b57600080fd5b809150509250929050565b600060208284031215613fb857600080fd5b610ca8826139eb565b60008060008060808587031215613fd757600080fd5b5050823594602084013594506040840135936060013592509050565b600080600080600060a0868803121561400b57600080fd5b614014866139eb565b9450614022602087016139eb565b93506040860135925060608601359150608086013567ffffffffffffffff81111561404c57600080fd5b613d5388828901613c96565b8151815260208083015161014083019161407c908401826001600160a01b03169052565b506040830151614098604084018267ffffffffffffffff169052565b50606083015160608301526080830151608083015260a083015160a083015260c083015160c083015260e083015160e083015261010080840151818401525061012080840151818401525092915050565b6000602082840312156140fb57600080fd5b815167ffffffffffffffff81111561411257600080fd5b8201601f8101841361412357600080fd5b805161412e81613c28565b60405161413b8282613b66565b82815286602084860101111561415057600080fd5b614161836020830160208701613a7f565b9695505050505050565b634e487b7160e01b600052603260045260246000fd5b634e487b7160e01b600052601160045260246000fd5b600060001982036141aa576141aa614181565b5060010190565b80820281158282048414176109b8576109b8614181565b818103818111156109b8576109b8614181565b808201808211156109b8576109b8614181565b60008261420b57634e487b7160e01b600052601260045260246000fd5b500490565b600181811c9082168061422457607f821691505b60208210810361424457634e487b7160e01b600052602260045260246000fd5b50919050565b60408152600061425d6040830185613e2b565b8281036020840152611f808185613e2b565b601f8211156123b857600081815260208120601f850160051c810160208610156142965750805b601f850160051c820191505b818110156115a6578281556001016142a2565b815167ffffffffffffffff8111156142cf576142cf613b50565b6142e3816142dd8454614210565b8461426f565b602080601f83116001811461431857600084156143005750858301515b600019600386901b1c1916600185901b1785556115a6565b600085815260208120601f198616915b8281101561434757888601518255948401946001909101908401614328565b50858210156143655787850151600019600388901b60f8161c191681555b5050505050600190811b01905550565b8281526040602082015260006122116040830184613aa3565b60006001600160a01b03808816835280871660208401525060a060408301526143ba60a0830186613e2b565b82810360608401526143cc8186613e2b565b905082810360808401526143e08185613aa3565b98975050505050505050565b6000602082840312156143fe57600080fd5b8151610ca881613a31565b600060033d11156144225760046000803e5060005160e01c5b90565b600060443d10156144335790565b6040517ffffffffffffffffffffffffffffffffffffffffffffffffffffffffffffffffc803d016004833e81513d67ffffffffffffffff816024840111818411171561448157505050505090565b82850191508151818111156144995750505050505090565b843d87010160208285010111156144b35750505050505090565b6144c260208286010187613b66565b509095945050505050565b60006001600160a01b03808816835280871660208401525084604083015283606083015260a060808301526122f560a0830184613aa356fe4d6f73734875623a206661696c656420746f207472616e736665722063726561746f72206665654d6f73734875623a207472616e736665722066756e6473206261636b206661696c65644d6f73734875623a206661696c656420746f207472616e736665722064657620666565a26469706673582212202ae1849a709ab7bd8251ec79ad0b7e075d5fc5260ef1e2f3dafe88323683307764736f6c63430008130033",
  "deployedBytecode": "0x6080604052600436106102bd5760003560e01c806375e583e61161016e578063c3c854b6116100cb578063e2e1b8901161007f578063f213edda11610064578063f213edda146108b0578063f242432a146108d0578063f740fd34146108f057600080fd5b8063e2e1b89014610847578063e985e9c51461086757600080fd5b8063c5464eb4116100b0578063c5464eb4146107e6578063c79ab6a214610806578063cdb9c4eb1461082657600080fd5b8063c3c854b614610773578063c4d66de8146107c657600080fd5b8063a22cb46511610122578063bd85b03911610107578063bd85b03914610720578063bf2c8a9414610740578063c0facbea1461075357600080fd5b8063a22cb465146106e5578063b4f40c611461070557600080fd5b8063810c373811610153578063810c37381461068557806391cca3db146106a5578063936906f1146106c557600080fd5b806375e583e6146106375780637ab58add1461065757600080fd5b80634e1273f41161021c578063589a1743116101d05780636e4ae82c116101b55780636e4ae82c146105d657806371fc76f5146105e95780637272d03c1461060957600080fd5b8063589a17431461054857806361c44d601461059657600080fd5b8063503e0a9811610201578063503e0a98146104e1578063504d9578146104fa578063504f5e561461051a57600080fd5b80634e1273f4146104945780634f558e79146104c157600080fd5b80631930e8251161027357806329bff6901161025857806329bff690146104125780632eb2c2d61461045857806343a54a0c1461047857600080fd5b80631930e825146103b557806327fc3637146103f057600080fd5b806301ffc9a7116102a457806301ffc9a71461032a57806309501e661461035a5780630e89341c1461038857600080fd5b8062d92e39146102c9578062fdd58e1461030a57600080fd5b366102c457005b600080fd5b3480156102d557600080fd5b506102f76102e43660046139d2565b6000908152610103602052604090205490565b6040519081526020015b60405180910390f35b34801561031657600080fd5b506102f7610325366004613a07565b610910565b34801561033657600080fd5b5061034a610345366004613a62565b6109be565b6040519015158152602001610301565b34801561036657600080fd5b506102f76103753660046139d2565b6000908152610104602052604090205490565b34801561039457600080fd5b506103a86103a33660046139d2565b610aa1565b6040516103019190613acf565b3480156103c157600080fd5b5061034a6103d0366004613ae2565b60c960209081526000928352604080842090915290825290205460ff1681565b3480156103fc57600080fd5b5061041061040b366004613b15565b610caf565b005b34801561041e57600080fd5b5060fe5461043f9068010000000000000000900467ffffffffffffffff1681565b60405167ffffffffffffffff9091168152602001610301565b34801561046457600080fd5b50610410610473366004613cb6565b61107c565b34801561048457600080fd5b5061043f670de0b6b3a764000081565b3480156104a057600080fd5b506104b46104af366004613d60565b61111e565b6040516103019190613e66565b3480156104cd57600080fd5b5061034a6104dc3660046139d2565b61125c565b3480156104ed57600080fd5b5061043f64e8d4a5100081565b34801561050657600080fd5b50610410610515366004613e79565b611272565b34801561052657600080fd5b506102f76105353660046139d2565b6000908152610100602052604090205490565b34801561055457600080fd5b5061057e6105633660046139d2565b600090815260ca60205260409020546001600160a01b031690565b6040516001600160a01b039091168152602001610301565b3480156105a257600080fd5b506105b66105b1366004613eca565b611313565b604080519485526020850193909352918301526060820152608001610301565b6104106105e4366004613f05565b611538565b3480156105f557600080fd5b506105b6610604366004613f48565b6115ae565b34801561061557600080fd5b506102f76106243660046139d2565b6101016020526000908152604090205481565b34801561064357600080fd5b506105b6610652366004613f48565b6116ca565b34801561066357600080fd5b506102f76106723660046139d2565b6101026020526000908152604090205481565b34801561069157600080fd5b506102f76106a03660046139d2565b611785565b3480156106b157600080fd5b5060ff5461057e906001600160a01b031681565b3480156106d157600080fd5b506102f76106e03660046139d2565b6117ab565b3480156106f157600080fd5b50610410610700366004613f6a565b61180d565b34801561071157600080fd5b5061043f66071afd498d000081565b34801561072c57600080fd5b506102f761073b3660046139d2565b61181c565b61041061074e366004613b15565b611827565b34801561075f57600080fd5b506102f761076e366004613f05565b611c43565b34801561077f57600080fd5b5061041061078e366004613f6a565b33600090815260c9602090815260408083206001600160a01b0395909516835293905291909120805460ff1916911515919091179055565b3480156107d257600080fd5b506104106107e1366004613fa6565b611dbc565b3480156107f257600080fd5b506102f76108013660046139d2565b611f41565b34801561081257600080fd5b506105b6610821366004613eca565b611f89565b34801561083257600080fd5b5060fe5461043f9067ffffffffffffffff1681565b34801561085357600080fd5b506103a86108623660046139d2565b61210e565b34801561087357600080fd5b5061034a610882366004613ae2565b6001600160a01b03918216600090815260666020908152604080832093909416825291909152205460ff1690565b3480156108bc57600080fd5b506102f76108cb366004613fc1565b6121b0565b3480156108dc57600080fd5b506104106108eb366004613ff3565b612219565b3480156108fc57600080fd5b506102f761090b366004613eca565b6122b4565b60006001600160a01b0383166109935760405162461bcd60e51b815260206004820152602a60248201527f455243313135353a2061646472657373207a65726f206973206e6f742061207660448201527f616c6964206f776e65720000000000000000000000000000000000000000000060648201526084015b60405180910390fd5b5060008181526065602090815260408083206001600160a01b03861684529091529020545b92915050565b60007fffffffff0000000000000000000000000000000000000000000000000000000082167fd9b67a26000000000000000000000000000000000000000000000000000000001480610a5157507fffffffff0000000000000000000000000000000000000000000000000000000082167f0e89341c00000000000000000000000000000000000000000000000000000000145b806109b857507f01ffc9a7000000000000000000000000000000000000000000000000000000007fffffffff000000000000000000000000000000000000000000000000000000008316146109b8565b6060610b0c6040518061014001604052806000815260200160006001600160a01b03168152602001600067ffffffffffffffff168152602001600081526020016000815260200160008152602001600081526020016000815260200160008152602001600081525090565b82815266071afd498d00006040820152610b3b83600090815260ca60205260409020546001600160a01b031690565b6001600160a01b03166020820152610b60836000908152610100602052604090205490565b6060820152610b6e83611785565b6080820152610b7c8361181c565b60a0820152610b8a836117ab565b60c082015260a081015160808201516060830151610bb29266071afd498d00009290916121b0565b61012082015260a081015160808201516060830151610bdd9266071afd498d00009290916001611f89565b505060e08301525060a081015160808201516060830151610c0a9266071afd498d00009290916001611313565b5050610100830152506040517f2a5a1a1400000000000000000000000000000000000000000000000000000000815273__$cea9be979eee3d87fb124d6cbb244bb0b5$__90632a5a1a1490610c63908490600401614058565b600060405180830381865af4158015610c80573d6000803e3d6000fd5b505050506040513d6000823e601f3d908101601f19168201604052610ca891908101906140e9565b9392505050565b610cb7612300565b610cc08461125c565b610d0c5760405162461bcd60e51b815260206004820152601a60248201527f4d6f73734875623a206e6f6e6578736974656e7420746f6b656e000000000000604482015260640161098a565b60008211610d825760405162461bcd60e51b815260206004820152602660248201527f4d6f73734875623a20616d6f756e74206d75737420626520677265617465722060448201527f7468616e20300000000000000000000000000000000000000000000000000000606482015260840161098a565b6000610d8d8561181c565b905082811015610ddf5760405162461bcd60e51b815260206004820152601d60248201527f48696b653a20746f6f206d75636820616d6f756e7420746f206275726e000000604482015260640161098a565b600060405180610100016040528087815260200166071afd498d000067ffffffffffffffff168152602001838152602001610e1988611785565b8152602001610e35886000908152610100602052604090205490565b8152602001610e51886000908152610103602052604090205490565b8152602001858152602001866001600160a01b03168152509050600080600080610e9285602001518660400151876060015188608001518960c00151611313565b935093509350935086841015610f365760405162461bcd60e51b815260206004820152604960248201527f4d6f73734875623a2072656365697665642076616c7565206d7573742062652060448201527f67726561746572207468616e206f7220657175616c20746f206d696e696d756d60648201527f2072656365697665640000000000000000000000000000000000000000000000608482015260a40161098a565b610f493386600001518760c00151612359565b610f8989856040518060400160405280601e81526020017f4d6f73734875623a207472616e736665722076616c7565206661696c656400008152506123bd565b60ff5460408051606081019091526023808252610fb9926001600160a01b031691849161455060208301396123bd565b8451600090815260ca6020526040902054610ff7906001600160a01b03165b83604051806060016040528060278152602001614506602791396123bd565b845160e08087015160c0808901516040805133815260208101969096526001600160a01b039093168584015260608501526080840187905260a084018690528301849052517f63b3cda962e4a1210ab73053c3af0163312c753575551b8c9d04906ec6e0ff679281900390910190a1505050505050611076600160cc55565b50505050565b6001600160a01b03851633148061109857506110988533610882565b61110a5760405162461bcd60e51b815260206004820152602e60248201527f455243313135353a2063616c6c6572206973206e6f7420746f6b656e206f776e60448201527f6572206f7220617070726f766564000000000000000000000000000000000000606482015260840161098a565b6111178585858585612433565b5050505050565b606081518351146111975760405162461bcd60e51b815260206004820152602960248201527f455243313135353a206163636f756e747320616e6420696473206c656e67746860448201527f206d69736d617463680000000000000000000000000000000000000000000000606482015260840161098a565b6000835167ffffffffffffffff8111156111b3576111b3613b50565b6040519080825280602002602001820160405280156111dc578160200160208202803683370190505b50905060005b8451811015611254576112278582815181106112005761120061416b565b602002602001015185838151811061121a5761121a61416b565b6020026020010151610910565b8282815181106112395761123961416b565b602090810291909101015261124d81614197565b90506111e2565b509392505050565b60008181526097602052604081205415156109b8565b600082815260ca602052604090205482906001600160a01b0316338114806112bd57506001600160a01b038116600090815260c96020908152604080832033845290915290205460ff165b6113095760405162461bcd60e51b815260206004820152601b60248201527f4d6f73733a2044656c6567617465206e6f7420617070726f7665640000000000604482015260640161098a565b61107684846126da565b600080600080848810156113b55760405162461bcd60e51b815260206004820152604260248201527f4d6f73734875623a206275726e696e6720616d6f756e74206d7573742062652060448201527f6c657373207468616e206f7220657175616c20746f20746f74616c207375707060648201527f6c79000000000000000000000000000000000000000000000000000000000000608482015260a40161098a565b8688116113cd576113c685876141b1565b92506114ae565b866113d8868a6141c8565b111561143d5760026113ea88826141b1565b866113f68b60026141b1565b61140091906141c8565b61140a91906141c8565b611414908b6141b1565b61141f8860026141b1565b61142991906141db565b61143390876141b1565b6113c691906141ee565b6000611449888a6141c8565b9050600061145782886141c8565b9050600261146c8366071afd498d00006141b1565b6114778a60026141b1565b61148191906141db565b61148b90846141b1565b61149591906141ee565b61149f828a6141b1565b6114a991906141db565b945050505b60fe54670de0b6b3a7640000906114cf9067ffffffffffffffff16856141b1565b6114d991906141ee565b60fe54909250670de0b6b3a7640000906115099068010000000000000000900467ffffffffffffffff16856141b1565b61151391906141ee565b90508061152083856141c8565b61152a91906141c8565b935095509550955095915050565b611540612300565b80421061158f5760405162461bcd60e51b815260206004820152601360248201527f4d6f73734875623a2074782074696d656f757400000000000000000000000000604482015260640161098a565b61159c8686868686612724565b6115a6600160cc55565b505050505050565b6000808080806115d387600090815260ca60205260409020546001600160a01b031690565b6001600160a01b0316036116295760405162461bcd60e51b815260206004820152601d60248201527f4d6f73734875623a20746f6b656e206973206e6f742063726561746564000000604482015260640161098a565b66071afd498d0000600061163c8861181c565b9050600061164989611785565b60008a81526101006020526040902054909150806116a95760405162461bcd60e51b815260206004820152601960248201527f4d6f73734875623a207a65726f20666c6f6f7220707269636500000000000000604482015260640161098a565b6116b6848484848d611f89565b929d919c509a509098509650505050505050565b6000808080806116ef87600090815260ca60205260409020546001600160a01b031690565b6001600160a01b0316036117455760405162461bcd60e51b815260206004820152601d60248201527f4d6f73734875623a20746f6b656e206973206e6f742063726561746564000000604482015260640161098a565b66071afd498d000060006117588861181c565b9050600061176589611785565b60008a815261010060205260409020549091506116b6848484848d611313565b600081815261010260209081526040808320546101019092528220546109b891906141db565b6000818152610103602090815260408083205461010483528184205461010290935290832054909182916117df91906141ee565b6117e991906141b1565b6000848152610101602052604090205461180391906141db565b6109b891906141db565b611818338383612d31565b5050565b60006109b882612e25565b61182f612300565b600082116118a55760405162461bcd60e51b815260206004820152602660248201527f4d6f73734875623a20616d6f756e74206d75737420626520677265617465722060448201527f7468616e20300000000000000000000000000000000000000000000000000000606482015260840161098a565b604080516101008101825285815266071afd498d0000602082015260009181016118ce8761181c565b81526020016118dc87611785565b81526020016118f8876000908152610100602052604090205490565b8152602001611914876000908152610103602052604090205490565b8152602001848152602001856001600160a01b0316815250905060008060008061195585602001518660400151876060015188608001518960c00151611f89565b9350935093509350833410156119d35760405162461bcd60e51b815260206004820152602360248201527f4d6f73734875623a20696e73756666696369656e742066756e647320746f206d60448201527f696e740000000000000000000000000000000000000000000000000000000000606482015260840161098a565b85841115611a495760405162461bcd60e51b815260206004820152603960248201527f4d6f73734875623a2066756e6473206d757374206265206c657373207468616e60448201527f206f7220657175616c20746f206d6178696d756d2073656e7400000000000000606482015260840161098a565b83341115611a7d57611a7d33611a5f86346141c8565b60405180606001604052806023815260200161452d602391396123bd565b60ff5460408051606081019091526023808252611aad926001600160a01b031691849161455060208301396123bd565b8451600090815260ca6020526040902054611ad0906001600160a01b0316610fd8565b60408086015186516000908152610101602090815283822054895183526101049091529281205460a089015160c08a01519294611b119493909291906122b4565b90506000611b318760200151886040015189606001518a608001516121b0565b875160009081526101026020526040902054909150821115611bac576040808801518851600090815261010160205291909120546080890151611b869291908590611b7c8a876141db565b8c60c00151611c43565b875160009081526101006020908152604080832093909355895182526101029052208290555b611bc38760e0015188600001518960c00151612e39565b865160e08089015160c0808b01516040805133815260208101969096526001600160a01b03909316858401526060850152608084018a905260a084018890528301869052517fdcaf588f09c2b7600db130d5b5166c2c3eecdb321c81cdaba0921b1205d9888f9281900390910190a150505050505050611076600160cc55565b600080611c5086886141db565b905080611c5d848a6141db565b11611cd05760405162461bcd60e51b815260206004820152602960248201527f4d6f73734875623a20666c6f6f7220737570706c792069732067746520746f7460448201527f616c20737570706c790000000000000000000000000000000000000000000000606482015260840161098a565b600081611cdd858b6141db565b611ce791906141c8565b9050611cf3848a6141db565b611cfe9060026141b1565b81611d108166071afd498d00006141b1565b611d1a91906141b1565b611d258760026141b1565b611d2f91906141c8565b611d3991906141ee565b9250858311611db05760405162461bcd60e51b815260206004820152603960248201527f4d6f73734875623a2061646a757374656420666c6f6f7220707269636520697360448201527f206c7465206f726967696e616c20666c6f6f7220707269636500000000000000606482015260840161098a565b50509695505050505050565b600054610100900460ff1615808015611ddc5750600054600160ff909116105b80611df65750303b158015611df6575060005460ff166001145b611e685760405162461bcd60e51b815260206004820152602e60248201527f496e697469616c697a61626c653a20636f6e747261637420697320616c72656160448201527f647920696e697469616c697a6564000000000000000000000000000000000000606482015260840161098a565b6000805460ff191660011790558015611e8b576000805461ff0019166101001790555b60ff80547fffffffffffffffffffffffff0000000000000000000000000000000000000000166001600160a01b03841617905560fe80547fffffffffffffffffffffffffffffffff00000000000000000000000000000000166e58d15e176280000058d15e176280001790558015611818576000805461ff0019169055604051600181527f7f26b83ff96e1f2b6a682f133852f6798a09c465da95921460cefb3847402498906020015b60405180910390a15050565b600080611f4d8361181c565b90506000611f5a84611785565b60008581526101006020526040902054909150611f8066071afd498d00008484846121b0565b95945050505050565b600080808086611f99868a6141db565b11611faf57611fa885876141b1565b9250612092565b86881115612016576002611fc388826141b1565b86611fcf8b60026141b1565b611fd991906141db565b611fe391906141c8565b611fed908b6141b1565b611ff88860026141b1565b61200291906141db565b61200c90876141b1565b611fa891906141ee565b600061202289896141c8565b9050600088612031888c6141db565b61203b91906141c8565b905060026120508266071afd498d00006141b1565b61205b8a60026141b1565b61206591906141db565b61206f90836141b1565b61207991906141ee565b612083838a6141b1565b61208d91906141db565b945050505b60fe54670de0b6b3a7640000906120b39067ffffffffffffffff16856141b1565b6120bd91906141ee565b60fe54909250670de0b6b3a7640000906120ed9068010000000000000000900467ffffffffffffffff16856141b1565b6120f791906141ee565b90508061210483856141db565b61152a91906141db565b600081815260cb6020526040902080546060919061212b90614210565b80601f016020809104026020016040519081016040528092919081815260200182805461215790614210565b80156121a45780601f10612179576101008083540402835291602001916121a4565b820191906000526020600020905b81548152906001019060200180831161218757829003601f168201915b50505050509050919050565b60008284116121ca576121c384836141b1565b9050612211565b60006121d684866141c8565b90506002816121e581896141b1565b6121ef91906141b1565b6121f991906141ee565b61220386856141b1565b61220d91906141db565b9150505b949350505050565b6001600160a01b03851633148061223557506122358533610882565b6122a75760405162461bcd60e51b815260206004820152602e60248201527f455243313135353a2063616c6c6572206973206e6f7420746f6b656e206f776e60448201527f6572206f7220617070726f766564000000000000000000000000000000000000606482015260840161098a565b6111178585858585612ee1565b6000846122c183886141db565b1115611f8057600083866122d5858a6141db565b6122df91906141c8565b6122e991906141ee565b90506122f585826141b1565b979650505050505050565b600260cc54036123525760405162461bcd60e51b815260206004820152601f60248201527f5265656e7472616e637947756172643a207265656e7472616e742063616c6c00604482015260640161098a565b600260cc55565b6123648383836130c9565b600061236f8361181c565b11156123b857817f6bb7ff708619ba0610cba295a58592e0451dee2622938c8755667688daf3529b6040516123af90602080825260009082015260400190565b60405180910390a25b505050565b6000836001600160a01b03168360405160006040518083038185875af1925050503d806000811461240a576040519150601f19603f3d011682016040523d82523d6000602084013e61240f565b606091505b505090508082906111175760405162461bcd60e51b815260040161098a9190613acf565b81518351146124aa5760405162461bcd60e51b815260206004820152602860248201527f455243313135353a2069647320616e6420616d6f756e7473206c656e6774682060448201527f6d69736d61746368000000000000000000000000000000000000000000000000606482015260840161098a565b6001600160a01b0384166125265760405162461bcd60e51b815260206004820152602560248201527f455243313135353a207472616e7366657220746f20746865207a65726f20616460448201527f6472657373000000000000000000000000000000000000000000000000000000606482015260840161098a565b33612535818787878787613295565b60005b84518110156126745760008582815181106125555761255561416b565b6020026020010151905060008583815181106125735761257361416b565b60209081029190910181015160008481526065835260408082206001600160a01b038e16835290935291909120549091508181101561261a5760405162461bcd60e51b815260206004820152602a60248201527f455243313135353a20696e73756666696369656e742062616c616e636520666f60448201527f72207472616e7366657200000000000000000000000000000000000000000000606482015260840161098a565b60008381526065602090815260408083206001600160a01b038e8116855292528083208585039055908b168252812080548492906126599084906141db565b925050819055505050508061266d90614197565b9050612538565b50846001600160a01b0316866001600160a01b0316826001600160a01b03167f4a39dc06d4c0dbc64b70af90fd698a233a518aa5d07e595d983b8c0526c8f7fb87876040516126c492919061424a565b60405180910390a46115a6818787878787613423565b600082815260cb602052604090206126f282826142b5565b507f9881d3fc43c7ddce9f432f1abbb2720b9aa58489a32de89d7269df1807ac4d968282604051611f35929190614375565b61272d8561125c565b1561277a5760405162461bcd60e51b815260206004820152601560248201527f4d6f73734875623a20746f6b656e206578697374730000000000000000000000604482015260640161098a565b600085815260ca60205260409020546001600160a01b0316156127df5760405162461bcd60e51b815260206004820152601960248201527f4d6f73734875623a20746f6b656e206973206372656174656400000000000000604482015260640161098a565b64e8d4a5100084101561285a5760405162461bcd60e51b815260206004820152603d60248201527f4d6f73734875623a20666c6f6f72206d7573742062652067726561746572207460448201527f68616e206f7220657175616c20746f206d696e696d756d20666c6f6f72000000606482015260840161098a565b600083116128d05760405162461bcd60e51b815260206004820152602f60248201527f4d6f73734875623a20666c6f6f7220737570706c79206d75737420626520677260448201527f6561746572207468616e207a65726f0000000000000000000000000000000000606482015260840161098a565b600082116129455760405162461bcd60e51b8152602060048201526024808201527f4d6f73734875623a2073746570206d7573742067726561746572207468616e2060448201527f7a65726f00000000000000000000000000000000000000000000000000000000606482015260840161098a565b600081116129bb5760405162461bcd60e51b815260206004820152602660248201527f4d6f73734875623a20667353746570206d75737420677265617465722074686160448201527f6e207a65726f0000000000000000000000000000000000000000000000000000606482015260840161098a565b6129c6600a836141ee565b811115612a3b5760405162461bcd60e51b815260206004820152602960248201527f4d6f73734875623a20667353746570206d757374206265206c6573732074686160448201527f6e20737465702f31300000000000000000000000000000000000000000000000606482015260840161098a565b60fe54600090670de0b6b3a764000090612a6b9068010000000000000000900467ffffffffffffffff16876141b1565b612a7591906141ee565b9050612a8181866141db565b341015612af65760405162461bcd60e51b815260206004820152602560248201527f4d6f73734875623a20696e73756666696369656e742066756e647320746f206360448201527f7265617465000000000000000000000000000000000000000000000000000000606482015260840161098a565b612b0081866141db565b341115612bd95760003382612b1588346141c8565b612b1f91906141c8565b604051600081818185875af1925050503d8060008114612b5b576040519150601f19603f3d011682016040523d82523d6000602084013e612b60565b606091505b5050905080612bd75760405162461bcd60e51b815260206004820152602360248201527f4d6f73734875623a207472616e736665722066756e6473206261636b2066616960448201527f6c65640000000000000000000000000000000000000000000000000000000000606482015260840161098a565b505b60ff546040516000916001600160a01b03169083908381818185875af1925050503d8060008114612c26576040519150601f19603f3d011682016040523d82523d6000602084013e612c2b565b606091505b5050905080612c7c5760405162461bcd60e51b815260206004820152601f60248201527f4d6f73734875623a206661696c656420746f2072656365697665206665652000604482015260640161098a565b612c868733613627565b612c9233886001612e39565b6000878152610100602081815260408084208a90556101018252808420899055610103825280842088905561010482529283902086905582513381529081018a9052918201889052606082018790526080820186905260a0820185905260c0820188905260e082018490527f460cf3f1c0e37440b24f7a57d7c52f04ca2f3df751bcb4097d4a9e383b1a2477910160405180910390a150505050505050565b816001600160a01b0316836001600160a01b031603612db85760405162461bcd60e51b815260206004820152602960248201527f455243313135353a2073657474696e6720617070726f76616c2073746174757360448201527f20666f722073656c660000000000000000000000000000000000000000000000606482015260840161098a565b6001600160a01b03838116600081815260666020908152604080832094871680845294825291829020805460ff191686151590811790915591519182527f17307eab39ab6107e8899845ad3d59bd9653f200f220920489ca2b5937696c31910160405180910390a3505050565b6000818152609760205260408120546109b8565b60008111612e895760405162461bcd60e51b815260206004820152601160248201527f4d6f73733a207a65726f20616d6f756e74000000000000000000000000000000604482015260640161098a565b604080516000815260208101909152612ea7908490849084906136f4565b817f6bb7ff708619ba0610cba295a58592e0451dee2622938c8755667688daf3529b6040516123af90602080825260009082015260400190565b6001600160a01b038416612f5d5760405162461bcd60e51b815260206004820152602560248201527f455243313135353a207472616e7366657220746f20746865207a65726f20616460448201527f6472657373000000000000000000000000000000000000000000000000000000606482015260840161098a565b336000612f698561382c565b90506000612f768561382c565b9050612f86838989858589613295565b60008681526065602090815260408083206001600160a01b038c1684529091529020548581101561301f5760405162461bcd60e51b815260206004820152602a60248201527f455243313135353a20696e73756666696369656e742062616c616e636520666f60448201527f72207472616e7366657200000000000000000000000000000000000000000000606482015260840161098a565b60008781526065602090815260408083206001600160a01b038d8116855292528083208985039055908a1682528120805488929061305e9084906141db565b909155505060408051888152602081018890526001600160a01b03808b16928c821692918816917fc3d58168c5ae7397731d063d5bbf3d657854427343f4c083240f7aacaa2d0f62910160405180910390a46130be848a8a8a8a8a613877565b505050505050505050565b6001600160a01b0383166131455760405162461bcd60e51b815260206004820152602360248201527f455243313135353a206275726e2066726f6d20746865207a65726f206164647260448201527f6573730000000000000000000000000000000000000000000000000000000000606482015260840161098a565b3360006131518461382c565b9050600061315e8461382c565b905061317e83876000858560405180602001604052806000815250613295565b60008581526065602090815260408083206001600160a01b038a168452909152902054848110156132165760405162461bcd60e51b8152602060048201526024808201527f455243313135353a206275726e20616d6f756e7420657863656564732062616c60448201527f616e636500000000000000000000000000000000000000000000000000000000606482015260840161098a565b60008681526065602090815260408083206001600160a01b038b81168086529184528285208a8703905582518b81529384018a90529092908816917fc3d58168c5ae7397731d063d5bbf3d657854427343f4c083240f7aacaa2d0f62910160405180910390a46040805160208101909152600090525b50505050505050565b6001600160a01b03851661331c5760005b835181101561331a578281815181106132c1576132c161416b565b6020026020010151609760008684815181106132df576132df61416b565b60200260200101518152602001908152602001600020600082825461330491906141db565b90915550613313905081614197565b90506132a6565b505b6001600160a01b0384166115a65760005b835181101561328c57600084828151811061334a5761334a61416b565b6020026020010151905060008483815181106133685761336861416b565b60200260200101519050600060976000848152602001908152602001600020549050818110156134005760405162461bcd60e51b815260206004820152602860248201527f455243313135353a206275726e20616d6f756e74206578636565647320746f7460448201527f616c537570706c79000000000000000000000000000000000000000000000000606482015260840161098a565b6000928352609760205260409092209103905561341c81614197565b905061332d565b6001600160a01b0384163b156115a6576040517fbc197c810000000000000000000000000000000000000000000000000000000081526001600160a01b0385169063bc197c8190613480908990899088908890889060040161438e565b6020604051808303816000875af19250505080156134bb575060408051601f3d908101601f191682019092526134b8918101906143ec565b60015b613570576134c7614409565b806308c379a00361350057506134db614425565b806134e65750613502565b8060405162461bcd60e51b815260040161098a9190613acf565b505b60405162461bcd60e51b815260206004820152603460248201527f455243313135353a207472616e7366657220746f206e6f6e2d4552433131353560448201527f526563656976657220696d706c656d656e746572000000000000000000000000606482015260840161098a565b7fffffffff0000000000000000000000000000000000000000000000000000000081167fbc197c81000000000000000000000000000000000000000000000000000000001461328c5760405162461bcd60e51b815260206004820152602860248201527f455243313135353a204552433131353552656365697665722072656a6563746560448201527f6420746f6b656e73000000000000000000000000000000000000000000000000606482015260840161098a565b6136308261125c565b1561367d5760405162461bcd60e51b815260206004820152601260248201527f4d6f73733a20746f6b656e206578697374730000000000000000000000000000604482015260640161098a565b600082815260ca602090815260409182902080547fffffffffffffffffffffffff0000000000000000000000000000000000000000166001600160a01b0385169081179091558251858152918201527fc0186d9ba7364ebd80a7010121367f481af81e1028bf368b2172fedf2c6fc7de9101611f35565b6001600160a01b0384166137705760405162461bcd60e51b815260206004820152602160248201527f455243313135353a206d696e7420746f20746865207a65726f2061646472657360448201527f7300000000000000000000000000000000000000000000000000000000000000606482015260840161098a565b33600061377c8561382c565b905060006137898561382c565b905061379a83600089858589613295565b60008681526065602090815260408083206001600160a01b038b168452909152812080548792906137cc9084906141db565b909155505060408051878152602081018790526001600160a01b03808a1692600092918716917fc3d58168c5ae7397731d063d5bbf3d657854427343f4c083240f7aacaa2d0f62910160405180910390a461328c83600089898989613877565b604080516001808252818301909252606091600091906020808301908036833701905050905082816000815181106138665761386661416b565b602090810291909101015292915050565b6001600160a01b0384163b156115a6576040517ff23a6e610000000000000000000000000000000000000000000000000000000081526001600160a01b0385169063f23a6e61906138d490899089908890889088906004016144cd565b6020604051808303816000875af192505050801561390f575060408051601f3d908101601f1916820190925261390c918101906143ec565b60015b61391b576134c7614409565b7fffffffff0000000000000000000000000000000000000000000000000000000081167ff23a6e61000000000000000000000000000000000000000000000000000000001461328c5760405162461bcd60e51b815260206004820152602860248201527f455243313135353a204552433131353552656365697665722072656a6563746560448201527f6420746f6b656e73000000000000000000000000000000000000000000000000606482015260840161098a565b6000602082840312156139e457600080fd5b5035919050565b80356001600160a01b0381168114613a0257600080fd5b919050565b60008060408385031215613a1a57600080fd5b613a23836139eb565b946020939093013593505050565b7fffffffff0000000000000000000000000000000000000000000000000000000081168114613a5f57600080fd5b50565b600060208284031215613a7457600080fd5b8135610ca881613a31565b60005b83811015613a9a578181015183820152602001613a82565b50506000910152565b60008151808452613abb816020860160208601613a7f565b601f01601f19169290920160200192915050565b602081526000610ca86020830184613aa3565b60008060408385031215613af557600080fd5b613afe836139eb565b9150613b0c602084016139eb565b90509250929050565b60008060008060808587031215613b2b57600080fd5b84359350613b3b602086016139eb565b93969395505050506040820135916060013590565b634e487b7160e01b600052604160045260246000fd5b601f19601f830116810181811067ffffffffffffffff82111715613b8c57613b8c613b50565b6040525050565b600067ffffffffffffffff821115613bad57613bad613b50565b5060051b60200190565b600082601f830112613bc857600080fd5b81356020613bd582613b93565b604051613be28282613b66565b83815260059390931b8501820192828101915086841115613c0257600080fd5b8286015b84811015613c1d5780358352918301918301613c06565b509695505050505050565b600067ffffffffffffffff821115613c4257613c42613b50565b50601f01601f191660200190565b6000613c5b83613c28565b604051613c688282613b66565b809250848152858585011115613c7d57600080fd5b8484602083013760006020868301015250509392505050565b600082601f830112613ca757600080fd5b610ca883833560208501613c50565b600080600080600060a08688031215613cce57600080fd5b613cd7866139eb565b9450613ce5602087016139eb565b9350604086013567ffffffffffffffff80821115613d0257600080fd5b613d0e89838a01613bb7565b94506060880135915080821115613d2457600080fd5b613d3089838a01613bb7565b93506080880135915080821115613d4657600080fd5b50613d5388828901613c96565b9150509295509295909350565b60008060408385031215613d7357600080fd5b823567ffffffffffffffff80821115613d8b57600080fd5b818501915085601f830112613d9f57600080fd5b81356020613dac82613b93565b604051613db98282613b66565b83815260059390931b8501820192828101915089841115613dd957600080fd5b948201945b83861015613dfe57613def866139eb565b82529482019490820190613dde565b96505086013592505080821115613e1457600080fd5b50613e2185828601613bb7565b9150509250929050565b600081518084526020808501945080840160005b83811015613e5b57815187529582019590820190600101613e3f565b509495945050505050565b602081526000610ca86020830184613e2b565b60008060408385031215613e8c57600080fd5b82359150602083013567ffffffffffffffff811115613eaa57600080fd5b8301601f81018513613ebb57600080fd5b613e2185823560208401613c50565b600080600080600060a08688031215613ee257600080fd5b505083359560208501359550604085013594606081013594506080013592509050565b60008060008060008060c08789031215613f1e57600080fd5b505084359660208601359650604086013595606081013595506080810135945060a0013592509050565b60008060408385031215613f5b57600080fd5b50508035926020909101359150565b60008060408385031215613f7d57600080fd5b613f86836139eb565b915060208301358015158114613f9b57600080fd5b809150509250929050565b600060208284031215613fb857600080fd5b610ca8826139eb565b60008060008060808587031215613fd757600080fd5b5050823594602084013594506040840135936060013592509050565b600080600080600060a0868803121561400b57600080fd5b614014866139eb565b9450614022602087016139eb565b93506040860135925060608601359150608086013567ffffffffffffffff81111561404c57600080fd5b613d5388828901613c96565b8151815260208083015161014083019161407c908401826001600160a01b03169052565b506040830151614098604084018267ffffffffffffffff169052565b50606083015160608301526080830151608083015260a083015160a083015260c083015160c083015260e083015160e083015261010080840151818401525061012080840151818401525092915050565b6000602082840312156140fb57600080fd5b815167ffffffffffffffff81111561411257600080fd5b8201601f8101841361412357600080fd5b805161412e81613c28565b60405161413b8282613b66565b82815286602084860101111561415057600080fd5b614161836020830160208701613a7f565b9695505050505050565b634e487b7160e01b600052603260045260246000fd5b634e487b7160e01b600052601160045260246000fd5b600060001982036141aa576141aa614181565b5060010190565b80820281158282048414176109b8576109b8614181565b818103818111156109b8576109b8614181565b808201808211156109b8576109b8614181565b60008261420b57634e487b7160e01b600052601260045260246000fd5b500490565b600181811c9082168061422457607f821691505b60208210810361424457634e487b7160e01b600052602260045260246000fd5b50919050565b60408152600061425d6040830185613e2b565b8281036020840152611f808185613e2b565b601f8211156123b857600081815260208120601f850160051c810160208610156142965750805b601f850160051c820191505b818110156115a6578281556001016142a2565b815167ffffffffffffffff8111156142cf576142cf613b50565b6142e3816142dd8454614210565b8461426f565b602080601f83116001811461431857600084156143005750858301515b600019600386901b1c1916600185901b1785556115a6565b600085815260208120601f198616915b8281101561434757888601518255948401946001909101908401614328565b50858210156143655787850151600019600388901b60f8161c191681555b5050505050600190811b01905550565b8281526040602082015260006122116040830184613aa3565b60006001600160a01b03808816835280871660208401525060a060408301526143ba60a0830186613e2b565b82810360608401526143cc8186613e2b565b905082810360808401526143e08185613aa3565b98975050505050505050565b6000602082840312156143fe57600080fd5b8151610ca881613a31565b600060033d11156144225760046000803e5060005160e01c5b90565b600060443d10156144335790565b6040517ffffffffffffffffffffffffffffffffffffffffffffffffffffffffffffffffc803d016004833e81513d67ffffffffffffffff816024840111818411171561448157505050505090565b82850191508151818111156144995750505050505090565b843d87010160208285010111156144b35750505050505090565b6144c260208286010187613b66565b509095945050505050565b60006001600160a01b03808816835280871660208401525084604083015283606083015260a060808301526122f560a0830184613aa356fe4d6f73734875623a206661696c656420746f207472616e736665722063726561746f72206665654d6f73734875623a207472616e736665722066756e6473206261636b206661696c65644d6f73734875623a206661696c656420746f207472616e736665722064657620666565a26469706673582212202ae1849a709ab7bd8251ec79ad0b7e075d5fc5260ef1e2f3dafe88323683307764736f6c63430008130033",
  "libraries": {
    "NFTDescriptor": "0xCe4FB7ed615A0ae77Ea9fFE6ef6F4CC4B51EF9CD"
  },
  "devdoc": {
    "events": {
      "ApprovalForAll(address,address,bool)": {
        "details": "Emitted when `account` grants or revokes permission to `operator` to transfer their tokens, according to `approved`."
      },
      "Initialized(uint8)": {
        "details": "Triggered when the contract has been initialized or reinitialized."
      },
      "TransferBatch(address,address,address,uint256[],uint256[])": {
        "details": "Equivalent to multiple {TransferSingle} events, where `operator`, `from` and `to` are the same for all transfers."
      },
      "TransferSingle(address,address,address,uint256,uint256)": {
        "details": "Emitted when `value` tokens of token type `id` are transferred from `from` to `to` by `operator`."
      },
      "URI(string,uint256)": {
        "details": "Emitted when the URI for token type `id` changes to `value`, if it is a non-programmatic URI. If an {URI} event was emitted for `id`, the standard https://eips.ethereum.org/EIPS/eip-1155#metadata-extensions[guarantees] that `value` will equal the value returned by {IERC1155MetadataURI-uri}."
      }
    },
    "kind": "dev",
    "methods": {
      "balanceOf(address,uint256)": {
        "details": "See {IERC1155-balanceOf}. Requirements: - `account` cannot be the zero address."
      },
      "balanceOfBatch(address[],uint256[])": {
        "details": "See {IERC1155-balanceOfBatch}. Requirements: - `accounts` and `ids` must have the same length."
      },
      "isApprovedForAll(address,address)": {
        "details": "See {IERC1155-isApprovedForAll}."
      },
      "safeBatchTransferFrom(address,address,uint256[],uint256[],bytes)": {
        "details": "See {IERC1155-safeBatchTransferFrom}."
      },
      "safeTransferFrom(address,address,uint256,uint256,bytes)": {
        "details": "See {IERC1155-safeTransferFrom}."
      },
      "setApprovalForAll(address,bool)": {
        "details": "See {IERC1155-setApprovalForAll}."
      },
      "supportsInterface(bytes4)": {
        "details": "See {IERC165-supportsInterface}."
      }
    },
    "version": 1
  },
  "userdoc": {
    "kind": "user",
    "methods": {},
    "version": 1
  },
  "storageLayout": {
    "storage": [
      {
        "astId": 6,
        "contract": "contracts/core/MossHub.sol:MossHub",
        "label": "_initialized",
        "offset": 0,
        "slot": "0",
        "type": "t_uint8"
      },
      {
        "astId": 9,
        "contract": "contracts/core/MossHub.sol:MossHub",
        "label": "_initializing",
        "offset": 1,
        "slot": "0",
        "type": "t_bool"
      },
      {
        "astId": 2223,
        "contract": "contracts/core/MossHub.sol:MossHub",
        "label": "__gap",
        "offset": 0,
        "slot": "1",
        "type": "t_array(t_uint256)50_storage"
      },
      {
        "astId": 2267,
        "contract": "contracts/core/MossHub.sol:MossHub",
        "label": "__gap",
        "offset": 0,
        "slot": "51",
        "type": "t_array(t_uint256)50_storage"
      },
      {
        "astId": 281,
        "contract": "contracts/core/MossHub.sol:MossHub",
        "label": "_balances",
        "offset": 0,
        "slot": "101",
        "type": "t_mapping(t_uint256,t_mapping(t_address,t_uint256))"
      },
      {
        "astId": 287,
        "contract": "contracts/core/MossHub.sol:MossHub",
        "label": "_operatorApprovals",
        "offset": 0,
        "slot": "102",
        "type": "t_mapping(t_address,t_mapping(t_address,t_bool))"
      },
      {
        "astId": 289,
        "contract": "contracts/core/MossHub.sol:MossHub",
        "label": "_uri",
        "offset": 0,
        "slot": "103",
        "type": "t_string_storage"
      },
      {
        "astId": 1496,
        "contract": "contracts/core/MossHub.sol:MossHub",
        "label": "__gap",
        "offset": 0,
        "slot": "104",
        "type": "t_array(t_uint256)47_storage"
      },
      {
        "astId": 1685,
        "contract": "contracts/core/MossHub.sol:MossHub",
        "label": "_totalSupply",
        "offset": 0,
        "slot": "151",
        "type": "t_mapping(t_uint256,t_uint256)"
      },
      {
        "astId": 1836,
        "contract": "contracts/core/MossHub.sol:MossHub",
        "label": "__gap",
        "offset": 0,
        "slot": "152",
        "type": "t_array(t_uint256)49_storage"
      },
      {
        "astId": 4955,
        "contract": "contracts/core/MossHub.sol:MossHub",
        "label": "isApprovedDelegate",
        "offset": 0,
        "slot": "201",
        "type": "t_mapping(t_address,t_mapping(t_address,t_bool))"
      },
      {
        "astId": 3266,
        "contract": "contracts/core/MossHub.sol:MossHub",
        "label": "creators",
        "offset": 0,
        "slot": "202",
        "type": "t_mapping(t_uint256,t_address)"
      },
      {
        "astId": 3270,
        "contract": "contracts/core/MossHub.sol:MossHub",
        "label": "stoneNames",
        "offset": 0,
        "slot": "203",
        "type": "t_mapping(t_uint256,t_string_storage)"
      },
      {
        "astId": 182,
        "contract": "contracts/core/MossHub.sol:MossHub",
        "label": "_status",
        "offset": 0,
        "slot": "204",
        "type": "t_uint256"
      },
      {
        "astId": 251,
        "contract": "contracts/core/MossHub.sol:MossHub",
        "label": "__gap",
        "offset": 0,
        "slot": "205",
        "type": "t_array(t_uint256)49_storage"
      },
      {
        "astId": 3506,
        "contract": "contracts/core/MossHub.sol:MossHub",
        "label": "defaultCreatorFeePCT",
        "offset": 0,
        "slot": "254",
        "type": "t_uint64"
      },
      {
        "astId": 3508,
        "contract": "contracts/core/MossHub.sol:MossHub",
        "label": "devFeePCT",
        "offset": 8,
        "slot": "254",
        "type": "t_uint64"
      },
      {
        "astId": 3510,
        "contract": "contracts/core/MossHub.sol:MossHub",
        "label": "dev",
        "offset": 0,
        "slot": "255",
        "type": "t_address"
      },
      {
        "astId": 3514,
        "contract": "contracts/core/MossHub.sol:MossHub",
        "label": "f",
        "offset": 0,
        "slot": "256",
        "type": "t_mapping(t_uint256,t_uint256)"
      },
      {
        "astId": 3518,
        "contract": "contracts/core/MossHub.sol:MossHub",
        "label": "fs",
        "offset": 0,
        "slot": "257",
        "type": "t_mapping(t_uint256,t_uint256)"
      },
      {
        "astId": 3522,
        "contract": "contracts/core/MossHub.sol:MossHub",
        "label": "fsIncr",
        "offset": 0,
        "slot": "258",
        "type": "t_mapping(t_uint256,t_uint256)"
      },
      {
        "astId": 3526,
        "contract": "contracts/core/MossHub.sol:MossHub",
        "label": "step",
        "offset": 0,
        "slot": "259",
        "type": "t_mapping(t_uint256,t_uint256)"
      },
      {
        "astId": 3530,
        "contract": "contracts/core/MossHub.sol:MossHub",
        "label": "fsStep",
        "offset": 0,
        "slot": "260",
        "type": "t_mapping(t_uint256,t_uint256)"
      }
    ],
    "types": {
      "t_address": {
        "encoding": "inplace",
        "label": "address",
        "numberOfBytes": "20"
      },
      "t_array(t_uint256)47_storage": {
        "base": "t_uint256",
        "encoding": "inplace",
        "label": "uint256[47]",
        "numberOfBytes": "1504"
      },
      "t_array(t_uint256)49_storage": {
        "base": "t_uint256",
        "encoding": "inplace",
        "label": "uint256[49]",
        "numberOfBytes": "1568"
      },
      "t_array(t_uint256)50_storage": {
        "base": "t_uint256",
        "encoding": "inplace",
        "label": "uint256[50]",
        "numberOfBytes": "1600"
      },
      "t_bool": {
        "encoding": "inplace",
        "label": "bool",
        "numberOfBytes": "1"
      },
      "t_mapping(t_address,t_bool)": {
        "encoding": "mapping",
        "key": "t_address",
        "label": "mapping(address => bool)",
        "numberOfBytes": "32",
        "value": "t_bool"
      },
      "t_mapping(t_address,t_mapping(t_address,t_bool))": {
        "encoding": "mapping",
        "key": "t_address",
        "label": "mapping(address => mapping(address => bool))",
        "numberOfBytes": "32",
        "value": "t_mapping(t_address,t_bool)"
      },
      "t_mapping(t_address,t_uint256)": {
        "encoding": "mapping",
        "key": "t_address",
        "label": "mapping(address => uint256)",
        "numberOfBytes": "32",
        "value": "t_uint256"
      },
      "t_mapping(t_uint256,t_address)": {
        "encoding": "mapping",
        "key": "t_uint256",
        "label": "mapping(uint256 => address)",
        "numberOfBytes": "32",
        "value": "t_address"
      },
      "t_mapping(t_uint256,t_mapping(t_address,t_uint256))": {
        "encoding": "mapping",
        "key": "t_uint256",
        "label": "mapping(uint256 => mapping(address => uint256))",
        "numberOfBytes": "32",
        "value": "t_mapping(t_address,t_uint256)"
      },
      "t_mapping(t_uint256,t_string_storage)": {
        "encoding": "mapping",
        "key": "t_uint256",
        "label": "mapping(uint256 => string)",
        "numberOfBytes": "32",
        "value": "t_string_storage"
      },
      "t_mapping(t_uint256,t_uint256)": {
        "encoding": "mapping",
        "key": "t_uint256",
        "label": "mapping(uint256 => uint256)",
        "numberOfBytes": "32",
        "value": "t_uint256"
      },
      "t_string_storage": {
        "encoding": "bytes",
        "label": "string",
        "numberOfBytes": "32"
      },
      "t_uint256": {
        "encoding": "inplace",
        "label": "uint256",
        "numberOfBytes": "32"
      },
      "t_uint64": {
        "encoding": "inplace",
        "label": "uint64",
        "numberOfBytes": "8"
      },
      "t_uint8": {
        "encoding": "inplace",
        "label": "uint8",
        "numberOfBytes": "1"
      }
    }
  }
}