{
  "address": "0x86cd6bddD1B2E08C5bfC4bcdf3ECCB269a0fd13E",
  "abi": [
    {
      "inputs": [
        {
          "internalType": "uint256",
          "name": "id",
          "type": "uint256"
        },
        {
          "internalType": "address",
          "name": "creator",
          "type": "address"
        },
        {
          "internalType": "string",
          "name": "stoneName",
          "type": "string"
        }
      ],
      "name": "getTokenURI",
      "outputs": [
        {
          "internalType": "string",
          "name": "",
          "type": "string"
        }
      ],
      "stateMutability": "pure",
      "type": "function"
    }
  ],
  "transactionHash": "0x669996da4a84648e4e4b6ab6822ef2ef8719cbc42243cedf13fa542148c13092",
  "args": [],
  "numDeployments": 3,
  "solcInputHash": "6ef6fd45e043e2f966e9d8c987666d1b",
  "bytecode": "0x611c5e61003a600b82828239805160001a60731461002d57634e487b7160e01b600052600060045260246000fd5b30600052607381538281f3fe73000000000000000000000000000000000000000030146080604052600436106100355760003560e01c806331b0d8901461003a575b600080fd5b61004d610048366004610f1b565b610063565b60405161005a9190611025565b60405180910390f35b6060815160000361009957610077846100ff565b6040516020016100879190611074565b60405160208183030381529060405291505b600082836100a887878761019f565b6100b1886100ff565b6040516020016100c494939291906110b9565b6040516020818303038152906040529050806040516020016100e69190611234565b6040516020818303038152906040529150509392505050565b6060600061010c8361029b565b600101905060008167ffffffffffffffff81111561012c5761012c610f05565b6040519080825280601f01601f191660200182016040528015610156576020820181803683370190505b5090508181016020015b600019017f3031323334353637383961626364656600000000000000000000000000000000600a86061a8153600a850494508461016057509392505050565b6060600073ffffffffffffffffffffffffffffffffffffffff6101c38660016112a5565b8573ffffffffffffffffffffffffffffffffffffffff1609604051602001610216919060609190911b7fffffffffffffffffffffffffffffffffffffffff00000000000000000000000016815260140190565b60405160208183030381529060405290506000610236826000600a61037e565b9050600061024683600a8061037e565b905061025182610504565b61025a826106b0565b610264898861086f565b61026d896108cd565b60405160200161028094939291906112b8565b60405160208183030381529060405293505050509392505050565b6000807a184f03e93ff9f4daa797ed6e38ed64bf6a1f01000000000000000083106102e4577a184f03e93ff9f4daa797ed6e38ed64bf6a1f010000000000000000830492506040015b6d04ee2d6d415b85acef81000000008310610310576d04ee2d6d415b85acef8100000000830492506020015b662386f26fc10000831061032e57662386f26fc10000830492506010015b6305f5e1008310610346576305f5e100830492506008015b612710831061035a57612710830492506004015b6064831061036c576064830492506002015b600a8310610378576001015b92915050565b60608161038c81601f6112a5565b10156103df5760405162461bcd60e51b815260206004820152600e60248201527f736c6963655f6f766572666c6f7700000000000000000000000000000000000060448201526064015b60405180910390fd5b826103ea83826112a5565b10156104385760405162461bcd60e51b815260206004820152600e60248201527f736c6963655f6f766572666c6f7700000000000000000000000000000000000060448201526064016103d6565b61044282846112a5565b845110156104925760405162461bcd60e51b815260206004820152601160248201527f736c6963655f6f75744f66426f756e647300000000000000000000000000000060448201526064016103d6565b6060821580156104b157604051915060008252602082016040526104fb565b6040519150601f8416801560200281840101858101878315602002848b0101015b818310156104ea5780518352602092830192016104d2565b5050858452601f01601f1916604052505b50949350505050565b606060008260008151811061051b5761051b611495565b602001015160f81c60f81b60f81c905060008360018151811061054057610540611495565b602001015160f81c60f81b60f81c905060008460028151811061056557610565611495565b602001015160f81c60f81b60f81c905060008560038151811061058a5761058a611495565b602001015160f81c60f81b60f81c90506000866004815181106105af576105af611495565b016020015160f81c905060006105c888600560036108fe565b90506000610400896009815181106105e2576105e2611495565b602001015160f81c60f81b60f81c60ff168a60088151811061060657610606611495565b016020015161061a9060f81c6102006112a5565b61062491906112a5565b610630906127106114ab565b61063a91906114c2565b905061065461064f60ff808916908a166112a5565b6100ff565b61066761064f60ff8088169089166112a5565b6106738560ff166100ff565b8461067f856002610b2a565b6040516020016106939594939291906114d6565b604051602081830303815290604052975050505050505050919050565b60606000826000815181106106c7576106c7611495565b602001015160f81c60f81b60f81c90506000836001815181106106ec576106ec611495565b602001015160f81c60f81b60f81c905060008460028151811061071157610711611495565b602001015160f81c60f81b60f81c905060008560038151811061073657610736611495565b602001015160f81c60f81b60f81c905060008660048151811061075b5761075b611495565b016020015160f81c9050600061077488600560036108fe565b905060006104008960098151811061078e5761078e611495565b602001015160f81c60f81b60f81c60ff168a6008815181106107b2576107b2611495565b01602001516107c69060f81c6102006112a5565b6107d091906112a5565b6107dc906127106114ab565b6107e691906114c2565b905060006107f5826002610b2a565b90506000610804836004610b2a565b905061081961064f60ff808b16908c166112a5565b61082c61064f60ff808a16908b166112a5565b6108388760ff166100ff565b86858560405160200161085096959493929190611640565b6040516020818303038152906040529950505050505050505050919050565b606081516000036108a557610883836100ff565b6040516020016108939190611074565b60405160208183030381529060405291505b816040516020016108b69190611852565b604051602081830303815290604052905092915050565b60606108d882610c3a565b6040516020016108e89190611930565b6040516020818303038152906040529050919050565b6060600061090c83856112a5565b9050845181111561095f5760405162461bcd60e51b815260206004820152601760248201527f537472696e67733a20696e76616c696420706172616d7300000000000000000060448201526064016103d6565b600061096c8460026114ab565b67ffffffffffffffff81111561098457610984610f05565b6040519080825280601f01601f1916602001820160405280156109ae576020820181803683370190505b509050845b82811015610b205760008782815181106109cf576109cf611495565b016020015160f881901c91507f30313233343536373839616263646566000000000000000000000000000000009060fc1c60108110610a1057610a10611495565b1a60f81b83610a1f8985611a0e565b610a2a9060026114ab565b81518110610a3a57610a3a611495565b60200101907effffffffffffffffffffffffffffffffffffffffffffffffffffffffffffff1916908160001a9053507f3031323334353637383961626364656600000000000000000000000000000000610a95601083611a21565b60ff1660108110610aa857610aa8611495565b1a60f81b83610ab78985611a0e565b610ac29060026114ab565b610acd9060016112a5565b81518110610add57610add611495565b60200101907effffffffffffffffffffffffffffffffffffffffffffffffffffffffffffff1916908160001a905350508080610b1890611a43565b9150506109b3565b5095945050505050565b60606000610b3983600a611b41565b90506000610b4782866114c2565b90506000610b558387611b4d565b905080600003610b7257610b68826100ff565b9350505050610378565b6000610b7d8261029b565b610b889060016112a5565b905080861015610bda5760405162461bcd60e51b815260206004820152601d60248201527f4e756d6265724c69623a20696e76616c6964206672616374696f6e616c00000060448201526064016103d6565b6000610be68288611a0e565b90506000610bf661064f85610c5d565b9050610c01856100ff565b610c0a83610c92565b82604051602001610c1d93929190611b61565b604051602081830303815290604052965050505050505092915050565b606061037873ffffffffffffffffffffffffffffffffffffffff83166014610cd5565b60005b8115801590610c775750610c75600a83611b4d565b155b15610c8e57610c87600a836114c2565b9150610c60565b5090565b60605b8115610cd05780604051602001610cac9190611bd0565b60405160208183030381529060405290508180610cc890611c11565b925050610c95565b919050565b60606000610ce48360026114ab565b610cef9060026112a5565b67ffffffffffffffff811115610d0757610d07610f05565b6040519080825280601f01601f191660200182016040528015610d31576020820181803683370190505b5090507f300000000000000000000000000000000000000000000000000000000000000081600081518110610d6857610d68611495565b60200101907effffffffffffffffffffffffffffffffffffffffffffffffffffffffffffff1916908160001a9053507f780000000000000000000000000000000000000000000000000000000000000081600181518110610dcb57610dcb611495565b60200101907effffffffffffffffffffffffffffffffffffffffffffffffffffffffffffff1916908160001a9053506000610e078460026114ab565b610e129060016112a5565b90505b6001811115610eaf577f303132333435363738396162636465660000000000000000000000000000000085600f1660108110610e5357610e53611495565b1a60f81b828281518110610e6957610e69611495565b60200101907effffffffffffffffffffffffffffffffffffffffffffffffffffffffffffff1916908160001a90535060049490941c93610ea881611c11565b9050610e15565b508315610efe5760405162461bcd60e51b815260206004820181905260248201527f537472696e67733a20686578206c656e67746820696e73756666696369656e7460448201526064016103d6565b9392505050565b634e487b7160e01b600052604160045260246000fd5b600080600060608486031215610f3057600080fd5b83359250602084013573ffffffffffffffffffffffffffffffffffffffff81168114610f5b57600080fd5b9150604084013567ffffffffffffffff80821115610f7857600080fd5b818601915086601f830112610f8c57600080fd5b813581811115610f9e57610f9e610f05565b604051601f8201601f19908116603f01168101908382118183101715610fc657610fc6610f05565b81604052828152896020848701011115610fdf57600080fd5b8260208601602083013760006020848301015280955050505050509250925092565b60005b8381101561101c578181015183820152602001611004565b50506000910152565b6020815260008251806020840152611044816040850160208701611001565b601f01601f19169190910160400192915050565b6000815161106a818560208601611001565b9290920192915050565b7f404d6f73732d00000000000000000000000000000000000000000000000000008152600082516110ac816006850160208701611001565b9190910160060192915050565b7f7b226e616d65223a2200000000000000000000000000000000000000000000008152600085516110f1816009850160208a01611001565b7f222c226465736372697074696f6e223a22000000000000000000000000000000600991840191820152855161112e81601a840160208a01611001565b7f222c2265787465726e616c5f75726c223a2268747470733a2f2f7777772e6261601a92909101918201527f6964752e636f6d2f222c22696d6167655f64617461223a220000000000000000603a8201528451611192816052840160208901611001565b7f222c2261747472696275746573223a5b7b2274726169745f74797065223a2269605292909101918201527f64222c2276616c7565223a222300000000000000000000000000000000000000607282015283516111f681607f840160208801611001565b611228607f828401017f227d5d7d00000000000000000000000000000000000000000000000000000000815260040190565b98975050505050505050565b7f646174613a6170706c69636174696f6e2f6a736f6e3b757466382c000000000081526000825161126c81601b850160208701611001565b91909101601b0192915050565b634e487b7160e01b600052601260045260246000fd5b634e487b7160e01b600052601160045260246000fd5b808201808211156103785761037861128f565b7f3c7376672077696474683d2735313227206865696768743d273531322720766981527f6577426f783d273020302035313220353132272066696c6c3d276e6f6e65272060208201527f786d6c6e733d27687474703a2f2f7777772e77332e6f72672f323030302f737660408201527f672720786d6c6e733a786c696e6b3d27687474703a2f2f7777772e77332e6f7260608201527f672f313939392f786c696e6b273e203c646566733e3c636c697050617468206960808201527f643d276375742d6f6666273e3c636972636c652063783d27323536272063793d60a08201527f273235362720723d2732353627202f3e3c2f636c6970506174683e3c2f64656660c08201527f733e00000000000000000000000000000000000000000000000000000000000060e08201527f3c636972636c652069643d276375742d6f6666272063783d273235362720637960e28201527f3d273235362720723d27323536272066696c6c3d272330303030303027202f3e610102820152600061012286516114498183860160208b01611001565b61122861146c61146661146085858901018b611058565b89611058565b87611058565b7f3c2f7376673e0000000000000000000000000000000000000000000000000000815260060190565b634e487b7160e01b600052603260045260246000fd5b80820281158282048414176103785761037861128f565b6000826114d1576114d1611279565b500490565b7f3c636972636c652063783d270000000000000000000000000000000000000000815260008651602061150f82600c8601838c01611001565b7f272063793d270000000000000000000000000000000000000000000000000000600c92850192830152875161154b8160128501848c01611001565b7f2720723d270000000000000000000000000000000000000000000000000000006012939091019283015286516115888160178501848b01611001565b7f272066696c6c3d272300000000000000000000000000000000000000000000006017939091019283015285516115c481838501848a01611001565b7f272066696c6c2d6f7061636974793d270000000000000000000000000000000092018181019290925284516116008160308501888501611001565b6116326030828501017f252720636c69702d706174683d2775726c28236375742d6f66662927202f3e008152601f0190565b9a9950505050505050505050565b7f3c636972636c652063783d270000000000000000000000000000000000000000815260008751602061167982600c8601838d01611001565b7f272063793d270000000000000000000000000000000000000000000000000000600c9285019283015288516116b58160128501848d01611001565b7f2720723d270000000000000000000000000000000000000000000000000000006012939091019283015287516116f28160178501848c01611001565b7f272066696c6c3d2723000000000000000000000000000000000000000000000060179390910192830152865161172e81838501848b01611001565b7f272066696c6c2d6f7061636974793d2700000000000000000000000000000000920181810192909252855161176a8160308501898501611001565b6118436117f46117ee6030848701017f252720636c69702d706174683d2775726c28236375742d6f666629273e3c616e81527f696d617465206174747269627574654e616d653d2766696c6c2d6f706163697460208201527f79272076616c7565733d27303b000000000000000000000000000000000000006040820152604d0190565b88611058565b7f3b3027206475723d2733732720726570656174436f756e743d27696e6465666981527f6e69746527202f3e3c2f636972636c653e000000000000000000000000000000602082015260310190565b9b9a5050505050505050505050565b7f3c7465787420783d273235362720793d27323536272066696c6c3d272366666681527f6666662720746578742d616e63686f723d276d6964646c652720666f6e742d7360208201527f697a653d2733362720666f6e742d7765696768743d27626f6c642720666f6e7460408201527f2d7374796c653d276974616c6963273e000000000000000000000000000000006060820152600082516118fc816070850160208701611001565b7f3c2f746578743e000000000000000000000000000000000000000000000000006070939091019283015250607701919050565b7f3c7465787420783d273235362720793d27333830272066696c6c3d272366666681527f6666662720746578742d616e63686f723d276d6964646c652720666f6e742d7360208201527f697a653d2731322720666f6e742d7765696768743d27626f6c642720666f6e7460408201527f2d7374796c653d276974616c6963273e43726561746f723a20000000000000006060820152600082516119da816079850160208701611001565b7f3c2f746578743e000000000000000000000000000000000000000000000000006079939091019283015250608001919050565b818103818111156103785761037861128f565b600060ff831680611a3457611a34611279565b8060ff84160691505092915050565b60006000198203611a5657611a5661128f565b5060010190565b600181815b80851115611a98578160001904821115611a7e57611a7e61128f565b80851615611a8b57918102915b93841c9390800290611a62565b509250929050565b600082611aaf57506001610378565b81611abc57506000610378565b8160018114611ad25760028114611adc57611af8565b6001915050610378565b60ff841115611aed57611aed61128f565b50506001821b610378565b5060208310610133831016604e8410600b8410161715611b1b575081810a610378565b611b258383611a5d565b8060001904821115611b3957611b3961128f565b029392505050565b6000610efe8383611aa0565b600082611b5c57611b5c611279565b500690565b60008451611b73818460208901611001565b7f2e000000000000000000000000000000000000000000000000000000000000009083019081528451611bad816001840160208901611001565b8451910190611bc3816001840160208801611001565b0160010195945050505050565b60008251611be2818460208701611001565b7f3000000000000000000000000000000000000000000000000000000000000000920191825250600101919050565b600081611c2057611c2061128f565b50600019019056fea2646970667358221220e67fb5b57c523d0f30a9cd640dc12a839cfd0a98fc76e6973c8e460ae8086f8964736f6c63430008130033",
  "devdoc": {
    "kind": "dev",
    "methods": {},
    "version": 1
  },
  "userdoc": {
    "kind": "user",
    "methods": {},
    "version": 1
  },
  "storageLayout": {
    "storage": [],
    "types": null
  }
}