{
  "address": "0xD780A32eaF47f04f657C36bD65d6b7BB41e655cF",
  "abi": [
    {
      "inputs": [
        {
          "internalType": "uint256",
          "name": "id",
          "type": "uint256"
        },
        {
          "internalType": "address",
          "name": "creator",
          "type": "address"
        }
      ],
      "name": "getTokenURI",
      "outputs": [
        {
          "internalType": "string",
          "name": "",
          "type": "string"
        }
      ],
      "stateMutability": "pure",
      "type": "function"
    }
  ],
  "transactionHash": "0x7b538396b57611ab7e52519e30bbd927c90f0302d9794d21dbc88c7fadb192ed",
  "args": [],
  "numDeployments": 1,
  "solcInputHash": "fa580a5258c963f6c6f6f38cf14bdad0",
  "bytecode": "0x61142e61003a600b82828239805160001a60731461002d57634e487b7160e01b600052600060045260246000fd5b30600052607381538281f3fe73000000000000000000000000000000000000000030146080604052600436106100355760003560e01c8063dfc3f2591461003a575b600080fd5b61004d610048366004610a45565b610063565b60405161005a9190610ab2565b60405180910390f35b60606000610070846100f7565b6040516020016100809190610b01565b60405160208183030381529060405290506000818261009f8787610197565b6100a8886100f7565b6040516020016100bb9493929190610b46565b6040516020818303038152906040529050806040516020016100dd9190610c95565b604051602081830303815290604052925050505b92915050565b6060600061010483610246565b600101905060008167ffffffffffffffff81111561012457610124610cda565b6040519080825280601f01601f19166020018201604052801561014e576020820181803683370190505b5090508181016020015b600019017f3031323334353637383961626364656600000000000000000000000000000000600a86061a8153600a850494508461015857509392505050565b604051606082811b7fffffffffffffffffffffffffffffffffffffffff00000000000000000000000016602083015290600090603401604051602081830303815290604052905060006101ed826000600a610328565b905060006101fd83600a80610328565b9050610208826104ae565b61021182610657565b61021a886107e8565b60405160200161022c93929190610d06565b604051602081830303815290604052935050505092915050565b6000807a184f03e93ff9f4daa797ed6e38ed64bf6a1f010000000000000000831061028f577a184f03e93ff9f4daa797ed6e38ed64bf6a1f010000000000000000830492506040015b6d04ee2d6d415b85acef810000000083106102bb576d04ee2d6d415b85acef8100000000830492506020015b662386f26fc1000083106102d957662386f26fc10000830492506010015b6305f5e10083106102f1576305f5e100830492506008015b612710831061030557612710830492506004015b60648310610317576064830492506002015b600a83106100f15760010192915050565b60608161033681601f610efb565b10156103895760405162461bcd60e51b815260206004820152600e60248201527f736c6963655f6f766572666c6f7700000000000000000000000000000000000060448201526064015b60405180910390fd5b826103948382610efb565b10156103e25760405162461bcd60e51b815260206004820152600e60248201527f736c6963655f6f766572666c6f770000000000000000000000000000000000006044820152606401610380565b6103ec8284610efb565b8451101561043c5760405162461bcd60e51b815260206004820152601160248201527f736c6963655f6f75744f66426f756e64730000000000000000000000000000006044820152606401610380565b60608215801561045b57604051915060008252602082016040526104a5565b6040519150601f8416801560200281840101858101878315602002848b0101015b8183101561049457805183526020928301920161047c565b5050858452601f01601f1916604052505b50949350505050565b60606000826000815181106104c5576104c5610f0e565b602001015160f81c60f81b60f81c90506000836001815181106104ea576104ea610f0e565b602001015160f81c60f81b60f81c905060008460028151811061050f5761050f610f0e565b602001015160f81c60f81b60f81c905060008560038151811061053457610534610f0e565b602001015160f81c60f81b60f81c905060008660048151811061055957610559610f0e565b016020015160f81c905060006105728860056003610819565b905060006104008960098151811061058c5761058c610f0e565b602001015160f81c60f81b60f81c60ff168a6008815181106105b0576105b0610f0e565b01602001516105c49060f81c610200610efb565b6105ce9190610efb565b6105d9906064610f24565b6105e39190610f3b565b90506105fd6105f860ff808916908a16610efb565b6100f7565b6106106105f860ff808816908916610efb565b61061c8560ff166100f7565b84610626856100f7565b60405160200161063a959493929190610f4f565b604051602081830303815290604052975050505050505050919050565b606060008260008151811061066e5761066e610f0e565b602001015160f81c60f81b60f81c905060008360018151811061069357610693610f0e565b602001015160f81c60f81b60f81c90506000846002815181106106b8576106b8610f0e565b602001015160f81c60f81b60f81c90506000856003815181106106dd576106dd610f0e565b602001015160f81c60f81b60f81c905060008660048151811061070257610702610f0e565b016020015160f81c9050600061071b8860056003610819565b905060006104008960098151811061073557610735610f0e565b602001015160f81c60f81b60f81c60ff168a60088151811061075957610759610f0e565b016020015161076d9060f81c610200610efb565b6107779190610efb565b610782906064610f24565b61078c9190610f3b565b90506107a16105f860ff808916908a16610efb565b6107b46105f860ff808816908916610efb565b6107c08560ff166100f7565b846107ca856100f7565b6107d3866100f7565b60405160200161063a969594939291906110b9565b60606107f3826100f7565b60405160200161080391906112cb565b6040516020818303038152906040529050919050565b606060006108278385610efb565b9050845181111561087a5760405162461bcd60e51b815260206004820152601760248201527f537472696e67733a20696e76616c696420706172616d730000000000000000006044820152606401610380565b6000610887846002610f24565b67ffffffffffffffff81111561089f5761089f610cda565b6040519080825280601f01601f1916602001820160405280156108c9576020820181803683370190505b509050845b82811015610a3b5760008782815181106108ea576108ea610f0e565b016020015160f881901c91507f30313233343536373839616263646566000000000000000000000000000000009060fc1c6010811061092b5761092b610f0e565b1a60f81b8361093a89856113a9565b610945906002610f24565b8151811061095557610955610f0e565b60200101907effffffffffffffffffffffffffffffffffffffffffffffffffffffffffffff1916908160001a9053507f30313233343536373839616263646566000000000000000000000000000000006109b06010836113bc565b60ff16601081106109c3576109c3610f0e565b1a60f81b836109d289856113a9565b6109dd906002610f24565b6109e8906001610efb565b815181106109f8576109f8610f0e565b60200101907effffffffffffffffffffffffffffffffffffffffffffffffffffffffffffff1916908160001a905350508080610a33906113de565b9150506108ce565b5095945050505050565b60008060408385031215610a5857600080fd5b82359150602083013573ffffffffffffffffffffffffffffffffffffffff81168114610a8357600080fd5b809150509250929050565b60005b83811015610aa9578181015183820152602001610a91565b50506000910152565b6020815260008251806020840152610ad1816040850160208701610a8e565b601f01601f19169190910160400192915050565b60008151610af7818560208601610a8e565b9290920192915050565b7f404d6f73732d0000000000000000000000000000000000000000000000000000815260008251610b39816006850160208701610a8e565b9190910160060192915050565b7f7b226e616d65223a220000000000000000000000000000000000000000000000815260008551610b7e816009850160208a01610a8e565b7f222c226465736372697074696f6e223a220000000000000000000000000000006009918401918201528551610bbb81601a840160208a01610a8e565b7f222c22696d6167655f64617461223a2200000000000000000000000000000000601a92909101918201528451610bf981602a840160208901610a8e565b7f222c2261747472696275746573223a5b7b2274726169745f74797065223a2269602a92909101918201527f64222c2276616c7565223a222300000000000000000000000000000000000000604a8201528351610c5d816057840160208801610a8e565b7f227d5d7d0000000000000000000000000000000000000000000000000000000060579290910191820152605b019695505050505050565b7f646174613a6170706c69636174696f6e2f6a736f6e3b757466382c0000000000815260008251610ccd81601b850160208701610a8e565b91909101601b0192915050565b634e487b7160e01b600052604160045260246000fd5b634e487b7160e01b600052601260045260246000fd5b7f3c7376672077696474683d2735313227206865696768743d273531322720766981527f6577426f783d273020302035313220353132272066696c6c3d276e6f6e65272060208201527f786d6c6e733d27687474703a2f2f7777772e77332e6f72672f323030302f737660408201527f672720786d6c6e733a786c696e6b3d27687474703a2f2f7777772e77332e6f7260608201527f672f313939392f786c696e6b273e203c646566733e3c636c697050617468206960808201527f643d276375742d6f6666273e3c636972636c652063783d27323536272063793d60a08201527f273235362720723d2732353627202f3e3c2f636c6970506174683e3c2f64656660c08201527f733e00000000000000000000000000000000000000000000000000000000000060e08201527f3c636972636c652069643d276375742d6f6666272063783d273235362720637960e28201527f3d273235362720723d27323536272066696c6c3d272330303030303027202f3e61010282015260006101228551610e978183860160208a01610a8e565b610eda610eb1610eab848488010189610ae5565b87610ae5565b7f3c2f7376673e0000000000000000000000000000000000000000000000000000815260060190565b979650505050505050565b634e487b7160e01b600052601160045260246000fd5b808201808211156100f1576100f1610ee5565b634e487b7160e01b600052603260045260246000fd5b80820281158282048414176100f1576100f1610ee5565b600082610f4a57610f4a610cf0565b500490565b7f3c636972636c652063783d2700000000000000000000000000000000000000008152600086516020610f8882600c8601838c01610a8e565b7f272063793d270000000000000000000000000000000000000000000000000000600c928501928301528751610fc48160128501848c01610a8e565b7f2720723d270000000000000000000000000000000000000000000000000000006012939091019283015286516110018160178501848b01610a8e565b7f272066696c6c3d2723000000000000000000000000000000000000000000000060179390910192830152855161103d81838501848a01610a8e565b7f272066696c6c2d6f7061636974793d270000000000000000000000000000000092018181019290925284516110798160308501888501610a8e565b6110ab6030828501017f252720636c69702d706174683d2775726c28236375742d6f66662927202f3e008152601f0190565b9a9950505050505050505050565b7f3c636972636c652063783d27000000000000000000000000000000000000000081526000875160206110f282600c8601838d01610a8e565b7f272063793d270000000000000000000000000000000000000000000000000000600c92850192830152885161112e8160128501848d01610a8e565b7f2720723d2700000000000000000000000000000000000000000000000000000060129390910192830152875161116b8160178501848c01610a8e565b7f272066696c6c3d272300000000000000000000000000000000000000000000006017939091019283015286516111a781838501848b01610a8e565b7f272066696c6c2d6f7061636974793d270000000000000000000000000000000092018181019290925285516111e38160308501898501610a8e565b6112bc61126d6112676030848701017f252720636c69702d706174683d2775726c28236375742d6f666629273e3c616e81527f696d617465206174747269627574654e616d653d2766696c6c2d6f706163697460208201527f79272076616c7565733d27303b302e00000000000000000000000000000000006040820152604f0190565b88610ae5565b7f3b3027206475723d2733732720726570656174436f756e743d27696e6465666981527f6e69746527202f3e3c2f636972636c653e000000000000000000000000000000602082015260310190565b9b9a5050505050505050505050565b7f3c7465787420783d273235362720793d27323536272066696c6c3d272366666681527f6666662720746578742d616e63686f723d276d6964646c652720666f6e742d7360208201527f697a653d2733362720666f6e742d7765696768743d27626f6c642720666f6e7460408201527f2d7374796c653d276974616c6963273e404d6f73732d00000000000000000000606082015260008251611375816076850160208701610a8e565b7f3c2f746578743e000000000000000000000000000000000000000000000000006076939091019283015250607d01919050565b818103818111156100f1576100f1610ee5565b600060ff8316806113cf576113cf610cf0565b8060ff84160691505092915050565b600060001982036113f1576113f1610ee5565b506001019056fea264697066735822122048c52f8a66a29c868e3e32714590aa6c80ef9cbe6d1a4e2c10d5d29e9a2f473a64736f6c63430008130033",
  "devdoc": {
    "kind": "dev",
    "methods": {},
    "version": 1
  },
  "userdoc": {
    "kind": "user",
    "methods": {},
    "version": 1
  },
  "storageLayout": {
    "storage": [],
    "types": null
  }
}